:020000040800F2
:1000000000000120211C0008F71A0008F91A000856
:10001000FB1A0008FD1A0008FF1A00080000000083
:10002000000000000000000000000000391000087F
:10003000011B000800000000C9100008B5100008EE
:10004000B5100008B5100008B5100008B51000087C
:10005000B5100008B5100008B5100008B51000086C
:10006000B5100008B5100008B5100008B51000085C
:10007000B5100008B5100008B5100008B51000084C
:10008000B5100008B5100008B5100008B51000083C
:10009000B5100008B5100008B5100008B51000082C
:1000A000B5100008B5100008B5100008B51000081C
:1000B000B5100008B5100008B5100008B51000080C
:1000C000B5100008B5100008B5100008B5100008FC
:1000D000B5100008B5100008B5100008B5100008EC
:1000E000B5100008B5100008B5100008B5100008DC
:1000F000B5100008B5100008B5100008B5100008CC
:10010000B5100008B5100008B5100008B5100008BB
:10011000B5100008B5100008B5100008B5100008AB
:10012000B5100008B5100008B5100008B51000089B
:1001300000000000000000000000000000000000BF
:1001400000000000000000000000000000000000AF
:10015000000000000000000000000000000000009F
:10016000000000000000000000000000000000008F
:10017000000000000000000000000000000000007F
:10018000000000000000000000000000000000006F
:10019000000000000000000000000000000000005F
:1001A000000000000000000000000000000000004F
:1001B000000000000000000000000000000000003F
:1001C000000000000000000000000000000000002F
:1001D000000000000000000000000000000000001F
:0401E0005FF8E0F1F3
:1001E40070BC10F5805F38BFF746C0F100012DE9FF
:1001F400024007F059F8BDE8024001606FF00000CA
:10020400F7462DE90F0080B44FF05A07684680DFA7
:1002140080BC04B0E5E700BF4FF0000300F06DBB05
:1002240080B44FF0B40780DF80BCDAE780B44FF0CD
:10023400B50780DF80BCD4E780B44FF0580780DF77
:1002440080BCCEE780B44FF0210780DF80BCC8E7D4
:1002540080B44FF07C0780DF80BCC2E780B44FF0ED
:100264002D0780DF80BCBCE780B44FF00C0780DF33
:1002740080BCB6E780B44FF00F0780DF80BCB0E7E6
:1002840080B44FF0B60780DF80BCAAE780B44FF09B
:100294003D0780DF80BCA4E780B44FF0060780DF11
:1002A40080BC9EE780B44FF0290780DF80BC98E7CC
:1002B40080B44FF03F0780DF80BC92E780B44FF0FA
:1002C4000B0780DF80BC8CE780B44FF0850780DFAC
:1002D40080BC86E780B44FF05E0780DF80BC80E797
:1002E40080B44FF05F0780DF80BC7AE780B44FF0C2
:1002F400370780DF80BC74E780B44FF08F0780DF5E
:1003040080BC6EE780B44FF0020780DF80BC68E7F2
:1003140080B44FF06C0780DF80BC62E780B44FF09C
:10032400C50780DF80BC5CE780B44FF0640780DFE2
:1003340080BC56E780B44FF0760780DF80BC50E77E
:1003440080B44FF05D0780DF80BC4AE780B44FF093
:10035400B70780DF80BC44E780B44FF08D0780DFAF
:1003640080BC3EE780B44FF0D90780DF80BC38E71B
:1003740080B44FF0320780DF80BC32E780B44FF0A6
:10038400310780DF80BC2CE780B44FF02F0780DF7B
:1003940080BC26E780B44FF0500780DF80BC20E7A4
:1003A40080B44FF0690780DF80BC1AE780B44FF057
:1003B400840780DF80BC14E780B44FF0140780DF2B
:1003C40080BC0EE780B44FF0400780DF80BC08E7B4
:1003D40080B44FF0600780DF80BC02E780B44FF048
:1003E400AB0780DF80BCFCE680B44FF0A50780DF5C
:1003F40080BCF6E680B44FF04C0780DF80BCF0E6AA
:1004040080B44FF04D0780DF80BCEAE680B44FF043
:10041400930780DF80BCE4E680B44FF04E0780DFB2
:1004240080BCDEE680B44FF04F0780DF80BCD8E6A6
:1004340080B44FF0180780DF80BCD2E680B44FF060
:10044400360780DF80BCCCE680B44FF07507EC46FD
:100454002DE970009CE8700080DF80BCC0E680B4A9
:100464004FF0250780DF80BCBBE680B44FF0100757
:1004740080DF80BCB5E680B44FF0090780DF80BC24
:10048400AFE680B44FF08C07EC462DE970009CE891
:10049400700080DF80BCA3E680B44FF0130780DFD8
:1004A40080BC9EE680B44FF06B0780DF80BC98E68A
:1004B40080B44FF0C40780DF80BC92E680B44FF074
:1004C400270780DF80BC8CE680B44FF00E0780DF06
:1004D40080BC86E680B44FF0960780DF80BC80E65F
:1004E40080B44FF0980780DF80BC7AE680B44FF088
:1004F400C007EC462DE970009CE8700080DF80BCEA
:100504006EE680B44FF01507EC462DE970009CE8C8
:10051400700080DF80BC63E680B44FF07D0780DF2D
:1005240080BC5EE680B44FF0A30780DF80BC58E651
:1005340080B44FF0990780DF80BC52E680B44FF05E
:100544005B0780DF80BC4CE680B44FF0430780DF5C
:1005540080BC46E680B44FF0490780DF80BC40E6AB
:1005640080B44FF07E0780DF80BC3AE680B44FF061
:10057400480780DF80BC34E680B44FF0A20780DFF8
:1005840080BC2EE680B44FF0220780DF80BC28E6D2
:1005940080B44FF0050780DF80BC22E680B44FF0C2
:1005A4001D0780DF80BC1CE680B44FF0880780DF25
:1005B40080BC16E680B44FF02A0780DF80BC10E6CA
:1005C40080B44FF0A80780DF80BC0AE680B44FF007
:1005D400A707EC462DE970009CE8700080DF80BC22
:1005E400FEE580B44FF0800780DF80BCF9E580B47D
:1005F4004FF0810780DF80BCF3E580B44FF07F07C4
:1006040080DF80BCEDE580B44FF0030780DF80BC61
:10061400E7E580B44FF0550780DF80BCE1E580B4A6
:100624004FF0910780DF80BCDBE580B44FF02607F4
:1006340080DF80BCD5E580B44FF0280780DF80BC24
:10064400CFE580B44FF0AE0780DF80BCC9E580B44D
:100654004FF0B00780DF80BCC3E580B44FF0AF0734
:1006640080DF80BCBDE580B44FF0B20780DF80BC82
:10067400B7E580B44FF0B30780DF80BCB1E580B448
:100684004FF0B10780DF80BCABE580B44FF09F072B
:1006940080DF80BCA5E580B44FF0A00780DF80BC7C
:1006A4009FE580B44FF09B0780DF80BC99E580B460
:1006B4004FF09D0780DF80BC93E580B44FF0A10725
:1006C40080DF80BC8DE580B44FF09A0780DF80BC6A
:1006D40087E580B44FF09C0780DF80BC81E580B45F
:1006E4004FF09E0780DF80BC7BE580B44FF052075B
:1006F40080DF80BC75E580B44FF0BB0780DF80BC31
:100704006FE580B44FF0EF0780DF80BC69E580B40B
:100714004FF0790780DF80BC63E580B44FF08B072E
:1007240080DF80BC5DE580B44FF08A0780DF80BC49
:1007340057E580B44FF02E0780DF80BC51E580B4CC
:100744004FF0510780DF80BC4BE580B44FF04A077F
:1007540080DF80BC45E580B44FF0680780DF80BC53
:100764003FE580B44FF0390780DF80BC39E580B4C1
:100774004FF0610780DF80BC33E580B44FF047075A
:1007840080DF80BC2DE580B44FF0AA0780DF80BCF9
:1007940027E580B44FF0A40780DF80BC21E580B456
:1007A4004FF0460780DF80BC1BE580B44FF04B0759
:1007B40080DF80BC15E580B44FF0420780DF80BC49
:1007C4000FE580B44FF0170780DF80BC09E580B4E3
:1007D4004FF0BA0780DF80BC03E580B44FF0000718
:1007E40080DF80BCFDE480B44FF0660780DF80BC0E
:1007F400F7E480B44FF06A0780DF80BCF1E480B492
:100804004FF0C30780DF80BCEBE480B44FF0630794
:1008140080DF80BCE5E480B44FF0190780DF80BC42
:10082400DFE480B44FF0730780DF80BCD9E480B488
:100834004FF0570780DF80BCD3E480B44FF05307F8
:1008440080DF80BCCDE480B44FF0240780DF80BC1F
:10085400C7E480B44FF0950780DF80BCC1E480B466
:100864004FF0740780DF80BCBBE480B44FF06707AF
:1008740080DF80BCB5E480B44FF0870780DF80BCA4
:10088400AFE480B44FF00D0780DF80BCA9E480B4EE
:100894004FF02B0780DF80BCA3E480B44FF05C07EB
:1008A40080DF80BC9DE480B44FF03C0780DF80BCD7
:1008B40097E480B44FF0160780DF80BC91E480B4E5
:1008C4004FF0340780DF80BC8BE480B44FF07A07AC
:1008D40080DF80BC85E480B44FF00A0780DF80BCF1
:1008E4007FE480B44FF01E0780DF80BC79E480B4DD
:1008F4004FF06F0780DF80BC73E480B44FF0720761
:1009040080DF80BC6DE480B44FF0040780DF80BCDE
:1009140067E480B44FF0920780DF80BC61E480B468
:100924004FF0900780DF80BC5BE480B44FF0B807E1
:1009340080DF80BC55E480B44FF0B90780DF80BC11
:100944004FE480B44FF0D40780DF80BC49E480B426
:100954004FF0CF0780DF80BC43E480B44FF0CA0778
:1009640080DF80BC3DE480B44FF0C90780DF80BCE9
:1009740037E480B44FF0C80780DF80BC31E480B432
:100984004FF0CD0780DF80BC2BE480B44FF0D30759
:1009940080DF80BC25E480B44FF0C70780DF80BCD3
:1009A4001FE480B44FF0C60780DF80BC19E480B434
:1009B4004FF0D80780DF80BC13E480B44FF0D70732
:1009C40080DF80BC0DE480B44FF0D60780DF80BCAC
:1009D40007E480B44FF0CC0780DF80BC01E480B42E
:1009E4004FF0D20780DF80BCFFF7FBBB80B44FF031
:1009F400CB0780DF80BCFFF7F4BB80B44FF0D50792
:100A040080DF80BCFFF7EDBB80B44FF01B0780DFB5
:100A140080BCFFF7E6BB80B44FF01A0780DF80BCD0
:100A2400FFF7DFBB80B44FF0C20780DF80BCFFF765
:100A3400D8BB80B44FF0C10780DF80BCFFF7D1BBC7
:100A440080B44FF03E0780DF80BCFFF7CABB80B4A0
:100A54004FF0FA0780DF80BCFFF7C3BB80B44FF0D0
:100A6400FB0780DF80BCFFF7BCBB80B44FF0FC0702
:100A740080DF80BCFFF7B5BB80B44FF0DD0780DFBB
:100A840080BCFFF7AEBB80B440F2011780DF80BCAE
:100A9400FFF7A7BB80B44FF4817780DF80BCFFF7FA
:100AA400A0BB80B440F2031780DF80BCFFF799BB82
:100AB40080B44FF4827780DF80BCFFF792BB80B4B0
:100AC40040F2051780DF80BCFFF78BBB80B44FF486
:100AD400837780DF80BCFFF784BB80B440F20717C4
:100AE40080DF80BCFFF77DBB80B440F2091780DF54
:100AF40080BCFFF776BB80B440F2171780DF80BC60
:100B0400FFF76FBB80B44FF48B7780DF80BCFFF7B7
:100B140068BB80B44FF4897780DF80BCFFF761BB8A
:100B240080B440F21517EC462DE970009CE8700083
:100B340080DF80BCFFF754BB80B44FF48A7780DF3A
:100B440080BCFFF74EBB80B440F2131780DF80BC3B
:100B5400FFF747BB80B44FF4857780DF80BCFFF795
:100B640040BB80B440F20B1780DF80BCFFF739BB79
:100B740080B44FF0EE0780DF80BCFFF732BB80B457
:100B84004FF4867780DF80BCFFF72BBB80B44FF433
:100B9400807780DF80BCFFF724BB80B440F241172C
:100BA400EC462DE970009CE8700080DF80BCFFF704
:100BB40017BB80B44FF0AD0780DF80BCFFF711BBDB
:100BC40080B44FF0E00780DF80BCFFF70ABB80B43D
:100BD4004FF0FD0780DF80BCFFF703BB80B44FF00C
:100BE400E10780DF80BCFFF7FCBA80B44FF08307D5
:100BF40080DF80BCFFF7F5BA80B44FF0DB0780DFFD
:100C040080BCFFF7EEBA80B440F23F17EC462DE902
:100C140070009CE8700080DF80BCFFF7E1BA80B40C
:100C24004FF4A077EC462DE970009CE8700080DF5B
:100C340080BCFFF7D5BA80B44FF0F00780DF80BCEA
:100C4400FFF7CFBA80B440F2391780DF80BCFFF7DA
:100C5400C8BA80B44FF49B77EC462DE970009CE849
:100C6400700080DF80BCFFF7BBBA80B440F2371756
:100C740080DF80BCFFF7B5BA80B440F23517EC468C
:100C84002DE970009CE8700080DF80BCFFF7A8BAF3
:100C940080B44FF0F60780DF80BCFFF7A2BA80B4BF
:100CA4004FF0F30780DF80BCFFF79BBA80B44FF0AE
:100CB400F50780DF80BCFFF794BA80B44FF0F407E7
:100CC40080DF80BCFFF78DBA80B44FF0F70780DF78
:100CD40080BCFFF786BA80B44FF49F7780DF80BC76
:100CE400FFF77FBA80B44FF49E7780DF80BCFFF7B4
:100CF40078BA80B440F23D1780DF80BCFFF771BA48
:100D040080B44FF0E207EC462DE970009CE87000D7
:100D140080DF80BCFFF764BA80B44FF0E307EC4691
:100D24002DE970009CE8700080DF80BCFFF758BAA2
:100D340080B44FF0E407EC462DE970009CE87000A5
:100D440080DF80BCFFF74CBA80B44FF0EB0780DF44
:100D540080BCFFF746BA80B44FF0EC0780DF80BC5C
:100D6400FFF73FBA80B44FF0ED0780DF80BCFFF798
:100D740038BA80B44FF0E80780DF80BCFFF731BA9F
:100D840080B44FF0E90780DF80BCFFF72ABA80B453
:100D94004FF0EA0780DF80BCFFF723BA80B44FF03E
:100DA400E50780DF80BCFFF71CBA80B44FF0E6078C
:100DB40080DF80BCFFF715BA80B44FF0E70780DF0F
:100DC40080BCFFF70EBA01DF78468EEA0E00874634
:100DD4005FEA000C12BF00296FF01500FFF701BA9B
:100DE40021E90810104680B44FF0780780DF80BCFA
:100DF4000000FFF6F6A918BFF7464FF0000B0FF2FC
:100E0400060EBDE80180DEE78446080008BF012025
:100E14004FF00001A0F11E0006F0F4BA4FF0000BF1
:100E24005DF8040B6946DFF820C001EB800202F193
:100E34000402CCF8002006F009FB06F01FFA80B487
:100E44004FF0010780DF80BC0407002008B505F0DF
:100E540081F905F0EDF808BD10B5002211460A48E5
:100E640000F012F94FF0E023084A5A61084AF021D1
:100E740082F8231000249C6107221A614FF4407009
:100E840000F058FC204610BD510E00083F19010027
:100E940000ED00E010B44FF08074046040F8041CCE
:100EA4001A4940F8081C4FF0123140F80C1C4FF05E
:100EB400033140F8101C4FF0023140F8141C40F884
:100EC400183C40F81C2C4FF0113340F8203C4FF0F4
:100ED400103340F8243C0E4B1B6840F8283C4FF07C
:100EE400083340F82C3C4FF0073340F8303C4FF0C7
:100EF400063340F8343C4FF0053340F8383C4FF0AB
:100F0400043340F83C3C3C3810BC7047515E000848
:100F14000C070020EFF3108072B6704780F3098845
:100F2400704780F31088704702484FF08051016089
:100F34007047000004ED00E04FF0000350E8002F7C
:100F440002F10102002A00D001E04FF0010340E861
:100F540000210129F2D0184670474FF0000350E8F1
:100F6400002F02F1FF32002A00D001E04FF001030C
:100F740040E800210129F2D0704750E8002F0A46CA
:100F840040E80023012BF8D070470068704710B484
:100F940050E8002F8A4202D04FF0000401E04FF0E5
:100FA400010440E80023012BF2D0204610BC704716
:100FB40010B450E8002F002A02D04FF0000403E0E0
:100FC4004FF0010402F1010240E80023012BF0D0AC
:100FD400204610BC704710B450E8002F002A04D0FB
:100FE4004FF0000402F1FF3201E04FF0010440E849
:100FF4000023012BF0D0204610BC704772B60A487B
:101004004AF2A001018009484FF0F001017000206C
:1010140080F3098806484FF0805101604FF00100C9
:1010240080F3148862B6704722ED00E01FED00E003
:1010340004ED00E01EF0040F0CBFEFF30880EFF3A3
:101044000980A0F1200080E8F00F394605F038BB94
:10105400EFF305807047000010B50446FFF7F8FF72
:10106400A0F10F03074A02EBC302127912F0010F39
:1010740004D1044A52F8333003B19847204605F0AE
:10108400A9FA10BD1007002070B506460D46144697
:10109400FFF740FF054941F8356001EBC5010A79C6
:1010A40014430C71FFF73DFF70BD00BF1007002013
:1010B4001EF0040F0CBFEFF30880EFF30980FFF775
:1010C400CBBF000072B6EFF30980EFF3088100286C
:1010D4001EF0040F0CBFEFF30883EFF309830CBF7A
:1010E40000220122002868B1A3F1200383E8F00F55
:1010F4001EF0040F0CBF194618460CBF83F3088872
:1011040083F30988DFF878309847D0E900128368C0
:1011140013F0010F0CBF1046084690E8F00F203082
:1011240082F3088881F30988022B1FD013F4803FCF
:101134000BD1012B00D019E080F309884FF0010195
:1011440081F314886FF0020E18E013F0020F04D13B
:101154004FF0030181F3148803E04FF0000181F3A1
:10116400148880F308886FF00E0E07E080F3088877
:101174006FF0060E4FF0000080F3148862B67047DB
:101184009161000838B50446FFF7C4FE05462046C1
:1011940000F096FA04462846FFF7C3FE204638BD01
:1011A40038B50C46084D0023C5F8B031800040F036
:1011B400020000F0FE00FFF7E5FF2046FFF7E2FF24
:1011C4000123C5F8B03138BD0080214210B5084C68
:1011D4000023C4F8B031800000F0FC00FFF7D2FF18
:1011E400FF20FFF7CFFF0123C4F8B03110BD00BFCB
:1011F4000080214200B583B00121182000F01CFCBE
:101204000121084600F018FC4FF48053ADF8043077
:1012140010238DF8073003238DF8063001A9064802
:1012240000F08EFB054B0122C3F8B02100F004FA54
:1012340003B05DF804FB00BF000C014000802142B4
:1012440008B510B101280BD008BD21B10B21042031
:10125400FFF7A6FFF8E708210420FFF7A1FFF3E753
:1012640021B10B210C20FFF79BFFEDE708210C2097
:10127400FFF796FFE8E738B54FF4E13393FBF1F15C
:10128400C1F30725CCB210B101280DD038BD80219F
:101294000320FFF785FF21460020FFF781FF294641
:1012A4000120FFF77DFFF1E780210B20FFF778FF96
:1012B40021460820FFF774FF29460920FFF770FF35
:1012C400E4E708B5202912D0302912D010290CD017
:1012D400002182B1012A11D0012B15D0022B18D084
:1012E4007BB1D8B101281ED008BD0121F1E702214C
:1012F400EFE70321EDE721F00401EDE741F00401FC
:10130400EAE721F00801ECE721F0300141F008019F
:10131400E7E721F0200141F01801E2E7C9B2032018
:10132400FFF73EFFE0E7C9B20B20FFF739FFDBE729
:1013340030B585B0142000F0F4F9FFF75BFF80218D
:101344000120FFF72DFF142000F0EBF9802103208A
:10135400FFF726FF0C210020FFF722FF00210120C8
:10136400FFF71EFF01210220FFF71AFF03210846A1
:10137400FFF716FF01210846FFF712FF082104209A
:10138400FFF70EFF80210920FFF70AFF142000F069
:10139400C8F980210B20FFF703FF01210820FFF784
:1013A400FFFE00210920FFF7FBFE01210A20FFF7C1
:1013B400F7FE03210B20FFF7F3FE01210920FFF7BD
:1013C400EFFE08210C20FFF7EBFE142000F0A9F932
:1013D4000220FFF7FBFE0A20FFF7F8FE4024ADF8D9
:1013E400004048238DF80330144D6946284600F028
:1013F400A7FA2146284600F003FB0621022000F04C
:1014040001FB019400258DF808500C238DF8093058
:1014140001248DF80A4001A800F0C8F917238DF8BB
:101424000C3002238DF80D308DF80E508DF80F40DE
:1014340003A800F089F9204605B030BD0010014032
:1014440038B504460D4671B10520FFF7BFFE10F014
:10145400200FF9D014F8011B0020FFF7A1FE6B1E2A
:1014640013F0FF05F0D138BD38B504460D4671B10F
:101474000D20FFF7ABFE10F0200FF9D014F8011B7C
:101484000820FFF78DFE6B1E13F0FF05F0D138BD69
:1014940070B506460520FFF799FE10F01E0414D11E
:1014A4000520FFF793FE10F0010FF9D00020FFF79D
:1014B4008DFE307001360134E4B20520FFF786FE5C
:1014C40010F0010FF2D1204670BD0020FFF77EFE20
:1014D4000024F8E770B506460D20FFF777FE10F0FC
:1014E4001E0414D10D20FFF771FE10F0010FF9D086
:1014F4000820FFF76BFE307001360134E4B20D2092
:10150400FFF764FE10F0010FF2D1204670BD0820F1
:10151400FFF75CFE0024F8E710B50220FFF756FE43
:1015240010F0010F35D100F03F030C2B31D8DFE868
:1015340003F00730303022302D30303030303F006F
:101544000620FFF743FE044601460020FFF728FE6D
:10155400302C1ED0112C09D0222C1AD10020FFF7D8
:1015640035FE01460020FFF71BFE12E0AA210020F1
:10157400FFF716FE0DE02248FFF78AFF214B1B6898
:101584003BB182B21E490020984702E00520FFF7D4
:101594001DFE0A20FFF71AFE00F03F0310F0010FB2
:1015A40005D1062B1CD00C2B1ED0042B0CD010BD47
:1015B4001348FFF76DFF134B1B68002BE9D082B271
:1015C4000F4900209847E4E70F48FFF783FF0F4BCC
:1015D4001B68002BEBD082B20B4901209847E6E749
:1015E4000D20FFF7F3FDE2E70748FFF773FF074B12
:1015F4001B68002BDBD082B2034901209847D6E751
:10160400F0080020E808002010090020EC08002061
:1016140008B5402000F010F910B908BDFFF77CFFB1
:101624004021044800F0E5F90028F7D0402000F0FC
:1016340013F9F2E70010014030B587B00121092009
:1016440000F0FAF901214FF4804000F003FA4FF45E
:101654006045ADF8145018238DF8173003238DF826
:101664001630164C05A9204600F06AF92946204692
:1016740000F0C6F90023ADF800304FF48272ADF8E3
:101684000220ADF80430ADF80630ADF808304FF460
:101694000072ADF80A20ADF80C30ADF80E30072317
:1016A400ADF81030A4F554446946204600F0E0F942
:1016B4000121204600F003FA07B030BD000C0140C0
:1016C40038B50546002402210F4800F00BFA034602
:1016D40020B90134E4B2C82CF5D913E029460A48EC
:1016E40000F0FBF900240121074800F0FBF9034650
:1016F40020B90134E4B2C82CF5D903E0024800F063
:10170400EEF9C3B2184638BD00380040014601392D
:10171400FDD1704708B500EB40008000FFF7F6FFED
:1017240008BD08B54FF47A7303FB00F0FFF7F2FF2E
:1017340008BD000040F0BF6040F40030014BD860A9
:10174400704700BF00ED00E0C378FBB1154BDA68C9
:10175400D243C2F30222C2F1040C0F2323FA02F291
:10176400417801FA0CF1837813400B431B01027892
:10177400DBB20D490A4482F80033037803F01F00FA
:101784005B090122824041F823207047037803F06B
:101794001F015B0901228A402033034941F82320B9
:1017A400704700BF00ED00E000E100E08379002B0A
:1017B40035D010B41F4B1A68016822EA01021A607E
:1017C4005A68016822EA01025A60027902F18042F1
:1017D40002F5823211680468214311609A68016835
:1017E40022EA01029A60DA68016822EA0102DA60F8
:1017F4004379102B09D003F1804303F582331A682F
:1018040001680A431A6010BC70470A4B9A68016861
:101814000A439A60DA6801680A43DA60F3E70379F5
:1018240003F1804303F582331A68016822EA010256
:101834001A60704700040140064A13680340526965
:10184400024202D01BB900207047002070470120DB
:10185400704700BF00040140014B5861704700BF4E
:1018640000040140014BD860704700BF00200240D3
:101874000B4BDB6813F0010F0BD1094BDB6813F042
:10188400040F08D1064BDB6813F0100F05D00320BA
:10189400704701207047022070470420704700BF42
:1018A4000020024010B50446FFF7E2FF02E0FFF714
:1018B400DFFF013C012801D1002CF8D104B110BD97
:1018C4000520FCE738B504464FF43020FFF7EAFF63
:1018D400042800D038BD0A4D2B6943F002032B6164
:1018E4006C612B6943F040032B614FF43020FFF708
:1018F400D9FF2B6923F00203DB04DB0C2B61E9E73E
:101904000020024070B504460D464FF40050FFF726
:10191400C9FF042800D070BD084E336943F00103A9
:10192400336125804FF40050FFF7BCFF336923F087
:101934000103DB04DB0C3361EDE700BF0020024050
:1019440030B5CB7803F00F02964613F0100F03D096
:1019540091F802E04EEA020E0B7803B30468002308
:1019640001E042610133072B18D801229A40B1F8F3
:1019740000C032EA0C05F5D14FEA830C0F2505FAB5
:101984000CF524EA05040EFA0CFC4CEA0404CD78A8
:10199400282DE6D0482DE5D10261E3E704600B88E9
:1019A400FF2B25D94468002303E0CD78482D1CD0B3
:1019B4000133072B1BD803F1080C012202FA0CF2A5
:1019C400B1F800C032EA0C05F2D14FEA830C0F25BE
:1019D40005FA0CF524EA05040EFA0CFC4CEA04049E
:1019E400CD78282DE1D14261DFE70261E0E7446070
:1019F40030BD8368194201D0012070470020704730
:101A04000161704710B401F0030292000F2404FA3C
:101A140002FC8908074B023153F8214024EA0C04E4
:101A240043F8214053F821409040044343F82140B7
:101A340010BC70470000014021B1054A9369184366
:101A440090617047024A936923EA000090617047ED
:101A54000010024021B1054AD3691843D061704790
:101A6400024AD36923EA0000D061704700100240A3
:101A74002DE9F041038803F441520F88B1F8028044
:101A84008E88CD880C89B1F80AE0B1F80CC0CB89F6
:101A940047EA08073E4335432C434EEA040E4CEA1A
:101AA4000E0C43EA0C0313430380838B9BB223F491
:101AB40000639BB283830B8A0382BDE8F08129B162
:101AC40003889BB243F040030380704703889BB2B2
:101AD40023F040039BB20380704781817047808963
:101AE40080B270470389194201D001207047002059
:101AF40070477047FEE7FEE7FEE7FEE77047000029
:101B040082B00023019300932C4A136843F480337A
:101B140013602A4B1B6803F400330093019B0133C9
:101B24000193009B1BB9019BB3F5A06FF1D1234B2B
:101B34001B6813F4003F06D001230093009B012B84
:101B440004D002B0704700230093F7E71C4B1A68D7
:101B540042F010021A601A6822F003021A601A682E
:101B640042F002021A60A3F580535A685A605A6818
:101B74005A605A6842F480625A605A6822F47C12AD
:101B84005A605A6842F4E8125A601A6842F0807245
:101B94001A600A4B1B6813F0007FFAD0074B5A688F
:101BA40022F003025A605A6842F002025A60034B60
:101BB4005B6803F00C03082BF9D1C2E70010024064
:101BC4000020024008B5FFF79BFF08BD08B5104B85
:101BD4001A6842F001021A6059680E4A0A405A60B3
:101BE4001A6822F0847222F480321A601A6822F48D
:101BF40080221A605A6822F4FE025A604FF41F02CF
:101C04009A60FFF7DFFF044B4FF000629A6008BD53
:101C1400001002400000FFF800ED00E00B480C4902
:101C24000C4A002302E0D458C4500433C4188C4234
:101C3400F9D3094A094C002301E013600432A2429B
:101C4400FBD3FFF7C3FF05F047FF704700000020F8
:101C5400100600202C8200080007002000840020C9
:101C640038B50446094D0A4B6B6003F188336B6049
:101C74003420FFF7F7FD04F580304030C002FFF751
:101C840021FE2B6943F080032B6138BD0020024004
:101C94002301674500B583B0002001F0D1F8002886
:101CA40011DB4FF40063019303230093C0230B4A19
:101CB4000B49002001F054F900280CDB094B18688B
:101CC40003B05DF804FB00220749084801F0A3FEB5
:101CD4004FF0FF30F4E74FF0FF30F1E7040000204D
:101CE400A47E000830090020FF010300987E00084C
:101CF40008B50349034B186801F068F908BD00BF33
:101D0400A47E000830090020F8B505460F461646A3
:101D1400002407E037F814102846FFF7F3FD0235D6
:101D24000134A4B2B442F5D3F8BD000010B5094C97
:101D3400094B636003F18833636000F58030403001
:101D44004FF48062C002FFF7DFFF236943F0800392
:101D5400236110BD0020024023016745008880B242
:101D64007047F8B505460F461646002407E0284696
:101D7400FFF7F4FF27F8140002350134A4B2B4428B
:101D8400F5D3F8BD08B500F5803040304FF48062DB
:101D9400C002FFF7E6FF002008BD00000989002308
:101DA400024A42F82130024A136070473809002081
:101DB4003409002030B583B00446002505E0012134
:101DC4000DF10700FFF73CFB01350DF1070104F5A8
:101DD400A27000F09AFC002808DB636A002BEED1A5
:101DE40001210DF10700FFF73FFBEDE7284603B0A3
:101DF40030BD00002DE9F0410E461546012806D0FD
:101E040050B90D4BD3F8008008F13C0704E00A4BAD
:101E1400D3F8048008F13C07002404E0315D38461F
:101E240000F056FC0134A542F8DCD8F8380004F080
:101E340019FABDE8F08100BF3809002038B51C68E4
:101E4400416A002B00F0B18041B90125012A07D075
:101E5400022A00F0A3806FF02500A8E00025F5E732
:101E640041F20F03234024D00F2B11D9B3F5805F27
:101E74001FD9A3F58053013B0E2B1AD8DFE803F0DA
:101E840044194A50565B60666B70757A7F8489008A
:101E94000F2B0ED8DFE803F08C8C8C8C8C8C8C8C04
:101EA4008C8C8C0820262C324FF416612846FFF7C0
:101EB400E2F9C4F30023C4F3801204F0300128468D
:101EC400FFF7FFF9E10F2846FFF7BAF93A4B43F859
:101ED40025406FF025006AE04FF496512846FFF73D
:101EE400CAF9E6E74FF416512846FFF7C4F9E0E7CC
:101EF4004FF496412846FFF7BEF9DAE74FF416414E
:101F04002846FFF7B8F9D4E74FF461412846FFF7B4
:101F1400B2F9CEE74FF461312846FFF7ACF9C8E7D0
:101F24004FF4E1212846FFF7A6F9C2E723492846E2
:101F3400FFF7A1F9BDE722492846FFF79CF9B8E766
:101F44004FF461212846FFF796F9B2E71D49284668
:101F5400FFF791F9ADE71C492846FFF78CF9A8E78C
:101F64001A492846FFF787F9A3E719492846FFF7D6
:101F740082F99EE717492846FFF77DF999E7164944
:101F84002846FFF778F994E714492846FFF773F9D0
:101F94008FE713492846FFF76EF98AE7064A52F895
:101FA40025201A606FF0250001E06FF0150038BDA0
:101FB4006FF02500FBE700BF4009002020A10700C7
:101FC40000CA080040420F000094110060E31600AC
:101FD40080841E00A0252600C0C62D00E0673500C1
:101FE40000093D00174B1B680BB10020704770B50A
:101FF40004460D460126134B1E60FFF799F9124B58
:10200400124A1A60002218211148FFF73DF8636A4A
:102014009B1B18BF01230F4A42F82340A1680E4AB4
:1020240042F823100D4921630D49E1620D496163B2
:1020340002EB8303324629462046FFF7FFFE0020C9
:1020440070BD00BF34090020EC080020F91D000811
:10205400151600083809002040090020B91D0008A1
:10206400A11D0008411E000880B2052805DC4FF4BC
:102074005772034B02FB003070470020704700BFCB
:102084009009002010B50069040C042C14D11FFA27
:1020940080FCBCF1050F12DC4FF457740C4804FBB0
:1020A4000C0090F85A436CB10CEB4C0C094C54F8EE
:1020B4002C4054B1A04710BD6FF01200FBE76FF045
:1020C4001200F8E76FF01200F5E76FF01200F2E784
:1020D400900900204809002010B50069040C042C64
:1020E40016D11FFA80FCBCF1050F14DC4FF45774B1
:1020F4000D4804FB0C0090F85A437CB10CEB4C0CDB
:102104000A4C04EB8C0CDCF8044054B1A04710BD1D
:102114006FF01200FBE76FF01200F8E76FF01200A7
:10212400F5E76FF01200F2E790090020480900205B
:102134000069030C042B18D183B2052B15DC4FF472
:1021440057720A4802FB030090F85A236AB110B58B
:102154000446013A80F85A23C36A98470021A162D1
:102164002422204605F01BF910BD70479009002079
:102174002DE9F04184B0044617461E46D4F83C11BC
:10218400D4F84031C91A11F0FF0F1DD1DFF888804F
:10219400D8F8203001930023029304F1380501A9F3
:1021A400284604F074F8D8F82030022283F83C2042
:1021B40003F03EFF01A9284604F077F8D8F8203050
:1021C400012283F83C20D9E7636A03EB4303134AF3
:1021D40002EB83039B680BB120469847002503E07C
:1021E4009DF80F307B550135B54207DA0DF10F012B
:1021F40004F5137000F089FA0028F1DA626A084BDA
:102204004FF4577101FB02331B6B20469847284655
:1022140004B0BDE8F08100BFCC29002048090020AB
:10222400900900202DE9F84306469146984600257A
:102234001EE017F0040F01D00A2C2ED0736813F09F
:10224400080F01D00D2C2ED013F4C05F01D0092C3F
:1022540033D0204605F07CFA20B9D6F85413013166
:10226400C6F85413214606F5A27000F031FA013580
:10227400454524DA19F80540776817F0010FE8D0CE
:1022840017F0020FD5D0204605F06FFA0028D0D001
:10229400204605F001FAC4B2CBE70D2106F5A27081
:1022A40000F016FACAE713F0200F04D00022C6F893
:1022B40054230A24C8E70A24C6E72024C9E7336B59
:1022C400304698472846BDE8F8830000F0B583B04F
:1022D4000446C2E0002104F5137000F0F9F9BCE0F3
:1022E400236813F0200F05D09DF8073003F07F0317
:1022F4008DF80730236813F0400F03D09DF80730A2
:102304000A2B56D0236813F0800F56D09DF807305F
:102314000A2B00F0A280236813F4007F0AD09DF8F2
:102324000760304605F033FA20B1304605F0AEF9C7
:102334008DF80700E66816F0080F6FD016F4007FDA
:1023440006D09DF80770384605F002FA00283FD100
:1023540016F0020F09D016F0100F03D09DF80730C5
:10236400082B49D0002384F859339DF8071004F54D
:10237400A27000F0ADF9E36813F0010F67D0627C3E
:102384009DF807309A4256D0A27C934200F0948084
:10239400E27E93425BD1564B1A6A536C43F400239A
:1023A4005364E36813F0800F00F09B8003F040FE59
:1023B4004DE00D238DF80730A4E713F4807FAAD0F5
:1023C4009DF807300D2BA6D10A238DF80730A2E71C
:1023D40004F5A275474E16F81710284600F078F950
:1023E4009DF8073006EB43067178284600F070F933
:1023F400012384F8593330E094F859332BB9002180
:1024040004F5A27000F081F927E0002104F5A27020
:1024140000F07BF9002384F85933F0E706F0420614
:10242400422EA8D19DF807100A29A4D104F5A27060
:1024340000F04EF99FE72E4B1A6A536C43F00203E7
:102444005364E36813F0800F2ED003F0F1FD9DF880
:10245400071004F5137000F03BF904F13C050DF18D
:102464000701284600F051F9B0F1FF3F3DD094F840
:102474005833002B3FF434AF236813F0040FECD12E
:1024840013F0080F3FF426AF04F51375FF21284617
:1024940000F01EF90021284600F01AF99DF80710F3
:1024A400284600F015F9D8E704F5A27000F004F905
:1024B400284600F001F9C8E70D4B1A6A536C43F043
:1024C40004035364E36813F0800F02D003F0B0FDFB
:1024D400BDE704F5A27000F0EFF8284600F0ECF830
:1024E400F4E7284600F0E8F860E703B0F0BD00BF69
:1024F400CC290020B07E000810B50C46242200210F
:10250400204604F04CFF1322084904F1110004F0A2
:102514001BFF4FF48853236041F60503636041F6C3
:10252400B243A36048F63B23E36010BD847E0008F9
:10253400F8B5438A1A1F012A24D805460E46052BEE
:102544001CD02F8A052F20DC4FF45773104C03FB4B
:102554000744104BA36221460020FFF7CDFF94F8F7
:102564005A33013384F85A33A36A314620469847D4
:10257400676227742B69B3600020F8BD4FF4802391
:102584000361DEE76FF01200F7E76FF01200F4E783
:1025940090090020E91F000888689BB3F0B583B058
:1025A4000E4614461F46FFF75FFD054668B345F225
:1025B40001439C4206D045F202439C4213D00020C2
:1025C40003B0F0BD446B3CB101AB02223146A047DD
:1025D400002801DB019BAB6012222946384604F037
:1025E400B3FE0020ECE71222394604F0ADFEAB68DE
:1025F40001936C6B64B101AB012231462846A047BC
:102604000020DDE76FF0150070476FF01800D7E782
:102614000020D5E7052816D808B549B100EB4000DD
:102624000A4B03EB800307C983E80700002008BDB9
:1026340000EB40000C220021044B03EB800004F06B
:10264400AEFE0020F3E76FF0150070474809002044
:1026540008B50D490020FFF7DDFF0C4A0C490420A2
:1026640000F040FC002808DB084A0949052000F076
:1026740039FC002804DB002008BD4FF0FF30FBE7E5
:102684004FF0FF30F8E700BF100000201C000020CE
:10269400AC7E000810B500210846FFF7BBFF054CCF
:1026A4002146042000F03CFC2146052000F038FCC3
:1026B400002010BDAC7E000810B50446FEF72AFCCD
:1026C4000023C4F80031C4F80431FEF72AFC10BD1D
:1026D40038B504460D46FEF71DFCD4F800114B1C1A
:1026E4005A42DBB2D2B258BF5342D4F804219342C7
:1026F40006D06554C4F80031FEF713FC002038BD41
:10270400FEF70FFC4FF0FF30F9E738B504460D46ED
:10271400FEF700FCD4F80021D4F804319A4210D01A
:102724000DB1E35C2B70D4F8043101335A42DBB2AF
:10273400D2B258BF5342C4F80431FEF7F2FB002072
:1027440038BDFEF7EEFB4FF0FF30F9E770470000AD
:1027540010B504460C4B1B783BB1204604F0A7FE91
:10276400C1B22046FEF780FE10BD002217210748A3
:10277400FEF78AFCFEF7DCFD054B064A1A60024BA5
:1027840001221A70E9E700BFB81D002015160008E1
:10279400EC08002051270008F0B583B007460E4628
:1027A40001A900F061FB0546384600F041FC4FF0FA
:1027B400FF30002301E018460133019A9A4210D9F0
:1027C40003EB4302D10005EBC204227DD209F2D00F
:1027D4006A58B242F0D1384600F03AFC204603B0C1
:1027E400F0BDB0F1FF3F0BD000EB400005EBC0049F
:1027F4008023237545F83060384600F029FCEDE766
:10280400384600F025FC0024E8E7000030B583B02A
:102814000446124B1B6A00930023019300F1100538
:102824006946284603F033FD01E003F001FC0B4B3D
:102834001B6A022283F83C2004F10C00FEF7A5FB7E
:102844000028F2D16946284603F02FFD034B1B6A8A
:10285400012283F83C2003B030BD00BFCC29002006
:102864002DE9F04180460F46164601EB4100C000B9
:1028740005F060FAC8F80000F0B10025BD4212D29C
:10288400D8F8004005EB450304EBC30418220021EB
:10289400204604F084FD304605F04CFAA06010B1E7
:1028A40066600135EAE715B12846BDE8F081D8F83D
:1028B400000005F073FAF7E74FF0FF30F5E710B5C5
:1028C40004460C30FEF761FB00B910BD2046FFF74B
:1028D4009DFFFAE710B50446FFF7F1FF012104F16B
:1028E4000C00FEF74AFB10BD10B5044600210C3065
:1028F400FEF743FB206903F0B5FC10BD2DE9F0435E
:1029040083B0074600F0D2FA00284BD0804601A9D4
:10291400384600F0A9FA0646002846D0384600F0AA
:1029240087FB00250BE087222149224803F032FB74
:102934001FE0002323752046FFF7D6FF0135019BD6
:10294400AB4228D905EB45044FEAC40906EBC4049D
:10295400237DDB09F2D12046FFF7BCFF237D13F072
:10296400010F06D0D8F8083056F809009847002817
:10297400D9DB237D13F0020FDBD0D8F80030A16837
:1029840056F8090098470028D3DA8C2208490948E8
:1029940003F000FBCDE7384600F05AFB002003B0FB
:1029A400BDE8F0834FF0FF30F9E74FF0FF30F6E772
:1029B400E87F0008B07F000808B5836A9868FFF7CD
:1029C4009DFF08BDF0B583B0064600F06FFA0746D8
:1029D40040B101A9304600F047FA0546304600F000
:1029E40027FB18E052222649264803F0D3FAF0E7E1
:1029F40004F0DEFC4042019BB0FBF3F203FB120344
:102A040003EB430305EBC30404F10C00FEF7BDFA2A
:102A140040B103F00DFB04F0CBFC0028E8DB04F02C
:102A2400C7FCE8E72046FFF755FF237D13F0020FAC
:102A34000AD0BB6820689847002810DB7B68A1682F
:102A440020689847002812DB002323752046FFF7EF
:102A54004BFF304600F0FCFA204603B0F0BD0023E3
:102A6400237564220649074803F094FAE6E7002335
:102A7400237568220249034803F08CFAE4E700BF97
:102A8400D87F0008B07F00082DE9F04782B0804667
:102A94000F4600F00BFA002849D0814601A94046B0
:102AA40000F0E2F90646404600F0C2FA00250DE0C7
:102AB40000232375E0222049204803F06BFA23E029
:102AC400002323752046FFF70FFF0135019BAB421E
:102AD4002AD905EB45044FEAC40A06EBC404237D56
:102AE400DB09F2D056F80A30BB42EED12046FFF79C
:102AF400F1FE237D13F0020FE2D0D9F8083056F826
:102B04000A0098470028D3DBD9F80430A16856F8A6
:102B14000A0098470028D3DA00232375E4220649E3
:102B2400064803F037FACBE7404600F091FA00205C
:102B340002B0BDE8F08700BFD07F0008B07F000876
:102B44002DE9F04782B006460D4690461F46DDF853
:102B5400289000F0ABF9824658B101A9304600F044
:102B640083F980B940F203122849294803F012FA84
:102B740009E0FF222549264803F00CFAEDE729462F
:102B84003046FFF71FFF29463046FFF705FE04468F
:102B94000028F4D0FFF79EFE2368AB4203D0204602
:102BA400FFF7A2FEEFE717B963684B4522D0237DF8
:102BB40013F0040F08D1DAF80030A16828469847CA
:102BC400237D43F00403237507EB090263689A42EB
:102BD40015D8A0684A464146384404F0B5FB237D25
:102BE40043F0020323752046FFF77EFE002002B067
:102BF400BDE8F087237D43F004032375E4E740F246
:102C040021120249024803F0C5F9E2E7CC7F00082B
:102C1400B07F00082DE9F04782B006460D46904685
:102C24001F46DDF8289000F041F9A0B1824601A9C1
:102C3400304600F019F9B8B129463046FFF7ACFD2B
:102C44000446D0B1FFF746FE2368AB421AD02046B3
:102C5400FFF74AFEF0E740F23B121D491D4803F01E
:102C640099F94FF0FF3029E04FF4A0721849194840
:102C740003F090F94FF0FF3020E029463046FFF78B
:102C8400A1FED9E7237D13F0040F08D1DAF8003050
:102C9400A16828469847237D43F00403237507EB76
:102CA400090263689A420CD8A1684A4639444046EE
:102CB40004F04AFB2046FFF717FE002002B0BDE8EF
:102CC400F0874FF4AD720249024803F063F9EBE771
:102CD400C87F0008B07F00082DE9F04182B00646A5
:102CE4000D4617460023019300F0E0F8804658B1E2
:102CF40001A9304600F0B8F888B940F273121B49B4
:102D04001B4803F047F90AE040F26F1217491848CC
:102D140003F040F9ECE729463046FFF753FE294615
:102D24003046FFF739FD04460028F4D0FFF7D2FD02
:102D34002368AB4203D02046FFF7D6FDEFE7237D9F
:102D440013F0040F08D1D8F80030A168284698473A
:102D5400237D43F0040323751FB1237D43F0020355
:102D64002375204602B0BDE8F08100BFC07F000893
:102D7400B07F000818B108B5FFF7B6FD08BD70476D
:102D840008B5438A092B0AD803EB4303064A02EB2E
:102D940083035B684B61DB6923B1984708BD6FF01F
:102DA4001200FBE70020F9E74C1F002008B5438A16
:102DB400092B0AD803EB8303064A02EBC3035B68BF
:102DC4004B61DB6923B1984708BD6FF01200FBE744
:102DD4000020F9E7BC1D002030B583B00446164B33
:102DE4001B6A00930023019300EB8003DB00203374
:102DF400124D1D4404356946284603F048FA01E0A3
:102E040003F016F90C4B1B6A022283F83C2004EBF6
:102E14008403DB00203309481844FEF7B6F8002881
:102E2400EED16946284603F040FA034B1B6A01229F
:102E340083F83C2003B030BDCC290020BC1D002009
:102E440009280BD800EB8000064B03EBC000436954
:102E54000BB9002070474FF0FF3070474FF0FF3040
:102E6400704700BFBC1D002009280CD8074B00EB9D
:102E7400800203EBC20292690A6000EB800003EB5C
:102E8400C000006970470020704700BFBC1D0020CF
:102E9400092806D800EB8000034B03EBC000C0698F
:102EA40070470020704700BFBC1D0020092806D8C9
:102EB40000EB8000034B03EBC00040697047002027
:102EC400704700BFBC1D0020092806D800EB800015
:102ED400034B03EBC000C06870474FF0FF307047EE
:102EE400BC1D0020092812D810B400EB40030B4C81
:102EF40004EB83035B686BB9234600EB400443F89F
:102F0400241003EB84004260002010BC70476FF073
:102F1400150070476FF00F00F7E700BF4C1F00204B
:102F2400092815D810B5044600EB40030B4A52F8A3
:102F3400230004F0A7FA70B9084B04EB4402920092
:102F44000021995004EB440403EB8404616010BD38
:102F54006FF0150070476FF01500F8E74C1F002064
:102F64002DE9F041079F092824D804460E4615464A
:102F7400984600EB8003144A02EBC3035B69E3B990
:102F840000EB8000C00010303A4606990E4B1844FE
:102F9400FFF766FCA0B10C4B04EB840103EBC10208
:102FA400C2F80C80906143F831605561D76100200C
:102FB400BDE8F0816FF01500FAE76FF00F00F7E756
:102FC4004FF0FF30F4E700BFBC1D0020092815D8DE
:102FD40010B5044600EB80030B4A52F8330004F0AA
:102FE40051FA70B9084B04EB8402D20000219950C5
:102FF40004EB840403EBC404616110BD6FF015009D
:1030040070476FF01500F8E7BC1D002010B50446AA
:1030140000EB8003DB00203304481844FDF7B5FFC0
:1030240000B910BD2046FFF7D7FEFAE7BC1D00200B
:1030340010B50446FFF7EAFF04EB8404E4002034EF
:10304400012102482044FDF798FF10BDBC1D00205B
:1030540070B50446084D860000EB8000C0002030A7
:1030640000212844FDF789FF344405EBC405686A50
:1030740003F0F8F870BD00BFBC1D002038B5074D43
:10308400074BED1AED08002404E0054B53F83430E7
:1030940098470134AC42F8D338BD00BF847E0008A1
:1030A400747E0008072831D88C461E4B1A6AC0EB80
:1030B400C00302EB830393F8743253B307292BD86C
:1030C400BCF1070F09D8CCEBCC0302EB830393F8D4
:1030D400743213B90CF1010CF2E7BCF1070F1ED8DE
:1030E40010B5CCEBCC0402EB8404C0EBC00002EBC3
:1030F400800204F5177402F5177EBEE80F000FC4B2
:103104009EE8070084E80700604610BD6FF00800E1
:1031140070476FF0080070476FF0150070476FF04C
:1031240017007047CC29002007281AD838B505465F
:103134000C46124B1B6AC0EBC00203EB820393F8EC
:1031440074328BB188420AD0082910D812D00846AC
:1031540000F016FE21462846FFF7A4FF38BD0846B6
:10316400FCE76FF0080070476FF00800F6E76FF0B7
:103174000800F3E76FF00800F0E700BFCC29002057
:1031840008B50021FFF78EFF08BD000007280BD803
:10319400084B1B6AC0EBC00003EB800090F874324C
:1031A4002BB16FF0250070476FF0080070476FF087
:1031B40008007047CC29002038B50546002400E0FB
:1031C40001340B4B1B68A3420FDD04EB8403294637
:1031D400084A52F8230004F055F90028F0D104EB12
:1031E4008404044800EB840000E0002038BD00BFE4
:1031F4000C0100201001002000B583B0104B1B6AA5
:1032040000930023019369460E4803F040F801E05F
:1032140002F00EFF0A4B1B6A022283F83C200A4884
:10322400FDF7B3FE0028F3D16946064803F03DF8E4
:10323400034B1B6A012283F83C2003B05DF804FBB6
:10324400CC290020C81F0020CC1F002030B583B03B
:103254000446124B1B6A00930023019300F11805E6
:103264006946284603F013F801E002F0E1FE0B4B37
:103274001B6A022283F83C2004F11C00FDF785FE42
:103284000028F2D16946284603F00FF8034B1B6A65
:10329400012283F83C2003B030BD00BFCC290020BC
:1032A40008B5024802F0DEFF08BD00BFC81F0020B9
:1032B40010B51348FDF769FE68B100241F2C0DD822
:1032C400C4EBC403DB0020330E481844FDF770FE42
:1032D40038B90134F2E7FFF78FFFEEE7FFF78CFF11
:1032E400EBE70748FDF739FEC4EBC404054B03EBD9
:1032F400C40438220021204604F051F8204610BDB1
:1033040024010020D01F002070B50646002400E0F0
:1033140001341F2C1BD8C4EBC403DB0020330D4D38
:103324001D442846FDF731FE0028F1D0C4EBC40348
:10333400084A02EBC3039B68B342E9D12846FDF770
:10334400FBFDC4EBC404034800EBC40000E0002010
:1033540070BD00BFD01F002010B500F1200420462E
:10336400FDF739FE2046FDF710FE00B110BDFFF752
:1033740097FF0248FDF7E0FDF8E700BF24010020B5
:1033840010B504461C30FDF700FE00B910BD204600
:10339400FFF75CFFFAE750B338B50446FFF7F0FFD8
:1033A40004F120052846FDF7F0FD18B32846FDF783
:1033B400ECFD012816D8A36A3BB11B6A2BB15B69EB
:1033C4001BB1E2680AB920469847A36A2BB11B6A6D
:1033D4001BB11B690BB1204698472046FFF7BCFF81
:1033E400002038BD2046FFF7B7FF0020F9E74FF073
:1033F400FF3070474FF0FF30F3E7F8B507460C464F
:103404000846FFF781FF064658B144693CB104F110
:103414002000FDF791FD3046FFF7BDFF26463046FC
:10342400F8BDFFF745FF054601212030FDF7A5FD56
:10343400002105F11C00FDF7A0FD00236B60AB61CA
:10344400AF62AC60EB603B6A1B6828469847044651
:1034540038B13B6A9B6828469847002806DB2E460D
:10346400DDE72846FFF778FF2646D8E73B6A5B6826
:10347400284698472846FFF76FFFD0E710B5044663
:10348400FFF77EFF012104F11C00FDF776FD10BD5E
:1034940010B5044600211C30FDF76FFDA06902F051
:1034A400E1FE10BD072825DC10B584468E46134680
:1034B400184A146AC0EBC00204EB820292F8742228
:1034C400DAB1C0EBC000800000F516702044011D85
:1034D400CCEBCC0204EB8202D2F86C0280B1D2F8BD
:1034E400702282B154698CB17246A047002800DB77
:1034F400002010BD6FF0080070476FF00800F8E777
:103504006FF01500F5E76FF01500F2E76FF01500A6
:10351400EFE700BFCC29002030B583B00C468446C9
:1035240050B149B1C96A99B1CD6A8DB1069900917A
:103534002146A84703B030BD6046FFF72CFF204664
:10354400FFF729FF0023069A13606FF00100F1E7EB
:103554006046FFF720FF069B1C600020EAE700009E
:103564002DE9F0411D4600232B6000283ED00E4675
:1035740014460746022A0ED0FB6A73B3D3F80880B8
:10358400B8F1000F29D074B32B4622463146384691
:10359400C047BDE8F0810B782E2BEDD14B782E2B54
:1035A400EAD1154B1B6AD3F83C33834212D0D0F8CE
:1035B4002880B8F1000FDFD0D8F814308342DBD173
:1035C400FFF7E9FED8F818709FB107F12000FDF766
:1035D400B3FCD1E728600020DBE73846FFF7DBFEC9
:1035E4006FF01300D5E72F602046D2E76FF001009B
:1035F400CFE76FF00100CCE7CC2900202DE9F043A0
:1036040087B006460F4690460393DDF838900022B3
:10361400C9F8002093B133782F2B01D05C2B30D123
:103624000398FFF7B8FE284B1B6AD3F83C030390BA
:10363400013630B32030FDF77FFC22E0224B1B6AB9
:10364400D3F8400303900028E5D02030FDF774FC44
:10365400E1E723B303982030FDF76EFC05AB2A465F
:1036640031460398FFF77CFF0546A0B903AB0093EE
:1036740000231A4605990398FFF74EFF0546D0B973
:1036840026463446002514F8013B002BE1D02F2BAD
:10369400DFD00135F7E70398FFF77DFE0BE00398D1
:1036A400C36A63B19B6853B1C8F800603D60039B73
:1036B400C9F800300025284607B0BDE8F083FFF7BD
:1036C4006AFE6FF01305F6E7CC29002070B588B0C8
:1036D400039116461C46002323600B4603A9009160
:1036E40007AA06A9FFF78AFF054610B1284608B0C5
:1036F40070BD03982030FDF71FFC05AB069A0799AF
:103704000398FFF72DFF054658B976B105AB009332
:1037140000231A4605990398FFF7FEFE40B10546BB
:10372400E4E70398FFF737FEE0E70398FFF733FE7B
:10373400059B2360DAE708B50B4601220021FFF759
:10374400C5FF08BDF0B587B00D4617461E4604A94F
:1037540000910C9B02AA03A9FFF750FF041E06DB8D
:10376400039B6BB915F0010404D1049B336020461C
:1037740007B0F0BD0498FFF70EFE6FF01404F6E7EF
:1037840004982030FDF7D8FB15F0400F2CD005AB82
:10379400039A02990498FFF7E3FE041E08DB15F070
:1037A400800F29D00598FFF7F6FD6FF0100423E091
:1037B4000498C36A002B36D05B6813B96FF00C040D
:1037C4001AE02030FDF7B8FB0498C36A5C6805ABC7
:1037D400009338233A460299A0470446059B336078
:1037E4000498FFF7D8FDC2E705AB039A0299049841
:1037F400FFF7B6FE041E10DB15F4007F0AD005980F
:10380400C36A1BB15B6B0BB100219847059B012276
:1038140083F82420059B3360A9E70498FFF7BBFDD8
:103824006FF00104A3E76FF00C04E5E7F0B587B08F
:103834000E4605AA0092002304AA03A9FFF7DEFEA0
:1038440000281FDB0598C26ABAB19369ABB1203076
:10385400FDF772FB059CE36A9F69049D284603F00B
:1038640026FE0246334629462046B84704460598B4
:10387400FFF791FD204607B0F0BDFFF78CFD6FF018
:103884002504F7E76FF00104F4E770B586B005ABE3
:103894000093002304AA03A9FFF7B0FE002828DB45
:1038A40005984388012B19D1C36AE3B1DB69D3B10D
:1038B4002030FDF741FB059CE36ADE69049D284640
:1038C40003F0F5FD024629462046B047041E0ADAF5
:1038D4000598FFF760FD204606B070BDFFF75BFD5D
:1038E4006FF00104F7E70598FFF755FD6FF0250425
:1038F400F1E76FF00104EEE7F0B587B006460D4638
:1039040005AB0093002304AA03A92846FFF776FE1B
:10391400041E1BDB284603F0CAFDD8B1059CA36A2C
:103924009A68B36A9B689A421DD1E36A23B3DD683F
:1039340015B3049F384603F0BAFD03463A462146C0
:103944003046A8470446204607B0F0BD3046FFF78E
:1039540022FDF8E73046FFF71EFD0598FFF71BFD33
:103964004FF0FF34EFE72046FFF715FD3046FFF731
:1039740012FD6FF01104E6E72046FFF70CFD304618
:10398400FFF709FD4FF0FF34DDE710B582B00C46B8
:1039940001A9FFF7D0FE002803DB21460198FFF7B9
:1039A400ABFF02B010BD70B586B005AB0093002329
:1039B40003AA04A9FFF722FE002826DB0598438802
:1039C400012B18D1C36ADBB11B69CBB12030FDF7E1
:1039D400B3FA059CE36A1E69039D284603F067FD5C
:1039E400024629462046B04704460598FFF7D3FC13
:1039F400204606B070BDFFF7CEFC6FF00104F7E778
:103A0400FFF7C9FC6FF02504F2E76FF00104EFE75C
:103A14006FF0250070472DE9F04186B00C4617463B
:103A240005AB0093002304AA03A9FFF7E7FD0028D0
:103A34001DDB0598C36AABB11B6A9BB12030FDF74F
:103A44007BFA059DEB6AD3F82080049E304603F090
:103A54002EFD02460097234631462846C04706B04D
:103A6400BDE8F081FFF797FC6FF02500F7E76FF0F2
:103A74000100F4E76FF02500704710B582B00C46E2
:103A840001A9FFF758FE002812DB019A906A036A25
:103A94001B6A3BB1214698470198FFF77CFC002044
:103AA40002B010BD1046FFF776FC6FF02500F7E773
:103AB4004FF0FF30F4E70000072817D808B5114B82
:103AC4001B6AC0EBC00203EB820292F8742282B13B
:103AD400C0EBC00003EB8000D0F86C3263B1986A8D
:103AE400036A1B6A5BB19847002008BD6FF00800A9
:103AF40070476FF00800F8E76FF00100F5E76FF02A
:103B04002500F2E7CC2900206FF0250070476FF004
:103B14002500704710B586B005AB0093002304AAB6
:103B240003A9FFF76BFD002817DB05984388012BD9
:103B34000ED10B4C236AD3F84003FFF72CFC236A05
:103B44000598C3F84003FFF726FC002006B010BD1B
:103B5400FFF721FC6FF00100F8E76FF00100F5E7D3
:103B6400CC29002007281DD8144B1A6AC0EBC003C7
:103B740002EB830393F87432BBB110B5C0EBC00001
:103B840002EB8000D0F86C4294B16388012B12D10F
:103B9400D2F84003FFF7FFFB084B1B6AC3F840430E
:103BA400002010BD6FF0080070476FF008007047E8
:103BB4006FF00100F5E76FF00100F2E7CC29002077
:103BC40010B586B005AB0093002304AA03A9FFF740
:103BD40015FD002817DB05984388012B0ED10B4CEB
:103BE400236AD3F83C03FFF7D6FB236A0598C3F88E
:103BF4003C03FFF7D0FB002006B010BDFFF7CBFB62
:103C04006FF00100F8E76FF00100F5E7CC29002020
:103C1400072819D8114B1A6AC0EBC00302EB8303BF
:103C240093F874329BB1C0EBC00002EB8000D0F873
:103C34006C0278B14288130403600B4303600123D0
:103C440080F82430002070476FF0080070476FF050
:103C5400080070476FF00100704700BFCC290020B6
:103C640010B582B00C4601A9FFF765FD002810DBF2
:103C7400019A53881B041360019B1968214319603E
:103C84000198012380F82430FFF785FB002002B05F
:103C940010BD6FF00100FAE76FF0250070470000D7
:103CA4002DE9F04184B00646084617461A4600241A
:103CB400072C0BD8C4EBC40C06EB8C0C9CF81850E6
:103CC4000DB10134F4E701238CF81830072C22D805
:103CD4000023009303AB3946FFF734FD002820DBB3
:103CE400C4EBC4054FEA850806EB8505AF816B6913
:103CF40003B36B6933B1DB6923B129460398984751
:103D040000281EDB039B2B611B6806F80830204645
:103D140004B0BDE8F0810F4B18221A604FF0FF3059
:103D2400F6E7C4EBC40406EB8406002333764FF0B5
:103D3400FF30EDE7039BDB6A1B68002BD9D06B6176
:103D4400D7E700232B760398FFF725FB4FF0FF30CE
:103D5400DEE700BF0007002010B51346044A146ACA
:103D64000A46014604F51770FFF79AFF10BD00BF1D
:103D7400CC29002008B50A464121FFF7EDFF08BD14
:103D840038B5164B196AC0EBC00301EB830393F8F3
:103D9400743213B30446C0EBC00301EB8303D3F8BE
:103DA4006C52D3F8703253B11A6A42B1C0EBC003FB
:103DB4009B0003F516731944043128469047074BBA
:103DC4001B6AC4EBC40203EB8202002182F8741262
:103DD400C2F86C122846FFF7DEFA38BDCC29002061
:103DE400072822D810B584468E461346164A146A0C
:103DF400C0EBC00204EB820292F87422C2B1C0EBA1
:103E0400C000800000F516702044011DCCEBCC02EC
:103E140004EB8202D2F86C0268B1D2F870226AB163
:103E2400D46874B17246A04710BD6FF008007047A3
:103E34004FF0FF30F8E76FF00800F5E76FF001008E
:103E4400F2E76FF00100EFE7CC29002007284AD8F9
:103E540070B504460D4616462C4B196AC0EBC003D8
:103E640001EB830393F87432002B3FD0C0EBC00303
:103E740001EB8303D3F86032002B3AD0C0EBC003CC
:103E840001EB8303D3F86C02B0B3C4EBC40301EBBE
:103E94008303D3F870324BB11A6A3AB1C4EBC4034A
:103EA4009B0003F51673194404319047012E0CD975
:103EB400022E16D1154B1B6AC4EBC40203EB82031A
:103EC400D3F86C32DBB15B681D44002D1ADB0F4B59
:103ED400186AC4EBC40400EB8404C4F86052284696
:103EE40070BD0025F3E76FF0080070474FF0FF3016
:103EF400F6E74FF0FF30F3E74FF0FF30F0E74FF015
:103F0400FF30EDE74FF0FF30EAE700BFCC29002097
:103F1400072822DC10B584468E461346164A146AD6
:103F2400C0EBC00204EB820292F87422C2B1C0EB6F
:103F3400C000800000F516702044011DCCEBCC02BB
:103F440004EB8202D2F86C0268B1D2F870226AB132
:103F5400546874B17246A04710BD6FF008007047F2
:103F64004FF0FF30F8E76FF00800F5E76FF0150049
:103F7400F2E76FF01500EFE7CC29002007283DDCBD
:103F84002DE9F84304460D461646244B1F6AC0EB40
:103F9400C00307EB830393F8743293B3C0EBC00000
:103FA400800000F51670384400F10408C4EBC40323
:103FB40007EB8303D3F86C2232B3C4EBC40307EBDF
:103FC4008303D3F8703213B39B681BB3916814480E
:103FD40001F0BCFFC4EBC40307EB8303D3F87032D6
:103FE400D3F80890C4EBC40407EB840433462A4690
:103FF4004146D4F86C02C847BDE8F8836FF0080066
:1040040070474FF0FF30F7E76FF00800F4E76FF008
:104014001500F1E76FF01500EEE700BFCC29002092
:10402400F87F00082DE9F04385B004460D4690461C
:10403400D0F824904368DE00B1FBF6F6D9F82010DE
:10404400EF08B7FBF3F20120009003FB12730DF1AC
:104054000F023144A068FEF7DDFD00282BDBB8F128
:10406400000F1ED105F007050121A9409DF80F504E
:1040740065EA01058DF80F50D9F820106368B7FB85
:10408400F3F20120009003FB12730DF10F0231448F
:10409400A068FEF755FD002810DB002005B0BDE840
:1040A400F08305F007050121A9409DF80F500D404C
:1040B4008DF80F50E0E74FF0FF30EFE74FF0FF309F
:1040C400ECE700002DE9F84306468946D0F8248041
:1040D40000273C46D8F82430BB424BD9D8F82010EE
:1040E40001223944B068FEF7F7FD054683685A7823
:1040F4001978244801F02AFF00222BE0D8F8003078
:10410400A34214D904F007020123934021EA0301D6
:104114008CF80010D8F804307BBBC9F800400123A8
:1041240033772846FEF726FE0020BDE8F8832846AC
:10413400FEF720FE4FF0FF30F7E70023072B08D8E7
:1041440041FA03F010F0010FD8D101340133DBB28E
:10415400F4E701327368934207D9AB6803EB020CAE
:10416400995C0029E9D10834F3E72846FEF702FEFA
:104174000137AFE74FF0FF30D7E7013BC8F8043011
:10418400CBE700BF088000082DE9F04184B0054664
:104194000C46D0F824804368DE00B1FBF6F6D8F86C
:1041A4002010E708B7FBF3F20120009003FB127321
:1041B4000DF10F023144A868FEF72CFD002824DB22
:1041C40004F00704012202FA04F49DF80F301C43A2
:1041D4008DF80F40D8F820106B68B7FBF3F000920D
:1041E40003FB10730DF10F023144A868FEF7A8FC1D
:1041F40000280DDBD8F804300133C8F8043001235B
:104204002B77002004B0BDE8F0814FF0FF30F9E7D0
:104214004FF0FF30F6E700002DE9F04105460F4668
:10422400466A0024A046F369434542D9B169012294
:104234004144A868FEF750FD00222AE01C44F368BC
:10424400A34215D904F007020123934021EA030194
:104254008CF8001033697BBB3C6001232B77FEF79D
:1042640089FD2146164801F071FE0020BDE8F08169
:10427400FEF780FD4FF0FF30F8E70023072B07D847
:1042840041FA03FE1EF0010FD8D10133DBB2F5E78A
:1042940001326B68934207D9836803EB020C995C83
:1042A4000029EAD10834F3E7FEF764FD08F10108B8
:1042B400B9E74FF0FF30D9E7013B3361CCE700BFEA
:1042C400188000082DE9F04184B005460C46D0F86A
:1042D40024804368DE00B1FBF6F6D8F81810E7082E
:1042E400B7FBF3F20120009003FB12730DF10F02F0
:1042F4003144A868FEF78EFC002824DB04F0070490
:10430400012202FA04F49DF80F301C438DF80F408B
:10431400D8F818106B68B7FBF3F0009203FB107326
:104324000DF10F023144A868FEF70AFC00280DDBEA
:10433400D8F810300133C8F8103001232B7700204F
:1043440004B0BDE8F0814FF0FF30F9E74FF0FF30E3
:10435400F6E730B585B0436A9D694468B1FBF4FC67
:1043640004FB1C1401230093E3080DF10F0205EB79
:104374000C018068FEF74EFC00280ADB04F00701FC
:104384009DF80F4044FA01F1012905D0012005B040
:1043940030BD4FF0FF30FAE70020F8E743688B4266
:1043A40033D370B584B01446856A466B01316A68AC
:1043B400B1FBF2F002FB101303B1012303440C2BF5
:1043C40019D9920802EB420149000C3199421FD3DA
:1043D4000D3BB3FBF2F102FB11330C3156F8211003
:1043E400A868042200929B0003AAFEF713FC48B9B4
:1043F400039B236004E0013B56F823302360002034
:1044040004B070BD4FF0FF30FAE74FF0FF30704753
:104414004FF0FF30F4E76FF01400704770B5A0B0B0
:1044240005460C46164680236A462146284600F077
:104434008FFF002813DD1F9B002BF4D081226946D7
:1044440006F10A0003F050F8684603F030F83081B2
:104454001E9B33606368803B7360606800E00020EB
:1044640020B070BD10B50446542003F063FC6063B3
:1044740030B1044BE3625422002102F090FF204645
:1044840010BD00BF28010020C36853B910B504460D
:104494002030FCF77AFD38B9606B03F07FFC002014
:1044A40010BD4FF0FF3070474FF0FF30F8E70000C9
:1044B400F0B5A3B00446866A776A85682946304613
:1044C400FFF747FF012843D1002102917C2203A872
:1044D40002F065FFB38905FB03F17268B1FBF2F1E9
:1044E400BF6AB2FBF3F2B5FBF2F002FB1055B06801
:1044F400009305FB03F302AA3944FEF78BFB002863
:1045040000DAFEE7542202A9606B02F01DFF179B3C
:104514002360189A6260199AA2601A9AE2601B9A40
:1045240022611B0C032B05D8DFE803F002090C0FF2
:10453400094BE362002084F8240023B0F0BD074B4C
:10454400E362F7E7064BE362F4E7064BE362F1E765
:104554004FF0FF30F1E700BF8C010020280100205C
:104564008000002044000020F0B5A3B00446856A12
:104574006F6A86686B68AA89B3FBF2F3B6FBF3F63D
:10458400002102917C2203A802F009FF5422616BEE
:1045940002A802F0D9FE2368179363681893A268EF
:1045A4001992E3681A9323691B93B96AAB89686803
:1045B400B0FBF3F0B2FBF0FC00FB1C22A8680093F4
:1045C40002FB03F302AA3144FEF7BAFA002802DB25
:1045D400002384F8243023B0F0BD38B5044601220A
:1045E40011468068FEF778FB05462822214680683C
:1045F40002F0AAFEA8683422616A283002F0A4FE00
:10460400002323772846FEF7B5FB38BD70B582B08A
:10461400054601A9806AFFF7FFFD002826DBFEF7A7
:1046240047FE0446019B83600121C1600026466069
:10463400AB6A836280F82460C6622030FCF79DFC7C
:10464400314604F11C00FCF798FC2046FFF70AFFF2
:10465400064610B1204602B070BD0199A86AFFF762
:1046640031FE2046FEF797FE3446F3E70024F1E7D7
:10467400F0B583B005465C2003F05CFB04460028DB
:10468400F9D028230093002302460121A868FEF7ED
:10469400C1FA00282EDB22681E4B9A422FD104F166
:1046A40028073423009328233A460121A868FEF7FB
:1046B400B1FA002828DB23682B6063686B60A36869
:1046C400AB60A389AB81144B2B6200262E612E773D
:1046D40034223946686A02F037FE31462846FEF72E
:1046E4008CFE68610D4BC362204603F057FB2846DD
:1046F40003B0F0BD204603F051FB0020F8E720464C
:1047040003F04CFB0020F3E7204603F047FB0020B6
:10471400EEE700BF44332211F001002028010020FD
:1047240038B50446FEF7AAFE2046FFF71DFF002514
:1047340084F824502046FEF7ABFE284638BD00001E
:104744002DE9F04383B00C4615469846DDF82890D1
:104754000021C9F800100746E8B12CB36388042B84
:1047640028D10023196861B31A46A06AFEF7B4FA87
:1047740006462046FEF70FFEB06800974B464246B9
:104784002946FEF7DFFF04463046FEF7F3FA2046DB
:1047940003B0BDE8F0830C4B1B6AD3F83C7307F1FC
:1047A4002000FCF7C9FBD8E73846FEF7F4FD6FF0AC
:1047B4000104ECE73846FEF7EEFDC9F8004000249A
:1047C400E5E74FF0FF34E2E7CC290020F8B50446D2
:1047D4004388042B12D10D461646836A5B689342C4
:1047E40000D21E46636B002219682046FEF774FA55
:1047F40007462046FEF7CFFD002409E0FEF7CBFD77
:104804006FF015040DE00134294601F8013B0D4613
:10481400A64203DDBB681B5D002BF4D13846FEF7CE
:10482400A9FA2046F8BD10B4002300E00133CC5CA3
:1048340044B19A4206D910F803C0A445F6D0ACEBB3
:10484400040000E0C05C10BC70472DE9F04FABB031
:10485400054605934088012840F0B3808B461746EF
:10486400D5F828A06B6B04936B684FEAD318DAF879
:104874000410B3FBF1F201FB123303B10346D31866
:104884000393002302931C46029B039A934280F0F5
:104894009580029B0B2B20D9AB6A5B689B0803EBCA
:1048A400430252000C3202998A4240F28D80A1F1F7
:1048B4000C02B2FBF3F103FB11230C31049A52F8FE
:1048C4002110DAF80800042200929B0009AAFEF7DE
:1048D400A1F900286FDB002643E00022049B029923
:1048E40053F82110DAF80800FEF7F6F906900026CE
:1048F400CDF81CA0824608E00698FEF73BFA6FF05C
:10490400010052E001340136B6B2B146AB6A5B68CD
:10491400B6EBD31F19D24445EED2DAF8083003EBD4
:10492400C9193A4659464846FFF77DFF0028E9D1A0
:10493400D9F87C30012BE5D1D9F87830059A136089
:104944000698FEF717FA20462FE0DDF81CA006981B
:10495400FEF710FA029B0133029395E70134013606
:10496400B6B23346AA6A5268B6EBD21FF2D24445B5
:1049740019D2DAF8080080220092DB010AAA099908
:10498400FEF748F9002813DB3A4659460AA8FFF710
:104994004AFF0028E2D1299B012BDFD1289B059AED
:1049A4001360204601E06FF001002BB0BDE8F08FEA
:1049B4006FF00100F9E76FF00100F6E76FF0010016
:1049C400F3E76FF01300F0E76FF01A00EDE770B54E
:1049D40082B005461E4601ABFFF737FF041E0EDB0F
:1049E4000199A86AFEF709FD044660B12846FEF75E
:1049F400D2FC76B134600024204602B070BD284653
:104A0400FEF7C9FCF8E72846FEF7C5FC6FF0010481
:104A1400F2E70024F0E700004388012B40F0BE8059
:104A24002DE9F04FA5B0044688469146876A01E017
:104A3400FEF7A0F96568EE097B68DB09B6FBF3F2C3
:104A440003FB126353BB039303A9204600F076FDD6
:104A54000028C0F29D80414604A802F01EFDD9F84A
:104A640008302293012223920399B868FEF734F99F
:104A740006466368AB42DBD1039BBE2249494A48E0
:104A840001F068FA802204A9B06802F05DFC636852
:104A9400803363603046FEF76DF972E000230393C0
:104AA40003AA29462046FFF779FC002873DB01227C
:104AB4000399B868FEF710F98246626829463B48B4
:104AC40001F044FA6168A94218D004AA2046FFF70D
:104AD40065FC00280ADB039A049B9A420CD03448F4
:104AE40001F034FA5046FEF745F9A3E75046FEF7C5
:104AF40041F94FF0FF304BE06668F60941462D4816
:104B040001F024FA7B68DB09B6FBF3FB03FB1B6BA8
:104B1400002600E001365E4513D2DAF8087007EB90
:104B2400C61780224146384602F0CDFC0028F1D158
:104B3400FB6F012BEED15046FEF71CF96FF010000D
:104B440026E0DAF808604FEACB1706EBCB164146AD
:104B5400304602F0A2FCD9F80830B3670123F367AA
:104B6400154B1B6A596B6368019300953B46039A86
:104B7400124801F0EBF96368803363605046FEF736
:104B8400F9F8012384F82430E3680133E36000205A
:104B940025B0BDE8F08F4FF0FF30F9E76FF0130058
:104BA400704700BF088100082C800008408000087E
:104BB4005C8000086C800008CC2900207C80000800
:104BC400F8B506460F461D46FFF720FDA8B104467A
:104BD400ADB20560012380F82430104BC362024655
:104BE40039463046FFF718FF051E0CDB3046FEF74A
:104BF400D2FB069B1C602846F8BD3046FEF7CBFB73
:104C04006FF00B05F7E7E368013BE3603046FEF71E
:104C1400C2FB2046FEF7BFFBEDE700BF8C0100207E
:104C2400F0B583B0002853D00D461C46064601ABB0
:104C3400FFF70BFE002820DA3046FFF7E7FC0746B3
:104C440008B304600023C362240C22D1224BC36244
:104C5400022C2DD0012387F824303A4629463046C9
:104C6400FFF7DAFE044630BB3046FEF794FB3846C5
:104C7400FEF791FB204603B0F0BD3046FEF78BFBF8
:104C84006FF01004F6E73046FEF785FB6FF01B0467
:104C9400F0E7012C06D0022C07D0032CD8D10F4BFF
:104CA400C362D5E70E4BC362D2E70E4BC362CFE7B4
:104CB400089B3B61CEE7FB68013BFB60012387F85F
:104CC40024303846FEF767FB3046FEF764FBD1E735
:104CD4006FF00104CEE700BF8C01002044000020E7
:104CE40028010020800000202DE9F043A5B00546EE
:104CF40000286AD00E46876A002F66D022ABFFF7E1
:104D0400A4FD002867DA2846FFF780FC0446002843
:104D140067D03E4BC3624FF4807343604FF48033DB
:104D2400036023A93846FFF7CDF900285FDB384B31
:104D34001B6A596B239B00934FF4B973354A364869
:104D440001F004F9354902A802F0A7FB4FF001086D
:104D5400CDF88480A3682093B8684FF08009CDF81B
:104D64000090002302AA2399FDF7EAFE2C4902A829
:104D740002F093FBCDF88480AB682093B868CDF83B
:104D840000904B4602AA2399FDF7DAFE636B239A3F
:104D94001A6084F824800223E360224631462846C0
:104DA400FFF73AFE061E28DBEB680133EB600123B4
:104DB40085F824302846FEF7EEFA2046FEF7EBFA93
:104DC4000026304625B0BDE8F0832846FEF7E3FA16
:104DD4006FF01506F5E72846FEF7DDFA6FF01006CA
:104DE400EFE72846FEF7D7FA6FF01B06E9E72846F7
:104DF400FEF7D1FA6FF01B06E3E70023E3602846D1
:104E0400FEF7C9FA2046FEF7C6FADAE728010020C1
:104E1400CC290020FC800008B0800008D080000865
:104E2400D48000084288012A7FD14368002B7ED0B9
:104E34002DE9F047A4B0866AD0F83490DF09716890
:104E4400B3FBF1F801FB183303B113469844002572
:104E54002C4651E0002024B0BDE8F0874FF0000A52
:104E640053467268BAEBD21F45D2BC42F2D259F80B
:104E74002510B06880220092DB0104AAFDF7CAFE67
:104E84000028E7DB239B012BE4D001340AF1010A5B
:104E94001FFA8AFAE4E7A5F10C02B2FBF3F103FB73
:104EA40011230C3159F82110B068042200929B00A0
:104EB40003AAFDF7AFFE00281BDB4FF0000A5346A0
:104EC4007268BAEBD21F16D2BC4212D2B0688022EA
:104ED4000092DB0104AA0399FDF79CFE002808DB7D
:104EE400239B012B05D001340AF1010A1FFA8AFA27
:104EF400E5E70020AFE70135454514D20B2DADD9C8
:104F040073689B0803EB4302520002F10C01A942AF
:104F1400C1D803FB03F303EB430313440C33AB4249
:104F2400E9D8002097E7012095E700207047012089
:104F340070474388012B00F0BB802DE9F04FA7B0E8
:104F44008846866AD0F834A043684FEAD31971685A
:104F5400B3FBF1F201FB123303B10123D318039322
:104F640000273D4688E04FF0FF3030E00135013442
:104F7400A4B223467268B4EBD21F7CD24D4524D22E
:104F84005AF827104FEAC31BB068802300935B468E
:104F940006AAFDF73FFE00281CDBD8F80830249A47
:104FA4009A42E3D1259B012BE0D1002325930C37B2
:104FB4005AF82710B068802300935B4606AAFDF7D1
:104FC400BFFD0028CFDB002001E04FF0FF3027B009
:104FD400BDE8F08F4FF0FF30F9E70024C9E7A7F1EF
:104FE4000C02B2FBF3F103FB11230C315AF821102C
:104FF400B068042200929B0005AAFDF70BFE00286E
:1050040036DB002405E04FF0FF30E0E701350134E2
:10501400A4B223467268B4EBD21F2CD24D4521D2E0
:105024004FEAC31BB068802300935B4606AA059928
:10503400FDF7F0FD002818DBD8F80830249A9A42CE
:10504400E4D1259B012BE1D100232593B068802373
:1050540000935B4606AA0599FDF772FD0028D2DB92
:105064000020B4E74FF0FF30B1E74FF0FF30AEE778
:105074004FF0FF30ABE70137039B9F4215D20B2F54
:10508400ABD973689B0803EB4302520002F10C0195
:10509400B942A4D803FB03F303EB430313440C33D7
:1050A400BB42E8D84FF0FF3091E74FF0FF308EE776
:1050B4004FF0FF30704770B582B0044601ABFFF784
:1050C400C4FB051E26DB0199A06AFEF796F9064685
:1050D40048B3836A9A68A36A9B689A421AD1438840
:1050E400012B23D12046FFF79DFE10B306F12000CB
:1050F400FBF74BFF01281FD80025F560012286F835
:105104002420E368013BE36084F8242031462046F0
:10511400FFF70FFF2046FEF73EF93046FEF73BF956
:10512400284602B070BD4FF0FF35F3E76FF001057C
:10513400F0E76FF02605EDE76FF00F05EAE70000F2
:105144002DE9F04182B006468846174601AB3A463F
:1051540041463046FFF779FB041E25DB0199B06A0E
:10516400FEF74BF9054600B34388012B27D082682C
:10517400019B9A4204D0FEF70EF900F059FFE5E7CF
:10518400C3684BB1012286F82420EB68013BEB6035
:1051940085F82420002408E0816A8968094800F021
:1051A400D9FE0123EB60EDE700252846FEF7F3F86E
:1051B4003046FEF7F0F8204602B0BDE8F0814FF02B
:1051C400FF34F2E7D88000082DE9F04383B00646A7
:1051D400884691461C46FFF719FAA8B10746394B91
:1051E4000360394BC3626946B06AFEF76BFF00285F
:1051F40010DB7B6B00991960B36A01229868FDF794
:105204006BFD4FF0000C14E03046FEF7C4F86FF06D
:105214001B0437E0B968B06AFFF754F83846FEF764
:10522400BAF86FF01B042DE081680CF1010C4A55AB
:105234001C46B36A5B686546634504D9234613F884
:10524400012B002AF0D1836800225A55FDF792FD04
:105254007D60012387F8243001AB4A46414630463D
:10526400FFF7F3FA002811DA3A4641463046FFF7D1
:10527400D3FB041E19DB3046FEF78DF83846FEF7E3
:105284008AF80024204603B0BDE8F083FB68013BA4
:10529400FB60012387F824303846FEF77CF830465B
:1052A400FEF779F86FF01004ECE7FB68013BFB6054
:1052B400012387F824303846FEF76DF83046FEF7B0
:1052C4006AF8DFE7FF0104001802002070B582B01D
:1052D40004460D4616461A464388012B1DD001ABE1
:1052E40031462846FFF7B1FA00281EDA2246314635
:1052F4002846FFF791FB061E20DB2846FEF74BF8F5
:10530400E3680133E360012384F824302046FEF788
:1053140042F80026304602B070BDFEF73CF828463D
:10532400FEF739F84FF0FF36F4E72846FEF733F876
:105334002046FEF730F86FF01006EBE72846FEF73C
:105344002AF82046FEF727F8E4E76FF025007047B7
:105354002DE9F04F8BB0039004929B46002B00F094
:105364009D808A464968059143688B4240F2988043
:10537400D0F82890426B0792D9F80420B1FBF2F0E0
:10538400019002FB10110091511A0691B3FBF2F146
:1053940002FB113303B10123CB180293019D0026B4
:1053A4001FE0069A944228BF144636E00022079B69
:1053B40053F82510D9F80800FDF78EFC07468168DC
:1053C4002246009B1944049B981901F0BDFF264412
:1053D400DAF804302344CAF804303846FDF7CAFC2E
:1053E4000135029B9D4255D2B34553D9059B9A1969
:1053F400039B5B689A424DD2ABEB06049A1AD9F828
:1054040004309C4228BF1C46944228BF1446019A8B
:105414009542C6D00693002200920B2DC6D99B0854
:1054240003EB430252000C32AA423CD9A5F10C080A
:10543400B8FBF3F203FB128802F10C030022079974
:1054440051F82310D9F80800FDF746FC0746816897
:10545400042201EB880109A801F076FF3846FDF724
:1054640089FC00220999D9F80800FDF735FC0746A4
:1054740081682246009B1944049B981901F064FF3B
:105484002644DAF804302344CAF804303846FDF7D9
:1054940071FCA5E730460BB0BDE8F08F1846FAE77B
:1054A4004FF0FF30F7E74FF0FF30F4E700283FD02C
:1054B400F0B583B01446866A476B43688B423AD38F
:1054C4007368B1FBF3F003FB101101B10121014436
:1054D400481E0B280AD99B0803EB430252000C32E6
:1054E400824208D84FF0FF3003B0F0BD57F82030A7
:1054F40023600020F8E70D39B1FBF3F203FB12152A
:1055040002F10C03002257F82310B068FDF7E4FB06
:1055140006468168042201EB85010DEB020001F0CF
:1055240013FF3046FDF726FC019B23600020DBE7D8
:105534004FF0FF3070474FF0FF30D5E72DE9F047CB
:1055440082B005460E46876AD0F8348044684CB170
:105554007B68B4FBF3F203FB124404B1012414444A
:105564000B2C0FD831463846FEF7ACFD002869DB1A
:10557400336848F82430012385F82430002002B031
:10558400BDE8F0879B0803EB4302520002F10C01D3
:10559400A14246D90C3CB4FBF3F903FB194409F1CD
:1055A4000C0358F82330DBB969463846FEF78AFD08
:1055B400002833DB01220099B868FDF78DFB824691
:1055C4007A680021806801F0EAFE5046FDF7D2FBBC
:1055D40009F10C03009A48F82320012385F82430AC
:1055E40001A93846FEF76EFD002817DB09F10C0906
:1055F400012258F82910B868FDF76EFB054680684B
:1056040004220DEB020100EB840001F09DFE28460C
:10561400FDF7B0FB019B33600020B0E74FF0FF3093
:10562400ADE703FB03F303EB430313440C33A3423F
:1056340002D24FF0FF30A2E7044800F087FC4FF09D
:10564400FF309CE74FF0FF3099E700BF1C81000852
:105654002DE9F04F87B00391019299464388002BBE
:1056640040F0A78007461D04B9F1000F00F0A480A4
:105674008B8913F4806F01D043684B60039B5C6893
:105684007B68A342C0F09A80D7F828A0DAF80420F7
:10569400B4FBF2F302FB134101B101210B4403FB00
:1056A40002F302934FF0000B63E005AA214638464B
:1056B400FFF7FCFE00282EDBDAF80460B4FBF6F3F7
:1056C40006FB1343F61A4E4528BF4E4601220599A0
:1056D400DAF80800FDF700FB80468068DAF8042059
:1056E400B4FBF2F302FB13433246019929441844F4
:1056F40001F02AFE354434447B68A34205D27C6021
:10570400039B5C60012387F824304046FDF732FB9D
:105714004FF0010B2DE04FF0FF3047E07B68A342D0
:1057240032D805A93846FFF709FF002836DB0122E5
:105734000599DAF80800FDF7CFFA8046A9EB0503CE
:10574400DAF804609E4228BF1E463246019B59196E
:10575400806801F0F9FD354434447B68A34205D2E6
:105764007C60039B5C60012387F824304046FDF78E
:1057740001FBA94515D9BBF1000FCFD1029B9C4277
:1057840093D34FF0010BF4E705AA21463846FFF7FF
:105794008DFE0028CBDA4FF0FF3007E06FF01B00DE
:1057A40004E07968074800F0D1FB284607B0BDE85B
:1057B400F08F6FF01400F9E74846F7E74FF0FF3039
:1057C400F4E700BF2C81000810B50446342002F031
:1057D400B1FA606200B1204610BD00002DE9F04727
:1057E400A4B080460E46282002F0A4FA04463420D1
:1057F40002F0A0FA05466062824B2362C4F8088076
:105804008023A381C3604046FDF742FB60604046AD
:10581400FDF75AFB286001236B61002E37DDEE6033
:10582400EA68D308A968B3FBF1FA02F007029B18EF
:1058340000D00123B3FBF1F201FB1233D31800D0E3
:1058440001239A44C5F81CA06A690132AA61296837
:10585400CB086068B3FBF0F901F007015B1800D0D6
:105864000123B3FBF0F100FB1133CB1800D001236B
:105874009944C5F8249052442A62606802F05AFAA6
:1058840007466268FF2101F08AFD002614E04046C5
:10589400FDF71AFB00EB40005B4BA3FB0023DB0886
:1058A400EB60BDE7A969A0686368009300233A46EA
:1058B4003144FDF745F901365645F3D3002609E096
:1058C400296AA0686368009300233A463144FDF7CF
:1058D40037F901364E45F3D3EB68A28902FB03F393
:1058E4006168B3FBF1F201FB123303B101231344EA
:1058F4002A6A696A0A44AA62EB621A442A63434B1D
:1059040023602046FEF769FE002605E001223146A9
:105914002046FEF787FB01362B6BB342F6D8C4F85A
:10592400088023A92046FEF7CDFB002853DB22A9DB
:105934002046FEF771FC002857DB382002F0FAF904
:10594400054600283FD0002343634FF4807343602F
:105954004FF4803303608462229B83600223C3601C
:1059640001212030FBF709FB2846FEF77BFD20B31D
:105974006B6B239A1A60264902A801F08EFD01235D
:10598400219300232093A0688022009202AA2399E5
:10599400FDF7D6F8002810DB1E4902A801F07DFDB2
:1059A4000123219300232093A0688023009302AA5B
:1059B4002399FDF7C5F800281CDA2846FEF764FD94
:1059C400284602F0EBF923992046FEF7DDFB2299E5
:1059D4002046FEF7D9FB606A02F0E0F9204602F0A7
:1059E400DDF9002024B0BDE8F08723992046FEF7B6
:1059F400CBFBF0E72846FEF7B7FD284602F0CEF9C8
:105A0400E9E700BFF0010020CDCCCCCC4433221117
:105A1400D0800008D48000082DE9F0410646438870
:105A240033B11A04B2F5803F02D0B2F5802F3BD1D6
:105A3400B76A756B002400E001340B2C08D855F8C4
:105A440024100029F8D0B36A9868FDF71DF8F3E72D
:105A5400002409E04046FDF78DF90020BDE8F081FF
:105A64004046FDF787F90134052C18D804F10C03DE
:105A740055F823100029F6D00022B868FDF72CF958
:105A840080467B68002BEBD0D8F8083019590029E0
:105A9400E0D0B36A9868FCF7F7FF0434F1E73046C6
:105AA400FEF73EFE0020D9E76FF01500D6E74388E5
:105AB400002B5BD12DE9F04782B0856A476B6E6895
:105AC400B1FBF6F406FB141303B101231C44436831
