:020000040800F2
:1000000000000120894A0008252700082927000848
:10001000952700089727000899270008000000008E
:100020000000000000000000000000006510000853
:100030009B27000800000000E1100008D91000080C
:10004000D9100008D9100008D9100008D9100008EC
:10005000D9100008D9100008D9100008D9100008DC
:10006000D9100008D9100008D9100008D9100008CC
:10007000D9100008D9100008D9100008D9100008BC
:10008000D9100008D9100008D9100008D9100008AC
:10009000D9100008D9100008D9100008D91000089C
:1000A000D9100008D9100008D9100008D91000088C
:1000B000D9100008D9100008D9100008D91000087C
:1000C000D9100008D9100008D9100008D91000086C
:1000D000D9100008D9100008D9100008D91000085C
:1000E000D9100008D9100008D9100008D91000084C
:1000F000D9100008D9100008D9100008D91000083C
:10010000D9100008D9100008D9100008D91000082B
:10011000D9100008D9100008D9100008D91000081B
:10012000D9100008D9100008D9100008D91000080B
:10013000D9100008D9100008D9100008D9100008FB
:10014000D9100008D9100008D9100008D9100008EB
:10015000D9100008D9100008D9100008D9100008DB
:10016000D9100008D9100008D9100008D9100008CB
:10017000D9100008D9100008D9100008D9100008BB
:10018000D9100008D9100008D9100008D9100008AB
:10019000D9100008D9100008D9100008D91000089B
:1001A000D9100008D9100008D9100008D91000088B
:1001B000D9100008D9100008D9100008D91000087B
:1001C000D9100008D9100008D9100008D91000086B
:1001D000D9100008D9100008D9100008D91000085B
:0401E0005FF8E0F1F3
:1001E40070BCF746EC462DE970009CE8700080B4C2
:1001F4004FF05A0780DF80BCF2E700BF4FF00003E6
:1002040000F06DBB80B44FF0B40780DF80BCE8E73A
:1002140080B44FF0B50780DF80BCE2E780B44FF0D4
:10022400580780DF80BCDCE780B44FF0210780DF13
:1002340080BCD6E780B44FF07C0780DF80BCD0E779
:1002440080B44FF02D0780DF80BCCAE780B44FF044
:100254000C0780DF80BCC4E780B44FF00F0780DF59
:1002640080BCBEE780B44FF0B60780DF80BCB8E73F
:1002740080B44FF03D0780DF80BCB2E780B44FF01C
:10028400060780DF80BCACE780B44FF0290780DF2D
:1002940080BCA6E780B44FF03F0780DF80BCA0E7B6
:1002A40080B44FF00B0780DF80BC9AE780B44FF036
:1002B400850780DF80BC94E780B44FF05E0780DF61
:1002C40080BC8EE780B44FF05F0780DF80BC88E796
:1002D40080B44FF0370780DF80BC82E780B44FF0F2
:1002E4008F0780DF80BC7CE780B44FF0020780DF9B
:1002F40080BC76E780B44FF06C0780DF80BC70E789
:1003040080B44FF0C50780DF80BC6AE780B44FF04B
:10031400640780DF80BC64E780B44FF0760780DF39
:1003240080BC5EE780B44FF05D0780DF80BC58E797
:1003340080B44FF0B70780DF80BC52E780B44FF041
:100344008D0780DF80BC4CE780B44FF0D90780DF95
:1003540080BC46E780B44FF0320780DF80BC40E7C2
:1003640080B44FF0310780DF80BC3AE780B44FF0AF
:100374002F0780DF80BC34E780B44FF0500780DF64
:1003840080BC2EE780B44FF0690780DF80BC28E78B
:1003940080B44FF0840780DF80BC22E780B44FF044
:1003A400140780DF80BC1CE780B44FF0400780DF77
:1003B40080BC16E780B44FF0600780DF80BC10E794
:1003C40080B44FF0AB0780DF80BC0AE780B44FF005
:1003D400A50780DF80BC04E780B44FF04C0780DFC2
:1003E40080BCFEE680B44FF04D0780DF80BCF8E6A9
:1003F40080B44FF0930780DF80BCF2E680B44FF006
:100404004E0780DF80BCECE680B44FF04F0780DFFE
:1004140080BCE6E680B44FF0180780DF80BCE0E6DD
:1004240080B44FF0360780DF80BCDAE6EC462DE975
:1004340070009CE8700080B44FF0750780DF80BCCA
:10044400CEE680B44FF0250780DF80BCC9E680B4D7
:100454004FF0100780DF80BCC3E680B44FF009077B
:1004640080DF80BCBDE6EC462DE970009CE870009E
:1004740080B44FF08C0780DF80BCB1E680B44FF0CD
:10048400130780DF80BCACE680B44FF06B0780DFDD
:1004940080BCA6E680B44FF0C40780DF80BCA0E631
:1004A40080B44FF0270780DF80BC9AE680B44FF019
:1004B4000E0780DF80BC94E680B44FF0960780DF9F
:1004C40080BC8EE680B44FF0980780DF80BC88E65D
:1004D400EC462DE970009CE8700080B44FF0C00732
:1004E40080DF80BC7CE6EC462DE970009CE870005F
:1004F40080B44FF0150780DF80BC71E680B44FF004
:100504007D0780DF80BC6CE680B44FF0A30780DFFA
:1005140080BC66E680B44FF0990780DF80BC60E65B
:1005240080B44FF05B0780DF80BC5AE680B44FF0A4
:10053400430780DF80BC54E680B44FF0490780DF76
:1005440080BC4EE680B44FF07E0780DF80BC48E676
:1005540080B44FF0480780DF80BC42E680B44FF09F
:10056400A20780DF80BC3CE680B44FF0220780DF26
:1005740080BC36E680B44FF0050780DF80BC30E6EF
:1005840080B44FF01D0780DF80BC2AE680B44FF0B2
:10059400880780DF80BC24E680B44FF02A0780DF20
:1005A40080BC1EE680B44FF0A80780DF80BC18E64C
:1005B400EC462DE970009CE8700080B44FF0A7076A
:1005C40080DF80BC0CE680B44FF0800780DF80BC05
:1005D40007E680B44FF0810780DF80BC01E680B479
:1005E4004FF07F0780DF80BCFBE580B44FF003074A
:1005F40080DF80BCF5E580B44FF0550780DF80BC18
:10060400EFE580B44FF0910780DF80BCE9E580B46A
:100614004FF0260780DF80BCE3E580B44FF0280765
:1006240080DF80BCDDE580B44FF0AE0780DF80BCA6
:10063400D7E580B44FF0B00780DF80BCD1E580B44B
:100644004FF0AF0780DF80BCCBE580B44FF0B2073A
:1006540080DF80BCC5E580B44FF0B30780DF80BC89
:10066400BFE580B44FF0B10780DF80BCB9E580B44A
:100674004FF09F0780DF80BCB3E580B44FF0A00744
:1006840080DF80BCADE580B44FF09B0780DF80BC89
:10069400A7E580B44FF09D0780DF80BCA1E580B45E
:1006A4004FF0A10780DF80BC9BE580B44FF09A0730
:1006B40080DF80BC95E580B44FF09C0780DF80BC70
:1006C4008FE580B44FF09E0780DF80BC89E580B45D
:1006D4004FF0520780DF80BC83E580B44FF0BB0746
:1006E40080DF80BC7DE580B44FF0EF0780DF80BC05
:1006F40077E580B44FF0790780DF80BC71E580B482
:100704004FF08B0780DF80BC6BE580B44FF08A0725
:1007140080DF80BC65E580B44FF02E0780DF80BCAD
:100724005FE580B44FF0510780DF80BC59E580B4A9
:100734004FF04A0780DF80BC53E580B44FF0680770
:1007440080DF80BC4DE580B44FF0390780DF80BC8A
:1007540047E580B44FF0610780DF80BC41E580B499
:100764004FF0470780DF80BC3BE580B44FF0AA0719
:1007740080DF80BC35E580B44FF0A40780DF80BC07
:100784002FE580B44FF0460780DF80BC29E580B4B4
:100794004FF04B0780DF80BC23E580B44FF0420765
:1007A40080DF80BC1DE580B44FF0170780DF80BC7C
:1007B40017E580B44FF0BA0780DF80BC11E580B440
:1007C4004FF0000780DF80BC0BE580B44FF0660774
:1007D40080DF80BC05E580B44FF06A0780DF80BC11
:1007E400FFE480B44FF0C30780DF80BCF9E480B439
:1007F4004FF0630780DF80BCF3E480B44FF0190747
:1008040080DF80BCEDE480B44FF0730780DF80BCF0
:10081400E7E480B44FF0570780DF80BCE1E480B4A4
:100824004FF0530780DF80BCDBE480B44FF0240733
:1008340080DF80BCD5E480B44FF0950780DF80BCB6
:10084400CFE480B44FF0740780DF80BCC9E480B487
:100854004FF0670780DF80BCC3E480B44FF08707A4
:1008640080DF80BCBDE480B44FF00D0780DF80BC26
:10087400B7E480B44FF02B0780DF80BCB1E480B4D0
:100884004FF05C0780DF80BCABE480B44FF03C07E2
:1008940080DF80BCA5E480B44FF0160780DF80BC05
:1008A4009FE480B44FF0340780DF80BC99E480B4C7
:1008B4004FF07A0780DF80BC93E480B44FF00A07DE
:1008C40080DF80BC8DE480B44FF01E0780DF80BCE5
:1008D40087E480B44FF06F0780DF80BC81E480B48C
:1008E4004FF0720780DF80BC7BE480B44FF00407D4
:1008F40080DF80BC75E480B44FF0920780DF80BC59
:100904006FE480B44FF0900780DF80BC69E480B46A
:100914004FF0B80780DF80BC63E480B44FF0B907C0
:1009240080DF80BC5DE480B44FF0D40780DF80BCFE
:1009340057E480B44FF0CF0780DF80BC51E480B42B
:100944004FF0CA0780DF80BC4BE480B44FF0C90786
:1009540080DF80BC45E480B44FF0C80780DF80BCF2
:100964003FE480B44FF0CD0780DF80BC39E480B42D
:100974004FF0D30780DF80BC33E480B44FF0C70767
:1009840080DF80BC2DE480B44FF0C60780DF80BCDC
:1009940027E480B44FF0D80780DF80BC21E480B422
:1009A4004FF0D70780DF80BC1BE480B44FF0D6073C
:1009B40080DF80BC15E480B44FF0CC0780DF80BCBE
:1009C4000FE480B44FF0D20780DF80BC09E480B428
:1009D4004FF0CB0780DF80BC03E480B44FF0D50731
:1009E40080DF80BCFFF7FDBB80B44FF01B0780DFC6
:1009F40080BCFFF7F6BB80B44FF01A0780DF80BCE1
:100A0400FFF7EFBB80B44FF0C20780DF80BCFFF775
:100A1400E8BB80B44FF0C10780DF80BCFFF7E1BBC7
:100A240080B44FF03E0780DF80BCFFF7DABB80B4B0
:100A34004FF0FA0780DF80BCFFF7D3BB80B44FF0E0
:100A4400FB0780DF80BCFFF7CCBB80B44FF0FC0712
:100A540080DF80BCFFF7C5BB80B44FF0DD0780DFCB
:100A640080BCFFF7BEBB80B440F2011780DF80BCBE
:100A7400FFF7B7BB80B44FF4817780DF80BCFFF70A
:100A8400B0BB80B440F2031780DF80BCFFF7A9BB82
:100A940080B44FF4827780DF80BCFFF7A2BB80B4C0
:100AA40040F2051780DF80BCFFF79BBB80B44FF496
:100AB400837780DF80BCFFF794BB80B440F20717D4
:100AC40080DF80BCFFF78DBB80B440F2091780DF64
:100AD40080BCFFF786BB80B440F2171780DF80BC70
:100AE400FFF77FBB80B44FF48B7780DF80BCFFF7C8
:100AF40078BB80B44FF4897780DF80BCFFF771BB8B
:100B0400EC462DE970009CE8700080B440F21517A3
:100B140080DF80BCFFF764BB80B44FF48A7780DF4A
:100B240080BCFFF75EBB80B440F2131780DF80BC4B
:100B3400FFF757BB80B44FF4857780DF80BCFFF7A5
:100B440050BB80B440F20B1780DF80BCFFF749BB79
:100B540080B44FF0EE0780DF80BCFFF742BB80B467
:100B64004FF4867780DF80BCFFF73BBB80B44FF443
:100B7400807780DF80BCFFF734BBEC462DE9700042
:100B84009CE8700080B440F2411780DF80BCFFF71E
:100B940027BB80B44FF0AD0780DF80BCFFF721BBDB
:100BA40080B44FF0E00780DF80BCFFF71ABB80B44D
:100BB4004FF0FD0780DF80BCFFF713BB80B44FF01C
:100BC400E10780DF80BCFFF70CBB80B44FF08307E4
:100BD40080DF80BCFFF705BB80B44FF0DB0780DF0C
:100BE40080BCFFF7FEBAEC462DE970009CE870006B
:100BF40080B440F23F1780DF80BCFFF7F1BAEC46C7
:100C04002DE970009CE8700080B44FF4A07780DF79
:100C140080BCFFF7E5BA80B44FF0F00780DF80BCFA
:100C2400FFF7DFBA80B440F2391780DF80BCFFF7EA
:100C3400D8BAEC462DE970009CE8700080B44FF4FB
:100C44009B7780DF80BCFFF7CBBA80B440F23717C4
:100C540080DF80BCFFF7C5BAEC462DE970009CE844
:100C6400700080B440F2351780DF80BCFFF7B8BA5B
:100C740080B44FF0F60780DF80BCFFF7B2BA80B4CF
:100C84004FF0F30780DF80BCFFF7ABBA80B44FF0BE
:100C9400F50780DF80BCFFF7A4BA80B44FF0F407F7
:100CA40080DF80BCFFF79DBA80B44FF0F70780DF88
:100CB40080BCFFF796BA80B44FF49F7780DF80BC86
:100CC400FFF78FBA80B44FF49E7780DF80BCFFF7C4
:100CD40088BA80B440F23D1780DF80BCFFF781BA48
:100CE400EC462DE970009CE8700080B44FF0E207F8
:100CF40080DF80BCFFF774BAEC462DE970009CE8F5
:100D0400700080B44FF0E30780DF80BCFFF768BA5F
:100D1400EC462DE970009CE8700080B44FF0E407C5
:100D240080DF80BCFFF75CBA80B44FF0EB0780DF54
:100D340080BCFFF756BA80B44FF0EC0780DF80BC6C
:100D4400FFF74FBA80B44FF0ED0780DF80BCFFF7A8
:100D540048BA80B44FF0E80780DF80BCFFF741BA9F
:100D640080B44FF0E90780DF80BCFFF73ABA80B463
:100D74004FF0EA0780DF80BCFFF733BA80B44FF04E
:100D8400E50780DF80BCFFF72CBA80B44FF0E6079C
:100D940080DF80BCFFF725BA80B44FF0E70780DF1F
:100DA40080BCFFF71EBA01DF78468EEA0E00874644
:100DB40080B44FF0780780DF80BCFFF712BA844616
:100DC400080008BF0120BCE8F00F5CF8042B95462E
:100DD4005CF804FB4FF000016A46A0E8F00FA0E8BD
:100DE4000440A0F128000EF0FFBF00BF4FF0000B3D
:100DF4005DF8040B6946DFF820C001EB800202F1C4
:100E04000402CCF800200FF013F80EF081FD80B43A
:100E14004FF0010780DF80BC0407002008B50BF009
:100E2400C1FF0CF0F7F90CF03FF90DF0D9F80CF014
:100E34003BFC0CF04BFB08BD08B5002000F03CFD6A
:100E440003F058FD03F0B6FD01F0F0FD01F084FF5E
:100E5400632140F2CF2003F0DDFD002008BD000037
:100E640010B5002211460A4800F020F94FF0E023A3
:100E7400084A5A61084AF02182F8231000249C6130
:100E840007221A614FF4407000F070FF204610BD35
:100E9400210E00083F19010000ED00E010B44FF0EE
:100EA4008074046040F8041C1A4940F8081C4FF090
:100EB400123140F80C1C4FF0033140F8101C01991A
:100EC40040F8141C40F8183C40F81C2C4FF0113327
:100ED40040F8203C4FF0103340F8243C0E4B1B6884
:100EE40040F8283C4FF0083340F82C3C4FF00733CF
:100EF40040F8303C4FF0063340F8343C4FF00533B3
:100F040040F8383C4FF0043340F83C3C3C3810BCCB
:100F1400704700BF55C400080C070020EFF3108091
:100F240072B6704780F30988704780F31088704761
:100F340002484FF0805101607047000004ED00E06A
:100F44004FF0000350E8002F02F10102002A00D004
:100F540001E04FF0010340E800210129F2D01846D6
:100F640070474FF0000350E8002F02F1FF32002ACF
:100F740000D001E04FF0010340E800210129F2D044
:100F8400704750E8002F0A4640E80023012BF8D0B0
:100F940070470068704710B450E8002F8A4202D0AE
:100FA4004FF0000401E04FF0010440E80023012B5E
:100FB400F2D0204610BC704710B450E8002F002A2D
:100FC40002D04FF0000402E04FF001040A4640E86A
:100FD4000023012BF1D0204610BC704710B450E818
:100FE400002F002A02D04FF0000403E04FF0010468
:100FF40002F1010240E80023012BF0D0204610BC8E
:10100400704710B450E8002F002A04D04FF00004B9
:1010140002F1FF3201E04FF0010440E80023012B0C
:10102400F0D0204610BC704772B60A484AF2A001BC
:10103400018009484FF0F0010170002080F3098815
:1010440006484FF08051016062B64FF0010080F312
:101054001488704722ED00E01FED00E004ED00E08D
:101064001EF0040F0CBFEFF30880EFF30980A0F12A
:10107400200080E8F00F39460DF00EBAEFF305803A
:101084007047000008B5FFF7F9FFA0F10F02054B08
:1010940053F832300BB1984708BD014602480CF0B2
:1010A400A1F9F9E710070020D8E6010870B5064653
:1010B4000D461446FFF732FF054941F8356001EB50
:1010C400C5010A7914430C71FFF72FFF70BD00BFEF
:1010D40010070020EFF30980FFF7D4BF72B6EFF3D7
:1010E4000980EFF3088100281EF0040F0CBFEFF312
:1010F4000883EFF309830CBF00220122002868B1A2
:10110400A3F1200383E8F00F1EF0040F0CBF19466F
:1011140018460CBF83F3088883F30988DFF8783016
:101124009847D0E90012836813F0010F0CBF1046F2
:10113400084690E8F00F203082F3088881F309888C
:10114400022B1FD013F4803F0BD1012B00D019E0E8
:1011540080F309884FF0010181F314886FF0020EC7
:1011640018E013F0020F04D14FF0030181F3148847
:1011740003E04FF0000181F3148880F308886FF0D6
:101184000E0E07E080F308886FF0060E4FF00000A3
:1011940080F3148862B670476DD7000808B500F074
:1011A40093FA08BD38B50C46084D0023C5F8B03194
:1011B400800040F0020000F0FE00FFF7EFFF204641
:1011C400FFF7ECFF0123C5F8B03138BD00802142A0
:1011D40010B5084C0023C4F8B031800000F0FC00C6
:1011E400FFF7DCFFFF20FFF7D9FF0123C4F8B0317C
:1011F40010BD00BF0080214200B583B0012118203A
:1012040001F0BEF80121084601F0BAF84FF480530A
:10121400ADF8043010238DF8073003238DF8063021
:1012240001A9064801F008F8054B0122C3F8B021D2
:1012340000F004FA03B05DF804FB00BF000C0140A9
:101244000080214208B510B101280BD008BD21B19E
:101254000B210420FFF7A6FFF8E708210420FFF77D
:10126400A1FFF3E721B10B210C20FFF79BFFEDE772
:1012740008210C20FFF796FFE8E738B54FF4E13377
:1012840093FBF1F1C1F30725CCB210B101280DD0C5
:1012940038BD80210320FFF785FF21460020FFF79A
:1012A40081FF29460120FFF77DFFF1E780210B2014
:1012B400FFF778FF21460820FFF774FF294609202D
:1012C400FFF770FFE4E708B5202912D0302912D0C7
:1012D40010290CD0002182B1012A11D0012B15D084
:1012E400022B18D07BB1D8B101281ED008BD012132
:1012F400F1E70221EFE70321EDE721F00401EDE737
:1013040041F00401EAE721F00801ECE721F03001A3
:1013140041F00801E7E721F0200141F01801E2E77C
:10132400C9B20320FFF73EFFE0E7C9B20B20FFF785
:1013340039FFDBE730B585B0142000F0F5F9FFF78D
:101344005BFF80210120FFF72DFF142000F0ECF952
:1013540080210320FFF726FF0C210020FFF722FF46
:1013640000210120FFF71EFF01210220FFF71AFFD1
:1013740003210846FFF716FF01210846FFF712FF75
:1013840008210420FFF70EFF80210920FFF70AFF40
:10139400142000F0C9F980210B20FFF703FF01217D
:1013A4000820FFF7FFFE00210920FFF7FBFE0121C3
:1013B4000A20FFF7F7FE03210B20FFF7F3FE0121BC
:1013C4000920FFF7EFFE08210C20FFF7EBFE1420A5
:1013D40000F0AAF90220FFF7FBFE0A20FFF7F8FE4F
:1013E4004024ADF8004048238DF80330144D69467D
:1013F400284600F021FF2146284600F07DFF062103
:10140400022000F07BFF019400258DF808500C2386
:101414008DF8093001248DF80A4001A800F0C8FDB8
:1014240017238DF80C3002238DF80D308DF80E50F3
:101434008DF80F4003A800F0A3FC204605B030BD92
:101444000010014038B504460D4671B10520FFF780
:10145400BFFE10F0200FF9D014F8011B0020FFF795
:10146400A1FE6B1E13F0FF05F0D138BD38B504465C
:101474000D4671B10D20FFF7ABFE10F0200FF9D02F
:1014840014F8011B0820FFF78DFE6B1E13F0FF05F7
:10149400F0D138BD70B506460520FFF799FE10F06F
:1014A4001E0414D10520FFF793FE10F0010FF9D0AC
:1014B4000020FFF78DFE307001360134E4B20520C0
:1014C400FFF786FE10F0010FF2D1204670BD002018
:1014D400FFF77EFE0024F8E770B506460D20FFF7FF
:1014E40077FE10F01E0414D10D20FFF771FE10F0EA
:1014F400010FF9D00820FFF76BFE3070013601347C
:10150400E4B20D20FFF764FE10F0010FF2D1204683
:1015140070BD0820FFF75CFE0024F8E710B5022038
:10152400FFF756FE10F0010F35D100F03F030C2BEE
:1015340031D8DFE803F00730303022302D3030303E
:1015440030303F000620FFF743FE044601460020EA
:10155400FFF728FE302C1ED0112C09D0222C1AD1D2
:101564000020FFF735FE01460020FFF71BFE12E0C6
:10157400AA210020FFF716FE0DE02248FFF78AFF9C
:10158400214B1B683BB182B21E490020984702E000
:101594000520FFF71DFE0A20FFF71AFE00F03F03A7
:1015A40010F0010F05D1062B1CD00C2B1ED0042BE0
:1015B4000CD010BD1348FFF76DFF134B1B68002BB5
:1015C400E9D082B20F4900209847E4E70F48FFF7BB
:1015D40083FF0F4B1B68002BEBD082B20B49012019
:1015E4009847E6E70D20FFF7F3FDE2E70748FFF72A
:1015F40073FF074B1B68002BDBD082B20349012029
:101604009847D6E7F0080020E808002010090020D9
:10161400EC08002008B5402000F010FD10B908BD0A
:10162400FFF77CFF4021044800F05FFE0028F7D05C
:10163400402000F013FDF2E70010014030B587B000
:101644000121092000F09CFE01214FF4804000F0AC
:10165400A5FE4FF46045ADF8145018238DF81730EB
:1016640003238DF81630174C05A9204600F0E4FD3D
:101674002946204600F040FE0023ADF800304FF428
:101684008272ADF80220ADF80430ADF80630ADF842
:1016940008304FF40072ADF80A201022ADF80C2087
:1016A400ADF80E300723ADF81030A4F55444694664
:1016B400204600F07FFF0121204600F0A2FF07B082
:1016C40030BD00BF000C014038B50546002402219E
:1016D4000F4800F0A9FF034620B90134E4B2C82C36
:1016E400F5D913E029460A4800F099FF00240121A6
:1016F400074800F099FF034620B90134E4B2C82C2E
:10170400F5D903E0024800F08CFFC3B2184638BD97
:10171400003800400138FDD1704708B500EB4000A7
:101724008000FFF7F7FF08BD08B54FF47A7303FB99
:1017340000F0FFF7F2FF08BD4FF0C843A3F8FE0026
:10174400B3F8000180B270474FF0C843A3F8FE001D
:10175400A3F80011704710B50C4640F040010C206E
:10176400FFF7F2FFE1B20D20FFF7EEFF210A0E2092
:10177400FFF7EAFF0A210B20FFF7E6FF3220FFF70D
:10178400D3FF00210B20FFF7DFFF10BD10B5282089
:10179400FFF7D2FF04462920FFF7CEFF44EA0024D6
:1017A4002A20FFF7C9FF44EA00442B20FFF7C4FFB7
:1017B40044EA006010BD10B500210C46082809D881
:1017C400DFE800F022140808051808081D00412469
:1017D4004FF480710020FFF7BEFF21460420FFF77D
:1017E400BAFF00211F20FFF7AFFF10BD81244FF483
:1017F4000051EFE740F201144FF40451EAE740F2DC
:10180400E1144FF48051E5E721240021E2E738B5E3
:101814000546002406E0295D04F11000FFF794FF5B
:101824000134E4B2052CF6D938BD38B50546002498
:1018340006E0295D04F11600FFF786FF0134E4B2E7
:10184400072CF6D938BD000070B51A4E0024C6F82E
:10185400A0410A20FFF768FF0125C6F8A0516420C3
:10186400FFF762FF29461E20FFF76EFF21461F2067
:10187400FFF76AFF03212046FFF766FF1920FFF7F1
:1018840053FF0020FFF758FF10F0010FF6D100219D
:101894000846FFF759FF03210020FFF755FF1920E1
:1018A400FFF742FF0020FFF747FF10F0010FF6D1CA
:1018B40070BD00BF0000244238B504466E4B5A691F
:1018C40042F480725A619A6942F020029A619A69DC
:1018D40042F040029A619A6942F080029A619A69E0
:1018E40042F480729A61654A536865491940654BB0
:1018F4000B435360536803F0FF2343F0BB1313609F
:1019040002F5806253684FF0BB335360136823F0D1
:10191400704343F03043136002F58062536823F44C
:10192400700323F4704343F4300343F400435360DF
:1019340055494B6823F0FF0343F0B3034B60D3686E
:1019440043F40063D36001220B21052000F05EFF05
:10195400022328220121002000F032FF0022292145
:101964004A48FFF7A3FB4FF0204300229A60DA6055
:101974004748C260996841F480519960996841F080
:1019840010019960D96841F44071D960D968D9606F
:10199400D96841F00101D9606FF07041C160996864
:1019A40041F0010199603B4BD3F8E8173A4B08200A
:1019B40018705A8081205870022018715A719A71D7
:1019C4000A0CDA710A0A1A725972FF229A72DA72CE
:1019D4001A735A739A73DA731A745A74FFF734FFCA
:1019E4009620FFF7A1FEFFF7D1FE2C4B984241D180
:1019F4000CB920463FE0284C254615F8040BFFF7A8
:101A0400DAFE00210846FFF79FFE00210220FFF7BF
:101A14009BFE3F210820FFF797FE38210920FFF79E
:101A240093FE00210A20FFF78FFE00212F20FFF7ED
:101A34008BFE2C210120FFF787FE0F21FE20FFF7EC
:101A440083FE80212D20FFF77FFE2846FFF7DFFE6F
:101A540004F10A00FFF7E9FE31210520FFF774FEC7
:101A64008021FF20FFF770FE6178FF20FFF76CFEF6
:101A7400002000E0012038BD0010024000140140A5
:101A840000F0FF00BB0B00BB00200140451D000817
:101A9400000100A000F0FF1F30090020460A00905A
:101AA40010B582B004464FF0FF31324B18680BF08A
:101AB4001DFB8021FF20FFF747FE4FF0C843F822AB
:101AC400A3F8FE20234600210A460EE09DF80510E7
:101AD4009DF8042042EA01224FF0C841A1F80021F8
:101AE4000246002101E01B680022BBB1B3F80AC022
:101AF4009445F8D9501C80B201F1010C5FFA8CFCBA
:101B0400D3F804E01EF802200831694401F8042CDB
:101B1400BCF1020FDAD061460246E6E7012921D082
:101B2400217AFC20FFF710FE2189090AFD20FFF726
:101B34000BFE01210220FFF707FEFE20FFF7FCFD4C
:101B440010F0020FF9D00221FE20FFF7FDFD0A4B31
:101B54005978FF20FFF7F8FD064B18680BF00CFBD3
:101B640002B010BD9DF804204FF0C843A3F8002133
:101B7400D6E700BF480900203009002010B582B024
:101B84004FF0FF31564B18680BF0B0FA51E055484E
:101B94000BF028FC00210520FFF7D6FD8021FE2054
:101BA400FFF7D2FD4E4B18680BF0E6FA002493E0E1
:101BB4004FF0C841B1F8001122F8021B023B002B80
:101BC400F6DC006848B142684389F8E74FF0C84240
:101BD400B2F80021023B002BF8D1BDF8063013F413
:101BE4003F4F0AD1BDF804309BB23F2B05D9BDF855
:101BF40004309BB2B3F5C06F6AD93B480BF0F2FBDB
:101C0400BDF8063013F4807F40D1BDF8063013F4DC
:101C1400007F3FD1BDF8063013F4004F3ED1BDF82C
:101C240004309BB2B3F5C06F3CD814B1204616F013
:101C34008BFEF020FFF780FD4FF0C843B3F800316E
:101C4400DBB2002B39D0012BA1D84FF0C843F222CC
:101C5400A3F8FE20B3F8002192B2ADF80620B3F841
:101C640000319BB2ADF80430BDF804104FF4C172DA
:101C740089B2002016F0D0FE04460028A2D11B48E9
:101C84000BF0B0FBBDF804309BB2A4E718480BF08E
:101C9400A9FBBAE717480BF0A5FBBBE716480BF006
:101CA400A1FBBCE715480BF09DFB01210020FFF7C9
:101CB4004BFD0520FFF738FDB7E70221FE20FFF7B3
:101CC40043FD81210E4B5970FF20FFF73DFD002499
:101CD400034B18680BF050FA204602B010BD00BF49
:101CE40048090020E8E6010820E701080CE701089C
:101CF4002CE701083CE701084CE7010860E701080C
:101D04003009002038B54FF0C843B3F8FE50ADB2E7
:101D1400FE20FFF711FD04460146FE20FFF714FDE7
:101D240014F0010F04D14FF0C843A3F8FE5038BD9E
:101D3400024B18680BF0DEFAF5E700BF44090020F7
:101D440008B54FF4006000F079F900B908BD4FF40C
:101D5400006000F083F901E0FFF7D4FF024BD3F8F1
:101D64002C31002BF8D0F1E70080234240F0BF6013
:101D740040F40030014BD860704700BF00ED00E034
:101D8400C378FBB1154BDA68D243C2F30222C2F125
:101D9400040C0F2323FA02F2417801FA0CF1837840
:101DA40013400B431B010278DBB20D490A4482F84D
:101DB4000033037803F01F005B090122824041F8DD
:101DC40023207047037803F01F015B0901228A4036
:101DD4002033034941F82320704700BF00ED00E0A1
:101DE40000E100E008B5012000F0E6FA002000F070
:101DF400E3FA08BD82B000230193044B0193019BD5
:101E040018440190019B196002B07047006C0040B7
:101E140082B000230193054B0193019B1844019068
:101E2400019B188880B202B0704700BF006C00406C
:101E3400036823F001031B041B0C036000230360ED
:101E440043608360C360364B984221D0354B98423F
:101E540024D0354B984227D0344B98422AD0344B67
:101E640098422DD0334B984230D0334B984233D0E4
:101E7400324B984236D0324B984239D0314B98424B
:101E84003CD0314B98423FD0304B984242D07047BF
:101E94002F4A536843F00F03536070472C4A53682A
:101EA40043F0F00353607047294A536843F4706366
:101EB40053607047264A536843F470435360704735
:101EC400234A536843F4702353607047204A53688D
:101ED40043F47003536070471D4A536843F07063C2
:101EE400536070471B4A536843F00F0353607047B5
:101EF400184A536843F0F00353607047154A536817
:101F040043F4706353607047124A536843F4704358
:101F1400536070470F4A536843F470235360B6E725
:101F2400080002401C00024030000240440002400D
:101F3400580002406C000240800002400804024045
:101F44001C0402403004024044040240580402408D
:101F5400000002400004024010B4026822F4FF4270
:101F640022F070028B680C6A23430C6923434C698A
:101F740023438C692343CC6923434C6A23438C6AEF
:101F8400234313430360CB6843600B6883604B684F
:101F9400C36010BC704721B1036843F001030360C0
:101FA4007047036823F001031B041B0C0360704794
:101FB4008379002B35D010B41F4B1A68016822EACC
:101FC40001021A605A68016822EA01025A60027921
:101FD40002F1804202F582321168046821431160E3
:101FE4009A68016822EA01029A60DA68016822EAC2
:101FF4000102DA604379102B09D003F1804303F521
:1020040082331A6801680A431A6010BC70470A4B8D
:102014009A6801680A439A60DA6801680A43DA60D8
:10202400F3E7037903F1804303F582331A68016807
:1020340022EA01021A60704700040140064A13684C
:1020440003405269024202D01BB9002070470020AD
:1020540070470120704700BF00040140014B5861E4
:10206400704700BF00040140014BD860704700BFB7
:10207400002002400B4BDB6813F0010F0BD1094B1E
:10208400DB6813F0040F08D1064BDB6813F0100F64
:1020940005D00320704701207047022070470420B8
:1020A400704700BF0020024010B50446FFF7E2FF6E
:1020B40002E0FFF7DFFF013C012801D1002CF8D139
:1020C40004B110BD0520FCE738B504464FF43020B8
:1020D400FFF7EAFF042800D038BD0A4D2B6943F00E
:1020E40002032B616C612B6943F040032B614FF4B5
:1020F4003020FFF7D9FF2B6923F00203DB04DB0C4C
:102104002B61E9E70020024070B504460D464FF408
:102114000050FFF7C9FF042800D070BD084E336992
:1021240043F00103336125804FF40050FFF7BCFFF7
:10213400336923F00103DB04DB0C3361EDE700BFFB
:1021440000200240436882681343C2681343026953
:1021540013434269134382691343C2691343026AF6
:102164001343426A1343826A1343C26A1343026BE2
:10217400016813434FF0204242F821308368082B52
:1021840025D0426B1368516843EA0113916843EA0E
:102194000123D16843EA0143116943EA01535169B8
:1021A40043EA01639169026801320B434FF0204115
:1021B40041F82230C36AB3F5804F10D003689B0006
:1021C40003F120436FF07042C3F8042170470168A3
:1021D40052F8213043F0400342F82130D1E7826BBA
:1021E4001368516843EA0113916843EA01231169B2
:1021F40043EA0153516943EA0163916902680B435D
:10220400920002F12042C2F80431704741B14FF00C
:10221400204252F8203043F0010342F82030704746
:102224004FF0204252F82010024B0B4042F820306D
:10223400704700BFFEFF0F0030B5CB7803F00F02EC
:10224400964613F0100F03D091F802E04EEA020E06
:102254000B7803B30468002301E042610133072BC8
:1022640018D801229A40B1F800C032EA0C05F5D121
:102274004FEA830C0F2505FA0CF524EA05040EFA3F
:102284000CFC4CEA0404CD78282DE6D0482DE5D189
:102294000261E3E704600B88FF2B25D9446800231F
:1022A40003E0CD78482D1CD00133072B1BD803F154
:1022B400080C012202FA0CF2B1F800C032EA0C0553
:1022C400F2D14FEA830C0F2505FA0CF524EA050434
:1022D4000EFA0CFC4CEA0404CD78282DE1D14261BD
:1022E400DFE70261E0E7446030BD8368194201D052
:1022F40001207047002070470161704710B401F05D
:10230400030292000F2404FA02FC8908074B0231ED
:1023140053F8214024EA0C0443F8214053F82140A7
:102324009040044343F8214010BC70470000014032
:10233400014B1862704700BF00000E42014BC3F806
:102344008004704700004242024A136A0343136246
:10235400704700BF00100240014BC3F83C047047B3
:102364000000424221B1054A536918435061704745
:10237400024A536923EA000050617047001002408A
:1023840021B1054A9369184390617047024A9369E1
:1023940023EA0000906170470010024021B1054A11
:1023A400D3691843D0617047024AD36923EA000015
:1023B400D061704700100240014BC3F840047047DD
:1023C400000042424309012B0CD0022B0DD0094BD3
:1023D4005A6A00F01F00012303FA00F0104207D0EC
:1023E40018467047034B1A68F3E7024B1A6AF0E782
:1023F400002070470010024029B1064A13889BB29E
:10240400184310807047034B1A88C04380B21040B1
:102414001880704700280040034A93889BB243F019
:1024240010039380704700BF00280040034A93883C
:102434009BB223F010039BB29380704700280040A6
:1024440010B50446FFF7E8FFC4F30342034B1A81B7
:10245400A4B29C81FFF7EAFF10BD00BF0028004032
:10246400024B9B8813F0200FFAD0704700280040DD
:10247400064A93889BB223F008039BB29380034BD4
:102484009B8813F0080FFAD0704700BF0028004063
:10249400064B00221A605A609A60DA605A629A62A5
:1024A400DA6203499963DA63704700BF0080014030
:1024B400FF07C00010B40A494A6822F4FD4222F022
:1024C4007F02037D8468234344682343C468234311
:1024D400046823430069034313434B6010BC7047F3
:1024E40000800140014BC3F8A00070470000304257
:1024F400044B196821F0030119601A6802431A6039
:10250400704700BF00800140024B186800F00300D0
:10251400704700BF00800140014BC3F88C05704731
:102524000000304210B4036808498B60CA6822F482
:10253400FF6222F00702436884682343C46823438C
:10254400006903431343CB6010BC70470080014013
:1025540010B40368084A536243689362D16A21F055
:10256400F7018368C4682343046923434069034330
:102574000B43D36210BC704700800140014BD3F879
:102584008000704700800140014BC3F88000704711
:1025940000800140034B5B6B034201D00120704774
:1025A4000020704700800140014B9863704700BFD2
:1025B400008001402DE9F041038803F441520F8863
:1025C400B1F802808E88CD880C89B1F80AE0B1F8A0
:1025D4000CC0CB8947EA08073E4335432C434EEAF7
:1025E400040E4CEA0E0C43EA0C0313430380838B62
:1025F4009BB223F400639BB283830B8A0382BDE8FE
:10260400F08129B103889BB243F0400303807047F3
:1026140003889BB223F040039BB2038070478181FF
:102624007047808980B270470389194201D0012024
:10263400704700207047000003889BB2214A9042F3
:1026440012D002F5006290420ED0B0F1804F0BD050
:10265400A2F59832904207D002F58062904203D0EE
:1026640002F58062904203D123F070034A88134339
:10267400154A904208D002F58062904204D023F4B7
:1026840040739BB2CA88134303808B8883850B886D
:1026940003850C4B98420FD003F5006398420BD08E
:1026A40003F54063984207D003F58063984203D052
:1026B40003F58063984201D10B7A03860123838258
:1026C400704700BF002C01400010004029B103886E
:1026D4009BB243F001030380704703889BB223F04D
:1026E40001039BB20380704722B183899BB21943D3
:1026F400818170478389C94389B2194081817047B8
:10270400028A83890B40114202D01BB90020704712
:102714000020704701207047C94389B20182704785
:102724007047000010B5114911480AF05BFE114CC6
:1027340094F8281010480AF055FE94F829100F4810
:102744000AF050FE618D0E480AF04CFE4FF0E02373
:10275400D3F82C1D0B480AF045FE94F830100A48B3
:102764000AF040FE09480AF03DFEFEE70CE80108C5
:1027740074E7010800ED00E0A0E70108ACE70108F8
:10278400B8E70108C4E70108D4E70108E0E7010855
:10279400FEE7FEE7FEE77047C3431B0203F4E06372
:1027A4000649CA6822F4E0621204120C42F0BF62C5
:1027B40042F400321343CB60704700BF00ED00E0E9
:1027C400F8B506460C4615461F461846FFF7E4FFC3
:1027D400C7F1040086400F2343FA07F73C40344313
:1027E4001C406809084B53F8202005F01F060121FE
:1027F400B1400A4343F820202B4493F8002342EAD3
:10280400041483F80043F8BD00E100E030B58B0800
:1028140001F0030C4FEA8C0C164DAC6944F0010432
:10282400AC61154C023354F823504FF00F0E0EFADE
:102834000CFE25EA0E0544F8235054F8235000FA00
:102844000CF0054344F8235004F580642068012308
:1028540003FA01F10843206012F0010F02D0E3688B
:102864000B43E36012F0020F03D0044B9A68114348
:10287400996030BD00100240000001400004014096
:1028840082B00023019300932C4A136843F48033ED
:1028940013602A4B1B6803F400330093019B01333C
:1028A4000193009B1BB9019BB3F5A06FF1D1234B9E
:1028B4001B6813F4003F06D001230093009B012BF7
:1028C40004D002B0704700230093F7E71C4B1A684A
:1028D40042F010021A601A6822F003021A601A68A1
:1028E40042F002021A60A3F580535A685A605A688B
:1028F4005A605A6842F480625A605A6822F47C1220
:102904005A605A6842F4E8125A601A6842F08072B7
:102914001A600A4B1B6813F0007FFAD0074B5A6801
:1029240022F003025A605A6842F002025A60034BD2
:102934005B6803F00C03082BF9D1C2E700100240D6
:102944000020024008B5FFF79BFF08BD08B5104BF7
:102954001A6842F001021A6059680E4A0A405A6025
:102964001A6822F0847222F480321A601A6822F4FF
:1029740080221A605A6822F4FE025A604FF41F0241
:102984009A60FFF7DFFF044B4FF000629A6008BDC6
:10299400001002400000FFF800ED00E008B5024816
:1029A4001BF0ACF908BD00BF4C09002010B54FF076
:1029B400C00C80F806C0A821C171032202724FF036
:1029C400010E80F809E0104B1C7904705C794470A6
:1029D4009C798470DC79C4701C7A04715B7A4371CD
:1029E40080F80AC0C172027378234373FF23837390
:1029F400C37303740023437480F812C0C174027556
:102A040080F815E0837510BD3009002008B5054B2A
:102A140018680EF00BFA044B186008B1002008BDCA
:102A24000120FCE774B3030800E8002008B5012185
:102A340000200AF0DFFB074B18600AF04DFB064B41
:102A440018600120FEF738FF00B908BD4FF0FF30D1
:102A5400FBE700BF440900204809002030B589B0D5
:102A6400FFF7D4FF18B10125284609B030BD05464B
:102A74000021084612F0EEFB464C2046FFF796FF75
:102A8400A27AE37A1B0443EA0263227B43EA022329
:102A9400617B0B431A0202F47F0242EA0162190AC3
:102AA40001F47F410A4342EA13630793A27BE37B69
:102AB4001B0443EA0263227C43EA0223617C0B4346
:102AC4001A0202F47F0242EA0162190A01F47F4108
:102AD4000A4342EA13630693A27CE37C1B0443EAA1
:102AE4000263227D43EA0223617D0B431A0202F44E
:102AF4007F0242EA0162190A01F47F410A4342EA71
:102B040013630593E378227961790291019200932A
:102B1400A3786278217820480AF064FC637B0093F0
:102B2400237BE27AA17A1D480AF05CFC637C009363
:102B3400237CE27BA17B1A480AF054FC637D00935A
:102B4400237DE27CA17C17480AF04CFC164B0293CF
:102B5400164B01930023009305AB06AA07A914485A
:102B640015F01CFD30B1124C204615F0A7FD20468F
:102B740015F0AAFD0F4B049304A9002013F0ACFB3D
:102B8400062300934FF4006300220B490B480EF018
:102B9400ABFB69E77C09002020E8010858E801083C
:102BA40088E80108B8E801081152010835DD010878
:102BB4004C090020DF050505A1290008E8E8010803
:102BC400104B9B8813F0010F02D00F4B00221A60A8
:102BD4000C4B9B8813F0020F06D00A4A93889BB2D1
:102BE40023F002039BB29380064A938823F00503E3
:102BF4001B051B0D9380034B9B8813F0200FFAD009
:102C0400704700BF00280040640C002010F0030F40
:102C140014D10D4BA3FB00235B09642202FB1303B5
:102C24009BB26BB9084BA3FB0023DB094FF4C872BA
:102C340002FB130080B228B90120704700207047BE
:102C440001207047002070471F85EB512DE9F047A4
:102C540098469DF82070A0F2B2739BB2812B6ED877
:102C640006468A469146002440F2B27507E004F114
:102C7400F07404F5993404F5C0740135ADB2B5426D
:102C840009D22846FFF7C2FF0028F0D004F1F174FE
:102C940004F50544F1E70AF1FF3A5FFA8AFA0025E0
:102CA40001E00135ADB21FFA8AF3AB4210D9254BCE
:102CB4005B5D254A02FB03443046FFF7A7FF00286B
:102CC400EFD0012DEDD104F5A83404F5C074E8E784
:102CD40009F1FF391C4B03FB09444FF4616303FB07
:102CE4000844C7EB071704EB87049DF824301C4401
:102CF400164BDA6942F08052DA61DA6942F0006216
:102D0400DA61134A136843F480731360A2F59042A6
:102D140093889BB243F010039380A3B29383240C53
:102D2400148393889BB223F010039BB29380094BC6
:102D34009B8813F0200FFAD00020BDE8F0874FF0F5
:102D4400FF30FAE7F8E80108805101000010024062
:102D5400007000400028004010B584B001214FF0FD
:102D6400C050FFF71BFB0120FFF7E2FA0120FFF739
:102D7400E5FA0420FFF74CF845F2500398423DD0A1
:102D8400FFF730F8002404E00134E4B20A20FEF72F
:102D9400CBFC6120FFF716FB0028F5D0F92C01D9F4
:102DA400012047E04FF40070FFF7CEFA0120FFF74F
:102DB400D3FAFFF755FBFFF75BFB01210846FFF74A
:102DC4001BFBFFF74DFBFFF727FB49F64040FFF7DE
:102DD40037FBFFF745FB00230193122300930D23D8
:102DE4001B22022140F2E670FFF730FFFFF71EFBC3
:102DF40045F250010420FEF7FDFF07E0FFF738FB22
:102E040001210846FFF7F8FAFFF72AFB0022042104
:102E14000948FEF74BF903238DF80C3001238DF894
:102E24000D3000248DF80E408DF80F3003A8FEF706
:102E3400A7FF204604B010BDC52B0008124BDA6969
:102E440042F08052DA61DA6942F00062DA610F4AD4
:102E5400136843F480731360A2F5904293889BB285
:102E640043F01003938083B29383000C1083938800
:102E74009BB223F010039BB29380054B9B8813F005
:102E8400200FFAD0704700BF0010024000700040CD
:102E940000280040034B188B9B8B9BB203EB004034
:102EA400704700BF00280040054B1B68B3F57A7FCC
:102EB40002D8034B186870474FF47A70704700BF0C
:102EC400640C0020034A536823F0FF031843506046
:102ED400704700BF0080014070B40346964A1478DE
:102EE40080F85640954A1288A0F8542094490A68FC
:102EF400900F1870C2F383605870C2F30160987029
:102F0400C2F30740D870C2F3072018715A714A6897
:102F1400110E0901D980C2F303500143D980C2F3D1
:102F240003401872110AC2F3072CC2F3C0355D7254
:102F3400C2F380359D72C2F34035DD72C2F30035B1
:102F44001D7300255D73012C1CD9032C1AD0022C8F
:102F540055D1120402F47C121A6179498868010E71
:102F640042EA01221A61C0F307410A431A61C0F31D
:102F7400072C0132510BD2049A64D9644FF40072C5
:102F84001A653CE0890201F440611961920002F47F
:102F94007F72114319616A4A946841EA9471196114
:102FA400C4F3C2621A75C4F302625A75220CC4F3E4
:102FB40042559D75C4F38245DD75520002F0060248
:102FC4001A76C4F3072CC4F3C03422431A760131B1
:102FD40099640024DC640232012404FA02F2D61754
:102FE400A1FB022501FB06559A64DD6404FA00F096
:102FF4001865A2FB001200FB05209964D864CCF389
:1030040080125A764FEA4C0C0CF07E0C83F81AC0EE
:103014004B490A7A4CEAD21C83F81AC002F07F02A8
:10302400DA76CA68110ED00F1877C2F34170587758
:10303400C2F382609877890001F00C01D977C2F35A
:1030440081500143D977C2F3405183F82010002006
:1030540083F82100C2F3004183F82210C2F3C03187
:1030640083F82310C2F3803183F82410C2F3403173
:1030740083F82510C2F3003183F82610C2F38121AE
:1030840083F82710C2F3012183F82810C2F3460203
:1030940083F82920012183F82A102A4D2A68140E66
:1030A40083F82C40C2F307442402DC85C2F30726CC
:1030B4003443DC8512061A636E68340E42EA044215
:1030C4001A63340C2402A4B222431A63C6F30724FD
:1030D40022431A6383F83460AC68220E83F83520E7
:1030E400220C12069A634FEA142C4FEA0C4C0CF48F
:1030F4007F0C42EA0C029A632402A4B222439A632C
:10310400EC6842EA14629A63220CC4F3035593F800
:103114003C60354383F83C50120202F47062DA8753
:10312400C4F307252A43DA87C4F3460483F84040EE
:1031340083F8411070BC7047B4090020B80900201E
:10314400A409002094090020012803D8024B187018
:1031540000207047262070470400002010B54FF46B
:1031640080342346013C23B18020FFF713FA002862
:10317400F7D02CB140F2FF50FFF716FA002010BD33
:103184000320FCE708B54FF480331946013B21B115
:103194000B4A526B12F0450FF7D03BB112F0040FFB
:1031A40004D112F0400F06D1002008BD0420FFF71F
:1031B400FBF90320F9E74020FFF7F6F90020F4E7D4
:1031C4000080014010B50446124B5B6B13F0450FB1
:1031D400FAD00420FFF7DEF978B90120FFF7DAF915
:1031E40080B90C4B1B69A34211D10A4B40F2FF5228
:1031F4009A63586900F0080010BD0420FFF7D4F961
:103204000320F9E70120FFF7CFF90120F4E71020AC
:10321400F2E700BF0080014010B5094B1860072495
:103224005C6040229A600022DA604FF480621A6186
:103234001846FFF777F92046FFF7C4FF10BD00BF1B
:10324400180A002010B5484B5B6B13F4807F2BD019
:10325400464B1B78012B14D0454B00221A70424A6E
:10326400936B43F480739363D36B23F4434323F04E
:103274003A03D3633F4B01221A703D4B1878C0B216
:1032840010BD3D48002303600C244460402282604A
:10329400C3604FF480630361FFF744F92046FFF7EE
:1032A40091FF334B1870DAE70220FFF773F910BB74
:1032B4000820FFF76FF960BB2020FFF76BF90028A7
:1032C40035D11020FFF766F900283ED14FF4007085
:1032D400FFF760F90028D3D04FF40070FFF764F9CA
:1032E400214AD36B23F4434323F03A03D3630720E7
:1032F4001F4B1870C4E70220FFF756F91A4AD36B24
:1033040023F4434323F03A03D3630220184B187089
:10331400B6E70820FFF748F9134AD36B23F4434375
:1033240023F03A03D3630420114B1870A8E720203C
:10333400FFF73AF90C4AD36B23F4434323F03A03DF
:10334400D36306200A4B18709AE71020FFF72CF974
:10335400054AD36B23F4434323F03A03D363052094
:10336400034B18708CE700BF008001405C0C002008
:103374005E0C00205D0C0020180A002008B5FFF741
:1033840061FF08BD10B50A4B5B6B13F0450FFAD013
:103394000420FFF7FFF8044628B940F2FF50FFF776
:1033A40003F9204610BD0420FFF7FEF80324F8E7D4
:1033B4000080014070B56248B223037500240460A4
:1033C40044608460C4600461FFF774F80320FFF76D
:1033D4008FF80120FFF786F82346492C11D8594865
:1033E4000023036043608360C3604FF48063036120
:1033F400FFF798F8FFF7B2FE034610B10134E4B2C8
:10340400EBE70BB1184670BD4E484FF4D57303601B
:1034140008234360402383600023C3604FF4806328
:103424000361FFF77FF8FFF7ADFE002836D1464B66
:1034340001221A704FF0804642480023036037246B
:10344400446040228260C3604FF480630361FFF7ED
:1034540069F82046FFF7B6FE034608B30022144677
:10346400002A61D14FF6FE7294425DD83548374B3D
:10347400036001234360402383600023C3604FF44F
:1034840080630361FFF74EF8FFF77CFF03460028D3
:10349400B8D12F4A5269D20F0134E1E70026CBE7B5
:1034A400002214461146002A32D14FF6FE7294428D
:1034B4002ED82448002303603725456040228260CB
:1034C400C3604FF480630361FFF72CF82846FFF7CD
:1034D40079FE0346002895D146F0004343F4801357
:1034E4001848036029234360402383600023C3609A
:1034F4004FF480630361FFF715F8FFF743FF0346BA
:1035040000287FF47FAF124A5169CA0F0134CAE719
:103514004FF6FE7294420FD811F0804F3FF472AF11
:10352400094A022111706DE74FF6FE72944205D8E4
:10353400054A0321117065E71B2363E71B2361E739
:10354400440C0020180A0020B40900200080FF80E9
:103554000080014010B54FF480331946013B21B17E
:103564000E4A526B12F0450FF7D06BB112F0040FF4
:103574000AD10120FFF70EF8044650B940F2FF507B
:10358400FFF712F8204610BD0420FFF70DF80324BE
:10359400F8E70120FFF708F80124EFE70080014075
:1035A40070B505460E461D4B5B6B13F0450FFAD004
:1035B4000420FEF7EFFF58B90120FEF7EBFF0446A5
:1035C40058B9164B1B69AB420CD01024204670BD71
:1035D4000420FEF7E9FF0324F8E70120FEF7E4FFE7
:1035E4000124F3E740F2FF50FEF7DEFF0B4B5B696B
:1035F40013F4604F0AD013F4005F0AD113F4804F20
:1036040009D113F4004FE1D00F24DFE71B0C338002
:10361400DCE71324DAE71024D8E700BF0080014078
:1036240010B582B00123ADF80630FEF76DFF002817
:1036340000F08180414B1B78042B27D13F4B1B7832
:10364400012B03D9062B01D0022B13D13C480023B4
:1036540003600324446040228260C3604FF48063AB
:103664000361FEF75FFF0DF106012046FFF798FFA7
:10367400034640B9314B1B78032B24D02F4B1B78C6
:10368400042B36D10023184602B010BD2C48002369
:10369400036002224260C0228260C3604FF48063F0
:1036A4000361FEF73FFFFFF755FF03460028EAD109
:1036B400244A5169244B196091695960D169996010
:1036C400126ADA60BAE7BDF806301B041C480360CE
:1036D40003234360402383600023C3604FF480636B
:1036E4000361FEF71FFFFFF735FF03460028C5D02F
:1036F400C9E7BDF80630154A13601B04104803607F
:1037040009234360C02383600023C3604FF48063B4
:103714000361FEF707FFFFF71DFF03460028B2D140
:10372400084948690A4A106088695060C86990600D
:10373400096AD160A7E72523A5E700BFB4090020E3
:10374400180A00200080014094090020B8090020D4
:10375400A409002030B583B00446002301930093EC
:10376400204A12681204204802600D22426040225E
:103774008260C3604FF480630361FEF7D3FE1B4B8A
:103784005B6B009302E0194B5B6B0093009B13F09F
:10379400450FF8D00120FEF7FDFE50B90420FEF7D6
:1037A400F9FE054660B9114B1B690D2B0DD0102590
:1037B40003E00120FEF7F8FE0125284603B030BDE2
:1037C4000420FEF7F1FE0325F7E740F2FF50FEF771
:1037D400EBFE064B5B690193019BC3F34323237008
:1037E400EBE700BFB8090020180A00200080014060
:1037F40070B582B00C46002300930193524808220E
:1038040002601025456040228260C3604FF48063EB
:103814000361FEF787FE2846FFF7D4FC054610B186
:10382400284602B070BD494B1B681B044648036020
:1038340037254560402383600023C3604FF48063D1
:103844000361FEF76FFE2846FFF7BCFC054600281F
:10385400E6D13F484FF0FF33036008234360302331
:1038640083600223C3600025056101234361FEF7E1
:103874006FFE354805603326466040238360C5608B
:103884004FF480630361FEF74DFE3046FFF79AFC68
:1038940005460028C4D100262E4B5A6B40F22A63F9
:1038A4001A420CD14FF40010FEF774FE0028F3D036
:1038B400FEF764FE4DF826000136012EECD90820EF
:1038C400FEF768FE58BB0220FEF764FE60BB2020B2
:1038D400FEF760FE68BB4FF40070FEF75BFE68BB4A
:1038E40040F2FF50FEF760FE009A130203F47F03D8
:1038F40043EA0263110A01F47F410B4343EA126372
:103904006360019A130203F47F0343EA0263110A1A
:1039140001F47F410B4343EA1263236080E70820EC
:10392400FEF742FE04257BE70220FEF73DFE02255A
:1039340076E72020FEF738FE062571E74FF4007085
:10394400FEF732FE07256BE7180A0020B8090020AD
:103954002C0C00200080014030B583B0002300937C
:103964000193044600B102241C4B5B6913F0007FF1
:103974002ED169461A4B1888FFF73AFF48BB019BC2
:1039840013F4802F27D0164B1B681B0415480360C3
:1039940037254560402383600023C3604FF4806370
:1039A4000361FEF7BFFD2846FFF70CFC88B90D48FC
:1039B400046006244460402383600023C3604FF402
:1039C40080630361FEF7AEFD2046FFF7FBFB00E0DA
:1039D4000E2003B030BD2520FBE700BF008001406E
:1039E400B8090020180A0020104B1B78032B17D0AD
:1039F40010B50446022B15D8012815D8C0B2FFF71C
:103A0400ABFF80B90A4B5A6822F4C0525A605A6814
:103A1400084901EAC42414435C605A685A6002E00D
:103A240027207047002010BD2720FCE7B4090020A0
:103A34000080014000F8FF0730B583B00121302039
:103A4400FEF79EFC012140F20240FEF78BFC4FF48E
:103A5400F853ADF8003018258DF8035003248DF881
:103A6400024069462B48FEF7E7FB0423ADF800301B
:103A74008DF803508DF80240274D69462846FEF71D
:103A8400DBFB8023ADF8003048238DF803308DF83C
:103A9400024069462846FEF7CFFBFEF7F9FC3123C6
:103AA4008DF8043000238DF805308DF8063001239D
:103AB4008DF8073001A8FEF763F9FFF77BFCA0B18E
:103AC400B0B1C8B1F8B118B1144B1B78032B0AD1AB
:103AD400134B93F85630012B19D90420FFF7F2F950
:103AE4000020FFF731FB03B030BDFFF799FDE7E796
:103AF4000B48FFF7F1F9E4E7094BB3F8540000046D
:103B0400FFF78AFBDEE70120FFF76EFFDBE70A2001
:103B1400E4E700BF0010014000140140B409002094
:103B2400C00900200346002002E05B080130C0B257
:103B3400012BFAD170470000F0B58DB007460C4652
:103B4400164601210220FEF70DFC134D2846FEF710
:103B54006FF900212846FEF71EFA104B01930297D5
:103B64000396A408049400240594802306934FF438
:103B7400007307934FF40063089309944FF40053C0
:103B84000A930B9401A92846FEF7E6F92146284634
:103B9400FEF701FA0DB0F0BD4404024080800140FC
:103BA4002DE9F843BDF82050002800F00D8114469B
:103BB40006468B4A0021D1628A4A1278022A00F012
:103BC4008D8089480023836043604FF0FF32026098
:103BD40001224261C3600361FEF7BAFC804B5B695A
:103BE40013F0007F40F0F2806B1E9BB2B3F5006FC0
:103BF40080F0EE806B1E1D4240F0EC802846FFF7FB
:103C040091FF8046A9467948056010274760402304
:103C140083600023C3604FF480630361FEF782FC7A
:103C24003846FFF7CFFA0746002840F0D4804FEA21
:103C340008136D48836045604FF0FF330360012330
:103C440043610223C36000250561FEF781FC6748D8
:103C540004601124446040238360C5604FF4806392
:103C64000361FEF75FFC2046FFF7ACFA0746002825
:103C740040F0B1805E4B1B78002B35D0012B40F017
:103C8400AA80002249463046FFF756FF0023594ACE
:103C94001370594A1370594A1370514AD36B43F441
:103CA4004A7343F00203D36301215548FEF773F9C5
:103CB4000120FEF731FC4FF0FF33524A126812F430
:103CC400005F79D14D4A1278002A75D1494A127899
:103CD400002A71D1002B6FD0013BEEE7640A44EA5D
:103CE400C3544FF400756CE7FDF718F980464FF0A4
:103CF400FF3509E03A4BD3F8803046F824300134DC
:103D0400072CF7D92036404D354B5C6B40F22A63C3
:103D14001C400DD14FF40040FEF73CFC0028EFD1CD
:103D24000DB1013DF0E74046FDF7FFF8042752E0EE
:103D34000820FEF72FFCA8B90220FEF72BFCC8B917
:103D44002020FEF727FCE8B94FF40070FEF722FCB0
:103D540020B34FF40070FEF727FC4046FDF7E5F86A
:103D6400072738E00820FEF71FFC4046FDF7DDF882
:103D7400042730E00220FEF717FC4046FDF7D5F893
:103D8400022728E02020FEF70FFC4046FDF7CDF87F
:103D9400062720E0FEF7F2FB46F8040B4FF4001070
:103DA400FEF7F8FB0028F5D14046FDF7BEF840F2D7
:103DB400FF50FEF7F9FB0EE083B10E4B1B7853B1B5
:103DC4000C4B1F78FFB206E0262704E00E2702E022
:103DD400262700E026273846BDE8F8830427FAE7BB
:103DE40000800140B40900202C0C0020180A002097
:103DF400040000205E0C00205C0C00205D0C002000
:103E04004404024000040240FFFF7F002DE9F84310
:103E140006461546BDF82040A44A1060A44A002175
:103E2400D162A44A1278022A00F08480A2480023B6
:103E3400836043604FF0FF32026001224261C3603D
:103E44000361FEF785FB9A4B5B6913F0007F40F03A
:103E54002081631E9BB2B3F5006F80F01C81631E4A
:103E64001C4240F01A812046FFF75CFE8046A146C2
:103E74009248046010244460402383600023C3609C
:103E84004FF480630361FEF74DFB2046FFF79AF978
:103E94000746002840F00281099B012B40F2FE8076
:103EA40003FB09F4B4F1007F80F0FB804FEA0813B0
:103EB4008148836044604FF0FF3303600123436112
:103EC4000223C36000270761FEF742FB7B480560BD
:103ED4001225456040238360C7604FF4806303610B
:103EE400FEF720FB2846FFF76DF90746002840F04F
:103EF400D580734B1B781BB3012B40F0CF8000227D
:103F040021463046FFF718FE00236E4A13706E4AAE
:103F1400012111706D4A1370654AD36B43F44A73DF
:103F240043F00203D363D36A43F00803D3624FF030
:103F3400FF3398E06D0A45EAC3554FF4007475E702
:103F4400FCF7ECFF05464FF0FF360FE0072C08D8CE
:103F5400564B1B68564AD2F8802043F8242001347B
:103F6400F4E7524A136820331360594E504B5C6B8C
:103F740040F22A331C400DD14FF40040FEF70AFBF7
:103F84000028E3D10EB1013EF0E72846FCF7CDFF4F
:103F9400042783E00820FEF7FDFAA8B90220FEF703
:103FA400F9FAC8B92020FEF7F5FAE8B94FF4007021
:103FB400FEF7F0FA40B34FF40070FEF7F5FA284626
:103FC400FCF7B3FF072769E00820FEF7EDFA28465F
:103FD400FCF7ABFF042761E00220FEF7E5FA284670
:103FE400FCF7A3FF022759E02020FEF7DDFA28465C
:103FF400FCF79BFF062751E02C4C2668FEF7BEFA1F
:1040040030602368043323604FF40010FEF7C2FAD3
:104014000028F1D14FF48070FEF7BCFA18B1254B9B
:104024001B78022B07D92846FCF77FFF40F2FF508C
:10403400FEF7BAFA32E02148002303600C244460FE
:1040440040228260C3604FF480630361FEF76AFA22
:104054002046FFF7B7F807460028E4D02846FCF7C7
:1040640064FF1BE0013B1B4A126812F4005F01D19C
:10407400002BF7D1BBB1154B1B781BB9114B1B7827
:10408400002BF8D00F4B1B7843B10E4B1F78FFB2B7
:1040940004E00E2702E0262700E026273846BDE884
:1040A400F8832627FAE70427F8E700BF600C00200E
:1040B40000800140B40900202C0C0020180A0020C4
:1040C400040000205E0C00205C0C00205D0C00202D
:1040D400FFFF7F00000402402DE9F04F83B01E462D
:1040E400BDF8305000238DF80730002800F092818D
:1040F4001446A9468046AC4F1A46FB62AB4883601F
:1041040043604FF0FF33036001234361C2600261E7
:10411400FEF71EFA7F6917F0007740F08081A44B08
:104124001B78022B5CD06B1E9BB2B3F5006F80F042
:1041340078816B1E1D4240F076812846FFF7F2FC21
:104144008246AB469B48056010254560402383604A
:104154000023C3604FF480630361FEF7E3F928464C
:10416400FFF730F80346002840F05581924B1B6856
:10417400AB40904803600D254560402383600023D5
:10418400C3604FF480630361FEF7CCF92846FFF760
:1041940019F80346002840F03E81834B5B694FF0D9
:1041A400FF3513F4807F21D105B3013D824B1B6899
:1041B4001B04804803600D2646604023836000236F
:1041C400C3604FF480630361FEF7ACF93046FEF739
:1041D400F9FF0346002840F01E81734B5B69E0E75A
:1041E400640A44EAC6544FF400759CE7002D00F0BD
:1041F4001C817048046018244460402383600023B9
:10420400C3604FF480630361FEF78CF92046FEF728
:10421400D9FF0346002840F0FE800022674B1A7045
:104224004FEA0A1361488360C0F804B04FF0FF33CB
:10423400036001234361C2600261FEF789F9604BA8
:104244001B7863B1012B00F0818040F2FF50FEF730
:10425400ABF90DF10700FFF77DFA0346D2E0FCF756
:104264005DFE05464FF0FF341CE0A408013405E070
:1042740058F8040BFEF788F901360437A642F7D341
:104284006FF040440EE058F82600FEF77DF9013641
:10429400072EF8D908F1200820376FF0404401E0D8
:1042A400ACB1013C404B5E6B40F21A62164013D134
:1042B4004FF48040FEF76EF90028F1D0A9EB070413
:1042C4001F2CE5D814F0030FCFD1A408D6E7284655
:1042D400FCF72BFE04239EE00820FEF75BF9A0B94F
:1042E4000220FEF757F9C0B91020FEF753F9E0B9E0
:1042F4004FF40070FEF74EF9F8B92846FCF715FEA6
:10430400294B40F2FF529A639FE70820FEF74CF9CD
:104314002846FCF70AFE04237DE00220FEF744F958
:104324002846FCF702FE022375E01020FEF73CF954
:104334002846FCF7FAFD05236DE04FF40070FEF704
:1043440033F92846FCF7F1FD072364E010225946AF
:104354004046FFF7F1FB00231A4A1370174A137003
:10436400194A1370104CE36B43F4467343F0020391
:10437400E36301211548FDF70EFEE36A43F00803E9
:10438400E3624FF0FF3300E0013B114A126812F47C
:10439400005F01D1002BF7D113B14FF0FF331AE0C6
:1043A400FFF74AFB042336E0008001402C0C002078
:1043B400B4090020180A0020B80900205C0C002071
:1043C400040000205E0C00205D0C00204404024028
:1043D40000040240013B174A127822B9164A1278A7
:1043E4000AB9002BF6D113B3134B1B78002B3FF4FF
:1043F4002CAF114B1B78DBB20DE00DF10700FFF77A
:10440400A9F903463BB99DF80720063AD2B2012A1E
:10441400F3D900E02623184603B0BDE8F08F0E233D
:10442400F9E72623F7E72623F5E72923F3E704230F
:10443400F1E700BF5D0C00205E0C00202DE9F04F79
:1044440083B09A46BDF830400D9F00238DF80730A5
:1044540007FB04F9002800F0A38116468046AF4DFF
:10446400EB62AF48836043604FF0FF320260012289
:104474004261C3600361FEF76BF86D6915F0007566
:1044840040F09381A74B1B78022B00F08E80631EB3
:104494009BB2B3F5006F80F08A81631E1C4240F02A
:1044A40088812046FFF73EFB8246A3469E4804606F
:1044B40010244460402383600023C3604FF480636E
:1044C4000361FEF72FF82046FEF77CFE0446002821
:1044D40040F06781012F5ED907FB0BFBBBF1007F26
:1044E40080F069818F4B1B78022B2AD88F4B1B6875
:1044F4001B048D48036037244460402383600023F9
:10450400C3604FF480630361FEF70CF82046FEF7A6
:1045140059FE0446002840F044818348076017246C
:104524004460402383600023C3604FF480630361CD
:10453400FDF7F8FF2046FEF745FE0446002840F04C
:104544003081794806601924446040238360002345
:10455400C3604FF480630361FDF7E4FF2046FEF778
:1045640031FE0446002840F01C814FEA0A136C48CF
:104574008360C0F804B04FF0FF330360012343614C
:104584000023C3600361FDF7E3FF694B1B7893B11C
:10459400012B00F0A78040F2FF50FEF705F80DF163
:1045A4000700FFF7D7F80446F2E0760A46EACA564F
:1045B4004FF400746BE7FCF7B1FC07464FF0FF3291
:1045C40015E0B608013625E06FF040420FE0072CF5
:1045D40005D858F82400FDF7D7FF0134F7E708F1B0
:1045E400200820356FF0404201E0E2B1013A4B4B24
:1045F4005C6B40F21A331C401AD1484B5B6B13F4CA
:10460400804FF2D0A9EB05061F2EE0D816F0030F59
:10461400D7D1B608B442D7D258F8040BFDF7B4FF8B
:1046240001340435F6E73846FCF77FFC0424B8E08F
:104634000820FDF7AFFFE8B90220FDF7ABFF08BB88
:104644001020FDF7A7FF28BB4FF40070FDF7A2FF71
:1046540040BB4FF48070FDF79DFF18B1314B1B78C0
:10466400022B28D93846FCF760FC40F2FF50FDF7D6
:104674009BFF90E70820FDF797FF3846FCF755FCB1
:1046840004248EE00220FDF78FFF3846FCF74DFC32
:10469400022486E01020FDF787FF3846FCF745FC2E
:1046A40005247EE04FF40070FDF77EFF3846FCF7EA
:1046B4003CFC072475E01C48002303600C24446080
:1046C40040228260C3604FF480630361FDF72AFFD8
:1046D4002046FEF777FD04460028C3D03846FCF791
:1046E40024FC5EE0102259464046FFF725FA0023D9
:1046F400104A1370104A01211170104A1370074AAE
:10470400D36B43F4467343F00203D363D36A43F099
:104714000803D3624FF0FF3313E000BF0080014071
:104724002C0C0020B4090020180A0020B80900202D
:10473400040000205E0C00205C0C00205D0C0020B6
:10474400013B1F4A126812F4005F01D1002BF7D11C
:1047540013B14FF0FF3304E0FFF76EF9042420E0B7
:10476400013B184A127822B9174A12780AB9002B69
:10477400F6D113B3144B1B78002B3FF40CAF124B40
:104784001C78E4B20DE00DF10700FEF7E3FF0446E8
:104794003CB99DF80730063BDBB2012BF3D900E0AE
:1047A4002624204603B0BDE8F08F0E24F9E7262422
:1047B400F7E72624F5E72624F3E70424F1E700BF0E
:1047C400000402405D0C00205E0C00202DE9F04F37
:1047D40083B0054690460F464FF000091F4B1B78E7
:1047E40013B14FEAD1594F0215F0030F29D1B8F193
:1047F400010F29D0CDF804804FF4007300933A469A
:104804004B462846FFF702FB834616E06302DA199B
:10481400134E4FF4007ACDF800A049F1000330465E
:10482400FFF7BEF983465246314628460BF00BFA91
:1048340055440134E4B24445E8D3584603B0BDE8D6
:10484400F08F0024A346F6E74FF4007300933A4632
:104854004B462846FFF7A4F98346EEE7B409002047
:104864002C0A00202DE9F04383B0054617460E4676
:104874004FF000081D4B1B7813B14FEAD1584E027C
:1048840015F0030F26D1012F27D001974FF40073A1
:104894000093324643462846FFF7D0FD17E0DFF881
:1048A40050904FF40072294648460BF0CCF963024D
:1048B4009A194FF40073009348F100034846FFF738
:1048C4000BFC05F500750134E4B2BC42E7D303B038
:1048D400BDE8F08300242046F7E74FF4007300930B
:1048E400324643462846FFF7F7FBF0E7B4090020B9
:1048F4002C0A002010B598B001214FF4F070FDF798
:104904003FFD01214FF48070FDF72CFD4FF633730A
:10491400ADF8043018238DF8073003248DF80640D1
:1049240001A92048FDF788FC4FF68373ADF80430E5
:1049340001A91D48FDF780FC4FF23F03ADF8043098
:1049440001A91A48FDF778FC40F23F43ADF8043062
:1049540001A91748FDF770FC002302930393049404
:104964000593069307930893042409940A930B93DD
:1049740010220C920D930F930E93109311934FF4F6
:104984008052129213931493159302AB16931793B8
:1049940009A8FDF7D7FB01212046FDF737FC18B025
:1049A40010BD00BF0014014000180140001C01406C
:1049B40000200140002304E09A0002F1D042136079
:1049C4000133B3F5802FF7DB0023B3F5802F07DA2B
:1049D4009A0002F1D04212689A4203D10133F4E7FB
:1049E400002070474FF0FF307047000008B50121E8
:1049F4000648FDF785FE00B908BD054A1368013372
:104A0400136001210148FDF787FEF5E7000400402B
:104A1400640C002030B585B005460C460121022007
:104A2400FDF7BCFC00221E211448FCF73FFBADF847
:104A34000850ADF804400025ADF80A50ADF8065012
:104A44000F4C01A92046FDF7F7FD0122114620462F
:104A5400FDF74AFE1D238DF8003003238DF8013045
:104A64008DF8025001258DF803506846FDF788F94A
:104A740029462046FDF72AFE05B030BDF14900085D
:104A8400000400400B480C490C4A002302E0D458AF
:104A9400C4500433C4188C42F9D3094A094C002386
:104AA40001E013600432A242FBD3FDF74FFF0BF089
:104AB40041FF7047000000200406002048D403088A
:104AC4000007002084F8002008B5002002F02AFB2B
:104AD400002811DB0E4B0F4A0F49002002F00AFC9C
:104AE400002811DB4FF4006303228021002002F030
:104AF400A9FB0A4B186808BD00220949094803F0BC
:104B040073FA4FF0FF30F6E74FF0FF30F3E700BFE2
:104B14001C0000200800002010E90108680C002097
:104B2400FF01030004E9010838B50446094D0A4BA6
:104B34006B6003F188336B603420FDF795FA04F55C
:104B440080308030C002FDF7BFFA2B6943F0800348
:104B54002B6138BD002002402301674508B5034995
:104B6400034B186802F0FEFB08BD00BF10E9010802
:104B7400680C0020F8B505460F461646002407E0E9
:104B840037F814102846FDF7BFFA02350134A4B2F1
:104B9400B442F5D3F8BD000010B5094C094B63606D
:104BA40003F18833636000F5803080304FF4806215
:104BB400C002FFF7DFFF236943F08003236110BDC8
:104BC4000020024023016745008880B27047F8B591
:104BD40005460F461646002407E02846FFF7F4FF73
:104BE40027F8140002350134A4B2B442F5D3F8BD59
:104BF40008B500F5803080304FF48062C002FFF7C2
:104C0400E6FF002008BD0000034B1B780BB1002019
:104C140070474FF0FF3070476C0C002008B502F06D
:104C24003FFB024B00221A7008BD00BF6C0C002031
:104C3400084A127842B108B50346084601221946CB
:104C4400FFF710FE18B908BD4FF0FF3070474FF062
:104C5400FF30F8E76C0C0020084A127842B108B51E
:104C64000346084601221946FFF7B0FD18B908BDEE
:104C74004FF0FF3070474FF0FF30F8E76C0C002026
:104C840008B5194B1B780BB1002008BD0022322156
:104C94001648FCF70BFAFEF7CFFEA8B9144A936C3A
:104CA400D26C1046002A15DB590A114B1B6D1022D9
:104CB40041EAC051012002F0C5FA002810DB0A4B7A
:104CC40001221A700020E0E70A4808F08BFB4FF03D
:104CD400FF30DAE740F2FF115B1842F10000E3E72E
:104CE4004FF0FF30D1E700BF6C0C00208133000887
:104CF400C009002018E9010808B5012002F012FAE1
:104D0400002813DB0C4B0D4A0D49012002F0F2FA86
:104D140000280EDB0120FFF7B3FF002801DB012090
:104D240008BD0121074808F05DFBF8E74FF0FF30AC
:104D3400F6E74FF0FF30F3E75C0000204800002066
:104D44002CE9010830E9010808B50449012002F002
:104D540009FB012002F0A4FA08BD00BF2CE90108F8
:104D64001846704708B5064A0649062002F02CFA90
:104D7400002801DB002008BD4FF0FF30FBE700BF37
:104D84008800002048E9010810B510461C461A4660
:104D940000210AF083FF204610BD000008B5034936
:104DA400062002F02FFA002008BD00BF48E90108E0
:104DB40009890023024A42F82130024A13607047ED
:104DC400740C0020700C00202DE9F0410E461546AD
:104DD400012806D050B90D4BD3F8008008F14407E0
:104DE40004E00A4BD3F8048008F14407002404E0EB
:104DF400315D384600F034FD0134A542F8DCD8F8C2
:104E0400400008F02BFDBDE8F08100BF740C0020C9
:104E140030B583B00446002505E001210DF10700FB
:104E2400FCF710FB01350DF1070104F5137000F0D8
:104E34007DFD002808DBE36A002BEED101210DF192
:104E44000700FCF713FBEDE7284603B030BD000074
:104E540038B51C68C16A002B00F0B18041B9012546
:104E6400012A07D0022A00F0A3806FF02500A8E0F1
:104E74000025F5E741F20F03234024D00F2B11D96D
:104E8400B3F5805F1FD9A3F58053013B0E2B1AD8CD
:104E9400DFE803F044194A50565B60666B70757A1C
:104EA4007F8489000F2B0ED8DFE803F08C8C8C8C68
:104EB4008C8C8C8C8C8C8C0820262C324FF41661B4
:104EC4002846FCF7DAF9C4F30023C4F3801204F093
:104ED40030012846FCF7F7F9E10F2846FCF7B2F950
:104EE4003A4B43F825406FF025006AE04FF49651A1
:104EF4002846FCF7C2F9E6E74FF416512846FCF7BA
:104F0400BCF9E0E74FF496412846FCF7B6F9DAE736
:104F14004FF416412846FCF7B0F9D4E74FF4614149
:104F24002846FCF7AAF9CEE74FF461312846FCF78E
:104F3400A4F9C8E74FF4E1212846FCF79EF9C2E73B
:104F440023492846FCF799F9BDE722492846FCF78E
:104F540094F9B8E74FF461212846FCF78EF9B2E7DB
:104F64001D492846FCF789F9ADE71C492846FCF79A
:104F740084F9A8E71A492846FCF77FF9A3E71949F9
:104F84002846FCF77AF99EE717492846FCF775F995
:104F940099E716492846FCF770F994E7144928461E
:104FA400FCF76BF98FE713492846FCF766F98AE7A3
:104FB400064A52F825201A606FF0250001E06FF0D0
:104FC400150038BD6FF02500FBE700BF7C0C002006
:104FD40020A1070000CA080040420F0000941100FD
:104FE40060E3160080841E00A0252600C0C62D00A4
:104FF400E067350000093D0010B504460A4B1B6804
:105004003BB120460AF04FFFC1B22046FCF72EFA0E
:1050140010BDFCF78FF9002218210448FCF746F86C
:10502400034B044A1A60ECE7700C002019160008C0
:10503400EC080020CD4D0008174B1B680BB1002075
:10504400704770B504460D460126134B1E60FCF7ED
:1050540071F9124B124A1A60002218211148FCF708
:1050640025F8E36A9B1B18BF01230F4A42F823402B
:10507400A1680E4A42F823100D49A1630D496163EA
:105084000D49E16302EB8303324629462046FFF7CC
:10509400DFFE002070BD00BF700C0020EC08002073
:1050A400CD4D000819160008740C00207C0C00205B
:1050B400154E0008B54D0008554E000880B2022870
:1050C40005DC40F26C62034B02FB003070470020A9
:1050D400704700BFA80C002010B58868040C042C8D
:1050E40014D11FFA80FCBCF1020F12DC40F26C6494
:1050F4000C4804FB0C0090F86A466CB10CEB4C0CA9
:10510400094C54F82C4054B1A04710BD6FF0120064
:10511400FBE76FF01200F8E76FF01200F5E76FF0AD
:105124001200F2E7A80C0020840C002010B5886857
:10513400040C042C16D11FFA80FCBCF1020F14DC01
:1051440040F26C640D4804FB0C0090F86A467CB194
:105154000CEB4C0C0A4C04EB8C0CDCF8044054B102
:10516400A04710BD6FF01200FBE76FF01200F8E7E4
:105174006FF01200F5E76FF01200F2E7A80C0020C0
:10518400840C002038B58C68220C042A16D1A4B2F1
:10519400022C13DC40F26C630E4803FB040090F80D
:1051A4006A365BB1012B0AD00A4B40F26C6202FBF7
:1051B400043393F86A26013A83F86A2638BD054613
:1051C400436B984700212963242228460AF066FD90
:1051D400EAE700BFA80C0020F0B585B004461646E7
:1051E4001D4623E02A4B5B6A01930023029304F1DA
:1051F400400701A9384608F049FB08F099F908F07E
:1052040065F901A9384608F04FFB08F047F90DE0AD
:105214002046984794F86936DBB9E26A1D4B40F2A0
:105224006C6101FB02339B6B20469847D4F844120F
:10523400D4F84832C91AC1F308010029D2D0E16A6E
:1052440001EB4101144B03EB81018B68002BDFD18F
:10525400E0E7002784F8697603E09DF80F30F35502
:105264000137AF4207DA0DF10F0104F2544000F0A8
:105274005DFB0028F1DAE26A064B40F26C6101FB47
:1052840002339B6B20469847384605B0F0BD00BFFB
:1052940074320020A80C0020840C002070B5054650
:1052A4000C46466816F0010F1AD016F0020F07D00C
:1052B40008460AF06CFF18B120460AF000FFC4B299
:1052C40016F0040F01D00A2C10D06B6813F0080FED
:1052D40001D00D2C10D013F4C05F01D0092C15D0CF
:1052E400214605F5137000F0BBFA70BD0D2105F5DC
:1052F400137000F0B5FAE8E713F0200F04D0002291
:10530400C5F860260A24E6E70A24E4E72024E7E750
:105314002DE9F041054617461E4600F25C684046FA
:1053240005F0DBFE002404E0395D2846FFF7B6FFF4
:105334000134B442F8DB404605F0DDFEAB6B284691
:1053440098472046BDE8F08130B583B0044600F2AA
:1053540054450A21284600F0A2FA10B9002003B0EF
:1053640030BD0DF10701284600F0BEFA0028F5DB38
:1053740008212046FFF792FF20212046FFF78EFFE9
:1053840008212046FFF78AFFD4F86036002BE5DDBC
:10539400013BC4F86036E1E7F0B583B00446C36866
:1053A40013F0020F40F0C78003B0F0BD002104F2F7
:1053B400544000F055FABEE0236813F0200F05D0E6
:1053C4009DF8073003F07F038DF80730236813F04E
:1053D400800F4ED09DF807300D2B00F0AC80236871
:1053E40003F4C073B3F5807F4ED0236813F4007FB9
:1053F4000AD09DF8075028460AF0DBFE20B1284663
:105404000AF057FE8DF80700E56815F0080F00F064
:10541400C58015F4007F11D09DF8077038460AF056
:10542400A9FE58B1637E9F4208D0A37E9F4205D057
:10543400092F03D00A2F01D0252F2DD915F0020FE3
:105444003FD015F0100F04D0E27C9DF807309A424B
:105454002ED015F4006F2FD115F0200F31D0227DFE
:105464009DF807309A422CD10A212046FFF716FFF7
:1054740061E013F0400FB2D09DF807300A2BAED193
:105484000D238DF80730AAE79DF807300D2BACD11A
:105494000A238DF80730A8E75E212046FFF7FEFEB9
:1054A4009DF807104031C9B22046FFF7F7FE0DE022
:1054B4002046FFF749FF3EE0227D9DF807309A42DF
:1054C4006AD09DF807102046FFF7E8FEE76817F05A
:1054D400010F0BD0627C9DF807309A426AD0A27CFF
:1054E400934276D0E27E934200F082809DF807508A
:1054F40028460AF03FFE002840F08580D4F8603644
:105504000133C4F8603617F0020F0FD00A2D00F0F3
:105514008180237F9D427DD094F821309D4279D0B3
:10552400637D9D4276D0002384F86936294604F2CF
:10553400544000F095F904F144060DF1070130469A
:1055440000F0F4F9B0F1FF3F3FF42EAF94F8683661
:10555400002B3FF431AF236813F0040FEBD113F0A9
:10556400080F3FF423AF04F25445FF21284600F00E
:1055740077F90021284600F073F99DF807102846B2
:1055840000F06EF9D7E72046FFF7DEFE0135D4F8C8
:105594006036AB42F7DCCEE70025F8E705F04205BC
:1055A400422D93D19DF807100A298FD12046FFF789
:1055B40075FE8BE7022008F029FAE36813F0800FE8
:1055C400B9D104F5137000F03FF9304600F03CF90E
:1055D400B1E7032008F01AFAE36813F0800FAAD1A8
:1055E40004F5137000F030F9304600F02DF9A2E70D
:1055F400142008F00BFAE36813F0800F9BD13046B7
:1056040000F022F997E70A2D7FF47DAF0023C4F858
:10561400603678E7637D9D4203D1012384F86936BF
:10562400C2E6294604F2544000F01AF9F5E70000F6
:1056340010B50C462422002120460AF02FFB132229
:10564400084904F111000AF0FEFA4FF4885323606C
:1056540041F60503636041F6B243A36048F63B2379
:10566400E36010BD7CE60108F8B5438A1A1F012ADD
:105674002AD80E46052B1AD0048A022C27DC40F2C5
:105684006C63144D03FB0455134B2B6395F86A3676
:105694008BB1104B40F26C6202FB043393F86A2620
:1056A400013283F86A26DC621C740020F8BD4FF4D2
:1056B40080238B60E0E729460020FFF7B9FF2B6BBE
:1056C400314628469847E4E76FF01200EEE76FF0A2
:1056D4001200EBE7A80C00203D5000088868002B5E
:1056E40054D0F0B583B00E4614461F46FFF7E6FCCF
:1056F400054600284DD0A4F5A842013A132A4BD8F8
:10570400DFE802F00A1B4A4A4A4A4A4A4A4A4A4AD3
:105714004A4A4A4A4A4A2A33C46B3CB101AB022280
:105724003146A047002801DB019BAB6012222946C9
:1057340038460AF088FA00202FE0122239460AF08F
:1057440082FAAB680193EC6B4CB301AB0122314696
:105754002846A047002020E05023C38425F8243F96
:1057640003CD38607960002017E07A88C38C9A42B0
:1057740003D13A88838C9A4202D01C2008F046F95F
:1057840024353868796803C5002006E06FF01500F9
:1057940070476FF0180000E0002003B0F0BD002057
:1057A400FBE70000022816D808B549B100EB400019
:1057B4000A4B03EB800307C983E80700002008BDF8
:1057C40000EB40000C220021044B03EB80000AF0A4
:1057D40065FA0020F3E76FF015007047840C002091
:1057E40008B50D490020FFF7DDFF0C4A0C490420E1
:1057F40001F0EAFC002808DB084A0949052001F009
:10580400E3FC002804DB002008BD4FF0FF30FBE779
:105814004FF0FF30F8E700BFB4000020C0000020C4
:1058240050E9010810B500210846FFF7BBFF054CFD
:105834002146042001F0E6FC2146052001F0E2FCAB
:10584400002010BD50E9010810B50446FBF766FBC3
:105854000023C4F80032C4F80432FBF766FB10BD21
:1058640038B504460D46FBF759FBD4F800124B1C1F
:105874005A42C3F30803C2F3080258BF5342D4F890
:105884000422934206D06554C4F80032FBF74DFB62
:10589400002038BDFBF749FB4FF0FF30F9E738B57E
:1058A40004460D46FBF73AFBD4F80032D4F8042240
:1058B40093420FD003F2FF135A42C3F30803C2F317
:1058C400080258BF5342E35CAB4208D1FBF72DFBFF
:1058D400002038BDFBF729FB4FF0FF30F9E7FBF759
:1058E40024FB4FF0FF30F4E738B504460D46FBF7D0
:1058F40015FBD4F80032D4F80422934211D003F2F9
:10590400FF135A42C3F30803C2F3080258BF5342B9
:10591400C4F800320DB1E35C2B70FBF706FB0020EA
:1059240038BDFBF702FB4FF0FF30F9E738B504460A
:105934000D46FBF7F3FAD4F80022D4F804329A4265
:1059440012D00DB1E35C2B70D4F8043201335A4207
:10595400C3F30803C2F3080258BF5342C4F8043225
:10596400FBF7E3FA002038BDFBF7DFFA4FF0FF3016
:10597400F9E700002DE9F04786B00F469146684BE1
:10598400049305AB03AA06CA00F0DDFD051EC0F2B0
:10599400C3800598036A33B1D0F8B83001221A6085
:1059A4004FB100260AE000F041FE5E4807F01AFD00
:1059B4004FF0FF35ACE0002604E0013657F82630FE
:1059C400002BFAD1059B5A6A1B6A02EB03080324D5
:1059D40000E00134072C0DDC534B5B6A04EB8402BA
:1059E40003EBC203D3F8A835002BF2D0204618F0FD
:1059F4001DFAEEE70BF0CEFADFF82CA1DAF824005A
:105A040008F0A2FAFBF78AFA0446DAF82430D3F84D
:105A14005837C3B1D3F8B8201368013B1360DAF8E0
:105A24002430D3F85827D2F8B8100968002935D0A3
:105A3400D3F8843513F4807F34D13B4B5B6AD3F8BD
:105A440058070BF035FA384BD3F824A0059BCAF855
:105A54005837DAF8201081B3DAF8183001F18042AF
:105A6400013A03EB8203CAF82830DAF81C20DAF88A
:105A7400243003F18043013B02EB8303CAF82C304A
:105A840001BB294B586A036A43BB022303860023E4
:105A9400438680F838300364436429E0059800F0B5
:105AA400C5FDD0E7506C0BF003FA1F4B5B6AD3F8CB
:105AB4005837586D0BF0FCF9BFE74FF0FF33CAF8C5
:105AC4002830D2E7DAF82800CDF800903B46324679
