:020000040800F2
:10000000000001204D2D00088124000883240008F1
:1000100085240008872400088924000800000000C7
:100020000000000000000000000000006510000853
:100030008B24000800000000E1100008D91000081F
:10004000D9100008D9100008D9100008D9100008EC
:10005000D9100008D9100008D9100008D9100008DC
:10006000D9100008D9100008D9100008D9100008CC
:10007000D9100008D9100008D9100008D9100008BC
:10008000D9100008D9100008D9100008D9100008AC
:10009000D9100008D9100008D9100008D91000089C
:1000A000D9100008D9100008D9100008D91000088C
:1000B000D9100008D9100008D9100008D91000087C
:1000C000D9100008D9100008D9100008D91000086C
:1000D000D9100008D9100008D9100008D91000085C
:1000E000D9100008D9100008D9100008D91000084C
:1000F000D9100008D9100008D9100008D91000083C
:10010000D9100008D9100008D9100008D91000082B
:10011000D9100008D9100008D9100008D91000081B
:10012000D9100008D9100008D9100008D91000080B
:1001300000000000000000000000000000000000BF
:1001400000000000000000000000000000000000AF
:10015000000000000000000000000000000000009F
:10016000000000000000000000000000000000008F
:10017000000000000000000000000000000000007F
:10018000000000000000000000000000000000006F
:10019000000000000000000000000000000000005F
:1001A000000000000000000000000000000000004F
:1001B000000000000000000000000000000000003F
:1001C000000000000000000000000000000000002F
:1001D000000000000000000000000000000000001F
:0401E0005FF8E0F1F3
:1001E40070BCF746EC462DE970009CE8700080B4C2
:1001F4004FF05A0780DF80BCF2E700BF4FF00003E6
:1002040000F06DBB80B44FF0B40780DF80BCE8E73A
:1002140080B44FF0B50780DF80BCE2E780B44FF0D4
:10022400580780DF80BCDCE780B44FF0210780DF13
:1002340080BCD6E780B44FF07C0780DF80BCD0E779
:1002440080B44FF02D0780DF80BCCAE780B44FF044
:100254000C0780DF80BCC4E780B44FF00F0780DF59
:1002640080BCBEE780B44FF0B60780DF80BCB8E73F
:1002740080B44FF03D0780DF80BCB2E780B44FF01C
:10028400060780DF80BCACE780B44FF0290780DF2D
:1002940080BCA6E780B44FF03F0780DF80BCA0E7B6
:1002A40080B44FF00B0780DF80BC9AE780B44FF036
:1002B400850780DF80BC94E780B44FF05E0780DF61
:1002C40080BC8EE780B44FF05F0780DF80BC88E796
:1002D40080B44FF0370780DF80BC82E780B44FF0F2
:1002E4008F0780DF80BC7CE780B44FF0020780DF9B
:1002F40080BC76E780B44FF06C0780DF80BC70E789
:1003040080B44FF0C50780DF80BC6AE780B44FF04B
:10031400640780DF80BC64E780B44FF0760780DF39
:1003240080BC5EE780B44FF05D0780DF80BC58E797
:1003340080B44FF0B70780DF80BC52E780B44FF041
:100344008D0780DF80BC4CE780B44FF0D90780DF95
:1003540080BC46E780B44FF0320780DF80BC40E7C2
:1003640080B44FF0310780DF80BC3AE780B44FF0AF
:100374002F0780DF80BC34E780B44FF0500780DF64
:1003840080BC2EE780B44FF0690780DF80BC28E78B
:1003940080B44FF0840780DF80BC22E780B44FF044
:1003A400140780DF80BC1CE780B44FF0400780DF77
:1003B40080BC16E780B44FF0600780DF80BC10E794
:1003C40080B44FF0AB0780DF80BC0AE780B44FF005
:1003D400A50780DF80BC04E780B44FF04C0780DFC2
:1003E40080BCFEE680B44FF04D0780DF80BCF8E6A9
:1003F40080B44FF0930780DF80BCF2E680B44FF006
:100404004E0780DF80BCECE680B44FF04F0780DFFE
:1004140080BCE6E680B44FF0180780DF80BCE0E6DD
:1004240080B44FF0360780DF80BCDAE6EC462DE975
:1004340070009CE8700080B44FF0750780DF80BCCA
:10044400CEE680B44FF0250780DF80BCC9E680B4D7
:100454004FF0100780DF80BCC3E680B44FF009077B
:1004640080DF80BCBDE6EC462DE970009CE870009E
:1004740080B44FF08C0780DF80BCB1E680B44FF0CD
:10048400130780DF80BCACE680B44FF06B0780DFDD
:1004940080BCA6E680B44FF0C40780DF80BCA0E631
:1004A40080B44FF0270780DF80BC9AE680B44FF019
:1004B4000E0780DF80BC94E680B44FF0960780DF9F
:1004C40080BC8EE680B44FF0980780DF80BC88E65D
:1004D400EC462DE970009CE8700080B44FF0C00732
:1004E40080DF80BC7CE6EC462DE970009CE870005F
:1004F40080B44FF0150780DF80BC71E680B44FF004
:100504007D0780DF80BC6CE680B44FF0A30780DFFA
:1005140080BC66E680B44FF0990780DF80BC60E65B
:1005240080B44FF05B0780DF80BC5AE680B44FF0A4
:10053400430780DF80BC54E680B44FF0490780DF76
:1005440080BC4EE680B44FF07E0780DF80BC48E676
:1005540080B44FF0480780DF80BC42E680B44FF09F
:10056400A20780DF80BC3CE680B44FF0220780DF26
:1005740080BC36E680B44FF0050780DF80BC30E6EF
:1005840080B44FF01D0780DF80BC2AE680B44FF0B2
:10059400880780DF80BC24E680B44FF02A0780DF20
:1005A40080BC1EE680B44FF0A80780DF80BC18E64C
:1005B400EC462DE970009CE8700080B44FF0A7076A
:1005C40080DF80BC0CE680B44FF0800780DF80BC05
:1005D40007E680B44FF0810780DF80BC01E680B479
:1005E4004FF07F0780DF80BCFBE580B44FF003074A
:1005F40080DF80BCF5E580B44FF0550780DF80BC18
:10060400EFE580B44FF0910780DF80BCE9E580B46A
:100614004FF0260780DF80BCE3E580B44FF0280765
:1006240080DF80BCDDE580B44FF0AE0780DF80BCA6
:10063400D7E580B44FF0B00780DF80BCD1E580B44B
:100644004FF0AF0780DF80BCCBE580B44FF0B2073A
:1006540080DF80BCC5E580B44FF0B30780DF80BC89
:10066400BFE580B44FF0B10780DF80BCB9E580B44A
:100674004FF09F0780DF80BCB3E580B44FF0A00744
:1006840080DF80BCADE580B44FF09B0780DF80BC89
:10069400A7E580B44FF09D0780DF80BCA1E580B45E
:1006A4004FF0A10780DF80BC9BE580B44FF09A0730
:1006B40080DF80BC95E580B44FF09C0780DF80BC70
:1006C4008FE580B44FF09E0780DF80BC89E580B45D
:1006D4004FF0520780DF80BC83E580B44FF0BB0746
:1006E40080DF80BC7DE580B44FF0EF0780DF80BC05
:1006F40077E580B44FF0790780DF80BC71E580B482
:100704004FF08B0780DF80BC6BE580B44FF08A0725
:1007140080DF80BC65E580B44FF02E0780DF80BCAD
:100724005FE580B44FF0510780DF80BC59E580B4A9
:100734004FF04A0780DF80BC53E580B44FF0680770
:1007440080DF80BC4DE580B44FF0390780DF80BC8A
:1007540047E580B44FF0610780DF80BC41E580B499
:100764004FF0470780DF80BC3BE580B44FF0AA0719
:1007740080DF80BC35E580B44FF0A40780DF80BC07
:100784002FE580B44FF0460780DF80BC29E580B4B4
:100794004FF04B0780DF80BC23E580B44FF0420765
:1007A40080DF80BC1DE580B44FF0170780DF80BC7C
:1007B40017E580B44FF0BA0780DF80BC11E580B440
:1007C4004FF0000780DF80BC0BE580B44FF0660774
:1007D40080DF80BC05E580B44FF06A0780DF80BC11
:1007E400FFE480B44FF0C30780DF80BCF9E480B439
:1007F4004FF0630780DF80BCF3E480B44FF0190747
:1008040080DF80BCEDE480B44FF0730780DF80BCF0
:10081400E7E480B44FF0570780DF80BCE1E480B4A4
:100824004FF0530780DF80BCDBE480B44FF0240733
:1008340080DF80BCD5E480B44FF0950780DF80BCB6
:10084400CFE480B44FF0740780DF80BCC9E480B487
:100854004FF0670780DF80BCC3E480B44FF08707A4
:1008640080DF80BCBDE480B44FF00D0780DF80BC26
:10087400B7E480B44FF02B0780DF80BCB1E480B4D0
:100884004FF05C0780DF80BCABE480B44FF03C07E2
:1008940080DF80BCA5E480B44FF0160780DF80BC05
:1008A4009FE480B44FF0340780DF80BC99E480B4C7
:1008B4004FF07A0780DF80BC93E480B44FF00A07DE
:1008C40080DF80BC8DE480B44FF01E0780DF80BCE5
:1008D40087E480B44FF06F0780DF80BC81E480B48C
:1008E4004FF0720780DF80BC7BE480B44FF00407D4
:1008F40080DF80BC75E480B44FF0920780DF80BC59
:100904006FE480B44FF0900780DF80BC69E480B46A
:100914004FF0B80780DF80BC63E480B44FF0B907C0
:1009240080DF80BC5DE480B44FF0D40780DF80BCFE
:1009340057E480B44FF0CF0780DF80BC51E480B42B
:100944004FF0CA0780DF80BC4BE480B44FF0C90786
:1009540080DF80BC45E480B44FF0C80780DF80BCF2
:100964003FE480B44FF0CD0780DF80BC39E480B42D
:100974004FF0D30780DF80BC33E480B44FF0C70767
:1009840080DF80BC2DE480B44FF0C60780DF80BCDC
:1009940027E480B44FF0D80780DF80BC21E480B422
:1009A4004FF0D70780DF80BC1BE480B44FF0D6073C
:1009B40080DF80BC15E480B44FF0CC0780DF80BCBE
:1009C4000FE480B44FF0D20780DF80BC09E480B428
:1009D4004FF0CB0780DF80BC03E480B44FF0D50731
:1009E40080DF80BCFFF7FDBB80B44FF01B0780DFC6
:1009F40080BCFFF7F6BB80B44FF01A0780DF80BCE1
:100A0400FFF7EFBB80B44FF0C20780DF80BCFFF775
:100A1400E8BB80B44FF0C10780DF80BCFFF7E1BBC7
:100A240080B44FF03E0780DF80BCFFF7DABB80B4B0
:100A34004FF0FA0780DF80BCFFF7D3BB80B44FF0E0
:100A4400FB0780DF80BCFFF7CCBB80B44FF0FC0712
:100A540080DF80BCFFF7C5BB80B44FF0DD0780DFCB
:100A640080BCFFF7BEBB80B440F2011780DF80BCBE
:100A7400FFF7B7BB80B44FF4817780DF80BCFFF70A
:100A8400B0BB80B440F2031780DF80BCFFF7A9BB82
:100A940080B44FF4827780DF80BCFFF7A2BB80B4C0
:100AA40040F2051780DF80BCFFF79BBB80B44FF496
:100AB400837780DF80BCFFF794BB80B440F20717D4
:100AC40080DF80BCFFF78DBB80B440F2091780DF64
:100AD40080BCFFF786BB80B440F2171780DF80BC70
:100AE400FFF77FBB80B44FF48B7780DF80BCFFF7C8
:100AF40078BB80B44FF4897780DF80BCFFF771BB8B
:100B0400EC462DE970009CE8700080B440F21517A3
:100B140080DF80BCFFF764BB80B44FF48A7780DF4A
:100B240080BCFFF75EBB80B440F2131780DF80BC4B
:100B3400FFF757BB80B44FF4857780DF80BCFFF7A5
:100B440050BB80B440F20B1780DF80BCFFF749BB79
:100B540080B44FF0EE0780DF80BCFFF742BB80B467
:100B64004FF4867780DF80BCFFF73BBB80B44FF443
:100B7400807780DF80BCFFF734BBEC462DE9700042
:100B84009CE8700080B440F2411780DF80BCFFF71E
:100B940027BB80B44FF0AD0780DF80BCFFF721BBDB
:100BA40080B44FF0E00780DF80BCFFF71ABB80B44D
:100BB4004FF0FD0780DF80BCFFF713BB80B44FF01C
:100BC400E10780DF80BCFFF70CBB80B44FF08307E4
:100BD40080DF80BCFFF705BB80B44FF0DB0780DF0C
:100BE40080BCFFF7FEBAEC462DE970009CE870006B
:100BF40080B440F23F1780DF80BCFFF7F1BAEC46C7
:100C04002DE970009CE8700080B44FF4A07780DF79
:100C140080BCFFF7E5BA80B44FF0F00780DF80BCFA
:100C2400FFF7DFBA80B440F2391780DF80BCFFF7EA
:100C3400D8BAEC462DE970009CE8700080B44FF4FB
:100C44009B7780DF80BCFFF7CBBA80B440F23717C4
:100C540080DF80BCFFF7C5BAEC462DE970009CE844
:100C6400700080B440F2351780DF80BCFFF7B8BA5B
:100C740080B44FF0F60780DF80BCFFF7B2BA80B4CF
:100C84004FF0F30780DF80BCFFF7ABBA80B44FF0BE
:100C9400F50780DF80BCFFF7A4BA80B44FF0F407F7
:100CA40080DF80BCFFF79DBA80B44FF0F70780DF88
:100CB40080BCFFF796BA80B44FF49F7780DF80BC86
:100CC400FFF78FBA80B44FF49E7780DF80BCFFF7C4
:100CD40088BA80B440F23D1780DF80BCFFF781BA48
:100CE400EC462DE970009CE8700080B44FF0E207F8
:100CF40080DF80BCFFF774BAEC462DE970009CE8F5
:100D0400700080B44FF0E30780DF80BCFFF768BA5F
:100D1400EC462DE970009CE8700080B44FF0E407C5
:100D240080DF80BCFFF75CBA80B44FF0EB0780DF54
:100D340080BCFFF756BA80B44FF0EC0780DF80BC6C
:100D4400FFF74FBA80B44FF0ED0780DF80BCFFF7A8
:100D540048BA80B44FF0E80780DF80BCFFF741BA9F
:100D640080B44FF0E90780DF80BCFFF73ABA80B463
:100D74004FF0EA0780DF80BCFFF733BA80B44FF04E
:100D8400E50780DF80BCFFF72CBA80B44FF0E6079C
:100D940080DF80BCFFF725BA80B44FF0E70780DF1F
:100DA40080BCFFF71EBA01DF78468EEA0E00874644
:100DB40080B44FF0780780DF80BCFFF712BA844616
:100DC400080008BF0120BCE8F00F5CF8042B95462E
:100DD4005CF804FB4FF000016A46A0E8F00FA0E8BD
:100DE4000440A0F128000CF0E1BB00BF4FF0000B61
:100DF4005DF8040B6946DFF820C001EB800202F1C4
:100E04000402CCF800200CF001FC0CF039F980B499
:100E14004FF0010780DF80BC0406002008B509F00C
:100E240073FB09F0A9FD09F0F1FC0AF081FC0AF05A
:100E340001F809F011FF08BD08B5002000F03CFDE1
:100E440001F0BAFE01F018FF01F06AFC01F0FEFDAA
:100E5400632140F2CF2001F03FFF002008BD0000D5
:100E640010B5002211460A4800F020F94FF0E023A3
:100E7400084A5A61084AF02182F8231000249C6130
:100E840007221A614FF4407000F070FF204610BD35
:100E9400210E00083F19010000ED00E010B44FF0EE
:100EA4008074046040F8041C1A4940F8081C4FF090
:100EB400123140F80C1C4FF0033140F8101C01991A
:100EC40040F8141C40F8183C40F81C2C4FF0113327
:100ED40040F8203C4FF0103340F8243C0E4B1B6884
:100EE40040F8283C4FF0083340F82C3C4FF00733CF
:100EF40040F8303C4FF0063340F8343C4FF00533B3
:100F040040F8383C4FF0043340F83C3C3C3810BCCB
:100F1400704700BFF19D00080C060020EFF310801D
:100F240072B6704780F30988704780F31088704761
:100F340002484FF0805101607047000004ED00E06A
:100F44004FF0000350E8002F02F10102002A00D004
:100F540001E04FF0010340E800210129F2D01846D6
:100F640070474FF0000350E8002F02F1FF32002ACF
:100F740000D001E04FF0010340E800210129F2D044
:100F8400704750E8002F0A4640E80023012BF8D0B0
:100F940070470068704710B450E8002F8A4202D0AE
:100FA4004FF0000401E04FF0010440E80023012B5E
:100FB400F2D0204610BC704710B450E8002F002A2D
:100FC40002D04FF0000402E04FF001040A4640E86A
:100FD4000023012BF1D0204610BC704710B450E818
:100FE400002F002A02D04FF0000403E04FF0010468
:100FF40002F1010240E80023012BF0D0204610BC8E
:10100400704710B450E8002F002A04D04FF00004B9
:1010140002F1FF3201E04FF0010440E80023012B0C
:10102400F0D0204610BC704772B60A484AF2A001BC
:10103400018009484FF0F0010170002080F3098815
:1010440006484FF0805101604FF0010080F314888E
:1010540062B6704722ED00E01FED00E004ED00E011
:101064001EF0040F0CBFEFF30880EFF30980A0F12A
:10107400200080E8F00F39460AF0B6BDEFF3058092
:101084007047000008B5FFF7F9FFA0F10F02054B08
:1010940053F832300BB1984708BD0146024809F0B5
:1010A40053FDF9E71006002058BC010870B5064648
:1010B4000D461446FFF732FF054941F8356001EB50
:1010C400C5010A7914430C71FFF72FFF70BD00BFEF
:1010D40010060020EFF30980FFF7D4BF72B6EFF3D8
:1010E4000980EFF3088100281EF0040F0CBFEFF312
:1010F4000883EFF309830CBF00220122002868B1A2
:10110400A3F1200383E8F00F1EF0040F0CBF19466F
:1011140018460CBF83F3088883F30988DFF8783016
:101124009847D0E90012836813F0010F0CBF1046F2
:10113400084690E8F00F203082F3088881F309888C
:10114400022B1FD013F4803F0BD1012B00D019E0E8
:1011540080F309884FF0010181F314886FF0020EC7
:1011640018E013F0020F04D14FF0030181F3148847
:1011740003E04FF0000181F3148880F308886FF0D6
:101184000E0E07E080F308886FF0060E4FF00000A3
:1011940080F3148862B67047F9AE000808B500F011
:1011A40093FA08BD38B50C46084D0023C5F8B03194
:1011B400800040F0020000F0FE00FFF7EFFF204641
:1011C400FFF7ECFF0123C5F8B03138BD00802142A0
:1011D40010B5084C0023C4F8B031800000F0FC00C6
:1011E400FFF7DCFFFF20FFF7D9FF0123C4F8B0317C
:1011F40010BD00BF0080214200B583B0012118203A
:1012040000F0FEFF0121084600F0FAFF4FF480537E
:10121400ADF8043010238DF8073003238DF8063021
:1012240001A9064800F048FF054B0122C3F8B0218C
:1012340000F004FA03B05DF804FB00BF000C0140A9
:101244000080214208B510B101280BD008BD21B19E
:101254000B210420FFF7A6FFF8E708210420FFF77D
:10126400A1FFF3E721B10B210C20FFF79BFFEDE772
:1012740008210C20FFF796FFE8E738B54FF4E13377
:1012840093FBF1F1C1F30725CCB210B101280DD0C5
:1012940038BD80210320FFF785FF21460020FFF79A
:1012A40081FF29460120FFF77DFFF1E780210B2014
:1012B400FFF778FF21460820FFF774FF294609202D
:1012C400FFF770FFE4E708B5202912D0302912D0C7
:1012D40010290CD0002182B1012A11D0012B15D084
:1012E400022B18D07BB1D8B101281ED008BD012132
:1012F400F1E70221EFE70321EDE721F00401EDE737
:1013040041F00401EAE721F00801ECE721F03001A3
:1013140041F00801E7E721F0200141F01801E2E77C
:10132400C9B20320FFF73EFFE0E7C9B20B20FFF785
:1013340039FFDBE730B585B0142000F0F5F9FFF78D
:101344005BFF80210120FFF72DFF142000F0ECF952
:1013540080210320FFF726FF0C210020FFF722FF46
:1013640000210120FFF71EFF01210220FFF71AFFD1
:1013740003210846FFF716FF01210846FFF712FF75
:1013840008210420FFF70EFF80210920FFF70AFF40
:10139400142000F0C9F980210B20FFF703FF01217D
:1013A4000820FFF7FFFE00210920FFF7FBFE0121C3
:1013B4000A20FFF7F7FE03210B20FFF7F3FE0121BC
:1013C4000920FFF7EFFE08210C20FFF7EBFE1420A5
:1013D40000F0AAF90220FFF7FBFE0A20FFF7F8FE4F
:1013E4004024ADF8004048238DF80330144D69467D
:1013F400284600F061FE2146284600F0BDFE062185
:10140400022000F0BBFE019400258DF808500C2347
:101414008DF8093001248DF80A4001A800F008FD78
:1014240017238DF80C3002238DF80D308DF80E50F3
:101434008DF80F4003A800F0A3FC204605B030BD92
:101444000010014038B504460D4671B10520FFF780
:10145400BFFE10F0200FF9D014F8011B0020FFF795
:10146400A1FE6B1E13F0FF05F0D138BD38B504465C
:101474000D4671B10D20FFF7ABFE10F0200FF9D02F
:1014840014F8011B0820FFF78DFE6B1E13F0FF05F7
:10149400F0D138BD70B506460520FFF799FE10F06F
:1014A4001E0414D10520FFF793FE10F0010FF9D0AC
:1014B4000020FFF78DFE307001360134E4B20520C0
:1014C400FFF786FE10F0010FF2D1204670BD002018
:1014D400FFF77EFE0024F8E770B506460D20FFF7FF
:1014E40077FE10F01E0414D10D20FFF771FE10F0EA
:1014F400010FF9D00820FFF76BFE3070013601347C
:10150400E4B20D20FFF764FE10F0010FF2D1204683
:1015140070BD0820FFF75CFE0024F8E710B5022038
:10152400FFF756FE10F0010F35D100F03F030C2BEE
:1015340031D8DFE803F00730303022302D3030303E
:1015440030303F000620FFF743FE044601460020EA
:10155400FFF728FE302C1ED0112C09D0222C1AD1D2
:101564000020FFF735FE01460020FFF71BFE12E0C6
:10157400AA210020FFF716FE0DE02248FFF78AFF9C
:10158400214B1B683BB182B21E490020984702E000
:101594000520FFF71DFE0A20FFF71AFE00F03F03A7
:1015A40010F0010F05D1062B1CD00C2B1ED0042BE0
:1015B4000CD010BD1348FFF76DFF134B1B68002BB5
:1015C400E9D082B20F4900209847E4E70F48FFF7BB
:1015D40083FF0F4B1B68002BEBD082B20B49012019
:1015E4009847E6E70D20FFF7F3FDE2E70748FFF72A
:1015F40073FF074B1B68002BDBD082B20349012029
:101604009847D6E7F0070020E807002010080020DC
:10161400EC07002008B5402000F050FC10B908BDCC
:10162400FFF77CFF4021044800F09FFD0028F7D01D
:10163400402000F053FCF2E70010014030B587B0C1
:101644000121092000F0DCFD01214FF4804000F06D
:10165400E5FD4FF46045ADF8145018238DF81730AC
:1016640003238DF81630174C05A9204600F024FDFD
:101674002946204600F080FD0023ADF800304FF4E9
:101684008272ADF80220ADF80430ADF80630ADF842
:1016940008304FF40072ADF80A201022ADF80C2087
:1016A400ADF80E300723ADF81030A4F55444694664
:1016B400204600F02DFE0121204600F050FE07B028
:1016C40030BD00BF000C014038B50546002402219E
:1016D4000F4800F057FE034620B90134E4B2C82C89
:1016E400F5D913E029460A4800F047FE00240121F9
:1016F400074800F047FE034620B90134E4B2C82C81
:10170400F5D903E0024800F03AFEC3B2184638BDEA
:10171400003800400138FDD1704708B500EB4000A7
:101724008000FFF7F7FF08BD08B54FF47A7303FB99
:1017340000F0FFF7F2FF08BD4FF0C843A3F8FE0026
:10174400B3F8000180B270474FF0C843A3F8FE001D
:10175400A3F80011704710B50C4640F040010C206E
:10176400FFF7F2FFE1B20D20FFF7EEFF210A0E2092
:10177400FFF7EAFF0A210B20FFF7E6FF3220FFF70D
:10178400D3FF00210B20FFF7DFFF10BD10B5282089
:10179400FFF7D2FF04462920FFF7CEFF44EA0024D6
:1017A4002A20FFF7C9FF44EA00442B20FFF7C4FFB7
:1017B40044EA006010BD10B500210C46082809D881
:1017C400DFE800F022140808051808081D00412469
:1017D4004FF480710020FFF7BEFF21460420FFF77D
:1017E400BAFF00211F20FFF7AFFF10BD81244FF483
:1017F4000051EFE740F201144FF40451EAE740F2DC
:10180400E1144FF48051E5E721240021E2E738B5E3
:101814000546002406E0295D04F11000FFF794FF5B
:101824000134E4B2052CF6D938BD38B50546002498
:1018340006E0295D04F11600FFF786FF0134E4B2E7
:10184400072CF6D938BD000070B51A4E0024C6F82E
:10185400A0410A20FFF768FF0125C6F8A0516420C3
:10186400FFF762FF29461E20FFF76EFF21461F2067
:10187400FFF76AFF03212046FFF766FF1920FFF7F1
:1018840053FF0020FFF758FF10F0010FF6D100219D
:101894000846FFF759FF03210020FFF755FF1920E1
:1018A400FFF742FF0020FFF747FF10F0010FF6D1CA
:1018B40070BD00BF0000244238B504466E4B5A691F
:1018C40042F480725A619A6942F020029A619A69DC
:1018D40042F040029A619A6942F080029A619A69E0
:1018E40042F480729A61654A536865491940654BB0
:1018F4000B435360536803F0FF2343F0BB1313609F
:1019040002F5806253684FF0BB335360136823F0D1
:10191400704343F03043136002F58062536823F44C
:10192400700323F4704343F4300343F400435360DF
:1019340055494B6823F0FF0343F0B3034B60D3686E
:1019440043F40063D36001220B21052000F0D6FD8F
:10195400022328220021012000F0AAFD00222921CF
:101964004A48FFF7A3FB4FF0204300229A60DA6055
:101974004748C260996841F480519960996841F080
:1019840010019960D96841F44071D960D968D9606F
:10199400D96841F00101D9606FF07041C160996864
:1019A40041F0010199603B4BD3F8E8173A4B08200A
:1019B40018705A8081205870022018715A719A71D7
:1019C4000A0CDA710A0A1A725972FF229A72DA72CE
:1019D4001A735A739A73DA731A745A74FFF734FFCA
:1019E4009620FFF7A1FEFFF7D1FE2C4B984241D180
:1019F4000CB920463FE0284C254615F8040BFFF7A8
:101A0400DAFE00210846FFF79FFE00210220FFF7BF
:101A14009BFE3F210820FFF797FE38210920FFF79E
:101A240093FE00210A20FFF78FFE00212F20FFF7ED
:101A34008BFE2C210120FFF787FE0F21FE20FFF7EC
:101A440083FE80212D20FFF77FFE2846FFF7DFFE6F
:101A540004F10A00FFF7E9FE31210520FFF774FEC7
:101A64008021FF20FFF770FE6178FF20FFF76CFEF6
:101A7400002000E0012038BD0010024000140140A5
:101A840000F0FF00BB0B00BB00200140451D000817
:101A9400000100A000F0FF1F30080020460A00905B
:101AA40010B582B004464FF0FF31324B186808F08D
:101AB400CFFE8021FF20FFF747FE4FF0C843F822F6
:101AC400A3F8FE20234600210A460EE09DF80510E7
:101AD4009DF8042042EA01224FF0C841A1F80021F8
:101AE4000246002101E01B680022BBB1B3F80AC022
:101AF4009445F8D9501C80B201F1010C5FFA8CFCBA
:101B0400D3F804E01EF802200831694401F8042CDB
:101B1400BCF1020FDAD061460246E6E7012921D082
:101B2400217AFC20FFF710FE2189090AFD20FFF726
:101B34000BFE01210220FFF707FEFE20FFF7FCFD4C
:101B440010F0020FF9D00221FE20FFF7FDFD0A4B31
:101B54005978FF20FFF7F8FD064B186808F0BEFE21
:101B640002B010BD9DF804204FF0C843A3F8002133
:101B7400D6E700BF480800203008002010B582B026
:101B84004FF0FF31564B186808F062FE51E055489B
:101B940008F0DAFF00210520FFF7D6FD8021FE20A2
:101BA400FFF7D2FD4E4B186808F098FE002493E02E
:101BB4004FF0C841B1F8001122F8021B023B002B80
:101BC400F6DC006848B142684389F8E74FF0C84240
:101BD400B2F80021023B002BF8D1BDF8063013F413
:101BE4003F4F0AD1BDF804309BB23F2B05D9BDF855
:101BF40004309BB2B3F5C06F6AD93B4808F0A4FF28
:101C0400BDF8063013F4807F40D1BDF8063013F4DC
:101C1400007F3FD1BDF8063013F4004F3ED1BDF82C
:101C240004309BB2B3F5C06F3CD814B1204614F015
:101C3400C5F9F020FFF780FD4FF0C843B3F8003139
:101C4400DBB2002B39D0012BA1D84FF0C843F222CC
:101C5400A3F8FE20B3F8002192B2ADF80620B3F841
:101C640000319BB2ADF80430BDF804104FF4C172DA
:101C740089B2002014F00AFA04460028A2D11B48B5
:101C840008F062FFBDF804309BB2A4E7184808F0DE
:101C94005BFFBAE7174808F057FFBBE7164808F0A0
:101CA40053FFBCE7154808F04FFF01210020FFF760
:101CB4004BFD0520FFF738FDB7E70221FE20FFF7B3
:101CC40043FD81210E4B5970FF20FFF73DFD002499
:101CD400034B186808F002FE204602B010BD00BF96
:101CE4004808002068BC0108A0BC01088CBC01089D
:101CF400ACBC0108BCBC0108CCBC0108E0BC0108B8
:101D04003008002038B54FF0C843B3F8FE50ADB2E8
:101D1400FE20FFF711FD04460146FE20FFF714FDE7
:101D240014F0010F04D14FF0C843A3F8FE5038BD9E
:101D3400024B186808F090FEF5E700BF4408002045
:101D440008B54FF4006000F0B9F800B908BD4FF4CD
:101D5400006000F0C3F801E0FFF7D4FF024BD3F8B2
:101D64002C31002BF8D0F1E70080234240F0BF6013
:101D740040F40030014BD860704700BF00ED00E034
:101D8400C378FBB1154BDA68D243C2F30222C2F125
:101D9400040C0F2323FA02F2417801FA0CF1837840
:101DA40013400B431B010278DBB20D490A4482F84D
:101DB4000033037803F01F005B090122824041F8DD
:101DC40023207047037803F01F015B0901228A4036
:101DD4002033034941F82320704700BF00ED00E0A1
:101DE40000E100E008B5012000F026FA002000F030
:101DF40023FA08BD82B000230193044B0193019B95
:101E040018440190019B196002B07047006C0040B7
:101E140082B000230193054B0193019B1844019068
:101E2400019B188880B202B0704700BF006C00406C
:101E34008379002B35D010B41F4B1A68016822EA4D
:101E440001021A605A68016822EA01025A600279A2
:101E540002F1804202F58232116804682143116064
:101E64009A68016822EA01029A60DA68016822EA43
:101E74000102DA604379102B09D003F1804303F5A2
:101E840082331A6801680A431A6010BC70470A4B0F
:101E94009A6801680A439A60DA6801680A43DA605A
:101EA400F3E7037903F1804303F582331A68016889
:101EB40022EA01021A60704700040140064A1368CE
:101EC40003405269024202D01BB90020704700202F
:101ED40070470120704700BF00040140014B586166
:101EE400704700BF00040140014BD860704700BF39
:101EF400002002400B4BDB6813F0010F0BD1094BA0
:101F0400DB6813F0040F08D1064BDB6813F0100FE5
:101F140005D0032070470120704702207047042039
:101F2400704700BF0020024010B50446FFF7E2FFEF
:101F340002E0FFF7DFFF013C012801D1002CF8D1BA
:101F440004B110BD0520FCE738B504464FF4302039
:101F5400FFF7EAFF042800D038BD0A4D2B6943F08F
:101F640002032B616C612B6943F040032B614FF436
:101F74003020FFF7D9FF2B6923F00203DB04DB0CCD
:101F84002B61E9E70020024070B504460D464FF48A
:101F94000050FFF7C9FF042800D070BD084E336914
:101FA40043F00103336125804FF40050FFF7BCFF79
:101FB400336923F00103DB04DB0C3361EDE700BF7D
:101FC40000200240436882681343C26813430269D5
:101FD40013434269134382691343C2691343026A78
:101FE4001343426A1343826A1343C26A1343026B64
:101FF400016813434FF0204242F821308368082BD4
:1020040025D0426B1368516843EA0113916843EA8F
:102014000123D16843EA0143116943EA0153516939
:1020240043EA01639169026801320B434FF0204196
:1020340041F82230C36AB3F5804F10D003689B0087
:1020440003F120436FF07042C3F804217047016824
:1020540052F8213043F0400342F82130D1E7826B3B
:102064001368516843EA0113916843EA0123116933
:1020740043EA0153516943EA0163916902680B43DE
:10208400920002F12042C2F80431704741B14FF08E
:10209400204252F8203043F0010342F820307047C8
:1020A4004FF0204252F82010024B0B4042F82030EF
:1020B400704700BFFEFF0F0030B5CB7803F00F026E
:1020C400964613F0100F03D091F802E04EEA020E88
:1020D4000B7803B30468002301E042610133072B4A
:1020E40018D801229A40B1F800C032EA0C05F5D1A3
:1020F4004FEA830C0F2505FA0CF524EA05040EFAC1
:102104000CFC4CEA0404CD78282DE6D0482DE5D10A
:102114000261E3E704600B88FF2B25D944680023A0
:1021240003E0CD78482D1CD00133072B1BD803F1D5
:10213400080C012202FA0CF2B1F800C032EA0C05D4
:10214400F2D14FEA830C0F2505FA0CF524EA0504B5
:102154000EFA0CFC4CEA0404CD78282DE1D142613E
:10216400DFE70261E0E7446030BD8368194201D0D3
:1021740001207047002070470161704710B401F0DE
:10218400030292000F2404FA02FC8908074B02316F
:1021940053F8214024EA0C0443F8214053F8214029
:1021A4009040044343F8214010BC704700000140B4
:1021B400014B1862704700BF00000E42014BC3F888
:1021C4008004704700004242024A136A03431362C8
:1021D400704700BF00100240014BC3F83C04704735
:1021E4000000424221B1054A5369184350617047C7
:1021F400024A536923EA000050617047001002400C
:1022040021B1054A9369184390617047024A936962
:1022140023EA0000906170470010024021B1054A92
:10222400D3691843D0617047024AD36923EA000096
:10223400D061704700100240014BC3F8400470475E
:10224400000042424309012B0CD0022B0DD0094B54
:102254005A6A00F01F00012303FA00F0104207D06D
:1022640018467047034B1A68F3E7024B1A6AF0E703
:10227400002070470010024029B1064A13889BB21F
:10228400184310807047034B1A88C04380B2104033
:102294001880704700280040034A93889BB243F09B
:1022A40010039380704700BF00280040034A9388BE
:1022B4009BB223F010039BB2938070470028004028
:1022C40010B50446FFF7E8FFC4F30342034B1A8139
:1022D400A4B29C81FFF7EAFF10BD00BF00280040B4
:1022E400024B9B8813F0200FFAD07047002800405F
:1022F400064A93889BB223F008039BB29380034B56
:102304009B8813F0080FFAD0704700BF00280040E4
:102314002DE9F041038803F441520F88B1F802809B
:102324008E88CD880C89B1F80AE0B1F80CC0CB894D
:1023340047EA08073E4335432C434EEA040E4CEA71
:102344000E0C43EA0C0313430380838B9BB223F4E8
:1023540000639BB283830B8A0382BDE8F08129B1B9
:1023640003889BB243F040030380704703889BB209
:1023740023F040039BB203807047818170478089BA
:1023840080B270470389194201D0012070470020B0
:102394007047000003889BB2214A904212D002F594
:1023A400006290420ED0B0F1804F0BD0A2F598326B
:1023B400904207D002F58062904203D002F5806219
:1023C400904203D123F070034A881343154A904284
:1023D40008D002F58062904204D023F440739BB28B
:1023E400CA88134303808B8883850B8803850C4B31
:1023F40098420FD003F5006398420BD003F5406375
:10240400984207D003F58063984203D003F58063B4
:10241400984201D10B7A038601238382704700BF5F
:10242400002C01400010004029B103889BB243F006
:1024340001030380704703889BB223F001039BB21E
:102444000380704722B183899BB21943818170470D
:102454008389C94389B2194081817047028A83897B
:102464000B40114202D01BB9002070470020704776
:1024740001207047C94389B2018270477047FEE763
:10248400FEE7FEE7FEE77047C3431B0203F4E06385
:102494000649CA6822F4E0621204120C42F0BF62D8
:1024A40042F400321343CB60704700BF00ED00E0FC
:1024B400F8B506460C4615461F461846FFF7E4FFD6
:1024C400C7F1040086400F2343FA07F73C40344326
:1024D4001C406809084B53F8202005F01F06012111
:1024E400B1400A4343F820202B4493F8002342EAE6
:1024F400041483F80043F8BD00E100E030B58B0814
:1025040001F0030C4FEA8C0C164DAC6944F0010445
:10251400AC61154C023354F823504FF00F0E0EFAF1
:102524000CFE25EA0E0544F8235054F8235000FA13
:102534000CF0054344F8235004F58064206801231B
:1025440003FA01F10843206012F0010F02D0E3689E
:102554000B43E36012F0020F03D0044B9A6811435B
:10256400996030BD001002400000014000040140A9
:1025740082B00023019300932C4A136843F4803300
:1025840013602A4B1B6803F400330093019B01334F
:102594000193009B1BB9019BB3F5A06FF1D1234BB1
:1025A4001B6813F4003F06D001230093009B012B0A
:1025B40004D002B0704700230093F7E71C4B1A685D
:1025C40042F010021A601A6822F003021A601A68B4
:1025D40042F002021A60A3F580535A685A605A689E
:1025E4005A605A6842F480625A605A6822F47C1233
:1025F4005A605A6842F4E8125A601A6842F08072CB
:102604001A600A4B1B6813F0007FFAD0074B5A6814
:1026140022F003025A605A6842F002025A60034BE5
:102624005B6803F00C03082BF9D1C2E700100240E9
:102634000020024008B5FFF79BFF08BD08B5104B0A
:102644001A6842F001021A6059680E4A0A405A6038
:102654001A6822F0847222F480321A601A6822F412
:1026640080221A605A6822F4FE025A604FF41F0254
:102674009A60FFF7DFFF044B4FF000629A6008BDD9
:10268400001002400000FFF800ED00E008B518F06B
:10269400ADFE024818F06CFE08BD00BF4C080020D7
:1026A40010B54FF0C00C80F806C0A821C1710322F8
:1026B40002724FF0010E80F809E0104B1C7904708F
:1026C4005C7944709C798470DC79C4701C7A0471E0
:1026D4005B7A437180F80AC0C17202737823437332
:1026E400FF238373C37303740023437480F812C0FD
:1026F400C174027580F815E0837510BD30080020A0
:1027040008B5054B18680BF0D1FE044B186008B1EE
:10271400002008BD0120FCE70C5C020800B1002089
:1027240008B50121002008F017F9074B186008F0DC
:1027340085F8064B18600120FFF7BEF800B908BD04
:102744004FF0FF30FBE700BF44080020480800209A
:1027540030B589B0FFF7D4FF18B10125284609B078
:1027640030BD05460021084610F0AEF8464C204620
:10277400FFF796FFA27AE37A1B0443EA0263227B03
:1027840043EA0223617B0B431A0202F47F0242EA0A
:102794000162190A01F47F410A4342EA1363079371
:1027A400A27BE37B1B0443EA0263227C43EA022309
:1027B400617C0B431A0202F47F0242EA0162190AA5
:1027C40001F47F410A4342EA13630693A27CE37C4B
:1027D4001B0443EA0263227D43EA0223617D0B4327
:1027E4001A0202F47F0242EA0162190A01F47F41EB
:1027F4000A4342EA13630593E378227961790291EB
:1028040001920093A37862782178204808F09CF91B
:10281400637B0093237BE27AA17A1D4808F094F944
:10282400637C0093237CE27BA17B1A4808F08CF93B
:10283400637D0093237DE27CA17C174808F084F932
:10284400164B0293164B01930023009305AB06AA83
:1028540007A9144813F0DCF930B1124C204613F0E8
:1028640067FA204613F06AFA0F4B049304A9002078
:1028740011F06CF8062300934FF4006300220B4917
:102884000B480CF06BF869E77C080020F4BC0108E5
:102894002CBD01085CBD01088CBD01088528010818
:1028A400A9B301084C080020DF050505912600089E
:1028B400BCBD0108104B9B8813F0010F02D00F4BD5
:1028C40000221A600C4B9B8813F0020F06D00A4AB0
:1028D40093889BB223F002039BB29380064A9388A9
:1028E40023F005031B051B0D9380034B9B8813F0FA
:1028F400200FFAD0704700BF002800409408002041
:1029040010F0030F14D10D4BA3FB00235B096422C9
:1029140002FB13039BB26BB9084BA3FB0023DB0937
:102924004FF4C87202FB130080B228B9012070472B
:102934000020704701207047002070471F85EB512D
:102944002DE9F04798469DF82070A0F2B2739BB22F
:10295400812B6ED806468A469146002440F2B27511
:1029640007E004F1F07404F5993404F5C0740135FA
:10297400ADB2B54209D22846FFF7C2FF0028F0D015
:1029840004F1F17404F50544F1E70AF1FF3A5FFA42
:102994008AFA002501E00135ADB21FFA8AF3AB4291
:1029A40010D9254B5B5D254A02FB03443046FFF7F3
:1029B400A7FF0028EFD0012DEDD104F5A83404F5CC
:1029C400C074E8E709F1FF391C4B03FB09444FF4D9
:1029D400616303FB0844C7EB071704EB87049DF806
:1029E40024301C44164BDA6942F08052DA61DA6909
:1029F40042F00062DA61134A136843F4807313608F
:102A0400A2F5904293889BB243F010039380A3B243
:102A14009383240C148393889BB223F010039BB2FA
:102A24009380094B9B8813F0200FFAD00020BDE857
:102A3400F0874FF0FF30FAE7CCBD01088051010068
:102A440000100240007000400028004010B584B01F
:102A540001214FF0C050FFF7E1FB0120FFF7A8FB75
:102A64000120FFF7ABFB0420FFF7D2F945F2500336
:102A740098423DD0FFF7B6F9002404E00134E4B2F3
:102A84000A20FEF751FE6120FFF7DCFB0028F5D099
:102A9400F92C01D9012047E04FF40070FFF794FBB3
:102AA4000120FFF799FBFFF71BFCFFF721FC012135
:102AB4000846FFF7E1FBFFF713FCFFF7EDFB49F6D0
:102AC4004040FFF7FDFBFFF70BFC002301931223AB
:102AD40000930D231B22022140F2E670FFF730FF22
:102AE400FFF7E4FB45F250010420FFF783F907E008
:102AF400FFF7FEFB01210846FFF7BEFBFFF7F0FBE3
:102B0400002204210948FEF7D1FA03238DF80C3082
:102B140001238DF80D3000248DF80E408DF80F3010
:102B240003A8FFF72DF9204604B010BDB92800080A
:102B3400124BDA6942F08052DA61DA6942F00062DB
:102B4400DA610F4A136843F480731360A2F590426C
:102B540093889BB243F01003938083B29383000C59
:102B6400108393889BB223F010039BB29380054B90
:102B74009B8813F0200FFAD0704700BF001002406A
:102B84000070004000280040034B188B9B8B9BB2C5
:102B940003EB0040704700BF00280040054B1B6852
:102BA400B3F57A7F02D8034B186870474FF47A70F4
:102BB400704700BF9408002010B598B001214FF46D
:102BC400F070FFF71DFB01214FF48070FFF70AFB43
:102BD4004FF63373ADF8043018238DF8073003240F
:102BE4008DF8064001A92048FFF766FA4FF6837373
:102BF400ADF8043001A91D48FFF75EFA4FF23F0318
:102C0400ADF8043001A91A48FFF756FA40F23F43E1
:102C1400ADF8043001A91748FFF74EFA00230293D8
:102C24000393049405930693079308930424099447
:102C34000A930B9310220C920D930F930E931093FF
:102C440011934FF48052129213931493159302AB81
:102C54001693179309A8FFF7B5F901212046FFF74A
:102C640015FA18B010BD00BF00140140001801404F
:102C7400001C014000200140002304E09A0002F1FE
:102C8400D04213600133B3F5802FF7DB0023B3F593
:102C9400802F07DA9A0002F1D04212689A4203D1D7
:102CA4000133F4E7002070474FF0FF307047000015
:102CB40008B501210648FFF7D1FB00B908BD054A54
:102CC40013680133136001210148FFF7D3FBF5E7D3
:102CD400000400409408002070B584B005460C46FA
:102CE40001210220FFF79AFAADF80850ADF804402C
:102CF4000024ADF80A40ADF80640114D01A928465C
:102D0400FFF748FB012211462846FFF79BFB1D23D2
:102D14008DF8003003238DF801308DF80240012630
:102D24008DF803606846FFF72BF831462846FFF715
:102D34007BFB22461E210348FEF7B8F904B070BDA0
:102D440000040040B52C00080B480C490C4A002331
:102D540002E0D458C4500433C4188C42F9D3094A4D
:102D6400094C002301E013600432A242FBD3FFF7B5
:102D740065FC0BF023F9704700000020600500207B
:102D8400707C02080006002084B1002038B5044697
:102D9400094D0A4B6B6003F188336B603420FFF7F5
:102DA400A3F804F580308030C002FFF7CDF82B691A
:102DB40043F080032B6138BD0020024023016745A6
:102DC40000B583B0002002F02DF9002811DB4FF488
:102DD400006301930323009380230B4A0B490020D3
:102DE40002F0B0F900280CDB094B186803B05DF859
:102DF40004FB002207490848FDF758FB4FF0FF3059
:102E0400F4E74FF0FF30F1E704000020E4BD0108CF
:102E140098080020FF010300D8BD010808B5034944
:102E2400034B186802F0C4F908BD00BFE4BD0108F3
:102E340098080020F8B505460F461646002407E01A
:102E440037F814102846FFF79FF802350134A4B26E
:102E5400B442F5D3F8BD000010B5094C094B6360CA
:102E640003F18833636000F5803080304FF4806272
:102E7400C002FFF7DFFF236943F08003236110BD25
:102E84000020024023016745008880B27047F8B5EE
:102E940005460F461646002407E02846FFF7F4FFD0
:102EA40027F8140002350134A4B2B442F5D3F8BDB6
:102EB40008B500F5803080304FF48062C002FFF71F
:102EC400E6FF002008BD18467047000008B5064A12
:102ED4000649062002F0F8F8002801DB002008BDAE
:102EE4004FF0FF30FBE700BF10000020ECBD0108ED
:102EF40010B510461C461A4600210AF0B1FA2046C5
:102F040010BD000008B50349062002F0FBF80020BC
:102F140008BD00BFECBD010809890023024A42F83C
:102F24002130024A13607047A00800209C0800204A
:102F34002DE9F0410E461546012806D050B90D4B37
:102F4400D3F8008008F1440704E00A4BD3F8048066
:102F540008F14407002404E0315D384600F028FD00
:102F64000134A542F8DCD8F8400008F03DF8BDE88B
:102F7400F08100BFA008002030B583B004460025CE
:102F840005E001210DF10700FEF75CFA01350DF1B2
:102F9400070104F5A67000F069FD002808DBE36A68
:102FA400002BEED101210DF10700FEF75FFAEDE7EA
:102FB400284603B030BD000038B51C68C16A002B38
:102FC40000F0B18041B90125012A07D0022A00F09E
:102FD400A3806FF02500A8E00025F5E741F20F0378
:102FE400234024D00F2B11D9B3F5805F1FD9A3F54B
:102FF4008053013B0E2B1AD8DFE803F044194A50E2
:10300400565B60666B70757A7F8489000F2B0ED8CF
:10301400DFE803F08C8C8C8C8C8C8C8C8C8C8C08E6
:1030240020262C324FF416612846FEF726F9C4F305
:103034000023C4F3801204F030012846FEF743F95C
:10304400E10F2846FEF7FEF83A4B43F825406FF0AF
:1030540025006AE04FF496512846FEF70EF9E6E79C
:103064004FF416512846FEF708F9E0E74FF496416D
:103074002846FEF702F9DAE74FF416412846FEF730
:10308400FCF8D4E74FF461412846FEF7F6F8CEE7A2
:103094004FF461312846FEF7F0F8C8E74FF4E12118
:1030A4002846FEF7EAF8C2E723492846FEF7E5F882
:1030B400BDE722492846FEF7E0F8B8E74FF461215E
:1030C4002846FEF7DAF8B2E71D492846FEF7D5F898
:1030D400ADE71C492846FEF7D0F8A8E71A49284668
:1030E400FEF7CBF8A3E719492846FEF7C6F89EE792
:1030F40017492846FEF7C1F899E716492846FEF70E
:10310400BCF894E714492846FEF7B7F88FE713494B
:103114002846FEF7B2F88AE7064A52F825201A60D4
:103124006FF0250001E06FF0150038BD6FF0250049
:10313400FBE700BFA808002020A1070000CA080080
:1031440040420F000094110060E3160080841E00CA
:10315400A0252600C0C62D00E067350000093D000B
:1031640010B504460A4B1B683BB120460AF089FAA5
:10317400C1B22046FEF77AF910BDFEF7DBF8002253
:1031840018210448FDF792FF034B044A1A60ECE748
:103194009C08002019160008EC070020352F0008B1
:1031A400174B1B680BB10020704770B504460D46E1
:1031B4000126134B1E60FEF7BDF8124B124A1A602B
:1031C400002218211148FDF771FFE36A9B1B18BF09
:1031D40001230F4A42F82340A1680E4A42F8231003
:1031E4000D49A1630D4961630D49E16302EB83035A
:1031F400324629462046FFF7DFFE002070BD00BF9F
:103204009C080020EC070020352F00081916000840
:10321400A0080020A80800207D2F00081D2F00080A
:10322400BD2F000880B2022805DC044B4FF45A720B
:1032340002FB003070470020704700BFD408002014
:1032440010B58868040C042C14D11FFA80FCBCF15E
:10325400020F12DC0D484FF45A7404FB0C0090F872
:1032640066436CB10CEB4C0C094C54F82C4054B133
:10327400A04710BD6FF01200FBE76FF01200F8E7F3
:103284006FF01200F5E76FF01200F2E7D4080020A7
:10329400B008002010B58868040C042C16D11FFA5D
:1032A40080FCBCF1020F14DC0E484FF45A7404FB8A
:1032B4000C0090F866437CB10CEB4C0C0A4C04EB0C
:1032C4008C0CDCF8044054B1A04710BD6FF0120020
:1032D400FBE76FF01200F8E76FF01200F5E76FF00C
:1032E4001200F2E7D4080020B008002038B58C683A
:1032F400220C042A16D1A4B2022C13DC0F484FF47A
:103304005A7303FB040090F866335BB1012B0AD0B7
:103314000A4B4FF45A7202FB043393F86623013AC2
:1033240083F8662338BD0546436B9847002129631B
:10333400242228460AF094F8EAE700BFD4080020C3
:10334400F0B585B0044617461E4623E0294B5B6A58
:1033540001930023029304F1400501A9284607F0D4
:103364005BFE07F0ABFC07F077FC01A9284607F0E9
:1033740061FE07F059FC0DE02046984794F8653348
:10338400D3B9E26A1C4B4FF45A7101FB02339B6BB5
:1033940020469847D4F84411D4F84831C91A11F09A
:1033A400FF0FD3D0E16A01EB4101144B03EB810120
:1033B4008B68002BE0D1E1E7002584F8655303E036
:1033C4009DF80F307B550135B54207DA0DF10F0139
:1033D40004F5157000F04AFB0028F1DAE26A064BA6
:1033E4004FF45A7101FB02339B6B204698472846E1
:1033F40005B0F0BD38250020D4080020B008002016
:1034040070B505460C46466816F0010F1AD016F042
:10341400020F07D008460AF0A8FA18B120460AF0AD
:103424003CFAC4B216F0040F01D00A2C10D06B6819
:1034340013F0080F01D00D2C10D013F4C05F01D08D
:10344400092C15D0214605F5A67000F0B1FA70BD1F
:103454000D2105F5A67000F0ABFAE8E713F0200F94
:1034640004D00022C5F85C230A24E6E70A24E4E732
:103474002024E7E7F8B5054617461E46002404E075
:10348400395D2846FFF7BCFF0134B442F8DBAB6B6F
:10349400284698472046F8BD30B583B0044600F569
:1034A40015750A21284600F0A0FA10B9002003B0CF
:1034B40030BD0DF10701284600F0B9FA0028F5DB0C
:1034C40008212046FFF79CFF20212046FFF798FFA4
:1034D40008212046FFF794FFD4F85C33002BE5DD88
:1034E400013BC4F85C33E1E7F0B583B00446C3683C
:1034F40013F0020F40F0C78003B0F0BD002104F5C3
:10350400157000F055FABEE0236813F0200F05D0C3
:103514009DF8073003F07F038DF80730236813F01C
:10352400800F4ED09DF807300D2B00F0AC8023683F
:1035340003F4C073B3F5807F4ED0236813F4007F87
:103544000AD09DF8075028460AF021FA20B12846EF
:103554000AF09DF98DF80700E56815F0080F00F0F2
:10356400C58015F4007F11D09DF8077038460AF025
:10357400EFF958B1637E9F4208D0A37E9F4205D0E5
:10358400092F03D00A2F01D0252F2DD915F0020FB2
:103594003FD015F0100F04D0E27C9DF807309A421A
:1035A4002ED015F4006F2FD115F0200F31D0227DCD
:1035B4009DF807309A422CD10A212046FFF720FFBC
:1035C40061E013F0400FB2D09DF807300A2BAED162
:1035D4000D238DF80730AAE79DF807300D2BACD1E9
:1035E4000A238DF80730A8E75E212046FFF708FF7D
:1035F4009DF807104031C9B22046FFF701FF0DE0E6
:103604002046FFF749FF3EE0227D9DF807309A42AD
:103614006AD09DF807102046FFF7F2FEE76817F01E
:10362400010F0BD0627C9DF807309A426AD0A27CCD
:10363400934276D0E27E934200F082809DF8075058
:1036440028460AF085F9002840F08580D4F85C33D8
:103654000133C4F85C3317F0020F0FD00A2D00F0C9
:103664008180237F9D427DD094F821309D4279D082
:10367400637D9D4276D0002384F86533294604F5A2
:10368400157000F095F904F144060DF10701304678
:1036940000F0ECF9B0F1FF3F3FF42EAF94F864333F
:1036A400002B3FF431AF236813F0040FEBD113F078
:1036B400080F3FF423AF04F51575FF21284600F0E9
:1036C40077F90021284600F073F99DF80710284681
:1036D40000F06EF9D7E72046FFF7DEFE0135D4F897
:1036E4005C33AB42F7DCCEE70025F8E705F0420592
:1036F400422D93D19DF807100A298FD12046FFF758
:103704007FFE8BE7022007F029FDE36813F0800FAA
:10371400B9D104F5A67000F03FF9304600F03CF949
:10372400B1E7032007F01AFDE36813F0800FAAD174
:1037340004F5A67000F030F9304600F02DF9A2E748
:10374400142007F00BFDE36813F0800F9BD1304683
:1037540000F022F997E70A2D7FF47DAF0023C4F827
:103764005C3378E7637D9D4203D1012384F865339C
:10377400C2E6294604F5157000F01AF9F5E70000D1
:1037840010B50C4624220021204609F069FE1322BC
:10379400084904F1110009F038FE4FF488532360FE
:1037A40041F60503636041F6B243A36048F63B2348
:1037B400E36010BDFCBB0108F8B5438A1A1F012A57
:1037C4002AD80E46052B1AD0048A022C27DC154D64
:1037D4004FF45A7303FB0455134B2B6395F866336C
:1037E4008BB1104B4FF45A7202FB043393F86623E7
:1037F400013283F86623DC621C740020F8BD4FF4A8
:1038040080238B60E0E729460020FFF7B9FF2B6B8C
:10381400314628469847E4E76FF01200EEE76FF070
:103824001200EBE7D4080020A53100088868002BBB
:1038340054D0F0B583B00E4614461F46FFF7F2FC91
:10384400054600284DD0A4F5A842013A132A4BD8C6
:10385400DFE802F00A1B4A4A4A4A4A4A4A4A4A4AA2
:103864004A4A4A4A4A4A2A33C46B3CB101AB02224F
:103874003146A047002801DB019BAB601222294698
:10388400384609F0C2FD00202FE01222394609F023
:10389400BCFDAB680193EC6B4CB301AB0122314628
:1038A4002846A047002020E05023C38425F8243F65
:1038B40003CD38607960002017E07A88C38C9A427F
:1038C40003D13A88838C9A4202D01C2007F046FC2C
:1038D40024353868796803C5002006E06FF01500C8
:1038E40070476FF0180000E0002003B0F0BD002026
:1038F400FBE70000022816D808B549B100EB4000E8
:103904000A4B03EB800307C983E80700002008BDC6
:1039140000EB40000C220021044B03EB800009F073
:103924009FFD0020F3E76FF015007047B0080020FA
:1039340008B50D490020FFF7DDFF0C4A0C490420AF
:1039440001F0C2FB002808DB084A0949052001F000
:10395400BBFB002804DB002008BD4FF0FF30FBE771
:103964004FF0FF30F8E700BF3C0000204800002083
:10397400F4BD010810B500210846FFF7BBFF054C54
:103984002146042001F0BEFB2146052001F0BAFBCC
:10399400002010BDF4BD010810B50446FDF7BEFAC1
:1039A4000023C4F80031C4F80431FDF7BEFA10BD99
:1039B40038B504460D46FDF7B1FAD4F800114B1C96
:1039C4005A42DBB2D2B258BF5342D4F804219342D4
:1039D40006D06554C4F80031FDF7A7FA002038BDBD
:1039E400FDF7A3FA4FF0FF30F9E738B504460D466A
:1039F400FDF794FAD4F80031D4F8042193420CD0A2
:103A0400FF335A42DBB2D2B258BF5342E35CAB42FB
:103A140008D1FDF78AFA002038BDFDF786FA4FF089
:103A2400FF30F9E7FDF781FA4FF0FF30F4E738B5DE
:103A340004460D46FDF772FAD4F80031D4F8042197
:103A440093420ED0FF335A42DBB2D2B258BF534234
:103A5400C4F800310DB1E35C2B70FDF766FA002069
:103A640038BDFDF762FA4FF0FF30F9E738B5044688
:103A74000D46FDF753FAD4F80021D4F804319A42E4
:103A840010D00DB1E35C2B70D4F8043101335A42E9
:103A9400DBB2D2B258BF5342C4F80431FDF745FA41
:103AA400002038BDFDF741FA4FF0FF30F9E7000080
:103AB4002DE9F04786B00F469146684B049305AB59
:103AC40003AA06CA00F0DDFD051EC0F2C3800598F6
:103AD400036A33B1D0F8B83001221A604FB100261E
:103AE4000AE000F041FE5E4807F02EF84FF0FF3583
:103AF400ACE0002604E0013657F82630002BFAD15A
:103B0400059B5A6A1B6A02EB0308032400E0013494
:103B1400072C0DDC534B5B6A04EBC40203EB8203FA
:103B2400D3F8A835002BF2D0204617F0B3FCEEE70B
:103B34000AF06AFDDFF82CA1DAF8240007F0ACFDE6
:103B4400FDF7ECF90446DAF82430D3F83837C3B17A
:103B5400D3F8B8201368013B1360DAF82430D3F8A3
:103B64003827D2F8B8100968002935D0D3F884353D
:103B740013F4807F34D13B4B5B6AD3F838070AF0E7
:103B8400D7FC384BD3F824A0059BCAF83837DAF8A9
:103B9400201081B3DAF8183001F18042013A03EBC6
:103BA4008203CAF82830DAF81C20DAF8243003F14A
:103BB4008043013B02EB8303CAF82C3001BB294B41
:103BC400586A036A43BB022303860023438680F8B2
:103BD40038300364436429E0059800F0C5FDD0E75C
:103BE400506C0AF0A5FC1F4B5B6AD3F83837586D4C
:103BF4000AF09EFCBFE74FF0FF33CAF82830D2E743
:103C0400DAF82800CDF800903B4632464146FDF7ED
:103C140045F9CAF82800D2E701230386D5E703EB68
:103C2400830200EB82020021916401333F2BF6DD15
:103C34000026C0F858650B4B83F8206007F00CF899
:103C44003046FDF76FF92046FDF76FF9284606B0B8
:103C5400BDE8F0874FF0FF35F8E700BF0CBE010860
:103C6400F8BD01083825002008B50AF01FFC08BD7E
:103C740008B50AF01BFC08BD01E0013001310378EE
:103C84002BB10A781AB19342F7D000207047087814
:103C9400834214BF002001207047000030B5018822
:103CA40043888C0AC1F3802C4FEA533EDD0A4FEA65
:103CB4000C6C8EEA912E1EF0010F44D14FF4000ECD
:103CC4004CEA0E0C6C4014F0010F3FD14FF4800409
:103CD4004CEA040C1E4C04EA01344CEA040C40F691
:103CE400FE7E0EEA430E4CEA0E0E1CF0807F01D0DD
:103CF4000EF17E4E121A7244C2F3006412F4000FE5
:103D04000CBF4FF0010E4FF0000E8EEA040E12F4B9
:103D1400800F0CBF4FF0010C4FF0000C8CEA040C28
:103D240001F4784141EA8421C2F30934214301803A
:103D340003F4504343EA4E3343EACC23C2F34A022A
:103D44001A43428030BD4FF0000EB9E70024BFE7AC
:103D540000F03F0008B5262916D00DDC0A290FD043
:103D64001E290DD0022904D103681A4402600020E0
:103D740005E04FF0FF3002E066290AD1002008BDBB
:103D8400FFF78CFF0020FAE703681A440260002062
:103D9400F5E74FF0FF30F2E7836A8B421CD0836B68
:103DA4008B421BD0836C8B421AD0836D8B4219D00B
:103DB400D0F888308B4217D0D0F898308B4215D089
:103DC400D0F8A8308B4213D0836E8B4212D0836F0D
:103DD4008B4211D000207047243070473430704734
:103DE4004430704754307047843070479430704783
:103DF400A4307047643070477430704770B5456FB5
:103E04006DB1D0F8B460B608002406E055F8043B60
:103E140000221146104698470134B442F6DB70BDC7
:103E2400002303E0002200F8012B0133BB2BF9D956
:103E340070472DE9F041044617469846C5690D447C
:103E440001220021006802F0A3FA06460022294656
:103E5400206802F09DFA0546B0F1FF3F06D04246C5
:103E64003946206817F0D2FA054638B9002231469F
:103E7400206802F08DFA2846BDE8F0814FF0FF3546
:103E8400F4E7000010B598B004460068B0F1FF3FB5
:103E940049D034220BA917F0B9FA342841D12B4B5D
:103EA40000939DF82C307F2B3FD19DF82D30452B6E
:103EB4003DD19DF82E304C2B3BD19DF82F30462B15
:103EC40039D19DF83030012B37D1BDF83C30012B6E
:103ED40035D1BDF83E30282B33D1109B012B01D0B6
:103EE400012020E0BDF85E100022139B282000FB77
:103EF4000131206802F04CFAB0F1FF3F13D02822C0
:103F040001A9206817F082FA28281CD1119B23628A
:103F1400BDF85C30A360139BE360059B2361002024
:103F240001E04FF0FF3018B010BD0120FBE7012085
:103F3400F9E70120F7E70120F5E70120F3E7012085
:103F4400F1E70120EFE74FF0FF30ECE77F454C4607
:103F540038B504461546C36801EB8101002203EB22
:103F6400C101006802F014FAB0F1FF3F07D0282223
:103F74002946206817F04AFA282801D1002038BDC4
:103F84004FF0FF30FBE7436ECBB170B58AB0054606
:103F94006A46816EFFF7DCFF044618B96D6E059E14
:103FA400B60808E000BE08E055F8043B00221146BC
:103FB400104698470134B442F6DB0AB070BD70472E
:103FC4002DE9F04104461746984605690D4401223F
:103FD4000021006802F0DCF9064600222946206828
:103FE40002F0D6F90546B0F1FF3F06D04246394605
:103FF400206817F00BFA054638B9002231462068CC
:1040040002F0C6F92846BDE8F0814FF0FF35F4E729
:1040140070B5054614461E46FFF79AFF40B921685D
:1040240001B970BD049B32462846FFF7C9FFF8E783
:104034004FF0FF30F5E72DE9F0418CB004460D4612
:104044001646984601220021006802F0A1F90746AD
:10405400A169002201EB0511206802F099F90546D7
:10406400B0F1FF3F0ED010223146206817F0CEF990
:1040740010281AD1316871B1129B42462046FFF7CD
:10408400D8FE054600223946206802F081F9284608
:104094000CB0BDE8F081129B0093434602AAF1895B
:1040A4002046FFF7B5FF0546ECE74FF0FF35E9E79B
:1040B400F8B50E464568002400E001346B68A3425D
:1040C4000CD92B68E700314653F83400FFF7D4FDD0
:1040D4000028F2D02B681F44786801E04FF0FF30CD
:1040E400F8BD10B50C46C98931B1FFF755FE38B19A
:1040F40000686368184410BD1146FFF7D9FFFAE75A
:104104004FF0FF30F7E700001368002B50D02DE983
:10411400F04393B0054617464E69F6080022096934
:10412400006802F035F9002400E00134B4423BD2C7
:10413400082203A9286817F069F90828F5D11E4A4E
:1041440009AB07CA03C31A800023CDF82E30CDF87B
:104154003230CDF83630CDF83A30CDF83E30CDF8A7
:10416400413004995FFA81F93A68039B02EB030832
:104174002123009309AB05AA090A2846FFF75BFF30
:1041840009AA05A92846FFF7ACFF0246B0F1FF3F94
:1041940007D049464046FFF7DDFDB0F1FF3FC4D1EB
:1041A40000BE4FF0FF3000E0002013B0BDE8F08304
:1041B4004FF0FF30704700BF10BC010870B58AB0E3
:1041C4000546886808B90AB070BD0C4616466A46AA
:1041D40001462846FFF7BCFE18B100BE4FF0FF3081
:1041E400F1E73346224669462846FFF78DFFEAE7A2
:1041F40038B50446184A00F12401FFF7DFFF0546ED
:10420400164A04F134012046FFF7D8FF0543144A47
:1042140004F144012046FFF7D1FF0543114A04F19C
:1042240084012046FFF7CAFF05430F4A04F19401B5
:104234002046FFF7C3FF05430C4A04F164012046FE
:10424400FFF7BCFF05430A4A04F174012046FFF757
:10425400B5FF284338BD00BF5CBE010868BE010835
:1042640074BE010880BE010894BE0108A4BE010802
:10427400B4BE0108006818B108B50AF059F908BDC0
:104284007047F8B507460D46506978B11446012BBE
:104294000FD0127A216AFFF7E7FC28602B6873B10C
:1042A4006268082A1AD16169002010E00026CE60F5
:1042B40012E0127A216AFFF7DBFC2860EEE700BE09
:1042C4004FF0FF3608E0002203F8012B013088424A
:1042D400F9DB6369EB6000263046F8BD00222169F2
:1042E400386802F055F80646B0F1FF3F0BD062691A
:1042F4002968386817F08AF863699842E9D000BEE3
:104304004FF0FF36E8E700BE2846FFF7B3FFE3E7C8
:104314002DE9F8430546884614461F469049104641
:10432400FFF7AAFC50B1D8F81030AB61D8F81430BC
:104334001B096B6101263046BDE8F8838949204694
:10434400FFF79AFC064690B987492046FFF794FC8C
:10435400814688B10023424605F124012846FFF72F
:1043640090FFB0F1FF3FE6D0AF620826E3E7D8F84C
:104374001030EB610426DEE77C492046FFF77CFC25
:10438400064668B10023424605F134012846FFF78A
:1043940078FFB0F1FF3F00F0DA80AF631026CAE780
:1043A40073492046FFF768FC814660B1002342460A
:1043B40005F144012846FFF764FFB0F1FF3FBAD08E
:1043C400AF642026B7E76B492046FFF755FC064645
:1043D40068B10023424605F154012846FFF751FF16
:1043E400B0F1FF3F00F0B580AF654026A3E7624916
:1043F4002046FFF741FC814670B10123424605F196
:1044040084012846FFF73DFFB0F1FF3F93D0C5F884
:1044140088704FF400468EE758492046FFF72CFC7D
:10442400064678B10123424605F194012846FFF778
:1044340028FFB0F1FF3F00F08E80C5F898704FF46C
:10444400803678E74E492046FFF716FC814678B15E
:104454000123424605F1A4012846FFF712FFB0F1FB
:10446400FF3F3FF468AFC5F8A8704FF4003662E729
:1044740044492046FFF700FC064668B10023424643
:1044840005F164012846FFF7FCFEB0F1FF3F64D05C
:10449400AF664FF400664EE73B492046FFF7ECFB5E
:1044A40090B10023424605F174012846FFF7E9FE66
:1044B400B0F1FF3F3FF43FAFAF67D8F81430C5F811
:1044C400B4304FF4005636E730492046FFF7D4FBAA
:1044D40020BB2F492046FFF7CFFB10BB2D492046B8
:1044E400FFF7CAFB08BB2C492046FFF7C5FB00BBFE
:1044F4002A492046FFF7C0FB00BB29492046FFF7A5
:10450400BBFB00BB27492046FFF7B6FB0646002845
:104514003FF411AFEF674FF480460CE7EF6280265B
:1045240009E7EF634FF4807605E7EF644FF4007614
:1045340001E7C5F88C704FF48026FCE6C5F89C7042
:104544004FF40026F7E6EF664FF48056F3E64E4646
:10455400F1E64E46EFE64E46EDE64E46EBE600BF8C
:1045640034BE01083CBE01085CBE010868BE0108F7
:1045740074BE010844BE010880BE010894BE01084F
:104584004CBE0108A4BE0108B4BE010858BE01080F
:1045940064BE010870BE01087CBE010890BE01081B
:1045A400A0BE0108B0BE010870B594B0064600254F
:1045B400012413E000BE4FF0FF35284614B070BD4F
:1045C400234601AA0AA93046FFF7A2FE054347F68F
:1045D400FD7305EA0302AB4325D00134B368A3425B
:1045E400EBD901AB114A07CA03C31A700023CDF8F3
:1045F4000D30CDF81130CDF81530CDF81930CDF897
:104604001D30CDF821300AAA21463046FFF7A0FC20
:104614000028CFD10A990029D2D0212301AA3046FB
:10462400FFF7CEFCCCE71546C7E700BF34BC010852
:1046340010B504462430FFF71DFE04F13400FFF7E3
:1046440019FE04F14400FFF715FE04F15400FFF7CE
:1046540011FE04F18400FFF70DFE04F19400FFF74E
:1046640009FE04F1A400FFF705FE04F16400FFF75E
:1046740001FE04F17400FFF7FDFD206816F00AFF47
:1046840010BD70B582B0054602A800E906001E46BA
:1046940003220421BC20FFF7E7FA002861D0044676
:1046A400FFF7BEFB032204210846FFF7DDFAC4F836
:1046B400B80010B302AB13E9030084E8030000213F
:1046C400284601F08FFD206000281CDB2046FFF700
:1046D400D9FB10BB2046FFF767FF00F00500052853
:1046E40025D12046FFF784FD054668BB2046FFF729
:1046F4004AFC3460284602B070BD204609F018FF19
:104704004FF0FF35F6E7D4F8B80009F011FF204662
:1047140009F00EFF4FF0FF35ECE7D4F8B80009F0CC
:1047240007FF204609F004FF4FF0FF35E2E720467B
:10473400FFF77EFFD4F8B80009F0FAFE204609F02E
:10474400F7FE6FF00105D5E72046FFF771FFD4F8B7
:10475400B80009F0EDFE204609F0EAFE6FF002050C
:10476400C8E74FF0FF35C5E778B110B50446FFF749
:1047740045FB2046FFF75CFFD4F8B80009F0D8FEEB
:10478400204609F0D5FE002010BD4FF0FF307047E1
:10479400F0B583B007460E4601A900F057FC054664
:1047A400384600F037FD4FF0FF30002301E0184693
:1047B4000133019A9A4211D9C3EBC302910005EB6C
:1047C400820494F91820002AF1DA6A58B242EFD12F
:1047D400384600F02FFD204603B0F0BDB0F1FF3F96
:1047E4000BD0C0EBC00005EB80048023237645F892
:1047F4002060384600F01EFDEDE7384600F01AFD53
:104804000024E8E730B583B004460F4B5B6A00939D
:104814000023019300F114056946284606F0FCFBC9
:1048240001E006F019FA06F049FA04F11000FCF769
:10483400B0FB0028F5D16946284606F0FBFB06F0DC
:10484400F3F903B030BD00BF382500202DE9F04155
:1048540080460F461646C1EBC100800009F026FED3
:10486400C8F80000F0B10025BD4212D2D8F80040CB
:10487400C5EBC50304EB83041C220021204608F089
:10488400EFFD304609F012FEA06010B166600135FC
:10489400EAE715B12846BDE8F081D8F8000009F030
:1048A40047FEF7E74FF0FF30F5E710B50446103048
:1048B400FCF76FFB00B910BD2046FFF7A3FFFAE732
:1048C40010B50446FFF7F1FF012104F11000FCF7D5
:1048D40058FB10BD10B5044600211030FCF751FB05
:1048E400606906F081FB10BD2DE9F04383B080467A
:1048F4000F4600F0CDFB814648B101A9404600F0C7
:10490400A5FB0646404600F085FC002512E06A221D
:104914002649274806F038F9EFE778222349244846
:1049240006F032F920E07B222049214806F02CF9D8
:1049340021E00135019BAB4230DDC5EBC50406EB3C
:1049440084042046FFF7BCFFA368BB42F1D1237E59
:1049540013F0400FEDD013F0020F13D0D9F8083044
:10496400206898470028D8DBD9F80430A16820686B
:1049740098470028D7DB237E03F0FE03237623F039
:104984000203237600232376E268A260E3602046D4
:10499400FFF7A0FF404600F04DFC02E0404600F067
:1049A40049FC002003B0BDE8F08300BF04BF010848
:1049B400C0BE01082DE9F04383B080460F4601A92B
:1049C40000F044FB0646404600F024FC002503E0CA
:1049D4002046FFF77FFF0135019BAB421CDDC5EB91
:1049E400C5044FEA840906EB84042046FFF768FFF8
:1049F40056F80930BB42EBD1237E13F0400FE7D0C9
:104A040000232376E268A260E3602046FFF762FF9A
:104A1400404600F00FFC02E0404600F00BFC002092
:104A240003B0BDE8F0830000F0B583B0064600F0A3
:104A34002FFB074640B101A9304600F007FB0546AD
:104A4400304600F0E7FB18E0E4222949294806F043
:104A54009BF8F0E708F080FD4042019BB0FBF3F2C5
:104A640003FB1203C3EBC30305EB830404F110003F
:104A7400FCF78FFA40B106F0EFF808F06DFD00285E
:104A8400E8DB08F069FDE8E72046FFF719FF237E1D
:104A940013F0020F11D0BB682068984700281BDB75
:104AA4007B68A1682068984700281BDB237E03F0FD
:104AB400FE03237623F002032376237E13F0400FB4
:104AC40001D1002323762046FFF704FF304600F08F
:104AD400B1FB204603B0F0BDF5220549054806F0B8
:104AE40053F8DDE7F8220249024806F04DF8DDE705
:104AF400F4BE0108C0BE01082DE9F041174682B397
:104B040005460E4600F0C4FA804631462846FFF7B3
:104B14003FFE044630B92846FFF786FF04460028C6
:104B2400F3D11BE0FFF7CCFEA368E360A760237E0C
:104B340013F0040F08D1D8F80030394630469847AE
:104B4400237E43F004032376237E43F0020323767B
:104B540043F0400323762046FFF7BCFE2046BDE821
:104B6400F0811446FAE700002DE9F04383B00746CC
:104B740000F08EFA002855D0804601A9384600F08E
:104B840065FA0646002850D0384600F043FB00255D
:104B940017E04FF48E722649264805F0F5FF2BE006
:104BA400237E03F0FE03237623F002032376237E81
:104BB40013F0400F01D1002323762046FFF78AFE2D
:104BC4000135019BAB4226D9C5EBC5044FEA8409E4
:104BD40006EB840494F91830002BF1DA2046FFF731
:104BE4006FFE237E13F0020FE1D0D8F8083056F898
:104BF400090098470028CCDBD8F80430A16856F89F
:104C0400090098470028CBDA4FF490720849094804
:104C140005F0BAFFC4E7384600F00CFB002003B0EF
:104C2400BDE8F0834FF0FF30F9E74FF0FF30F6E7CF
:104C3400E8BE0108C0BE01082DE9F04782B08046F5
:104C44000F4600F025FA002853D0814601A94046BA
:104C540000F0FCF90646404600F0DCFA002517E0B7
:104C64004FF4C8722549264805F08EFF2FE0237EB5
:104C740003F0FE03237623F002032376237E13F04E
:104C8400400F01D1002323762046FFF723FE013590
:104C9400019BAB422AD9C5EBC5044FEA840A06EB53
:104CA400840494F91830002BF1DA56F80A30BB4228
:104CB400EDD12046FFF704FE237E13F0020FDDD072
:104CC400D9F8083056F80A0098470028C8DBD9F804
:104CD4000430A16856F80A0098470028C7DA4FF450
:104CE400CA720649064805F04FFFC0E7404600F087
:104CF400A1FA002002B0BDE8F08700BFE0BE0108C1
:104D0400C0BE01082DE9F04782B006460D46904624
:104D14001F46DDF8289000F0BBF9824658B101A97E
:104D2400304600F093F980B940F2B7122849294877
:104D340005F02AFF09E040F2B3122549254805F0A1
:104D440023FFECE73046FFF76FFE29463046FFF7B6
:104D54001FFD04460028F5D0FFF7B2FD2368AB42DF
:104D640003D02046FFF7B6FDEFE717B963684B455C
:104D740022D0237E13F0040F08D1DAF80030A168A2
:104D840028469847237E43F00403237607EB090261
:104D940063689A4215D8A0684A464146384408F0E8
:104DA40034FB237E43F0020323762046FFF792FD73
:104DB400002002B0BDE8F087237E43F0040323768D
:104DC400E4E740F2D5120249024805F0DDFEE2E7CD
:104DD400DCBE0108C0BE01082DE9F04782B00646DA
:104DE4000D4690461F46DDF8289000F051F9A0B119
:104DF400824601A9304600F029F9B8B12946304667
:104E0400FFF7C6FC0446D0B1FFF75AFD2368AB4256
:104E140019D02046FFF75EFDF0E740F2EF121D497E
:104E24001D4805F0B1FE4FF0FF3028E04FF4FA7250
:104E34001849194805F0A8FE4FF0FF301FE030462E
:104E4400FFF7F2FDDAE7237E13F0040F08D1DAF856
:104E54000030A16828469847237E43F00403237654
:104E640007EB090263689A420CD8A1684A463944A0
:104E7400404608F0CAFA2046FFF72CFD002002B095
:104E8400BDE8F08740F20E220249034805F07CFE9B
:104E9400EBE700BFD8BE0108C0BE01082DE9F04110
:104EA40082B006460D4617460023019300F0F0F841
:104EB400804658B101A9304600F0C8F880B940F2E4
:104EC40027221A491A4805F05FFE09E040F223221E
:104ED4001649174805F058FEECE73046FFF7A4FDE5
:104EE40029463046FFF754FC04460028F5D0FFF766
:104EF400E7FC2368AB4203D02046FFF7EBFCEFE767
:104F0400237E13F0040F08D1D8F80030A168284696
:104F14009847237E43F0040323761FB1237E43F096
:104F240002032376204602B0BDE8F081D0BE01081A
:104F3400C0BE010818B108B5FFF7CCFC08BD704726
:104F440008B5438A092B0AD803EB4303064A02EB4C
:104F540083035B684B611B6A23B1984708BD6FF0FC
:104F64001200FBE70020F9E79C14002008B5438AEF
:104F7400092B0AD803EB8303064A02EBC3035B68DD
:104F84004B611B6A23B1984708BD6FF01200FBE721
:104F94000020F9E70C13002030B583B00446144B0D
:104FA4005B6A00930023019300EB8005ED0005F19B
:104FB4002003104D1D4404356946284606F02CF89C
:104FC40001E005F049FE05F079FE04EB8403DB0003
:104FD400203308481844FBF7DCFF0028F1D1694668
:104FE400284606F027F805F01FFE03B030BD00BFC9
:104FF400382500200C13002010B5002400E00134F3
:10500400092C0BDC04EB8403DA00054B13445B69C5
:10501400002BF4D02046FFF7A7FDF0E7002010BDD9
:105024000C13002009280BD800EB8000064B03EB7F
:10503400C00043690BB9002070474FF0FF30704740
:105044004FF0FF30704700BF0C13002009280CD824
:10505400074B00EB800203EBC20292690A6000EB8B
:10506400800003EBC000006970470020704700BF58
:105074000C130020092806D800EB8000034B03EB37
:10508400C000C06970470020704700BF0C130020A7
:10509400092806D800EB8000034B03EBC0004069ED
:1050A40070470020704700BF0C130020092806D861
:1050B40000EB8000034B03EBC000C06870474FF067
:1050C400FF3070470C130020092812D810B400EBED
:1050D40040030B4C04EB83035B686BB9234600EB82
:1050E400400443F8241003EB84004260002010BC09
:1050F40070476FF0150070476FF00F00F7E700BFBF
:105104009C140020092815D810B5044600EB400370
:105114000B4A52F8230008F09FFA70B9084B04EBCD
:10512400440292000021995004EB440403EB8404EC
:10513400616010BD6FF0150070476FF01500F8E75F
:105144009C1400202DE9F041079F092824D8044627
:105154000E461546984600EB8003144A02EBC3033F
:105164005B69E3B900EB8000C00010303A46069951
:105174000E4B1844FFF76AFBA0B10C4B04EB8401FF
:1051840003EBC102C2F80C80906143F831605561B1
:10519400D7610020BDE8F0816FF01500FAE76FF0E9
:1051A4000F00F7E74FF0FF30F4E700BF0C130020C7
:1051B400092815D810B5044600EB80030B4A52F8B1
:1051C400330008F049FA70B9084B04EB8402D200AA
:1051D4000021995004EB840403EBC404616110BD05
:1051E4006FF0150070476FF01500F8E70C130020FE
:1051F40010B5044600EB8003DB0020330448184458
:10520400FBF7C7FE00B910BD2046FFF7C5FEFAE75D
:105214000C13002010B50446FFF7EAFF04EB8404E6
:10522400E4002034012102482044FBF7AAFE10BD0B
:105234000C13002070B50446084D860000EB800076
:10524400C000203000212844FBF79BFE344405EBCA
:10525400C405686A05F0C8FE70BD00BF0C130020C9
:1052640038B5074D074BED1AED08002404E0054B53
:1052740053F8343098470134AC42F8D338BD00BFFA
:10528400FCBB0108E4BB0108072833D88C461F4B3C
:105294005A6A00EBC00302EB8303D3F8A83563B367
:1052A40007292DD8BCF1070F09D80CEBCC0302EB6E
:1052B4008303D3F8A83513B90CF1010CF2E7BCF160
:1052C400070F20D810B50CEBCC0402EB840400EBE0
:1052D400C00E02EB8E0E04F5B2640EF5B26EBEE89B
:1052E4000F000FC4BEE80F000FC4DEF800302360C7
:1052F400604610BD6FF0080070476FF008007047FB
:105304006FF0150070476FF01700704738250020C4
:1053140007281AD838B505460C46124B5B6A00EBD1
:10532400C00203EB8203D3F8A8358BB188420AD0BC
:10533400082910D812D0084616F0ACF821462846A1
:10534400FFF7A2FF38BD0846FCE76FF0080070477E
:105354006FF00800F6E76FF00800F3E76FF008005D
:10536400F0E700BF3825002008B50021FFF78CFFC7
:1053740008BD0020704700000C4B1B68012B11DC9A
:1053840070B50E460133094D2B60094C802201464D
:1053940004EBC31008F092F92B6804EBC3143460D7
:1053A400002070BD4FF0FF30704700BF4401002063
:1053B40018150020034B1B68002B02DB013B014A3C
:1053C400136070474401002038B50546002400E00E
:1053D40001340B4B1B68A3420FDD04EB8403294605
:1053E400084A52F8230008F037F90028F0D104EBFA
:1053F4008404044800EB840000E0002038BD00BFB2
:10540400480100204C01002000B583B00D4B5B6ABD
:1054140000930023019369460B4805F0FDFD01E06C
:1054240005F01AFC05F04AFC0848FBF7B2FD002819
:10543400F6D16946044805F0FDFD05F0F5FB03B01F
:105444005DF804FB38250020981600209C160020E7
:1054540030B583B004460F4B5B6A0093002301937D
:1054640000F118056946284605F0D6FD01E005F06F
:10547400F3FB05F023FC04F11C00FBF78AFD002874
:10548400F5D16946284605F0D5FD05F0CDFB03B0FE
:1054940030BD00BF3825002008B5024B186805F060
:1054A400A3FD08BD9816002010B51348FBF771FD45
:1054B40000BBFFF7A9FF1DE00134152C18D8C4EB7D
:1054C400C403DB0020330D481844FBF787FD002894
:1054D400F2D00948FBF745FDC4EBC404074B03EBCA
:1054E400C40438220649204607F08FFF204610BD29
:1054F400FFF78AFF0024E0E760010020A0160020E7
:105504006401002070B50646002400E00134152C27
:105514001BD8C4EBC403DB0020330D4D1D442846C7
:10552400FBF737FD0028F1D0C4EBC403084A02EBB3
:10553400C3039B68B342E9D12846FBF701FDC4EBE2
:10554400C404034800EBC40000E0002070BD00BFA9
:10555400A016002038B5044600F120052846FBF7C4
:1055640050FD2846FBF715FD58B9E36A1B6A1BB1C9
:105574005B680BB1204698470248FBF7E1FCFFF754
:105584008BFF38BD6001002010B504461C30FBF7CA
:1055940000FD00B910BD2046FFF75AFFFAE750B3EB
:1055A40038B50446FFF7F0FF04F120052846FBF761
:1055B400F0FC18B32846FBF7ECFC012816D8E36A84
:1055C4003BB11B6A2BB15B691BB1E2680AB9204687
:1055D4009847E36A2BB11B6A1BB11B690BB12046C8
:1055E40098472046FFF7B6FF002038BD2046FFF756
:1055F400B1FF0020F9E74FF0FF3070474FF0FF3064
:10560400F3E7F8B507460C460846FFF77BFF064666
:1056140058B144693CB104F12000FBF791FC3046D9
:10562400FFF7BDFF26463046F8BDFFF73DFF0546B0
:1056340001212030FBF7A5FC002105F11C00FBF73C
:10564400A0FC00236B60AB61EF62AC60EB603B6A73
:105654001B6828469847044638B13B6A9B6828462D
:105664009847002806DB2E46DDE72846FFF772FF41
:105674002646D8E73B6A5B68284698472846FFF7E2
:1056840069FFD0E710B50446FFF77EFF012104F15E
:105694001C00FBF776FC10BD10B5044600211C303D
:1056A400FBF76FFCA06905F09FFC10BD38B5002422
:1056B40005E0284698472846FFF7EEFF0134152CED
:1056C4001CDCC4EBC403DB00203300210C48184469
:1056D400FBF761FC0028F1D1C4EBC405084B03EBD4
:1056E400C5052846FFF7CEFFEB6A002BE3D01B6A03
:1056F400002BE0D01B69002BDBD1DCE7002038BD98
:10570400A0160020072824DC10B584468E461346D4
:10571400174A546A00EBC00204EB8202D2F8A825AF
:10572400D2B100EBC000800000F5B26021180CEB90
:10573400CC0204EB8202D2F8A00580B1D2F8A425F1
:1057440082B154698CB17246A047002800DB002066
:1057540010BD6FF0080070476FF00800F8E76FF0B5
:105764001500F5E76FF01500F2E76FF01500EFE7AD
:1057740038250020F8B50F46C56A6B68B2FBF3F60E
:1057840003FB162202B101221644002406E06968D4
:1057940001FB0471A868FFF7A7F80134B442F6DBF3
:1057A4000020F8BD2DE9F04F85B0804693469A4617
:1057B400C56A0F9B03F10109CDF804904C460026FD
:1057C40005E06FF00B002AE001366C683C4409EBFD
:1057D4000A032746A34221D903AA2146404602F0E0
:1057E4000DF900281BDB6A6802FB06B20399A8685E
:1057F400FFF782F90028E7D1019B9C42E1DB03AA71
:105804003946404602F0FAF8002808DB0399A868F4
:10581400FFF7D0F8019B01330193EDE7002005B0B9
:10582400BDE8F08F30B583B00C46844650B149B121
:10583400096B99B1CD6A8DB1069900912146A847AB
:1058440003B030BD6046FFF7AAFE2046FFF7A7FE6F
:105854000023069A13606FF00100F1E76046FFF73A
:105864009EFE069B1C600020EAE700002DE9F04143
:105874001D4600232B6000283ED00E4614460746E2
:10588400022A0ED03B6B73B3D3F80880B8F1000F33
:1058940029D074B32B46224631463846C047BDE86A
:1058A400F0810B782E2BEDD14B782E2BEAD1154BB2
:1058B4005B6AD3F8B036834212D0D0F82C80B8F1AA
:1058C400000FDFD0D8F814308342DBD1FFF767FE36
:1058D400D8F818709FB107F12000FBF731FBD1E72E
:1058E40028600020DBE73846FFF759FE6FF013000D
:1058F400D5E72F602046D2E76FF00100CFE76FF0C5
:105904000100CCE7382500202DE9F04387B0064696
:105914000F4690460393DDF838900022C9F8002022
:1059240093B133782F2B01D05C2B30D10398FFF740
:1059340036FE284B5B6AD3F8B0060390013630B3C9
:105944002030FBF7FDFA22E0224B5B6AD3F8B40661
:1059540003900028E5D02030FBF7F2FAE1E723B307
:1059640003982030FBF7ECFA05AB2A46314603983E
:10597400FFF77CFF0546A0B903AB009300231A464A
:1059840005990398FFF74EFF0546D0B926463446DD
:10599400002514F8013B002BE1D02F2BDFD001357B
:1059A400F7E70398FFF7FBFD0BE00398036B63B184
:1059B4009B6853B1C8F800603D60039BC9F8003090
:1059C4000025284607B0BDE8F083FFF7E8FD6FF037
:1059D4001305F6E73825002070B588B00391164604
:1059E4001C46002323600B4603A9009107AA06A9BD
:1059F400FFF78AFF054610B1284608B070BD03982A
:105A04002030FBF79DFA05AB069A07990398FFF738
:105A14002DFF054658B976B105AB009300231A460D
:105A240005990398FFF7FEFE40B10546E4E70398A5
:105A3400FFF7B5FDE0E70398FFF7B1FD059B236091
:105A4400DAE708B50B4600221146FFF7C5FF08BD8B
:105A540008B50B4601220021FFF7BEFF08BD70B553
:105A640086B00446084605AB0093002304AA03A9A4
:105A7400FFF74AFF00280DDB049D284607F001FECE
:105A8400024648B10598036B63B15E6956B123467B
:105A94002946B04706B070BD0598FFF780FD6FF04A
:105AA4000100F7E7FFF77BFD4FF0FF30F2E7F0B5B9
:105AB40087B00D4617461E4604A900910C9B02AA06
:105AC40003A9FFF721FF041E06DB039B6BB915F046
