:020000040800F2
:1000000000000120C1970008AB900008AD900008E7
:10001000AF900008B1900008B39000080000000005
:10002000000000000000000000000000DD84000867
:10003000B5900008000000006D8500085985000893
:100040005985000859850008598500085985000818
:100050005985000859850008598500085985000808
:1000600059850008598500085985000859850008F8
:1000700059850008598500085985000859850008E8
:1000800059850008598500085985000859850008D8
:1000900059850008598500085985000859850008C8
:1000A00059850008598500085985000859850008B8
:1000B00059850008598500085985000859850008A8
:1000C0005985000859850008598500085985000898
:1000D0005985000859850008598500085985000888
:1000E0005985000859850008598500085985000878
:1000F0005985000859850008598500085985000868
:100100005985000859850008598500085985000857
:100110005985000859850008598500085985000847
:100120005985000859850008598500085985000837
:1001300000000000000000000000000000000000BF
:1001400000000000000000000000000000000000AF
:10015000000000000000000000000000000000009F
:10016000000000000000000000000000000000008F
:10017000000000000000000000000000000000007F
:10018000000000000000000000000000000000006F
:10019000000000000000000000000000000000005F
:1001A000000000000000000000000000000000004F
:1001B000000000000000000000000000000000003F
:1001C000000000000000000000000000000000002F
:1001D000000000000000000000000000000000001F
:0401E0005FF8E0F1F3
:1001E40070BC10F5805F38BFF746C0F100012DE9FF
:1001F40002400FF04DF9BDE8024001606FF00000CD
:10020400F7462DE90F0080B44FF05A07684680DFA7
:1002140080BC04B0E5E700BF4FF0000300F06DBB05
:1002240080B44FF0B40780DF80BCDAE780B44FF0CD
:10023400B50780DF80BCD4E780B44FF0580780DF77
:1002440080BCCEE780B44FF0210780DF80BCC8E7D4
:1002540080B44FF07C0780DF80BCC2E780B44FF0ED
:100264002D0780DF80BCBCE780B44FF00C0780DF33
:1002740080BCB6E780B44FF00F0780DF80BCB0E7E6
:1002840080B44FF0B60780DF80BCAAE780B44FF09B
:100294003D0780DF80BCA4E780B44FF0060780DF11
:1002A40080BC9EE780B44FF0290780DF80BC98E7CC
:1002B40080B44FF03F0780DF80BC92E780B44FF0FA
:1002C4000B0780DF80BC8CE780B44FF0850780DFAC
:1002D40080BC86E780B44FF05E0780DF80BC80E797
:1002E40080B44FF05F0780DF80BC7AE780B44FF0C2
:1002F400370780DF80BC74E780B44FF08F0780DF5E
:1003040080BC6EE780B44FF0020780DF80BC68E7F2
:1003140080B44FF06C0780DF80BC62E780B44FF09C
:10032400C50780DF80BC5CE780B44FF0640780DFE2
:1003340080BC56E780B44FF0760780DF80BC50E77E
:1003440080B44FF05D0780DF80BC4AE780B44FF093
:10035400B70780DF80BC44E780B44FF08D0780DFAF
:1003640080BC3EE780B44FF0D90780DF80BC38E71B
:1003740080B44FF0320780DF80BC32E780B44FF0A6
:10038400310780DF80BC2CE780B44FF02F0780DF7B
:1003940080BC26E780B44FF0500780DF80BC20E7A4
:1003A40080B44FF0690780DF80BC1AE780B44FF057
:1003B400840780DF80BC14E780B44FF0140780DF2B
:1003C40080BC0EE780B44FF0400780DF80BC08E7B4
:1003D40080B44FF0600780DF80BC02E780B44FF048
:1003E400AB0780DF80BCFCE680B44FF0A50780DF5C
:1003F40080BCF6E680B44FF04C0780DF80BCF0E6AA
:1004040080B44FF04D0780DF80BCEAE680B44FF043
:10041400930780DF80BCE4E680B44FF04E0780DFB2
:1004240080BCDEE680B44FF04F0780DF80BCD8E6A6
:1004340080B44FF0180780DF80BCD2E680B44FF060
:10044400360780DF80BCCCE680B44FF07507EC46FD
:100454002DE970009CE8700080DF80BCC0E680B4A9
:100464004FF0250780DF80BCBBE680B44FF0100757
:1004740080DF80BCB5E680B44FF0090780DF80BC24
:10048400AFE680B44FF08C07EC462DE970009CE891
:10049400700080DF80BCA3E680B44FF0130780DFD8
:1004A40080BC9EE680B44FF06B0780DF80BC98E68A
:1004B40080B44FF0C40780DF80BC92E680B44FF074
:1004C400270780DF80BC8CE680B44FF00E0780DF06
:1004D40080BC86E680B44FF0960780DF80BC80E65F
:1004E40080B44FF0980780DF80BC7AE680B44FF088
:1004F400C007EC462DE970009CE8700080DF80BCEA
:100504006EE680B44FF01507EC462DE970009CE8C8
:10051400700080DF80BC63E680B44FF07D0780DF2D
:1005240080BC5EE680B44FF0A30780DF80BC58E651
:1005340080B44FF0990780DF80BC52E680B44FF05E
:100544005B0780DF80BC4CE680B44FF0430780DF5C
:1005540080BC46E680B44FF0490780DF80BC40E6AB
:1005640080B44FF07E0780DF80BC3AE680B44FF061
:10057400480780DF80BC34E680B44FF0A20780DFF8
:1005840080BC2EE680B44FF0220780DF80BC28E6D2
:1005940080B44FF0050780DF80BC22E680B44FF0C2
:1005A4001D0780DF80BC1CE680B44FF0880780DF25
:1005B40080BC16E680B44FF02A0780DF80BC10E6CA
:1005C40080B44FF0A80780DF80BC0AE680B44FF007
:1005D400A707EC462DE970009CE8700080DF80BC22
:1005E400FEE580B44FF0800780DF80BCF9E580B47D
:1005F4004FF0810780DF80BCF3E580B44FF07F07C4
:1006040080DF80BCEDE580B44FF0030780DF80BC61
:10061400E7E580B44FF0550780DF80BCE1E580B4A6
:100624004FF0910780DF80BCDBE580B44FF02607F4
:1006340080DF80BCD5E580B44FF0280780DF80BC24
:10064400CFE580B44FF0AE0780DF80BCC9E580B44D
:100654004FF0B00780DF80BCC3E580B44FF0AF0734
:1006640080DF80BCBDE580B44FF0B20780DF80BC82
:10067400B7E580B44FF0B30780DF80BCB1E580B448
:100684004FF0B10780DF80BCABE580B44FF09F072B
:1006940080DF80BCA5E580B44FF0A00780DF80BC7C
:1006A4009FE580B44FF09B0780DF80BC99E580B460
:1006B4004FF09D0780DF80BC93E580B44FF0A10725
:1006C40080DF80BC8DE580B44FF09A0780DF80BC6A
:1006D40087E580B44FF09C0780DF80BC81E580B45F
:1006E4004FF09E0780DF80BC7BE580B44FF052075B
:1006F40080DF80BC75E580B44FF0BB0780DF80BC31
:100704006FE580B44FF0EF0780DF80BC69E580B40B
:100714004FF0790780DF80BC63E580B44FF08B072E
:1007240080DF80BC5DE580B44FF08A0780DF80BC49
:1007340057E580B44FF02E0780DF80BC51E580B4CC
:100744004FF0510780DF80BC4BE580B44FF04A077F
:1007540080DF80BC45E580B44FF0680780DF80BC53
:100764003FE580B44FF0390780DF80BC39E580B4C1
:100774004FF0610780DF80BC33E580B44FF047075A
:1007840080DF80BC2DE580B44FF0AA0780DF80BCF9
:1007940027E580B44FF0A40780DF80BC21E580B456
:1007A4004FF0460780DF80BC1BE580B44FF04B0759
:1007B40080DF80BC15E580B44FF0420780DF80BC49
:1007C4000FE580B44FF0170780DF80BC09E580B4E3
:1007D4004FF0BA0780DF80BC03E580B44FF0000718
:1007E40080DF80BCFDE480B44FF0660780DF80BC0E
:1007F400F7E480B44FF06A0780DF80BCF1E480B492
:100804004FF0C30780DF80BCEBE480B44FF0630794
:1008140080DF80BCE5E480B44FF0190780DF80BC42
:10082400DFE480B44FF0730780DF80BCD9E480B488
:100834004FF0570780DF80BCD3E480B44FF05307F8
:1008440080DF80BCCDE480B44FF0240780DF80BC1F
:10085400C7E480B44FF0950780DF80BCC1E480B466
:100864004FF0740780DF80BCBBE480B44FF06707AF
:1008740080DF80BCB5E480B44FF0870780DF80BCA4
:10088400AFE480B44FF00D0780DF80BCA9E480B4EE
:100894004FF02B0780DF80BCA3E480B44FF05C07EB
:1008A40080DF80BC9DE480B44FF03C0780DF80BCD7
:1008B40097E480B44FF0160780DF80BC91E480B4E5
:1008C4004FF0340780DF80BC8BE480B44FF07A07AC
:1008D40080DF80BC85E480B44FF00A0780DF80BCF1
:1008E4007FE480B44FF01E0780DF80BC79E480B4DD
:1008F4004FF06F0780DF80BC73E480B44FF0720761
:1009040080DF80BC6DE480B44FF0040780DF80BCDE
:1009140067E480B44FF0920780DF80BC61E480B468
:100924004FF0900780DF80BC5BE480B44FF0B807E1
:1009340080DF80BC55E480B44FF0B90780DF80BC11
:100944004FE480B44FF0D40780DF80BC49E480B426
:100954004FF0CF0780DF80BC43E480B44FF0CA0778
:1009640080DF80BC3DE480B44FF0C90780DF80BCE9
:1009740037E480B44FF0C80780DF80BC31E480B432
:100984004FF0CD0780DF80BC2BE480B44FF0D30759
:1009940080DF80BC25E480B44FF0C70780DF80BCD3
:1009A4001FE480B44FF0C60780DF80BC19E480B434
:1009B4004FF0D80780DF80BC13E480B44FF0D70732
:1009C40080DF80BC0DE480B44FF0D60780DF80BCAC
:1009D40007E480B44FF0CC0780DF80BC01E480B42E
:1009E4004FF0D20780DF80BCFFF7FBBB80B44FF031
:1009F400CB0780DF80BCFFF7F4BB80B44FF0D50792
:100A040080DF80BCFFF7EDBB80B44FF01B0780DFB5
:100A140080BCFFF7E6BB80B44FF01A0780DF80BCD0
:100A2400FFF7DFBB80B44FF0C20780DF80BCFFF765
:100A3400D8BB80B44FF0C10780DF80BCFFF7D1BBC7
:100A440080B44FF03E0780DF80BCFFF7CABB80B4A0
:100A54004FF0FA0780DF80BCFFF7C3BB80B44FF0D0
:100A6400FB0780DF80BCFFF7BCBB80B44FF0FC0702
:100A740080DF80BCFFF7B5BB80B44FF0DD0780DFBB
:100A840080BCFFF7AEBB80B440F2011780DF80BCAE
:100A9400FFF7A7BB80B44FF4817780DF80BCFFF7FA
:100AA400A0BB80B440F2031780DF80BCFFF799BB82
:100AB40080B44FF4827780DF80BCFFF792BB80B4B0
:100AC40040F2051780DF80BCFFF78BBB80B44FF486
:100AD400837780DF80BCFFF784BB80B440F20717C4
:100AE40080DF80BCFFF77DBB80B440F2091780DF54
:100AF40080BCFFF776BB80B440F2171780DF80BC60
:100B0400FFF76FBB80B44FF48B7780DF80BCFFF7B7
:100B140068BB80B44FF4897780DF80BCFFF761BB8A
:100B240080B440F21517EC462DE970009CE8700083
:100B340080DF80BCFFF754BB80B44FF48A7780DF3A
:100B440080BCFFF74EBB80B440F2131780DF80BC3B
:100B5400FFF747BB80B44FF4857780DF80BCFFF795
:100B640040BB80B440F20B1780DF80BCFFF739BB79
:100B740080B44FF0EE0780DF80BCFFF732BB80B457
:100B84004FF4867780DF80BCFFF72BBB80B44FF433
:100B9400807780DF80BCFFF724BB80B440F241172C
:100BA400EC462DE970009CE8700080DF80BCFFF704
:100BB40017BB80B44FF0AD0780DF80BCFFF711BBDB
:100BC40080B44FF0E00780DF80BCFFF70ABB80B43D
:100BD4004FF0FD0780DF80BCFFF703BB80B44FF00C
:100BE400E10780DF80BCFFF7FCBA80B44FF08307D5
:100BF40080DF80BCFFF7F5BA80B44FF0DB0780DFFD
:100C040080BCFFF7EEBA80B440F23F17EC462DE902
:100C140070009CE8700080DF80BCFFF7E1BA80B40C
:100C24004FF4A077EC462DE970009CE8700080DF5B
:100C340080BCFFF7D5BA80B44FF0F00780DF80BCEA
:100C4400FFF7CFBA80B440F2391780DF80BCFFF7DA
:100C5400C8BA80B44FF49B77EC462DE970009CE849
:100C6400700080DF80BCFFF7BBBA80B440F2371756
:100C740080DF80BCFFF7B5BA80B440F23517EC468C
:100C84002DE970009CE8700080DF80BCFFF7A8BAF3
:100C940080B44FF0F60780DF80BCFFF7A2BA80B4BF
:100CA4004FF0F30780DF80BCFFF79BBA80B44FF0AE
:100CB400F50780DF80BCFFF794BA80B44FF0F407E7
:100CC40080DF80BCFFF78DBA80B44FF0F70780DF78
:100CD40080BCFFF786BA80B44FF49F7780DF80BC76
:100CE400FFF77FBA80B44FF49E7780DF80BCFFF7B4
:100CF40078BA80B440F23D1780DF80BCFFF771BA48
:100D040080B44FF0E207EC462DE970009CE87000D7
:100D140080DF80BCFFF764BA80B44FF0E307EC4691
:100D24002DE970009CE8700080DF80BCFFF758BAA2
:100D340080B44FF0E407EC462DE970009CE87000A5
:100D440080DF80BCFFF74CBA80B44FF0EB0780DF44
:100D540080BCFFF746BA80B44FF0EC0780DF80BC5C
:100D6400FFF73FBA80B44FF0ED0780DF80BCFFF798
:100D740038BA80B44FF0E80780DF80BCFFF731BA9F
:100D840080B44FF0E90780DF80BCFFF72ABA80B453
:100D94004FF0EA0780DF80BCFFF723BA80B44FF03E
:100DA400E50780DF80BCFFF71CBA80B44FF0E6078C
:100DB40080DF80BCFFF715BA80B44FF0E70780DF0F
:100DC40080BCFFF70EBA01DF78468EEA0E00874634
:100DD4005FEA000C12BF00296FF01500FFF701BA9B
:100DE40021E90810104680B44FF0780780DF80BCFA
:100DF4000000FFF6F6A918BFF7464FF0000B0FF2FC
:100E0400060EBDE80180DEE78446080008BF012025
:100E1400BCE8F00F5CF8042B95465CF804FB4FF03B
:100E240000016A46A0E8F00FA0E80440A0F1280001
:100E34000EF043BD4FF0000B5DF8040B6946DFF87C
:100E440020C001EB800202F10402CCF800200EF075
:100E540077FD0EF0FBFA80B44FF0010780DF80BC11
:100E6400040900207047704738B50546002400E0A7
:100E74000134402C0DDC2A78074B53F834100B78DE
:100E84009A42F5D128460EF090FD0028F0D10120B9
:100E940038BD0020FCE700BF3400002008B502463E
:100EA4000349022005F060FD002005F0A7FF08BDFE
:100EB4004004010808B502460349022005F054FD28
:100EC400002005F09BFF08BD5C040108F8B5061D71
:100ED40045680DB304462F782D2F0AD02D2F12D03C
:100EE4000F493246012005F03FFD012005F086FF41
:100EF400F8BD0C4928460EF058FD0028EED104F147
:100F040008060949EDE7094928460EF04EFD28B9BF
:100F140004F108060249E4E70149E2E70049E0E791
:100F24007004010878040108740401087C040108B1
:100F340030B583B00446406830B1A3683BB1114872
:100F4400FFF7ACFF03B030BD06F0FAFCFAE70A2164
:100F540006F00EFA051E0DDB002201A9284606F054
:100F640079FC00280ADD0199284605F039FF05F0CF
:100F74000DFEE7E76068FFF79DFFE3E7002005F05B
:100F84003DFFF4E78004010810B50346406828B12A
:100F94009B6893B11348FFF781FF10BD012005F052
:100FA4002DFF0020FFF77FFC0446FFF77CFC224660
:100FB4000D49012005F0D8FCEFE7082106F0D8F927
:100FC400B0F5007F07D30949022005F0CDFC0020CD
:100FD40005F014FFE1E7FFF766FC012005F00EFFC2
:100FE400DBE700BF9C0401088804010890040108A1
:100FF40038B50546406888B10A2106F0B9F90446B7
:10100400686808B1AB685BB9002C0DDB164806F0C4
:1010140075FA8568154806F071FA0AE00124EFE7CD
:101024001348FFF73BFF13E0FFF744FF10E0AD6800
:10103400013C0DB1002CFAD15DB1294602F09AF8B9
:1010440001460022084806F0CFF9012005F0D6FE3B
:1010540038BD002CF1D00749022005F085FC0020A2
:1010640005F0CCFEF4E700BFAC0401081041010810
:10107400A4040108B004010808B5436813B104309E
:1010840005F016FF022000F04FFC08BD08B54368C8
:101094001BB10448FFF702FF08BD012000F044FC27
:1010A400FAE700BFC004010810B543681BB1074844
:1010B400FFF7F4FE10BD064C20680146FFF751FB14
:1010C400216802200EF0A7FDF4E700BFC804010860
:1010D400340B002030B585B005460C4602A94068A3
:1010E400FFF788F934B1039C6FF000439C4203D0AE
:1010F400A96808E0029CF7E72A681149012005F075
:1011040033FC17E0096859B14A68B4FBF2F302FBF7
:101114001343002BF6D10CB9012AF3DDB4FBF2F42E
:101124002A68234641B14CB18968009105490120E0
:1011340005F01AFC05B030BD0349F6E70249F4E7AF
:10114400D0040108E0040108884901082DE9F047AA
:1011540004468946164610460EF040FC8046A468B4
:101164000123C9F800303378752B22D0314B9C42CF
:101174002CD13A2130460EF00EFC38B3044600233D
:1011840004F8013B0A21304606F0F2F805460A212C
:10119400204606F0EDF8B5F1FF3F44D0B0F1FF3F33
:1011A40043D0C5EB051500EB8505C9F800500120B7
:1011B40037E0214930460EF0F8FB0028D6D16FF015
:1011C4000043C9F8003001202BE02468DCB1A56895
:1011D4002F7828460EF002FCA8EB000006EB000A6C
:1011E400335C9F42F1D1514628460EF0DEFB0028C5
:1011F400EBD100238AF800306268D9F8003002FB92
:1012040003F3C9F800300A21304606F0B1F8B0F112
:10121400FF3F0CD0D9F8003003FB00F0C9F8000000
:101224000120BDE8F0870020FBE70020F9E700205B
:10123400F7E700BFE8060108EC040108F0B585B043
:101244000446071D406878B103782D2B04D000268E
:101254003D68B5B12F4C20E02F490EF0A6FB28B90C
:1012640004F108070126F3E70026F1E70026EFE77B
:1012740031462046FFF72EFF0C342368002BF7D1AC
:1012840008E0244CF9E72549022005F06DFB002015
:1012940005F0B4FD05B0F0BD0C3421680029F2D08E
:1012A4002A780B789A42F7D128460EF07EFB002864
:1012B400F2D17B68BBB102A96068FFF79BF87A683A
:1012C40001A92046FFF742FF90B1CEB1019B0393E1
:1012D40002A96068FFF769FAB0F1FF3F13D001205B
:1012E40005F08CFDD6E731462046FFF7F3FED1E743
:1012F4000B49022005F038FB002005F07FFDC9E70B
:10130400019B0293E4E7074805F0F6FF002005F08F
:1013140075FDBFE700070108F8040108FC04010893
:101324000C0501081805010808B5436813B1043019
:1013340005F0BEFD05F0CEFC00F090FC08BD0000F9
:1013440038B5084B1C78436853B1064D00232B7005
:101354002146043003F098F8012003F03DF92C7085
:1013640038BD00BF300B00202DE9F04385B00546A1
:101374004368CBB1836803BB686806F00EF850B9C4
:101384006E6834782E2C1ED02E2C2AD14A49304631
:101394000EF00BFB28BB6868FEF766FF002819DB1C
:1013A400012005F02BFD0BE0444806F0A7F810B12E
:1013B40003686B60E0E7424BFBE74248FFF76EFDD2
:1013C40005B0BDE8F083404930460EF0EEFA00283F
:1013D400E1D0D9E7002005F011FD686805F08CFF25
:1013E400EEE73A4806F08AF8044618B14FF00008D0
:1013F400464616E0364B01930023039301ACF5E710
:10140400384604F07BF90646B8461EE06E684FF095
:1014140000083046FEF728FF00282BDAA468002CC9
:1014240040D001AB9C42F1D0D4F8009099F8003040
:10143400002BEBD068680EF0D1FA074648460EF050
:10144400CDFA07440237B845DAD3216830460EF0A6
:10145400B7FA206803782F2B03D119490EF0A5FAA7
:1014640018B1174930460EF087FA696830460EF015
:1014740083FACEE7012005F0C1FC164B1B78002B44
:101484009ED020680378002B9AD02E2B04D10E49CD
:101494000EF08BFA002893D032460F49012005F054
:1014A40063FA8DE76A680D49022005F05DFA0020B1
:1014B40005F0A4FC84E700BF3805010828050108ED
:1014C4002405010830050108340501083C0501081C
:1014D40088490108300B002094450108440501089F
:1014E400F0B585B00446274B1E78051D406878B3D7
:1014F40003782D2B2ED00027234B1B781BB1224BB6
:1015040000221A700127286810B3002104F064F93E
:10151400041E29DB1D4B00221A70294651F8040BC6
:10152400012206F089F8204602F08AFF154C277044
:10153400174D01AA2946032000F082F9012003F087
:101544004BF80121284606F047F800F08BF9267085
:1015540005B0F0BD0F490EF028FA18B904F10805DA
:101564000127C9E70027C7E7084B1B781BB1074BC6
:1015740000221A70ECE7286805F0BEFE002005F092
:101584003DFCE5E7300B00202C0B0020000B002075
:10159400AC0401085805010838B50546002400E0EC
:1015A40001340E2C10DC094B03EBC4035868027899
:1015B4002B789A42F4D129460EF0F7F90028EFD19E
:1015C400024B53F8340000E0002038BD64060108E3
:1015D4002DE9F04F85B004460026784B1E6000E0EC
:1015E400013654F82630002BFAD1002500952F46F9
:1015F400AB46AA46724A2146304601F0B1F9B0F131
:10160400FF3F22D0623814280FD8DFE800F0190E0B
:101614000E0E1B0E0E0E0E0E0E0E0E0E160E0E0BD4
:101624000E0E14004FF0010AE4E7002005F0E6FB7B
:1016340005B0BDE8F08F0127DCE701230093D9E76B
:101644000125D7E74FF0010BD4E75C4B1B6804EB93
:10165400830854F8233023B1002601230393A946B9
:1016640052E05BEA07060FD1BAF1000F11D1FDB9C0
:10167400009BFBB9009B1E4335435AEA05031ED069
:10168400012005F0BBFBD3E73946584602F0DEFBE8
:10169400EAE700F0BDFCEAE74A4B03EBC4035A68EF
:1016A4004949012005F060F901340E2CF4DDDFE72F
:1016B4000024FAE74549022005F056F9DAE701214A
:1016C400084602F0C3FBDBE758F8050005F016FFF7
:1016D400024638B158F80510012006F031F801230C
:1016E400019327E00023019324E054EA0B032BD059
:1016F40058F8050000F0A4FB024628B358F805107A
:10170400012000F0B9FC0136B50058F82630002B52
:1017140050D02F4B02221A604BEA0704009B1C4353
:1017240049EA04044AEA040484F0010454EA07037D
:101734000193C9D154EA0A03D7D058F80500FFF73A
:1017440093FB0028D4D1D0E754EA09030CD058F80D
:10175400053002931846FFF71FFF28B1029A1A4971
:10176400012005F001F9CEE7009B23430CD1019C35
:10177400002CC8D1164B1B68022B12D058F8050058
:1017840005F0BAFD0394BEE7002158F8050006F001
:10179400F9FC02460028EAD00E49012005F0E4F8DD
:1017A400B1E758F805200C49022005F0DDF8019B4B
:1017B4000393A8E7039805F021FB39E7080000200C
:1017C4005C05010864060108640501087005010848
:1017D40000090020940501089805010830B5A5B05A
:1017E4000190012109A8FFF71CFB08B125B030BD09
:1017F400019D294651F8040B012205F01DFF0E4CF2
:1018040006AA09A9022000F01BF803AA2146032016
:1018140000F016F8286800F013FB084905F06CFC8A
:10182400012106F0FBF80121204605F0D5FE00F069
:1018340019F800F017F8D9E7AC04010801570008BB
:10184400064BD3F800C0C2F808C01A60107051608B
:10185400022802D8024B1B78537070470C090020F1
:10186400300B002008B50F4B1A681378062B08D8E4
:10187400DFE803F0040707070C10140052780A4B42
:101884001A70084B1A6892681A6008BD506803F011
:1018940099FFF6E75068FFF71EF8F2E75068FEF785
:1018A400FBFCEEE70C090020300B0020044B1B6806
:1018B40018780538C0B201288CBF00200120704779
:1018C4000C09002010B5044604E064B90B4B1A68F7
:1018D40092681A60094B1B6823B11A78052AF4D060
:1018E400062A04D010BD5868FEF7F5FFEEE7002C79
:1018F400ECD05868FEF7D0FCE8E700BF0C090020E4
:1019040008B54FF0FF3105F0D9FC002005F076FA58
:101914000020034B1860034B187000F005F808BD55
:10192400AC0A0020A41A002010B5044668BBFEF7D8
:1019340043FD2A4B1B68984227D001200DF086FDF9
:10194400042A2AD02648FFF7DBFF28E03ABB2548C3
:10195400FFF7D6FF23E00121506805F03DFE10E0BB
:10196400506803F02FFF0CE05068FEF7B4FF08E066
:101974005068FEF791FC04E014BB5A7802BB02F0F5
:10198400B1FD194B1A6892681A60174B1B680BB3A8
:101994001A78A242F0D0012CD2D0022CD6D0124B0D
:1019A4001A681378033B032BEBD801A151F823F0F9
:1019B4005B190008651900086D19000875190008FD
:1019C40059780A4A11709968074A116001215868C8
:1019D4000DF0CDFD012000F041F910BD340B0020C5
:1019E400B4070108CC0701080C090020300B0020C3
:1019F40008B5022810D10D4B1B7813B10C4B1B7882
:101A040073B90B4B01221A7000200A4B18600A4B61
:101A14001870FFF789FF08BD084805F08DFCEAE758
:101A24000749022004F0A0FFEBE700BF300B0020C1
:101A340004000020AC0A0020A41A0020E8070108D2
:101A4400C84701082DE9F04383B00F46694B197864
:101A540000F084FE05460026B04612E02868FFF731
:101A64009BFD044600E00024634B9C421AD0634B68
:101A74009C421DD00026604B9C4202D05F4B9C428E
:101A840019D128680028EED005F087FC40B9002E53
:101A9400E4D1286800F0D4F90028DFD0584CE3E7FB
:101AA4000024E1E7043500264FF001083746E2E759
:101AB40004350126DFE72B68002B3AD0B8F1000F7C
:101AC40003D0504B4FF0FF321A60002C37D04FF048
:101AD4000008C146002F4AD01CB14B4B1B68002B99
:101AE40045D005F07FFE06460027FFB2B6F1FF3F62
:101AF40048D0002E4CD0444B00221A60012201A988
:101B0400304605F0A7FE01994FF0FF3005F068F963
:101B1400019B13F07F0F02D13C4B00221A7005F099
:101B240035F80120394B1870FFF7CCFE03B0BDE83F
:101B3400F083B8F1000FC1D004F06AFFF6E7012189
:101B4400286806F01FFB804618B102F0F9F88146B8
:101B5400C0E72B68002BF8D005F050F92A4B00227F
:101B64001A60002FE2D1012000F078F8EDE7FFF7CA
:101B74009DFE0028B5D117B100260127B5E7002640
:101B84003746B2E7224805F0B7FB0020FFF7B8FE5E
:101B940007B30020FFF796FE04F03AFF2B6803B169
:101BA40044B10CB12846A047002FBFD105F092F8EC
:101BB40000F054F84A4629464046FEF77FFB154B91
:101BC4001B68082B0AD0286805F096FB012000F05A
:101BD40045F890E7002000F0C1F8DAE72C4644F815
:101BE40004890D4845F8040C4A462146FEF766FB75
:101BF4002546E8E72B0B0020690E00086B0E000851
:101C0400E1170008340B0020AC0A00200400002077
:101C140008080108000900201008010870470000A6
:101C240070B582B00446431E3F2B0DD8084D2E6874
:101C3400084B53F834300093002301936846FFF7B0
:101C4400CDFD2E6002B070BD034805F075FBEDE7D5
:101C540000090020340000201808010800B583B0F2
:101C6400084B1B780BB90DF0F1FB074B00930023D5
:101C74000193044A13706846FFF7B0FD05F02AF893
:101C8400F1E700BF340A0020280801082DE9F041DB
:101C940006468846C9B10846264905F02DFA074686
:101CA400304601F0ABFE0760002343600322224963
:101CB40030460DF09FFE00283AD13378732B06D0BE
:101CC4003578732D0DD001241BE01C48E4E71C4932
:101CD40030460DF06AFE0028F2D11A48FFF710FED4
:101CE400EEE7194930460DF060FE0028EBD1174BA2
:101CF40001221A70E7E70121204604F08BFF17E068
:101D04000134402C14DC124B53F8340003789D4208
:101D1400F6D131460DF049FE0028F1D10D4B43F8C0
:101D24002470B8F1000FE6D00B49204604F072FF8E
:101D3400BDE8F0818556000830080108200A00201B
:101D4400340801083C08010828080108340A002066
:101D5400340000201C090020251C000838B5054665
:101D640002F00AFD01240BE01DB9204A0021116094
:101D740017E01E4B01221A601D48FFF787FF01344C
:101D8400402C2BDC1B4B53F82430012BF7D01A4A80
:101D9400002142F82410032C0FD00F2C1AD0022C4F
:101DA400E2D0002BEBD00021204604F033FF134B8C
:101DB40053F8340001F0D0FEE1E71DB9104A0021C8
:101DC4001160EEE70E4B01221A6000210D48FFF767
:101DD4005DFFD4E70C4A00211160E2E70B4801F0F3
:101DE400BBFE0B4B00221A7038BD00BF1009002047
:101DF40050080108941100201C0900203400002020
:101E040014090020580801081809002028080108AE
:101E1400340A002038B50446033000F0C1FC70B128
:101E240001F0ECFD05460023036020460DF0D6FDCD
:101E3400013003F025FC21460DF0C2FD686038BD79
:101E440010B50E4B196801F0BDFD044608B10068D9
:101E540000B110BD606870B100F02CFD20B10849DC
:101E640005F04AF92060F4E7606803F077FC00238A
:101E740063600448EDE70348EBE700BFBC0A0020B9
:101E840085560008200A002038B50446074B196817
:101E940001F098FD054608B1406800B138BD2A68D4
:101EA4002146034804F084FD6860F7E7BC0A00207B
:101EB4006008010838B50546012405E01F4B196880
:101EC400204604F0A7FE0134402C26DC1C4B53F8BA
:101ED400340002782B789A42F5D129460DF065FD3D
:101EE4000028F0D1174B002243F82420032C08D0FB
:101EF4000F2C0CD0022CE1D00021204604F08AFEE5
:101F0400E1E7114B1968204604F084FEDBE70F4B30
:101F14001968204604F07EFED5E72B78732B03D096
:101F2400284601F019FE38BD094928460DF03DFD4B
:101F34000028F5D1074B00221A70F1E710090020A0
:101F4400340000201C090020140900201809002076
:101F540028080108340A002010B5204B04221A7006
:101F640000229A605A60012400E00134402C0DDC08
:101F7400112CFAD01A4B53F82430012BF5D100213F
:101F8400184B53F83400FFF781FEEEE7164B1B782D
:101F94001BB9134B9B68012B05D0144B144A1A60D0
:101FA4001448FFF787FF144B1B787BB90E4B1B7843
:101FB4001BB90B4BDB68012B05D0104B104A1A6080
:101FC4001048FFF777FF084B1B7803B910BD0E4B81
:101FD4000B4A1A600D48FFF76DFFF7E7200A00204F
:101FE4009411002034000020300B00201009002040
:101FF400F519000850080108260B002014090020D8
:10200400211C000858080108180900206C08010860
:1020140010B501240CE01149012004F0A5FC06E0F0
:102024000F4B53F824300F49012004F09DFC013478
:10203400402C12DC0C4B53F834201378002BF6D0D0
:102044000A4B53F82430012BE5D009498B42E7D0E1
:102054000849012004F088FCE9E710BD7408010870
:102064001C0900208008010834000020941100207D
:10207400251C00088C08010808B513460A460249C5
:1020840004F072FC08BD00BF800801080138012873
:102094008CBF002001207047F8B5044603681A1D60
:1020A40002601F6830E02269A3699A4203D3236A5D
:1020B40001212046984723695A1C226102221A7082
:1020C4000AE023695A1C22611D700136357865B116
:1020D4006B1EDBB2012BE6D92269A3699A42F0D3C5
:1020E400236A012120469847EBE7BF6867B122695C
:1020F400A3699A4203D3236A01212046984723699E
:102104005A1C226101221A700FB13E68DEE70020DA
:10211400F8BD000070B5064603681A1D02601C680D
:1021240007E023785F2B0FD12A460F49304604F08D
:1021340003FC14F8015BA5B10C4B5B5D002BF3D1E0
:102144002A2DF1D05F2DECD03269B3699A4203D3C2
:10215400336A01213046984733695A1C32611D7035
:10216400E7E7002070BD00BF94080108580D01087E
:1021740070B5044603681A1D02601D6840682B7818
:1021840093B100F0400200F0200092B12269A369EB
:102194009A4203D3236A01212046984723695A1C93
:1021A400226127221A7021E02549204604F0C4FB4D
:1021B40043E02A461378013263B12249C95C0129FC
:1021C400E4D00028F6D02A2BE0D03F2BDED05B2BC6
:1021D400F0D1DBE72A461C49204604F0ADFB2CE095
:1021E40023695A1C22611E70272E0BD015F8016B2F
:1021F400B6B12269A3699A42F2D3236A0121204627
:102204009847EDE72269A3699A4203D3236A01211F
:102214002046984723695A1C226127221A70E5E751
:102224002269A3699A4203D3236A0121204698476D
:1022340023695A1C226127221A70002070BD00BF36
:102244009C080108580E0108A0080108F8B50446C6
:10225400067906F0200601680A1D02600B6801F188
:10226400080202604F6883B9426812F0200F0CD153
:10227400104904F061FB0020F8BD0F490BE023690D
:102284005A1C22613A781A702B46002BF3D09D68B1
:10229400002EF2D009491A68204604F04DFB002DA7
:1022A400F2D02269A3699A42E9D3236A0121204624
:1022B4009847E4E7A8080108A4080108A008010851
:1022C40008B503681A1D02601B68042B04D8DFE8F4
:1022D40003F0070D05090B00074908E0074906E06C
:1022E400074904E0074902E0074900E0074904F010
:1022F400A1FA002008BD00BFC0080108B408010805
:10230400B8080108BC080108AC080108B0080108B5
:1023140038B503681A1D02601C68216859B1054666
:1023240004F088FA03E00549284604F005FB54F854
:10233400042F002AF7D1002038BD00BFC4080108CB
:10234400F0B583B00446017903681A1D02601D6864
:102354003DB301F040012878202825D8DFE810F0AB
:1023640045004C00FC0027002001200133003A0105
:102374005300C4005A00C400E900480161009200FF
:1023840068006F00A4014801C101390076003F00D4
:102394002D007D008400C4009B008B00A200AE00D1
:1023A400D9019A4904F0C8FA002003B0F0BD6A6864
:1023B4009749204604F0C0FAF6E76A689549204632
:1023C40004F0BAFAF0E76A689349204604F0B4FAD4
:1023D400EAE76A689149204604F0AEFAE4E76A68DD
:1023E4008F49204604F0A8FADEE7AB686A688D4995
:1023F400204604F0A1FAD7E7AB686A688A49204608
:1024040004F09AFAD0E7AB686A688849204604F079
:1024140093FAC9E7AB686A688549204604F08CFAE8
:10242400C2E7AB686A688349204604F085FABBE7D3
:10243400AB686A688049204604F07EFAB4E7AB686A
:102444006A687E49204604F077FAADE7AB686A68AB
:102454007B49204604F070FAA6E7AB686A687949BC
:10246400204604F069FA9FE7AB686A68764920461B
:1024740004F062FA98E7AB686A687449204604F08D
:102484005BFA91E7AB686A68E96800917049204695
:1024940004F052FA88E7AB686A686E49204604F093
:1024A4004BFA81E7686802F099F928B16A496A68C9
:1024B400204604F041FA77E76849F8E7684B1B784F
:1024C4005BB9674E01233370AB686A68654920467F
:1024D40004F032FA0023337066E7AB686A6858493F
:1024E400204604F029FA5FE76B681A781E2A0BD09D
:1024F4005D495E4A0B2810D01B2814D0092806D049
:102504005B4804F019FF4FE75A490A46F2E7009185
:102514005949204604F010FA46E7009157492046ED
:1025240004F00AFA40E700915549204604F004FA01
:102534003AE7E968B1F1FF3F07D0AB686A680091F8
:102544005049204604F0F8F92EE7AB686A684E4912
:10255400204604F0F1F927E76E6816B133781B2B97
:102564000AD032464949204604F0E6F9AA684849A7
:10257400204604F0E1F917E77368002BF1D01A78CC
:102584001E2AEED158680378692BEAD141490DF02F
:102594000CFA0028E5D14049204604F0CDF9E5E7DE
:1025A4006E6826B132463D49204604F0C5F9AB6851
:1025B400002B3FF4F9AE16B13378062B05D1AA6887
:1025C4003649204604F0B8F9EEE63549204604F0D1
:1025D400B3F9F4E76A682E49204604F0ADF9AA6815
:1025E400002A3FF4E1AE2D49204604F0A5F9DBE6CC
:1025F4006A682A49204604F09FF9AA68002A3FF431
:10260400D3AE2849204604F097F9CDE6A80801087E
:10261400D8080108DC080108E4080108E8080108F2
:10262400F0080108F8080108000901080809010870
:10263400100901081C0901082809010834090108C6
:102644003C09010844090108540901085C0901080E
:102654006809010878090108CC080108C8080108BC
:10266400350A002080090108D0080108D4080108AF
:1026740088090108884901089C090108A80901087A
:10268400B4090108C0090108CC090108DC090108E2
:10269400E4090108D4090108D8090108FC08010863
:1026A400EC090108580901086F68AE68EA68254911
:1026B400204604F041F93EB9012F0CD12A69224980
:1026C400204604F039F96FE633463A461F4920465E
:1026D40004F032F9F2E73A461D49204604F02CF999
:1026E400ECE76E6832461B49204604F025F9AF68D2
:1026F4003046FFF7CBFC874205D1EA6812492046F1
:1027040004F01AF950E63A461149204604F014F947
:10271400F3E76E6832460F49204604F00DF9AF68BE
:102724003046FFF7B3FC874205D1EA680A492046E0
:1027340004F002F938E63A460549204604F0FCF86C
:10274400F3E700BFF0090108FC080108F4090108D7
:10275400FC090108040A0108E409010810B504464B
:1027640049B9204602F0D1FC0430800002F0C6FFD3
:102774000C3003460AE0084B02460849022004F0E4
:10278400F3F8EEE7226843F8042BA468002CF9D18F
:1027940000221A6010BD00BFE4440108080A0108C1
:1027A4002DE9F04707463D210DF0F5F8804640B18C
:1027B400C01B013002F0A2FF8046064609E0002358
:1027C40033704046BDE8F087334603F8015B1E468C
:1027D40027463C4614F8015B3D2DF0D05F2DF3D124
:1027E40023785F2BF0D1DFF838A0617850460DF0E4
:1027F400D2F88146A17850460DF0CDF8B9F1000F1A
:10280400E2D00028E0D05346A9EB0A09C01A3346A7
:1028140040EA091003F8010B04371E46D9E700BF4C
:10282400140A01082DE9F8433D210DF0B4F80446DB
:102834000027B94635E0013401362378012B09D944
:10284400022BF8D1621C6378013BDBB2012BF2D876
:102854001446F0E70C2002F013FF80465FB1B86025
:10286400701C02F00DFFC8F800000023C8F8043003
:10287400C8F8083005E08146F2E715F8013B00F896
:10288400013BAC420AD92B78022BF6D16A1C6B7837
:10289400013BDBB2012BF0D81546EEE700230370B1
:1028A400474623781BB1013425460026C5E7484630
:1028B400BDE8F88330B583B03D210DF06CF80446D3
:1028C400D0B1C51E042229460DEB02000CF07FFE98
:1028D40004220C4928460CF07AFE284601F038FF01
:1028E400044604220DEB020128460CF070FE1CB1D4
:1028F40023780E2B03D1A468204603B030BD0024F6
:10290400FAE700BF0C0A010808B50E49412003F09C
:10291400ABFE0D494C2003F0A7FE0C49532003F0F5
:10292400A3FE0B49542003F09FFE0A49442003F000
:102934009BFE0949572003F097FE0849462003F0FF
:1029440093FE08BD152300085122000875210008D4
:1029540045230008C52200089D200008192100080D
:102964002DE9F84381460D469046484B1B6823B930
:102974000123474A1360454A1360454B1C68012CE8
:1029840024D0424B1F6855F827301E5D414B1E6012
:102994003A2E32D0314640460CF0FDFF00282CD0B0
:1029A40043783A2B40D055F827300134384A146024
:1029B4001B5D2BB9134601221A601744334B1F6069
:1029C400354B00221A603046BDE8F8832F4B1E6851
:1029D4004E4552DA55F8260003782D2B50D1437812
:1029E400002B50D02D490CF0E0FF0028C9D101364E
:1029F400264B1E604FF0FF36E5E733462A68284928
:102A0400022003F0B1FF214B1A6855F82200204937
:102A14000B6801330B60C35C23B901321B4B1A6092
:102A240001220A603F26CEE755F8273001341B5DAA
:102A34005BB17A1C154B1A6055F827301C44164BB1
:102A44001C60134B01221A60BDE701370F4B1F6056
:102A54004F4507DA7A1C0D4B1A6055F827200E4BA8
:102A64001A60EEE733462A680E49022003F07CFF21
:102A7400074B01221A603F26A5E74FF0FF36A2E775
:102A84004FF0FF369FE74FF0FF369CE70800002029
:102A94000C0000203C0A0020380A00207C040108B5
:102AA400280A0108400A01082DE9F84305460C46A6
:102AB40062B116460023E25C1AB1F25C22BB013318
:102AC400F9E74FF00108B8F1000F20D0224629465B
:102AD400424803F085FF4249FDF78BFE002879DB6D
:102AE4000C2002F00BFE074620460CF077FF013065
:102AF40002F004FE21460CF063FF386000237B6083
:102B0400BB603846BDE8F8834FF00008DBE72B785C
:102B140003B9344D28460CF08DFD0746324B18603E
:102B24000028EED02E492846FDF763FE00280ADB74
:102B34002B4B1B8903F47043B3F5804F03D14FF043
:102B440000094F4626E0284B18680CF095FC002736
:102B5400D7E705F10A023146204602F019FDC8B153
:102B64003FB30C2002F0CAFDC9F8080081461F4D8E
:102B740028680A300CF032FF013002F0BFFD2968EA
:102B84000A310CF01DFFC9F800000023C9F8043015
:102B94004FF00108144B18680CF050FE0546134B17
:102BA400186060B1AB7A2E2BD3D123782E2BF1D1C0
:102BB400CFE70C2002F0A2FD07468146D7E70A4B77
:102BC40018680CF059FCB8F1000F05D00023C9F8BF
:102BD400083096E7002794E72F4692E7680A010831
:102BE4005C0A002024050108440A0020480A002049
:102BF4002DE9F04184B005460E4617461C460133C4
:102C0400254AD268934204D8234B1B6800221A55E4
:102C140010E05900DFF88080C8F80C10D8F80000E4
:102C240002F086FDC8F80000EEE71B4B1B68013C70
:102C34002F221A55002CF8D14FF0000844460EE01C
:102C4400154800F0B5FA014601A800F0B1FAE4B164
:102C5400A0602046044680680028FBD1AD68B5B169
:102C64003A4631462868FFF71FFF01460028F5D091
:102C74002B6801930023029303932B681A782F2A5D
:102C8400DED15B78002BDFD0DAE78046E2E740460E
:102C940004B0BDE8F08100BF9C0A00202DE9F04794
:102CA40084B080460C460CF099FE451C4C4B1B68C6
:102CB400AB4202D34B4B1B683BBBDFF828A1DAF8CD
:102CC400000002F04BFDDFF82091D9F8000002F07B
:102CD40045FD464F386802F041FD454E306802F02C
:102CE4003DFD284602F0CCFCCAF80000284602F05C
:102CF400C7FCC9F80000284602F0C2FC3860284628
:102D040002F0BEFC3060364B1D60364B1968364B02
:102D1400D3F80090354B1A68354B1E68454610466B
:102D24000B4606E0013503F8017B14F8017B00F83B
:102D3400017B2F782F2F01D0002FF3D100201870A2
:102D44002B784BB198F800302F2B0ED101910292C1
:102D54000023039301AF2EE02648FFF7A5FE0746A4
:102D64009FB3384604B0BDE8F0872248FFF79CFEC5
:102D7400074620E00135494601F8012B14F8012BE0
:102D840006F8012B89462A782F2A01D0002AF1D18E
:102D9400002289F80020164EDFF84C903268D9F8EA
:102DA40000103846FFF724FF0746D9F8009036682C
:102DB4002B78002BD4D003F0E9FE00232A782F2AA5
:102DC400E1D1013301350134F8E70C2002F096FC1F
:102DD4000746C0F80080002343608360C1E700BF5A
:102DE4004C0A0020400A0020580A0020500A002003
:102DF400540A00203405010870B5054602F085F92F
:102E0400012801D8284670BD064600212846FFF750
:102E1400A5FC0446074B042231460CF0D0FC2B469B
:102E240005E0204650F8042B1A609B680446002BEA
:102E3400F7D1E7E79373000870B50D46064650B125
:102E440036B32C4614B332686168206802F0A0FBE4
:102E540000BBA468F6E711B901201CE0AD689DB180
:102E64000D4928680CF0DFFD064628680CF0B6FD15
:102E740004468642F2D168680028EFD00CF0AEFD1B
:102E84008442EBD1012006E0002004E0B668D7E7D5
:102E9400002000E0012070BDAC04010870B50646B6
:102EA4000446002200E0A46824B16368002BFAD031
:102EB4000122F8E76AB3254607E00C2002F01EFC65
:102EC4000446054633682B60B668F6B1716839B9B3
:102ED400002CF2D00C2002F011FCA8600546F1E7AA
:102EE4005CB13068FFF7DAFEFFF786FFA8602B4677
:102EF4001D469B68002BFBD1E6E73068FFF7CEFE4A
:102F0400FFF77AFF04460346F2E70023AB6020464E
:102F140070BD3446FBE700002DE9F04FC3B0834693
:102F240000914FF48072002102A80CF07BFB012376
:102F34008DF8083001E0DBF808B0BBF1000F09D0D0
:102F4400DBF800201378002BF5D0012102A8C1542E
:102F54000A44F7E70C2002F0D1FB0746019040F247
:102F6400E93002F0CBFB0446386000257D60DA4688
:102F74004FF47A79C846B8F1000F0AD04246214688
:102F84000098FDF740FB061E1BDDA8EB060826444F
:102F940028E03B68A4EB030801E04FEA490908F57F
:102FA4007A734B45F9D809F1010002F0A7FB0446F6
:102FB400424639680CF00BFB3C604444A9EB08081A
:102FC400DCE756B31F4B1B68042B2FD01E4804F0BC
:102FD40093F90020FEF794FCD7E7237802AAD35C88
:102FE4006BB90134B442C6D2002DF6D1237802AABB
:102FF400D35C002BF5D13C607B600125F1E7002513
:10300400A2460AF8015B0C2002F078FBB860C0F815
:1030140000A04560BA460746E3E75DB9BAF1000F80
:103024000ED00023CAF80830DDF804B0584643B087
:10303400BDE8F08F00232370BB60DDF804B0F5E732
:10304400D346F3E700090020700A010838B50546A5
:103054000C2002F053FB0446284602F056F80146C1
:10306400044803F0BDFC20600023A3606360204695
:1030740038BD00BF900A0108F0B583B004460C20A7
:1030840002F03CFB05460C2002F038FB064668467D
:10309400FDF790FA002826DB04F0A4FB58BBFEF7EA
:1030A4005DFE6168B1FA81F1490902AB03EB81036A
:1030B40053F8080C04F08AF9002819DB6368003B14
:1030C40018BF012302AA02EB830353F8080CFDF78F
:1030D400E3F800211E4B1960E06804F09FFC03F044
:1030E400F9FD0CF0B3F91B4804F006F900252BE0B8
:1030F40001200CF0ABF96368003B18BF012302AA5E
:1031040002EB830353F8081C134803F069FC0746D9
:103114006368003B18BF012302AA02EB8303324613
:1031240053F8081C0620FEF78BFB6368B3FA83F39D
:103134005B0902AA02EB830353F8080CFDF7ACF811
:103144002F6000236B60AB60284603B0F0BD00BF66
:10315400AC0A0020800A0108880A010838B505462F
:1031640038B10C460C2002F0C9FA05604460002313
:10317400836038BDF8B50E46B0B10446B1B10C2039
:1031840002F0BCFA0746054604E00C2002F0B6FA49
:10319400A860054623682B6063686B60A468002CF4
:1031A400F3D1AE603846F8BD0F46FBE70746F9E7B2
:1031B4002DE9F04F83B00E46002871D00546002952
:1031C40070D001F0A2FF8246304601F09EFF834694
:1031D400824504D0BAF1010F01D0012805D10C2099
:1031E40002F08CFA0190044616E02F48FEF788FBA3
:1031F400F5E773684BBB63603CE042460CF012FA9F
:103204002DE060684A4640440CF00CFA2FE00C2094
:1032140002F074FAA060044628680CF0DFFB8046D4
:1032240030680CF0DBFB814608EB000701373846B9
:1032340002F064FA206029680CF0C2FB316820684F
:103244000CF09AFB6B68002BD3D0384602F056FA88
:10325400606069680029D0D042460CF0B8F9716802
:103264000029CED060684A4640440CF0B0F9636847
:103274000022DA55BAF1010F00DDAD68BBF1010F90
:1032840000DDB66835B12EB1BAF1010FBFD1BBF183
:10329400010FBCD10023A360019803B0BDE8F08FF7
:1032A4000191F9E70190F7E7940A01082DE9F04745
:1032B40082460E4601F029FF80464FF000094F4632
:1032C40013E01648FEF71CFB16E0AD68013CFCD188
:1032D400B9F1000F14D00C2002F010FAB8600746C0
:1032E4002B683B606B687B60B6687EB10A213068EE
:1032F40004F03EF8041EE4DDA045F5DB5546E5E7A1
:103304000C2002F0FBF907468146E9E7B9F1000F0A
:1033140001D00023BB604846BDE8F087A80A010835
:103324002DE9F041064670B3836873B30C2002F0B4
:10333400E5F90746304601F0DAFE013002F0DEF925
:103344000446386000237B60BB6031680CF038FBB6
:1033540030680CF043FB0444202304F8013BB668B6
:10336400D6F8008040460CF039FB0546024641463B
:1033740020460CF02CF92C44B368002BECD12370BC
:103384003846BDE8F0810746FAE70746F8E700004B
:10339400F8B50E461546044670B3A36813B12D481C
:1033A400FEF7AEFA23681B7853B30A21206803F0B2
:1033B400DFFFB0F1FF3F27D13D2120680CF0EBFA8D
:1033C40010B12548FEF79CFA23681A782A2A1FD0E0
:1033D40037464EB3214B1B7883BB2A4639462068B7
:1033E40004F002F82468204604F088F801462A46CE
:1033F400204604F051F9F8BD1948FEF781FACCE7EC
:103404001848FEF77DFAD0E71748FEF779FAD3E7B4
:103414005B780BB13746DCE7144804F06FF83146AB
:10342400FFF7A8FE0746D4E7002DD3D10B4B1B783A
:1034340053B92946206804F0CFF8DCE73A462168FE
:10344400022004F07DF9C8E700222168022004F07C
:1034540077F9EEE7CC0A01081C0B01082B0B0020BE
:10346400B80A0108E80A0108040B01081041010820
:1034740038B505460A4B1B685BB11C465B68002BDC
:10348400FBD1082002F03AF9606005600023436034
:1034940038BD082002F032F9014B1860F5E700BF8F
:1034A400AC0A002070B50546002800F0CA800378F5
:1034B400023B1E2B57D8DFE803F0355656565656B6
:1034C4003B56565648565656565656564856105615
:1034D4005656565656564C105200446800260AE07A
:1034E400A06810B103781E2B0BD1FFF7DBFF08B1E6
:1034F40086600646646824B12378162BF0D01F2B0F
:10350400EED02046FFF7CEFF3146FFF733FE0446E8
:10351400A868FFF7C7FF01462046FFF72BFE0446C5
:10352400204670BD8168406800F096F80446F7E7CD
:103534004068FFF7B7FF0446A868FFF7B3FF0146EA
:103544002046FFF735FE0446EAE7FFF791FF002423
:10355400E6E781684068FFF701FE0446E0E7FFF70D
:103564008BFD0446DCE74068FFF79CFF0446002817
:1035740042D0A36813B13448FEF7C2F923681B781C
:10358400002B3DD0206803782A2B02D14378002BEE
:103594003AD003F0B3FF04462B78093B132B37D8FA
:1035A40001A252F823F000BF2136000815360008A6
:1035B4002B360008153600081536000815360008A5
:1035C40015360008153600081536000815360008AB
:1035D400153600081536000815360008153600089B
:1035E400153600081536000815360008153600088B
:1035F40025350008353600081448FEF781F9B8E788
:103604001348FEF77DF9BDE703F078FF8468C3E74C
:10361400104803F091FE01200BF018FF2046FFF73D
:1036240015FD04467CE72046FFF77AFE044677E75B
:10363400A868FFF737FF01462046FFF737FE044628
:103644006EE704466CE700BFCC0A0108B80A01081B
:10365400E80A0108340B010870B584B00C4669B35C
:10366400054602A8FCF7A6FF00282ADB04F0BAF8F6
:10367400064668B30398FCF70FFE2846FFF712FFCF
:103684000299FFF749FC04460298FCF705FE012263
:1036940001A9304604F0DEF801994FF0FF3003F041
:1036A40035FB019803F0B6FB0021FFF757FD0146F7
:1036B4000022104803F098FE03F068FA204604B094
:1036C40070BD0D4803F018FE0020FEF719F9CDE790
:1036D4000121039803F07AFE0298FCF7DDFD002136
:1036E400064B1960204604F099F903F0F3FA0BF045
:1036F400ADFE00BF4C0B0108800A0108AC0A002093
:1037040010B40023047844B3E20282EA444282EA19
:10371400441282EA640213444478F4B1E20102EBF5
:10372400843202EB0412224453408478ACB16FEA31
:10373400040C621082EAC40242EACC225340041D03
:10374400C27852B1500240EA024040EA820002F0DC
:10375400030202439B1A2046D4E7002B04DB013901
:1037640001EA030010BC7047DB43F8E7F8B50546EF
:103774000E4617461146FFF7C3FF044602E0013424
:10378400781E044056F8340040B102782B789A42EF
:10379400F5D129460CF009F90028F0D12046F8BDEE
:1037A40070B50546002400E00134092C0DDC2A78AC
:1037B400134B53F824100B789A42F5D128460CF099
:1037C400F4F80028F0D1002618E0002400E00134C9
:1037D400012C12DC0B4B03EBC4031E79002EF6D133
:1037E4002A78084B53F834100B789A42EFD12846C4
:1037F4000CF0DBF80028EAD100E00126304670BD69
:10380400900B0108140000202DE9F84F8046324B3C
:103814001B68834210D0314B1B68314AD2F80090A8
:10382400B9EB430F55DC4FEA49064FEA091001F0A2
:1038340027FF044600230DE02A4B1B682A4AD2F8CE
:103844000090B9EB430FEEDD002038E0002244F88D
:1038540033200133B342F9DB4FF0000B5D460DE03A
:103864000130731E184004EBC00254F83030002BB2
:10387400F6D11760DAF80430536001354D450FDA9C
:1038840008EBC50A58F83570002FF6D0174B9F4245
:10389400F3D00BF1010B31463846FFF731FFE2E775
:1038A4000D4B1B6843450CD00C4BC3F800B0104BB8
:1038B4001C600B4B1E60404601F050FF0120BDE828
:1038C400F88F084BC3F800B0034B1C60064B1E6016
:1038D400F1E70020F3E700BFBC0A0020D00A002073
:1038E400CC0A0020C40A0020C00A0020884901082C
:1038F400C80A002010B50446006803F093FC606811
:1039040001F02CFF10BD000038B505460322134911
:103914000CF070F8044610B1012038BD0134402C7D
:103924000DDC2A780E4B53F834100B789A42F5D1FB
:1039340028460CF03AF80028F0D10020EDE72B7867
:10394400732B01D00120E8E7064928460CF02DF836
:1039540008B10120E1E70020DFE700BF30080108DB
:10396400340000202808010810B54FF4007001F05D
:1039740087FE0E4C20604FF4007001F081FE0C4B6A
:10398400186000230B4A13600B4A136040220B4952
:103994000A600B490A60216805E0002241F8082BFF
:1039A40040F8082B01333F2BF7DD10BDBC0A002083
:1039B400C80A0020D00A0020C40A0020CC0A002033
:1039C400C00A002010B50C46094B1B688B420BD073
:1039D400084B1A682146FFF7C9FE04EBC00354F8EC
:1039E400300000B1586810BD034B1A68F2E700BFFD
:1039F400BC0A0020CC0A0020C00A00202DE9F041B6
:103A04000646204B1D68204B1A682946FFF7AEFE78
:103A140004461E4B01221A7005EBC00255F83030E3
:103A24004BB15068FFF766FF164B186800EBC404EF
:103A34006068BDE8F0812846FFF7E6FEC8B9144A7D
:103A440013680133136030460BF0C8FF013001F0F6
:103A540017FEE5000B4FD7F8008031460BF0B0FF9E
:103A640048F834003B681D44082001F009FE6860F2
:103A7400DAE7054B1A68034B19683046FFF776FE00
:103A84000446DCE7BC0A0020C00A00201000002025
:103A9400C40A00202DE9F04107460E462A4B1D6852
:103AA4002A4B1A682946FFF761FE294B01221A7036
:103AB40005EBC00255F8303083B14FEAC008002E40
:103AC4003AD00C2001F0DCFD04461F4B1B68434434
:103AD4005A68826058602046BDE8F0810446284652
:103AE400FFF792FEF8B91B4A136801331360384696
:103AF4000BF074FF013001F0C3FDE600124DD5F860
:103B0400008039460BF05CFF48F834002C683444DC
:103B14000C2001F0B5FD60602B6833445A68002125
:103B240091605C68D7E7094B1A68074B19683846F7
:103B3400FFF71CFE0446D6E75468606801F00EFEE9
:103B4400206801F0A3FAC6E7C80A0020CC0A0020C6
:103B540010000020D00A002070B51A4B1D681A4BC3
:103B64001A682946FFF702FE05EBC00255F830300B
:103B7400F3B10446C600154B012119705068FFF7D4
:103B8400B9FE104D2B683344586801F0E7FD2B68EB
:103B940053F8340001F0E2FD2968631C0A4A1268F4
:103BA400013A134051F833301BB1094B41F834301A
:103BB40070BD084A1368013B1360002341F8343098
:103BC400F6E700BFBC0A0020C00A00201000002055
:103BD40088490108C40A0020F8B50E46224B1D6826
:103BE400224B1A682946FFF7C1FD05EBC00255F8C0
:103BF40030308BB10446C7001D4B01211970556844
:103C0400686801F0ABFD286801F040FAAB6863B165
:103C14001EB900236B602B60F8BD134A1268174469
:103C24007B60284601F09AFDF6E7284601F096FDF0
:103C34000D4D2B6853F8340001F090FD2968631C86
:103C44000A4A1268013A134051F833301BB1094B48
:103C540041F83430E0E7084A1368013B136000235D
:103C640041F83430D8E700BFC80A0020CC0A00204D
:103C74001000002088490108D00A002038B5044605
:103C8400002000E0013054F82030002BFAD101303C
:103C94003F2800DC40204200134B1A60C00001F0B2
:103CA400EFFC124B18600DE0284603F00DFD40B9FF
:103CB4000E4B19680E4A1368581C1060226841F8AC
:103CC40023200434256875B103220A4928460BF0E1
:103CD40091FE0028E8D1084B1B78002BF1D128462F
:103CE400FEF798F8EDE738BDB80A0020B40A0020C2
:103CF400B00A0020580B01082E0B002070B50646B0
:103D04000D46002400E00134012C16DC0B4B03EBC0
:103D1400C4031B79AB42F6D03278084B53F8341005
:103D24000B789A42EFD130460BF03FFE0028EAD1DF
:103D3400024B03EBC4031D71E5E770BD14000020C2
:103D4400384B1B789BB12DE9F041364B00221A7099
:103D5400354B1E68354B1968354B1A688B1801337F
:103D6400334434480068834204DC002410E0324BBE
:103D74001868704731440A44511C4A002D4B1A609C
:103D84002D4CC900206801F0D3FC2060EDE701341C
:103D9400264B1B68A34218DD284B1B6853F834508C
:103DA400002DF4D0264B9D42F1D02846FFF7F8FCB5
:103DB4000028ECD0284603F0F5FB0028E7D01E4A83
:103DC400126842F826000136E1E7002400E00134DD
:103DD400174B1B68A34218DD1A4B1B6853F8345069
:103DE400002DF4D0164B9D42F1D02846FFF78CFDF0
:103DF4000028ECD0771C104BD3F800802846FEF73F
:103E040043F848F826003E46E1E70B4C20680023BF
:103E140040F826300C4B042231460BF0D0FC2068CD
:103E2400BDE8F08110000020B00A0020CC0A002078
:103E3400C00A0020B80A0020B40A0020C80A0020E2
:103E440088490108BC0A00209373000870B5054630
:103E5400D1B9002D31D170BD0134194B1B68A34277
:103E6400F7DDE600174B1B6853F834000028F3D045
:103E740003F044FB02460028EED0124B1B6899590C
:103E8400012003F05DFCE7E70024E6E701340E4B74
:103E94001B68A342DFDD0D4B1B6853F83450002D23
:103EA400F4D00B4B9D42F1D02846FDF7C9FF0246E2
:103EB40029460120FEF7E0F8E8E70024E7E700BF21
:103EC400CC0A0020C80A0020C00A0020BC0A002036
:103ED400884901082DE9F84F82464FF4007001F03B
:103EE4000DFC054600F50077304B00221A70814620
:103EF4004FF4007800F05AFC564600E0013600F01A
:103F040059FA044633788342F8D023B90A2810D0EA
:103F1400B0F1FF3F0DD0564531D0A6EB0A06AB19E0
:103F2400BB4209D23246514628460BF050FB354479
:103F340025E000232B7018E006EB4808404601F00A
:103F4400DDFB8346A5EB09052A4649460BF03FFBFA
:103F54005D440BEB0807D946E4E7154800F050FC34
:103F6400124B01221A704FF000094846BDE8F88F41
:103F740005F8014B0A2CBDD000F01CFA0446B4F13C
:103F8400FF3FEAD06B1CBB42F2D34FEA48084046DD
:103F940001F0B4FB0646A5EB09052A4649460BF099
:103FA40016FB354406EB0807B146E1E7D40A0020C6
:103FB400B80B01082DE9F047054604784FF00008D6
:103FC40012E0904610E0002203F8012C29461E203E
:103FD40002F0F0FF02463546B8F1000FF1D0414639
:103FE400082002F0E7FF8046002C3FD0242C08D0A4
:103FF4002B461E4601333478002CE4D0242CF8D10F
:10400400E1E705F10109AE1C6B78242B22D00027CF
:1040140038460137354601362C78164B1B5D002B8C
:10402400F6D05E2C1FD0023001F068FB06464FF03C
:10403400000A00F807A03A4649460BF0C8FA52466F
:1040440031461E2002F0B6FF01460B2002F0B2FFFB
:104054000246C1E7002208491E2002F0ABFF0246D7
:10406400AC783546B8E734783546DCE74046BDE8F9
:10407400F08700BF580D0108B80F010870B5154B43
:104084001C6814B3064600221A6058B1124800F0A6
:10409400B7FB00201AE0FFF78DFFE86004236B6094
:1040A400A46884B125686068FFF714FF0B4B1B7884
:1040B4006BB9237B002BEED000231A4601461E2049
:1040C40002F078FFE9E7012000E0012070BD3046EE
:1040D400FCE700BFD80A0020B80B0108D40A00206E
:1040E40070B503781E2B03D105460E460D4C08E02F
:1040F4000D4800F085FB00F057FA002010E003F1B2
:1041040008042368002BFAD1102001F0F7FA20608C
:104114006B6843602B7B037306600023836001207C
:1041240070BD00BFD80A0020CC0B01084FF0FF304F
:10413400014B1860704700BFF80A00207047000068
:10414400B0F1FF3F07D0064B1968064A1368013BDC
:104154001360C8547047044B01221A70704700BFA3
:10416400E80A0020E00A0020E50A0020074B1B684B
:10417400074A1268D05C28B10133044A1360054B26
:10418400186070474FF0FF30F9E700BFE00A0020E5
:10419400E80A0020F80A002038B51C4B1B7803B944
:1041A40038BD1B4803F0AAF984460028F8D0002241
:1041B40008E0284603F0A0F80121284603F00CFA91
:1041C400EEE70132134B1B689342E9D9931C124961
:1041D4000968CB5C232BE3D00A2BE1D0202BF0D051
:1041E400092BEED0DCF800500221284601F0F4FA45
:1041F400041EDEDB084B1968064B1A6802312046A0
:1042040002F0C6FE2046FCF747F8C9E7300B002051
:10421400F40B0108DC0A0020E80A002010B5344B36
:104224001B680233334A1268934212D9324B19681D
:10423400304A1368581C1060C85C304B186010BDBD
:104244002F4B04221A60002C2FDA2D4B1B68042BF1
:104254002BD12C4B1B68284A11684FF48072023111
:104264009868FCF7D0F9044602F090FC244B1B68D4
:10427400052B0CD00B2BE6D1224B1B68986801F060
:10428400C1FA0028DCD1204803F056F8D8E71D4BCA
:104294001B68986801F0E0FA18B1194B04221A60FF
:1042A400D1E7174B05221A60CDE7002C0BDB104B2E
:1042B4001C607CB10F4B02221A60144B1B7873B93B
:1042C400FFF76AFFB2E7124803F016F80020FDF783
:1042D4002BFBECE74FF0FF30084B1860AFE7064BC1
:1042E400196822460231022002F052FEE8E700BFBC
:1042F400DC0A0020E00A0020E80A0020F80A002076
:1043040000090020EC0A0020FC0B01082F0B002000
:104314000C0C010810B51B4A13681B490968D960C5
:104324001A49096819611A490968596019490968DB
:10433400596119490978197718490968996118491F
:104344000978597720331360164A10681C1A164BE3
:1043540019684B09B3EB641F09D9144B144A1A604A
:10436400094B02221A60094B00221A6010BD490051
:104374000D4B196001F0DCF90A4B18602044014A26
:104384001060EAE7EC0A0020E00A0020DC0A0020C2
:10439400E80A0020180B00202C000020F80A002056
:1043A400E50A0020F40A0020F00A0020080B00208F
:1043B4004541000808B50B4B1B785BB1094B002243
:1043C4001A704FF0FF33084A136009E000210748D0
:1043D40002F074FF064B1B68984703460028F5D08B
:1043E400184608BDE50A0020F80A0020140C01084C
:1043F400040B002008B5024B1B68984708BD00BF9A
:10440400080B002008B54FF40050084B186001F069
:1044140037F9074B1860074B1860002303704FF0FF
:10442400FF338360044B054A1A6008BDF00A00207C
:10443400F40A0020EC0A0020080B00204541000883
:1044440038B50446FFF766FF094B1B6800221A7053
:104454000125084A15709C60074B084A1A604FF4FE
:10446400817001F00DF9064B1860064B1D6038BDD4
:10447400EC0A00202C000020040B0020214200083C
:10448400E80A0020180B002070B504460D46FFF71B
:1044940041FF0D4B1B6801221A700C4E35702146EA
:1044A4000B4802F085FA0B4B18600B4B0B4A1A6051
:1044B40033781BB10A4B01221A6070BD084A136895
:1044C400013B1360F9E700BFEC0A00202C00002038
:1044D400340C0108E80A0020040B00207141000894
:1044E400180B002008B5224B1B681A78002A2DD01F
:1044F400204B186801F032F91D490A68A2F1200323
:104504000B6012F8202C012A24D01B481B49086098
:104514001AB99A68B2F1FF3F1ED09969184A11601E
:10452400597F184A11705968124A1160D968164A9D
:1045340011601969154A1160154A12789AB15969BE
:10454400144A11601A7F124B1A7008BD9868FBF761
:10455400A3FECDE71048D9E70A4610491160104A76
:1045640010491160D9E70B490A6801320A60E9E78A
:10457400EC0A0020E80A002021420008040B002075
:10458400F80A0020E50A0020E00A0020DC0A0020E6
:104594002C000020180B0020714100083141000854
:1045A400080B00204141000808B50A4B1B680A2B80
:1045B4000CD0B3F1FF3F09D0FFF7FCFE0A2802D06C
:1045C400B0F1FF3FF8D1B0F1FF3F00D008BDFFF7D5
:1045D40011FFFBE7F80A002010B5A6B001904C4B80
:1045E4001B780BB10023019301210BA8FCF719FCE4
:1045F40008AA0BA90020FDF723F900242DE0454863
:1046040002F07CFF044600214348FEF7A7FD014663
:104614002046FEF7CDFD03680693002307933F4A27
:10462400012111703E4A137005A8FCF759FF23E0DD
:104634003C4B01221A703C48FDF7D0F82AE03B4A73
:1046440039E0019B002B3ED00020FDF76DF93AE0E4
:10465400012103F0E3F9FDF705F9002C4FD101F036
:1046640007F8014602AA0420FDF7EAF802F08EFAE0
:104674002B4B1B78002BC2D12D4B1B78EBB1244B59
:104684001B7853B92B48FDF7DBFB30B1254B1B7866
:10469400002BCDD0234B00221A70264802F02EFFA7
:1046A400044650B102682449022002F05DF9A3686F
:1046B400002BC4D01A68214B1A6000F0B7FC01F03B
:1046C40073F90128BDD01E4B1C68B4F1FF3F14BF21
:1046D400002401241B4B18680028BCD0019B002B2C
:1046E400B6D1194B1B78002BB5D0094B1B78002B86
:1046F400B1D002461549022002F036F9ABE7FFF7C4
:10470400F1FEFDF7AFF80F4B186826B010BD00BFDF
:10471400290B0020280501083C0C0108000B00208F
:10472400280B0020E40A0020240000208849010806
:10473400300B00205C0B0108A0080108FC0A0020D3
:10474400F80A0020440B00202B0B0020440C010825
:1047540070B582B0074C267800900025019525702D
:1047640001216846FFF790FE2846FFF735FF2670C3
:1047740002B070BD300B002010B50A4B1C6800E07D
:10478400203C094B1B68A3420BD02378002BF7D1A4
:10479400A0680228F4DDFBF77FFD4FF0FF33A36030
:1047A400EEE710BDEC0A0020F40A002008B5074A21
:1047B400136801331360064B1B7803B908BD054B1E
:1047C4001A680549022002F0CFF8F7E7180B002019
:1047D400300B0020FC0A0020A0080108024641B169
:1047E40005491078013230B10B5C002BF9D001205F
:1047F40070470249F5E77047580D0108580E010843
:104804001E490978D1B910B582B004461C4B1B78F7
:10481400002B2CD11B4B1B78A3B11B4B18681B4BD3
:1048240019681B4B1A68009023460A2908BF013AED
:104834001849022002F098F802B010BD0F4B002274
:104844001A707047114B1968B1F1FF3F0BD00A2958
:104854000BD0A1F120035E2B03D90F4802F0C0F85E
:10486400DDE70E48FAE70E48D9E70E48D7E70246D7
:104874000D49022002F078F8DEE700BF1D0B00208E
:10488400300B0020240B0020200B0020F80A00200D
:10489400180B0020700C0108500C0108480C01088A
:1048A400600C0108640C01089445010810B5044625
:1048B400FFF77AFE2046FFF7A3FF0123024A137095
:1048C400024A137010BD00BF1D0B00200D0B002009
:1048D40010B56FF00803254A1360254A13605B285E
:1048E40002D0FFF787FD10BDFFF764FDA0F130048F
:1048F400092C07D91F48FFF7D9FFF4E704EB840418
:1049040003EB4404FFF756FDA0F13003092BF5D95E
:10491400174B1C603D2805D05D28E4D01648FFF7EE
:10492400C5FFE0E7FFF746FDA0F13004092C0ED9DE
:104934002D2C04D10D4B4FF0FF321A60D3E70F48F2
:10494400FFF7B4FFCFE704EB840400EB4404FFF764
:1049540031FD30380928F6D92D2802D1034B1C60CB
:10496400C1E70748FFF7A2FFBDE700BF140B002013
:10497400100B0020880C0108A40C0108C40C0108C9
:10498400E40C01082DE9F843824B1D68824B1B7827
:104994009BB9824B1B78BBB1814E804B00221A70AD
:1049A400804B1B78ABB1804A1368013B1360FFF75F
:1049B400FDFE7C4B00221A700BE0774B00221A702C
:1049C4000A242046BDE8F883784EE6E7784B0022B7
:1049D4001A70FFF7EFFC04462028F7D00928F5D019
:1049E400B0F1FF3F00F0F782C3B2F35C002B00F09C
:1049F4009680602809D0212807D0402805D07E2839
:104A040003D0242801D027280DD1694B1B78002B13
:104A140040F08A81212C03D0402C01D07E2C02D17D
:104A2400634B02221A70A4F10A03742B00F2CF82A2
:104A3400DFE813F01402CD02CD02CD02CD02CD0287
:104A4400CD02CD02CD02CD02CD02CD02CD02CD02EA
:104A5400CD02CD02CD02CD02CD02CD02CD02CD02DA
:104A6400CD028201CD0209029001CD023C029E01D9
:104A7400FE011B02CD02CD02CD02CD02CD02CD023C
:104A8400CD02CD02CD02CD02CD02CD02CD02CD02AA
:104A9400CD02CD02CD021B02A2021B027A02CD027C
:104AA400D702CD02CD02CD02CD02CD02CD02CD0280
:104AB400CD02CD02CD02CD02CD02CD02CD02CD027A
:104AC400CD02CD02CD02CD02CD02CD02CD02CD026A
:104AD400CD02CD02CD02CD02E301CD021B02CD02F7
:104AE4008801CD02CD02CD02CD02CD02CD02CD0290
:104AF400CD02CD02CD02CD02CD02CD02CD02CD023A
:104B0400CD02CD02CD02CD02CD02CD02CD02CD0229
:104B1400CD02CD02CD021B0247021B028501244BAC
:104B240093F80080B8F1000F04D1214B01221A70D0
:104B3400002717E000221A70FFF75CFC5E2440E7B0
:104B44004F460FE04FF001081A4B1968B94217D9C4
:104B5400FFF730FC0446B0F1FF3F42D0C3B2F35C30
:104B6400002B3ED1EC5501373F2CEBD05B2C04D00D
:104B74002A2CE9D14FF00108E6E74FF00108E3E7FA
:104B840049001960284600F0D3FD0546014B186022
:104B9400DEE700BF200B00200D0B00200C0B0020D3
:104BA400580D01081C0B0020180B0020580E01089A
:104BB400240B002030000020FFF7FCFB04460A28E9
:104BC40047D0AC4B9E4251D007F101095C23EB5511
:104BD400A94B1968494540D9E3B2F35C002BAFD027
:104BE4004F465C2CE8D02046FFF704FC0023EB552D
:104BF400A24B02221A7097423DD02C78662C53D0D7
:104C0400652C5AD0732C61D0772C68D0632C06D1D4
:104C14009B4928460AF0C9FE002800F0DF81974B23
:104C240001221A7028460AF0D9FE013000F066FD10
:104C340029460AF0C5FE934B1860B8F1000F57D10E
:104C4400904B00225A608F4B00221A7240F21714C4
:104C5400B7E6FFF7ABFD2024C5E7490019602846F5
:104C640000F066FD0546884B1860B5E72046FFF75F
:104C7400C1FB5C24B7E72B78692B09D0662B0DD0D8
:104C8400692BBAD16B786E2BB7D140F20D1498E62C
:104C94006A78662AF2D14FF4867492E66A786E2AAC
:104CA400EED14FF485748CE6784928460AF07DFEEF
:104CB4000028A5D140F20B1483E6754928460AF072
:104CC40074FE00289ED140F207147AE67149284602
:104CD4000AF06BFE002897D14FF48A7471E66E498E
:104CE40028460AF062FE002890D14FF48B7468E6DF
:104CF40028460AF073FE013000F000FD614B586055
:104D040005E0012300E0012300F8013B01352B7885
:104D1400002B98D03F2BF6D05B2B03D02A2BF0D05E
:104D24000023F1E70123EFE7544B00221A702046D9
:104D3400FFF760FB5E2444E640F2031441E640F2D0
:104D440015143EE6FFF736FB602800F04D81FFF7AF
:104D540051FB36E6514B01221A70FFF72BFB232837
:104D640000F045815E2800F04581FFF743FB28E60B
:104D7400424B01221A7000260CE0FFF717FD12E0E7
:104D84003E4B00221A704648FFF790FD4FF48C7496
:104D940017E63E46FFF70EFB0446272813D0771C80
:104DA400AC550A2CE9D0B4F1FF3FE9D0324B196875
:104DB400B942EED849001960284600F0B9FC05460E
:104DC400314B1860E5E7FFF7F5FA04462728E6D0EB
:104DD400FFF710FB0024AC5528460AF0FFFD013014
:104DE40000F08CFC29460AF0EBFD264B18605C6051
:104DF40001221A7240F21714E3E5FFF7DBFA0A28DE
:104E040002D1FFF7D3FCE4E5FFF7F4FA1B4B93F868
:104E14000080B8F1000F04D1FFF7CCFA0446002754
:104E2400CFE600221A705C20FFF7E4FA5E24C8E59E
:104E3400124B1B78012B03D0104B00221A70C0E5D3
:104E44004FF48974F8E7FFF7B5FA04460A2805D049
:104E5400B4F1FF3FF7D14FF48474B2E5114A1368FB
:104E640001331360104B01221A70044B00221A7094
:104E7400A7E500BF580D010830000020240B0020D6
:104E84001C0D0108580B0020200B0020000D010808
:104E9400040D01080C0D0108140D01080C0B002071
:104EA400240D0108180B00201C0B0020594B002274
:104EB4001A70FFF77FFA262800F09F80FFF79AFA0E
:104EC4007FE5544B00221A70FFF774FA7C2800F037
:104ED4009780FFF7FDFC504B1B78002B40F093802C
:104EE4004E4B1B684E4A136013F1090F0ED04D4B05
:104EF4001B684B4A536013F1090F0BD0484B5B6896
:104F0400B3F1FF3F0AD040F20F145AE513460122D1
:104F14001A60ECE7134600225A60EFE74248FFF7B5
:104F2400C5FC4FF48C744CE5FFF744FA3E281DD0C1
:104F34003B4B01221A703A4B01225A60354B002236
:104F44001A70FFF7C5FC344B1B78002B5ED1354B30
:104F54001B6813F1090F32D1304B1B6813F1090F91
:104F640023D02F4A536040F211142AE5FFF722FAA6
:104F74002B4B02221A70DEE7FFF71CFA3C2806D0FE
:104F8400274B00221A70264B00225A60D6E7FFF7FF
:104F940011FA3C2803D0224B03221A70F3E7FFF7DF
:104FA40009FA1F4B04221A70EDE71D4B1B78012BE5
:104FB40002D940F2111404E54FF4887401E5184A4B
:104FC40016490968516093604FF48374F9E4114BF6
:104FD40000221A70F5E44FF48474F2E44FF48274FE
:104FE400EFE440F21314ECE44FF48174E9E440F28A
:104FF4000514E6E440F20914E3E440F20114E0E4A9
:105004004FF48774DDE44FF48C74DAE44FF48C7459
:10501400D7E400BF240B00200D0B0020100B002050
:10502400580B0020140B00203C0D010808B5002388
:10503400114A1370114A1370114A1360114B1B6803
:10504400B3F5FA5F0DD9104A106850B100F086FB31
:105054004FF47A700B4B186000F012FB0A4B186087
:1050640002E0094A126802B108BD184600F008FBC4
:10507400054B1860F8E700BF1C0B0020240B002030
:10508400D80A002030000020200B002038B5044648
:1050940007E0A568206800F061FB204600F05EFB95
:1050A4002C46002CF5D138BDF8B504460F46002532
:1050B4002E460FE00C20B847A860054620680AF089
:1050C4008DFC0130B847286021680AF079FC002380
:1050D4006B60A46834B1002EECD10C20B8470646AE
:1050E4000546EBE70DB10023AB603046F8BD38B59B
:1050F4000446002505E020680AF070FC05440135EB
:10510400A468002CF7D1284638BD0346002001E0EE
:1051140001309B68002BFBD17047000010B504469A
:10512400054800F059FBA04202D0B0F1FF3F00D186
:1051340010BDFBF7B1F8FBE7580F01080FB430B509
:1051440083B006AB53F8045B0193002407E000210D
:10515400FEF704F801462046FEF70CF80446019BCE
:105164001A1D019218680028F1D100222146284610
:1051740002F03AF900212846FEF7C0FD2B78702B87
:1051840004D003B0BDE8304004B070470549284658
:105194000AF00BFC0028F4D100222146284602F034
:1051A4007BFAEEE77C0B01082DE9F04387B0054656
:1051B4000C461646FDF7A8FB0023059304932768C5
:1051C400FBF7FAF8B24B186023681B782D2B14BF39
:1051D40000230123AF4A1370AF4A21462846FDF746
:1051E400BFFBB0F1FF3F7CD03F383928F4D801A38E
:1051F40053F820F025540008DD510008DD51000863
:10520400DD510008DD510008DD510008DD510008C2
:10521400DD510008DD510008DD510008D3530008BA
:10522400DD510008DD510008DD510008DD510008A2
:10523400DD510008DD510008DD510008DD51000892
:10524400DD510008DD510008DD510008DD51000882
:10525400DD510008DD510008DD510008DD51000872
:10526400DD510008DD510008DD510008DD51000862
:10527400DD510008DD510008DD510008DD51000852
:10528400DD510008E1520008C3530008CB53000865
:10529400DD510008DD510008DD510008E15300082C
:1052A400DD510008DD510008ED530008DD51000810
:1052B400F5530008FD53000805540008DD510008AB
:1052C400DD5100080D540008DD510008DD510008CF
:1052D40015540008DD5100081D5400086F4B1B686D
:1052E40004936F4BD3F8008004EB88096D4B1B7853
:1052F40033B96D4B1B781BB9049B002B00F09380D2
:105304006A4B1B78002B00F09C8001F0A1FCFEF797
:105314002BFB00F01DFB00250095654B654A664993
:105324006648FFF70BFF0195654B0093654B664A92
:1053340066496748FFF702FF554B1968654801F055
:105344004FFB01462A466448FFF7F8FE2B46634AA2
:1053540063496448FFF7F2FE2B46634A6349644895
:10536400FFF7ECFE3046FEF789FCFFF74BF8039598
:105374002A4603A9384602F05FF9FCF7EDFD049BC9
:10538400002B6BD054F8283023B10022494638460C
:1053940002F052F9574B1B78002B6FD00020FFF717
:1053A4004FF800243F4B1C700120FFF715F901F062
:1053B40091FCFCF753FC204607B0BDE8F0834E4B4C
:1053C40001221A7008E74D4B01221A7004E7364B8C
:1053D40001221A704A4B00221A70FDE60123484A42
:1053E4001370304A1370F7E62A4B01221A70F3E661
:1053F400444B01221A70EFE62C4B01221A70EBE6A3
:10540400414B01221A70E7E63A4B01221A70E3E697
:105414003E4B01221A70DFE63D4B01221A70DBE697
:1054240001200AF013F8334B1B7823B954F82830C1
:10543400002B7FF465AF00200AF069F8304B187038
:105444005EE700210846FFF769FE01210846FFF7E1
:1054540065FE01210220FFF761FE56E7254B1B780C
:10546400002B8FD154F828306BB1A9F10400FCF75C
:1054740037F801F02FFCFCF7F1FB92E7012104A8B7
:10548400FFF702F88DE70020FEF7DAFF89E700BF97
:10549400340B0020280B0020640F0108380A002078
:1054A400080000202C0B0020250B00202D0B0020D1
:1054B400C8470108740F0108E4440108D40901082D
:1054C400340501087C0F0108780F0108840F0108D6
:1054D4007C0B0108900A0108840B01088849010823
:1054E400940F01085C0B0108980F0108BC0F010818
:1054F400640B01082A0B0020260B0020270B002038
:10550400300B0020290B00202E0B00202F0B002035
:105514002B0B002010B503787E2B0CBF0124002434
:1055240006D003461A785D2A04D04FF0000E0EE030
:10553400431CF7E701335D2914BF4FF0000E4FF011
:10554400010E04E08A4208BF4EF0010E01331A78BE
:105554005D2A12D0B2B193F801C0BCF12D0FF1D184
:1055640093F802C0BCF15D0FECD08A4203D88C459D
:1055740028BF4EF0010E0233E8E7A64505D01B1AFA
:10558400581C10BD6FF00100FBE74FF0FF30F8E747
:105594002DE9F0470746154611B18846002449E035
:1055A40002782B789A4202D00026F6B254E02946BB
:1055B4000AF0FBF908B10026F7E70126F5E72E7893
:1055C400B6FA86F6760947E015F8016B96BB43E018
:1055D400A14607EB040A3B5D2A2B05D118F80420E9
:1055E400012A01D10134F3E7002B38D02E789EB381
:1055F4006C1C2A4608EB09015046FFF7C9FF80BB23
:105604002546F3E72E783EB331463819FFF782FF7B
:1056140010F1020F05D0B0F1FF3F24D0044401354E
:1056240008E05B2EFBD0002616E0013415F8012BB0
:10563400934211D13B5D002BC1D018F80460002EB9
:10564400F3D001343F2BBFD05B2BDBD02A2BBFD050
:10565400064801F071FE00263046BDE8F0870126B9
:10566400FAE70126F8E70026F6E700BFC00F0108B5
:10567400024B186800221A60704700BF3C0B0020E0
:1056840010B509F058FE044608B1204610BD034881
:1056940001F032FE0120FCF7E1FAF6E7DC0F010825
:1056A40038B50546134B1C68002201E02246E46825
:1056B40014B16368AB42F9D36CB142B1E368D3600F
:1056C400002323600C4B1A68E2601C6038BDE2685A
:1056D400084B1A60F4E71020FFF7D2FF044605F6E2
:1056E400FF7020F47F6020F00F006060FFF7C8FFB8
:1056F400A060E5E7380B00203C0B002010B5C41C6B
:1057040024F00304094B1B6843B11A68A1185868B4
:10571400814203D219609868104406E02046FFF7DE
:10572400BFFF024B1B681C60986810BD3C0B002037
:1057340010B528B109F021FE044630B1204610BD51
:105744000846FFF79DFF0446F8E7034801F0D4FD3F
:105754000120FCF783FAF1E7E40F010818B108B55A
:1057640009F0DAFD08BD704738B5134B1A6812B357
:1057740013461946DB68002BFBD1104B1868C86030
:105784001A600D4B002119605368D4689CB10C4910
:105794008B4203D8626813442246F6E70023D360A1
:1057A40007E0E568A068FFF7D9FF2046FFF7D6FFBA
:1057B4002C46002CF5D138BD3C0B0020380B0020C2
:1057C4001FA1070010B50446FFF7CEFF014B1C6074
:1057D40010BD00BF3C0B002038B505460C4602291D
:1057E40008D84FF4DB72054B53F824102846FAF717
:1057F400CFFE38BD024801F09FFDF2E71C100108FE
:10580400EC0F010838B505460321FAF76FFD04468D
:10581400B0F1FF3F04D014F4006F08D1002038BD6C
:105824000C4801F069FD0020FCF76AF8F3E724F462
:10583400006204212846FAF759FDB0F1FF3F01D078
:105844000120ECE7034801F057FD0020FCF758F86D
:105854000120E4E70810010838B5044609F044FEC5
:10586400054620460AF0C6F9A8420CD0294620462F
:105874000AF0D1F9002801DB012038BD034801F00A
:105884003BFD0020F9E70020F7E700BF10100108F6
:1058940070B5294B1B6863B142F20F72934241DC2D
:1058A4005C0042F21072B2EB430F03DA42F210745E
:1058B40000E0C824214B1868214B1E68361A751065
:1058C40030B3610009F059FD78B31C4B18603044C3
:1058D4001B4B18601B4B1868F0B104EB44018900A2
:1058E40009F04BFD20B3174B186005EB450500EBA1
:1058F4008500154B1860104B1C6004F10044013CFA
:105904000E4B1B6803EB4404104B1C60002070BD5D
:10591400600009F010FDD7E704EB4400800009F0B3
:105924000AFDDFE74FF0FF30F1E74FF0FF30EEE71D
:105934004FF0FF30EBE700BF740B0020680B002032
:10594400700B0020840B0020880B00206C0B0020BF
:1059540010B500231A460F491E2001F02BFB014607
:105964001B2001F027FB0C4C214601F0C5FB0B4B1F
:10597400186000231A460A491E2001F01BFB014649
:105984001B2001F017FB214601F0B6FB054B186004
:1059940010BD00BFAC04010885560008480B002068
:1059A400D4090108400B0020F0B583B0854809F004
:1059B40073FD38B10378A3F13002092A02D81346E3
:1059C400814A13600023814A1360814A1360814B2A
:1059D4004FF0FF321A60804B1B6853B17E4B1B683B
:1059E4007E4A13607E4A11687E4A116000241C803E
:1059F40066E1FFF74DFF0028F0D07B48FEF700FF7B
:105A0400012000F0D4BCFEF7BDFF724B18600028E3
:105A14000FDB6D4B1B68002B00F05D816D4B1B6829
:105A2400B3F58C7F08DC714A52F823202AB9704AF6
:105A340003E000221A60ECE76D4A009222466D49A9
:105A44006D480AF0A5FA46E15F4B1B6813BB634B34
:105A54001A686A4B1B689A4225D2694B33F9154080
:105A64005E4A1368991C11605C805E4A13680C33AB
:105A74001360644A07CA83E80700564B4FF0FF32AD
:105A84001A60534B1B68002B40F31A811344504A8D
:105A9400136015E15A4B33F91530224655495A48DB
:105AA4000AF076FAD3E7FFF7F3FE0028D5D0A4E78F
:105AB400534A32F91350444B1B68002B40F04A817F
:105AC400524B33F91540474B1F68C4F1010303EBF4
