:020000040800F2
:1000000000000120590700083106000833060008E7
:100010003506000837060008390600080000000011
:10002000000000000000000000000000950400082F
:100030003B06000800000000E50100080D0500086F
:100040000D0500080D0500080D0500080D05000848
:100050000D0500080D0500080D0500080D05000838
:100060000D0500080D0500080D0500080D05000828
:100070000D0500080D0500080D0500080D05000818
:100080000D0500080D0500080D0500080D05000808
:100090000D0500080D0500080D0500080D050008F8
:1000A0000D0500080D0500080D0500080D050008E8
:1000B0000D0500080D0500080D0500080D050008D8
:1000C0000D0500080D0500080D0500080D050008C8
:1000D0000D0500080D0500080D0500080D050008B8
:1000E0000D0500080D0500080D0500080D050008A8
:1000F0000D0500080D0500080D0500080D05000898
:100100000D0500080D0500080D0500080D05000887
:100110000D0500080D0500080D0500080D05000877
:100120000D0500080D0500080D0500080D05000867
:1001300000000000000000000000000000000000BF
:1001400000000000000000000000000000000000AF
:10015000000000000000000000000000000000009F
:10016000000000000000000000000000000000008F
:10017000000000000000000000000000000000007F
:10018000000000000000000000000000000000006F
:10019000000000000000000000000000000000005F
:1001A000000000000000000000000000000000004F
:1001B000000000000000000000000000000000003F
:1001C000000000000000000000000000000000002F
:1001D000000000000000000000000000000000001F
:0401E0005FF8E0F1F3
:1001E40072B6EFF30980EFF3088100281EF0040FC4
:1001F4000CBFEFF30883EFF309830CBF0022012245
:10020400002868B1A3F1200383E8F00F1EF0040F67
:100214000CBF194618460CBF83F3088883F309887A
:10022400DFF878309847D0E90012836813F0010FA3
:100234000CBF1046084690E8F00F203082F308887F
:1002440081F30988022B1FD013F4803F0BD1012BBB
:1002540000D019E080F309884FF0010181F314887C
:100264006FF0020E18E013F0020F04D14FF00301F7
:1002740081F3148803E04FF0000181F3148880F3C4
:1002840008886FF00E0E07E080F308886FF0060E02
:100294004FF0000080F3148862B67047D53300082D
:1002A40008B503F079F802F0FDFF08BD10B500228F
:1002B40011460A4800F014F94FF0E023084A5A6145
:1002C400084AF02182F8231000249C6107221A6155
:1002D4004FF4407000F032F9204610BDA50200082A
:1002E4003F19010000ED00E0EFF3108072B6704793
:1002F40080F30988704780F31088704702484FF0F4
:10030400805101607047000004ED00E010B44FF02C
:100314008074046040F8041C1A4940F8081C4FF02B
:10032400123140F80C1C4FF0033140F8101C4FF010
:10033400023140F8141C40F8183C40F81C2C4FF0D3
:10034400113340F8203C4FF0103340F8243C0E4B5E
:100354001B6840F8283C4FF0083340F82C3C4FF021
:10036400073340F8303C4FF0063340F8343C4FF04C
:10037400053340F8383C4FF0043340F83C3C3C38FB
:1003840010BC70471D310008400400204FF00003EA
:1003940050E8002F02F10102002A00D001E04FF0E2
:1003A400010340E800210129F2D0184670474FF0BC
:1003B400000350E8002F02F1FF32002A00D001E0D0
:1003C4004FF0010340E800210129F2D0704750E8C2
:1003D400002F0A4640E80023012BF8D0704700683C
:1003E400704710B450E8002F8A4202D04FF0000446
:1003F40001E04FF0010440E80023012BF2D0204635
:1004040010BC704710B450E8002F002A02D04FF0FF
:10041400000403E04FF0010402F1010240E800236C
:10042400012BF0D0204610BC704710B450E8002FC8
:10043400002A04D04FF0000402F1FF3201E04FF033
:10044400010440E80023012BF0D0204610BC704783
:100454004FF0570080DF000072B60A484AF2A0014C
:10046400018009484FF0F0010170002080F30988F1
:1004740006484FF0805101604FF0010080F314886A
:1004840062B6704722ED00E01FED00E004ED00E0ED
:100494001EF0040F0CBFEFF30880EFF30980A0F106
:1004A400200080E8F00F03F014BAEFF305807047E2
:1004B40010B50446FFF7F9FFA0F10F03074A02EB5A
:1004C400C302127912F0010F04D1044A52F83330F6
:1004D40003B19847204603F091F910BD440400206D
:1004E40070B506460D461446FFF7FEFE054941F871
:1004F400356001EBC5010A7914430C71FFF7FBFE6B
:1005040070BD00BF440400201EF0040F0CBFEFF3C5
:100514000880EFF30980FFF7CBBF000030B5044C2F
:1005240004442568084611461A46A84730BD000011
:10053400E001002000B580DF00BD000040F0BF6096
:1005440040F40030014BD860704700BF00ED00E07C
:10055400014BD860704700BF002002400B4BDB68A2
:1005640013F0010F0BD1094BDB6813F0040F08D112
:10057400064BDB6813F0100F05D0032070470120F1
:100584007047022070470420704700BF00200240DB
:1005940010B50446FFF7E2FF02E0FFF7DFFF013C7E
:1005A400012801D1002CF8D104B110BD0520FCE7CD
:1005B40038B504464FF43020FFF7EAFF042800D092
:1005C40038BD0A4D2B6943F002032B616C612B6922
:1005D40043F040032B614FF43020FFF7D9FF2B6920
:1005E40023F00203DB04DB0C2B61E9E7002002406B
:1005F40070B504460D464FF40050FFF7C9FF0428B8
:1006040000D070BD084E336943F001033361258087
:100614004FF40050FFF7BCFF336923F00103DB0400
:10062400DB0C3361EDE700BF002002407047FEE7BA
:10063400FEE7FEE7FEE7704782B0002301930093D4
:100644002C4A136843F4803313602A4B1B6803F469
:1006540000330093019B01330193009B1BB9019B61
:10066400B3F5A06FF1D1234B1B6813F4003F06D000
:1006740001230093009B012B04D002B07047002398
:100684000093F7E71C4B1A6842F010021A601A68CC
:1006940022F003021A601A6842F002021A60A3F5FB
:1006A40080535A685A605A685A605A6842F48062A1
:1006B4005A605A6822F47C125A605A6842F4E8126A
:1006C4005A601A6842F080721A600A4B1B6813F071
:1006D400007FFAD0074B5A6822F003025A605A6826
:1006E40042F002025A60034B5B6803F00C03082BD0
:1006F400F9D1C2E7001002400020024008B5FFF71C
:100704009BFF08BD08B5104B1A6842F001021A603D
:1007140059680E4A0A405A601A6822F0847222F418
:1007240080321A601A6822F480221A605A6822F40D
:10073400FE025A604FF41F029A60FFF7DFFF044B7A
:100744004FF000629A6008BD001002400000FFF8FC
:1007540000ED00E00B480C490C4A002302E0D45899
:10076400C4500433C4188C42F9D3094A094C0023F9
:1007740001E013600432A242FBD3FFF7C3FF03F08E
:100784002BFB704700000020300400206441000867
:100794004004002040EE002038B50446094D0A4BC1
:1007A4006B6003F188336B603420FFF7D1FE04F5EE
:1007B40080304030C002FFF7FBFE2B6943F080031A
:1007C4002B6138BD002002402301674500B583B08A
:1007D400002000F05DFA002811DB4FF40063019360
:1007E40003230093C0230A4A0A49002000F0A4FA14
:1007F400002809DB084B186803B05DF804FB00F01F
:1008040059FA054B1860E8E74FF0FF30F4E700BFF2
:1008140000000020FC4000081C06002008B5034925
:10082400034B186800F0B8FA08BD00BFFC4000088C
:100834001C060020F8B505460F461646002407E0BE
:1008440037F814102846FFF7D3FE02350134A4B25A
:10085400B442F5D3F8BD000010B50A4C0A4B6360EE
:1008640003F18833636000F580334033C2025208D9
:1008740002F47C42D802FFF7DDFF236943F08003D2
:10088400236110BD0020024023016745008880B227
:100894007047F8B505460F461646002407E028467B
:1008A400FFF7F4FF27F8140002350134A4B2B44270
:1008B400F5D3F8BD08B500F5803040304FF48062C0
:1008C400C002FFF7E6FF002008BD30B586464FF0B2
:1008D400FF354FF0000C02E065460CF1010C944525
:1008E4000CD20CEB4C03DC000EEBC300037DDB09E4
:1008F400F2D05EF804308B42EFD130BDB5F1FF3F4A
:1009040008D005EB45050EEBC500802303754EF8B2
:100914003510F2E70020F0E730B583B00446124BFF
:100924001B6A00930023019300F1100569462846D1
:1009340002F0CFFD01E002F0B5FC0B4B1B6A022272
:1009440083F8342004F10C00FFF749FD0028F2D1AC
:100954006946284602F0CBFD034B1B6A012283F84B
:10096400342003B030BD00BF3C1000202DE9F0411D
:1009740080460F46164601EB4100C00003F09CFB85
:10098400C8F80000F0B10025BD4212D2D8F80040EA
:1009940005EB450304EBC30418220021204603F0B1
:1009A400A7F8304603F088FBA06010B166600135FB
:1009B400EAE715B12846BDE8F081D8F8000003F055
:1009C4008AFBF7E74FF0FF30F5E710B504460C302B
:1009D400FFF705FD00B910BD2046FFF79DFFFAE7BC
:1009E40010B50446FFF7F1FF012104F10C00FFF7F5
:1009F400EEFC10BD10B5044600210C30FFF7E7FCF7
:100A0400206902F057FD10BDF8B50D46144600F0FC
:100A14007BF9064638B303F033F8002829DB03F0EA
:100A24002FF8B0FBF4F204FB120404EB4404E700D7
:100A340005EBC4042046FFF7D3FF237D13F0020F18
:100A44000AD0B368E8599847002816DB7368A16890
:100A5400E8599847002818DB002323752046FFF740
:100A6400C9FF2046F8BD49220C490D4802F0DCFBC1
:100A7400D1E703F005F84042D3E70023237557225A
:100A84000649074802F0D0FBE0E7002323755B2208
:100A94000249034802F0C8FBDEE700BF1841000822
:100AA400044100082DE9F04F83B007460E469046F6
:100AB4001D46DDF8309000F027F98346002838D031
:100AC40001A9384600F006F98246002837D0019A79
:100AD40031465046FFF7F9FE0446002835D020463B
:100AE400FFF77EFF15B963684B4538D0237D13F0BB
:100AF400040F08D1DBF80030A16830469847237D05
:100B040043F00403237505EB090263689A422BD86A
:100B1400A0684A464146284402F0CEFF237D43F0B4
:100B2400020323752046FFF765FF002003B0BDE8EC
:100B3400F08FB7220F49104802F076FBC0E7BB22C2
:100B44000C490D4802F070FBC1E7019A5146384642
:100B5400FFF75AFF0446066080230375BFE7237D31
:100B640043F004032375CEE7D5220249024802F07C
:100B74005BFBCDE720410008044100082DE9F04F5C
:100B840083B007460E4690461D46DDF8309000F0CF
:100B9400BBF870B3824601A9384600F09BF883463F
:100BA40078B3019A3146FFF790FE044688B3204695
:100BB400FFF716FF237D13F0040F08D1DAF8003095
:100BC400A16830469847237D43F00403237505EB61
:100BD400090263689A4225D2A1684A4629444046DC
:100BE40002F06AFF2046FFF705FF002003B0BDE8CE
:100BF400F08FED220F49104802F016FB4FF0FF3042
:100C0400F4E7F2220B490C4802F00EFB4FF0FF30E0
:100C1400ECE7019A59463846FFF7F6FE044680236E
:100C24000375C4E74FF483720249034802F0FCFAE7
:100C3400D2E700BF144100080441000808B5036965
:100C4400032B0AD803EB4303064A02EB83035B68D6
:100C54000B61DB6923B1984708BD6FF01200FBE715
:100C64000020F9E7A00600200269032A09D808B584
:100C7400064B03EB42135B680B61DB6923B19847B6
:100C840008BD6FF0120070470020F9E7200600202D
:100C9400032809D8064B03EB401043690BB9002025
:100CA40070474FF0FF3070474FF0FF30704700BF80
:100CB400200600200020032806D8054B03EB401330
:100CC4005B691BB10130F6E74FF0FF30704700BF9E
:100CD40020060020032806D8044B03EB4010836948
:100CE4000B60006970470020704700BF2006002099
:100CF400032804D8034B03EB4010C069704700205D
:100D0400704700BF20060020032804D8034B03EBE0
:100D14004010406970470020704700BF2006002043
:100D2400032804D8034B03EB4010C06870474FF00E
:100D3400FF307047200600202DE9F041DDF81C80CB
:100D440003281ED804460E4615461F46114800EBDC
:100D540044104369C3B963011033424606990D48F0
:100D64001844FFF703FE90B10A4B610103EB4414EE
:100D7400E760A0615E506561C4F81C800020BDE896
:100D8400F0816FF01500FAE76FF00F00F7E74FF00E
:100D9400FF30F4E72006002003280ED810B50446DF
:100DA4004301094AD05802F07BFE48B9064A610162
:100DB40002EB44145050606110BD6FF01500704791
:100DC4006FF01500F8E700BF2006002038B5074D86
:100DD400074BED1AED08002404E0054B53F83430BA
:100DE40098470134AC42F8D338BD00BFFC4000083A
:100DF400F4400008072831D88C461E4B1A6A00EBD1
:100E0400400302EBC30393F8643253B307292BD88E
:100E1400BCF1070F09D80CEB4C0302EBC30393F8A6
:100E2400643213B90CF1010CF2E7BCF1070F1ED8C0
:100E340010B50CEB4C0402EBC40400EB400002EBD5
:100E4400C00204F5147402F5147EBEE80F000FC44A
:100E54009EE8030084E80300604610BD6FF00800BC
:100E640070476FF0080070476FF0150070476FF01F
:100E7400170070473C10002007281AD838B50546DB
:100E84000C46124B1B6A00EB400203EBC20393F8BF
:100E940064328BB188420AD0082910D812D008468F
:100EA40000F018FD21462846FFF7A4FF38BD084688
:100EB400FCE76FF0080070476FF00800F6E76FF08A
:100EC4000800F3E76FF00800F0E700BF3C100020D3
:100ED40008B50021FFF78EFF08BD000007280BD8D6
:100EE400084B1B6A00EB400003EBC00090F864322F
:100EF4002BB16FF0250070476FF0080070476FF05A
:100F0400080070473C10002038B50546002400E076
:100F14000134094B1B68A3420BDD04EB840329460F
:100F2400064A52F8230002F0BBFD0028F0D1034822
:100F340000E0002038BD00BFD4000020D80000200D
:100F440000B583B0104B1B6A0093002301936946DC
:100F54000E4802F0BEFA01E002F0A4F90A4B1B6A43
:100F6400022283F834200A48FFF739FA0028F3D123
:100F74006946064802F0BBFA034B1B6A012283F858
:100F8400342003B05DF804FB3C100020D40600209C
:100F9400D806002030B583B00446124B1B6A009378
:100FA4000023019300F114056946284602F091FAE2
:100FB40001E002F077F90B4B1B6A022283F834201C
:100FC40004F11C00FFF70BFA0028F2D16946284609
:100FD40002F08DFA034B1B6A012283F8342003B01C
:100FE40030BD00BF3C10002008B5024802F062FA90
:100FF40008BD00BFD406002010B51048FFF7EFF974
:1010040068B100241F2C0DD8342304FB03F31833D8
:101014000B481844FFF7F6F938B90134F2E7FFF743
:101024008FFFEEE7FFF78CFFEBE70448FFF7BFF90C
:101034000348342303FB040010BD00BFEC00002070
:10104400DC06002010B500F118042046FFF7EDF986
:101054002046FFF7C4F900B110BDFFF7C5FF0248F1
:10106400FFF794F9F8E700BFEC00002070B50546DF
:101074000E46FFF7C1FF044601211830FFF7A7F918
:10108400002104F11C00FFF7A2F9002363616562EB
:10109400A660E360EB691B682046984738B1EB69AA
:1010A4009B6820469847002807DB204670BD06460B
:1010B4002046FFF7C7FF3446F7E7EB695B68204635
:1010C40098472046FFF7BEFFEFE710B504461C30F3
:1010D400FFF785F900B910BD2046FFF75BFFFAE77B
:1010E40038B50446FFF7F1FF04F118052846FFF769
:1010F40076F910B32846FFF772F9012818D84CB1D5
:10110400636A3BB1DB692BB15B691BB1E2680AB965
:10111400204698473CB1636A2BB1DB691BB11B695C
:101124000BB1204698472046FFF78CFF002038BDBE
:101134002046FFF787FF0020F9E74FF0FF30F6E77E
:10114400072824DC10B584468E461346174A146AD1
:1011540000EB400204EBC20292F86422D2B100EB2D
:101164004000C00000F5147021180CEB4C0204EB95
:10117400C202D2F85C0280B1D2F8602282B1546912
:101184008CB17246A047002800DB002010BD6FF030
:10119400080070476FF00800F8E76FF01500F5E7F6
:1011A4006FF01500F2E76FF01500EFE73C10002038
:1011B40020B370B50D461646044602F087FC02467D
:1011C400431E002B0ADB184614F803C0BCF15C0F65
:1011D40005D0BCF12F0F02D0013BF2E7104665B1F8
:1011E400002302E0E25CEA540133984203D906F199
:1011F400FF3C9C45F6D80022EA5470BD002070479D
:101204002DE9F04F83B000287BD0884606460023A2
:101214000193037823B10024A1462746A34649E05D
:10122400394B1B6AD3F8140301901830FFF7AEF85A
:101234004FF0000B5EE0344B1B6AD3F810030190AF
:101244001830FFF7A3F831E02F4B1B6AD3F81403CF
:1012540001901830FFF79AF83EE0A3EB0902F15C25
:10126400A95401339C42F8D29AF800205C2A06D093
:101274002F2A04D0A3EB09030022EA5404E0A3EBD1
:101284000903013B0022EA5401981830FFF77EF865
:101294000198836AD3F8089001AB34222946C847E1
:1012A400B0F1000B1FDB284602F015FF04F1010921
:1012B4000137013406EB040A335DC3B15C2B05D05E
:1012C4002F2B03D033195B78002BF2D10FB9A14532
:1012D400B1D0019B002BB7D04FF4007002F0ECFEAC
:1012E40005464B46BEE7284602F0F5FE02E0019BA8
:1012F400C8F800300198FFF7F3FE584603B0BDE884
:10130400F08F6FF0150BF8E73C100020F0B5A5B096
:1013140006460C46154623A9FFF772FF00280ADB90
:1013240040F20123A34332D023981830FFF72EF85C
:10133400239825B0F0BD10F1020F3CD104F0410117
:1013440041293AD1802203A93046FFF731FF0446F0
:1013540002A903A8FFF754FF002813DB02981830F2
:10136400FFF714F8239B9B6A5F68611C23AB00930F
:1013740034232A4631440298B8470028D4DA104B63
:10138400186002E00E4B02221A600020D1E7239875
:10139400836A5B6B3BB11830FEF7F8FF2398836ACE
:1013A4005B6B9847C0E7FFF79BFE054B6FF0250288
:1013B4001A600020BDE70020BBE70020B9E700BFAA
:1013C400701000202DE9F043A3B005460E4680229C
:1013D40002A9FFF7EDFE044601A902A8FFF710FFDA
:1013E400002830DB01984388012B1ED1836A2BB37C
:1013F4009B691BB31830FEF7C9FFDDF80480D8F8E9
:101404002830D3F81890671C2F44284602F05EFB5E
:10141400021B3346013A39464046C847041E09DBDD
:101424000024204623B0BDE8F083FFF759FE6FF097
:101434000104F6E70198FFF753FEF2E7FFF750FEC9
:101444006FF02504EDE76FF00104EAE7F0B5A3B00F
:101454000646802202A9FFF7ABFE054601A902A8B1
:10146400FFF7CEFE002828DB01984288012A16D116
:10147400816AE9B1CA69DAB11830FEF787FF019CC5
:10148400A36ADF69304602F021FB421B02A9204611
:10149400B847041E08DB0024204623B0F0BDFFF744
:1014A4001FFE6FF00104F7E70198FFF719FEF3E759
:1014B400FFF716FE6FF02504EEE76FF00104EBE78B
:1014C4006FF025007047F0B5A3B00646802202A94C
:1014D400FFF76EFE054601A902A8FFF791FE00285A
:1014E40028DB01984288012A16D1816AE9B10A6988
:1014F400DAB11830FEF74AFF019CA36A1F6930462F
:1015040002F0E4FA421B02A92046B847041E08DB95
:101514000024204623B0F0BDFFF7E2FD6FF0010484
:10152400F7E70198FFF7DCFDF3E7FFF7D9FD6FF06C
:101534002504EEE76FF00104EBE76FF02500704738
:101544002DE9F047A4B007460D461646802204A9AB
:10155400FFF72EFE044603A904A8FFF751FE002856
:1015640027DB03984388012B1ED1836A23B31B6AAC
:101574002BB31830FEF70AFFDDF80C80D8F82830BA
:10158400D3F8209004F1010A384602F09FFA00963D
:101594002B46021B04A951444046C847002800DBDF
:1015A400002024B0BDE8F087FFF79AFD6FF001003A
:1015B400F7E76FF00100F4E76FF02500F1E76FF053
:1015C4002500EEE76FF02500704710B582B00C4699
:1015D40001A9FFF715FE002812DB019A506AC369BE
:1015E4001B6A3BB1214698470198FFF779FD00201B
:1015F40002B010BD1046FFF773FD6FF02500F7E74A
:101604004FF0FF30F4E70000072817D808B5114B56
:101614001B6A00EB400203EBC20292F8642282B11F
:1016240000EB400003EBC000D0F85C3263B1586AB1
:10163400C3691B6A5BB19847002008BD6FF00800BE
:1016440070476FF00800F8E76FF00100F5E76FF0FE
:101654002500F2E73C1000206FF0250070476FF082
:101664002500704710B582B001A9FFF7C9FD002815
:1016740015DB01984388012B0CD10A4C236AD3F85B
:101684001403FFF72DFD236A019AC3F814230020E5
:1016940002B010BDFFF724FD6FF00100F8E76FF012
:1016A4000100F5E73C10002007281DD8144B1A6AE6
:1016B40000EB400302EBC30393F86432BBB110B5F3
:1016C40000EB400002EBC000D0F85C4294B16388A8
:1016D400012B12D1D2F81403FFF702FD084B1B6A49
:1016E400C3F81443002010BD6FF0080070476FF07A
:1016F400080070476FF00100F5E76FF00100F2E7B2
:101704003C10002010B582B001A9FFF779FD002834
:1017140015DB01984388012B0CD10A4C236AD3F8BA
:101724001003FFF7DDFC236A019AC3F8102300209D
:1017340002B010BDFFF7D4FC6FF00100F8E76FF0C2
:101744000100F5E73C100020072819D8114B1B6A4B
:1017540000EB400203EBC20292F864229AB100EB60
:10176400400003EBC000D0F85C327BB15A8812040D
:101774001A6011431960012283F820200020704769
:101784006FF0080070476FF0080070476FF00100B9
:10179400704700BF3C10002010B582B00C4601A970
:1017A400FFF72EFD00280EDB019A53881B041360FB
:1017B400019B196821431960019B012283F82020B1
:1017C400002002B010BD6FF00100FAE76FF02500B1
:1017D4007047000070B50E460024072C11D8384B12
:1017E4001D6A04EB440305EBC30393F864320BB1A5
:1017F4000134F2E704EB440305EBC305012385F848
:101804006432072C2FD83146FFF780FD054680B39C
:101814002B4B196A04EB440301EBC303A3F858628E
:10182400D3F860328BB304EB440301EBC303D3F866
:1018340060325BB1DA694AB104EB4403DB0003F5BF
:101844001473194428469047002829DB1C4B1B6A53
:1018540004EB440203EBC203C3F85C522A6883F826
:101864005022204670BD174B18221A604FF0FF30EB
:10187400F8E7134B1B6A04EB440403EBC403002294
:1018840083F864224FF0FF30ECE7836A1A68002A79
:10189400C9D004EB440301EBC303C3F86022C2E7DD
:1018A400074B1B6A04EB440403EBC403002283F8D4
:1018B40064222846FFF714FC4FF0FF30D2E700BF44
:1018C4003C1000207010002008B50A464121FFF7A3
:1018D40081FF08BD38B5164B1A6A00EB400302EBD2
:1018E400C30393F864320BB3044600EB400302EBEA
:1018F400C303D3F85C52D3F860324BB11B6A3BB1DB
:1019040000EB4001C90001F51471114428469847C1
:10191400074B1B6A04EB440203EBC202002182F86A
:101924006412C2F85C122846FFF7DAFB38BD00BF28
:101934003C100020072821D810B584468E46134653
:10194400164A146A00EB400204EBC20292F86422C5
:10195400BAB100EB4000C00000F5147021180CEB84
:101964004C0204EBC202D2F85C0268B1D2F86022E5
:101974006AB1D46874B17246A04710BD6FF0080014
:1019840070474FF0FF30F8E76FF00800F5E76FF0AD
:101994000100F2E76FF00100EFE700BF3C10002008
:1019A400072849D870B504460D4616462B4B1B6ACA
:1019B40000EB400203EBC20292F86422002A3ED0FC
:1019C40000EB400203EBC202D2F85422002A39D0C1
:1019D40000EB400203EBC202D2F85C02A8B304EBB2
:1019E400440203EBC202D2F8602242B1126A32B15D
:1019F40004EB4401C90001F5147119449047012E08
:101A04000CD9022E16D1154B1B6A04EB440203EBCE
:101A1400C203D3F85C32DBB15B681D44002D1ADBD2
:101A24000E4B186A04EB440400EBC404C4F854528B
:101A3400284670BD0025F3E76FF0080070474FF0AB
:101A4400FF30F6E74FF0FF30F3E74FF0FF30F0E7F9
:101A54004FF0FF30EDE74FF0FF30EAE73C10002095
:101A6400072821DC10B584468E461346164A146AAC
:101A740000EB400204EBC20292F86422BAB100EB1C
:101A84004000C00000F5147021180CEB4C0204EB6C
:101A9400C202D2F85C0268B1D2F860226AB154681A
:101AA40074B17246A04710BD6FF0080070474FF044
:101AB400FF30F8E76FF00800F5E76FF01500F2E784
:101AC4006FF01500EFE700BF3C100020072821DC71
:101AD40010B584468E461346164A146A00EB40023B
:101AE40004EBC20292F86422BAB100EB4000C000D9
:101AF40000F5147021180CEB4C0204EBC202D2F86E
:101B04005C0268B1D2F860226AB1946874B172461A
:101B1400A04710BD6FF0080070474FF0FF30F8E7A2
:101B24006FF00800F5E76FF01500F2E76FF01500AD
:101B3400EFE700BF3C1000202DE9F04385B00446D8
:101B44000D469046D0F820904368DE00B1FBF6F6CF
:101B5400D9F82010EF08B7FBF3F20120009003FB43
:101B640012730DF10F023144A068FFF707F8002843
:101B74002BDBB8F1000F1ED105F007050121A940A8
:101B84009DF80F5065EA01058DF80F50D9F8201023
:101B94006368B7FBF3F20120009003FB12730DF1AD
:101BA4000F023144A068FEF77DFF002810DB0020FF
:101BB40005B0BDE8F08305F007050121A9409DF8B3
:101BC4000F500D408DF80F50E0E74FF0FF30EFE776
:101BD4004FF0FF30ECE72DE9F04385B00646894627
:101BE400076A4FF0000844467B6A434564D90025E0
:101BF40049E03B68A34259D97368DD00B4FBF5F5AD
:101C0400396A4FEAD408B8FBF3F20120009003FBD1
:101C140012830DF10F022944B068FEF7AFFF0028CC
:101C24004CDB04F00703012000FA03F29DF80F30A7
:101C340023EA02038DF80F30396A7368B8FBF3F2B4
:101C4400009003FB12830DF10F022944B068FEF7E4
:101C540029FF002835DB7B680BB1013B7B60C9F8A9
:101C6400004001233376002005B0BDE8F083002353
:101C74001F2B07D801229A401142BAD101340133F3
:101C8400DBB2F5E701357368AB4212D9396A042334
:101C940000932B4602AA4144B068FEF76FFF002868
:101CA40004DB02990029E2D12034EBE74FF0FF3046
:101CB400DAE708F1010897E700249DE74FF0FF30C9
:101CC400D2E74FF0FF30CFE72DE9F04184B005466D
:101CD4000C46D0F820804368DE00B1FBF6F6D8F855
:101CE4002010E708B7FBF3F20120009003FB127306
:101CF4000DF10F023144A868FEF740FF002824DBF1
:101D040004F00704012202FA04F49DF80F301C4386
:101D14008DF80F40D8F820106B68B7FBF3F00092F1
:101D240003FB10730DF10F023144A868FEF7BAFEED
:101D340000280DDBD8F804300133C8F8043001233F
:101D44002B76002004B0BDE8F0814FF0FF30F9E7B6
:101D54004FF0FF30F6E72DE9F04385B0054688469D
:101D6400066A4FF00009F3694B4565D900242746FC
:101D740049E0DC19F368A34258D96B68DF00B4FB6F
:101D8400F7F7B1694FEAD409B9FBF3F201200090E7
:101D940003FB12930DF10F023944A868FEF7EEFE1F
:101DA40000284BDB04F00703012000FA03F29DF83E
:101DB4000F3023EA02038DF80F30B1696B68B9FB69
:101DC400F3F2009003FB12930DF10F023944A8685B
:101DD400FEF768FE002834DB33690BB1013B336145
:101DE400C8F8004001232B76002005B0BDE8F0833D
:101DF40000231F2B06D801229A401142B9D1013386
:101E0400DBB2F6E704346B68A34212D9B169042348
:101E14000093234602AA4944A868FEF7AFFE0028AF
:101E240004DB02990029E3D12037EBE74FF0FF30C0
:101E3400DBE709F1010996E700249EE74FF0FF3044
:101E4400D3E74FF0FF30D0E72DE9F04184B00546E9
:101E54000C46D0F820804368DE00B1FBF6F6D8F8D3
:101E64001810E708B7FBF3F20120009003FB12738C
:101E74000DF10F023144A868FEF780FE002824DB30
:101E840004F00704012202FA04F49DF80F301C4305
:101E94008DF80F40D8F818106B68B7FBF3F0009278
:101EA40003FB10730DF10F023144A868FEF7FAFD2D
:101EB40000280DDBD8F810300133C8F810300123A6
:101EC4002B76002004B0BDE8F0814FF0FF30F9E735
:101ED4004FF0FF30F6E730B585B0036A9D6944687A
:101EE400B1FBF4FC04FB1C1401230093E3080DF183
:101EF4000F0205EB0C018068FEF740FE00280ADBA8
:101F040004F007019DF80F4044FA01F1012905D0BE
:101F1400012005B030BD4FF0FF30FAE70020F8E7AC
:101F240043688B4233D370B584B01446456A066B5C
:101F340001316A68B1FBF2F002FB101303B1012313
:101F440003440C2B19D9920802EB420149000C31CD
:101F540099421FD30D3BB3FBF2F102FB11330C3159
:101F640056F82110A868042200929B0003AAFEF7E9
:101F740005FE48B9039B236004E0013B56F8233077
:101F84002360002004B070BD4FF0FF30FAE74FF03B
:101F9400FF3070474FF0FF30F4E76FF014007047E4
:101FA40070B5A0B005460C46164680236A46214605
:101FB400284600F0E0FC002813DD1F9B002BF4D022
:101FC4008122694606F10A0001F09AFD684601F093
:101FD4007DFD30811E9B33606368803B7360606865
:101FE40000E0002020B070BD10B50446542002F07B
:101FF40063F8206330B1044BA3625422002101F042
:1020040077FD204610BD00BFF0000020C36853B91F
:1020140010B504461830FEF7E2F938B9206B02F027
:102024005AF8002010BD4FF0FF3070474FF0FF30DA
:10203400F8E70000F0B5A3B00446466A376A85683D
:1020440029463046FFF747FF012841D1002102917C
:102054007C2203A801F04CFDB38905FB03F17268EF
:10206400B1FBF2F1BF69B2FBF3F2B5FBF2F002FB94
:102074001055B068009305FB03F302AA3944FEF738
:102084007DFD002800DAFEE7542202A9206B01F04E
:1020940013FD179B2360189A6260199AA2601A9A1A
:1020A400E2601B0C032B05D8DFE803F002090C0FD8
:1020B400094BA362002084F8200023B0F0BD074B35
:1020C400A362F7E7064BA362F4E7064BA362F1E7CA
:1020D4004FF0FF30F1E700BF54010020F000002072
:1020E400480000200C000020F0B5A3B00446456A67
:1020F4002F6A86686B68AA89B3FBF2F3B6FBF3F622
:10210400002102917C2203A801F0F2FC5422216BED
:1021140002A801F0D1FC2368179363681893A2689E
:102124001992E3681A9323691B93B969AB896868A8
:10213400B0FBF3F0B2FBF0FC00FB1C22A868009398
:1021440002FB03F302AA3144FEF7ACFC002802DBD5
:10215400002384F8203023B0F0BD30B583B00446AA
:10216400242500950023024601218068FEF79AFC8D
:10217400342300932B46226A0121A068FEF792FCC7
:102184000023237603B030BD70B582B0054601A9A3
:10219400406AFFF7E0FD002821DBFEF72DFF04462F
:1021A400019B83600026C66046606B6A436280F8C8
:1021B4002060866201211830FEF709F9314604F1E6
:1021C4001C00FEF704F92046FFF70EFF10B120466D
:1021D40002B070BD2146686AFFF736FEF7E74FF09C
:1021E400FF34F4E7F0B583B00546582001F064FFEE
:1021F40004460028F9D02423009300230246012139
:10220400A868FEF7BBFC00282CDB22681D4B9A4211
:102214002DD104F124073423009324233A460121C9
:10222400A868FEF7ABFC002826DB23682B606368F4
:102234006B60A368AB60A389AB81134BEB61002691
:102244002E612E7634223946286A01F035FC314657
:102254002846FEF70BFF6861204601F03CFF284644
:1022640003B0F0BD204601F036FF0020F8E7204619
:1022740001F031FF0020F3E7204601F02CFF00209D
:10228400EEE700BF44332211B80100202DE9F04FDE
:10229400A7B0064603934088012840F096808846FC
:1022A400776AD6F830B073684FEAD3197968B3FB0C
:1022B400F1F201FB123303B10346D31802934FF03A
:1022C400000A5546029B9A457CD2BAF10B0F46D9B7
:1022D400736A5B689B0803EB430252000C3252455D
:1022E40076D9AAF10C02B2FBF3F103FB11230C31F2
:1022F4005BF82110B868042200929B0005AAFEF73F
:102304003DFC002858DB00242EE001350134A4B242
:102314002346726A5268B4EBD21F50D24D4518D28C
:102324005BF82A10B86880220092DB0106AAFEF747
:1023340025FC002810DB414606A801F0B1FB00286B
:10234400E3D1259B012BE0D1249B039A13602846FB
:102354002CE06FF0010029E06FF0010026E000247A
:10236400D6E701350134A4B22346726A5268B4EB4D
:10237400D21F24D24D4517D2B86880220092DB01C7
:1023840006AA0599FEF7FAFB002812DB414606A8C7
:1023940001F086FB0028E4D1259B012BE1D1249B8D
:1023A400039A1360284601E06FF0010027B0BDE8EE
:1023B400F08F6FF00100F9E76FF00100F6E70AF122
:1023C400010A7FE76FF00100F0E76FF01300EDE71B
:1023D4006FF01A00EAE770B582B005461E4601ABFD
:1023E400FFF754FF041E0DDB0199686AFEF73EFEF9
:1023F400044658B12846FEF773FE34600024204694
:1024040002B070BD2846FEF76BFEF8E72846FEF7DB
:1024140067FE6FF00104F2E74388012B66D12DE9D2
:10242400F041A4B004460E461546476A4168CB09FC
:102434007868C009B3FBF0F800FB1838B8F1000F56
:1024440023D10023039303A93846FFF7C4FB0028D4
:1024540046DB314604A801F041FBAB68229301231B
:102464002393636880336360B868802300930023F8
:1024740004AA0399FEF716FB00282DDA03993846BF
:10248400FFF722FC4FF0FF302AE00023039303AA56
:102494002046FFF745FD002825DBB868002200929E
:1024A40013460399FEF76AFB00281CDB314604A897
:1024B40001F014FBAB68229301232393B8688023B3
:1024C40000934FEAC81304AA0399FEF7EBFA002815
:1024D40009DB636880336360012384F820300020C3
:1024E40024B0BDE8F0814FF0FF30F9E76FF013003E
:1024F4007047F8B505460E461F46FEF77DFDA8B1A8
:1025040004460760012380F82030024631462846FD
:10251400FFF782FF00280EDB2846FEF7E1FD204688
:10252400FEF7DEFD069B1C600020F8BD2846FEF782
:10253400D7FD0C20F9E72846FEF7D2FD2046FEF72A
:10254400CFFD6320F1E770472DE9F043A5B00446C1
:1025540000285CD00E46476A002F58D022ABFFF704
:1025640095FE002859DA2046FFF70EFE054600289E
:1025740059D0374B83624FF48073436023A93846A4
:10258400FFF729FB002854DB324902A801F0A6FA20
:102594004FF00108CDF88480AB682093B8684FF001
:1025A4008009CDF80090002302AA2399FEF77AFA55
:1025B400294902A801F092FACDF88480A3682093F7
:1025C400B868CDF800904B4602AA2399FEF76AFA40
:1025D4002B6B239A1A6085F820800223EB602A462D
:1025E40031462046FFF718FF061E28DBE368013357
:1025F400E360012384F820302046FEF771FD28466D
:10260400FEF76EFD0026304625B0BDE8F083204677
:10261400FEF766FD6FF01506F5E72046FEF760FD50
:102624006FF01006EFE72046FEF75AFD6FF01B0629
:10263400E9E72046FEF754FD6FF01B06E3E70023AD
:10264400EB602046FEF74CFD2846FEF749FDDAE72D
:10265400F0000020284100082C4100084288012A8B
:102664007FD14368002B7ED02DE9F047A4B0466AA1
:10267400D0F83090DF097168B3FBF1F801FB18332F
:1026840003B11346984400252C4651E0002024B0A1
:10269400BDE8F0874FF0000A53467268BAEBD21FC8
:1026A40045D2BC42F2D259F82510B068802200927B
:1026B400DB0104AAFEF762FA0028E7DB239B012B67
:1026C400E4D001340AF1010A1FFA8AFAE4E7A5F119
:1026D4000C02B2FBF3F103FB11230C3159F8211066
:1026E400B068042200929B0003AAFEF747FA002870
:1026F4001BDB4FF0000A53467268BAEBD21F16D2A6
:10270400BC4212D2B06880220092DB0104AA039971
:10271400FEF734FA002808DB239B012B05D0013493
:102724000AF1010A1FFA8AFAE5E70020AFE701354A
:10273400454514D20B2DADD973689B0803EB4302B6
:10274400520002F10C01A942C1D803FB03F303EBCD
:10275400430313440C33AB42E9D8002097E701202C
:1027640095E700207047012070474388012B00F053
:10277400BB802DE9F04FA7B08846466AD0F830A058
:1027840043684FEAD3197168B3FBF1F201FB1233CA
:1027940003B10123D318039300273D4688E04FF08B
:1027A400FF3030E001350134A4B223467268B4EB43
:1027B400D21F7CD24D4524D24FEAC31B5AF82710AE
:1027C400B068802300935B4606AAFEF7D7F9002879
:1027D4001CDBD8F80830249A9A42E3D1259B012BBC
:1027E400E0D1002325930C375AF82710B0688023D2
:1027F40000935B4606AAFEF755F90028CFDB0020BC
:1028040001E04FF0FF3027B0BDE8F08F4FF0FF300C
:10281400F9E70024C9E7A7F10C02B2FBF3F103FBCB
:1028240011230C315AF82110B068042200929B0045
:1028340005AAFEF7A3F9002836DB002405E04FF0D3
:10284400FF30E0E701350134A4B223467268B4EBEB
:10285400D21F2CD24D4521D24FEAC31BB06880232E
:1028640000935B4606AA0599FEF788F9002818DB51
:10287400D8F80830249A9A42E4D1259B012BE1D15F
:1028840000232593B068802300935B4606AA05992C
:10289400FEF708F90028D2DB0020B4E74FF0FF3040
:1028A400B1E74FF0FF30AEE74FF0FF30ABE7013751
:1028B400039B9F4215D20B2FABD973689B0803EB84
:1028C4004302520002F10C01B942A4D803FB03F302
:1028D40003EB430313440C33BB42E8D84FF0FF30FF
:1028E40091E74FF0FF308EE74FF0FF30704770B53F
:1028F40082B0044601ABFFF7C9FC051E26DB019933
:10290400606AFEF7B3FB064648B3436A9A68636A93
:102914009B689A421AD14388012B23D12046FFF7A2
:102924009DFE10B306F11800FDF759FD01281FD8CC
:102934000025F560012286F82020E368013BE3606E
:1029440084F8202031462046FFF70FFF2046FEF78B
:10295400C7FB3046FEF7C4FB284602B070BD4FF0FB
:10296400FF35F3E76FF00105F0E76FF02605EDE7BB
:102974006FF00F05EAE72DE9F04F8BB00390059255
:102984009946002B00F084808846D1F804B043684F
:102994005B457FD9476A026B07927A68BBFBF2F109
:1029A400029102FB11BAA2EB0A010691B3FBF2F108
:1029B40002FB113303B10123CB180493029D0026BB
:1029C40017E0069A944228BF14462DE0079B53F85B
:1029D4002510B86800945346059A3244FEF7CEF8A1
:1029E40000285ADB2644D8F804302344C8F80430BD
:1029F4000135049B9D4247D2B14545D90BEB0602F4
:102A0400039B5B689A423FD2A9EB06049A1A7B683F
:102A14009C4228BF1C46944228BF1446029A954201
:102A2400CFD006934FF0000A0B2DCFD99B0803EBB0
:102A3400430252000C32AA4232D9A5F10C02B2FB75
:102A4400F3F103FB11230C31079A52F82110B868F3
:102A5400042200929B0009AAFEF790F8002810DBDC
:102A6400B86800945346059A32440999FEF786F8EB
:102A7400002806DB2644D8F804302344C8F8043080
:102A8400B6E74FF0FF3000E030460BB0BDE8F08F02
:102A94001846FAE74FF0FF30F7E74FF0FF30F4E75E
:102AA4004FF0FF30F1E7002838D070B584B01446F9
:102AB400466A056B43688B4233D301317268B1FBBC
:102AC400F2F002FB101303B1012303440C2B0AD9C7
:102AD400920802EB420149000C31994209D24FF0AD
:102AE400FF3004B070BD013B55F823302360002053
:102AF400F7E70D3BB3FBF2F102FB113355F821105C
:102B0400B068042200929B0003AAFEF737F810B9BC
:102B1400039B2360E5E74FF0FF30E2E74FF0FF301F
:102B240070474FF0FF30DCE72DE9F04385B00446F1
:102B34000D46466A076B43687168B3FBF1F201FB0B
:102B4400123303B101231344581C0C2844D98908B7
:102B540001EB410252000C32824255D30C3BB3FBD1
:102B6400F1F901FB193809F10C0357F823306BB95B
:102B740002A93046FFF72FF800283FDB09F10C03C8
:102B8400029A47F82320012384F8203003A9304611
:102B9400FFF721F8002831DB09F10C0957F8291057
:102BA400B068042300934FEA880303AAFDF77AFF71
:102BB40000BB039B2B600CE029463046FFF70BF863
:102BC40000281EDB2B6847F82830012384F82030C6
:102BD400002005B0BDE8F0834FF00008B8F10B0FFA
:102BE40006D857F82830002BE6D008F10108F5E79D
:102BF4000020EEE703993046FFF766F84FF0FF3008
:102C0400E7E74FF0FF30E4E74FF0FF30E1E72DE96D
:102C1400F04F87B04588002D77D1064693469846F5
:102C2400002B75D04C684368A34273D3D0F824A01A
:102C3400DAF80420B4FBF2F302FB134101B10121E1
:102C44000B4403FB02F303934FF0000944E005AA8D
:102C540021463046FFF727FF002818DBDAF8047016
:102C6400B4FBF7F307FB1343FF1A474528BF474656
:102C7400DAF8080000970BEB05020599FDF712FF3F
:102C8400002804DB3D443C444FF001091DE04FF0B3
:102C9400FF3037E0A8EB05077368A34227D805A9DE
:102CA4003046FFF741FF002828DBDAF804309F4262
:102CB40028BF1F46DAF80800009700230BEB050233
:102CC4000599FDF7EFFE3D443C447368A34203D2EB
:102CD4007460012386F82030A84512D9B9F1000F99
:102CE400D8D1039B9C42B2D34FF00109EDE705AA6A
:102CF40021463046FFF7D7FE0028D6DA4FF0FF30E2
:102D040000E0284607B0BDE8F08F6FF01400F9E743
:102D14001846F7E74FF0FF30F4E710B504463420C7
:102D240001F0CAF9206200B1204610BD2DE9F04738
:102D3400A4B080460E46242001F0BEF90446342097
:102D440001F0BAF905462062824BE361C4F80880B9
:102D54008023A381C3604046FDF7CAFF60604046FC
:102D6400FDF7DEFF286001236B61002E37DDEE6086
:102D7400EA68D308A968B3FBF1FA02F007029B18CA
:102D840000D00123B3FBF1F201FB1233D31800D0BE
:102D940001239A44C5F81CA06A690132AA61296812
:102DA400CB086068B3FBF0F901F007015B1800D0B1
:102DB4000123B3FBF0F100FB1133CB1800D0012346
:102DC4009944C5F8249052442A62606801F074F969
:102DD40007466268FF2100F08BFE002614E040469F
:102DE400FDF79EFF00EB40005B4BA3FB0023DB08D9
:102DF400EB60BDE7A969A0686368009300233A46C5
:102E04003144FDF74FFE01365645F3D3002609E061
:102E1400296AA0686368009300233A463144FDF7A9
:102E240041FE01364E45F3D3EB68A28902FB03F35E
:102E34006168B3FBF1F201FB123303B101231344C4
:102E44002A6A696A0A44AA62EB621A442A63434BF7
:102E540023602046FFF781F9002605E00122314670
:102E64002046FEF769FE01362B6BB342F6D8C4F850
:102E7400088023A92046FEF7AEFE002853DB22A9D2
:102E84002046FEF768FF002857DB342001F014F9D0
:102E9400054600283FD0002303634FF4807343604A
:102EA4004FF4803303604462229B83600223C36037
:102EB40001211830FDF78BFA2846FFF795F820B367
:102EC4002B6B239A1A60264902A800F007FE0123FF
:102ED400219300232093A0688022009202AA2399C0
:102EE400FDF7E0FD002810DB1E4902A800F0F6FD06
:102EF4000123219300232093A0688023009302AA36
:102F04002399FDF7CFFD00281CDA2846FFF77EF849
:102F1400284601F0E0F823992046FEF7D5FE2299D1
:102F24002046FEF7D1FE206A01F0D5F8204601F0D4
:102F3400D2F8002024B0BDE8F08723992046FEF79C
:102F4400C3FEF0E72846FFF7CFF8284601F0C3F8A0
:102F5400E9E700BFB8010020CDCCCCCC443322112A
:102F6400284100082C410008002070470023052B4D
:102F74000DDC084AD25C0AB10133F8E7054A0121A5
:102F8400D15403EBC3039A00034810447047002054
:102F9400704700BF340E00205C0D0020002300E0C9
:102FA4000133052B0EDC084AD25C012AF8D103EB6D
:102FB400C302064901EB82028242F1D1024A002196
:102FC400D1547047704700BF340E00205C0D0020C0
:102FD400002300E00133052B10DC094AD25C012AEE
:102FE400F8D103EBC302074901EB820292688242E3
:102FF400F0D103EBC30301EB83007047002070475B
:10300400340E00205C0D0020F8B506460C46FFF790
:10301400DFFF054608B12846F8BDFFF7A7FF0546C0
:103024000028F8D02046FDF76FFF044678B1AE6063
:10303400C36828469847074620B1A368284698479E
:10304400AE60E8E72846FFF7A9FF3D46E3E70546FB
:10305400E1E700207047000070B506460024134BDA
:103064001B68A3421ED9124B04EB840103EB8102BB
:10307400127953F821100F4B1868FFF7C5FF054666
:1030840088B140691830FDF781F968691830FDF797
:103094007DF968691830FDF779F96B69C6F8103362
:1030A400C6F8143370BD0134D9E700BFD400002042
:1030B400D8000020D006002070B504460E46FDF767
:1030C40013F90546204600F0DDF80446E0B1032379
:1030D40084F834300F4A91690B89013B0B81936961
:1030E4001B89A3B1C4F84C622846FDF704F9206992
:1030F40000F0F1FFFDF7F8F8042384F83430FDF70D
:10310400FAF800F0CFF870BD024B1C6ADFE700F05C
:10311400D5F8E7E73C10002008B501460120FDF78B
:1031240009FA002800DB08BD4042014B1860FAE7A9
:103134007010002008B501464FF0FF30FFF7BCFFC8
:10314400002008BDF8B50646FDF7CEF807464FF057
:10315400FF3000F097F805464FF4467000F0ACFFDE
:1031640000283FD004464FF44672294600F0A4FCE0
:10317400022384F834300023A360E3606069A36908
:103184001844800000F098FF2061002830D02548C2
:10319400FDF725F900B22063204600F0ADF880BBAE
:1031A4002048FDF7F3F865606269A3691A44920048
:1031B4002969206900F080FC22692B6A29695B1A5D
:1031C40013442362636943B32869361A3244E261C3
:1031D40000231362012384F834303846FDF78BF85A
:1031E400206BF8BD3846FDF786F84FF0FF30F8E75E
:1031F400204600F070FF3846FDF77DF84FF0FF30B1
:10320400EFE7204600F067FF206900F064FF3846CE
:10321400FDF771F84FF0FF30E3E74FF0FF33E36160
:10322400D8E700BF6C1000200FB408B502AA52F80A
:10323400041B024800F0C2FDFEE700BF3C0E002064
:103244000246044BD86800E0C06810B10379934289
:10325400FAD170473C10002010B50446102000F04D
:103264002BFF034648B10022C2600260C280047191
:103274000281034AD168C160D060184610BD00BF06
:103284003C100020021E07DB054BD86A38B1036BE3
:10329400934204D0C068F9E7014B186A704770473D
:1032A4003C10002008B501210348FDF79AF800B945
:1032B40008BDFDF723F8FBE76410002008B5FDF70F
:1032C40013F80C4BDB68002101E01946DB685BB1A5
:1032D4001A89002AFAD00029F7D093F804C00A7991
:1032E4009445F3D91946F1E7024B9961FDF703F8C8
:1032F40008BD00BF3C100020002846D070B504462D
:10330400FCF7F2FF054694F835603046FFF798FF66
:103314000346F0B1DA880132DA801A8901321A815F
:103324001A682AB3A2601C602360194BDB6A0BB3D2
:10333400E360174BDC622846FCF7DDFF144B9B6906
:1033440023B194F835101A79914216D8CBB10020E4
:1033540070BD3046FFF780FF03460028DAD12846C7
:10336400FCF7C9FF0B4B0C221A604FF0FF30EFE75C
:103374001C60D9E7064BDC62DDE7FFF79FFF002006
:10338400E6E7FFF79BFF0020E2E74FF0FF307047CE
:103394003C100020701000200C4B59690131596118
:1033A400DB6A03E09A6A01329A62DB686BB1D3F894
:1033B4004422002AF6D09142F4D9DA6B42F4005246
:1033C400DA630022C3F84422ECE770473C10002083
:1033D40000B54FF0E023D3F8243D13F0800F19D04B
:1033E4004FF0E02CDCF8243D23F08003CCF8243D9E
:1033F4004FF0010C254B1B7F8BB9244B9B691B6839
:1034040053B393F83420012A07D1204A13620123CD
:10341400137721E04FF0000CECE79B68F0E71B4BBF
:10342400D3F820E0CEF81C00186A01621B6A998C5C
:10343400022900D09A84A3F826C09B6804E093F87C
:103444003420012A06D09B68002BF8D10F4B9B69CE
:103454001B68F4E70D4A13620C4B1B6ADB8C012BCF
:1034640004D00A4B186A1C305DF804FB4FF0E023CB
:10347400D3F8242D42F08002C3F8242DD3F8242D50
:1034840022F48072C3F8242DEBE700BF3C10002027
:1034940010B407490A6AD2F844424B694FF47A716E
:1034A40001FB0033C2F84432204610BC704700BF11
:1034B4003C10002000E0406850B10368002BFAD0B3
:1034C40093F83420022AF6D1012283F83420F2E75B
:1034D400704738B504460D46FCF706FF236823B150
:1034E4006B602560FCF707FF38BD2560FAE70368C9
:1034F400002204E05B68036070471A465B6833B1DE
:103504008B42FAD1002AF5D05B685360704770474C
:10351400014B1B6A186B70473C1000206FF02500AC
:1035240070476FF0250070476FF0250070476FF00B
:10353400250070476FF0250070470000054B1A6A9C
:1035440092F83530191A002901DD82F8351000206F
:10355400704700BF3C10002010B500F009FD084C76
:10356400012104F12800FCF732FF012104F13000AD
:10357400FCF72DFF0023A361636200F0BDFC10BDC6
:103584003C10002008B5FFF7E7FFFCF78FFEFCF7BF
:1035940063FF002008BD0000024B1B6AD3F8400201
:1035A400704700BF3C1000200346054A126AD2F857
:1035B400400223F4802323F48073C2F8403270471E
:1035C4003C10002010B485B0431E1F2B1AD80928C4
:1035D4001BD013281CD00091002301934FF04043CB
:1035E400029303920C4B1B6A0330020103EB001C91
:1035F4009C5804AB13E90F008CE80F00204605B07B
:1036040010BC70476FF01504F8E76FF01504F5E788
:103614006FF01504F2E700BF3C100020431E1F2B7F
:1036240031D830B51446092830D0132831D01A4B7C
:103634001D6A00F1FF3E033005EB001C0FC98CE846
:103644000F0034B10EF1040305EB03130FCB84E830
:103654000F00114B1B6A03EB0E12906C10F08040AC
:1036640006D00EF1040E03EB0E130020586030BD9B
:10367400012202FA0EF10EF1040E03EB0E135A6846
:103684000A435A60F3E76FF0150070476FF01500B6
:10369400EDE76FF01500EAE73C100020F8B54C4B5D
:1036A4001C6ACB1C1B01E358012B00F08B800646DF
:1036B4000D464F1E002B49D004EB07139B6C13F0EF
:1036C400804F6FD101233360414B1B6AD3F84032E2
:1036D40046F8043CA6F108004FF0807246F8082C26
:1036E4003A1D1201A25840F8042C04EB0716F26CA0
:1036F40040F8082C4FF0123240F80C2C4FF00332F3
:1037040040F8102C4FF0023240F8142C4FF00132E4
:1037140040F8182C40F81C5C1C38FCF7E9FDB36C2D
:10372400002B4ADB2A4B1B6A3A1D04EB0214616826
:10373400D3F840220A43C3F84022012202FA07F7D1
:10374400DA6B22EA0702DA630020F8BDCB1E132BE2
:1037540022D8DFE803F01B1B1B1B211B21211B218B
:10376400212121213A3A0A0A0A0A022384F8343030
:10377400C4F84C126368D3F8482112F0010F03D146
:10378400DA6B42F48032DA630120DEE741F0800133
:103794004FF0FF30FFF790FC29464FF0FF30FFF762
:1037A4008BFC89E70023336046F8043CA6F108004B
:1037B4004FF0807246F8082C92E73B1D1B01002253
:1037C400E250AFE74FF0FF30BFE70120BDE700BF95
:1037D4003C10002008B550F8283C012B04D02430BC
:1037E400FCF786FD002008BD034B1B6A50F8242C0F
:1037F400C3F84022F3E700BF3C10002008B50E4B8D
:103804001B6A9A8C012A00D008BDD3F84012DA6BE7
:1038140022EA0102002100E001311F29F4D801232A
:103824008B401342F8D00131FFF738FF0128EBD168
:10383400FFF738FDE8E700BF3C1000206FF02500DB
:1038440070476FF0250070476FF0250070476FF0E8
:10385400250070476FF0250070476FF02500704712
:103864006FF02500704708B50146FFF7F9FF08BD62
:103874006FF0250070476FF0250070476FF025004A
:1038840070476FF0250070476FF0250070470020E7
:1038940070476FF02500704708B50146FFF7F9FF40
:1038A40008BD6FF0250070476FF0250070476FF07A
:1038B400250070476FF0250070476FF025007047B2
:1038C4006FF0250070476FF0250070476FF02500FA
:1038D400704738B5044600F12005836B13F802CC19
:1038E400006A616AA26AE36ABCF1800F03D04FF0F8
:1038F400FF3323620AE077280AD002280ED0800022
:10390400FCF70CFE20622846FFF778FF002038BD44
:1039140029468000FCF702FE2062F4E7214680007D
:10392400FCF7FCFD2062EEE7002800F0A2802DE900
:10393400F04F83B0D0F8009042680192D0F808B0FC
:1039440090F80CA0C589078A4669B9F1000F51D0D7
:103954004FF4467000F0B0FB0446002850D04FF4FA
:103964004672002100F0C4F8C4F84862EE19B000B1
:1039740000F0A2FB8046002848D00023A362E36243
:103984003D48FCF72CFD00B22063C4F81080002DE4
:1039940045D006F18046013E08EB8606E66107F154
:1039A4008043013B08EB830323620123A38484F84F
:1039B40035A06561A761022384F834300023A36035
:1039C400E36085BB5B46019A4946206AFCF79EFC8E
:1039D400206285BB0223A3842046FFF78DFC0346A7
:1039E400A0B3204600F077FB404600F074FB4FF094
:1039F400FF303BE0214B63221A604FF0FF3035E08B
:103A04001E4B0C221A604FF0FF302FE0204600F0CE
:103A140062FB1A4B0C221A604FF0FF3026E04FF085
:103A2400FF33E361BBE75B46019A4946E069FCF773
:103A34006DFCE061C6E70123A384CDE703EB4302F9
:103A440004EBC202002182F864120133072BF5DD76
:103A54002046FFF701FB0848FCF798FCFCF744FC00
:103A6400012384F83430FCF746FC206B03B0BDE836
:103A7400F08F4FF0FF3070476C1000207010002062
:103A8400054B1A68054943F2390001FB020018602E
:103A9400C0F30E40704700BFF80300206D4EC641CE
:103AA40084469CF8002008780131101A03D10CF1E7
:103AB400010C002AF5D17047034604E011F801CB4C
:103AC40003F801CB013A002AF8D17047034600E01D
:103AD40001331A78002AFBD1181A704784460A78F1
:103AE40001318CF800200CF1010C002AF7D1704749
:103AF400034602E003F8011B013A002AFAD1704799
:103B0400034662B110B402E00133013A2AB10C78E1
:103B14001C70002CF8D00131F6E710BC70477047D8
:103B240008B518B103460846984708BD044B1B68FE
:103B3400002BFAD0581C024A10601970F5E700BF38
:103B4400741000202DE9F04F8BB006460D469146C7
:103B540003E03046FFF7E4FF25462C4614F8011B2A
:103B6400002900F025812529F3D102352078302859
:103B74002ED02D2832D04FF0200A4FF000082A28EA
:103B840044D159F8044B002C2FDB15F8010B2E28D7
:103B94003ED04FF0FF376C2854D0002800F0088145
:103BA400A0F15803202B00F2A080DFE803F05B9E15
:103BB4009E9E9E9E9E9E9E9EA35D509E9E9E9E9EAB
:103BC4009E9E9E9E9EA59E9E9E649E509E9E5B0073
:103BD400A51C824660784FF00008D0E7A51C6078E9
:103BE4004FF0200A4FF00208C9E764424FF0020880
:103BF400CBE704EB840400EB4404303C15F8010BE0
:103C0400A0F13003DBB2092BF3D9C0E70024F7E7B6
:103C14002B4613F8010B2A2804D159F8047B687841
:103C24000235B8E70027A0F13002D2B2092A07D83A
:103C340007EB870700EB4707303F13F8010BF2E768
:103C44001D46A8E748F0040815F8010BA5E70A216A
:103C540018F0040F52D059F8042B642856D04FF0B2
:103C6400000C69E01021F3E759F8041BC9B230468F
:103C7400FFF756FF71E74B4653F804BB0193BBF1C2
:103C8400000F09D05846FFF721FF8146002F0CDBB7
:103C940087420AD2B94608E0DFF81CB1F2E7514680
:103CA4003046FFF73DFF09F1010918F0020F08D172
:103CB400A145F4D305E00BF1010B3046FFF730FFCB
:103CC40047469BF8001049B107F1FF38002FF2D1A5
:103CD40004E020213046FFF723FFB94609F101072C
:103CE400A145F6D3DDF8049037E701463046FFF7E7
:103CF40017FF32E70221ABE70821A9E7642802D0C5
:103D040059F8042BA9E759F8042BA6E7002AA6DAE8
:103D1400524248F00108A2E727273B44DBB20CF1EA
:103D2400010730330CF1280BEB440BF8203C7145B0
:103D34000FD81F2F0DD8BC46B2FBF1F701FB172398
:103D4400DBB296463A46092BE9D97828E4D007270E
:103D5400E3E718F0010F08D007F128030DEB030780
:103D64002D2307F8203C0CF10207BB4605E0514621
:103D74003046FFF7D5FE0BF1010B18F0020F01D10D
:103D8400A345F4D3013F07F128036B4413F8201C27
:103D94003046FFF7C5FE002FF4D10BF10107A34510
:103DA400BFF4DBAE20213046FFF7BAFEBB46F4E792
:103DB4000BB0BDE8F08F00BF3C41000810B5054CC6
:103DC40020600020FFF7BEFE2268002313702360EA
:103DD40010BD00BF7410002008B50020FCF7AAFB3A
:103DE400002800DBFEE74042014B1860FAE700BF01
:103DF4007010002070B540F2FF1200211748FDF743
:103E0400E9FC051E00DAFEE7154E40F2FF113046CC
:103E1400FDF7D8FA40F2FF113046FDF7D3FA002837
:103E24000CDB002C06DD8C220E492846FDF782FDB2
:103E3400041EF6DC2846FDF74DFDFEE740F2FF11B7
:103E44000948FDF7BFFA40F2FF110848FDF7BAFA36
:103E540040F2FF110648FDF7B5FAE2E730410008E9
:103E6400344100087810002038410008404100081F
:103E74004841000808B513460A4601463020FCF7BD
:103E840059FB002800DB08BD4042024B18604FF08C
:103E9400FF30F8E77010002008B501461B20FCF73E
:103EA40049FB002800DB08BD4042024B18604FF07C
:103EB400FF30F8E7701000200E2800D0704708B5D6
:103EC4000120FFF7E9FF034A03490E20FFF7D2FF61
:103ED40008BD00BF55040008BD3E000808B5044AEB
:103EE40004490E20FFF7C6FF0520FFF7D5FFFEE7C4
:103EF40055040008BD3E000808B5FCF767FF1E2105
:103F0400154B1868FEF712FF1448154B0360002187
:103F14004160816006230373C1814FF400730382FF
:103F2400104B4361FFF700FD002800DAFEE70B4861
:103F34000D4B0360002141608160062303734FF43D
:103F44008073C3810382094B4361FFF7EDFC0028B2
:103F540000DB08BDFEE700BFD006002004110020EE
:103F6400F93D000850410008E13E00085C410008AA
:103F7400002313E003EB4302D0000C4A02445268CE
:103F8400002042F82100013103EB4302D000074A2C
:103F94000244D2688A42EDD801339BB2034A128E9E
:103FA4009A4201D90021EFE7704700BFFC030020CB
:103FB4002A4B1B8E83424BD970B5284A00EB400430
:103FC40002EBC40352F834505E68B3F810C0B1FB7E
:103FD400FCF40CFB1411002918BF01344FF0000E3F
:103FE400734602E013444FF0000E00EB40021B49FD
:103FF40001EBC202D168994209D956F82320002A5C
:10400400F0D10EF1010E744509D00133EDE7002221
:1040140002B3994220D91B1B01331A4604E0012242
:10402400F6E746F823400132E118914205D99A4255
:10403400F7D0012146F82210F5E7084A00EB4001C9
:1040440002EBC1014A69141B4C6103FB0C5070BDA7
:10405400002070470020FAE70020F8E7FC03002066
:1040640039B330B40B46134A00EB400402EBC401ED
:1040740052F834504C680A8A5B1BB3FBF2F2CB68EB
:10408400934214D30B4B00EB400103EBC1014B698A
:1040940054F8220003444B6154F82200134603E011
:1040A400002144F82310013311189942F8D830BC88
:1040B40070477047FC03002038B50446FCF714F938
:1040C400054621460020FFF773FF04462846FCF707
:1040D40012F9204638BD38B50546FCF705F9044603
:1040E40029460020FFF7BCFF2046FCF704F938BD41
:0840F400D107000821080008B3
:1040FC00666C617368000000257320257320D6C29E
:10410C00C3FCB4EDCEF3000072626B0073796E6386
:10411C005F626B0077626B00737000002E00000012
:10412C002E2E00002F0000002F7A7A002F7A7A3181
:10413C00000000002F7A7A32000000002F7A7A33C8
:10414C00000000004B65726E656C5461736B00006F
:08415C0074657374000000009B
:10416400B90800085D0800089D07000884000020C5
:10417400000000000000000000000000000000003B
:10418400000000000000000000000000000000002B
:10419400000000000000000000000000000000001B
:1041A4000000000000000000AC000020000000003F
:1041B40000000000000000000000000000000000FB
:1041C40000000000000000000000000000000000EB
:1041D40000000000000000000000000000000000DB
:1041E40000000000000000000000000000000000CB
:1041F40000000000000000000000000000000000BB
:104204006D0C000800000000000000000000000029
:10421400000000000000000000000000000000009A
:104224000000000000000000410C00080000000035
:10423400000000000100000024410008010000000B
:10424400E92100081F2D00080000000020000000E4
:104254002C010020F7240008DB23000800000000E4
:1042640000000000000000004D250008F3280008AD
:104274004B250008000000000000000000000000C2
:10428400000000000000000000000000000000002A
:104294009F1F000800000000A51F00080000000088
:1042A400000000000000000000000000000000000A
:1042B4000000000090010020000000000000000049
:1042C40000000000000000000000000000000000EA
:1042D40000000000000000000000000000000000DA
:1042E40000000000000000000000000000000000CA
:1042F400000000007B290008132C000800000000C7
:1043040000000000000000000000000000000000A9
:10431400000000006D2F0008ED1F000811200008A8
:104324003920000800000000ED2000080000000013
:10433400000000005F2100080000000000000000F1
:10434400893500083931000849310008651A000828
:10435400D11A0008D9170008D91800080000000075
:10436400CD180008C5140008CB1400080000000094
:104374006916000893380008451500089D170008C1
:10438400D11700084738000800000000A5190008EC
:104394001535000857300008000000009D3800085B
:1043A40027350008A73800084D3800089534000860
:1043B40000000000000000005D16000853380008EB
:1043C40059380008631600084135000841380008D0
:1043D400000000003F150008C9130008511400082C
:1043E400D50E0008AD3800085F380008B33800085F
:1043F4006B38000833350008C93500082D3500082E
:1044040039350008753800087B3800088138000801
:1044140045110008E10E000887380008B938000883
:104424008D380008CB380008D13800080917000877
:10443400C91500087D0E000821350008BF380008A2
:10444400C5380008213600089D350008AD35000840
:1044540097380008653800080000000000000000DC
:104464000000000000000000000000000000000048
:104474000000000000000000000000000000000038
:104484000000000000000000000000000000000028
:104494000000000000000000000000000000000018
:1044A40000000000391900080000000000000000AE
:1044B40000000000000000004D170008000000008C
:1044C400000000000000000000000000CF150008FC
:1044D4000D160008000000000000000000000000AD
:1044E40000000000000000000000000000000000C8
:1044F40000000000000000000000000000000000B8
:1045040000000000000000000000000000000000A7
:10451400000000000000000000000000D93700087F
:104524000000000000000000000000000000000087
:104534000000000000000000000000000000000077
:104544000000000000000000000000000000000067
:1045540000000000AD16000801000000401100201A
:1045640040E1002000D000004003000040000000B3
:104574004003000000F000680000006800000F0025
:10458400003C000040000000003C0000020000006D
:04000005080007598F
:00000001FF
