:020000040800F2
:100000000000012009970008F38F0008F58F000811
:10001000F78F0008F98F0008FB8F00080000000030
:10002000000000000000000000000000258400081F
:10003000FD8F000800000000B5840008A1840008BE
:10004000A1840008A1840008A1840008A1840008FC
:10005000A1840008A1840008A1840008A1840008EC
:10006000A1840008A1840008A1840008A1840008DC
:10007000A1840008A1840008A1840008A1840008CC
:10008000A1840008A1840008A1840008A1840008BC
:10009000A1840008A1840008A1840008A1840008AC
:1000A000A1840008A1840008A1840008A18400089C
:1000B000A1840008A1840008A1840008A18400088C
:1000C000A1840008A1840008A1840008A18400087C
:1000D000A1840008A1840008A1840008A18400086C
:1000E000A1840008A1840008A1840008A18400085C
:1000F000A1840008A1840008A1840008A18400084C
:10010000A1840008A1840008A1840008A18400083B
:10011000A1840008A1840008A1840008A18400082B
:10012000A1840008A1840008A1840008A18400081B
:1001300000000000000000000000000000000000BF
:1001400000000000000000000000000000000000AF
:10015000000000000000000000000000000000009F
:10016000000000000000000000000000000000008F
:10017000000000000000000000000000000000007F
:10018000000000000000000000000000000000006F
:10019000000000000000000000000000000000005F
:1001A000000000000000000000000000000000004F
:1001B000000000000000000000000000000000003F
:1001C000000000000000000000000000000000002F
:1001D000000000000000000000000000000000001F
:0401E0005FF8E0F1F3
:1001E40070BC10F5805F38BFF746C0F100012DE9FF
:1001F40002400FF0A1FBBDE8024001606FF0000077
:10020400F7462DE90F0080B44FF05A07684680DFA7
:1002140080BC04B0E5E700BF4FF0000300F06DBB05
:1002240080B44FF0B40780DF80BCDAE780B44FF0CD
:10023400B50780DF80BCD4E780B44FF0580780DF77
:1002440080BCCEE780B44FF0210780DF80BCC8E7D4
:1002540080B44FF07C0780DF80BCC2E780B44FF0ED
:100264002D0780DF80BCBCE780B44FF00C0780DF33
:1002740080BCB6E780B44FF00F0780DF80BCB0E7E6
:1002840080B44FF0B60780DF80BCAAE780B44FF09B
:100294003D0780DF80BCA4E780B44FF0060780DF11
:1002A40080BC9EE780B44FF0290780DF80BC98E7CC
:1002B40080B44FF03F0780DF80BC92E780B44FF0FA
:1002C4000B0780DF80BC8CE780B44FF0850780DFAC
:1002D40080BC86E780B44FF05E0780DF80BC80E797
:1002E40080B44FF05F0780DF80BC7AE780B44FF0C2
:1002F400370780DF80BC74E780B44FF08F0780DF5E
:1003040080BC6EE780B44FF0020780DF80BC68E7F2
:1003140080B44FF06C0780DF80BC62E780B44FF09C
:10032400C50780DF80BC5CE780B44FF0640780DFE2
:1003340080BC56E780B44FF0760780DF80BC50E77E
:1003440080B44FF05D0780DF80BC4AE780B44FF093
:10035400B70780DF80BC44E780B44FF08D0780DFAF
:1003640080BC3EE780B44FF0D90780DF80BC38E71B
:1003740080B44FF0320780DF80BC32E780B44FF0A6
:10038400310780DF80BC2CE780B44FF02F0780DF7B
:1003940080BC26E780B44FF0500780DF80BC20E7A4
:1003A40080B44FF0690780DF80BC1AE780B44FF057
:1003B400840780DF80BC14E780B44FF0140780DF2B
:1003C40080BC0EE780B44FF0400780DF80BC08E7B4
:1003D40080B44FF0600780DF80BC02E780B44FF048
:1003E400AB0780DF80BCFCE680B44FF0A50780DF5C
:1003F40080BCF6E680B44FF04C0780DF80BCF0E6AA
:1004040080B44FF04D0780DF80BCEAE680B44FF043
:10041400930780DF80BCE4E680B44FF04E0780DFB2
:1004240080BCDEE680B44FF04F0780DF80BCD8E6A6
:1004340080B44FF0180780DF80BCD2E680B44FF060
:10044400360780DF80BCCCE680B44FF07507EC46FD
:100454002DE970009CE8700080DF80BCC0E680B4A9
:100464004FF0250780DF80BCBBE680B44FF0100757
:1004740080DF80BCB5E680B44FF0090780DF80BC24
:10048400AFE680B44FF08C07EC462DE970009CE891
:10049400700080DF80BCA3E680B44FF0130780DFD8
:1004A40080BC9EE680B44FF06B0780DF80BC98E68A
:1004B40080B44FF0C40780DF80BC92E680B44FF074
:1004C400270780DF80BC8CE680B44FF00E0780DF06
:1004D40080BC86E680B44FF0960780DF80BC80E65F
:1004E40080B44FF0980780DF80BC7AE680B44FF088
:1004F400C007EC462DE970009CE8700080DF80BCEA
:100504006EE680B44FF01507EC462DE970009CE8C8
:10051400700080DF80BC63E680B44FF07D0780DF2D
:1005240080BC5EE680B44FF0A30780DF80BC58E651
:1005340080B44FF0990780DF80BC52E680B44FF05E
:100544005B0780DF80BC4CE680B44FF0430780DF5C
:1005540080BC46E680B44FF0490780DF80BC40E6AB
:1005640080B44FF07E0780DF80BC3AE680B44FF061
:10057400480780DF80BC34E680B44FF0A20780DFF8
:1005840080BC2EE680B44FF0220780DF80BC28E6D2
:1005940080B44FF0050780DF80BC22E680B44FF0C2
:1005A4001D0780DF80BC1CE680B44FF0880780DF25
:1005B40080BC16E680B44FF02A0780DF80BC10E6CA
:1005C40080B44FF0A80780DF80BC0AE680B44FF007
:1005D400A707EC462DE970009CE8700080DF80BC22
:1005E400FEE580B44FF0800780DF80BCF9E580B47D
:1005F4004FF0810780DF80BCF3E580B44FF07F07C4
:1006040080DF80BCEDE580B44FF0030780DF80BC61
:10061400E7E580B44FF0550780DF80BCE1E580B4A6
:100624004FF0910780DF80BCDBE580B44FF02607F4
:1006340080DF80BCD5E580B44FF0280780DF80BC24
:10064400CFE580B44FF0AE0780DF80BCC9E580B44D
:100654004FF0B00780DF80BCC3E580B44FF0AF0734
:1006640080DF80BCBDE580B44FF0B20780DF80BC82
:10067400B7E580B44FF0B30780DF80BCB1E580B448
:100684004FF0B10780DF80BCABE580B44FF09F072B
:1006940080DF80BCA5E580B44FF0A00780DF80BC7C
:1006A4009FE580B44FF09B0780DF80BC99E580B460
:1006B4004FF09D0780DF80BC93E580B44FF0A10725
:1006C40080DF80BC8DE580B44FF09A0780DF80BC6A
:1006D40087E580B44FF09C0780DF80BC81E580B45F
:1006E4004FF09E0780DF80BC7BE580B44FF052075B
:1006F40080DF80BC75E580B44FF0BB0780DF80BC31
:100704006FE580B44FF0EF0780DF80BC69E580B40B
:100714004FF0790780DF80BC63E580B44FF08B072E
:1007240080DF80BC5DE580B44FF08A0780DF80BC49
:1007340057E580B44FF02E0780DF80BC51E580B4CC
:100744004FF0510780DF80BC4BE580B44FF04A077F
:1007540080DF80BC45E580B44FF0680780DF80BC53
:100764003FE580B44FF0390780DF80BC39E580B4C1
:100774004FF0610780DF80BC33E580B44FF047075A
:1007840080DF80BC2DE580B44FF0AA0780DF80BCF9
:1007940027E580B44FF0A40780DF80BC21E580B456
:1007A4004FF0460780DF80BC1BE580B44FF04B0759
:1007B40080DF80BC15E580B44FF0420780DF80BC49
:1007C4000FE580B44FF0170780DF80BC09E580B4E3
:1007D4004FF0BA0780DF80BC03E580B44FF0000718
:1007E40080DF80BCFDE480B44FF0660780DF80BC0E
:1007F400F7E480B44FF06A0780DF80BCF1E480B492
:100804004FF0C30780DF80BCEBE480B44FF0630794
:1008140080DF80BCE5E480B44FF0190780DF80BC42
:10082400DFE480B44FF0730780DF80BCD9E480B488
:100834004FF0570780DF80BCD3E480B44FF05307F8
:1008440080DF80BCCDE480B44FF0240780DF80BC1F
:10085400C7E480B44FF0950780DF80BCC1E480B466
:100864004FF0740780DF80BCBBE480B44FF06707AF
:1008740080DF80BCB5E480B44FF0870780DF80BCA4
:10088400AFE480B44FF00D0780DF80BCA9E480B4EE
:100894004FF02B0780DF80BCA3E480B44FF05C07EB
:1008A40080DF80BC9DE480B44FF03C0780DF80BCD7
:1008B40097E480B44FF0160780DF80BC91E480B4E5
:1008C4004FF0340780DF80BC8BE480B44FF07A07AC
:1008D40080DF80BC85E480B44FF00A0780DF80BCF1
:1008E4007FE480B44FF01E0780DF80BC79E480B4DD
:1008F4004FF06F0780DF80BC73E480B44FF0720761
:1009040080DF80BC6DE480B44FF0040780DF80BCDE
:1009140067E480B44FF0920780DF80BC61E480B468
:100924004FF0900780DF80BC5BE480B44FF0B807E1
:1009340080DF80BC55E480B44FF0B90780DF80BC11
:100944004FE480B44FF0D40780DF80BC49E480B426
:100954004FF0CF0780DF80BC43E480B44FF0CA0778
:1009640080DF80BC3DE480B44FF0C90780DF80BCE9
:1009740037E480B44FF0C80780DF80BC31E480B432
:100984004FF0CD0780DF80BC2BE480B44FF0D30759
:1009940080DF80BC25E480B44FF0C70780DF80BCD3
:1009A4001FE480B44FF0C60780DF80BC19E480B434
:1009B4004FF0D80780DF80BC13E480B44FF0D70732
:1009C40080DF80BC0DE480B44FF0D60780DF80BCAC
:1009D40007E480B44FF0CC0780DF80BC01E480B42E
:1009E4004FF0D20780DF80BCFFF7FBBB80B44FF031
:1009F400CB0780DF80BCFFF7F4BB80B44FF0D50792
:100A040080DF80BCFFF7EDBB80B44FF01B0780DFB5
:100A140080BCFFF7E6BB80B44FF01A0780DF80BCD0
:100A2400FFF7DFBB80B44FF0C20780DF80BCFFF765
:100A3400D8BB80B44FF0C10780DF80BCFFF7D1BBC7
:100A440080B44FF03E0780DF80BCFFF7CABB80B4A0
:100A54004FF0FA0780DF80BCFFF7C3BB80B44FF0D0
:100A6400FB0780DF80BCFFF7BCBB80B44FF0FC0702
:100A740080DF80BCFFF7B5BB80B44FF0DD0780DFBB
:100A840080BCFFF7AEBB80B440F2011780DF80BCAE
:100A9400FFF7A7BB80B44FF4817780DF80BCFFF7FA
:100AA400A0BB80B440F2031780DF80BCFFF799BB82
:100AB40080B44FF4827780DF80BCFFF792BB80B4B0
:100AC40040F2051780DF80BCFFF78BBB80B44FF486
:100AD400837780DF80BCFFF784BB80B440F20717C4
:100AE40080DF80BCFFF77DBB80B440F2091780DF54
:100AF40080BCFFF776BB80B440F2171780DF80BC60
:100B0400FFF76FBB80B44FF48B7780DF80BCFFF7B7
:100B140068BB80B44FF4897780DF80BCFFF761BB8A
:100B240080B440F21517EC462DE970009CE8700083
:100B340080DF80BCFFF754BB80B44FF48A7780DF3A
:100B440080BCFFF74EBB80B440F2131780DF80BC3B
:100B5400FFF747BB80B44FF4857780DF80BCFFF795
:100B640040BB80B440F20B1780DF80BCFFF739BB79
:100B740080B44FF0EE0780DF80BCFFF732BB80B457
:100B84004FF4867780DF80BCFFF72BBB80B44FF433
:100B9400807780DF80BCFFF724BB80B440F241172C
:100BA400EC462DE970009CE8700080DF80BCFFF704
:100BB40017BB80B44FF0AD0780DF80BCFFF711BBDB
:100BC40080B44FF0E00780DF80BCFFF70ABB80B43D
:100BD4004FF0FD0780DF80BCFFF703BB80B44FF00C
:100BE400E10780DF80BCFFF7FCBA80B44FF08307D5
:100BF40080DF80BCFFF7F5BA80B44FF0DB0780DFFD
:100C040080BCFFF7EEBA80B440F23F17EC462DE902
:100C140070009CE8700080DF80BCFFF7E1BA80B40C
:100C24004FF4A077EC462DE970009CE8700080DF5B
:100C340080BCFFF7D5BA80B44FF0F00780DF80BCEA
:100C4400FFF7CFBA80B440F2391780DF80BCFFF7DA
:100C5400C8BA80B44FF49B77EC462DE970009CE849
:100C6400700080DF80BCFFF7BBBA80B440F2371756
:100C740080DF80BCFFF7B5BA80B440F23517EC468C
:100C84002DE970009CE8700080DF80BCFFF7A8BAF3
:100C940080B44FF0F60780DF80BCFFF7A2BA80B4BF
:100CA4004FF0F30780DF80BCFFF79BBA80B44FF0AE
:100CB400F50780DF80BCFFF794BA80B44FF0F407E7
:100CC40080DF80BCFFF78DBA80B44FF0F70780DF78
:100CD40080BCFFF786BA80B44FF49F7780DF80BC76
:100CE400FFF77FBA80B44FF49E7780DF80BCFFF7B4
:100CF40078BA80B440F23D1780DF80BCFFF771BA48
:100D040080B44FF0E207EC462DE970009CE87000D7
:100D140080DF80BCFFF764BA80B44FF0E307EC4691
:100D24002DE970009CE8700080DF80BCFFF758BAA2
:100D340080B44FF0E407EC462DE970009CE87000A5
:100D440080DF80BCFFF74CBA80B44FF0EB0780DF44
:100D540080BCFFF746BA80B44FF0EC0780DF80BC5C
:100D6400FFF73FBA80B44FF0ED0780DF80BCFFF798
:100D740038BA80B44FF0E80780DF80BCFFF731BA9F
:100D840080B44FF0E90780DF80BCFFF72ABA80B453
:100D94004FF0EA0780DF80BCFFF723BA80B44FF03E
:100DA400E50780DF80BCFFF71CBA80B44FF0E6078C
:100DB40080DF80BCFFF715BA80B44FF0E70780DF0F
:100DC40080BCFFF70EBA01DF78468EEA0E00874634
:100DD4005FEA000C12BF00296FF01500FFF701BA9B
:100DE40021E90810104680B44FF0780780DF80BCFA
:100DF4000000FFF6F6A918BFF7464FF0000B0FF2FC
:100E0400060EBDE80180DEE78446080008BF012025
:100E1400BCE8F00F5CF8042B95465CF804FB4FF03B
:100E240000016A46A0E8F00FA0E80440A0F1280001
:100E34000EF07ABF4FF0000B5DF8040B6946DFF843
:100E440020C001EB800202F10402CCF800200EF075
:100E5400ADFF0EF04FFD80B44FF0010780DF80BC82
:100E6400040900207047704738B50546002400E0A7
:100E74000134402C0DDC2A78074B53F834100B78DE
:100E84009A42F5D128460EF0C6FF0028F0D1012081
:100E940038BD0020FCE700BF3400002008B502463E
:100EA4000349022005F00AFD002005F051FF08BDAA
:100EB400D808010808B502460349022005F0FEFCE3
:100EC400002005F045FF08BDF4080108F8B5061D2B
:100ED40045680DB304462F782D2F0AD02D2F12D03C
:100EE4000F493246012005F0E9FC012005F030FFEE
:100EF400F8BD0C4928460EF08EFF0028EED104F10F
:100F040008060949EDE7094928460EF084FF28B987
:100F140004F108060249E4E70149E2E70049E0E791
:100F240008090108100901080C090108140901083D
:100F340030B583B00446406830B1A3683BB1114872
:100F4400FFF7ACFF03B030BD06F0A4FCFAE70A21BA
:100F540006F0B8F9051E0DDB002201A9284606F0AB
:100F640023FC00280ADD0199284605F0E3FE05F07C
:100F7400B7FDE7E76068FFF79DFFE3E7002005F0B2
:100F8400E7FEF4E71809010810B50346406828B1E4
:100F94009B6893B11348FFF781FF10BD012005F052
:100FA400D7FE0020FFF77FFC0446FFF77CFC2246B7
:100FB4000D49012005F082FCEFE7082106F082F9D3
:100FC400B0F5007F07D30949022005F077FC002023
:100FD40005F0BEFEE1E7FFF766FC012005F0B8FE70
:100FE400DBE700BF340901082009010828090108CA
:100FF40038B50546406888B10A2106F063F904460D
:10100400686808B1AB685BB9002C0DDB164806F0C4
:101014001FFA8568154806F01BFA0AE00124EFE779
:101024001348FFF73BFF13E0FFF744FF10E0AD6800
:10103400013C0DB1002CFAD15DB1294602F044F80F
:1010440001460022084806F079F9012005F080FEE7
:1010540038BD002CF1D00749022005F02FFC0020F8
:1010640005F076FEF4E700BF44090108A84501082D
:101074003C0901084809010808B5436813B1043064
:1010840005F0C0FE022000F04FFC08BD08B543681F
:101094001BB10448FFF702FF08BD012000F044FC27
:1010A400FAE700BF5809010810B543681BB10748A7
:1010B400FFF7F4FE10BD064C20680146FFF751FB14
:1010C400216802200EF0DDFFF4E700BF600901088B
:1010D400300B002030B585B005460C4602A94068A7
:1010E400FFF788F934B1039C6FF000439C4203D0AE
:1010F400A96808E0029CF7E72A681149012005F075
:10110400DDFB17E0096859B14A68B4FBF2F302FB4E
:101114001343002BF6D10CB9012AF3DDB4FBF2F42E
:101124002A68234641B14CB18968009105490120E0
:1011340005F0C4FB05B030BD0349F6E70249F4E706
:101144006809010878090108144E01082DE9F047DF
:1011540004468946164610460EF076FE8046A4687C
:101164000123C9F800303378752B22D0314B9C42CF
:101174002CD13A2130460EF044FE38B30446002305
:1011840004F8013B0A21304606F09CF805460A2182
:10119400204606F097F8B5F1FF3F44D0B0F1FF3F89
:1011A40043D0C5EB051500EB8505C9F800500120B7
:1011B40037E0214930460EF02EFE0028D6D16FF0DC
:1011C4000043C9F8003001202BE02468DCB1A56895
:1011D4002F7828460EF038FEA8EB000006EB000A34
:1011E400335C9F42F1D1514628460EF014FE00288C
:1011F400EBD100238AF800306268D9F8003002FB92
:1012040003F3C9F800300A21304606F05BF8B0F168
:10121400FF3F0CD0D9F8003003FB00F0C9F8000000
:101224000120BDE8F0870020FBE70020F9E700205B
:10123400F7E700BF800B010884090108F0B585B009
:101244000446071D406878B103782D2B04D000268E
:101254003D68B5B12F4C20E02F490EF0DCFD28B9D4
:1012640004F108070126F3E70026F1E70026EFE77B
:1012740031462046FFF72EFF0C342368002BF7D1AC
:1012840008E0244CF9E72549022005F017FB00206B
:1012940005F05EFD05B0F0BD0C3421680029F2D0E4
:1012A4002A780B789A42F7D128460EF0B4FD00282C
:1012B400F2D17B68BBB102A96068FFF79BF87A683A
:1012C40001A92046FFF742FF90B1CEB1019B0393E1
:1012D40002A96068FFF769FAB0F1FF3F13D001205B
:1012E40005F036FDD6E731462046FFF7F3FED1E799
:1012F4000B49022005F0E2FA002005F029FDC9E7B8
:10130400019B0293E4E7074805F0A0FF002005F0E5
:101314001FFDBFE7980B0108900901089409010813
:10132400A4090108B009010808B5436813B10430E1
:1013340005F068FD05F078FC00F090FC08BD0000A5
:1013440038B5084B1C78436853B1064D00232B7005
:101354002146043003F042F8012003F0E7F82C7032
:1013640038BD00BF2C0B00202DE9F04385B00546A5
:101374004368CBB1836803BB686805F0B8FF50B914
:101384006E6834782E2C1ED02E2C2AD14A49304631
:101394000EF041FD28BB6868FEF766FF002819DBE4
:1013A400012005F0D5FC0BE0444806F051F810B1DB
:1013B40003686B60E0E7424BFBE74248FFF76EFDD2
:1013C40005B0BDE8F083404930460EF024FD002806
:1013D400E1D0D9E7002005F0BBFC686805F036FFD2
:1013E400EEE73A4806F034F8044618B14FF0000826
:1013F400464616E0364B01930023039301ACF5E710
:10140400384604F025F90646B8461EE06E684FF0EB
:1014140000083046FEF728FF00282BDAA468002CC9
:1014240040D001AB9C42F1D0D4F8009099F8003040
:10143400002BEBD068680EF007FD074648460EF017
:1014440003FD07440237B845DAD3216830460EF06D
:10145400EDFC206803782F2B03D119490EF0DBFC37
:1014640018B1174930460EF0BDFC696830460EF0DD
:10147400B9FCCEE7012005F06BFC164B1B78002B62
:101484009ED020680378002B9AD02E2B04D10E49CD
:101494000EF0C1FC002893D032460F49012005F01C
:1014A4000DFA8DE76A680D49022005F007FA00205D
:1014B40005F04EFC84E700BFD0090108C00901080B
:1014C400BC090108C8090108CC090108D4090108AC
:1014D400144E01082C0B00202C4A0108DC090108D9
:1014E400F0B585B00446274B1E78051D406878B3D7
:1014F40003782D2B2ED00027234B1B781BB1224BB6
:1015040000221A700127286810B3002104F00EF994
:10151400041E29DB1D4B00221A70294651F8040BC6
:10152400012206F033F8204602F034FF154C2770F0
:10153400174D01AA2946032000F082F9012002F088
:10154400F5FF0121284605F0F1FF00F08BF9267024
:1015540005B0F0BD0F490EF05EFC18B904F10805A2
:101564000127C9E70027C7E7084B1B781BB1074BC6
:1015740000221A70ECE7286805F068FE002005F0E8
:10158400E7FBE5E72C0B0020280B0020FC0A0020D9
:1015940044090108F009010838B50546002400E0B3
:1015A40001340E2C10DC094B03EBC4035868027899
:1015B4002B789A42F4D129460EF02DFC0028EFD165
:1015C400024B53F8340000E0002038BDFC0A010847
:1015D4002DE9F04F85B004460026784B1E6000E0EC
:1015E400013654F82630002BFAD1002500952F46F9
:1015F400AB46AA46724A2146304601F0B1F9B0F131
:10160400FF3F22D0623814280FD8DFE800F0190E0B
:101614000E0E1B0E0E0E0E0E0E0E0E0E160E0E0BD4
:101624000E0E14004FF0010AE4E7002005F090FBD1
:1016340005B0BDE8F08F0127DCE701230093D9E76B
:101644000125D7E74FF0010BD4E75C4B1B6804EB93
:10165400830854F8233023B1002601230393A946B9
:1016640052E05BEA07060FD1BAF1000F11D1FDB9C0
:10167400009BFBB9009B1E4335435AEA05031ED069
:10168400012005F065FBD3E73946584602F088FB94
:10169400EAE700F0BDFCEAE74A4B03EBC4035A68EF
:1016A4004949012005F00AF901340E2CF4DDDFE785
:1016B4000024FAE74549022005F000F9DAE70121A0
:1016C400084602F06DFBDBE758F8050005F0C0FEA4
:1016D400024638B158F80510012005F0DBFF01235C
:1016E400019327E00023019324E054EA0B032BD059
:1016F40058F8050000F0A4FB024628B358F805107A
:10170400012000F0B9FC0136B50058F82630002B52
:1017140050D02F4B02221A604BEA0704009B1C4353
:1017240049EA04044AEA040484F0010454EA07037D
:101734000193C9D154EA0A03D7D058F80500FFF73A
:1017440093FB0028D4D1D0E754EA09030CD058F80D
:10175400053002931846FFF71FFF28B1029A1A4971
:10176400012005F0ABF8CEE7009B23430CD1019C8C
:10177400002CC8D1164B1B68022B12D058F8050058
:1017840005F064FD0394BEE7002158F8050006F057
:101794009DFC02460028EAD00E49012005F08EF88F
:1017A400B1E758F805200C49022005F087F8019BA1
:1017B4000393A8E7039805F0CBFA39E70800002063
:1017C400F4090108FC0A0108FC090108080A0108D7
:1017D400000900202C0A0108300A010830B5A5B020
:1017E4000190012109A8FFF71CFB08B125B030BD09
:1017F400019D294651F8040B012205F0C7FE0E4C49
:1018040006AA09A9022000F01BF803AA2146032016
:1018140000F016F8286800F013FB084905F016FCE0
:10182400012106F0A5F80121204605F07FFE00F015
:1018340019F800F017F8D9E74409010855560008CB
:10184400064BD3F800C0C2F808C01A60107051608B
:10185400022802D8024B1B78537070470C090020F1
:101864002C0B002008B50F4B1A681378062B08D8E8
:10187400DFE803F0040707070C10140052780A4B42
:101884001A70084B1A6892681A6008BD506803F011
:1018940043FFF6E75068FFF71EF8F2E75068FEF7DB
:1018A400FBFCEEE70C0900202C0B0020044B1B680A
:1018B40018780538C0B201288CBF00200120704779
:1018C4000C09002010B5044604E064B90B4B1A68F7
:1018D40092681A60094B1B6823B11A78052AF4D060
:1018E400062A04D010BD5868FEF7F5FFEEE7002C79
:1018F400ECD05868FEF7D0FCE8E700BF0C090020E4
:1019040008B54FF0FF3105F083FC002005F020FA04
:101914000020034B1860034B187000F005F808BD55
:10192400A80A0020A01A002010B5044668BBFEF7E0
:1019340043FD2A4B1B68984227D001200DF0DAFFA3
:10194400042A2AD02648FFF7DBFF28E03ABB2548C3
:10195400FFF7D6FF23E00121506805F0E7FD10E012
:10196400506803F0D9FE0CE05068FEF7B4FF08E0BD
:101974005068FEF791FC04E014BB5A7802BB02F0F5
:101984005BFD194B1A6892681A60174B1B680BB3FE
:101994001A78A242F0D0012CD2D0022CD6D0124B0D
:1019A4001A681378033B032BEBD801A151F823F0F9
:1019B4005B190008651900086D19000875190008FD
:1019C40059780A4A11709968074A116001215868C8
:1019D4000EF021F8012000F041F910BD300B002079
:1019E4004C0C0108640C01080C0900202C0B00208D
:1019F40008B5022810D10D4B1B7813B10C4B1B7882
:101A040073B90B4B01221A7000200A4B18600A4B61
:101A14001870FFF789FF08BD084805F037FCEAE7AE
:101A24000749022004F04AFFEBE700BF2C0B00201B
:101A340004000020A80A0020A01A0020800C01083D
:101A4400544C01082DE9F04383B00F46694B1978D3
:101A540000F084FE05460026B04612E02868FFF731
:101A64009BFD044600E00024634B9C421AD0634B68
:101A74009C421DD00026604B9C4202D05F4B9C428E
:101A840019D128680028EED005F031FC40B9002EA9
:101A9400E4D1286800F0D4F90028DFD0584CE3E7FB
:101AA4000024E1E7043500264FF001083746E2E759
:101AB40004350126DFE72B68002B3AD0B8F1000F7C
:101AC40003D0504B4FF0FF321A60002C37D04FF048
:101AD4000008C146002F4AD01CB14B4B1B68002B99
:101AE40045D005F029FE06460027FFB2B6F1FF3FB8
:101AF40048D0002E4CD0444B00221A60012201A988
:101B0400304605F051FE01994FF0FF3005F012F90F
:101B1400019B13F07F0F02D13C4B00221A7004F09A
:101B2400DFFF0120394B1870FFF7CCFE03B0BDE88E
:101B3400F083B8F1000FC1D004F014FFF6E70121DF
:101B4400286806F0C3FA804618B102F0A3F881466B
:101B5400C0E72B68002BF8D005F0FAF82A4B0022D6
:101B64001A60002FE2D1012000F078F8EDE7FFF7CA
:101B74009DFE0028B5D117B100260127B5E7002640
:101B84003746B2E7224805F061FB0020FFF7B8FEB4
:101B940007B30020FFF796FE04F0E4FE2B6803B1C0
:101BA40044B10CB12846A047002FBFD105F03CF842
:101BB40000F054F84A4629464046FEF77FFB154B91
:101BC4001B68082B0AD0286805F040FB012000F0B0
:101BD40045F890E7002000F0C1F8DAE72C4644F815
:101BE40004890D4845F8040C4A462146FEF766FB75
:101BF4002546E8E7270B0020690E00086B0E000855
:101C0400E1170008300B0020A80A0020040000207F
:101C1400A00C010800090020A80C0108704700006E
:101C240070B582B00446431E3F2B0DD8084D2E6874
:101C3400084B53F834300093002301936846FFF7B0
:101C4400CDFD2E6002B070BD034805F01FFBEDE72B
:101C54000009002034000020B00C010800B583B056
:101C6400084B1B780BB90DF045FE074B009300237E
:101C74000193044A13706846FFF7B0FD04F0D4FFE3
:101C8400F1E700BF340A0020C00C01082DE9F0413F
:101C940006468846C9B10846264905F0D7F90746DD
:101CA400304601F055FE07600023436003222249B9
:101CB40030460EF0D5F800283AD13378732B06D08D
:101CC4003578732D0DD001241BE01C48E4E71C4932
:101CD40030460EF0A0F80028F2D11A48FFF710FEA3
:101CE400EEE7194930460EF096F80028EBD1174B71
:101CF40001221A70E7E70121204604F035FF17E0BE
:101D04000134402C14DC124B53F8340003789D4208
:101D1400F6D131460EF07FF80028F1D10D4B43F88F
:101D24002470B8F1000FE6D00B49204604F01CFFE4
:101D3400BDE8F081D9550008C80C0108200A00202C
:101D4400CC0C0108D40C0108C00C0108340A002092
:101D5400340000201C090020251C000838B5054665
:101D640002F0B4FC01240BE01DB9204A00211160EB
:101D740017E01E4B01221A601D48FFF787FF01344C
:101D8400402C2BDC1B4B53F82430012BF7D01A4A80
:101D9400002142F82410032C0FD00F2C1AD0022C4F
:101DA400E2D0002BEBD00021204604F0DDFE134BE3
:101DB40053F8340001F07AFEE1E71DB9104A00211E
:101DC4001160EEE70E4B01221A6000210D48FFF767
:101DD4005DFFD4E70C4A00211160E2E70B4801F0F3
:101DE40065FE0B4B00221A7038BD00BF100900209D
:101DF400E80C0108901100201C0900203400002088
:101E040014090020F00C010818090020C00C010876
:101E1400340A002038B50446033000F0C1FC70B128
:101E240001F096FD05460023036020460EF00CF8F1
:101E3400013003F0CFFB21460DF0F8FF686038BD98
:101E440010B50E4B196801F067FD044608B100682F
:101E540000B110BD606870B100F02CFD20B10849DC
:101E640005F0F4F82060F4E7606803F021FC002337
:101E740063600448EDE70348EBE700BFB80A0020BD
:101E8400D9550008200A002038B50446074B1968C4
:101E940001F042FD054608B1406800B138BD2A682A
:101EA4002146034804F02EFD6860F7E7B80A0020D5
:101EB400F80C010838B50546012405E01F4B1968E4
:101EC400204604F051FE0134402C26DC1C4B53F810
:101ED400340002782B789A42F5D129460DF09BFF05
:101EE4000028F0D1174B002243F82420032C08D0FB
:101EF4000F2C0CD0022CE1D00021204604F034FE3B
:101F0400E1E7114B1968204604F02EFEDBE70F4B86
:101F14001968204604F028FED5E72B78732B03D0EC
:101F2400284601F0C3FD38BD094928460DF073FF6A
:101F34000028F5D1074B00221A70F1E710090020A0
:101F4400340000201C090020140900201809002076
:101F5400C00C0108340A002010B5204B04221A706A
:101F640000229A605A60012400E00134402C0DDC08
:101F7400112CFAD01A4B53F82430012BF5D100213F
:101F8400184B53F83400FFF781FEEEE7164B1B782D
:101F94001BB9134B9B68012B05D0144B144A1A60D0
:101FA4001448FFF787FF144B1B787BB90E4B1B7843
:101FB4001BB90B4BDB68012B05D0104B104A1A6080
:101FC4001048FFF777FF084B1B7803B910BD0E4B81
:101FD4000B4A1A600D48FFF76DFFF7E7200A00204F
:101FE40090110020340000202C0B00201009002048
:101FF400F5190008E80C0108220B00201409002040
:10200400211C0008F00C010818090020040D010827
:1020140010B501240CE01149012004F04FFC06E046
:102024000F4B53F824300F49012004F047FC0134CE
:10203400402C12DC0C4B53F834201378002BF6D0D0
:102044000A4B53F82430012BE5D009498B42E7D0E1
:102054000849012004F032FCE9E710BD0C0D010829
:102064001C090020180D01083400002090110020E4
:10207400251C0008240D010808B513460A46024928
:1020840004F01CFC08BD00BF180D0108013801282C
:102094008CBF002001207047F8B5044603681A1D60
:1020A40002601F6830E02269A3699A4203D3236A5D
:1020B40001212046984723695A1C226102221A7082
:1020C4000AE023695A1C22611D700136357865B116
:1020D4006B1EDBB2012BE6D92269A3699A42F0D3C5
:1020E400236A012120469847EBE7BF6867B122695C
:1020F400A3699A4203D3236A01212046984723699E
:102104005A1C226101221A700FB13E68DEE70020DA
:10211400F8BD000070B5064603681A1D02601C680D
:1021240007E023785F2B0FD12A460F49304604F08D
:10213400ADFB14F8015BA5B10C4B5B5D002BF3D137
:102144002A2DF1D05F2DECD03269B3699A4203D3C2
:10215400336A01213046984733695A1C32611D7035
:10216400E7E7002070BD00BF2C0D0108F011010845
:1021740070B5044603681A1D02601D6840682B7818
:1021840093B100F0400200F0200092B12269A369EB
:102194009A4203D3236A01212046984723695A1C93
:1021A400226127221A7021E02549204604F06EFBA3
:1021B40043E02A461378013263B12249C95C0129FC
:1021C400E4D00028F6D02A2BE0D03F2BDED05B2BC6
:1021D400F0D1DBE72A461C49204604F057FB2CE0EB
:1021E40023695A1C22611E70272E0BD015F8016B2F
:1021F400B6B12269A3699A42F2D3236A0121204627
:102204009847EDE72269A3699A4203D3236A01211F
:102214002046984723695A1C226127221A70E5E751
:102224002269A3699A4203D3236A0121204698476D
:1022340023695A1C226127221A70002070BD00BF36
:10224400340D0108F0120108380D0108F8B50446F0
:10225400067906F0200601680A1D02600B6801F188
:10226400080202604F6883B9426812F0200F0CD153
:10227400104904F00BFB0020F8BD0F490BE0236963
:102284005A1C22613A781A702B46002BF3D09D68B1
:10229400002EF2D009491A68204604F0F7FA002DFE
:1022A400F2D02269A3699A42E9D3236A0121204624
:1022B4009847E4E7400D01083C0D0108380D01087A
:1022C40008B503681A1D02601B68042B04D8DFE8F4
:1022D40003F0070D05090B00074908E0074906E06C
:1022E400074904E0074902E0074900E0074904F010
:1022F4004BFA002008BD00BF580D01084C0D010821
:10230400500D0108540D0108440D0108480D010841
:1023140038B503681A1D02601C68216859B1054666
:1023240004F032FA03E00549284604F0AFFA54F801
:10233400042F002AF7D1002038BD00BF5C0D01082E
:10234400F0B583B00446017903681A1D02601D6864
:102354003DB301F040012878202825D8DFE810F0AB
:1023640045004C00FC0027002001200133003A0105
:102374005300C4005A00C400E900480161009200FF
:1023840068006F00A4014801C101390076003F00D4
:102394002D007D008400C4009B008B00A200AE00D1
:1023A400D9019A4904F072FA002003B0F0BD6A68BA
:1023B4009749204604F06AFAF6E76A689549204688
:1023C40004F064FAF0E76A689349204604F05EFA80
:1023D400EAE76A689149204604F058FAE4E76A6833
:1023E4008F49204604F052FADEE7AB686A688D49EB
:1023F400204604F04BFAD7E7AB686A688A4920465E
:1024040004F044FAD0E7AB686A688849204604F0CF
:102414003DFAC9E7AB686A688549204604F036FA94
:10242400C2E7AB686A688349204604F02FFABBE729
:10243400AB686A688049204604F028FAB4E7AB68C0
:102444006A687E49204604F021FAADE7AB686A6801
:102454007B49204604F01AFAA6E7AB686A68794912
:10246400204604F013FA9FE7AB686A687649204671
:1024740004F00CFA98E7AB686A687449204604F0E3
:1024840005FA91E7AB686A68E968009170492046EB
:1024940004F0FCF988E7AB686A686E49204604F0EA
:1024A400F5F981E7686802F043F928B16A496A6876
:1024B400204604F0EBF977E76849F8E7684B1B78A6
:1024C4005BB9674E01233370AB686A68654920467F
:1024D40004F0DCF90023337066E7AB686A68584996
:1024E400204604F0D3F95FE76B681A781E2A0BD0F4
:1024F4005D495E4A0B2810D01B2814D0092806D049
:102504005B4804F0C3FE4FE75A490A46F2E70091DC
:102514005949204604F0BAF946E700915749204644
:1025240004F0B4F940E700915549204604F0AEF9AF
:102534003AE7E968B1F1FF3F07D0AB686A680091F8
:102544005049204604F0A2F92EE7AB686A684E4968
:10255400204604F09BF927E76E6816B133781B2BED
:102564000AD032464949204604F090F9AA684849FD
:10257400204604F08BF917E77368002BF1D01A7822
:102584001E2AEED158680378692BEAD141490DF02F
:1025940042FC0028E5D14049204604F077F9E5E7FC
:1025A4006E6826B132463D49204604F06FF9AB68A7
:1025B400002B3FF4F9AE16B13378062B05D1AA6887
:1025C4003649204604F062F9EEE63549204604F027
:1025D4005DF9F4E76A682E49204604F057F9AA68C1
:1025E400002A3FF4E1AE2D49204604F04FF9DBE622
:1025F4006A682A49204604F049F9AA68002A3FF487
:10260400D3AE2849204604F041F9CDE6400D010837
:10261400700D0108740D01087C0D0108800D01087E
:10262400880D0108900D0108980D0108A00D0108FE
:10263400A80D0108B40D0108C00D0108CC0D010856
:10264400D40D0108DC0D0108EC0D0108F40D01089E
:10265400000E0108100E0108640D0108600D010848
:10266400350A0020180E0108680D01086C0D0108D8
:10267400200E0108144E0108340E0108400E010812
:102684004C0E0108580E0108640E0108740E01086E
:102694007C0E01086C0E0108700E0108940D0108EF
:1026A400840E0108F00D01086F68AE68EA682549D8
:1026B400204604F0EBF83EB9012F0CD12A692249D7
:1026C400204604F0E3F86FE633463A461F492046B5
:1026D40004F0DCF8F2E73A461D49204604F0D6F847
:1026E400ECE76E6832461B49204604F0CFF8AF6829
:1026F4003046FFF7CBFC874205D1EA6812492046F1
:1027040004F0C4F850E63A461149204604F0BEF8F5
:10271400F3E76E6832460F49204604F0B7F8AF6815
:102724003046FFF7B3FC874205D1EA680A492046E0
:1027340004F0ACF838E63A460549204604F0A6F819
:10274400F3E700BF880E0108940D01088C0E010800
:10275400940E01089C0E01087C0E010810B5044675
:1027640049B9204602F07BFC0430800002F070FF7F
:102774000C3003460AE0084B02460849022004F0E4
:102784009DF8EEE7226843F8042BA468002CF9D1E5
:1027940000221A6010BD00BF7C490108A00E010888
:1027A4002DE9F04707463D210DF02BFB804640B153
:1027B400C01B013002F04CFF8046064609E00023AE
:1027C40033704046BDE8F087334603F8015B1E468C
:1027D40027463C4614F8015B3D2DF0D05F2DF3D124
:1027E40023785F2BF0D1DFF838A0617850460DF0E4
:1027F40008FB8146A17850460DF003FBB9F1000FA8
:10280400E2D00028E0D05346A9EB0A09C01A3346A7
:1028140040EA091003F8010B04371E46D9E700BF4C
:10282400AC0E01082DE9F8433D210DF0EAFA044607
:102834000027B94635E0013401362378012B09D944
:10284400022BF8D1621C6378013BDBB2012BF2D876
:102854001446F0E70C2002F0BDFE80465FB1B8607C
:10286400701C02F0B7FEC8F800000023C8F804305A
:10287400C8F8083005E08146F2E715F8013B00F896
:10288400013BAC420AD92B78022BF6D16A1C6B7837
:10289400013BDBB2012BF0D81546EEE700230370B1
:1028A400474623781BB1013425460026C5E7484630
:1028B400BDE8F88330B583B03D210DF0A2FA04469B
:1028C400D0B1C51E042229460DEB02000DF0D3F849
:1028D40004220C4928460DF0CEF8284601F0E2FE09
:1028E400044604220DEB020128460DF0C4F81CB185
:1028F40023780E2B03D1A468204603B030BD0024F6
:10290400FAE700BFA40E010808B50E49412003F000
:1029140055FE0D494C2003F051FE0C49532003F0A1
:102924004DFE0B49542003F049FE0A49442003F0AC
:1029340045FE0949572003F041FE0849462003F0AB
:102944003DFE08BD1523000851220008752100082A
:1029540045230008C52200089D200008192100080D
:102964002DE9F84381460D469046484B1B6823B930
:102974000123474A1360454A1360454B1C68012CE8
:1029840024D0424B1F6855F827301E5D414B1E6012
:102994003A2E32D0314640460DF033FA00282CD07E
:1029A40043783A2B40D055F827300134384A146024
:1029B4001B5D2BB9134601221A601744334B1F6069
:1029C400354B00221A603046BDE8F8832F4B1E6851
:1029D4004E4552DA55F8260003782D2B50D1437812
:1029E400002B50D02D490DF016FA0028C9D101361C
:1029F400264B1E604FF0FF36E5E733462A68284928
:102A0400022003F05BFF214B1A6855F8220020498D
:102A14000B6801330B60C35C23B901321B4B1A6092
:102A240001220A603F26CEE755F8273001341B5DAA
:102A34005BB17A1C154B1A6055F827301C44164BB1
:102A44001C60134B01221A60BDE701370F4B1F6056
:102A54004F4507DA7A1C0D4B1A6055F827200E4BA8
:102A64001A60EEE733462A680E49022003F026FF77
:102A7400074B01221A603F26A5E74FF0FF36A2E775
:102A84004FF0FF369FE74FF0FF369CE70800002029
:102A94000C0000203C0A0020380A00201409010818
:102AA400C00E0108D80E010870B506460C4652B196
:102AB40094460023E25C22B11CF8032002BB0133DC
:102AC400F8E70123F3B1224631461A4803F032FFF6
:102AD4001949FDF78EFE002829DB0C2002F0B8FD11
:102AE400054620460DF0B0F9013002F0B1FD214653
:102AF4000DF09CF9286000236B60AB60284670BD24
:102B04000023DFE7337803B90C4E30460CF0E6FFC0
:102B140005460B4B18600028F0D007493046FDF7F6
:102B240068FE074B18680CF0FBFE0025E6E700255D
:102B3400E4E700BF000F0108580A0020BC0901089F
:102B4400440A00202DE9F04184B005460E4617469C
:102B54001C460133254AD268934204D8234B1B6890
:102B640000221A5510E05900DFF88080C8F80C10D4
:102B7400D8F8000002F086FDC8F80000EEE71B4B11
:102B84001B68013C2F221A55002CF8D14FF0000885
:102B940044460EE0154800F0B5FA014601A800F0DD
:102BA400B1FAE4B1A0602046044680680028FBD155
:102BB400AD68B5B13A4631462868FFF775FF01465E
:102BC4000028F5D02B6801930023029303932B680C
:102BD4001A782F2ADED15B78002BDFD0DAE7804623
:102BE400E2E7404604B0BDE8F08100BF980A002047
:102BF4002DE9F04784B080460C460DF025F9451CBC
:102C04004C4B1B68AB4202D34B4B1B683BBBDFF8FE
:102C140028A1DAF8000002F04BFDDFF82091D9F882
:102C2400000002F045FD464F386802F041FD454E74
:102C3400306802F03DFD284602F0CCFCCAF80000E2
:102C4400284602F0C7FCC9F80000284602F0C2FC7E
:102C54003860284602F0BEFC3060364B1D60364BAF
:102C64001968364BD3F80090354B1A68354B1E68FB
:102C7400454610460B4606E0013503F8017B14F87F
:102C8400017B00F8017B2F782F2F01D0002FF3D187
:102C9400002018702B784BB198F800302F2B0ED1F0
:102CA400019102920023039301AF2EE02648FFF71F
:102CB400FBFE07469FB3384604B0BDE8F0872248C0
:102CC400FFF7F2FE074620E00135494601F8012BE3
:102CD40014F8012B06F8012B89462A782F2A01D0F3
:102CE400002AF1D1002289F80020164EDFF84C901A
:102CF4003268D9F800103846FFF724FF0746D9F8A0
:102D0400009036682B78002BD4D003F0E9FE002322
:102D14002A782F2AE1D1013301350134F8E70C2058
:102D240002F096FC0746C0F80080002343608360ED
:102D3400C1E700BF480A0020400A0020540A0020CE
:102D44004C0A0020500A0020CC09010870B5054641
:102D540002F085F9012801D8284670BD06460021F5
:102D64002846FFF7FBFC0446074B042231460CF0CF
:102D74007AFF2B4605E0204650F8042B1A609B6826
:102D84000446002BF7D1E7E7E772000870B50D465B
:102D9400064650B136B32C4614B3326861682068D5
:102DA40002F0A0FB00BBA468F6E711B901201CE007
:102DB400AD689DB10D4928680DF06BF8064628688A
:102DC4000DF042F804468642F2D168680028EFD03C
:102DD4000DF03AF88442EBD1012006E0002004E033
:102DE400B668D7E7002000E0012070BD440901085F
:102DF40070B506460446002200E0A46824B1636866
:102E0400002BFAD00122F8E76AB3254607E00C202C
:102E140002F01EFC0446054633682B60B668F6B122
:102E2400716839B9002CF2D00C2002F011FCA860B2
:102E34000546F1E75CB13068FFF7DAFEFFF786FF7D
:102E4400A8602B461D469B68002BFBD1E6E7306843
:102E5400FFF7CEFEFFF77AFF04460346F2E70023AE
:102E6400AB60204670BD3446FBE700002DE9F04F0F
:102E7400C3B0834600914FF48072002102A80CF085
:102E840025FE01238DF8083001E0DBF808B0BBF122
:102E9400000F09D0DBF800201378002BF5D00121B6
:102EA40002A8C1540A44F7E70C2002F0D1FB0746FC
:102EB400019040F2E93002F0CBFB04463860002573
:102EC4007D60DA464FF47A79C846B8F1000F0AD02B
:102ED400424621460098FDF796FB061E1BDDA8EB33
:102EE4000608264428E03B68A4EB030801E04FEA07
:102EF400490908F57A734B45F9D809F1010002F044
:102F0400A7FB0446424639680CF0B5FD3C604444D6
:102F1400A9EB0808DCE756B31F4B1B68042B2FD022
:102F24001E4804F093F90020FEF7EAFCD7E7237863
:102F340002AAD35C6BB90134B442C6D2002DF6D1D7
:102F4400237802AAD35C002BF5D13C607B60012579
:102F5400F1E70025A2460AF8015B0C2002F078FB99
:102F6400B860C0F800A04560BA460746E3E75DB91B
:102F7400BAF1000F0ED00023CAF80830DDF804B00F
:102F8400584643B0BDE8F08F00232370BB60DDF8E2
:102F940004B0F5E7D346F3E700090020080F010861
:102FA40038B505460C2002F053FB0446284602F0CF
:102FB40056F80146044803F0BDFC20600023A360DA
:102FC4006360204638BD00BF280F0108F0B583B008
:102FD40004460C2002F03CFB05460C2002F038FBB2
:102FE40006466846FDF7E6FA002826DB04F0A4FB53
:102FF40058BBFEF7B3FE6168B1FA81F1490902AB2F
:1030040003EB810353F8080C04F08AF9002819DB58
:103014006368003B18BF012302AA02EB830353F841
:10302400080CFDF739F900211E4B1960E06804F023
:103034009FFC03F0F9FD0CF05DFC1B4804F006F95D
:1030440000252BE001200CF055FC6368003B18BF01
:10305400012302AA02EB830353F8081C134803F06C
:1030640069FC07466368003B18BF012302AA02EB10
:103074008303324653F8081C0620FEF7E1FB63681D
:10308400B3FA83F35B0902AA02EB830353F8080C37
:10309400FDF702F92F6000236B60AB60284603B094
:1030A400F0BD00BFA80A0020180F0108200F010876
:1030B40038B5054638B10C460C2002F0C9FA056053
:1030C40044600023836038BDF8B50E46B0B10446B1
:1030D400B1B10C2002F0BCFA0746054604E00C200E
:1030E40002F0B6FAA860054623682B6063686B603B
:1030F400A468002CF3D1AE603846F8BD0F46FBE758
:103104000746F9E72DE9F04F83B00E46002871D049
:103114000546002970D001F0A2FF8246304601F036
:103124009EFF8346824504D0BAF1010F01D00128E5
:1031340005D10C2002F08CFA0190044616E02F48C9
:10314400FEF7DEFBF5E773684BBB63603CE0424689
:103154000CF0BCFC2DE060684A4640440CF0B6FC20
:103164002FE00C2002F074FAA060044628680CF0EA
:103174006BFE804630680CF067FE814608EB000762
:103184000137384602F064FA206029680CF04EFEDC
:10319400316820680CF026FE6B68002BD3D03846CB
:1031A40002F056FA606069680029D0D042460CF0FB
:1031B40062FC71680029CED060684A4640440CF035
:1031C4005AFC63680022DA55BAF1010F00DDAD68DC
:1031D400BBF1010F00DDB66835B12EB1BAF1010FB4
:1031E400BFD1BBF1010FBCD10023A360019803B090
:1031F400BDE8F08F0191F9E70190F7E72C0F010882
:103204002DE9F04782460E4601F029FF80464FF033
:1032140000094F4613E01648FEF772FB16E0AD684E
:10322400013CFCD1B9F1000F14D00C2002F010FACB
:10323400B86007462B683B606B687B60B6687EB1FC
:103244000A21306804F03EF8041EE4DDA045F5DBF5
:103254005546E5E70C2002F0FBF907468146E9E70D
:10326400B9F1000F01D00023BB604846BDE8F087E8
:10327400400F01082DE9F041064670B3836873B32B
:103284000C2002F0E5F90746304601F0DAFE013081
:1032940002F0DEF90446386000237B60BB603168CD
:1032A4000CF0C4FD30680CF0CFFD0444202304F876
:1032B400013BB668D6F8008040460CF0C5FD0546D3
:1032C4000246414620460CF0D6FB2C44B368002B42
:1032D400ECD123703846BDE8F0810746FAE707468B
:1032E400F8E70000F8B50E461546044670B3A36827
:1032F40013B12D48FEF704FB23681B7853B30A214E
:10330400206803F0DFFFB0F1FF3F27D13D212068A3
:103314000CF077FD10B12548FEF7F2FA23681A780D
:103324002A2A1FD037464EB3214B1B7883BB2A462B
:103334003946206804F002F82468204604F088F82E
:1033440001462A46204604F051F9F8BD1948FEF713
:10335400D7FACCE71848FEF7D3FAD0E71748FEF7B8
:10336400CFFAD3E75B780BB13746DCE7144804F0B7
:103374006FF83146FFF7A8FE0746D4E7002DD3D1F6
:103384000B4B1B7853B92946206804F0CFF8DCE7CF
:103394003A462168022004F07DF9C8E7002221683A
:1033A400022004F077F9EEE7640F0108B40F010876
:1033B400270B0020500F0108800F01089C0F010803
:1033C400A845010838B505460A4B1B685BB11C4685
:1033D4005B68002BFBD1082002F03AF960600560BD
:1033E4000023436038BD082002F032F9014B186015
:1033F400F5E700BFA80A002070B50546002800F0D4
:10340400CA800378023B1E2B57D8DFE803F03556F9
:10341400565656563B565656485656565656565671
:10342400485610565656565656564C105200446836
:1034340000260AE0A06810B103781E2B0BD1FFF719
:10344400DBFF08B186600646646824B12378162B36
:10345400F0D01F2BEED02046FFF7CEFF3146FFF70A
:1034640033FE0446A868FFF7C7FF01462046FFF76E
:103474002BFE0446204670BD8168406800F096F833
:103484000446F7E74068FFF7B7FF0446A868FFF76C
:10349400B3FF01462046FFF735FE0446EAE7FFF78F
:1034A40091FF0024E6E781684068FFF701FE0446C7
:1034B400E0E7FFF78BFD0446DCE74068FFF79CFF7D
:1034C4000446002842D0A36813B13448FEF718FA22
:1034D40023681B78002B3DD0206803782A2B02D167
:1034E4004378002B3AD003F0B3FF04462B78093B12
:1034F400132B37D801A252F823F000BF753500080A
:10350400693500087F350008693500086935000809
:10351400693500086935000869350008693500080F
:1035240069350008693500086935000869350008FF
:1035340069350008693500086935000869350008EF
:103544006935000879340008893500081448FEF705
:10355400D7F9B8E71348FEF7D3F9BDE703F078FFCE
:103564008468C3E7104803F091FE01200CF0C2F90F
:103574002046FFF715FD04467CE72046FFF77AFE58
:10358400044677E7A868FFF737FF01462046FFF7B0
:1035940037FE04466EE704466CE700BF640F01087B
:1035A400500F0108800F0108CC0F010870B584B0DA
:1035B4000C4669B3054602A8FCF7FCFF00282ADB89
:1035C40004F0BAF8064668B30398FCF765FE28468B
:1035D400FFF712FF0299FFF749FC04460298FCF733
:1035E4005BFE012201A9304604F0DEF801994FF098
:1035F400FF3003F035FB019803F0B6FB0021FFF721
:1036040057FD01460022104803F098FE03F068FAC3
:10361400204604B070BD0D4803F018FE0020FEF7EC
:103624006FF9CDE70121039803F07AFE0298FCF7C5
:1036340033FE0021064B1960204604F099F903F08B
:10364400F3FA0CF057F900BFE40F0108180F010852
:10365400A80A002010B40023047844B3E20282EAEA
:10366400444282EA441282EA640213444478F4B184
:10367400E20102EB843202EB0412224453408478C8
:10368400ACB16FEA040C621082EAC40242EACC22B2
:103694005340041DC27852B1500240EA024040EA4D
:1036A400820002F0030202439B1A2046D4E7002B57
:1036B40004DB013901EA030010BC7047DB43F8E77F
:1036C400F8B505460E4617461146FFF7C3FF0446F4
:1036D40002E00134781E044056F8340040B1027808
:1036E4002B789A42F5D129460CF095FB0028F0D1AD
:1036F4002046F8BD70B50546002400E00134092CCD
:103704000DDC2A78134B53F824100B789A42F5D128
:1037140028460CF080FB0028F0D1002618E0002495
:1037240000E00134012C12DC0B4B03EBC4031E79C3
:10373400002EF6D12A78084B53F834100B789A42AD
:10374400EFD128460CF067FB0028EAD100E00126FF
:10375400304670BD28100108140000202DE9F84FF0
:103764008046324B1B68834210D0314B1B68314A70
:10377400D2F80090B9EB430F55DC4FEA49064FEA03
:10378400091001F027FF044600230DE02A4B1B68B3
:103794002A4AD2F80090B9EB430FEEDD002038E05E
:1037A400002244F833200133B342F9DB4FF0000B1D
:1037B4005D460DE00130731E184004EBC00254F85E
:1037C4003030002BF6D11760DAF80430536001353D
:1037D4004D450FDA08EBC50A58F83570002FF6D0BE
:1037E400174B9F42F3D00BF1010B31463846FFF7DC
:1037F40031FFE2E70D4B1B6843450CD00C4BC3F87B
:1038040000B0104B1C600B4B1E60404601F050FF93
:103814000120BDE8F88F084BC3F800B0034B1C60CF
:10382400064B1E60F1E70020F3E700BFB80A002052
:10383400CC0A0020C80A0020C00A0020BC0A0020CC
:10384400144E0108C40A002010B50446006803F0B1
:1038540093FC606801F02CFF10BD000038B50546EC
:10386400032213490CF0FCFA044610B1012038BDC0
:103874000134402C0DDC2A780E4B53F834100B78AD
:103884009A42F5D128460CF0C6FA0028F0D100205F
:10389400EDE72B78732B01D00120E8E70649284691
:1038A4000CF0B9FA08B10120E1E70020DFE700BF1E
:1038B400C80C010834000020C00C010810B54FF4F6
:1038C400007001F087FE0E4C20604FF4007001F090
:1038D40081FE0C4B186000230B4A13600B4A1360E3
:1038E40040220B490A600B490A60216805E0002266
:1038F40041F8082B40F8082B01333F2BF7DD10BDAE
:10390400B80A0020C40A0020CC0A0020C00A002003
:10391400C80A0020BC0A002010B50C46094B1B68DD
:103924008B420BD0084B1A682146FFF7C9FE04EB03
:10393400C00354F8300000B1586810BD034B1A6836
:10394400F2E700BFB80A0020C80A0020BC0A002021
:103954002DE9F0410646204B1D68204B1A68294684
:10396400FFF7AEFE04461E4B01221A7005EBC0029F
:1039740055F830304BB15068FFF766FF164B1868A6
:1039840000EBC4046068BDE8F0812846FFF7E6FE5A
:10399400C8B9144A13680133136030460CF054FA62
:1039A400013001F017FEE5000B4FD7F800803146D7
:1039B4000CF03CFA48F834003B681D44082001F040
:1039C40009FE6860DAE7054B1A68034B196830464C
:1039D400FFF776FE0446DCE7B80A0020BC0A0020A4
:1039E40010000020C00A00202DE9F04107460E46D1
:1039F4002A4B1D682A4B1A682946FFF761FE294B9A
:103A040001221A7005EBC00255F8303083B14FEA39
:103A1400C008002E3AD00C2001F0DCFD04461F4BF8
:103A24001B6843445A68826058602046BDE8F081B0
:103A340004462846FFF792FEF8B91B4A136801337F
:103A4400136038460CF000FA013001F0C3FDE600C3
:103A5400124DD5F8008039460CF0E8F948F83400E6
:103A64002C6834440C2001F0B5FD60602B683344AD
:103A74005A68002191605C68D7E7094B1A68074BC4
:103A840019683846FFF71CFE0446D6E75468606898
:103A940001F00EFE206801F0A3FAC6E7C40A002074
:103AA400C80A002010000020CC0A002070B51A4B70
:103AB4001D681A4B1A682946FFF702FE05EBC0027F
:103AC40055F83030F3B10446C600154B0121197086
:103AD4005068FFF7B9FE104D2B683344586801F065
:103AE400E7FD2B6853F8340001F0E2FD2968631CFC
:103AF4000A4A1268013A134051F833301BB1094B9A
:103B040041F8343070BD084A1368013B1360002348
:103B140041F83430F6E700BFB80A0020BC0A0020A0
:103B240010000020144E0108C00A0020F8B50E460B
:103B3400224B1D68224B1A682946FFF7C1FD05EB8D
:103B4400C00255F830308BB10446C7001D4B01212B
:103B540019705568686801F0ABFD286801F040FAF7
:103B6400AB6863B11EB900236B602B60F8BD134AC8
:103B7400126817447B60284601F09AFDF6E7284650
:103B840001F096FD0D4D2B6853F8340001F090FDC3
:103B94002968631C0A4A1268013A134051F8333009
:103BA4001BB1094B41F83430E0E7084A1368013B84
:103BB4001360002341F83430D8E700BFC40A002062
:103BC400C80A002010000020144E0108CC0A00206E
:103BD40038B50446002000E0013054F82030002BB2
:103BE400FAD101303F2800DC40204200134B1A6018
:103BF400C00001F0EFFC124B18600DE0284603F002
:103C04000DFD40B90E4B19680E4A1368581C10601C
:103C1400226841F823200434256875B103220A4937
:103C240028460CF01DF90028E8D1084B1B78002B1E
:103C3400F1D12846FEF7EEF8EDE738BDB40A0020CE
:103C4400B00A0020AC0A0020F00F01082A0B002063
:103C540070B506460D46002400E00134012C16DC44
:103C64000B4B03EBC4031B79AB42F6D03278084B01
:103C740053F834100B789A42EFD130460CF0CBF85D
:103C84000028EAD1024B03EBC4031D71E5E770BDC4
:103C940014000020384B1B789BB12DE9F041364BC2
:103CA40000221A70354B1E68354B1968354B1A685B
:103CB4008B180133334434480068834204DC002405
:103CC40010E0324B1868704731440A44511C4A00D2
:103CD4002D4B1A602D4CC900206801F0D3FC2060E4
:103CE400EDE70134264B1B68A34218DD284B1B6803
:103CF40053F83450002DF4D0264B9D42F1D0284681
:103D0400FFF7F8FC0028ECD0284603F0F5FB002868
:103D1400E7D01E4A126842F826000136E1E7002483
:103D240000E00134174B1B68A34218DD1A4B1B68D3
:103D340053F83450002DF4D0164B9D42F1D0284650
:103D4400FFF78CFD0028ECD0771C104BD3F80080D3
:103D54002846FEF799F848F826003E46E1E70B4C62
:103D64002068002340F826300C4B042231460BF027
:103D74007AFF2068BDE8F08110000020AC0A002022
:103D8400C80A0020BC0A0020B40A0020B00A00209F
:103D9400C40A0020144E0108B80A0020E772000883
:103DA40070B50546D1B9002D31D170BD0134194B20
:103DB4001B68A342F7DDE600174B1B6853F8340079
:103DC4000028F3D003F044FB02460028EED0124B47
:103DD4001B689959012003F05DFCE7E70024E6E73E
:103DE40001340E4B1B68A342DFDD0D4B1B6853F8F7
:103DF4003450002DF4D00B4B9D42F1D02846FEF7F1
:103E04001FF8024629460120FEF736F9E8E70024A8
:103E1400E7E700BFC80A0020C40A0020BC0A00204B
:103E2400B80A0020144E01082DE9F84F82464FF4D9
:103E3400007001F00DFC054600F50077304B0022C0
:103E44001A7081464FF4007800F05AFC564600E0A0
:103E5400013600F059FA044633788342F8D023B986
:103E64000A2810D0B0F1FF3F0DD0564531D0A6EB53
:103E74000A06AB19BB4209D23246514628460BF01A
:103E8400FAFD354425E000232B7018E006EB4808C2
:103E9400404601F0DDFB8346A5EB09052A46494669
:103EA4000BF0E9FD5D440BEB0807D946E4E7154840
:103EB40000F050FC124B01221A704FF000094846E2
:103EC400BDE8F88F05F8014B0A2CBDD000F01CFAB0
:103ED4000446B4F1FF3FEAD06B1CBB42F2D34FEA75
:103EE4004808404601F0B4FB0646A5EB09052A46FE
:103EF40049460BF0C0FD354406EB0807B146E1E73F
:103F0400D00A0020501001082DE9F0470546047836
:103F14004FF0000812E0904610E0002203F8012C54
:103F240029461E2002F0F0FF02463546B8F1000F84
:103F3400F1D04146082002F0E7FF8046002C3FD034
:103F4400242C08D02B461E4601333478002CE4D0B0
:103F5400242CF8D1E1E705F10109AE1C6B78242B80
:103F640022D0002738460137354601362C78164BC7
:103F74001B5D002BF6D05E2C1FD0023001F068FBD5
:103F840006464FF0000A00F807A03A4649460BF0EF
:103F940072FD524631461E2002F0B6FF01460B2048
:103FA40002F0B2FF0246C1E7002208491E2002F0D7
:103FB400ABFF0246AC783546B8E734783546DCE7E3
:103FC4004046BDE8F08700BFF01101085014010815
:103FD40070B5154B1C6814B3064600221A6058B11C
:103FE400124800F0B7FB00201AE0FFF78DFFE860ED
:103FF40004236B60A46884B125686068FFF714FF2C
:104004000B4B1B786BB9237B002BEED000231A4695
:1040140001461E2002F078FFE9E7012000E00120BC
:1040240070BD3046FCE700BFD40A002050100108E0
:10403400D00A002070B503781E2B03D105460E4626
:104044000D4C08E00D4800F085FB00F057FA002005
:1040540010E003F108042368002BFAD1102001F0CA
:10406400F7FA20606B6843602B7B037306600023C0
:104074008360012070BD00BFD40A002064100108D1
:104084004FF0FF30014B1860704700BFF40A002066
:1040940070470000B0F1FF3F07D0064B1968064A8D
:1040A4001368013B1360C8547047044B01221A7013
:1040B400704700BFE40A0020DC0A0020E10A002067
:1040C400074B1B68074A1268D05C28B10133044AC5
:1040D4001360054B186070474FF0FF30F9E700BFDD
:1040E400DC0A0020E40A0020F40A002038B51C4B46
:1040F4001B7803B938BD1B4803F0AAF9844600288D
:10410400F8D0002208E0284603F0A0F80121284650
:1041140003F00CFAEEE70132134B1B689342E9D922
:10412400931C12490968CB5C232BE3D00A2BE1D002
:10413400202BF0D0092BEED0DCF8005002212846C9
:1041440001F0F4FA041EDEDB084B1968064B1A680A
:104154000231204602F0C6FE2046FCF79DF8C9E76E
:104164002C0B00208C100108D80A0020E40A00203F
:1041740010B5344B1B680233334A1268934212D988
:10418400324B1968304A1368581C1060C85C304BB5
:10419400186010BD2F4B04221A60002C2FDA2D4B0F
:1041A4001B68042B2BD12C4B1B68284A11684FF435
:1041B400807202319868FCF726FA044602F090FCFB
:1041C400244B1B68052B0CD00B2BE6D1224B1B6810
:1041D400986801F0C1FA0028DCD1204803F056F8B1
:1041E400D8E71D4B1B68986801F0E0FA18B1194B29
:1041F40004221A60D1E7174B05221A60CDE7002C80
:104204000BDB104B1C607CB10F4B02221A60144B69
:104214001B7873B9FFF76AFFB2E7124803F016F888
:104224000020FDF781FBECE74FF0FF30084B1860EE
:10423400AFE7064B196822460231022002F052FE13
:10424400E8E700BFD80A0020DC0A0020E40A0020C6
:10425400F40A002000090020E80A00209410010854
:104264002B0B0020A410010810B51B4A13681B492E
:104274000968D9601A49096819611A4909685960B5
:104284001949096859611949097819771849096858
:10429400996118490978597720331360164A1068D0
:1042A4001C1A164B19684B09B3EB641F09D9144B3C
:1042B400144A1A60094B02221A60094B00221A6040
:1042C40010BD49000D4B196001F0DCF90A4B186070
:1042D4002044014A1060EAE7E80A0020DC0A0020D2
:1042E400D80A0020E40A0020140B00202C0000202F
:1042F400F40A0020E10A0020F00A0020EC0A002061
:10430400040B00209940000808B50B4B1B785BB1E7
:10431400094B00221A704FF0FF33084A136009E07A
:104324000021074802F074FF064B1B6898470346B8
:104334000028F5D0184608BDE10A0020F40A002040
:10434400AC100108000B002008B5024B1B6898470D
:1043540008BD00BF040B002008B54FF40050084B03
:10436400186001F037F9074B1860074B18600023F9
:1043740003704FF0FF338360044B054A1A6008BD95
:10438400EC0A0020F00A0020E80A0020040B0020B8
:104394009940000838B50446FFF766FF094B1B68CF
:1043A40000221A700125084A15709C60074B084AC0
:1043B4001A604FF4817001F00DF9064B1860064B3A
:1043C4001D6038BDE80A00202C000020000B0020EE
:1043D40075410008E40A0020140B002070B504465F
:1043E4000D46FFF741FF0D4B1B6801221A700C4E5E
:1043F400357021460B4802F085FA0B4B18600B4BC5
:104404000B4A1A6033781BB10A4B01221A6070BD43
:10441400084A1368013B1360F9E700BFE80A00206B
:104424002C000020CC100108E40A0020000B00201E
:10443400C5400008140B002008B5224B1B681A78ED
:10444400002A2DD0204B186801F032F91D490A6862
:10445400A2F120030B6012F8202C012A24D01B485F
:104464001B4908601AB99A68B2F1FF3F1ED09969D6
:10447400184A1160597F184A11705968124A11601C
:10448400D968164A11601969154A1160154A1278DB
:104494009AB15969144A11601A7F124B1A7008BDF7
:1044A4009868FBF7F9FECDE71048D9E70A461049AA
:1044B4001160104A10491160D9E70B490A680132AA
:1044C4000A60E9E7E80A0020E40A002075410008D0
:1044D400000B0020F40A0020E10A0020DC0A00207E
:1044E400D80A00202C000020140B0020C54000082E
:1044F40085400008040B00209540000808B50A4BCD
:104504001B680A2B0CD0B3F1FF3F09D0FFF7FCFE68
:104514000A2802D0B0F1FF3FF8D1B0F1FF3F00D03C
:1045240008BDFFF711FFFBE7F40A002010B5A6B0A1
:1045340001904C4B1B780BB10023019301210BA874
:10454400FCF76FFC08AA0BA90020FDF779F90024F9
:104554002DE0454802F07CFF044600214348FEF765
:10456400A7FD01462046FEF7CDFD03680693002310
:1045740007933F4A012111703E4A137005A8FCF7C6
:10458400AFFF23E03C4B01221A703C48FDF726F9AB
:104594002AE03B4A39E0019B002B3ED00020FDF786
:1045A400C3F93AE0012103F0E3F9FDF75BF9002CCC
:1045B4004FD101F007F8014602AA0420FDF740F9A3
:1045C40002F08EFA2B4B1B78002BC2D12D4B1B789B
:1045D400EBB1244B1B7853B92B48FDF731FC30B1B8
:1045E400254B1B78002BCDD0234B00221A70264874
:1045F40002F02EFF044650B102682449022002F062
:104604005DF9A368002BC4D01A68214B1A6000F02E
:10461400B7FC01F073F90128BDD01E4B1C68B4F13E
:10462400FF3F14BF002401241B4B18680028BCD092
:10463400019B002BB6D1194B1B78002BB5D0094B2D
:104644001B78002BB1D002461549022002F036F93E
:10465400ABE7FFF7F1FEFDF705F90F4B186826B03D
:1046640010BD00BF250B0020C0090108D4100108AB
:10467400FC0A0020240B0020E00A00202400002073
:10468400144E01082C0B0020F40F0108380D01080A
:10469400F80A0020F40A0020400B0020270B002019
:1046A400DC10010870B582B0074C26780090002514
:1046B4000195257001216846FFF790FE2846FFF713
:1046C40035FF267002B070BD2C0B002010B50A4BCC
:1046D4001C6800E0203C094B1B68A3420BD02378E4
:1046E400002BF7D1A0680228F4DDFBF7D5FD4FF0CD
:1046F400FF33A360EEE710BDE80A0020F00A0020B3
:1047040008B5074A136801331360064B1B7803B9D5
:1047140008BD054B1A680549022002F0CFF8F7E7F7
:10472400140B00202C0B0020F80A0020380D01087F
:10473400024641B105491078013230B10B5C002BBF
:10474400F9D0012070470249F5E77047F0110108DC
:10475400F01201081E490978D1B910B582B0044697
:104764001C4B1B78002B2CD11B4B1B78A3B11B4B70
:1047740018681B4B19681B4B1A68009023460A29BA
:1047840008BF013A1849022002F098F802B010BD9F
:104794000F4B00221A707047114B1968B1F1FF3F9B
:1047A4000BD00A290BD0A1F120035E2B03D90F48AB
:1047B40002F0C0F8DDE70E48FAE70E48D9E70E48E4
:1047C400D7E702460D49022002F078F8DEE700BF81
:1047D400190B00202C0B0020200B00201C0B0020A8
:1047E400F40A0020140B002008110108E810010845
:1047F400E0100108F8100108FC1001082C4A010817
:1048040010B50446FFF77AFE2046FFF7A3FF012305
:10481400024A1370024A137010BD00BF190B002026
:10482400090B002010B56FF00803254A1360254AD0
:1048340013605B2802D0FFF787FD10BDFFF764FD0E
:10484400A0F13004092C07D91F48FFF7D9FFF4E77A
:1048540004EB840403EB4404FFF756FDA0F130039A
:10486400092BF5D9174B1C603D2805D05D28E4D0F1
:104874001648FFF7C5FFE0E7FFF746FDA0F1300457
:10488400092C0ED92D2C04D10D4B4FF0FF321A6098
:10489400D3E70F48FFF7B4FFCFE704EB840400EB42
:1048A4004404FFF731FD30380928F6D92D2802D108
:1048B400034B1C60C1E70748FFF7A2FFBDE700BF39
:1048C400100B00200C0B0020201101083C110108E2
:1048D4005C1101087C1101082DE9F843824B1D6825
:1048E400824B1B789BB9824B1B78BBB1814E804BAA
:1048F40000221A70804B1B78ABB1804A1368013BCD
:104904001360FFF7FDFE7C4B00221A700BE0774B1F
:1049140000221A700A242046BDE8F883784EE6E7A0
:10492400784B00221A70FFF7EFFC04462028F7D0DA
:104934000928F5D0B0F1FF3F00F0F782C3B2F35C71
:10494400002B00F09680602809D0212807D0402849
:1049540005D07E2803D0242801D027280DD1694B07
:104964001B78002B40F08A81212C03D0402C01D0ED
:104974007E2C02D1634B02221A70A4F10A03742B19
:1049840000F2CF82DFE813F01402CD02CD02CD0293
:10499400CD02CD02CD02CD02CD02CD02CD02CD029B
:1049A400CD02CD02CD02CD02CD02CD02CD02CD028B
:1049B400CD02CD02CD028201CD0209029001CD02C9
:1049C4003C029E01FE011B02CD02CD02CD02CD02AE
:1049D400CD02CD02CD02CD02CD02CD02CD02CD025B
:1049E400CD02CD02CD02CD02CD021B02A2021B02DA
:1049F4007A02CD02D702CD02CD02CD02CD02CD0284
:104A0400CD02CD02CD02CD02CD02CD02CD02CD022A
:104A1400CD02CD02CD02CD02CD02CD02CD02CD021A
:104A2400CD02CD02CD02CD02CD02CD02E301CD02F5
:104A34001B02CD028801CD02CD02CD02CD02CD02F2
:104A4400CD02CD02CD02CD02CD02CD02CD02CD02EA
:104A5400CD02CD02CD02CD02CD02CD02CD02CD02DA
:104A6400CD02CD02CD02CD02CD021B0247021B02B4
:104A74008501244B93F80080B8F1000F04D1214B39
:104A840001221A70002717E000221A70FFF75CFC5D
:104A94005E2440E74F460FE04FF001081A4B1968B7
:104AA400B94217D9FFF730FC0446B0F1FF3F42D0BA
:104AB400C3B2F35C002B3ED1EC5501373F2CEBD055
:104AC4005B2C04D02A2CE9D14FF00108E6E74FF023
:104AD4000108E3E749001960284600F0D3FD0546C4
:104AE400014B1860DEE700BF1C0B0020090B0020FF
:104AF400080B0020F0110108180B0020140B0020F3
:104B0400F0120108200B002030000020FFF7FCFB0E
:104B140004460A2847D0AC4B9E4251D007F1010904
:104B24005C23EB55A94B1968494540D9E3B2F35CC2
:104B3400002BAFD04F465C2CE8D02046FFF704FC96
:104B44000023EB55A24B02221A7097423DD02C78D9
:104B5400662C53D0652C5AD0732C61D0772C68D036
:104B6400632C06D19B4928460BF055F9002800F028
:104B7400DF81974B01221A7028460BF065F901304A
:104B840000F066FD29460BF051F9934B1860B8F11B
:104B9400000F57D1904B00225A608F4B00221A729B
:104BA40040F21714B7E6FFF7ABFD2024C5E7490030
:104BB4001960284600F066FD0546884B1860B5E785
:104BC4002046FFF7C1FB5C24B7E72B78692B09D09B
:104BD400662B0DD0692BBAD16B786E2BB7D140F20E
:104BE4000D1498E66A78662AF2D14FF4867492E638
:104BF4006A786E2AEED14FF485748CE6784928469B
:104C04000BF009F90028A5D140F20B1483E675498D
:104C140028460BF000F900289ED140F207147AE6EA
:104C2400714928460BF0F7F8002897D14FF48A749D
:104C340071E66E4928460BF0EEF8002890D14FF447
:104C44008B7468E628460BF0FFF8013000F000FD95
:104C5400614B586005E0012300E0012300F8013BAB
:104C640001352B78002B98D03F2BF6D05B2B03D04B
:104C74002A2BF0D00023F1E70123EFE7544B002265
:104C84001A702046FFF760FB5E2444E640F20314EA
:104C940041E640F215143EE6FFF736FB602800F0CB
:104CA4004D81FFF751FB36E6514B01221A70FFF795
:104CB4002BFB232800F045815E2800F04581FFF797
:104CC40043FB28E6424B01221A7000260CE0FFF752
:104CD40017FD12E03E4B00221A704648FFF790FD84
:104CE4004FF48C7417E63E46FFF70EFB0446272864
:104CF40013D0771CAC550A2CE9D0B4F1FF3FE9D0AE
:104D0400324B1968B942EED849001960284600F0C0
:104D1400B9FC0546314B1860E5E7FFF7F5FA0446A0
:104D24002728E6D0FFF710FB0024AC5528460BF0EB
:104D34008BF8013000F08CFC29460BF077F8264BF9
:104D440018605C6001221A7240F21714E3E5FFF761
:104D5400DBFA0A2802D1FFF7D3FCE4E5FFF7F4FA03
:104D64001B4B93F80080B8F1000F04D1FFF7CCFA85
:104D740004460027CFE600221A705C20FFF7E4FA0D
:104D84005E24C8E5124B1B78012B03D0104B002284
:104D94001A70C0E54FF48974F8E7FFF7B5FA0446D2
:104DA4000A2805D0B4F1FF3FF7D14FF48474B2E57B
:104DB400114A136801331360104B01221A70044B1B
:104DC40000221A70A7E500BFF0110108300000208E
:104DD400200B0020B4110108540B00201C0B0020F0
:104DE400981101089C110108A4110108AC110108D3
:104DF400080B0020BC110108140B0020180B002024
:104E0400594B00221A70FFF77FFA262800F09F8082
:104E1400FFF79AFA7FE5544B00221A70FFF774FAF1
:104E24007C2800F09780FFF7FDFC504B1B78002B8B
:104E340040F093804E4B1B684E4A136013F1090FE8
:104E44000ED04D4B1B684B4A536013F1090F0BD026
:104E5400484B5B68B3F1FF3F0AD040F20F145AE5A8
:104E6400134601221A60ECE7134600225A60EFE76A
:104E74004248FFF7C5FC4FF48C744CE5FFF744FA45
:104E84003E281DD03B4B01221A703A4B01225A6036
:104E9400354B00221A70FFF7C5FC344B1B78002BEE
:104EA4005ED1354B1B6813F1090F32D1304B1B68AF
:104EB40013F1090F23D02F4A536040F211142AE54D
:104EC400FFF722FA2B4B02221A70DEE7FFF71CFAD7
:104ED4003C2806D0274B00221A70264B00225A6029
:104EE400D6E7FFF711FA3C2803D0224B03221A70AD
:104EF400F3E7FFF709FA1F4B04221A70EDE71D4B85
:104F04001B78012B02D940F2111404E54FF4887484
:104F140001E5184A16490968516093604FF4837497
:104F2400F9E4114B00221A70F5E44FF48474F2E4AE
:104F34004FF48274EFE440F21314ECE44FF4817400
:104F4400E9E440F20514E6E440F20914E3E440F233
:104F54000114E0E44FF48774DDE44FF48C74DAE474
:104F64004FF48C74D7E400BF200B0020090B002001
:104F74000C0B0020540B0020100B0020D41101084E
:104F840008B50023114A1370114A1370114A1360B3
:104F9400114B1B68B3F5FA5F0DD9104A106850B174
:104FA40000F086FB4FF47A700B4B186000F012FB94
:104FB4000A4B186002E0094A126802B108BD18469B
:104FC40000F008FB054B1860F8E700BF180B002041
:104FD400200B0020D40A0020300000201C0B0020ED
:104FE40038B5044607E0A568206800F061FB204658
:104FF40000F05EFB2C46002CF5D138BDF8B5044614
:105004000F4600252E460FE00C20B847A860054641
:1050140020680AF019FF0130B847286021680AF0B7
:1050240005FF00236B60A46834B1002EECD10C2082
:10503400B84706460546EBE70DB10023AB603046A2
:10504400F8BD38B50446002505E020680AF0FCFEEA
:1050540005440135A468002CF7D1284638BD034621
:10506400002001E001309B68002BFBD17047000059
:1050740010B50446054800F059FBA04202D0B0F137
:10508400FF3F00D110BDFBF707F9FBE7F013010860
:105094000FB430B583B006AB53F8045B019300241E
:1050A40007E00021FEF704F801462046FEF70CF85D
:1050B4000446019B1A1D019218680028F1D10022B0
:1050C4002146284602F03AF900212846FEF7C0FDA1
:1050D4002B78702B04D003B0BDE8304004B0704787
:1050E400054928460AF097FE0028F4D100222146FB
:1050F400284602F07BFAEEE7141001082DE9F0438C
:1051040087B005460C461646FDF7FEFB00230593C3
:1051140004932768FBF750F9B24B186023681B7897
:105124002D2B14BF00230123AF4A1370AF4A21462D
:105134002846FDF715FCB0F1FF3F7CD03F383928F5
:10514400F4D801A353F820F0795300083151000832
:105154003151000831510008315100083151000823
:105164003151000831510008315100083151000813
:10517400275300083151000831510008315100080B
:1051840031510008315100083151000831510008F3
:1051940031510008315100083151000831510008E3
:1051A40031510008315100083151000831510008D3
:1051B40031510008315100083151000831510008C3
:1051C40031510008315100083151000831510008B3
:1051D40031510008315100083552000817530008B6
:1051E4001F530008315100083151000831510008A3
:1051F400355300083151000831510008415300086B
:10520400315100084953000851530008595300080C
:105214003151000831510008615300083151000830
:1052240031510008695300083151000871530008D6
:105234006F4B1B6804936F4BD3F8008004EB880911
:105244006D4B1B7833B96D4B1B781BB9049B002B3A
:1052540000F093806A4B1B78002B00F09C8001F0D7
:10526400A1FCFEF72BFB00F01DFB00250095654B10
:10527400654A66496648FFF70BFF0195654B009345
:10528400654B664A66496748FFF702FF554B196844
:10529400654801F04FFB01462A466448FFF7F8FED3
:1052A4002B46634A63496448FFF7F2FE2B46634A80
:1052B40063496448FFF7ECFE3046FEF789FCFFF7CC
:1052C4004BF803952A4603A9384602F05FF9FCF728
:1052D40043FE049B002B6BD054F8283023B10022EA
:1052E4004946384602F052F9574B1B78002B6FD0D1
:1052F4000020FFF74FF800243F4B1C700120FFF7FC
:1053040015F901F091FCFCF7A9FC204607B0BDE8B3
:10531400F0834E4B01221A7008E74D4B01221A709C
:1053240004E7364B01221A704A4B00221A70FDE63C
:105334000123484A1370304A1370F7E62A4B0122BE
:105344001A70F3E6444B01221A70EFE62C4B01224B
:105354001A70EBE6414B01221A70E7E63A4B012240
:105364001A70E3E63E4B01221A70DFE63D4B012240
:105374001A70DBE601200AF0BDFA334B1B7823B91F
:1053840054F82830002B7FF465AF00200AF013FB9B
:10539400304B18705EE700210846FFF769FE0121D3
:1053A4000846FFF765FE01210220FFF761FE56E77C
:1053B400254B1B78002B8FD154F828306BB1A9F101
:1053C4000400FCF78DF801F02FFCFCF747FC92E792
:1053D400012104A8FFF702F88DE70020FEF7DAFFA9
:1053E40089E700BF300B0020240B0020FC130108C8
:1053F400380A002008000020280B0020210B002080
:10540400290B0020544C01080C1401087C490108A4
:105414006C0E0108CC0901081414010810140108C9
:105424001C14010814100108280F01081C1001089D
:10543400144E01082C140108F40F0108301401085B
:1054440054140108FC0F0108260B0020220B002035
:10545400230B00202C0B0020250B00202A0B0020FE
:105464002B0B0020270B002010B503787E2B0CBFDC
:105474000124002406D003461A785D2A04D04FF094
:10548400000E0EE0431CF7E701335D2914BF4FF013
:10549400000E4FF0010E04E08A4208BF4EF0010EE8
:1054A40001331A785D2A12D0B2B193F801C0BCF16D
:1054B4002D0FF1D193F802C0BCF15D0FECD08A42FC
:1054C40003D88C4528BF4EF0010E0233E8E7A64509
:1054D40005D01B1A581C10BD6FF00100FBE74FF0FC
:1054E400FF30F8E72DE9F0470746154611B1884625
:1054F400002449E002782B789A4202D00026F6B2C2
:1055040054E029460AF087FC08B10026F7E7012693
:10551400F5E72E78B6FA86F6760947E015F8016BBA
:1055240096BB43E0A14607EB040A3B5D2A2B05D159
:1055340018F80420012A01D10134F3E7002B38D0F4
:105544002E789EB36C1C2A4608EB09015046FFF7DF
:10555400C9FF80BB2546F3E72E783EB331463819A0
:10556400FFF782FF10F1020F05D0B0F1FF3F24D006
:105574000444013508E05B2EFBD0002616E001341C
:1055840015F8012B934211D13B5D002BC1D018F8C3
:105594000460002EF3D001343F2BBFD05B2BDBD053
:1055A4002A2BBFD0064801F071FE00263046BDE824
:1055B400F0870126FAE70126F8E70026F6E700BFA0
:1055C40058140108024B186800221A60704700BF83
:1055D400380B002010B50AF002F9044608B1204641
:1055E40010BD034801F032FE0120FCF737FBF6E75B
:1055F4007414010838B50546134B1C68002201E0F9
:105604002246E46814B16368AB42F9D36CB142B189
:10561400E368D360002323600C4B1A68E2601C60CB
:1056240038BDE268084B1A60F4E71020FFF7D2FF98
:10563400044605F6FF7020F47F6020F00F006060E0
:10564400FFF7C8FFA060E5E7340B0020380B00200B
:1056540010B5C41C24F00304094B1B6843B11A6839
:10566400A1185868814203D219609868104406E072
:105674002046FFF7BFFF024B1B681C60986810BDF3
:10568400380B002010B528B10AF0CBF8044630B12D
:10569400204610BD0846FFF79DFF0446F8E703487F
:1056A40001F0D4FD0120FCF7D9FAF1E77C140108DC
:1056B40018B108B50AF084F808BD704738B5134B23
:1056C4001A6812B313461946DB68002BFBD1104B42
:1056D4001868C8601A600D4B002119605368D468BB
:1056E4009CB10C498B4203D8626813442246F6E706
:1056F4000023D36007E0E568A068FFF7D9FF2046E0
:10570400FFF7D6FF2C46002CF5D138BD380B00200E
:10571400340B00201FA1070010B50446FFF7CEFF8D
:10572400014B1C6010BD00BF380B002038B5054686
:105734000C46022908D84FF4DB72054B53F82410A9
:105744002846FAF725FF38BD024801F09FFDF2E72D
:10575400B41401088414010838B505460321FAF786
:10576400C5FD0446B0F1FF3F04D014F4006F08D126
:10577400002038BD0C4801F069FD0020FCF7C0F89A
:10578400F3E724F4006204212846FAF7AFFDB0F1F0
:10579400FF3F01D00120ECE7034801F057FD002052
:1057A400FCF7AEF80120E4E7A014010838B504467C
:1057B4000AF0EEF8054620460AF052FCA8420CD046
:1057C400294620460AF05DFC002801DB012038BD93
:1057D400034801F03BFD0020F9E70020F7E700BF94
:1057E400A814010870B5294B1B6863B142F20F720B
:1057F400934241DC5C0042F21072B2EB430F03DAD5
:1058040042F2107400E0C824214B1868214B1E6832
:10581400361A751030B361000AF003F878B31C4BE4
:10582400186030441B4B18601B4B1868F0B104EB34
:105834004401890009F0F5FF20B3174B186005EB0C
:10584400450500EB8500154B1860104B1C6004F1F6
:105854000044013C0E4B1B6803EB4404104B1C60DA
:10586400002070BD600009F0BAFFD7E704EB4400E4
:10587400800009F0B4FFDFE74FF0FF30F1E74FF0AD
:10588400FF30EEE74FF0FF30EBE700BF700B002076
:10589400640B00206C0B0020800B0020840B002084
:1058A400680B002010B500231A460F491E2001F092
:1058B4002BFB01461B2001F027FB0C4C214601F079
:1058C400C5FB0B4B186000231A460A491E2001F041
:1058D4001BFB01461B2001F017FB214601F0B6FB20
:1058E400054B186010BD00BF44090108D9550008D4
:1058F400440B00206C0E01083C0B0020F0B583B073
:1059040085480AF01DF838B10378A3F13002092A5A
:1059140002D81346814A13600023814A1360814AE6
:105924001360814B4FF0FF321A60804B1B6853B1F8
:105934007E4B1B687E4A13607E4A11687E4A116062
:1059440000241C8066E1FFF74DFF0028F0D07B485F
:10595400FEF700FF012000F0D4BCFEF7BDFF724B40
:10596400186000280FDB6D4B1B68002B00F05D8175
:105974006D4B1B68B3F58C7F08DC714A52F8232009
:105984002AB9704A03E000221A60ECE76D4A0092DB
:1059940022466D496D480AF031FD46E15F4B1B68B4
:1059A40013BB634B1A686A4B1B689A4225D2694B36
:1059B40033F915405E4A1368991C11605C805E4A95
:1059C40013680C331360644A07CA83E80700564B14
:1059D4004FF0FF321A60534B1B68002B40F31A81BF
:1059E4001344504A136015E15A4B33F915302246DB
:1059F40055495A480AF002FDD3E7FFF7F3FE0028A1
:105A0400D5D0A4E7534A32F91350444B1B68002BFA
:105A140040F04A81524B33F91540474B1F68C4F19B
:105A2400010303EB430307EB83034E4E93E80700A4
:105A340086E807006B1E522B00F26381DFE813F047
:105A44003F0145014C015201610158016101970177
:105A54006101A3016101B101BC01C101C601FE01E3
:105A640002020B0214022E02480250025802600283
:105A74006902610172027B0261017F028802910264
:105A84009C02A702B002BA02C302CC02D502E3020E
:105A9400F002FD0204030B031403610161016101BF
:105AA4001B0328036101310361013A0361014303CC
:105AB4004C035A0364036B0372037B0384038D0357
:105AC40096039B03A603AF03B303B703BB03BF0350
