:020000040800F2
:1000000000000120A1070008790600087B0600080F
:100010007D0600087F060008810600080000000039
:10002000000000000000000000000000DD040008E7
:100030008306000800000000E501000855050008DF
:100040005505000855050008550500085505000828
:100050005505000855050008550500085505000818
:100060005505000855050008550500085505000808
:1000700055050008550500085505000855050008F8
:1000800055050008550500085505000855050008E8
:1000900055050008550500085505000855050008D8
:1000A00055050008550500085505000855050008C8
:1000B00055050008550500085505000855050008B8
:1000C00055050008550500085505000855050008A8
:1000D0005505000855050008550500085505000898
:1000E0005505000855050008550500085505000888
:1000F0005505000855050008550500085505000878
:100100005505000855050008550500085505000867
:100110005505000855050008550500085505000857
:100120005505000855050008550500085505000847
:1001300000000000000000000000000000000000BF
:1001400000000000000000000000000000000000AF
:10015000000000000000000000000000000000009F
:10016000000000000000000000000000000000008F
:10017000000000000000000000000000000000007F
:10018000000000000000000000000000000000006F
:10019000000000000000000000000000000000005F
:1001A000000000000000000000000000000000004F
:1001B000000000000000000000000000000000003F
:1001C000000000000000000000000000000000002F
:1001D000000000000000000000000000000000001F
:0401E0005FF8E0F1F3
:1001E40072B6EFF30980EFF3088100281EF0040FC4
:1001F4000CBFEFF30883EFF309830CBF0022012245
:10020400002868B1A3F1200383E8F00F1EF0040F67
:100214000CBF194618460CBF83F3088883F309887A
:10022400DFF878309847D0E90012836813F0010FA3
:100234000CBF1046084690E8F00F203082F308887F
:1002440081F30988022B1FD013F4803F0BD1012BBB
:1002540000D019E080F309884FF0010181F314887C
:100264006FF0020E18E013F0020F04D14FF00301F7
:1002740081F3148803E04FF0000181F3148880F3C4
:1002840008886FF00E0E07E080F308886FF0060E02
:100294004FF0000080F3148862B67047B933000849
:1002A40008B503F06BF802F0EFFF08BD10B50022AB
:1002B40011460A4800F038F94FF0E023084A5A6121
:1002C400084AF02182F8231000249C6107221A6155
:1002D4004FF4407000F056F9204610BDA502000806
:1002E4003F19010000ED00E0EFF3108072B6704793
:1002F40080F30988704780F31088704702484FF0F4
:10030400805101607047000004ED00E010B44FF02C
:100314008074046040F8041C1A4940F8081C4FF02B
:10032400123140F80C1C4FF0033140F8101C4FF010
:10033400023140F8141C40F8183C40F81C2C4FF0D3
:10034400113340F8203C4FF0103340F8243C0E4B5E
:100354001B6840F8283C4FF0083340F82C3C4FF021
:10036400073340F8303C4FF0063340F8343C4FF04C
:10037400053340F8383C4FF0043340F83C3C3C38FB
:1003840010BC704719310008400400204FF00003EE
:1003940050E8002F02F10102002A00D001E04FF0E2
:1003A400010340E800210129F2D0184670474FF0BC
:1003B400000350E8002F02F1FF32002A00D001E0D0
:1003C4004FF0010340E800210129F2D0704750E8C2
:1003D400002F0A4640E80023012BF8D0704700683C
:1003E400704710B450E8002F8A4202D04FF0000446
:1003F40001E04FF0010440E80023012BF2D0204635
:1004040010BC704710B450E8002F002A02D04FF0FF
:10041400000402E04FF001040A4640E80023012BE7
:10042400F1D0204610BC704710B450E8002F002AC9
:1004340002D04FF0000401E04FF001040A4640E806
:100444000023012BF1D0204610BC704710B450E8B3
:10045400002F002A02D04FF0000403E04FF0010403
:1004640002F1010240E80023012BF0D0204610BC29
:10047400704710B450E8002F002A04D04FF0000455
:1004840002F1FF3201E04FF0010440E80023012BA8
:10049400F0D0204610BC70474FF0570080DF0000BA
:1004A40072B60A484AF2A001018009484FF0F001EF
:1004B4000170002080F3098806484FF080510160E4
:1004C4004FF0010080F3148862B6704722ED00E01B
:1004D4001FED00E004ED00E01EF0040F0CBFEFF38D
:1004E4000880EFF30980A0F1200080E8F00F03F00A
:1004F400E2B9EFF30580704710B50446FFF7F9FF42
:10050400A0F10F03074A02EBC302127912F0010FA4
:1005140004D1044A52F8333003B19847204603F01B
:100524005FF910BD4404002070B506460D4614461C
:10053400FFF7DAFE054941F8356001EBC5010A7998
:1005440014430C71FFF7D7FE70BD00BF44040020B4
:100554001EF0040F0CBFEFF30880EFF30980FFF7E0
:10056400CBBF000030B5044C04442568084611464E
:100574001A46A84730BD0000E001002000B580DF26
:1005840000BD000040F0BF6040F40030014BD86073
:10059400704700BF00ED00E0014BD860704700BF1A
:1005A400002002400B4BDB6813F0010F0BD1094B09
:1005B400DB6813F0040F08D1064BDB6813F0100F4F
:1005C40005D00320704701207047022070470420A3
:1005D400704700BF0020024010B50446FFF7E2FF59
:1005E40002E0FFF7DFFF013C012801D1002CF8D124
:1005F40004B110BD0520FCE738B504464FF43020A3
:10060400FFF7EAFF042800D038BD0A4D2B6943F0F8
:1006140002032B616C612B6943F040032B614FF49F
:100624003020FFF7D9FF2B6923F00203DB04DB0C36
:100634002B61E9E70020024070B504460D464FF4F3
:100644000050FFF7C9FF042800D070BD084E33697D
:1006540043F00103336125804FF40050FFF7BCFFE2
:10066400336923F00103DB04DB0C3361EDE700BFE6
:10067400002002407047FEE7FEE7FEE7FEE7704712
:1006840082B00023019300932C4A136843F480330F
:1006940013602A4B1B6803F400330093019B01335E
:1006A4000193009B1BB9019BB3F5A06FF1D1234BC0
:1006B4001B6813F4003F06D001230093009B012B19
:1006C40004D002B0704700230093F7E71C4B1A686C
:1006D40042F010021A601A6822F003021A601A68C3
:1006E40042F002021A60A3F580535A685A605A68AD
:1006F4005A605A6842F480625A605A6822F47C1242
:100704005A605A6842F4E8125A601A6842F08072D9
:100714001A600A4B1B6813F0007FFAD0074B5A6823
:1007240022F003025A605A6842F002025A60034BF4
:100734005B6803F00C03082BF9D1C2E700100240F8
:100744000020024008B5FFF79BFF08BD08B5104B19
:100754001A6842F001021A6059680E4A0A405A6047
:100764001A6822F0847222F480321A601A6822F421
:1007740080221A605A6822F4FE025A604FF41F0263
:100784009A60FFF7DFFF044B4FF000629A6008BDE8
:10079400001002400000FFF800ED00E00B480C4997
:1007A4000C4A002302E0D458C4500433C4188C42C9
:1007B400F9D3094A094C002301E013600432A24230
:1007C400FBD3FFF7C3FF03F09DF97047000000203F
:1007D40030040020243E00084004002080ED002066
:1007E40038B50446094D0A4B6B6003F188336B60DE
:1007F4003420FFF7D1FE04F580304030C002FFF70B
:10080400FBFE2B6943F080032B6138BD00200240BE
:100814002301674500B583B0002000F0F1F90028FA
:1008240011DB4FF40063019303230093C0230A4AAE
:100834000A49002000F038FA002809DB084B186840
:1008440003B05DF804FB00F0EDF9054B1860E8E730
:100854004FF0FF30F4E700BF00000020F83D00082F
:100864001C06002008B50349034B186800F04CFA35
:1008740008BD00BFF83D00081C060020F8B5054679
:100884000F461646002407E037F814102846FFF7F1
:10089400D3FE02350134A4B2B442F5D3F8BD00004E
:1008A40010B50A4C0A4B636003F18833636000F5AA
:1008B40080334033C202520802F47C42D802FFF76C
:1008C400DDFF236943F08003236110BD0020024053
:1008D40023016745008880B27047F8B505460F4686
:1008E4001646002407E02846FFF7F4FF27F8140013
:1008F40002350134A4B2B442F5D3F8BD08B500F50D
:10090400803040304FF48062C002FFF7E6FF0020E1
:1009140008BD30B586464FF0FF354FF0000C02E0BD
:1009240065460CF1010C94450CD20CEB8C039C0035
:100934000EEB8300037CDB09F2D05EF804308B42BB
:10094400EFD130BDB5F1FF3F08D005EB85050EEBC7
:100954008500802303744EF82510F2E70020F0E7A9
:10096400F8B50D46144600F087F9002836D006463F
:1009740003F078F8002827DB03F074F8B0FBF4F3F5
:1009840004FB130404EB8404A70005EB8404E0686F
:1009940002F050FB0028FADB237C13F0020F0AD08C
:1009A400B368E8599847002812DB7368A168E859CE
:1009B400984700280FDB00232374E06802F060FBF3
:1009C4000028FAD12046F8BD03F04CF84042D5E7A0
:1009D40000232374FEE700232374FEE74FF0FF3463
:1009E400F0E72DE9F04180460F46164601EB810001
:1009F400800003F0DFF9C8F80000F0B10025BD4223
:100A040012D2D8F8004005EB850304EB83041422CA
:100A14000021204603F05EF8304603F0CBF9A060D5
:100A240010B166600135EAE715B12846BDE8F081EA
:100A3400D8F8000003F0CDF9F7E74FF0FF30F5E701
:100A44002DE9F04F83B007460E4690461D46DDF86B
:100A5400309000F011F900284FD0824601A93846A1
:100A640000F0F0F8834600284AD0019A3146FFF797
:100A740050FF0446E8B1E06802F0DCFA0028FADB33
:100A840015B963684B451ED0237C13F0040F0AD1BB
:100A9400DAF80030A16830469847002818DB237C38
:100AA40043F00403237405EB090263689A4210D9E6
:100AB400FEE7019A59463846FFF752FF044606609E
:100AC40080230374D7E7237C43F004032374EAE709
:100AD400FEE7A0684A464146284402F0DFFF237C33
:100AE40043F002032374E06802F0CAFA03460028C4
:100AF400F9D1184603B0BDE8F08F4FF0FF33F8E7A3
:100B04004FF0FF33F5E72DE9F04782B006460D4676
:100B140090461F4600F0B0F8002841D0814601A954
:100B2400304600F08FF8824600283CD0019A2946CE
:100B3400FFF7EFFE0446C8B1E06802F07BFA002834
:100B4400FADB237C13F0040F0AD1D9F80030A16832
:100B540028469847002812DB237C43F004032374BF
:100B64000A9BFA1863689A420AD3FEE7019A51462F
:100B74003046FFF7F5FE044680230374DCE7FEE706
:100B8400A1680A9A3944404602F088FFE06802F0FE
:100B940077FA03460028F9D1184602B0BDE8F08779
:100BA4004FF0FF33F8E74FF0FF33F5E708B503697B
:100BB400032B0AD803EB4303064A02EB83035B6867
:100BC4000B61DB6923B1984708BD6FF01200FBE7A6
:100BD4000020F9E7A00600200269032A09D808B515
:100BE400064B03EB42135B680B61DB6923B1984747
:100BF40008BD6FF0120070470020F9E720060020BE
:100C0400032809D8064B03EB401043690BB90020B5
:100C140070474FF0FF3070474FF0FF30704700BF10
:100C2400200600200020032806D8054B03EB4013C0
:100C34005B691BB10130F6E74FF0FF30704700BF2E
:100C440020060020032806D8044B03EB40108369D8
:100C54000B60006970470020704700BF2006002029
:100C6400032804D8034B03EB4010C06970470020ED
:100C7400704700BF20060020032804D8034B03EB71
:100C84004010406970470020704700BF20060020D4
:100C9400032804D8034B03EB4010C06870474FF09F
:100CA400FF307047200600202DE9F041DDF81C805C
:100CB40003281ED804460E4615461F46114800EB6D
:100CC40044104369C3B963011033424606990D4881
:100CD4001844FFF786FE90B10A4B610103EB4414FC
:100CE400E760A0615E506561C4F81C800020BDE827
:100CF400F0816FF01500FAE76FF00F00F7E74FF09F
:100D0400FF30F4E72006002003280ED810B504466F
:100D14004301094AD05802F0B5FE48B9064A6101B8
:100D240002EB44145050606110BD6FF01500704721
:100D34006FF01500F8E700BF2006002038B5074D16
:100D4400074BED1AED08002404E0054B53F834304A
:100D540098470134AC42F8D338BD00BFF83D0008D1
:100D6400F03D0008072831D88C461E4B1A6A00EB68
:100D7400400302EBC30393F8643253B307292BD81F
:100D8400BCF1070F09D80CEB4C0302EBC30393F837
:100D9400643213B90CF1010CF2E7BCF1070F1ED851
:100DA40010B50CEB4C0402EBC40400EB400002EB66
:100DB400C00204F5147402F5147EBEE80F000FC4DB
:100DC4009EE8030084E80300604610BD6FF008004D
:100DD40070476FF0080070476FF0150070476FF0B0
:100DE40017007047800F002007281AD838B5054629
:100DF4000C46124B1B6A00EB400203EBC20393F850
:100E040064328BB188420AD0082910D812D008461F
:100E140000F0CEFC21462846FFF7A4FF38BD084663
:100E2400FCE76FF0080070476FF00800F6E76FF01A
:100E34000800F3E76FF00800F0E700BF800F002020
:100E440008B50021FFF78EFF08BD000007280BD866
:100E5400084B1B6A00EB400003EBC00090F86432BF
:100E64002BB16FF0250070476FF0080070476FF0EA
:100E740008007047800F002038B50546002400E0C4
:100E84000134094B1B68A3420BDD04EB84032946A0
:100E9400064A52F8230002F0F5FD0028F0D1034879
:100EA40000E0002038BD00BFD4000020D80000209E
:100EB40000B583B0104B1B6A00930023019369466D
:100EC4000E4802F0F8FA01E002F0DEF90A4B1B6A60
:100ED400022283F834200A48FFF781FA0028F3D16C
:100EE4006946064802F0F5FA034B1B6A012283F8AF
:100EF400342003B05DF804FB800F0020D4060020EA
:100F0400D806002030B583B00446124B1B6A009308
:100F14000023019300F114056946284602F0CBFA38
:100F240001E002F0B1F90B4B1B6A022283F8342072
:100F340004F11C00FFF753FA0028F2D16946284651
:100F440002F0C7FA034B1B6A012283F8342003B072
:100F540030BD00BF800F002008B5024802F09CFAA3
:100F640008BD00BFD406002010B50E48FFF737FABD
:100F740068B100241F2C0DD8342304FB03F3183369
:100F840009481844FFF762FA38B90134F2E7FFF769
:100F94008FFFEEE7FFF78CFFEBE70248FFF707FA56
:100FA400014810BDEC000020DC06002010B500F163
:100FB40018042046FFF75DFA2046FFF710FA18B12F
:100FC4000348FFF7E3F910BDFFF7C6FFF8E700BFDA
:100FD400EC00002070B505460E46FFF7C5FF044639
:100FE40001211830FFF7F3F9002104F11C00FFF789
:100FF400EEF9002363616562A660E360EB691B6838
:101004002046984738B1EB699B68204698470028EA
:1010140007DB204670BD06462046FFF7C7FF34466F
:10102400F7E7EB695B68204698472046FFF7BEFF69
:10103400EFE710B504461C30FFF7D1F900B910BD35
:101044002046FFF75FFFFAE738B50446FFF7F1FFE4
:1010540004F118052846FFF7C2F910B32846FFF734
:10106400BEF9012818D84CB1636A3BB1DB692BB1D6
:101074005B691BB1E2680AB9204698473CB1636AD0
:101084002BB1DB691BB11B690BB120469847204685
:10109400FFF78CFF002038BD2046FFF787FF0020B4
:1010A400F9E74FF0FF30F6E7072824DC10B5844653
:1010B4008E461346174A146A00EB400204EBC20240
:1010C40092F86422D2B100EB4000C00000F5147025
:1010D40021180CEB4C0204EBC202D2F85C0280B182
:1010E400D2F8602282B154698CB17246A0470028BC
:1010F40000DB002010BD6FF0080070476FF008009F
:10110400F8E76FF01500F5E76FF01500F2E76FF000
:101114001500EFE7800F002020B370B50D4616468A
:10112400044602F0C5FC0246431E002B0ADB1846A7
:1011340014F803C0BCF15C0F05D0BCF12F0F02D032
:10114400013BF2E7104665B1002302E0E25CEA5499
:101154000133984203D906F1FF3C9C45F6D800229E
:10116400EA5470BD002070472DE9F04383B0054672
:1011740038B10023019303783BB10024A0462746ED
:1011840045E0334B16221A605EE0324B1B6AD3F8FB
:101194001403019058E02F4B1B6AD3F810030190FD
:1011A4001830FFF7F3F82EE02A4B1B6AD3F8140328
:1011B40001901830FFF7EAF83BE0A3EB0802E95C82
:1011C400B15401339C42F8D299F800205C2A06D02D
:1011D4002F2A04D0A3EB08030022F25404E0A3EB6B
:1011E4000803013B0022F25401981830FFF7CEF8AF
:1011F4000198836AD3F8088001AB34223146C04792
:10120400304602F0E6FD04F101080137013405EB34
:1012140004092B5DA3B15C2B05D02F2B03D02B1914
:101224005B78002BF2D10FB9A045B4D0019B002B01
:10123400BAD04FF4007002F0BDFD06464346C1E744
:101244000198FFF701FF019803B0BDE8F08300BFE8
:10125400B40F0020800F00202DE9F043A5B007460D
:101264000D461646FFF780FF0446239040B140F236
:101274000123AB432BD0239C204625B0BDE8F0834B
:1012840005F04105412DF7D1802203A93846FFF727
:1012940043FF054603A8FFF767FF804698B118305F
:1012A400FFF774F8239B9B6AD3F80490691C23AB63
:1012B40000933423324639444046C8470028DADADA
:1012C4000C4B1860D8E70B4B02221A60D4E7836AF0
:1012D4005B6B3BB11830FFF759F82398836A5B6B5B
:1012E4009847C8E7FFF7B0FE024B6FF025021A607B
:1012F4000024C1E7B40F00202DE9F041A0B08046DE
:101304000F4680226946FFF707FF06466846FFF747
:101314002BFF50B304464388012B17D1856AF5B1DE
:10132400AB69E3B11830FFF731F8A36A9D69404611
:1013340002F0BEFB3B46821B69462046A847051EB9
:1013440009DB0025284620B0BDE8F081FFF77CFECC
:101354006FF00105F6E72046FFF776FEF2E7204638
:10136400FFF772FE6FF02505ECE76FF00105E9E782
:10137400F0B5A1B0064680226946FFF7CDFE0546CA
:101384006846FFF7F1FE40B304464388012B15D1AC
:10139400836AE3B1DB69D3B11830FEF7F7FFA36AC0
:1013A400DF69304602F084FB421B69462046B84799
:1013B400051E08DB0025284621B0F0BDFFF744FEDA
:1013C4006FF00105F7E72046FFF73EFEF3E72046FE
:1013D400FFF73AFE6FF02505EDE76FF00105EAE748
:1013E4006FF025007047F0B5A1B00646802269462B
:1013F400FFF792FE05466846FFF7B6FE40B3044683
:101404004388012B15D1836AE3B11B69D3B118302A
:10141400FEF7BCFFA36A1F69304602F049FB421B7A
:1014240069462046B847051E08DB0025284621B03A
:10143400F0BDFFF709FE6FF00105F7E72046FFF75F
:1014440003FEF3E72046FFF7FFFD6FF02505EDE708
:101454006FF00105EAE76FF0250070472DE9F047CA
:10146400A2B080460F469146802202A9FFF754FE9F
:10147400054602A8FFF778FE20B304464388012BF3
:101484001BD1866A0EB3336A13B31830FEF77EFF9E
:10149400A36A1E6A05F1010A404602F009FBCDF871
:1014A40000903B46421B02A951442046B047002805
:1014B40000DB002022B0BDE8F087FFF7C5FD6FF028
:1014C4000100F7E76FF00100F4E76FF02500F1E7A2
:1014D4006FF02500EEE76FF02500704738B50C4635
:1014E400FFF742FE88B10546406AC3691B6A33B1FF
:1014F400214698472846FFF7A7FD002038BD284617
:10150400FFF7A2FD6FF02500F8E74FF0FF30F5E795
:10151400072817D808B5114B1B6A00EB400203EBF0
:10152400C20292F8642282B100EB400003EBC000D7
:10153400D0F85C0260B1436ADB691B6A5BB198470F
:10154400002008BD6FF0080070476FF00800F8E74E
:101554006FF00100F5E76FF02500F2E7800F00203F
:101564006FF0250070476FF02500704738B5FFF71E
:10157400FBFD98B104464388012B0AD1094D2B6A1F
:10158400D3F81403FFF760FD2B6AC3F8144300205B
:1015940038BDFFF759FD6FF00100F9E76FF0010066
:1015A400F6E700BF800F002007281DD8144B1A6AE5
:1015B40000EB400302EBC30393F86432BBB110B5F4
:1015C40000EB400002EBC000D0F85C4294B16388A9
:1015D400012B12D1D2F81403FFF736FD084B1B6A16
:1015E400C3F81443002010BD6FF0080070476FF07B
:1015F400080070476FF00100F5E76FF00100F2E7B3
:10160400800F002038B5FFF7AFFD98B1044643883A
:10161400012B0AD1094D2B6AD3F81003FFF714FDEF
:101624002B6AC3F81043002038BDFFF70DFD6FF09F
:101634000100F9E76FF00100F6E700BF800F00201A
:10164400072819D8114B1B6A00EB400203EBC202B6
:1016540092F864229AB100EB400003EBC000D0F88A
:101664005C327BB15A8812041A601143196001225A
:1016740083F82020002070476FF0080070476FF057
:10168400080070476FF00100704700BF800F002012
:1016940010B50C46FFF768FD48B1418809040160A4
:1016A40021430160012280F82020002010BD6FF04A
:1016B4000100FBE76FF025007047000070B50E468F
:1016C4000024072C11D8354B1D6A04EB440305EBA9
:1016D400C30393F864320BB10134F2E704EB44031F
:1016E40005EBC305012385F86432072C29D831465C
:1016F400FFF7B2FD054650B3284B1B6A04EB4402C6
:1017040003EBC202A2F85862D2F860225AB304EB87
:10171400440203EBC203D3F8601229B1CB691BB1B5
:1017240028469847002829DB1C4B1B6A04EB44021B
:1017340003EBC203C3F85C522A6883F850222046A4
:1017440070BD174B18221A604FF0FF30F8E7134BA7
:101754001B6A04EB440403EBC403002283F86422F1
:101764004FF0FF30ECE7826A11680029CFD004EB18
:10177400440203EBC202C2F86012C8E7074B1B6ABB
:1017840004EB440403EBC403002283F864222846D8
:10179400FFF75AFC4FF0FF30D2E700BF800F002064
:1017A400B40F002008B50A464121FFF787FF08BDA2
:1017B40038B5154B1A6A00EB400302EBC30393F8E8
:1017C4006432FBB1044600EB400302EBC303D3F8DD
:1017D400603273B11D6A65B100EB4001C90001F5C7
:1017E400147100EB400302EBC3031144D3F85C0211
:1017F400A847054B186A04EB440400EBC404002317
:1018040084F8643238BD00BF800F0020072824D834
:1018140010B584468E461346174A146A00EB4002FC
:1018240004EBC20292F86422D2B100EB4000C00083
:1018340000F5147021180CEB4C0204EBC202D2F830
:101844005C0280B1D2F8602282B1D4688CB1724655
:10185400A047002800DB002010BD6FF0080070478F
:101864004FF0FF30F8E76FF00800F5E76FF0010084
:10187400F2E76FF00100EFE7800F0020072849D856
:1018840070B504460D4616462B4B1B6A00EB40020E
:1018940003EBC20292F86422002A3ED000EB40021D
:1018A40003EBC202D2F85422002A39D000EB4002E2
:1018B40003EBC202D2F85C02A8B304EB440203EBCC
:1018C400C202D2F8602242B1126A32B104EB44017E
:1018D400C90001F5147119449047012E0CD9022E48
:1018E40016D1154B1B6A04EB440203EBC203D3F875
:1018F4005C32DBB15B681D44002D1ADB0E4B186AA9
:1019040004EB440400EBC404C4F85452284670BDEC
:101914000025F3E76FF0080070474FF0FF30F6E75B
:101924004FF0FF30F3E74FF0FF30F0E74FF0FF30B8
:10193400EDE74FF0FF30EAE7800F0020072826DCB0
:1019440010B584468E461346184A146A00EB4002CA
:1019540004EBC20292F86422E2B100EB4000C00042
:1019640000F5147021180CEB4C0204EBC202D2F8FF
:101974005C0290B1D2F8602292B154689CB1724674
:10198400A047002800DA10BD6FF02500FBE76FF0D8
:10199400080070474FF0FF30F5E76FF00800F2E7FA
:1019A4006FF01500EFE76FF01500ECE7800F0020F3
:1019B400072826DC10B584468E461346184A146A56
:1019C40000EB400204EBC20292F86422E2B100EBA5
:1019D4004000C00000F5147021180CEB4C0204EB1D
:1019E400C202D2F85C0290B1D2F8602292B194683B
:1019F4009CB17246A047002800DA10BD6FF02500A4
:101A0400FBE76FF0080070474FF0FF30F5E76FF029
:101A14000800F2E76FF01500EFE76FF01500ECE750
:101A2400800F00202DE9F04385B004460D46904612
:101A3400D0F820904368DE00B1FBF6F6D9F8201008
:101A4400EF08B7FBF3F20120009003FB12730DF1D2
:101A54000F023144A068FFF756F800282BDBB8F1D9
:101A6400000F1ED105F007050121A9409DF80F5074
:101A740065EA01058DF80F50D9F820106368B7FBAB
:101A8400F3F20120009003FB12730DF10F023144B5
:101A9400A068FEF7D5FF002810DB002005B0BDE8E4
:101AA400F08305F007050121A9409DF80F500D4072
:101AB4008DF80F50E0E74FF0FF30EFE74FF0FF30C5
:101AC400ECE72DE9F04385B006468946076A4FF0F6
:101AD400000844467B6A434564D9002549E03B68D5
:101AE400A34259D97368DD00B4FBF5F5396A4FEAAE
:101AF400D408B8FBF3F20120009003FB12830DF12C
:101B04000F022944B068FEF7FEFF00284CDB04F006
:101B14000703012000FA03F29DF80F3023EA0203C1
:101B24008DF80F30396A7368B8FBF3F2009003FB49
:101B340012830DF10F022944B068FEF781FF0028DB
:101B440035DB7B680BB1013B7B60C9F800400123A6
:101B54003376002005B0BDE8F08300231F2B07D89F
:101B640001229A401142BAD101340133DBB2F5E7C4
:101B740001357368AB4212D9396A042300932B46AA
:101B840002AA4144B068FEF7BEFF002804DB0299B4
:101B94000029E2D12034EBE74FF0FF30DAE708F117
:101BA400010897E700249DE74FF0FF30D2E74FF09C
:101BB400FF30CFE72DE9F04184B005460C46D0F85C
:101BC40020804368DE00B1FBF6F6D8F82010E70861
:101BD400B7FBF3F20120009003FB12730DF10F0227
:101BE4003144A868FEF78FFF002824DB04F00704C3
:101BF400012202FA04F49DF80F301C438DF80F40C3
:101C0400D8F820106B68B7FBF3F0009203FB107355
:101C14000DF10F023144A868FEF712FF00280DDB16
:101C2400D8F804300133C8F8043001232B7600209F
:101C340004B0BDE8F0814FF0FF30F9E74FF0FF301A
:101C4400F6E72DE9F04385B005468846066A4FF06D
:101C54000009F3694B4565D90024274649E0DC199E
:101C6400F368A34258D96B68DF00B4FBF7F7B16996
:101C74004FEAD409B9FBF3F20120009003FB12935D
:101C84000DF10F023944A868FEF73DFF00284BDB35
:101C940004F00703012000FA03F29DF80F3023EA51
:101CA40002038DF80F30B1696B68B9FBF3F2009051
:101CB40003FB12930DF10F023944A868FEF7C0FE2E
:101CC400002834DB33690BB1013B3361C8F80040B1
:101CD40001232B76002005B0BDE8F08300231F2BE1
:101CE40006D801229A401142B9D10133DBB2F6E79A
:101CF40004346B68A34212D9B169042300932346C8
:101D040002AA4944A868FEF7FEFE002804DB0299F3
:101D14000029E3D12037EBE74FF0FF30DBE709F18F
:101D2400010996E700249EE74FF0FF30D3E74FF018
:101D3400FF30D0E72DE9F04184B005460C46D0F8D9
:101D440020804368DE00B1FBF6F6D8F81810E708E7
:101D5400B7FBF3F20120009003FB12730DF10F02A5
:101D64003144A868FEF7CFFE002824DB04F0070402
:101D7400012202FA04F49DF80F301C438DF80F4041
:101D8400D8F818106B68B7FBF3F0009203FB1073DC
:101D94000DF10F023144A868FEF752FE00280DDB56
:101DA400D8F810300133C8F8103001232B76002006
:101DB40004B0BDE8F0814FF0FF30F9E74FF0FF3099
:101DC400F6E730B585B0036A9D694468B1FBF4FC5D
:101DD40004FB1C1401230093E3080DF10F0205EB2F
:101DE4000C018068FEF78FFE00280ADB04F007016F
:101DF4009DF80F4044FA01F1012905D0012005B0F6
:101E040030BD4FF0FF30FAE70020F8E743688B421B
:101E140033D370B584B01446456A066B01316A68E1
:101E2400B1FBF2F002FB101303B1012303440C2BAA
:101E340019D9920802EB420149000C3199421FD38F
:101E44000D3BB3FBF2F102FB11330C3156F82110B8
:101E5400A868042200929B0003AAFEF754FE48B926
:101E6400039B236004E0013B56F8233023600020E9
:101E740004B070BD4FF0FF30FAE74FF0FF30704709
:101E84004FF0FF30F4E76FF01400704770B5A0B066
:101E940005460C46164680236A462146284600F02D
:101EA400E0FC002813DD1F9B002BF4D0812269463F
:101EB40006F10A0001F016FE684601F0F9FD3081D2
:101EC4001E9B33606368803B7360606800E00020A1
:101ED40020B070BD10B50446542001F06BFF2063A0
:101EE40030B1044BA3625422002101F0F3FD2046DB
:101EF40010BD00BFF0000020C36853B910B50446FC
:101F04001830FEF76CFA38B9206B01F062FF00203C
:101F140010BD4FF0FF3070474FF0FF30F8E700007E
:101F2400F0B5A3B00446466A376A85682946304648
:101F3400FFF747FF012841D1002102917C2203A829
:101F440001F0C8FDB38905FB03F17268B1FBF2F13E
:101F5400BF69B2FBF3F2B5FBF2F002FB1055B068B7
:101F6400009305FB03F302AA3944FEF7CCFD0028D5
:101F740000DAFEE7542202A9206B01F08FFD179BC3
:101F84002360189A6260199AA2601A9AE2601B0C84
:101F9400032B05D8DFE803F002090C0F094BA362F9
:101FA400002084F8200023B0F0BD074BA362F7E7BC
:101FB400064BA362F4E7064BA362F1E74FF0FF3050
:101FC400F1E700BF54010020F00000204800002089
:101FD4000C000020F0B5A3B00446456A2F6A866859
:101FE4006B68AA89B3FBF2F3B6FBF3F60021029106
:101FF4007C2203A801F06EFD5422216B02A801F09B
:102004004DFD2368179363681893A2681992E368D7
:102014001A9323691B93B969AB896868B0FBF3F021
:10202400B2FBF0FC00FB1C22A868009302FB03F344
:1020340002AA3144FEF704FD002802DB002384F8E1
:10204400203023B0F0BD30B583B00446242500957C
:102054000023024601218068FEF7F2FC342300933A
:102064002B46226A0121A068FEF7EAFC00232376AE
:1020740003B030BD30B583B0054601A9406AFFF70F
:10208400E0FD002822DBFEF76FFF0446019B83601E
:102094000023C36043606A6A426280F82030AB6AFE
:1020A400836201211830FEF792F9012104F11C002A
:1020B400FEF78DF92046FFF70DFF10B1204603B05F
:1020C40030BD2146686AFFF735FEF7E74FF0FF3071
:1020D400F5E70000F0B583B00546582001F06AFE2C
:1020E40004460028F9D0242300930023024601214A
:1020F400A868FEF708FD00282CDB22681D4B9A42D5
:102104002DD104F124073423009324233A460121DA
:10211400A868FEF7F8FC002826DB23682B606368B8
:102124006B60A368AB60A389AB81134BEB610026A2
:102134002E612E7634223946286A01F0AFFC3146EE
:102144002846FEF747FF6861204601F042FE284614
:1021540003B0F0BD204601F03CFE0020F8E7204625
:1021640001F037FE0020F3E7204601F032FE0020A4
:10217400EEE700BF44332211B80100202DE9F04FEF
:10218400A7B0064603934088012840F0968088460D
:10219400776AD6F830B073684FEAD3197968B3FB1D
:1021A400F1F201FB123303B10346D31802934FF04B
:1021B400000A5546029B9A457CD2BAF10B0F46D9C8
:1021C400736A5B689B0803EB430252000C3252456E
:1021D40076D9AAF10C02B2FBF3F103FB11230C3103
:1021E4005BF82110B868042200929B0005AAFEF750
:1021F4008AFC002858DB00242EE001350134A4B207
:102204002346726A5268B4EBD21F50D24D4518D29D
:102214005BF82A10B86880220092DB0106AAFEF758
:1022240072FC002810DB414606A801F02BFC0028B4
:10223400E3D1259B012BE0D1249B039A136028460C
:102244002CE06FF0010029E06FF0010026E000248B
:10225400D6E701350134A4B22346726A5268B4EB5E
:10226400D21F24D24D4517D2B86880220092DB01D8
:1022740006AA0599FEF747FC002812DB414606A88A
:1022840001F000FC0028E4D1259B012BE1D1249B23
:10229400039A1360284601E06FF0010027B0BDE8FF
:1022A400F08F6FF00100F9E76FF00100F6E70AF133
:1022B400010A7FE76FF00100F0E76FF01300EDE72C
:1022C4006FF01A00EAE770B582B005461E4601AB0E
:1022D400FFF754FF041E0DDB0199686AFEF77AFECE
:1022E400044658B12846FEF7AFFE34600024204669
:1022F40002B070BD2846FEF7A7FEF8E72846FEF7B1
:10230400A3FE6FF00104F2E74388012B66D12DE9A7
:10231400F041A4B004460E461546476A4168CB090D
:102324007868C009B3FBF0F800FB1838B8F1000F67
:1023340023D10023039303A93846FFF7C2FB0028E7
:1023440046DB314604A801F0BBFBAB6822930123B2
:102354002393636880336360B8688023009304AB7D
:1023640000220399FEF76CFB00282DDA0399384606
:10237400FFF720FC4FF0FF302AE00023039303AA69
:102384002046FFF743FD002825DBB86800220092B1
:1023940013460399FEF7B7FB00281CDB314604A85B
:1023A40001F08EFBAB68229301232393B86880234A
:1023B40000934FEAC81304AA0399FEF741FB0028CF
:1023C40009DB636880336360012384F820300020D4
:1023D40024B0BDE8F0814FF0FF30F9E76FF013004F
:1023E4007047F8B505460E461F46FEF7BDFDA8B179
:1023F40004460760012380F820300246314628460F
:10240400FFF782FF00280EDB2846FEF71DFE20465C
:10241400FEF71AFE069B1C600020F8BD2846FEF756
:1024240013FE0C20F9E72846FEF70EFE2046FEF7C1
:102434000BFE6320F1E770472DE9F043A5B0044695
:1024440000285CD00E46476A002F58D022ABFFF715
:1024540095FE002859DA2046FFF70CFE05460028B1
:1024640059D0002383624FF48073436023A9384614
:10247400FFF727FB002854DB314902A801F020FBB9
:102484004FF00108CDF88480AB682093B8684FF012
:102494008009CDF80090002302AA2399FEF7D0FA10
:1024A400284902A801F00CFBCDF88480A36820938E
:1024B400B868CDF800904B4602AA2399FEF7C0FAFB
:1024C4002B6B239A1A6085F820800223EB602A463E
:1024D40031462046FFF718FF061E28DBE368013368
:1024E400E360012384F820302046FEF7ADFD284642
:1024F400FEF7AAFD0026304625B0BDE8F08320464D
:10250400FEF7A2FD6FF01506F5E72046FEF79CFDE9
:102514006FF01006EFE72046FEF796FD6FF01B06FE
:10252400E9E72046FEF790FD6FF01B06E3E7002382
:10253400EB602046FEF788FD2846FEF785FDDAE7C6
:10254400043E0008083E00084288012A7FD14368FF
:10255400002B7ED02DE9F047A4B0466AD0F8309025
:10256400DF097168B3FBF1F801FB183303B11346BB
:10257400984400252C4651E0002024B0BDE8F087A3
:102584004FF0000A53467268BAEBD21F45D2BC42E0
:10259400F2D259F82510B06880220092DB0104AA17
:1025A400FEF7B1FA0028E7DB239B012BE4D00134CA
:1025B4000AF1010A1FFA8AFAE4E7A5F10C02B2FB58
:1025C400F3F103FB11230C3159F82110B0680422F4
:1025D40000929B0003AAFEF796FA00281BDB4FF03B
:1025E400000A53467268BAEBD21F16D2BC4212D20A
:1025F400B06880220092DB0104AA0399FEF783FAF3
:10260400002808DB239B012B05D001340AF1010AC1
:102614001FFA8AFAE5E70020AFE70135454514D2F1
:102624000B2DADD973689B0803EB4302520002F1F2
:102634000C01A942C1D803FB03F303EB4303134486
:102644000C33AB42E9D8002097E7012095E700203E
:102654007047012070474388012B00F0BB802DE9AF
:10266400F04FA7B08846466AD0F830A043684FEAD6
:10267400D3197168B3FBF1F201FB123303B10123E7
:10268400D318039300273D4688E04FF0FF3030E035
:1026940001350134A4B223467268B4EBD21F7CD254
:1026A4004D4524D24FEAC31B5AF82710B068802343
:1026B40000935B4606AAFEF726FA00281CDBD8F82E
:1026C4000830249A9A42E3D1259B012BE0D10023C0
:1026D40025930C375AF82710B068802300935B4683
:1026E40006AAFEF7ADF90028CFDB002001E04FF089
:1026F400FF3027B0BDE8F08F4FF0FF30F9E700243A
:10270400C9E7A7F10C02B2FBF3F103FB11230C316F
:102714005AF82110B068042200929B0005AAFEF723
:10272400F2F9002836DB002405E04FF0FF30E0E743
:1027340001350134A4B223467268B4EBD21F2CD203
:102744004D4521D24FEAC31BB068802300935B46FA
:1027540006AA0599FEF7D7F9002818DBD8F808303F
:10276400249A9A42E4D1259B012BE1D1002325939D
:10277400B068802300935B4606AA0599FEF760F9CA
:102784000028D2DB0020B4E74FF0FF30B1E74FF070
:10279400FF30AEE74FF0FF30ABE70137039B9F42BA
:1027A40015D20B2FABD973689B0803EB430252007D
:1027B40002F10C01B942A4D803FB03F303EB430376
:1027C40013440C33BB42E8D84FF0FF3091E74FF08D
:1027D400FF308EE74FF0FF30704770B582B004468B
:1027E40001ABFFF7CBFC051E26DB0199606AFEF7FF
:1027F400F1FB064648B3436A9A68636A9B689A4247
:102804001AD14388012B23D12046FFF79DFE10B334
:1028140006F11800FDF7E3FD01281FD80025F56037
:10282400012286F82020E368013BE36084F820203D
:1028340031462046FFF70FFF2046FEF705FC3046E1
:10284400FEF702FC284602B070BD4FF0FF35F3E7F7
:102854006FF00105F0E76FF02605EDE76FF00F0567
:10286400EAE72DE9F04F8BB0039005929946002BCF
:1028740000F084808846D1F804B043685B457FD972
:10288400476A026B07927A68BBFBF2F1029102FB82
:1028940011BAA2EB0A010691B3FBF2F102FB113368
:1028A40003B10123CB180493029D002617E0069A76
:1028B400944228BF14462DE0079B53F82510B868AE
:1028C40000945346059A3244FEF71DF900285ADB5A
:1028D4002644D8F804302344C8F804300135049B56
:1028E4009D4247D2B14545D90BEB0602039B5B6879
:1028F4009A423FD2A9EB06049A1A7B689C4228BFED
:102904001C46944228BF1446029A9542CFD006939F
:102914004FF0000A0B2DCFD99B0803EB4302520062
:102924000C32AA4232D9A5F10C02B2FBF3F103FB3B
:1029340011230C31079A52F82110B868042200922E
:102944009B0009AAFEF7DFF8002810DBB8680094A2
:102954005346059A32440999FEF7D5F8002806DB58
:102964002644D8F804302344C8F80430B6E74FF0BE
:10297400FF3000E030460BB0BDE8F08F1846FAE7B0
:102984004FF0FF30F7E74FF0FF30F4E74FF0FF3040
:10299400F1E7002838D070B584B01446466A056B58
:1029A40043688B4233D301317268B1FBF2F002FB0E
:1029B400101303B1012303440C2B0AD9920802EB30
:1029C400420149000C31994209D24FF0FF3004B062
:1029D40070BD013B55F8233023600020F7E70D3B21
:1029E400B3FBF2F102FB113355F82110B068042255
:1029F40000929B0003AAFEF786F810B9039B23609C
:102A0400E5E74FF0FF30E2E74FF0FF3070474FF05B
:102A1400FF30DCE72DE9F04385B004460D46466AF5
:102A2400076B43687168B3FBF1F201FB123303B126
:102A340001231344581C0C2844D9890801EB410292
:102A440052000C32824255D30C3BB3FBF1F901FB2B
:102A5400193809F10C0357F823306BB902A9304631
:102A6400FFF72FF800283FDB09F10C03029A47F81F
:102A74002320012384F8203003A93046FFF721F8EE
:102A8400002831DB09F10C0957F82910B068042338
:102A9400009303AB4FEA8802FDF7D2FF00BB039B10
:102AA4002B600CE029463046FFF70BF800281EDBAC
:102AB4002B6847F82830012384F82030002005B023
:102AC400BDE8F0834FF00008B8F10B0F06D857F8B3
:102AD4002830002BE6D008F10108F5E70020EEE7E6
:102AE40003993046FFF766F84FF0FF30E7E74FF001
:102AF400FF30E4E74FF0FF30E1E72DE9F04F87B016
:102B04009846002B74D0064693464C684368A3420B
:102B140072D3D0F824A0DAF80420B4FBF2F302FB59
:102B2400134101B101210B4403FB02F3039300257C
:102B3400A94646E005AA21463046FFF72AFF0028A9
:102B440018DBDAF80470B4FBF7F207FB1242BF1A81
:102B5400474528BF4746DAF8080000970BEB050302
:102B64000599FDF76DFF002804DB3D443C444FF01C
:102B740001091FE04FF0FF303BE0A8EB0507736845
:102B8400A34229D805A93046FFF744FF00282ADBD1
:102B9400DAF804309F4228BF1F46DAF8080000978D
:102BA4000BEB050300220599FDF74AFF00281ADB09
:102BB4003D443C447368A34203D27460012386F805
:102BC4002030A84512D9B9F1000FD6D1039B9C42FD
:102BD400B0D34FF00109EDE705AA21463046FFF7CF
:102BE400D8FE0028D4DA4FF0FF3002E0284600E097
:102BF400184607B0BDE8F08F4FF0FF30F9E710B585
:102C04000446342001F0D6F8206200B1204610BDFD
:102C14002DE9F047A4B080460E46242001F0CAF8FE
:102C24000446342001F0C6F805462062824BE36175
:102C3400C4F808808023A381C3604046FEF710F8DF
:102C440060604046FEF724F8286001236B61002E83
:102C540037DDEE60EA68D308A968B3FBF1FA02F045
:102C640007029B1800D00123B3FBF1F201FB1233DE
:102C7400D31800D001239A44C5F81CA06A69013214
:102C8400AA612968CB086068B3FBF0F901F0070179
:102C94005B1800D00123B3FBF0F100FB1133CB1818
:102CA40000D001239944C5F8249052442A626068F4
:102CB40001F080F807466268FF2100F00BFF002650
:102CC40014E04046FDF7E4FF00EB40005B4BA3FB40
:102CD4000023DB08EB60BDE7A969A0686368009383
:102CE40000233A463144FDF7ABFE01365645F3D393
:102CF400002609E0296AA0686368009300233A4625
:102D04003144FDF79DFE01364E45F3D3EB68A289AD
:102D140002FB03F36168B3FBF1F201FB123303B16D
:102D2400012313442A6A696A0A44AA62EB621A44B8
:102D34002A63434B23602046FFF785F9002605E00C
:102D4400012231462046FEF76DFE01362B6BB3425D
:102D5400F6D8C4F8088023A92046FEF7B2FE00285E
:102D640053DB22A92046FEF76CFF002857DB3420F2
:102D740001F020F8054600283FD0002303634FF4F8
:102D8400807343604FF4803303604462229B83600A
:102D94000223C36001211830FDF719FB2846FFF711
:102DA40099F820B32B6B239A1A60264902A800F0E5
:102DB40087FE0123219300232093A06880220092A0
:102DC40002AA2399FDF73CFE002810DB1E4902A845
:102DD40000F076FE0123219300232093A068802332
:102DE400009302AA2399FDF72BFE00281CDA28463B
:102DF400FFF782F8284600F0ECFF23992046FEF7FF
:102E0400D9FE22992046FEF7D5FE206A00F0E1FFA4
:102E1400204600F0DEFF002024B0BDE8F0872399AF
:102E24002046FEF7C7FEF0E72846FFF7D3F828460A
:102E340000F0CFFFE9E700BFB8010020CDCCCCCC37
:102E440044332211043E0008083E00080020704765
:102E54000023052B0DDC084AD25C0AB10133F8E7E4
:102E6400054A0121D15403EBC3039A0003481044DB
:102E740070470020704700BF340E00205C0D002016
:102E8400002300E00133052B0EDC084AD25C012A42
:102E9400F8D103EBC302064901EB82028242F1D16D
:102EA400024A0021D1547047704700BF340E0020FD
:102EB4005C0D0020002300E00133052B10DC094ADF
:102EC400D25C012AF8D103EBC302074901EB820269
:102ED40092688242F0D103EBC30301EB8300704795
:102EE40000207047340E00205C0D0020F8B5064623
:102EF4000C46FFF7DFFF054608B12846F8BDFFF78B
:102F0400A7FF05460028F8D02046FDF7B5FF044684
:102F140078B1AE60C36828469847074620B1A368D5
:102F240028469847AE60E8E72846FFF7A9FF3D46E4
:102F3400E3E70546E1E700207047000070B5064668
:102F44000024134B1B68A3421ED9124B04EB8401CB
:102F540003EB8102127953F821100F4B1868FFF725
:102F6400C5FF054688B140691830FDF70FFA686956
:102F74001830FDF70BFA68691830FDF707FA6B692A
:102F8400C6F81033C6F8143370BD0134D9E700BF56
:102F9400D4000020D8000020D006002070B50646DA
:102FA4000469656801210F48FDF72CFA0028F9D05F
:102FB40009E0012283F83420204600F00AFF4DB1D5
:102FC4006B682C461D463CB1236893F83420032AD1
:102FD400EFD1F1E72B46F4E70021B1600148FDF79A
:102FE400F6F970BD3C0E002070B504460D4608206D
:102FF40000F0E0FEC0B10646056001210C48FDF773
:1030040001FA0028F9D02369736026610021084879
:10301400FDF7DDF9A3680133A360022385F834309A
:1030240000F032F9002070BD6FF00A00FBE700BF2A
:103034003C0E00200F2819D810B5044600EB80037D
:1030440001210D4800EB8300FDF7DCF908B10020F5
:1030540010BD04EB8404094B196A074800EB840093
:10306400FFF7C2FF002804DB0020F1E74FF0FF3038
:1030740070476FF00A00EBE7400E0020800F00203D
:103084000F2811D810B500EB8000094C04EB800424
:1030940000212046FDF7C8F908B1002010BD2046E4
:1030A400FFF77CFF0020F9E74FF0FF30704700BFC7
:1030B400400E002070B504460E46FDF715F905468E
:1030C400204600F0D1F80446E0B1032384F83430FC
:1030D4000F4A91690B89013B0B8193691B89A3B149
:1030E400C4F84C622846FDF706F9206900F071FE29
:1030F400FDF7FAF8042384F83430FDF7FCF800F007
:10310400C3F870BD024B1C6ADFE700F0C9F8E7E7BB
:10311400800F002008B501460120FDF72FFA002892
:1031240000DB08BD4042014B1860FAE7B40F0020F1
:1031340008B501464FF0FF30FFF7BCFF002008BD83
:10314400F8B50646FDF7D0F807464FF0FF3000F01B
:103154008BF805464FF4467000F02CFE00283FD053
:1031640004464FF44672294600F098FC022384F882
:1031740034300023A360E3606069A36918448000CD
:1031840000F018FE2061002830D02548FDF727F90B
:1031940000B22063204600F0A1F880BB2048FDF770
:1031A400F5F865606269A3691A4492002969206987
:1031B40000F074FC22692B6A29695B1A13442362A8
:1031C400636943B32869361A3244E2610023136207
:1031D400012384F834303846FDF78DF8206BF8BDB0
:1031E4003846FDF788F84FF0FF30F8E7204600F046
:1031F400F0FD3846FDF77FF84FF0FF30EFE720464B
:1032040000F0E7FD206900F0E4FD3846FDF773F8AF
:103214004FF0FF30E3E74FF0FF33E361D8E700BF3F
:10322400B00F00200246044BD86800E0C06810B11B
:1032340003799342FAD17047800F002010B50446F9
:10324400102000F0B7FD034648B10022C2600260BE
:10325400C28004710281034AD168C160D0601846FB
:1032640010BD00BF800F0020021E07DB054BD86A8B
:1032740038B1036B934204D0C068F9E7014B186A74
:1032840070477047800F002008B501210348FDF7FF
:10329400A8F800B908BDFDF731F8FBE7A80F002036
:1032A40008B5FDF721F80C4BDB68002101E0194655
:1032B400DB685BB11A89002AFAD00029F7D093F8A9
:1032C40004C00A799445F3D91946F1E7024B996190
:1032D400FDF711F808BD00BF800F0020002846D07C
:1032E40070B50446FDF700F8054694F8356030469D
:1032F400FFF798FF0346F0B1DA880132DA801A89C1
:1033040001321A811A682AB3A2601C602360194B27
:10331400DB6A0BB3E360174BDC622846FCF7EBFF78
:10332400144B9B6923B194F835101A79914216D83D
:10333400CBB1002070BD3046FFF780FF0346002864
:10334400DAD12846FCF7D7FF0B4B0C221A604FF05A
:10335400FF30EFE71C60D9E7064BDC62DDE7FFF7DF
:103364009FFF0020E6E7FFF79BFF0020E2E74FF016
:10337400FF307047800F0020B40F00200C4B5969B8
:1033840001315961DB6A03E09A6A01329A62DB68AF
:103394006BB1D3F84422002AF6D09142F4D9DA6B07
:1033A40042F40052DA630022C3F84422ECE7704787
:1033B400800F002000B54FF0E023D3F8243D13F034
:1033C400800F19D04FF0E02CDCF8243D23F080036B
:1033D400CCF8243D4FF0010C254B1B7F8BB9244BBB
:1033E4009B691B6853B393F83420012A07D1204A00
:1033F40013620123137721E04FF0000CECE79B6884
:10340400F0E71B4BD3F820E0CEF81C00186A0162E9
:103414001B6A998C022900D09A84A3F826C09B6861
:1034240004E093F83420012A06D09B68002BF8D1DD
:103434000F4B9B691B68F4E70D4A13620C4B1B6A24
:10344400DB8C012B04D00A4B186A1C305DF804FB9A
:103454004FF0E023D3F8242D42F08002C3F8242D4A
:10346400D3F8242D22F48072C3F8242DEBE700BF97
:10347400800F002010B407490A6AD2F844424B690D
:103484004FF47A7101FB0033C2F84432204610BC79
:10349400704700BF800F002000E0406850B103680F
:1034A400002BFAD093F83420022AF6D1012283F8B3
:1034B4003420F2E7704738B504460D46FCF714FF94
:1034C400236823B16B602560FCF715FF38BD2560C8
:1034D400FAE70368002204E05B68036070471A4659
:1034E4005B6833B18B42FAD1002AF5D05B68536034
:1034F40070477047014B1B6A186B7047800F0020A0
:103504006FF0250070476FF0250070476FF02500BD
:1035140070476FF0250070476FF02500704700007A
:10352400054B1A6A92F83530191A002901DD82F820
:1035340035100020704700BF800F002010B500F048
:1035440095FB084C012104F12800FCF740FF012100
:1035540004F13000FCF73BFF0023A361636200F039
:1035640049FB10BD800F002008B5FFF7E7FFFCF70B
:103574009DFEFCF795FF002008BD0000024B1B6A6E
:10358400D3F84002704700BF800F00200346054A6D
:10359400126AD2F8400223F4802323F48073C2F821
:1035A40040327047800F002010B485B0431E1F2B9B
:1035B4001AD809281BD013281CD00091002301938A
:1035C4004FF04043029303920C4B1B6A03300201F9
:1035D40003EB001C9C5804AB13E90F008CE80F00AC
:1035E400204605B010BC70476FF01504F8E76FF083
:1035F4001504F5E76FF01504F2E700BF800F002013
:10360400431E1F2B31D830B51446092830D0132857
:1036140031D01A4B1D6A00F1FF3E033005EB001C4C
:103624000FC98CE80F0034B10EF1040305EB03134A
:103634000FCB84E80F00114B1B6A03EB0E12906C46
:1036440010F0804006D00EF1040E03EB0E130020A0
:10365400586030BD012202FA0EF10EF1040E03EBA4
:103664000E135A680A435A60F3E76FF01500704767
:103674006FF01500EDE76FF01500EAE7800F00200A
:10368400F8B54C4B1C6ACB1C1B01E358012B00F012
:103694008B8006460D464F1E002B49D004EB0713C2
:1036A4009B6C13F0804F6FD101233360414B1B6A35
:1036B400D3F8403246F8043CA6F108004FF080727B
:1036C40046F8082C3A1D1201A25840F8042C04EBC9
:1036D4000716F26C40F8082C4FF0123240F80C2C0C
:1036E4004FF0033240F8102C4FF0023240F8142C03
:1036F4004FF0013240F8182C40F81C5C1C38FCF7E1
:10370400F7FDB36C002B4ADB2A4B1B6A3A1D04EB12
:1037140002146168D3F840220A43C3F8402201220C
:1037240002FA07F7DA6B22EA0702DA630020F8BD2F
:10373400CB1E132B22D8DFE803F01B1B1B1B211B02
:1037440021211B21212121213A3A0A0A0A0A0223B2
:1037540084F83430C4F84C126368D3F8482112F06A
:10376400010F03D1DA6B42F48032DA630120DEE721
:1037740041F080014FF0FF30FFF79CFC29464FF0E9
:10378400FF30FFF797FC89E70023336046F8043CD9
:10379400A6F108004FF0807246F8082C92E73B1D12
:1037A4001B010022E250AFE74FF0FF30BFE70120DA
:1037B400BDE700BF800F002008B550F8283C012B5E
:1037C40004D02430FCF794FD002008BD034B1B6A91
:1037D40050F8242CC3F84022F3E700BF800F0020E8
:1037E40008B50E4B1B6A9A8C012A00D008BDD3F889
:1037F4004012DA6B22EA0102002100E001311F29A4
:10380400F4D801238B401342F8D00131FFF738FF7D
:103814000128EBD1FFF738FDE8E700BF800F002057
:103824006FF0250070476FF0250070476FF025009A
:1038340070476FF0250070476FF0250070476FF0F8
:10384400250070476FF02500704708B50146FFF763
:10385400F9FF08BD6FF0250070476FF02500704731
:103864006FF0250070476FF0250070476FF025005A
:103874007047002070476FF02500704708B5014677
:10388400FFF7F9FF08BD6FF0250070476FF02500C2
:1038940070476FF0250070476FF0250070476FF098
:1038A400250070476FF0250070476FF025007047C2
:1038B4006FF02500704738B5044600F12005836B8E
:1038C40013F802CC006A616AA26AE36ABCF1800F51
:1038D40003D04FF0FF3323620AE077280AD002288E
:1038E4000ED08000FCF73EFE20622846FFF778FFEA
:1038F400002038BD29468000FCF734FE2062F4E73E
:1039040021468000FCF72EFE2062EEE7002800F03E
:10391400A2802DE9F04F83B0D0F800904268019264
:10392400D0F808B090F80CA0C589078A4669B9F1A7
:10393400000F51D04FF4467000F03CFA04460028C2
:1039440050D04FF44672002100F0C4F8C4F8486225
:10395400EE19B00000F02EFA8046002848D000236B
:10396400A362E3623D48FCF73AFD00B22063C4F869
:103974001080002D45D006F18046013E08EB8606F6
:10398400E66107F18043013B08EB830323620123D3
:10399400A38484F835A06561A761022384F83430D8
:1039A4000023A360E36085BB5B46019A4946206A15
:1039B400FCF7ACFC206285BB0223A3842046FFF7FE
:1039C4008DFC0346A0B3204600F003FA404600F005
:1039D40000FA4FF0FF303BE0214B63221A604FF0B6
:1039E400FF3035E01E4B0C221A604FF0FF302FE001
:1039F400204600F0EEF91A4B0C221A604FF0FF300B
:103A040026E04FF0FF33E361BBE75B46019A49468A
:103A1400E069FCF77BFCE061C6E70123A384CDE702
:103A240003EB430204EBC202002182F86412013367
:103A3400072BF5DD2046FFF781FA0848FCF7A6FCC2
:103A4400FCF752FC012384F83430FCF754FC206B5F
:103A540003B0BDE8F08F4FF0FF307047B00F002087
:103A6400B40F0020054B1A68054943F2390001FBE5
:103A740002001860C0F30E40704700BFF803002036
:103A84006D4EC64184469CF8002008780131101A16
:103A940003D10CF1010C002AF5D17047034604E070
:103AA40011F801CB03F801CB013A002AF8D1704791
:103AB400034600E001331A78002AFBD1181A704734
:103AC40084460A7801318CF800200CF1010C002A9C
:103AD400F7D17047034602E003F8011B013A002ABC
:103AE400FAD17047034662B110B402E00133013ADF
:103AF4002AB10C781C70002CF8D00131F6E710BC08
:103B04007047704708B50020FCF738FD002800DB3B
:103B1400FEE74042014B1860FAE700BFB40F0020F3
:103B240010B540F2FF1200210F48FDF7C7FD041E37
:103B340000DAFEE78C220D492046FDF767FE0028D7
:103B440000DAFEE78C2209492046FDF75FFE0028D3
:103B540000DAFEE78C2205492046FDF757FE0028CF
:103B640000DBFEE7FEE700BF0C3E0008B80F0020B4
:103B740008B513460A4601463020FCF7FFFC00282E
:103B840000DB08BD4042024B18604FF0FF30F8E7FD
:103B9400B40F002008B501461B20FCF7EFFC0028F9
:103BA40000DB08BD4042024B18604FF0FF30F8E7DD
:103BB400B40F00200E2800D0704708B50120FFF78D
:103BC400E9FF034A03490E20FFF7D2FF08BD00BFF7
:103BD4009D040008B93B000808B5044A04490E20B6
:103BE400FFF7C6FF0520FFF7D5FFFEE79D04000899
:103BF400B93B000808B5FDF7A1F81E21154B18685C
:103C0400FFF706F81448154B0360002141608160FA
:103C140006230373C1814FF400730382104B436185
:103C2400FFF774FE002800DAFEE70B480D4B036033
:103C3400002141608160062303734FF48073C381C4
:103C44000382094B4361FFF761FE002800DB08BDD6
:103C5400FEE700BFD006002044100020253B0008EA
:103C6400103E0008DD3B00081C3E0008002313E062
:103C740003EB4302D0000C4A02445268002042F88D
:103C84002100013103EB4302D000074A0244D26809
:103C94008A42EDD801339BB2034A128E9A4201D96B
:103CA4000021EFE7704700BFFC0300202A4B1B8E66
:103CB40083424BD970B5284A00EB400402EBC4039D
:103CC40052F834505E68B3F810C0B1FBFCF40CFB3E
:103CD4001411002918BF01344FF0000E734602E09E
:103CE40013444FF0000E00EB40021B4901EBC202EB
:103CF400D168994209D956F82320002AF0D10EF14F
:103D0400010E744509D00133EDE7002202B3994254
:103D140020D91B1B01331A4604E00122F6E746F8BA
:103D240023400132E118914205D99A42F7D001218A
:103D340046F82210F5E7084A00EB400102EBC10106
:103D44004A69141B4C6103FB0C5070BD0020704782
:103D54000020FAE70020F8E7FC03002039B330B470
:103D64000B46134A00EB400402EBC40152F83450F2
:103D74004C680A8A5B1BB3FBF2F2CB68934214D300
:103D84000B4B00EB400103EBC1014B6954F82200DB
:103D940003444B6154F82200134603E0002144F825
:103DA4002310013311189942F8D830BC704770477A
:103DB400FC03002038B50446FCF796FA0546214674
:103DC4000020FFF773FF04462846FCF794FA2046C8
:103DD40038BD38B50546FCF787FA04462946002065
:103DE400FFF7BCFF2046FCF786FA38BD1908000827
:043DF4006908000852
:103DF800666C617368000000737000002E0000009C
:103E08002E2E00002F0000004B65726E656C546109
:0C3E1800736B0000746573740000000000
:103E240001090008A5080008E5070008840000202F
:103E3400000000000000000000000000000000007E
:103E4400000000000000000000000000000000006E
:103E5400000000000000000000000000000000005E
:103E64000000000000000000AC0000200000000082
:103E7400000000000000000000000000000000003E
:103E8400000000000000000000000000000000002E
:103E9400000000000000000000000000000000001E
:103EA400000000000000000000000000000000000E
:103EB40000000000000000000000000000000000FE
:103EC400DD0B0008000000000000000000000000FE
:103ED40000000000000000000000000000000000DE
:103EE4000000000000000000B10B0008000000000A
:103EF4000000000001000000003E00080100000076
:103F0400D9200008032C0008000000002000000055
:103F14002C010020E7230008CB2200080000000049
:103F240000000000000000003D240008DF27000816
:103F34003B24000800000000000000000000000016
:103F4400000000000000000000000000000000006D
:103F54008B1E000800000000911E000800000000F5
:103F6400000000000000000000000000000000004D
:103F7400000000009001002000000000000000008C
:103F8400000000000000000000000000000000002D
:103F9400000000000000000000000000000000001D
:103FA400000000000000000000000000000000000D
:103FB4000000000067280008FF2A00080000000035
:103FC40000000000000000000000000000000000ED
:103FD40000000000512E0008D91E0008FD1E000834
:103FE400251F000800000000D91F00080000000081
:103FF400000000004B20000800000000000000004A
:104004006D350008353100084531000841190008B4
:10401400B5190008C1160008B51700080000000013
:10402400A9170008E5130008EB13000800000000BE
:104034007115000877380008611400089516000807
:10404400B91600082B380008000000008118000889
:10405400F93400083B2F00080000000081380008F4
:104064000B3500088B380008313800087934000813
:104074000000000000000000651500083738000843
:104084003D3800086B150008253500082538000860
:10409400000000005B140008FD12000875130008FE
:1040A400450E000891380008433800089738000886
:1040B4004F38000817350008AD35000811350008E1
:1040C4001D350008593800085F38000865380008B5
:1040D400AD100008510E00086B3800089D38000828
:1040E40071380008AF380008B53800080916000810
:1040F400DB140008ED0D000805350008A33800089E
:10410400A9380008053600088135000891350008F3
:104114007B38000849380008000000000000000057
:10412400000000000000000000000000000000008B
:10413400000000000000000000000000000000007B
:10414400000000000000000000000000000000006B
:10415400000000000000000000000000000000005B
:10416400000000001118000800000000000000001A
:1041740000000000000000004516000800000000D8
:10418400000000000000000000000000E11400082E
:1041940015150008000000000000000000000000E9
:1041A400000000000000000000000000000000000B
:1041B40000000000000000000000000000000000FB
:1041C40000000000000000000000000000000000EB
:1041D400000000000000000000000000BD370008DF
:1041E40000000000000000000000000000000000CB
:1041F40000000000000000000000000000000000BB
:1042040000000000000000000000000000000000AA
:1042140000000000AD15000801000000801000201F
:1042240080E0002000D000004003000040000000B7
:104234004003000000F000680000006800000F0068
:10424400003C000040000000003C000002000000B0
:04000005080007A147
:00000001FF
