:020000040800F2
:100000000000012071240008B51E0008B71E00087A
:10001000B91E0008BB1E0008BD1E0008000000003D
:100020000000000000000000000000009510000823
:10003000BF1E000800000000251100081111000873
:100040001111000811110008111100081111000808
:1000500011110008111100081111000811110008F8
:1000600011110008111100081111000811110008E8
:1000700011110008111100081111000811110008D8
:1000800011110008111100081111000811110008C8
:1000900011110008111100081111000811110008B8
:1000A00011110008111100081111000811110008A8
:1000B0001111000811110008111100081111000898
:1000C0001111000811110008111100081111000888
:1000D0001111000811110008111100081111000878
:1000E0001111000811110008111100081111000868
:1000F0001111000811110008111100081111000858
:100100001111000811110008111100081111000847
:100110001111000811110008111100081111000837
:100120001111000811110008111100081111000827
:1001300000000000000000000000000000000000BF
:1001400000000000000000000000000000000000AF
:10015000000000000000000000000000000000009F
:10016000000000000000000000000000000000008F
:10017000000000000000000000000000000000007F
:10018000000000000000000000000000000000006F
:10019000000000000000000000000000000000005F
:1001A000000000000000000000000000000000004F
:1001B000000000000000000000000000000000003F
:1001C000000000000000000000000000000000002F
:1001D000000000000000000000000000000000001F
:0401E0005FF8E0F1F3
:1001E40070BC10F5805F38BFF746C0F100012DE9FF
:1001F400024009F0C9F8BDE8024001606FF0000058
:10020400F746EC462DE970009CE8700080B44FF08E
:100214005A0780DF80BCE3E74FF0000300F06DBBBA
:1002240080B44FF0B40780DF80BCDAE780B44FF0CD
:10023400B50780DF80BCD4E780B44FF0580780DF77
:1002440080BCCEE780B44FF0210780DF80BCC8E7D4
:1002540080B44FF07C0780DF80BCC2E780B44FF0ED
:100264002D0780DF80BCBCE780B44FF00C0780DF33
:1002740080BCB6E780B44FF00F0780DF80BCB0E7E6
:1002840080B44FF0B60780DF80BCAAE780B44FF09B
:100294003D0780DF80BCA4E780B44FF0060780DF11
:1002A40080BC9EE780B44FF0290780DF80BC98E7CC
:1002B40080B44FF03F0780DF80BC92E780B44FF0FA
:1002C4000B0780DF80BC8CE780B44FF0850780DFAC
:1002D40080BC86E780B44FF05E0780DF80BC80E797
:1002E40080B44FF05F0780DF80BC7AE780B44FF0C2
:1002F400370780DF80BC74E780B44FF08F0780DF5E
:1003040080BC6EE780B44FF0020780DF80BC68E7F2
:1003140080B44FF06C0780DF80BC62E780B44FF09C
:10032400C50780DF80BC5CE780B44FF0640780DFE2
:1003340080BC56E780B44FF0760780DF80BC50E77E
:1003440080B44FF05D0780DF80BC4AE780B44FF093
:10035400B70780DF80BC44E780B44FF08D0780DFAF
:1003640080BC3EE780B44FF0D90780DF80BC38E71B
:1003740080B44FF0320780DF80BC32E780B44FF0A6
:10038400310780DF80BC2CE780B44FF02F0780DF7B
:1003940080BC26E780B44FF0500780DF80BC20E7A4
:1003A40080B44FF0690780DF80BC1AE780B44FF057
:1003B400840780DF80BC14E780B44FF0140780DF2B
:1003C40080BC0EE780B44FF0400780DF80BC08E7B4
:1003D40080B44FF0600780DF80BC02E780B44FF048
:1003E400AB0780DF80BCFCE680B44FF0A50780DF5C
:1003F40080BCF6E680B44FF04C0780DF80BCF0E6AA
:1004040080B44FF04D0780DF80BCEAE680B44FF043
:10041400930780DF80BCE4E680B44FF04E0780DFB2
:1004240080BCDEE680B44FF04F0780DF80BCD8E6A6
:1004340080B44FF0180780DF80BCD2E680B44FF060
:10044400360780DF80BCCCE6EC462DE970009CE8E2
:10045400700080B44FF0750780DF80BCC0E680B4C4
:100464004FF0250780DF80BCBBE680B44FF0100757
:1004740080DF80BCB5E680B44FF0090780DF80BC24
:10048400AFE6EC462DE970009CE8700080B44FF0B4
:100494008C0780DF80BCA3E680B44FF0130780DFB5
:1004A40080BC9EE680B44FF06B0780DF80BC98E68A
:1004B40080B44FF0C40780DF80BC92E680B44FF074
:1004C400270780DF80BC8CE680B44FF00E0780DF06
:1004D40080BC86E680B44FF0960780DF80BC80E65F
:1004E40080B44FF0980780DF80BC7AE6EC462DE9B3
:1004F40070009CE8700080B44FF0C00780DF80BCBF
:100504006EE6EC462DE970009CE8700080B44FF074
:10051400150780DF80BC63E680B44FF07D0780DF81
:1005240080BC5EE680B44FF0A30780DF80BC58E651
:1005340080B44FF0990780DF80BC52E680B44FF05E
:100544005B0780DF80BC4CE680B44FF0430780DF5C
:1005540080BC46E680B44FF0490780DF80BC40E6AB
:1005640080B44FF07E0780DF80BC3AE680B44FF061
:10057400480780DF80BC34E680B44FF0A20780DFF8
:1005840080BC2EE680B44FF0220780DF80BC28E6D2
:1005940080B44FF0050780DF80BC22E680B44FF0C2
:1005A4001D0780DF80BC1CE680B44FF0880780DF25
:1005B40080BC16E680B44FF02A0780DF80BC10E6CA
:1005C40080B44FF0A80780DF80BC0AE6EC462DE932
:1005D40070009CE8700080B44FF0A70780DF80BCF7
:1005E400FEE580B44FF0800780DF80BCF9E580B47D
:1005F4004FF0810780DF80BCF3E580B44FF07F07C4
:1006040080DF80BCEDE580B44FF0030780DF80BC61
:10061400E7E580B44FF0550780DF80BCE1E580B4A6
:100624004FF0910780DF80BCDBE580B44FF02607F4
:1006340080DF80BCD5E580B44FF0280780DF80BC24
:10064400CFE580B44FF0AE0780DF80BCC9E580B44D
:100654004FF0B00780DF80BCC3E580B44FF0AF0734
:1006640080DF80BCBDE580B44FF0B20780DF80BC82
:10067400B7E580B44FF0B30780DF80BCB1E580B448
:100684004FF0B10780DF80BCABE580B44FF09F072B
:1006940080DF80BCA5E580B44FF0A00780DF80BC7C
:1006A4009FE580B44FF09B0780DF80BC99E580B460
:1006B4004FF09D0780DF80BC93E580B44FF0A10725
:1006C40080DF80BC8DE580B44FF09A0780DF80BC6A
:1006D40087E580B44FF09C0780DF80BC81E580B45F
:1006E4004FF09E0780DF80BC7BE580B44FF052075B
:1006F40080DF80BC75E580B44FF0BB0780DF80BC31
:100704006FE580B44FF0EF0780DF80BC69E580B40B
:100714004FF0790780DF80BC63E580B44FF08B072E
:1007240080DF80BC5DE580B44FF08A0780DF80BC49
:1007340057E580B44FF02E0780DF80BC51E580B4CC
:100744004FF0510780DF80BC4BE580B44FF04A077F
:1007540080DF80BC45E580B44FF0680780DF80BC53
:100764003FE580B44FF0390780DF80BC39E580B4C1
:100774004FF0610780DF80BC33E580B44FF047075A
:1007840080DF80BC2DE580B44FF0AA0780DF80BCF9
:1007940027E580B44FF0A40780DF80BC21E580B456
:1007A4004FF0460780DF80BC1BE580B44FF04B0759
:1007B40080DF80BC15E580B44FF0420780DF80BC49
:1007C4000FE580B44FF0170780DF80BC09E580B4E3
:1007D4004FF0BA0780DF80BC03E580B44FF0000718
:1007E40080DF80BCFDE480B44FF0660780DF80BC0E
:1007F400F7E480B44FF06A0780DF80BCF1E480B492
:100804004FF0C30780DF80BCEBE480B44FF0630794
:1008140080DF80BCE5E480B44FF0190780DF80BC42
:10082400DFE480B44FF0730780DF80BCD9E480B488
:100834004FF0570780DF80BCD3E480B44FF05307F8
:1008440080DF80BCCDE480B44FF0240780DF80BC1F
:10085400C7E480B44FF0950780DF80BCC1E480B466
:100864004FF0740780DF80BCBBE480B44FF06707AF
:1008740080DF80BCB5E480B44FF0870780DF80BCA4
:10088400AFE480B44FF00D0780DF80BCA9E480B4EE
:100894004FF02B0780DF80BCA3E480B44FF05C07EB
:1008A40080DF80BC9DE480B44FF03C0780DF80BCD7
:1008B40097E480B44FF0160780DF80BC91E480B4E5
:1008C4004FF0340780DF80BC8BE480B44FF07A07AC
:1008D40080DF80BC85E480B44FF00A0780DF80BCF1
:1008E4007FE480B44FF01E0780DF80BC79E480B4DD
:1008F4004FF06F0780DF80BC73E480B44FF0720761
:1009040080DF80BC6DE480B44FF0040780DF80BCDE
:1009140067E480B44FF0920780DF80BC61E480B468
:100924004FF0900780DF80BC5BE480B44FF0B807E1
:1009340080DF80BC55E480B44FF0B90780DF80BC11
:100944004FE480B44FF0D40780DF80BC49E480B426
:100954004FF0CF0780DF80BC43E480B44FF0CA0778
:1009640080DF80BC3DE480B44FF0C90780DF80BCE9
:1009740037E480B44FF0C80780DF80BC31E480B432
:100984004FF0CD0780DF80BC2BE480B44FF0D30759
:1009940080DF80BC25E480B44FF0C70780DF80BCD3
:1009A4001FE480B44FF0C60780DF80BC19E480B434
:1009B4004FF0D80780DF80BC13E480B44FF0D70732
:1009C40080DF80BC0DE480B44FF0D60780DF80BCAC
:1009D40007E480B44FF0CC0780DF80BC01E480B42E
:1009E4004FF0D20780DF80BCFFF7FBBB80B44FF031
:1009F400CB0780DF80BCFFF7F4BB80B44FF0D50792
:100A040080DF80BCFFF7EDBB80B44FF01B0780DFB5
:100A140080BCFFF7E6BB80B44FF01A0780DF80BCD0
:100A2400FFF7DFBB80B44FF0C20780DF80BCFFF765
:100A3400D8BB80B44FF0C10780DF80BCFFF7D1BBC7
:100A440080B44FF03E0780DF80BCFFF7CABB80B4A0
:100A54004FF0FA0780DF80BCFFF7C3BB80B44FF0D0
:100A6400FB0780DF80BCFFF7BCBB80B44FF0FC0702
:100A740080DF80BCFFF7B5BB80B44FF0DD0780DFBB
:100A840080BCFFF7AEBB80B440F2011780DF80BCAE
:100A9400FFF7A7BB80B44FF4817780DF80BCFFF7FA
:100AA400A0BB80B440F2031780DF80BCFFF799BB82
:100AB40080B44FF4827780DF80BCFFF792BB80B4B0
:100AC40040F2051780DF80BCFFF78BBB80B44FF486
:100AD400837780DF80BCFFF784BB80B440F20717C4
:100AE40080DF80BCFFF77DBB80B440F2091780DF54
:100AF40080BCFFF776BB80B440F2171780DF80BC60
:100B0400FFF76FBB80B44FF48B7780DF80BCFFF7B7
:100B140068BB80B44FF4897780DF80BCFFF761BB8A
:100B2400EC462DE970009CE8700080B440F2151783
:100B340080DF80BCFFF754BB80B44FF48A7780DF3A
:100B440080BCFFF74EBB80B440F2131780DF80BC3B
:100B5400FFF747BB80B44FF4857780DF80BCFFF795
:100B640040BB80B440F20B1780DF80BCFFF739BB79
:100B740080B44FF0EE0780DF80BCFFF732BB80B457
:100B84004FF4867780DF80BCFFF72BBB80B44FF433
:100B9400807780DF80BCFFF724BBEC462DE9700032
:100BA4009CE8700080B440F2411780DF80BCFFF7FE
:100BB40017BB80B44FF0AD0780DF80BCFFF711BBDB
:100BC40080B44FF0E00780DF80BCFFF70ABB80B43D
:100BD4004FF0FD0780DF80BCFFF703BB80B44FF00C
:100BE400E10780DF80BCFFF7FCBA80B44FF08307D5
:100BF40080DF80BCFFF7F5BA80B44FF0DB0780DFFD
:100C040080BCFFF7EEBAEC462DE970009CE870005A
:100C140080B440F23F1780DF80BCFFF7E1BAEC46B6
:100C24002DE970009CE8700080B44FF4A07780DF59
:100C340080BCFFF7D5BA80B44FF0F00780DF80BCEA
:100C4400FFF7CFBA80B440F2391780DF80BCFFF7DA
:100C5400C8BAEC462DE970009CE8700080B44FF4EB
:100C64009B7780DF80BCFFF7BBBA80B440F23717B4
:100C740080DF80BCFFF7B5BAEC462DE970009CE834
:100C8400700080B440F2351780DF80BCFFF7A8BA4B
:100C940080B44FF0F60780DF80BCFFF7A2BA80B4BF
:100CA4004FF0F30780DF80BCFFF79BBA80B44FF0AE
:100CB400F50780DF80BCFFF794BA80B44FF0F407E7
:100CC40080DF80BCFFF78DBA80B44FF0F70780DF78
:100CD40080BCFFF786BA80B44FF49F7780DF80BC76
:100CE400FFF77FBA80B44FF49E7780DF80BCFFF7B4
:100CF40078BA80B440F23D1780DF80BCFFF771BA48
:100D0400EC462DE970009CE8700080B44FF0E207D7
:100D140080DF80BCFFF764BAEC462DE970009CE8E4
:100D2400700080B44FF0E30780DF80BCFFF758BA4F
:100D3400EC462DE970009CE8700080B44FF0E407A5
:100D440080DF80BCFFF74CBA80B44FF0EB0780DF44
:100D540080BCFFF746BA80B44FF0EC0780DF80BC5C
:100D6400FFF73FBA80B44FF0ED0780DF80BCFFF798
:100D740038BA80B44FF0E80780DF80BCFFF731BA9F
:100D840080B44FF0E90780DF80BCFFF72ABA80B453
:100D94004FF0EA0780DF80BCFFF723BA80B44FF03E
:100DA400E50780DF80BCFFF71CBA80B44FF0E6078C
:100DB40080DF80BCFFF715BA80B44FF0E70780DF0F
:100DC40080BCFFF70EBA01DF78468EEA0E00874634
:100DD4005FEA000C12BF00296FF01500FFF701BA9B
:100DE40021E90810104680B44FF0780780DF80BCFA
:100DF4000000FFF6F6A918BFF7464FF0000B0FF2FC
:100E0400060EBDE80180DEE78446080008BF012025
:100E1400BCE8F00F5CF8042B95465CF804FB4FF03B
:100E240000016A46A0E8F00FA0E80440A0F1280001
:100E340008F058BB4FF0000B5DF8040B6946DFF86F
:100E440020C001EB800202F10402CCF8002008F07B
:100E54007BFB08F083FA80B44FF0010780DF80BC8D
:100E64000404002008B507F045FA06F007FF06F071
:100E740047FE08BD08B501F031FA01F08FFA01F020
:100E840077F9632140F2CF2001F0B8FA002008BDC1
:100E940010B5002211460A4800F024F94FF0E0236F
:100EA400084A5A61084AF02182F8231000249C6100
:100EB40007221A614FF4407000F072FC204610BD06
:100EC400690E00083F19010000ED00E010B44FF076
:100ED4008074046040F8041C1A4940F8081C4FF060
:100EE400123140F80C1C4FF0033140F8101C4FF045
:100EF400023140F8141C40F8183C40F81C2C4FF008
:100F0400113340F8203C4FF0103340F8243C0E4B92
:100F14001B6840F8283C4FF0083340F82C3C4FF055
:100F2400073340F8303C4FF0063340F8343C4FF080
:100F3400053340F8383C4FF0043340F83C3C3C382F
:100F440010BC7047E57700080C040020EFF3108014
:100F540072B6704780F30988704780F31088704731
:100F640002484FF0805101607047000004ED00E03A
:100F74004FF0000350E8002F02F10102002A00D0D4
:100F840001E04FF0010340E800210129F2D01846A6
:100F940070474FF0000350E8002F02F1FF32002A9F
:100FA40000D001E04FF0010340E800210129F2D014
:100FB400704750E8002F0A4640E80023012BF8D080
:100FC40070470068704710B450E8002F8A4202D07E
:100FD4004FF0000401E04FF0010440E80023012B2E
:100FE400F2D0204610BC704710B450E8002F002AFD
:100FF40002D04FF0000402E04FF001040A4640E83A
:101004000023012BF1D0204610BC704710B450E8E7
:10101400002F002A02D04FF0000403E04FF0010437
:1010240002F1010240E80023012BF0D0204610BC5D
:10103400704710B450E8002F002A04D04FF0000489
:1010440002F1FF3201E04FF0010440E80023012BDC
:10105400F0D0204610BC704772B60A484AF2A0018C
:10106400018009484FF0F0010170002080F30988E5
:1010740006484FF0805101604FF0010080F314885E
:1010840062B6704722ED00E01FED00E004ED00E0E1
:101094001EF0040F0CBFEFF30880EFF30980A0F1FA
:1010A400200080E8F00F394607F05CBBEFF30580C1
:1010B4007047000010B50446FFF7F8FFA0F10F02D7
:1010C400064B53F8323023B19847204607F0AAF86C
:1010D40010BD0146024806F085FCF6E71004002026
:1010E4001CA2000870B506460D461446FFF72EFFF5
:1010F400054941F8356001EBC5010A7914430C71C7
:10110400FFF72BFF70BD00BF100400201EF0040F7A
:101114000CBFEFF30880EFF30980FFF7CBBF0000AB
:1011240072B6EFF30980EFF3088100281EF0040F74
:101134000CBFEFF30883EFF309830CBF00220122F5
:10114400002868B1A3F1200383E8F00F1EF0040F18
:101154000CBF194618460CBF83F3088883F309882B
:10116400DFF878309847D0E90012836813F0010F54
:101174000CBF1046084690E8F00F203082F3088830
:1011840081F30988022B1FD013F4803F0BD1012B6C
:1011940000D019E080F309884FF0010181F314882D
:1011A4006FF0020E18E013F0020F04D14FF00301A8
:1011B40081F3148803E04FF0000181F3148880F375
:1011C40008886FF00E0E07E080F308886FF0060EB3
:1011D4004FF0000080F3148862B670472D7D00083C
:1011E40010B5044601210748FFF7FEFE0028F9D098
:1011F400204600F09BFA044600210248FFF7D9FE7E
:10120400204610BD3006002038B50C46084D00239A
:10121400C5F8B031800040F0020000F0FE00FFF796
:10122400DFFF2046FFF7DCFF0123C5F8B03138BDEE
:101234000080214210B5084C0023C4F8B03180006E
:1012440000F0FC00FFF7CCFFFF20FFF7C9FF0123EC
:10125400C4F8B03110BD00BF0080214200B583B096
:101264000121182000F0E6FC0121084600F0E2FC10
:101274004FF48053ADF8043010238DF80730032366
:101284008DF8063001A9064800F030FC054B012218
:10129400C3F8B02100F004FA03B05DF804FB00BF0A
:1012A400000C01400080214208B510B101280BD088
:1012B40008BD21B10B210420FFF7A6FFF8E70821A0
:1012C4000420FFF7A1FFF3E721B10B210C20FFF766
:1012D4009BFFEDE708210C20FFF796FFE8E738B500
:1012E4004FF4E13393FBF1F1C1F30725CCB210B114
:1012F40001280DD038BD80210320FFF785FF21464A
:101304000020FFF781FF29460120FFF77DFFF1E769
:1013140080210B20FFF778FF21460820FFF774FF98
:1013240029460920FFF770FFE4E708B5202912D009
:10133400302912D010290CD0002182B1012A11D0F9
:10134400012B15D0022B18D07BB1D8B101281ED0A7
:1013540008BD0121F1E70221EFE70321EDE721F0C8
:101364000401EDE741F00401EAE721F00801ECE7AC
:1013740021F0300141F00801E7E721F0200141F0BC
:101384001801E2E7C9B20320FFF73EFFE0E7C9B264
:101394000B20FFF739FFDBE730B585B0142000F0F0
:1013A400F6F9FFF75BFF80210120FFF72DFF1420E2
:1013B40000F0EDF980210320FFF726FF0C21002027
:1013C400FFF722FF00210120FFF71EFF0121022069
:1013D400FFF71AFF03210846FFF716FF012108460D
:1013E400FFF712FF08210420FFF70EFF80210920D8
:1013F400FFF70AFF142000F0CAF980210B20FFF741
:1014040003FF01210820FFF7FFFE00210920FFF759
:10141400FBFE01210A20FFF7F7FE03210B20FFF753
:10142400F3FE01210920FFF7EFFE08210C20FFF74E
:10143400EBFE142000F0ABF90220FFF7FBFE0A20BC
:10144400FFF7F8FE4024ADF8004048238DF8033040
:10145400144D6946284600F049FB2146284600F011
:10146400A5FB0621022000F0A3FB019400258DF8C2
:1014740008500C238DF8093001248DF80A4001A886
:1014840000F0F0F917238DF80C3002238DF80D309D
:101494008DF80E508DF80F4003A800F08BF920460C
:1014A40005B030BD0010014038B504460D4671B199
:1014B4000520FFF7BFFE10F0200FF9D014F8011B30
:1014C4000020FFF7A1FE6B1E13F0FF05F0D138BD1D
:1014D40038B504460D4671B10D20FFF7ABFE10F090
:1014E400200FF9D014F8011B0820FFF78DFE6B1EA6
:1014F40013F0FF05F0D138BD70B506460520FFF79F
:1015040099FE10F01E0414D10520FFF793FE10F08D
:10151400010FF9D00020FFF78DFE30700136013441
:10152400E4B20520FFF786FE10F0010FF2D1204649
:1015340070BD0020FFF77EFE0024F8E770B5064674
:101544000D20FFF777FE10F01E0414D10D20FFF7D5
:1015540071FE10F0010FF9D00820FFF76BFE307018
:1015640001360134E4B20D20FFF764FE10F0010FE0
:10157400F2D1204670BD0820FFF75CFE0024F8E796
:1015840010B50220FFF756FE10F0010F35D100F020
:101594003F030C2B31D8DFE803F007303030223022
:1015A4002D30303030303F000620FFF743FE044634
:1015B40001460020FFF728FE302C1ED0112C09D044
:1015C400222C1AD10020FFF735FE01460020FFF738
:1015D4001BFE12E0AA210020FFF716FE0DE02248B0
:1015E400FFF78AFF214B1B683BB182B21E490020E2
:1015F400984702E00520FFF71DFE0A20FFF71AFEB8
:1016040000F03F0310F0010F05D1062B1CD00C2B6A
:101614001ED0042B0CD010BD1348FFF76DFF134BE5
:101624001B68002BE9D082B20F4900209847E4E7F9
:101634000F48FFF783FF0F4B1B68002BEBD082B2E0
:101644000B4901209847E6E70D20FFF7F3FDE2E799
:101654000748FFF773FF074B1B68002BDBD082B2F0
:10166400034901209847D6E7F0050020E80500204B
:1016740010060020EC05002008B5402000F038F9E1
:1016840010B908BDFFF77CFF4021044800F087FA39
:101694000028F7D0402000F03BF9F2E700100140A9
:1016A40030B587B00121092000F0C4FA01214FF4BC
:1016B400804000F0CDFA4FF46045ADF81450182383
:1016C4008DF8173003238DF81630174C05A92046E2
:1016D40000F00CFA2946204600F068FA0023ADF821
:1016E40000304FF48272ADF80220ADF80430ADF84A
:1016F4000630ADF808304FF40072ADF80A2010221D
:10170400ADF80C20ADF80E300723ADF81030A4F579
:1017140054446946204600F015FB0121204600F0A0
:1017240038FB07B030BD00BF000C014038B505469A
:10173400002402210F4800F03FFB034620B9013486
:10174400E4B2C82CF5D913E029460A4800F02FFB6F
:1017540000240121074800F02FFB034620B901347F
:10176400E4B2C82CF5D903E0024800F022FBC3B26E
:10177400184638BD0038004001460139FDD1704794
:1017840008B500EB40008000FFF7F6FF08BD08B580
:101794004FF47A7303FB00F0FFF7F2FF08BD00007B
:1017A40040F0BF6040F40030014BD860704700BF88
:1017B40000ED00E0C378FBB1154BDA68D243C2F305
:1017C4000222C2F1040C0F2323FA02F2417801FA37
:1017D4000CF1837813400B431B010278DBB20D49F3
:1017E4000A4482F80033037803F01F005B090122E6
:1017F400824041F823207047037803F01F015B09FE
:1018040001228A402033034941F82320704700BF56
:1018140000ED00E000E100E008B5012000F026FA48
:10182400002000F023FA08BD82B000230193044B8A
:101834000193019B18440190019B196002B0704709
:10184400006C004082B000230193054B0193019B7F
:1018540018440190019B188880B202B0704700BF01
:10186400006C00408379002B35D010B41F4B1A68EC
:10187400016822EA01021A605A68016822EA010238
:101884005A60027902F1804202F5823211680468DA
:10189400214311609A68016822EA01029A60DA68B9
:1018A400016822EA0102DA604379102B09D003F1BE
:1018B400804303F582331A6801680A431A6010BC36
:1018C40070470A4B9A6801680A439A60DA680168AB
:1018D4000A43DA60F3E7037903F1804303F58233C3
:1018E4001A68016822EA01021A6070470004014084
:1018F400064A136803405269024202D01BB9002011
:101904007047002070470120704700BF0004014069
:10191400014B5861704700BF00040140014BD8607F
:10192400704700BF002002400B4BDB6813F0010F2F
:101934000BD1094BDB6813F0040F08D1064BDB68AD
:1019440013F0100F05D003207047012070470220C8
:1019540070470420704700BF0020024010B50446C1
:10196400FFF7E2FF02E0FFF7DFFF013C012801D1AE
:10197400002CF8D104B110BD0520FCE738B50446AD
:101984004FF43020FFF7EAFF042800D038BD0A4D99
:101994002B6943F002032B616C612B6943F0400314
:1019A4002B614FF43020FFF7D9FF2B6923F002039A
:1019B400DB04DB0C2B61E9E70020024070B5044630
:1019C4000D464FF40050FFF7C9FF042800D070BD46
:1019D400084E336943F00103336125804FF400500E
:1019E400FFF7BCFF336923F00103DB04DB0C336135
:1019F400EDE700BF00200240436882681343C268D9
:101A04001343026913434269134382691343C2694E
:101A14001343026A1343426A1343826A1343C26A3A
:101A24001343026B016813434FF0204242F8213004
:101A34008368082B25D0426B1368516843EA01136D
:101A4400916843EA0123D16843EA0143116943EAF7
:101A54000153516943EA01639169026801320B43FE
:101A64004FF0204141F82230C36AB3F5804F10D0C3
:101A740003689B0003F120436FF07042C3F8042114
:101A84007047016852F8213043F0400342F8213096
:101A9400D1E7826B1368516843EA0113916843EA02
:101AA4000123116943EA0153516943EA01639169CE
:101AB40002680B43920002F12042C2F804317047DD
:101AC40041B14FF0204252F8203043F0010342F874
:101AD400203070474FF0204252F82010024B0B4048
:101AE40042F82030704700BFFEFF0F0030B5CB78BE
:101AF40003F00F02964613F0100F03D091F802E0A2
:101B04004EEA020E0B7803B30468002301E042613D
:101B14000133072B18D801229A40B1F800C032EAE9
:101B24000C05F5D14FEA830C0F2505FA0CF524EAD0
:101B340005040EFA0CFC4CEA0404CD78282DE6D0FA
:101B4400482DE5D10261E3E704600B88FF2B25D91A
:101B54004468002303E0CD78482D1CD00133072BC3
:101B64001BD803F1080C012202FA0CF2B1F800C0F0
:101B740032EA0C05F2D14FEA830C0F2505FA0CF575
:101B840024EA05040EFA0CFC4CEA0404CD78282D52
:101B9400E1D14261DFE70261E0E7446030BD836880
:101BA400194201D00120704700207047016170473D
:101BB40010B401F0030292000F2404FA02FC890815
:101BC400074B023153F8214024EA0C0443F8214026
:101BD40053F821409040044343F8214010BC70471F
:101BE40000000140014B1862704700BF00000E4224
:101BF400014BC3F88004704700004242024A136A52
:101C040003431362704700BF00100240014BC3F846
:101C14003C0470470000424221B1054A536918430D
:101C240050617047024A536923EA000050617047CB
:101C34000010024021B1054A93691843906170472E
:101C4400024A936923EA0000906170470010024041
:101C540021B1054AD3691843D0617047024AD36958
:101C640023EA0000D061704700100240014BC3F822
:101C740040047047000042424309012B0CD0022B60
:101C84000DD0094B5A6A00F01F00012303FA00F03B
:101C9400104207D018467047034B1A68F3E7024B0B
:101CA4001A6AF0E7002070470010024029B1064A82
:101CB40013889BB2184310807047034B1A88C043A3
:101CC40080B210401880704700280040034A93886F
:101CD4009BB243F010039380704700BF002800407C
:101CE400034A93889BB223F010039BB293807047FE
:101CF4000028004010B50446FFF7E8FFC4F3034290
:101D0400034B1A81A4B29C81FFF7EAFF10BD00BF08
:101D140000280040024B9B8813F0200FFAD0704734
:101D240000280040064A93889BB223F008039BB224
:101D34009380034B9B8813F0080FFAD0704700BFC1
:101D4400002800402DE9F041038803F441520F8834
:101D5400B1F802808E88CD880C89B1F80AE0B1F818
:101D64000CC0CB8947EA08073E4335432C434EEA6F
:101D7400040E4CEA0E0C43EA0C0313430380838BDA
:101D84009BB223F400639BB283830B8A0382BDE876
:101D9400F08129B103889BB243F04003038070476C
:101DA40003889BB223F040039BB203807047818178
:101DB4007047808980B270470389194201D001209D
:101DC400704700207047000003889BB2214A90426C
:101DD40012D002F5006290420ED0B0F1804F0BD0C9
:101DE400A2F59832904207D002F58062904203D067
:101DF40002F58062904203D123F070034A881343B2
:101E0400154A904208D002F58062904204D023F42F
:101E140040739BB2CA88134303808B8883850B88E5
:101E240003850C4B98420FD003F5006398420BD006
:101E340003F54063984207D003F58063984203D0CA
:101E440003F58063984201D10B7A038601238382D0
:101E5400704700BF002C01400010004029B10388E6
:101E64009BB243F001030380704703889BB223F0C5
:101E740001039BB20380704722B183899BB219434B
:101E8400818170478389C94389B219408181704730
:101E9400028A83890B40114202D01BB9002070478B
:101EA4000020704701207047C94389B201827047FE
:101EB4007047FEE7FEE7FEE7FEE7704782B00023C7
:101EC400019300932C4A136843F4803313602A4B24
:101ED4001B6803F400330093019B01330193009BBF
:101EE4001BB9019BB3F5A06FF1D1234B1B6813F40D
:101EF400003F06D001230093009B012B04D002B0C5
:101F0400704700230093F7E71C4B1A6842F0100255
:101F14001A601A6822F003021A601A6842F0020278
:101F24001A60A3F580535A685A605A685A605A680E
:101F340042F480625A605A6822F47C125A605A68E9
:101F440042F4E8125A601A6842F080721A600A4B2E
:101F54001B6813F0007FFAD0074B5A6822F0030283
:101F64005A605A6842F002025A60034B5B6803F0FD
:101F74000C03082BF9D1C2E70010024000200240F4
:101F840008B5FFF79BFF08BD08B5104B1A6842F06F
:101F940001021A6059680E4A0A405A601A6822F00F
:101FA400847222F480321A601A6822F480221A6041
:101FB4005A6822F4FE025A604FF41F029A60FFF737
:101FC400DFFF044B4FF000629A6008BD001002402E
:101FD4000000FFF800ED00E0104B9B8813F0010FA8
:101FE40002D00F4B00221A600C4B9B8813F0020F97
:101FF40006D00A4A93889BB223F002039BB29380D3
:10200400064A938823F005031B051B0D9380034B9D
:102014009B8813F0200FFAD0704700BF00280040BF
:102024003406002010F0030F14D10D4BA3FB002342
:102034005B09642202FB13039BB26BB9084BA3FB3D
:102044000023DB094FF4C87202FB130080B228B9E5
:10205400012070470020704701207047002070471E
:102064001F85EB512DE9F04798469DF82070A0F2AA
:10207400B2739BB2812B6ED806468A4691460024E1
:1020840040F2B27507E004F1F07404F5993404F5F4
:10209400C0740135ADB2B54209D22846FFF7C2FF7C
:1020A4000028F0D004F1F17404F50544F1E70AF1D5
:1020B400FF3A5FFA8AFA002501E00135ADB21FFA52
:1020C4008AF3AB4210D9254B5B5D254A02FB0344DE
:1020D4003046FFF7A7FF0028EFD0012DEDD104F51E
:1020E400A83404F5C074E8E709F1FF391C4B03FB7D
:1020F40009444FF4616303FB0844C7EB071704EB7F
:1021040087049DF824301C44164BDA6942F080524F
:10211400DA61DA6942F00062DA61134A136843F45F
:1021240080731360A2F5904293889BB243F010032E
:102134009380A3B29383240C148393889BB223F0DB
:1021440010039BB29380094B9B8813F0200FFAD0A5
:102154000020BDE8F0874FF0FF30FAE72CA200081A
:10216400805101000010024000700040002800402F
:1021740010B584B001214FF0C050FFF769FD012074
:10218400FFF730FD0120FFF733FD0420FFF75AFB72
:1021940045F2500398423DD0FFF73EFB002404E093
:1021A4000134E4B20A20FFF7F2FA6120FFF764FD7C
:1021B4000028F5D0F92C01D9012047E04FF4007034
:1021C400FFF71CFD0120FFF721FDFFF7A3FDFFF73B
:1021D400A9FD01210846FFF769FDFFF79BFDFFF705
:1021E40075FD49F64040FFF785FDFFF793FD002399
:1021F4000193122300930D231B22022140F2E67067
:10220400FFF730FFFFF76CFD45F250010420FFF7A4
:102214000BFB07E0FFF786FD01210846FFF746FDAB
:10222400FFF778FD002204210948FEF75BFF032332
:102234008DF80C3001238DF80D3000248DF80E40FC
:102244008DF80F3003A8FFF7B5FA204604B010BD8F
:10225400DD1F0008124BDA6942F08052DA61DA6954
:1022640042F00062DA610F4A136843F4807313602A
:10227400A2F5904293889BB243F01003938083B2FB
:102284009383000C108393889BB223F010039BB2BA
:102294009380054B9B8813F0200FFAD0704700BF42
:1022A400001002400070004000280040034B188BCF
:1022B4009B8B9BB203EB0040704700BF002800409B
:1022C400054B1B68B3F57A7F02D8034B1868704737
:1022D4004FF47A70704700BF3406002010B598B0F0
:1022E40001214FF4F070FFF7A5FC01214FF4807039
:1022F400FFF792FC4FF63373ADF8043018238DF8D2
:10230400073003248DF8064001A92048FFF7EEFBAF
:102314004FF68373ADF8043001A91D48FFF7E6FBBF
:102324004FF23F03ADF8043001A91A48FFF7DEFB72
:1023340040F23F43ADF8043001A91748FFF7D6FB3C
:10234400002302930393049405930693079308933D
:10235400042409940A930B9310220C920D930F9367
:102364000E93109311934FF480521292139314937B
:10237400159302AB1693179309A8FFF73DFB0121B0
:102384002046FFF79DFB18B010BD00BF00140140AC
:1023940000180140001C014000200140002304E01B
:1023A4009A0002F1D04213600133B3F5802FF7DBBA
:1023B4000023B3F5802F07DA9A0002F1D0421268A5
:1023C4009A4203D10133F4E7002070474FF0FF3005
:1023D4007047000008B501210648FFF759FD00B910
:1023E40008BD054A13680133136001210148FFF752
:1023F4005BFDF5E7000400403406002070B584B0AE
:1024040005460C4601210220FFF722FCADF80850D6
:10241400ADF804400024ADF80A40ADF80640114D73
:1024240001A92846FFF7D0FC012211462846FFF7F0
:1024340023FD1D238DF8003003238DF801308DF822
:10244400024001268DF803606846FFF7B3F9314670
:102454002846FFF703FD22461E210348FEF742FEED
:1024640004B070BD00040040D92300080B480C4997
:102474000C4A002302E0D458C4500433C4188C42DC
:10248400F9D3094A094C002301E013600432A24243
:10249400FBD3FFF779FD07F0AFFC70470000002085
:1024A400FC03002080A800080004002040D900207C
:1024B40038B50446094D0A4B6B6003F188336B60F1
:1024C4003420FFF72BFA04F580304030C002FFF7C8
:1024D40055FA2B6943F080032B6138BD002002407C
:1024E4002301674500B583B0002001F0B5F9002849
:1024F40011DB4FF40063019303230093C0230B4AC1
:102504000B49002001F038FA00280CDB094B18684D
:1025140003B05DF804FB00220749084801F0E9FF15
:102524004FF0FF30F4E74FF0FF30F1E704000020F4
:1025340044A2000838060020FF01030038A2000866
:1025440008B50349034B186801F04CFA08BD00BFF5
:1025540044A2000838060020F8B505460F46164682
:10256400002407E037F814102846FFF727FA02354D
:102574000134A4B2B442F5D3F8BD000010B5094C3F
:10258400094B636003F18833636000F580304030A9
:102594004FF48062C002FFF7DFFF236943F080033A
:1025A400236110BD0020024023016745008880B2EA
:1025B4007047F8B505460F461646002407E028463E
:1025C400FFF7F4FF27F8140002350134A4B2B44233
:1025D400F5D3F8BD08B500F5803040304FF4806283
:1025E400C002FFF7E6FF002008BD18467047000050
:1025F40008B5064A0649062001F080F9002801DBE7
:10260400002008BD4FF0FF30FBE700BF10000020A2
:102614004CA2000810B510461C461A46002106F0CC
:102624002EFF204610BD000008B50349062001F026
:1026340083F9002008BD00BF4CA2000809890023CB
:10264400024A42F82130024A1360704740060020D3
:102654003C06002030B583B00446002505E0012186
:102664000DF10700FEF720FF01350DF1070104F518
:10267400A67000F069FD002808DBE36A002BEED1A8
:1026840001210DF10700FEF723FFEDE7284603B013
:1026940030BD00002DE9F0410E461546012806D054
:1026A40050B90D4BD3F8008008F1440704E00A4BFD
:1026B400D3F8048008F14407002404E0315D38466F
:1026C40000F0E4FC0134A542F8DCD8F8400005F041
:1026D400A7FBBDE8F08100BF4006002038B51C68A8
:1026E400C16A002B00F0B18041B90125012A07D04D
:1026F400022A00F0A3806FF02500A8E00025F5E78A
:1027040041F20F03234024D00F2B11D9B3F5805F7E
:102714001FD9A3F58053013B0E2B1AD8DFE803F031
:1027240044194A50565B60666B70757A7F848900E1
:102734000F2B0ED8DFE803F08C8C8C8C8C8C8C8C5B
:102744008C8C8C0820262C324FF416612846FEF718
:10275400C6FDC4F30023C4F3801204F030012846FC
:10276400FEF7E3FDE10F2846FEF79EFD3A4B43F8E2
:1027740025406FF025006AE04FF496512846FEF795
:10278400AEFDE6E74FF416512846FEF7A8FDE0E754
:102794004FF496412846FEF7A2FDDAE74FF41641BE
:1027A4002846FEF79CFDD4E74FF461412846FEF726
:1027B40096FDCEE74FF461312846FEF790FDC8E759
:1027C4004FF4E1212846FEF78AFDC2E72349284653
:1027D400FEF785FDBDE722492846FEF780FDB8E7F0
:1027E4004FF461212846FEF77AFDB2E71D492846D9
:1027F400FEF775FDADE71C492846FEF770FDA8E716
:102804001A492846FEF76BFDA3E719492846FEF747
:1028140066FD9EE717492846FEF761FD99E71649CC
:102824002846FEF75CFD94E714492846FEF757FD59
:102834008FE713492846FEF752FD8AE7064A52F805
:1028440025201A606FF0250001E06FF0150038BDF7
:102854006FF02500FBE700BF4806002020A1070019
:1028640000CA080040420F000094110060E3160003
:1028740080841E00A0252600C0C62D00E067350018
:1028840000093D00174B1B680BB10020704770B561
:1028940004460D460126134B1E60FEF77DFD124BC8
:1028A400124A1A60002218211148FEF71BFCE36A41
:1028B4009B1B18BF01230F4A42F82340A1680E4A0C
:1028C40042F823100D49A1630D4961630D49E16389
:1028D40002EB8303324629462046FFF7FFFE002021
:1028E40070BD00BF3C060020EC05002099260008BE
:1028F4007D160008400600204806002059260008DE
:1029040041260008E126000880B2052805DC4FF4C2
:102914005A72034B02FB003070470020704700BF1F
:102924009806002010B58868040C042C14D11FFAF2
:1029340080FCBCF1050F12DC4FF45A740C4804FB04
:102944000C0090F866436CB10CEB4C0C094C54F839
:102954002C4054B1A04710BD6FF01200FBE76FF09C
:102964001200F8E76FF01200F5E76FF01200F2E7DB
:10297400980600205006002010B58868040C042C2A
:1029840016D11FFA80FCBCF1050F14DC4FF45A7405
:102994000D4804FB0C0090F866437CB10CEB4C0C26
:1029A4000A4C04EB8C0CDCF8044054B1A04710BD75
:1029B4006FF01200FBE76FF01200F8E76FF01200FF
:1029C400F5E76FF01200F2E79806002050060020A9
:1029D40038B58C68220C042A16D1A4B2052C13DC59
:1029E4004FF45A730E4803FB040090F866335BB14E
:1029F400012B0AD00A4B4FF45A7202FB043393F8AA
:102A04006623013A83F8662338BD0546436B98472D
:102A1400002129632422284606F031FDEAE700BF9D
:102A240098060020F0B585B0044617461E4623E0FC
:102A3400294B5B6A01930023029304F1400501A929
:102A4400284605F003FA05F08DF805F059F801A9B8
:102A5400284605F009FA05F033F80DE020469847BA
:102A640094F86533D3B9E26A1C4B4FF45A7101FBF5
:102A740002339B6B20469847D4F84411D4F848316C
:102A8400C91A11F0FF0FD3D0E16A01EB4101144BD5
:102A940003EB81018B68002BE0D1E1E7002584F88A
:102AA400655303E09DF80F307B550135B54207DAD5
:102AB4000DF10F0104F5157000F046FB0028F1DA62
:102AC400E26A064B4FF45A7101FB02339B6B2046BA
:102AD4009847284605B0F0BDA0290020980600209C
:102AE4005006002070B505460C46466816F0010FE6
:102AF4001AD016F0020F07D0084606F0ACFE18B143
:102B0400204606F047FEC4B216F0040F01D00A2C8A
:102B140010D06B6813F0080F01D00D2C10D013F4F3
:102B2400C05F01D0092C15D0214605F5A67000F030
:102B3400ADFA70BD0D2105F5A67000F0A7FAE8E71F
:102B440013F0200F04D00022C5F85C230A24E6E722
:102B54000A24E4E72024E7E7F8B5054617461E46AD
:102B6400002404E0395D2846FFF7BCFF0134B44279
:102B7400F8DBAB6B284698472046F8BD30B583B0E8
:102B8400044600F515750A21284600F09CFA10B990
:102B9400002003B030BD0DF10701284600F0B5FA5E
:102BA4000028F5DB08212046FFF79CFF2021204662
:102BB400FFF798FF08212046FFF794FFD4F85C3311
:102BC400002BE5DD013BC4F85C33E1E7F0B583B0ED
:102BD4000446C36813F0020F40F0C78003B0F0BD91
:102BE400002104F5157000F051FABEE0236813F0DB
:102BF400200F05D09DF8073003F07F038DF80730D0
:102C0400236813F0800F4ED09DF807300D2B00F091
:102C1400AC80236803F4C073B3F5807F4ED023687F
:102C240013F4007F0AD09DF80750284606F025FECD
:102C340020B1284606F0A8FD8DF80700E56815F0D8
:102C4400080F00F0C58015F4007F11D09DF80770BF
:102C5400384606F0F3FD58B1637E9F4208D0A37E48
:102C64009F4205D0092F03D00A2F01D0252F2DD93B
:102C740015F0020F3FD015F0100F04D0E27C9DF840
:102C840007309A422ED015F4006F2FD115F0200F83
:102C940031D0227D9DF807309A422CD10A2120465A
:102CA400FFF720FF61E013F0400FB2D09DF807302A
:102CB4000A2BAED10D238DF80730AAE79DF8073013
:102CC4000D2BACD10A238DF80730A8E75E212046EE
:102CD400FFF708FF9DF807104031C9B22046FFF7FF
:102CE40001FF0DE02046FFF749FF3EE0227D9DF8FD
:102CF40007309A426AD09DF807102046FFF7F2FE8B
:102D0400E76817F0010F0BD0627C9DF807309A42F8
:102D14006AD0A27C934276D0E27E934200F0828015
:102D24009DF80750284606F089FD002840F085806C
:102D3400D4F85C330133C4F85C3317F0020F0FD0BE
:102D44000A2D00F08180237F9D427DD094F82130AC
:102D54009D4279D0637D9D4276D0002384F865330B
:102D6400294604F5157000F091F904F144060DF1BB
:102D74000701304600F0E8F9B0F1FF3F3FF42EAF11
:102D840094F86433002B3FF431AF236813F0040F3D
:102D9400EBD113F0080F3FF423AF04F51575FF21B1
:102DA400284600F073F90021284600F06FF99DF8D9
:102DB4000710284600F06AF9D7E72046FFF7DEFE41
:102DC4000135D4F85C33AB42F7DCCEE70025F8E7F5
:102DD40005F04205422D93D19DF807100A298FD1A1
:102DE4002046FFF77FFE8BE7022005F085F8E368B5
:102DF40013F0800FB9D104F5A67000F03BF930460A
:102E040000F038F9B1E7032005F076F8E36813F031
:102E1400800FAAD104F5A67000F02CF9304600F01A
:102E240029F9A2E7142005F067F8E36813F0800F8E
:102E34009BD1304600F01EF997E70A2D7FF47DAF51
:102E44000023C4F85C3378E7637D9D4203D10123FA
:102E540084F86533C2E6294604F5157000F016F9C6
:102E6400F5E7000010B50C4624220021204606F0A8
:102E740006FB1322084904F1110006F0D5FA4FF4B9
:102E84008853236041F60503636041F6B243A360AF
:102E940048F63B23E36010BD08A20008F8B5438A56
:102EA4001A1F012A2AD80E46052B1AD0048A052C8B
:102EB40027DC4FF45A73144D03FB0455134B2B6357
:102EC40095F866338BB1104B4FF45A7202FB0433FE
:102ED40093F86623013283F86623DC621C740020B5
:102EE400F8BD4FF480238B60E0E729460020FFF70C
:102EF400B9FF2B6B314628469847E4E76FF0120080
:102F0400EEE76FF01200EBE798060020892800082E
:102F14008868002B51D0F0B583B00E4614461F4686
:102F2400FFF7F2FC054600284AD0A4F5A842013A6E
:102F3400132A48D8DFE802F00A1B474747474747A8
:102F4400474747474747474747472A30C46B3CB141
:102F540001AB02223146A047002801DB019BAB6094
:102F640012222946384606F05FFA00202CE012228D
:102F7400394606F059FAAB680193EC6B34B301ABF4
:102F8400012231462846A04700201DE0243503CD08
:102F940038607960002017E07A88C38C9A4203D1A4
:102FA4003A88838C9A4202D01C2004F0A5FF243571
:102FB4003868796803C5002006E06FF01500704793
:102FC4006FF0180000E0002003B0F0BD0020FBE724
:102FD400052816D808B549B100EB40000A4B03EBAD
:102FE400800307C983E80700002008BD00EB400008
:102FF4000C220021044B03EB800006F040FA002071
:10300400F3E76FF0150070475006002008B50D492E
:103014000020FFF7DDFF0C4A0C49042000F06EFC91
:10302400002808DB084A0949052000F067FC00284D
:1030340004DB002008BD4FF0FF30FBE74FF0FF300A
:10304400F8E700BF380000204400002054A2000824
:1030540010B500210846FFF7BBFF054C21460420AC
:1030640000F06AFC2146052000F066FC002010BD3B
:1030740054A2000810B50446FDF768FF0023C4F805
:103084000031C4F80431FDF768FF10BD38B50446BB
:103094000D46FDF75BFFD4F800114B1C5A42DBB21E
:1030A400D2B258BF5342D4F80421934206D0655497
:1030B400C4F80031FDF751FF002038BDFDF74DFF86
:1030C4004FF0FF30F9E738B504460D46FDF73EFFF3
:1030D400D4F80031D4F8042193420CD0FF335A427F
:1030E400DBB2D2B258BF5342E35CAB4208D1FDF726
:1030F40034FF002038BDFDF730FF4FF0FF30F9E713
:10310400FDF72BFF4FF0FF30F4E738B504460D46CA
:10311400FDF71CFFD4F80031D4F8042193420ED0FB
:10312400FF335A42DBB2D2B258BF5342C4F8003123
:103134000DB1E35C2B70FDF710FF002038BDFDF7E7
:103144000CFF4FF0FF30F9E738B504460D46FDF7A4
:10315400FDFED4F80021D4F804319A4210D00DB108
:10316400E35C2B70D4F8043101335A42DBB2D2B29F
:1031740058BF5342C4F80431FDF7EFFE002038BDB8
:10318400FDF7EBFE4FF0FF30F9E7000010B5044601
:103194000A4B1B783BB1204606F007FAC1B2204621
:1031A400FEF796F910BD002218210548FDF79AFF95
:1031B400FEF7F2F8014B01221A70ECE7081B00201D
:1031C4007D160008F0B583B007460E4601A900F04D
:1031D40057FB0546384600F037FC4FF0FF3000231C
:1031E40001E018460133019A9A4210D903EB4302D5
:1031F400D10005EBC204227DD209F2D06A58B24252
:10320400F0D1384600F030FC204603B0F0BDB0F1F8
:10321400FF3F0BD000EB400005EBC0048023237577
:1032240045F83060384600F01FFCEDE7384600F002
:103234001BFC0024E8E7000030B583B004460F4BC4
:103244005B6A00930023019300F110056946284648
:1032540004F0FCFD01E004F053FC04F083FC04F1F1
:103264000C00FDF7AEFE0028F5D16946284604F0AF
:10327400FBFD04F025FC03B030BD00BFA0290020F5
:103284002DE9F04180460F46164601EB4100C0008F
:1032940006F004FFC8F80000F0B10025BD4212D2C8
:1032A400D8F8004005EB450304EBC30418220021C1
:1032B400204606F0E4F8304606F0F0FEA06010B1B7
:1032C40066600135EAE715B12846BDE8F081D8F813
:1032D400000006F017FFF7E74FF0FF30F5E710B5F1
:1032E40004460C30FDF76DFE00B910BD2046FFF713
:1032F400A3FFFAE710B50446FFF7F1FF012104F13B
:103304000C00FDF756FE10BD10B5044600210C302C
:10331400FDF74FFE206904F083FD10BD2DE9F04355
:1033240083B0074600F0CEFA00284BD0804601A9AE
:10333400384600F0A5FA0646002846D0384600F084
:1033440083FB00250BE087222149224804F06AFB15
:103354001FE0002323752046FFF7D6FF0135019BAC
:10336400AB4228D905EB45044FEAC40906EBC40473
:10337400237DDB09F2D12046FFF7BCFF237D13F048
:10338400010F06D0D8F8083056F8090098470028ED
:10339400D9DB237D13F0020FDBD0D8F80030A1680D
:1033A40056F8090098470028D3DA8C2208490948BE
:1033B40004F038FBCDE7384600F056FB002003B09C
:1033C400BDE8F0834FF0FF30F9E74FF0FF30F6E748
:1033D40090A2000858A2000808B5836A9868FFF70D
:1033E4009DFF08BDF0B583B0064600F06BFA0746B2
:1033F40040B101A9304600F043FA0546304600F0DA
:1034040023FB18E052222649264804F00BFBF0E780
:1034140006F03EF84042019BB0FBF3F203FB1203BB
:1034240003EB430305EBC30404F10C00FDF7C9FDF2
:1034340040B104F065FB06F02BF80028E8DB06F049
:1034440027F8E8E72046FFF755FF237D13F0020F26
:103454000AD0BB6820689847002810DB7B68A16805
:1034640020689847002812DB002323752046FFF7C5
:103474004BFF304600F0F8FA204603B0F0BD0023BD
:10348400237564220649074804F0CCFAE6E70023D2
:10349400237568220249034804F0C4FAE4E700BF34
:1034A40080A2000858A200082DE9F04782B08046A7
:1034B4000F4600F007FA002849D0814601A940468A
:1034C40000F0DEF90646404600F0BEFA00250DE0A5
:1034D40000232375E0222049204804F0A3FA23E0C6
:1034E400002323752046FFF70FFF0135019BAB42F4
:1034F4002AD905EB45044FEAC40A06EBC404237D2C
:10350400DB09F2D056F80A30BB42EED12046FFF771
:10351400F1FE237D13F0020FE2D0D9F8083056F8FB
:103524000A0098470028D3DBD9F80430A16856F87C
:103534000A0098470028D3DA00232375E4220649B9
:10354400064804F06FFACBE7404600F08DFA0020FD
:1035540002B0BDE8F08700BF78A2000858A20008B6
:103564002DE9F04782B006460D4690461F46DDF829
:10357400289000F0A7F9824658B101A9304600F01E
:103584007FF980B940F203122849294804F04AFA25
:1035940009E0FF222549264804F044FAEDE72946CC
:1035A4003046FFF71FFF29463046FFF70BFE04465F
:1035B4000028F4D0FFF79EFE2368AB4203D02046D8
:1035C400FFF7A2FEEFE717B963684B4522D0237DCE
:1035D40013F0040F08D1DAF80030A16828469847A0
:1035E400237D43F00403237507EB090263689A42C1
:1035F40015D8A0684A464146384405F015FF237D96
:1036040043F0020323752046FFF77EFE002002B03C
:10361400BDE8F087237D43F004032375E4E740F21B
:1036240021120249024804F0FDF9E2E774A20008FD
:1036340058A200082DE9F04782B006460D46904690
:103644001F46DDF8289000F03DF9A0B1824601A99B
:10365400304600F015F9B8B129463046FFF7B2FDFF
:103664000446D0B1FFF746FE2368AB421AD0204689
:10367400FFF74AFEF0E740F23B121D491D4804F0F3
:10368400D1F94FF0FF3029E04FF4A07218491948DE
:1036940004F0C8F94FF0FF3020E029463046FFF728
:1036A400A1FED9E7237D13F0040F08D1DAF8003026
:1036B400A16828469847237D43F00403237507EB4C
:1036C400090263689A420CD8A1684A4639444046C4
:1036D40005F0AAFE2046FFF717FE002002B0BDE861
:1036E400F0874FF4AD720249024804F09BF9EBE70E
:1036F40070A2000858A200082DE9F04182B00646E5
:103704000D4617460023019300F0DCF8804658B1BB
:1037140001A9304600F0B4F888B940F273121B498D
:103724001B4804F07FF90AE040F26F121749184869
:1037340004F078F9ECE729463046FFF753FE2946B2
:103744003046FFF73FFD04460028F4D0FFF7D2FDD2
:103754002368AB4203D02046FFF7D6FDEFE7237D75
:1037640013F0040F08D1D8F80030A1682846984710
:10377400237D43F0040323751FB1237D43F002032B
:103784002375204602B0BDE8F08100BF68A200089E
:1037940058A2000818B108B5FFF7B6FD08BD704778
:1037A40008B5438A092B0AD803EB4303064A02EB04
:1037B40083035B684B61DB6923B1984708BD6FF0F5
:1037C4001200FBE70020F9E79C1C002008B5438A9F
:1037D400092B0AD803EB8303064A02EBC3035B6895
:1037E4004B61DB6923B1984708BD6FF01200FBE71A
:1037F4000020F9E70C1B002030B583B00446144BBD
:103804005B6A00930023019300EB8005ED0005F152
:103814002003104D1D4404356946284604F016FB68
:1038240001E004F06DF904F09DF904EB8403DB007E
:10383400203308481844FDF7C4FB0028F1D1694639
:10384400284604F011FB04F03BF903B030BD00BF7F
:10385400A02900200C1B002009280BD800EB8000B5
:10386400064B03EBC00043690BB9002070474FF0CF
:10387400FF3070474FF0FF30704700BF0C1B002033
:1038840009280CD8074B00EB800203EBC2029269B3
:103894000A6000EB800003EBC00000697047002061
:1038A400704700BF0C1B0020092806D800EB8000DD
:1038B400034B03EBC000C06970470020704700BF92
:1038C4000C1B0020092806D800EB8000034B03EBF7
:1038D400C000406970470020704700BF0C1B0020E7
:1038E400092806D800EB8000034B03EBC000C06836
:1038F40070474FF0FF3070470C1B0020092812D886
:1039040010B400EB40030B4C04EB83035B686BB90E
:10391400234600EB400443F8241003EB8400426088
:10392400002010BC70476FF0150070476FF00F0057
:10393400F7E700BF9C1C0020092815D810B50446E1
:1039440000EB40030B4A52F8230005F019FE70B94E
:10395400084B04EB440292000021995004EB440408
:1039640003EB8404616010BD6FF0150070476FF0C5
:103974001500F8E79C1C00202DE9F041079F092859
:1039840024D804460E461546984600EB8003144A94
:1039940002EBC3035B69E3B900EB8000C0001030A5
:1039A4003A4606990E4B1844FFF76AFCA0B10C4B3B
:1039B40004EB840103EBC102C2F80C80906143F86C
:1039C40031605561D7610020BDE8F0816FF01500CA
:1039D400FAE76FF00F00F7E74FF0FF30F4E700BFAE
:1039E4000C1B0020092815D810B5044600EB8003F1
:1039F4000B4A52F8330005F0C3FD70B9084B04EBD1
:103A04008402D2000021995004EB840403EBC40423
:103A1400616110BD6FF0150070476FF01500F8E795
:103A24000C1B002010B5044600EB8003DB002033A0
:103A340004481844FDF7C5FA00B910BD2046FFF745
:103A4400DBFEFAE70C1B002010B50446FFF7EAFF83
:103A540004EB8404E4002034012102482044FDF7EF
:103A6400A8FA10BD0C1B002070B50446084D860052
:103A740000EB8000C000203000212844FDF799FAB3
:103A8400344405EBC405686A04F0CAF970BD00BF8C
:103A94000C1B002038B5074D074BED1AED08002428
:103AA40004E0054B53F8343098470134AC42F8D362
:103AB40038BD00BF08A20008F0A10008072831D8CB
:103AC4008C461E4B5A6AC0EBC00302EB830393F887
:103AD400983553B307292BD8BCF1070F09D8CCEB81
:103AE400CC0302EB830393F8983513B90CF1010C62
:103AF400F2E7BCF1070F1ED810B5CCEBCC0402EBF7
:103B04008404C0EBC00002EB800204F5B06402F54B
:103B1400B06EBEE80F000FC49EE8070084E80700FB
:103B2400604610BD6FF0080070476FF008007047E2
:103B34006FF0150070476FF017007047A029002040
:103B440007281AD838B505460C46124B5B6AC0EBF9
:103B5400C00203EB820393F898358BB188420AD0F4
:103B6400082910D812D0084600F0CEFE2146284677
:103B7400FFF7A4FF38BD0846FCE76FF00800704764
:103B84006FF00800F6E76FF00800F3E76FF0080045
:103B9400F0E700BFA029002008B50021FFF78EFF41
:103BA40008BD000007280BD8084B5B6AC0EBC000B7
:103BB40003EB800090F898352BB16FF02500704727
:103BC4006FF0080070476FF008007047A0290020CC
:103BD4000C4B1B68012B11DC70B50E460133094DEB
:103BE4002B60094C8022014604EBC31005F0FAFC5B
:103BF4002B6804EBC3143460002070BD4FF0FF3019
:103C0400704700BF34010020181D0020034B1B68BF
:103C1400002B02DB013B014A136070473401002092
:103C240038B50546002400E001340B4B1B68A34261
:103C34000FDD04EB84032946084A52F8230005F0FB
:103C44009FFC0028F0D104EB8404044800EB8400BA
:103C540000E0002038BD00BF380100203C010020F6
:103C640000B583B00D4B5B6A009300230193694652
:103C74000B4804F0EBF801E003F042FF03F072FF9D
:103C84000848FDF79EF90028F6D16946044804F077
:103C9400EBF803F015FF03B05DF804FBA029002046
:103CA400981E00209C1E002030B583B004460F4BA4
:103CB4005B6A00930023019300F1180569462846C6
:103CC40004F0C4F801E003F01BFF03F04BFF04F120
:103CD4001C00FDF776F90028F5D16946284604F062
:103CE400C3F803F0EDFE03B030BD00BFA0290020EF
:103CF40008B5024804F094F808BD00BF981E0020DF
:103D040010B51348FDF75DF968B100241F2C0DD8D8
:103D1400C4EBC403DB0020330E481844FDF776F9E6
:103D240038B90134F2E7FFF79BFFEEE7FFF798FF9E
:103D3400EBE70748FDF72DF9C4EBC404054B03EB8F
:103D4400C40438220449204605F06EFB204610BD09
:103D540050010020A01E00205401002070B506462A
:103D6400002400E001341F2C1BD8C4EBC403DB0087
:103D740020330D4D1D442846FDF723F90028F1D0CA
:103D8400C4EBC403084A02EBC3039B68B342E9D102
:103D94002846FDF7EDF8C4EBC404034800EBC40067
:103DA40000E0002070BD00BFA01E002010B500F18F
:103DB40020042046FDF73DF92046FDF702F900B145
:103DC40010BDFFF795FF0248FDF7D2F8F8E700BFF2
:103DD4005001002010B504461C30FDF7F2F800B97C
:103DE40010BD2046FFF760FFFAE750B338B504462C
:103DF400FFF7F0FF04F120052846FDF7E2F818B3B9
:103E04002846FDF7DEF8012816D8A36A3BB11B6AE1
:103E14002BB15B691BB1E2680AB920469847A36AD3
:103E24002BB11B6A1BB11B690BB120469847204676
:103E3400FFF7BCFF002038BD2046FFF7B7FF002086
:103E4400F9E74FF0FF3070474FF0FF30F3E7F8B574
:103E540007460C460846FFF781FF064658B14469F9
:103E64003CB104F12000FDF783F83046FFF7BDFFB5
:103E740026463046F8BDFFF743FF054601212030B2
:103E8400FDF797F8002105F11C00FDF792F80023D7
:103E94006B60AB61AF62AC60EB603B6A1B68284649
:103EA4009847044638B13B6A9B68284698470028DF
:103EB40006DB2E46DDE72846FFF778FF2646D8E7DF
:103EC4003B6A5B68284698472846FFF76FFFD0E7B0
:103ED40010B50446FFF77EFF012104F11C00FDF735
:103EE40068F810BD10B5044600211C30FDF761F8D8
:103EF400A06903F095FF10BD072824DC10B58446A3
:103F04008E461346174A546AC0EBC00204EB820281
:103F140092F89825D2B1C0EBC000800000F5B060E3
:103F24002118CCEBCC0204EB8202D2F8900580B1CC
:103F3400D2F8942582B154698CB17246A047002806
:103F440000DB002010BD6FF0080070476FF0080020
:103F5400F8E76FF01500F5E76FF01500F2E76FF082
:103F64001500EFE7A029002030B583B00C46844645
:103F740050B149B1C96A99B1CD6A8DB10699009120
:103F84002146A84703B030BD6046FFF72EFF204608
:103F9400FFF72BFF0023069A13606FF00100F1E78F
:103FA4006046FFF722FF069B1C600020EAE7000042
:103FB4002DE9F0411D4600232B6000283ED00E461B
:103FC40014460746022A0ED0FB6A73B3D3F808805E
:103FD400B8F1000F29D074B32B4622463146384637
:103FE400C047BDE8F0810B782E2BEDD14B782E2BFA
:103FF400EAD1154B5B6AD3F86036834212D0D0F80D
:104004002880B8F1000FDFD0D8F814308342DBD118
:10401400FFF7EBFED8F818709FB107F12000FCF70A
:10402400A7FFD1E728600020DBE73846FFF7DDFE75
:104034006FF01300D5E72F602046D2E76FF0010040
:10404400CFE76FF00100CCE7A02900202DE9F04371
:1040540087B006460F4690460393DDF83890002259
:10406400C9F8002093B133782F2B01D05C2B30D1C9
:104074000398FFF7BAFE284B5B6AD3F860060390F7
:10408400013630B32030FCF773FF22E0224B5B6A29
:10409400D3F8640603900028E5D02030FCF768FFCD
:1040A400E1E723B303982030FCF762FF05AB2A460F
:1040B40031460398FFF77CFF0546A0B903AB009394
:1040C40000231A4605990398FFF74EFF0546D0B919
:1040D40026463446002514F8013B002BE1D02F2B53
:1040E400DFD00135F7E70398FFF77FFE0BE0039875
:1040F400C36A63B19B6853B1C8F800603D60039B19
:10410400C9F800300025284607B0BDE8F083FFF762
:104114006CFE6FF01305F6E7A029002070B588B097
:10412400039116461C46002323600B4603A9009105
:1041340007AA06A9FFF78AFF054610B1284608B06A
:1041440070BD03982030FCF713FF05AB069A07995E
:104154000398FFF72DFF054658B976B105AB0093D8
:1041640000231A4605990398FFF7FEFE40B1054661
:10417400E4E70398FFF739FEE0E70398FFF735FE1D
:10418400059B2360DAE708B50B4601220021FFF7FF
:10419400C5FF08BD70B586B00446084605AB00935C
:1041A400002304AA03A9FFF751FF00280DDB049D97
:1041B400284605F0FAF9024648B10598C36A63B186
:1041C4005E6956B123462946B04706B070BD0598CE
:1041D400FFF70BFE6FF00100F7E7FFF706FE4FF065
:1041E400FF30F2E7F0B587B00D4617461E4604A926
:1041F40000910C9B02AA03A9FFF728FF041E06DB0B
:10420400039B6BB915F0010404D1049B3360204671
:1042140007B0F0BD0498FFF7E8FD6FF01404F6E76B
:1042240004982030FCF7A4FE15F0400F2CD005AB09
:10423400039A02990498FFF7BBFE041E08DB15F0ED
:10424400800F29D00598FFF7D0FD6FF0100423E00C
:104254000498C36A002B36D05B6813B96FF00C0462
:104264001AE02030FCF784FE0498C36A5C6805AB4E
:10427400009338233A460299A0470446059B3360CD
:104284000498FFF7B2FDC2E705AB039A02990498BC
:10429400FFF78EFE041E10DB15F4007F0AD005988C
:1042A400C36A1BB15B6B0BB100219847059B0122CC
:1042B40083F82420059B3360A9E70498FFF795FD54
:1042C4006FF00104A3E76FF00C04E5E7F0B587B0E5
:1042D4000E4605AA0092002304AA03A9FFF7B6FE1E
:1042E40000281FDB0598C26ABAB19369ABB12030CC
:1042F400FCF73EFE059CE36A9F69049D284605F091
:1043040054F90246334629462046B84704460598E0
:10431400FFF76BFD204607B0F0BDFFF766FD6FF0B9
:104324002504F7E76FF00104F4E770B586B005AB38
:104334000093002304AA03A9FFF788FE002828DBC2
:1043440005984388012B19D1C36AE3B1DB69D3B162
:104354002030FCF70DFE059CE36ADE69049D2846C7
:1043640005F023F9024629462046B047041E0ADA1E
:104374000598FFF73AFD204606B070BDFFF735FDFE
:104384006FF00104F7E70598FFF72FFD6FF02504A0
:10439400F1E76FF00104EEE7F0B587B006460D468D
:1043A40005AB0093002304AA03A92846FFF74EFE99
:1043B400041E1BDB284605F0F8F8D8B1059CA36A57
:1043C4009A68B36A9B689A421DD1E36A23B3DD6895
:1043D40015B3049F384605F0E8F803463A462146EB
:1043E4003046A8470446204607B0F0BD3046FFF7E4
:1043F400FCFCF8E73046FFF7F8FC0598FFF7F5FCFE
:104404004FF0FF34EFE72046FFF7EFFC3046FFF7AD
:10441400ECFC6FF01104E6E72046FFF7E6FC3046BB
:10442400FFF7E3FC4FF0FF34DDE710B582B00C4634
:1044340001A9FFF7A8FE002803DB21460198FFF736
:10444400ABFF02B010BD70B586B005AB009300237E
:1044540003AA04A9FFF7FAFD002826DB0598438880
:10446400012B18D1C36ADBB11B69CBB12030FCF737
:104474007FFD059CE36A1E69039D284605F095F8B7
:10448400024629462046B04704460598FFF7ADFC8E
:10449400204606B070BDFFF7A8FC6FF00104F7E7F3
:1044A400FFF7A3FC6FF02504F2E76FF00104EFE7D8
:1044B40030B583B00C4601A9FFF78AFB054610B15D
:1044C400284603B030BD69462046FFF781FB054608
:1044D40018B10198FFF79AFBF2E700990198FFF7EA
:1044E40059FE05460098FFF791FBF2E76FF02500AF
:1044F40070472DE9F04186B00C46174605AB009392
:10450400002304AA03A9FFF7A1FD00281DDB0598D9
:10451400C36AABB11B6A9BB12030FCF729FD059D32
:10452400EB6AD3F82080049E304605F03EF802463C
:104534000097234631462846C04706B0BDE8F081BF
:10454400FFF753FC6FF02500F7E76FF00100F4E785
:104554006FF02500704710B582B00C4601A9FFF733
:1045640012FE002812DB019A906A036A1B6A3BB1AF
:10457400214698470198FFF738FC002002B010BD8F
:104584001046FFF732FC6FF02500F7E74FF0FF30DD
:10459400F4E70000072817D808B5114B5B6AC0EB95
:1045A400C00203EB820292F8982582B1C0EBC000EE
:1045B40003EB8000D0F8903563B1986A036A1B6AF4
:1045C4005BB19847002008BD6FF0080070476FF09A
:1045D4000800F8E76FF00100F5E76FF02500F2E757
:1045E400A029002030B583B00C4601A9FFF7CBFD0C
:1045F400054670B90198438873B9C36A1BB15B6BF4
:104604000BB1214698470198012380F82430FFF725
:10461400ECFB284603B030BDFFF7E7FB6FF00C0559
:10462400F7E70000072825D810B5174B5C6AC0EBE4
:10463400C00204EB820292F89825F2B1C0EBC002EA
:1046440004EB8202D2F89025D2B1C0EBC000800006
:1046540000F5B2600444E36A1BB15B6B0BB1204606
:104664009847012384F824302046FFF7BEFB6FF0FF
:10467400250010BD6FF0080070476FF00800F8E7E0
:104684006FF00100F5E700BFA02900206FF02500BE
:1046940070476FF02500704710B586B005AB0093E6
:1046A400002304AA03A9FFF7D1FC002817DB05980F
:1046B4004388012B0ED10B4C636AD3F86406FFF7D1
:1046C40094FB636A0598C3F86406FFF78EFB002029
:1046D40006B010BDFFF789FB6FF00100F8E76FF03B
:1046E4000100F5E7A029002007281DD8144B5A6AB9
:1046F400C0EBC00302EB830393F89835BBB110B54C
:10470400C0EBC00002EB8000D0F8904594B1638800
:10471400012B12D1D2F86406FFF767FB084B5B6AE2
:10472400C3F86446002010BD6FF0080070476FF0B6
:10473400080070476FF00100F5E76FF00100F2E741
:10474400A029002010B586B005AB0093002304AA6D
:1047540003A9FFF77BFC002817DB05984388012B8E
:104764000ED10B4C636AD3F86006FFF73EFB636A15
:104774000598C3F86006FFF738FB002006B010BDAB
:10478400FFF733FB6FF00100F8E76FF00100F5E786
:10479400A0290020072819D8114B5A6AC0EBC0037E
:1047A40002EB830393F898359BB1C0EBC00002EB96
:1047B4008000D0F8900578B14288130403600B435D
:1047C4000360012380F82430002070476FF0080054
:1047D40070476FF0080070476FF00100704700BF2A
:1047E400A029002010B582B00C4601A9FFF7CBFC2C
:1047F400002810DB019A53881B041360019B19687D
:10480400214319600198012380F82430FFF7EDFA61
:10481400002002B010BD6FF00100FAE76FF0250030
:1048240070476FF0250070472DE9F04184B00646CB
:10483400084617461A460024072C0BD8C4EBC40CB0
:1048440006EB8C0C9CF818500DB10134F4E70123ED
:104854008CF81830072C22D80023009303AB394678
:10486400FFF7C0FC002820DBC4EBC4054FEA850831
:1048740006EB8505AF816B6903B36B6933B1DB6903
:1048840023B129460398984700281EDB039B2B611C
:104894001B6806F80830204604B0BDE8F0810F4BD1
:1048A40018221A604FF0FF30F6E7C4EBC40406EB9D
:1048B4008406002333764FF0FF30EDE7039BDB6A79
:1048C4001B68002BD9D06B61D7E700232B760398A4
:1048D400FFF78BFA4FF0FF30DEE700BF0004002043
:1048E40010B51346044A546A0A46014604F5B060FA
:1048F400FFF79AFF10BD00BFA029002008B50A46A3
:104904004121FFF7EDFF08BD38B5164B5A6AC0EBDD
:10491400C00302EB830393F898350BB30446C0EB52
:10492400C00302EB8303D3F89055D3F894354BB10D
:104934001B6A3BB1C0EBC001890001F5B0611144B1
:1049440028469847074B5B6AC4EBC40203EB820218
:10495400002182F89815C2F890152846FFF745FA09
:1049640038BD00BFA0290020072821D810B58446EF
:104974008E461346164A546AC0EBC00204EB820208
:1049840092F89825BAB1C0EBC000800000F5B06081
:104994002118CCEBCC0204EB8202D2F8900568B16A
:1049A400D2F894256AB1D46874B17246A04710BD98
:1049B4006FF0080070474FF0FF30F8E76FF0080021
:1049C400F5E76FF00100F2E76FF00100EFE700BFD9
:1049D400A0290020072849D870B504460D4616467C
:1049E4002B4B5B6AC0EBC00203EB820292F8982562
:1049F400002A3ED0C0EBC00203EB8202D2F8842529
:104A0400002A39D0C0EBC00203EB8202D2F8900531
:104A1400A8B3C4EBC40203EB8202D2F8942542B1DA
:104A2400126A32B1C4EBC401890001F5B0611944C2
:104A34009047012E0CD9022E16D1154B5B6AC4EB9C
:104A4400C40203EB8203D3F89035DBB15B681D44E9
:104A5400002D1ADB0E4B586AC4EBC40400EB84042B
:104A6400C4F88455284670BD0025F3E76FF00800AC
:104A740070474FF0FF30F6E74FF0FF30F3E74FF0A9
:104A8400FF30F0E74FF0FF30EDE74FF0FF30EAE79B
:104A9400A0290020072821DC10B584468E46134641
:104AA400164A546AC0EBC00204EB820292F89825BD
:104AB400BAB1C0EBC000800000F5B0602118CCEBA7
:104AC400CC0204EB8202D2F8900568B1D2F89425A6
:104AD4006AB1546874B17246A04710BD6FF0080003
:104AE40070474FF0FF30F8E76FF00800F5E76FF01C
:104AF4001500F2E76FF01500EFE700BFA0290020D2
:104B040007283CDC2DE9F84304460E461746234BA0
:104B14005D6AC0EBC00305EB830393F898358BB350
:104B2400C0EBC000800000F5B06005EB0008C4EBEA
:104B3400C40305EB8303D3F8902532B3C4EBC40359
:104B440005EB8303D3F8943513B39B681BB39168C7
:104B5400134802F043FFC4EBC40305EB8303D3F80B
:104B64009435D3F80890C4EBC40405EB84043B46A5
:104B740032464146D4F89005C847BDE8F8836FF043
:104B8400080070474FF0FF30F7E76FF00800F4E7D4
:104B94006FF01500F1E76FF01500EEE7A029002093
:104BA400A0A200082DE9F04385B004460D469046C6
:104BB400D0F824904368DE00B1FBF6F6D9F8201053
:104BC400EF08B7FBF3F20120009003FB12730DF121
:104BD4000F023144A068FEF72DFD00282BDBB8F14D
:104BE400000F1ED105F007050121A9409DF80F50C3
:104BF40065EA01058DF80F50D9F820106368B7FBFA
:104C0400F3F20120009003FB12730DF10F02314403
:104C1400A068FEF7A5FC002810DB002005B0BDE865
:104C2400F08305F007050121A9409DF80F500D40C0
:104C34008DF80F50E0E74FF0FF30EFE74FF0FF3013
:104C4400ECE700002DE9F84306468946D0F82480B5
:104C540000273C46D8F82430BB424BD9D8F8201062
:104C640001223944B068FEF747FD054683685A7847
:104C74001978244802F0B2FE00222BE0D8F8003064
:104C8400A34214D904F007020123934021EA03014B
:104C94008CF80010D8F804307BBBC9F8004001231D
:104CA40033772846FEF776FD0020BDE8F8832846D2
:104CB400FEF770FD4FF0FF30F7E70023072B08D80D
:104CC40041FA03F010F0010FD8D101340133DBB203
:104CD400F4E701327368934207D9AB6803EB020C23
:104CE400995C0029E9D10834F3E72846FEF752FD20
:104CF4000137AFE74FF0FF30D7E7013BC8F8043086
:104D0400CBE700BFB0A200082DE9F04184B005460E
:104D14000C46D0F824804368DE00B1FBF6F6D8F8E0
:104D24002010E708B7FBF3F20120009003FB127395
:104D34000DF10F023144A868FEF77CFC002824DB47
:104D440004F00704012202FA04F49DF80F301C4316
:104D54008DF80F40D8F820106B68B7FBF3F0009281
:104D640003FB10730DF10F023144A868FEF7F8FB42
:104D740000280DDBD8F804300133C8F804300123CF
:104D84002B77002004B0BDE8F0814FF0FF30F9E745
:104D94004FF0FF30F6E700002DE9F04105460F46DD
:104DA400466A0024A046F369434542D9B169012209
:104DB4004144A868FEF7A0FC00222AE01C44F368E2
:104DC400A34215D904F007020123934021EA030109
:104DD4008CF8001033697BBB3C6001232B77FEF712
:104DE400D9FC2146164802F0F9FD0020BDE8F08107
:104DF400FEF7D0FC4FF0FF30F8E70023072B07D86D
:104E040041FA03FE1EF0010FD8D10133DBB2F5E7FE
:104E140001326B68934207D9836803EB020C995CF7
:104E24000029EAD10834F3E7FEF7B4FC08F10108DD
:104E3400B9E74FF0FF30D9E7013B3361CCE700BF5E
:104E4400C0A200082DE9F04184B005460C46D0F814
:104E540024804368DE00B1FBF6F6D8F81810E708A2
:104E6400B7FBF3F20120009003FB12730DF10F0264
:104E74003144A868FEF7DEFB002824DB04F00704B5
:104E8400012202FA04F49DF80F301C438DF80F4000
:104E9400D8F818106B68B7FBF3F0009203FB10739B
:104EA4000DF10F023144A868FEF75AFB00280DDB10
:104EB400D8F810300133C8F8103001232B770020C4
:104EC40004B0BDE8F0814FF0FF30F9E74FF0FF3058
:104ED400F6E730B585B0436A9D694468B1FBF4FCDC
:104EE40004FB1C1401230093E3080DF10F0205EBEE
:104EF4000C018068FEF79EFB00280ADB04F0070122
:104F04009DF80F4044FA01F1012905D0012005B0B4
:104F140030BD4FF0FF30FAE70020F8E743688B42DA
:104F240033D370B584B01446856A466B01316A6820
:104F3400B1FBF2F002FB101303B1012303440C2B69
:104F440019D9920802EB420149000C3199421FD34E
:104F54000D3BB3FBF2F102FB11330C3156F8211077
:104F6400A868042200929B0003AAFEF763FB48B9D9
:104F7400039B236004E0013B56F8233023600020A8
:104F840004B070BD4FF0FF30FAE74FF0FF307047C8
:104F94004FF0FF30F4E76FF01400704770B5A0B025
:104FA40005460C46164680236A462146284600F0EC
:104FB4008FFF002813DD1F9B002BF4D0812269464C
:104FC40006F10A0004F00EFB684604F0EEFA3081A4
:104FD4001E9B33606368803B7360606800E0002060
:104FE40020B070BD10B50446542005F057F8606336
:104FF40030B1044BE3625422002104F040FA20460D
:1050040010BD00BF8C010020C36853B910B504461D
:105014002030FBF7D6FF38B9606B05F073F8002039
:1050240010BD4FF0FF3070474FF0FF30F8E700003D
:10503400F0B5A3B00446866A776A85682946304687
:10504400FFF747FF012843D1002102917C2203A8E6
:1050540004F015FAB38905FB03F17268B1FBF2F1B0
:10506400BF6AB2FBF3F2B5FBF2F002FB1055B06875
:10507400009305FB03F302AA3944FEF7DBFA002888
:1050840000DAFEE7542202A9606B04F0CDF9179B05
:105094002360189A6260199AA2601A9AE2601B9AB5
:1050A40022611B0C032B05D8DFE803F002090C0F67
:1050B400094BE362002084F8240023B0F0BD074BC1
:1050C400E362F7E7064BE362F4E7064BE362F1E7DA
:1050D4004FF0FF30F1E700BFF00100208C01002009
:1050E400A80000206C000020F0B5A3B00446856A37
:1050F4006F6A86686B68AA89B3FBF2F3B6FBF3F6B2
:10510400002102917C2203A804F0B9F95422616BB6
:1051140002A804F089F92368179363681893A268B6
:105124001992E3681A9323691B93B96AAB89686877
:10513400B0FBF3F0B2FBF0FC00FB1C22A868009368
:1051440002FB03F302AA3144FEF70AFA002802DB49
:10515400002384F8243023B0F0BD38B5044601227E
:1051640011468068FEF7C8FA054628222146806861
:1051740004F05AF9A8683422616A283004F054F91A
:10518400002323772846FEF705FB38BD70B582B0AF
:10519400054601A9806AFFF7FFFD002826DBFEF71C
:1051A400AFFD0446019B83600121C1600026466077
:1051B400AB6A836280F82460C6622030FBF7F9FE94
:1051C400314604F11C00FBF7F4FE2046FFF70AFF0A
:1051D400064610B1204602B070BD0199A86AFFF7D7
:1051E40031FE2046FEF701FE3446F3E70024F1E7E2
:1051F400F0B583B005465C2004F050FF0446002857
:10520400F9D028230093002302460121A868FEF761
:1052140011FA00282EDB22681E4B9A422FD104F18A
:1052240028073423009328233A460121A868FEF76F
:1052340001FA002828DB23682B6063686B60A3688D
:10524400AB60A389AB81144B2B6200262E612E77B1
:1052540034223946686A04F0E7F831462846FEF7F6
:10526400F6FD68610D4BC362204604F04BFF2846EF
:1052740003B0F0BD204604F045FF0020F8E72046C7
:1052840004F040FF0020F3E7204604F03BFF002039
:10529400EEE700BF44332211540200208C010020A9
:1052A40038B50446FEF714FE2046FFF71DFF00251F
:1052B40084F824502046FEF715FE284638BD000029
:1052C4002DE9F04383B00C4615469846DDF8289046
:1052D4000021C9F800100746E8B12CB36388042BF9
:1052E40028D10023196861B31A46A06AFEF704FAAC
:1052F40006462046FEF779FDB06800974B464246C5
:105304002946FEF76FFF04463046FEF743FA20466F
:1053140003B0BDE8F0830C4B5B6AD3F8607607F109
:105324002000FBF725FED8E73846FEF75EFD6FF058
:105334000104ECE73846FEF758FDC9F800400024A4
:10534400E5E74FF0FF34E2E7A0290020F8B5044672
:105354004388042B12D10D461646836A5B68934238
:1053640000D21E46636B002219682046FEF7C4F97A
:1053740007462046FEF739FD002409E0FEF735FD17
:105384006FF015040DE00134294601F8013B0D4688
:10539400A64203DDBB681B5D002BF4D13846FEF743
:1053A400F9F92046F8BD10B4002300E00133CC5CC9
:1053B40044B19A4206D910F803C0A445F6D0ACEB28
:1053C400040000E0C05C10BC70472DE9F04FABB0A6
:1053D400054605934088012840F0B3808B46174664
:1053E400D5F828A06B6B04936B684FEAD318DAF8EE
:1053F4000410B3FBF1F201FB123303B10346D318DB
:105404000393002302931C46029B039A934280F069
:105414009580029B0B2B20D9AB6A5B689B0803EB3E
:10542400430252000C3202998A4240F28D80A1F16B
:105434000C02B2FBF3F103FB11230C31049A52F872
:105444002110DAF80800042200929B0009AAFEF752
:10545400F1F800286FDB002643E00022049B029948
:1054640053F82110DAF80800FEF746F906900026F2
:10547400CDF81CA0824608E00698FEF78BF96FF081
:10548400010052E001340136B6B2B146AB6A5B6842
:10549400B6EBD31F19D24445EED2DAF8083003EB49
:1054A400C9193A4659464846FFF77DFF0028E9D115
:1054B400D9F87C30012BE5D1D9F87830059A1360FE
:1054C4000698FEF767F920462FE0DDF81CA0069841
:1054D400FEF760F9029B0133029395E7013401362C
:1054E400B6B23346AA6A5268B6EBD21FF2D244452A
:1054F40019D2DAF8080080220092DB010AAA09997D
:10550400FEF798F8002813DB3A4659460AA8FFF735
:105514004AFF0028E2D1299B012BDFD1289B059A61
:105524001360204601E06FF001002BB0BDE8F08F5E
:105534006FF00100F9E76FF00100F6E76FF001008A
:10554400F3E76FF01300F0E76FF01A00EDE770B5C2
:1055540082B005461E4601ABFFF737FF041E0EDB83
:105564000199A86AFEF773FC044660B12846FEF769
:105574003CFC76B134600024204602B070BD28465D
:10558400FEF733FCF8E72846FEF72FFC6FF0010422
:10559400F2E70024F0E700004388012B40F0BE80CE
:1055A4002DE9F04FA5B0044688469146876A01E08C
:1055B400FEF7F0F86568EE097B68DB09B6FBF3F2E9
:1055C40003FB126353BB039303A9204600F076FD4B
:1055D4000028C0F29D80414604A803F0DCFFD9F8FE
:1055E40008302293012223920399B868FEF784F8C5
:1055F40006466368AB42DBD1039BBE2249494A4855
:1056040002F0F0F9802204A9B06803F00DFF63688A
:10561400803363603046FEF7BDF872E000230393E5
:1056240003AA29462046FFF779FC002873DB0122F0
:105634000399B868FEF760F88246626829463B48D9
:1056440002F0CCF96168A94218D004AA2046FFF7F9
:1056540065FC00280ADB039A049B9A420CD0344868
:1056640002F0BCF95046FEF795F8A3E75046FEF762
:1056740091F84FF0FF304BE06668F60941462D483B
:1056840002F0ACF97B68DB09B6FBF3FB03FB1B6B95
:10569400002600E001365E4513D2DAF8087007EB05
:1056A400C61780224146384603F08BFF0028F1D10B
:1056B400FB6F012BEED15046FEF76CF86FF0100033
:1056C40026E0DAF808604FEACB1706EBCB16414622
:1056D400304603F060FFD9F80830B3670123F3675D
:1056E400154B5B6A596B6368019300953B46039ABB
:1056F400124802F073F96368803363605046FEF722
:1057040049F8012384F82430E3680133E36000207E
:1057140025B0BDE8F08F4FF0FF30F9E76FF01300CC
:10572400704700BFB0A30008D4A20008E8A2000894
:1057340004A3000814A30008A029002024A300083F
:10574400F8B506460F461D46FFF720FDA8B10446EE
:10575400ADB20560012380F82430104BC3620246C9
:1057640039463046FFF718FF051E0CDB3046FEF7BE
:105774003CFB069B1C602846F8BD3046FEF735FB13
:105784006FF00B05F7E7E368013BE3603046FEF793
:105794002CFB2046FEF729FBEDE700BFF0010020BB
:1057A400F0B583B0002853D00D461C46064601AB25
:1057B400FFF70BFE002820DA3046FFF7E7FC074628
:1057C40008B304600023C362240C22D1224BC362B9
:1057D400022C2DD0012387F824303A46294630463E
:1057E400FFF7DAFE044630BB3046FEF7FEFA3846D1
:1057F400FEF7FBFA204603B0F0BD3046FEF7F5FA9B
:105804006FF01004F6E73046FEF7EFFA6FF01B0472
:10581400F0E7012C06D0022C07D0032CD8D10F4B73
:10582400C362D5E70E4BC362D2E70E4BC362CFE728
:10583400089B3B61CEE7FB68013BFB60012387F8D3
:1058440024303846FEF7D1FA3046FEF7CEFAD1E7D7
:105854006FF00104CEE700BFF00100206C000020CF
:105864008C010020A80000202DE9F043A5B00546D6
:1058740000286AD00E46876A002F66D022ABFFF755
:10588400A4FD002867DA2846FFF780FC04460028B8
:1058940067D03E4BC3624FF4807343604FF4803350
:1058A400036023A93846FFF7CDF900285FDB384BA6
:1058B4005B6A596B239B00934FF4B973354A36489E
:1058C40002F08CF8354902A803F065FE4FF0010898
:1058D400CDF88480A3682093B8684FF08009CDF890
:1058E4000090002302AA2399FDF73AFE2C4902A84E
:1058F40003F051FECDF88480AB682093B868CDF8EE
:1059040000904B4602AA2399FDF72AFE636B239A63
:105914001A6084F824800223E36022463146284634
:10592400FFF73AFE061E28DBEB680133EB60012328
:1059340085F824302846FEF758FA2046FEF755FA33
:105944000026304625B0BDE8F0832846FEF74DFA20
:105954006FF01506F5E72846FEF747FA6FF01006D4
:10596400EFE72846FEF741FA6FF01B06E9E7284601
:10597400FEF73BFA6FF01B06E3E70023E3602846DB
:10598400FEF733FA2046FEF730FADAE78C010020FE
:10599400A0290020A4A3000858A3000878A30008A5
:1059A4007CA300084288012A7FD14368002B7ED063
:1059B4002DE9F047A4B0866AD0F83490DF09716805
:1059C400B3FBF1F801FB183303B1134698440025E7
:1059D4002C4651E0002024B0BDE8F0874FF0000AC7
:1059E40053467268BAEBD21F45D2BC42F2D259F880
:1059F4002510B06880220092DB0104AAFDF71AFE8C
:105A04000028E7DB239B012BE4D001340AF1010ACF
:105A14001FFA8AFAE4E7A5F10C02B2FBF3F103FBE7
:105A240011230C3159F82110B068042200929B0014
:105A340003AAFDF7FFFD00281BDB4FF0000A5346C5
:105A44007268BAEBD21F16D2BC4212D2B06880225E
:105A54000092DB0104AA0399FDF7ECFD002808DBA2
:105A6400239B012B05D001340AF1010A1FFA8AFA9B
:105A7400E5E70020AFE70135454514D20B2DADD93C
:105A840073689B0803EB4302520002F10C01A94224
:105A9400C1D803FB03F303EB430313440C33AB42BE
:105AA400E9D8002097E7012095E7002070470120FE
:105AB40070474388012B00F0BB802DE9F04FA7B05D
:105AC4008846866AD0F834A043684FEAD3197168CF
