:020000040800F2
:1000000000000120D51A0008AB190008AD1900083E
:10001000AF190008B1190008B3190008000000006A
:1000200000000000000000000000000009100008AF
:10003000B51900080000000099100008851000089C
:10004000851000088510000885100008851000083C
:10005000851000088510000885100008851000082C
:10006000851000088510000885100008851000081C
:10007000851000088510000885100008851000080C
:1000800085100008851000088510000885100008FC
:1000900085100008851000088510000885100008EC
:1000A00085100008851000088510000885100008DC
:1000B00085100008851000088510000885100008CC
:1000C00085100008851000088510000885100008BC
:1000D00085100008851000088510000885100008AC
:1000E000851000088510000885100008851000089C
:1000F000851000088510000885100008851000088C
:10010000851000088510000885100008851000087B
:10011000851000088510000885100008851000086B
:10012000851000088510000885100008851000085B
:1001300000000000000000000000000000000000BF
:1001400000000000000000000000000000000000AF
:10015000000000000000000000000000000000009F
:10016000000000000000000000000000000000008F
:10017000000000000000000000000000000000007F
:10018000000000000000000000000000000000006F
:10019000000000000000000000000000000000005F
:1001A000000000000000000000000000000000004F
:1001B000000000000000000000000000000000003F
:1001C000000000000000000000000000000000002F
:1001D000000000000000000000000000000000001F
:0401E0005FF8E0F1F3
:1001E40070BC10F5805F38BFF746C0F100012DE9FF
:1001F400024006F0E9FCBDE8024001606FF0000037
:10020400F7462DE90F0080B44FF05A07684680DFA7
:1002140080BC04B0E5E700BF4FF0000300F06DBB05
:1002240080B44FF0B40780DF80BCDAE780B44FF0CD
:10023400B50780DF80BCD4E780B44FF0580780DF77
:1002440080BCCEE780B44FF0210780DF80BCC8E7D4
:1002540080B44FF07C0780DF80BCC2E780B44FF0ED
:100264002D0780DF80BCBCE780B44FF00C0780DF33
:1002740080BCB6E780B44FF00F0780DF80BCB0E7E6
:1002840080B44FF0B60780DF80BCAAE780B44FF09B
:100294003D0780DF80BCA4E780B44FF0060780DF11
:1002A40080BC9EE780B44FF0290780DF80BC98E7CC
:1002B40080B44FF03F0780DF80BC92E780B44FF0FA
:1002C4000B0780DF80BC8CE780B44FF0850780DFAC
:1002D40080BC86E780B44FF05E0780DF80BC80E797
:1002E40080B44FF05F0780DF80BC7AE780B44FF0C2
:1002F400370780DF80BC74E780B44FF08F0780DF5E
:1003040080BC6EE780B44FF0020780DF80BC68E7F2
:1003140080B44FF06C0780DF80BC62E780B44FF09C
:10032400C50780DF80BC5CE780B44FF0640780DFE2
:1003340080BC56E780B44FF0760780DF80BC50E77E
:1003440080B44FF05D0780DF80BC4AE780B44FF093
:10035400B70780DF80BC44E780B44FF08D0780DFAF
:1003640080BC3EE780B44FF0D90780DF80BC38E71B
:1003740080B44FF0320780DF80BC32E780B44FF0A6
:10038400310780DF80BC2CE780B44FF02F0780DF7B
:1003940080BC26E780B44FF0500780DF80BC20E7A4
:1003A40080B44FF0690780DF80BC1AE780B44FF057
:1003B400840780DF80BC14E780B44FF0140780DF2B
:1003C40080BC0EE780B44FF0400780DF80BC08E7B4
:1003D40080B44FF0600780DF80BC02E780B44FF048
:1003E400AB0780DF80BCFCE680B44FF0A50780DF5C
:1003F40080BCF6E680B44FF04C0780DF80BCF0E6AA
:1004040080B44FF04D0780DF80BCEAE680B44FF043
:10041400930780DF80BCE4E680B44FF04E0780DFB2
:1004240080BCDEE680B44FF04F0780DF80BCD8E6A6
:1004340080B44FF0180780DF80BCD2E680B44FF060
:10044400360780DF80BCCCE680B44FF07507EC46FD
:100454002DE970009CE8700080DF80BCC0E680B4A9
:100464004FF0250780DF80BCBBE680B44FF0100757
:1004740080DF80BCB5E680B44FF0090780DF80BC24
:10048400AFE680B44FF08C07EC462DE970009CE891
:10049400700080DF80BCA3E680B44FF0130780DFD8
:1004A40080BC9EE680B44FF06B0780DF80BC98E68A
:1004B40080B44FF0C40780DF80BC92E680B44FF074
:1004C400270780DF80BC8CE680B44FF00E0780DF06
:1004D40080BC86E680B44FF0960780DF80BC80E65F
:1004E40080B44FF0980780DF80BC7AE680B44FF088
:1004F400C007EC462DE970009CE8700080DF80BCEA
:100504006EE680B44FF01507EC462DE970009CE8C8
:10051400700080DF80BC63E680B44FF07D0780DF2D
:1005240080BC5EE680B44FF0A30780DF80BC58E651
:1005340080B44FF0990780DF80BC52E680B44FF05E
:100544005B0780DF80BC4CE680B44FF0430780DF5C
:1005540080BC46E680B44FF0490780DF80BC40E6AB
:1005640080B44FF07E0780DF80BC3AE680B44FF061
:10057400480780DF80BC34E680B44FF0A20780DFF8
:1005840080BC2EE680B44FF0220780DF80BC28E6D2
:1005940080B44FF0050780DF80BC22E680B44FF0C2
:1005A4001D0780DF80BC1CE680B44FF0880780DF25
:1005B40080BC16E680B44FF02A0780DF80BC10E6CA
:1005C40080B44FF0A80780DF80BC0AE680B44FF007
:1005D400A707EC462DE970009CE8700080DF80BC22
:1005E400FEE580B44FF0800780DF80BCF9E580B47D
:1005F4004FF0810780DF80BCF3E580B44FF07F07C4
:1006040080DF80BCEDE580B44FF0030780DF80BC61
:10061400E7E580B44FF0550780DF80BCE1E580B4A6
:100624004FF0910780DF80BCDBE580B44FF02607F4
:1006340080DF80BCD5E580B44FF0280780DF80BC24
:10064400CFE580B44FF0AE0780DF80BCC9E580B44D
:100654004FF0B00780DF80BCC3E580B44FF0AF0734
:1006640080DF80BCBDE580B44FF0B20780DF80BC82
:10067400B7E580B44FF0B30780DF80BCB1E580B448
:100684004FF0B10780DF80BCABE580B44FF09F072B
:1006940080DF80BCA5E580B44FF0A00780DF80BC7C
:1006A4009FE580B44FF09B0780DF80BC99E580B460
:1006B4004FF09D0780DF80BC93E580B44FF0A10725
:1006C40080DF80BC8DE580B44FF09A0780DF80BC6A
:1006D40087E580B44FF09C0780DF80BC81E580B45F
:1006E4004FF09E0780DF80BC7BE580B44FF052075B
:1006F40080DF80BC75E580B44FF0BB0780DF80BC31
:100704006FE580B44FF0EF0780DF80BC69E580B40B
:100714004FF0790780DF80BC63E580B44FF08B072E
:1007240080DF80BC5DE580B44FF08A0780DF80BC49
:1007340057E580B44FF02E0780DF80BC51E580B4CC
:100744004FF0510780DF80BC4BE580B44FF04A077F
:1007540080DF80BC45E580B44FF0680780DF80BC53
:100764003FE580B44FF0390780DF80BC39E580B4C1
:100774004FF0610780DF80BC33E580B44FF047075A
:1007840080DF80BC2DE580B44FF0AA0780DF80BCF9
:1007940027E580B44FF0A40780DF80BC21E580B456
:1007A4004FF0460780DF80BC1BE580B44FF04B0759
:1007B40080DF80BC15E580B44FF0420780DF80BC49
:1007C4000FE580B44FF0170780DF80BC09E580B4E3
:1007D4004FF0BA0780DF80BC03E580B44FF0000718
:1007E40080DF80BCFDE480B44FF0660780DF80BC0E
:1007F400F7E480B44FF06A0780DF80BCF1E480B492
:100804004FF0C30780DF80BCEBE480B44FF0630794
:1008140080DF80BCE5E480B44FF0190780DF80BC42
:10082400DFE480B44FF0730780DF80BCD9E480B488
:100834004FF0570780DF80BCD3E480B44FF05307F8
:1008440080DF80BCCDE480B44FF0240780DF80BC1F
:10085400C7E480B44FF0950780DF80BCC1E480B466
:100864004FF0740780DF80BCBBE480B44FF06707AF
:1008740080DF80BCB5E480B44FF0870780DF80BCA4
:10088400AFE480B44FF00D0780DF80BCA9E480B4EE
:100894004FF02B0780DF80BCA3E480B44FF05C07EB
:1008A40080DF80BC9DE480B44FF03C0780DF80BCD7
:1008B40097E480B44FF0160780DF80BC91E480B4E5
:1008C4004FF0340780DF80BC8BE480B44FF07A07AC
:1008D40080DF80BC85E480B44FF00A0780DF80BCF1
:1008E4007FE480B44FF01E0780DF80BC79E480B4DD
:1008F4004FF06F0780DF80BC73E480B44FF0720761
:1009040080DF80BC6DE480B44FF0040780DF80BCDE
:1009140067E480B44FF0920780DF80BC61E480B468
:100924004FF0900780DF80BC5BE480B44FF0B807E1
:1009340080DF80BC55E480B44FF0B90780DF80BC11
:100944004FE480B44FF0D40780DF80BC49E480B426
:100954004FF0CF0780DF80BC43E480B44FF0CA0778
:1009640080DF80BC3DE480B44FF0C90780DF80BCE9
:1009740037E480B44FF0C80780DF80BC31E480B432
:100984004FF0CD0780DF80BC2BE480B44FF0D30759
:1009940080DF80BC25E480B44FF0C70780DF80BCD3
:1009A4001FE480B44FF0C60780DF80BC19E480B434
:1009B4004FF0D80780DF80BC13E480B44FF0D70732
:1009C40080DF80BC0DE480B44FF0D60780DF80BCAC
:1009D40007E480B44FF0CC0780DF80BC01E480B42E
:1009E4004FF0D20780DF80BCFFF7FBBB80B44FF031
:1009F400CB0780DF80BCFFF7F4BB80B44FF0D50792
:100A040080DF80BCFFF7EDBB80B44FF01B0780DFB5
:100A140080BCFFF7E6BB80B44FF01A0780DF80BCD0
:100A2400FFF7DFBB80B44FF0C20780DF80BCFFF765
:100A3400D8BB80B44FF0C10780DF80BCFFF7D1BBC7
:100A440080B44FF03E0780DF80BCFFF7CABB80B4A0
:100A54004FF0FA0780DF80BCFFF7C3BB80B44FF0D0
:100A6400FB0780DF80BCFFF7BCBB80B44FF0FC0702
:100A740080DF80BCFFF7B5BB80B44FF0DD0780DFBB
:100A840080BCFFF7AEBB80B440F2011780DF80BCAE
:100A9400FFF7A7BB80B44FF4817780DF80BCFFF7FA
:100AA400A0BB80B440F2031780DF80BCFFF799BB82
:100AB40080B44FF4827780DF80BCFFF792BB80B4B0
:100AC40040F2051780DF80BCFFF78BBB80B44FF486
:100AD400837780DF80BCFFF784BB80B440F20717C4
:100AE40080DF80BCFFF77DBB80B440F2091780DF54
:100AF40080BCFFF776BB80B440F2171780DF80BC60
:100B0400FFF76FBB80B44FF48B7780DF80BCFFF7B7
:100B140068BB80B44FF4897780DF80BCFFF761BB8A
:100B240080B440F21517EC462DE970009CE8700083
:100B340080DF80BCFFF754BB80B44FF48A7780DF3A
:100B440080BCFFF74EBB80B440F2131780DF80BC3B
:100B5400FFF747BB80B44FF4857780DF80BCFFF795
:100B640040BB80B440F20B1780DF80BCFFF739BB79
:100B740080B44FF0EE0780DF80BCFFF732BB80B457
:100B84004FF4867780DF80BCFFF72BBB80B44FF433
:100B9400807780DF80BCFFF724BB80B440F241172C
:100BA400EC462DE970009CE8700080DF80BCFFF704
:100BB40017BB80B44FF0AD0780DF80BCFFF711BBDB
:100BC40080B44FF0E00780DF80BCFFF70ABB80B43D
:100BD4004FF0FD0780DF80BCFFF703BB80B44FF00C
:100BE400E10780DF80BCFFF7FCBA80B44FF08307D5
:100BF40080DF80BCFFF7F5BA80B44FF0DB0780DFFD
:100C040080BCFFF7EEBA80B440F23F17EC462DE902
:100C140070009CE8700080DF80BCFFF7E1BA80B40C
:100C24004FF4A077EC462DE970009CE8700080DF5B
:100C340080BCFFF7D5BA80B44FF0F00780DF80BCEA
:100C4400FFF7CFBA80B440F2391780DF80BCFFF7DA
:100C5400C8BA80B44FF49B77EC462DE970009CE849
:100C6400700080DF80BCFFF7BBBA80B440F2371756
:100C740080DF80BCFFF7B5BA80B440F23517EC468C
:100C84002DE970009CE8700080DF80BCFFF7A8BAF3
:100C940080B44FF0F60780DF80BCFFF7A2BA80B4BF
:100CA4004FF0F30780DF80BCFFF79BBA80B44FF0AE
:100CB400F50780DF80BCFFF794BA80B44FF0F407E7
:100CC40080DF80BCFFF78DBA80B44FF0F70780DF78
:100CD40080BCFFF786BA80B44FF49F7780DF80BC76
:100CE400FFF77FBA80B44FF49E7780DF80BCFFF7B4
:100CF40078BA80B440F23D1780DF80BCFFF771BA48
:100D040080B44FF0E207EC462DE970009CE87000D7
:100D140080DF80BCFFF764BA80B44FF0E307EC4691
:100D24002DE970009CE8700080DF80BCFFF758BAA2
:100D340080B44FF0E407EC462DE970009CE87000A5
:100D440080DF80BCFFF74CBA80B44FF0EB0780DF44
:100D540080BCFFF746BA80B44FF0EC0780DF80BC5C
:100D6400FFF73FBA80B44FF0ED0780DF80BCFFF798
:100D740038BA80B44FF0E80780DF80BCFFF731BA9F
:100D840080B44FF0E90780DF80BCFFF72ABA80B453
:100D94004FF0EA0780DF80BCFFF723BA80B44FF03E
:100DA400E50780DF80BCFFF71CBA80B44FF0E6078C
:100DB40080DF80BCFFF715BA80B44FF0E70780DF0F
:100DC40080BCFFF70EBA01DF78468EEA0E00874634
:100DD4005FEA000C12BF00296FF01500FFF701BA9B
:100DE40021E90810104680B44FF0780780DF80BCFA
:100DF4000000FFF6F6A918BFF7464FF0000B0FF2FC
:100E0400060EBDE80180DEE78446080008BF012025
:100E14004FF00001A0F11E0005F084BF08B504F0F6
:100E240071FC04F0F9FB08BD10B5002211460A4814
:100E340000F012F94FF0E023084A5A61084AF02101
:100E440082F8231000249C6107221A614FF4407039
:100E540000F0CAFB204610BD210E00083F19010016
:100E640000ED00E010B44FF08074046040F8041CFE
:100E74001A4940F8081C4FF0123140F80C1C4FF08E
:100E8400033140F8101C4FF0023140F8141C40F8B4
:100E9400183C40F81C2C4FF0113340F8203C4FF024
:100EA400103340F8243C0E4B1B6840F8283C4FF0AC
:100EB400083340F82C3C4FF0073340F8303C4FF0F7
:100EC400063340F8343C4FF0053340F8383C4FF0DB
:100ED400043340F83C3C3C3810BC70474154000893
:100EE4000C070020EFF3108072B6704780F3098876
:100EF400704780F31088704702484FF080510160BA
:100F04007047000004ED00E04FF0000350E8002FAC
:100F140002F10102002A00D001E04FF0010340E891
:100F240000210129F2D0184670474FF0000350E821
:100F3400002F02F1FF32002A00D001E04FF001033C
:100F440040E800210129F2D0704750E8002F0A46FA
:100F540040E80023012BF8D070470068704710B4B4
:100F640050E8002F8A4202D04FF0000401E04FF015
:100F7400010440E80023012BF2D0204610BC704746
:100F840010B450E8002F002A02D04FF0000403E010
:100F94004FF0010402F1010240E80023012BF0D0DC
:100FA400204610BC704710B450E8002F002A04D02B
:100FB4004FF0000402F1FF3201E04FF0010440E879
:100FC4000023012BF0D0204610BC704772B60A48AB
:100FD4004AF2A001018009484FF0F001017000209D
:100FE40080F3098806484FF0805101604FF00100FA
:100FF40080F3148862B6704722ED00E01FED00E034
:1010040004ED00E01EF0040F0CBFEFF30880EFF3D3
:101014000980A0F1200080E8F00F394604F018BEE2
:10102400EFF305807047000010B50446FFF7F8FFA2
:10103400A0F10F03074A02EBC302127912F0010F69
:1010440004D1044A52F8333003B19847204604F0DF
:1010540097FD10BD1007002070B506460D461446D6
:10106400FFF740FF054941F8356001EBC5010A79F6
:1010740014430C71FFF73DFF70BD00BF1007002043
:101084001EF0040F0CBFEFF30880EFF30980FFF7A5
:10109400CBBF000072B6EFF30980EFF3088100289C
:1010A4001EF0040F0CBFEFF30883EFF309830CBFAA
:1010B40000220122002868B1A3F1200383E8F00F85
:1010C4001EF0040F0CBF194618460CBF83F30888A2
:1010D40083F30988DFF878309847D0E900128368F1
:1010E40013F0010F0CBF1046084690E8F00F2030B3
:1010F40082F3088881F30988022B1FD013F4803F00
:101104000BD1012B00D019E080F309884FF00101C5
:1011140081F314886FF0020E18E013F0020F04D16B
:101124004FF0030181F3148803E04FF0000181F3D1
:10113400148880F308886FF00E0E07E080F30888A7
:101144006FF0060E4FF0000080F3148862B670470B
:101154004157000838B50446FFF7C4FE054620464B
:1011640000F008FA04462846FFF7C3FE204638BDBF
:1011740038B50C46084D0023C5F8B031800040F066
:10118400020000F0FE00FFF7E5FF2046FFF7E2FF54
:101194000123C5F8B03138BD0080214210B5084C98
:1011A4000023C4F8B031800000F0FC00FFF7D2FF48
:1011B400FF20FFF7CFFF0123C4F8B03110BD00BFFB
:1011C4000080214200B583B00121182000F08EFB7D
:1011D4000121084600F08AFB4FF48053ADF8043037
:1011E40010238DF8073003238DF8063001A9064833
:1011F40000F000FB054B0122C3F8B02100F076F9A2
:1012040003B05DF804FB00BF000C014000802142E4
:1012140030B585B0142000F0DEF9FFF7D3FF80214C
:101224000120FFF7A5FF80210920FFF7A1FF14206B
:1012340000F0D1F980210320FFF79AFF0C21002050
:10124400FFF796FF00210120FFF792FF0121022002
:10125400FFF78EFF03210846FFF78AFF01210846A6
:10126400FFF786FF08210420FFF782FF80210B206F
:10127400FFF77EFF01210820FFF77AFF00210920F4
:10128400FFF776FF01210A20FFF772FF03210B20ED
:10129400FFF76EFF01210920FFF76AFF08210C20E8
:1012A400FFF766FF142000F096F90220FFF776FF9F
:1012B4000A20FFF773FF4024ADF8004048238DF85F
:1012C4000330154D6946284600F094FA2146284615
:1012D40000F0F0FA0621022000F0EEFA0194002555
:1012E4008DF808500C238DF8093001248DF80A403C
:1012F40001A800F0B5F917238DF80C3002238DF8FE
:101304000D308DF80E508DF80F4003A800F076F9DB
:10131400204605B030BD00BF0010014038B504467A
:101324000D4671B10D20FFF739FF10F0200FF9D0F1
:1013340014F8011B0820FFF71BFF6B1E13F0FF05B9
:10134400F0D138BD70B506460520FFF727FF10F031
:101354001E0414D10520FFF721FF10F0010FF9D06E
:101364000020FFF71BFF307001360134E4B2052082
:10137400FFF714FF10F0010FF2D1204670BD0020DA
:10138400FFF70CFF0024F8E770B506460D20FFF7C1
:1013940005FF10F01E0414D10D20FFF7FFFE10F01E
:1013A400010FF9D00820FFF7F9FE3070013601343F
:1013B400E4B20D20FFF7F2FE10F0010FF2D1204647
:1013C40070BD0820FFF7EAFE0024F8E710B50220FC
:1013D400FFF7E4FE10F0010F35D100F03F030C2BB2
:1013E40031D8DFE803F00730303022302D30303090
:1013F40030303F000620FFF7D1FE044601460020AE
:10140400FFF7B6FE302C1ED0112C09D0222C1AD195
:101414000020FFF7C3FE01460020FFF7A9FE12E0FB
:10142400AA210020FFF7A4FE0DE02248FFF78AFF5F
:10143400214B1B683BB182B21E490020984702E051
:101444000520FFF7ABFE0A20FFF7A8FE00F03F03DC
:1014540010F0010F05D1062B1CD00C2B1ED0042B31
:101464000CD010BD1348FFF76DFF134B1B68002B06
:10147400E9D082B20F4900209847E4E70F48FFF70C
:1014840083FF0F4B1B68002BEBD082B20B4901206A
:101494009847E6E70D20FFF781FEE2E70748FFF7EC
:1014A40073FF074B1B68002BDBD082B2034901207A
:1014B4009847D6E7F0080020E8080020100900202B
:1014C400EC08002008B5402000F010F910B908BD60
:1014D400FFF77CFF4021044800F0E5F90028F7D02D
:1014E400402000F013F9F2E70010014030B587B056
:1014F4000121092000F0FAF901214FF4804000F0A5
:1015040003FA4FF46045ADF8145018238DF81730E2
:1015140003238DF81630164C05A9204600F06AF90D
:101524002946204600F0C6F90023ADF800304FF4F8
:101534008272ADF80220ADF80430ADF80630ADF893
:1015440008304FF40072ADF80A20ADF80C30ADF855
:101554000E300723ADF81030A4F5544469462046F4
:1015640000F0E0F90121204600F003FA07B030BD95
:10157400000C014038B50546002402210F4800F054
:101584000BFA034620B90134E4B2C82CF5D913E0B0
:1015940029460A4800F0FBF900240121074800F01D
:1015A400FBF9034620B90134E4B2C82CF5D903E0B1
:1015B400024800F0EEF9C3B2184638BD00380040C6
:1015C40001460139FDD1704708B500EB40008000A9
:1015D400FFF7F6FF08BD08B54FF47A7303FB00F07C
:1015E400FFF7F2FF08BD000040F0BF6040F4003098
:1015F400014BD860704700BF00ED00E0C378FBB139
:10160400154BDA68D243C2F30222C2F1040C0F2351
:1016140023FA02F2417801FA0CF1837813400B4368
:101624001B010278DBB20D490A4482F800330378C7
:1016340003F01F005B090122824041F82320704718
:10164400037803F01F015B0901228A402033034918
:1016540041F82320704700BF00ED00E000E100E006
:101664008379002B35D010B41F4B1A68016822EA25
:1016740001021A605A68016822EA01025A6002797A
:1016840002F1804202F5823211680468214311603C
:101694009A68016822EA01029A60DA68016822EA1B
:1016A4000102DA604379102B09D003F1804303F57A
:1016B40082331A6801680A431A6010BC70470A4BE7
:1016C4009A6801680A439A60DA6801680A43DA6032
:1016D400F3E7037903F1804303F582331A68016861
:1016E40022EA01021A60704700040140064A1368A6
:1016F40003405269024202D01BB900207047002007
:1017040070470120704700BF00040140014B58613D
:10171400704700BF00040140014BD860704700BF10
:10172400002002400B4BDB6813F0010F0BD1094B77
:10173400DB6813F0040F08D1064BDB6813F0100FBD
:1017440005D0032070470120704702207047042011
:10175400704700BF0020024010B50446FFF7E2FFC7
:1017640002E0FFF7DFFF013C012801D1002CF8D192
:1017740004B110BD0520FCE738B504464FF4302011
:10178400FFF7EAFF042800D038BD0A4D2B6943F067
:1017940002032B616C612B6943F040032B614FF40E
:1017A4003020FFF7D9FF2B6923F00203DB04DB0CA5
:1017B4002B61E9E70020024070B504460D464FF462
:1017C4000050FFF7C9FF042800D070BD084E3369EC
:1017D40043F00103336125804FF40050FFF7BCFF51
:1017E400336923F00103DB04DB0C3361EDE700BF55
:1017F4000020024030B5CB7803F00F02964613F078
:10180400100F03D091F802E04EEA020E0B7803B3F6
:101814000468002301E042610133072B18D8012238
:101824009A40B1F800C032EA0C05F5D14FEA830CB6
:101834000F2505FA0CF524EA05040EFA0CFC4CEA13
:101844000404CD78282DE6D0482DE5D10261E3E7E4
:1018540004600B88FF2B25D94468002303E0CD786E
:10186400482D1CD00133072B1BD803F1080C01228F
:1018740002FA0CF2B1F800C032EA0C05F2D14FEAD8
:10188400830C0F2505FA0CF524EA05040EFA0CFC6A
:101894004CEA0404CD78282DE1D14261DFE70261EE
:1018A400E0E7446030BD8368194201D001207047ED
:1018B400002070470161704710B401F003029200E8
:1018C4000F2404FA02FC8908074B023153F8214023
:1018D40024EA0C0443F8214053F821409040044387
:1018E40043F8214010BC70470000014021B1054A73
:1018F4009369184390617047024A936923EA000090
:10190400906170470010024021B1054AD369184321
:10191400D0617047024AD36923EA0000D06170475E
:10192400001002402DE9F041038803F441520F886E
:10193400B1F802808E88CD880C89B1F80AE0B1F83C
:101944000CC0CB8947EA08073E4335432C434EEA93
:10195400040E4CEA0E0C43EA0C0313430380838BFE
:101964009BB223F400639BB283830B8A0382BDE89A
:10197400F08129B103889BB243F040030380704790
:1019840003889BB223F040039BB20380704781819C
:101994007047808980B270470389194201D00120C1
:1019A4007047002070477047FEE7FEE7FEE7FEE75A
:1019B4007047000082B00023019300932C4A1368FF
:1019C40043F4803313602A4B1B6803F40033009301
:1019D400019B01330193009B1BB9019BB3F5A06FDD
:1019E400F1D1234B1B6813F4003F06D0012300936D
:1019F400009B012B04D002B0704700230093F7E74B
:101A04001C4B1A6842F010021A601A6822F0030292
:101A14001A601A6842F002021A60A3F580535A68E9
:101A24005A605A685A605A6842F480625A605A6826
:101A340022F47C125A605A6842F4E8125A601A6816
:101A440042F080721A600A4B1B6813F0007FFAD0D0
:101A5400074B5A6822F003025A605A6842F00202A5
:101A64005A60034B5B6803F00C03082BF9D1C2E7FF
:101A7400001002400020024008B5FFF79BFF08BD9C
:101A840008B5104B1A6842F001021A6059680E4AF0
:101A94000A405A601A6822F0847222F480321A6072
:101AA4001A6822F480221A605A6822F4FE025A60EC
:101AB4004FF41F029A60FFF7DFFF044B4FF0006200
:101AC4009A6008BD001002400000FFF800ED00E03D
:101AD4000B480C490C4A002302E0D458C450043388
:101AE400C4188C42F9D3094A094C002301E013605D
:101AF4000432A242FBD3FFF7C3FF05F06BFC70472F
:101B04000000002004060020707A0008000700206E
:101B14004072002038B50446094D0A4B6B6003F14E
:101B240088336B603420FFF7F7FD04F580304030D4
:101B3400C002FFF721FE2B6943F080032B6138BDFF
:101B4400002002402301674500B583B0002000F067
:101B540069FC002811DB4FF4006301930323009315
:101B6400C0230B4A0B49002000F012FD00280CDBB7
:101B7400094B186803B05DF804FB002207490848C4
:101B840001F05DFA4FF0FF30F4E74FF0FF30F1E77A
:101B9400000000208477000830090020FF010300C2
:101BA4007877000808B50349034B186800F026FD50
:101BB40008BD00BF8477000830090020F8B5054649
:101BC4000F461646002407E037F814102846FFF79E
:101BD400F3FD02350134A4B2B442F5D3F8BD0000DC
:101BE40010B5094C094B636003F18833636000F559
:101BF400803040304FF48062C002FFF7DFFF23697A
:101C040043F08003236110BD002002402301674597
:101C1400008880B27047F8B505460F461646002482
:101C240007E02846FFF7F4FF27F8140002350134D3
:101C3400A4B2B442F5D3F8BD08B500F58030403005
:101C44004FF48062C002FFF7E6FF002008BD704732
:101C5400704745F209439A4208D045F225439A4217
:101C640001D0002070476FF0150070476FF0150029
:101C74007047000008B5074B1B780BB1002008BD66
:101C8400044B01221A70FFF7C3FA034B034A1A608C
:101C9400F4E700BF34090020EC080020531C0008BE
:101CA40010B51C46D9B21046FFF738FB204610BDCC
:101CB40008B50349034B186800F04AFC002008BD2E
:101CC4008C7700083400002008B5002000F0D0FB19
:101CD400002816DB114B00221A600022172110483D
:101CE400FFF7BAF90F4A1049002000F013FC00284E
:101CF40010DB0A4B1A680D490D4801F0A0F90020C9
:101D040008BD00F0A3FB054B18600028E5DA4FF08E
:101D1400FF30F5E74FF0FF30F2E700BF340000205A
:101D2400C91400080C00002094770008FF01020089
:101D34009C77000810B504460C4B1B783BB1204639
:101D440005F01DF8C1B22046FFF7E8FA10BD0022E5
:101D540017210748FFF780F9FFF75AFA054B064A9F
:101D64001A60024B01221A70E9E700BF340900200F
:101D7400C9140008EC080020531C0008F0B583B017
:101D840007460E4601A900F087FB0546384600F0D9
:101D940067FC4FF0FF30002301E018460133019A3D
:101DA4009A4210D903EB4302D10005EBC204227D11
:101DB400D209F2D06A58B242F0D1384600F060FC41
:101DC400204603B0F0BDB0F1FF3F0BD000EB400064
:101DD40005EBC0048023237545F83060384600F0D5
:101DE4004FFCEDE7384600F04BFC0024E8E7000028
:101DF40030B583B00446124B1B6A00930023019351
:101E040000F110056946284603F01FFD01E003F0C8
:101E140003FC0B4B1B6A022283F8342004F10C00F0
:101E2400FFF79BF80028F2D16946284603F01BFD12
:101E3400034B1B6A012283F8342003B030BD00BF7A
:101E4400101400202DE9F04180460F46164601EBA0
:101E54004100C00005F06AFCC8F80000F0B100259C
:101E6400BD4212D2D8F8004005EB450304EBC3048D
:101E740018220021204604F022FF304605F056FCCB
:101E8400A06010B166600135EAE715B12846BDE8E7
:101E9400F081D8F8000005F058FCF7E74FF0FF3068
:101EA400F5E710B504460C30FFF757F800B910BD3C
:101EB4002046FFF79DFFFAE710B50446FFF7F1FF50
:101EC400012104F10C00FFF740F810BD10B50446E1
:101ED40000210C30FFF739F8206903F0A1FC10BD94
:101EE4002DE9F04383B0074600F0F8FA00284BD000
:101EF400804601A9384600F0CFFA0646002846D0AD
:101F0400384600F0ADFB00250BE08722214922482A
:101F140003F034FB1FE0002323752046FFF7D6FFB0
:101F24000135019BAB4228D905EB45044FEAC409AE
:101F340006EBC404237DDB09F2D12046FFF7BCFF86
:101F4400237D13F0010F06D0D8F8083056F80900A5
:101F540098470028D9DB237D13F0020FDBD0D8F893
:101F64000030A16856F8090098470028D3DA8C227B
:101F74000849094803F002FBCDE7384600F080FB2E
:101F8400002003B0BDE8F0834FF0FF30F9E74FF0D5
:101F9400FF30F6E7E0770008A877000808B5836A01
:101FA4009868FFF79DFF08BDF0B583B0064600F0C2
:101FB40095FA074640B101A9304600F06DFA05468E
:101FC400304600F04DFB18E052222649264803F023
:101FD400D5FAF0E704F07CFE4042019BB0FBF3F23B
:101FE40003FB120303EB430305EBC30404F10C00EE
:101FF400FEF7B3FF40B103F00FFB04F069FE0028C5
:10200400E8DB04F065FEE8E72046FFF755FF237D93
:1020140013F0020F0AD0BB6820689847002810DB31
:102024007B68A16820689847002812DB0023237589
:102034002046FFF74BFF304600F022FB204603B05A
:10204400F0BD0023237564220649074803F096FA7D
:10205400E6E70023237568220249034803F08EFA59
:10206400E4E700BFD0770008A87700082DE9F0471F
:1020740082B080460F4600F031FA002849D08146EC
:1020840001A9404600F008FA0646404600F0E8FA86
:1020940000250DE000232375E0222049204803F0A9
:1020A4006DFA23E0002323752046FFF70FFF013567
:1020B400019BAB422AD905EB45044FEAC40A06EB5F
:1020C400C404237DDB09F2D056F80A30BB42EED1BA
:1020D4002046FFF7F1FE237D13F0020FE2D0D9F87A
:1020E400083056F80A0098470028D3DBD9F80430A2
:1020F400A16856F80A0098470028D3DA002323750C
:10210400E4220649064803F039FACBE7404600F0DA
:10211400B7FA002002B0BDE8F08700BFC877000816
:10212400A87700082DE9F04782B006460D46904690
:102134001F46DDF8289000F0D1F9824658B101A974
:10214400304600F0A9F980B940F203122849294821
:1021540003F014FA09E0FF222549264803F00EFA99
:10216400EDE729463046FFF71FFF29463046FFF7C3
:1021740005FE04460028F4D0FFF79EFE2368AB4218
:1021840003D02046FFF7A2FEEFE717B963684B457B
:1021940022D0237D13F0040F08D1DAF80030A168AF
:1021A40028469847237D43F00403237507EB09026F
:1021B40063689A4215D8A0684A464146384404F0F8
:1021C40053FD237D43F0020323752046FFF77EFE73
:1021D400002002B0BDE8F087237D43F0040323759B
:1021E400E4E740F221120249024803F0C7F9E2E7AA
:1021F400C4770008A87700082DE9F04782B00646A6
:102204000D4690461F46DDF8289000F067F9A0B10E
:10221400824601A9304600F03FF9B8B1294630465C
:10222400FFF7ACFD0446D0B1FFF746FE2368AB428E
:102234001AD02046FFF74AFEF0E740F23B121D4950
:102244001D4803F09BF94FF0FF3029E04FF4A072D2
:102254001849194803F092F94FF0FF3020E029465D
:102264003046FFF7A1FED9E7237D13F0040F08D110
:10227400DAF80030A16828469847237D43F0040328
:10228400237507EB090263689A420CD8A1684A4691
:102294003944404604F0E8FC2046FFF717FE0020CE
:1022A40002B0BDE8F0874FF4AD720249024803F072
:1022B40065F9EBE7C0770008A87700082DE9F0413D
:1022C40082B006460D4617460023019300F006F936
:1022D400804658B101A9304600F0DEF888B940F2D2
:1022E40073121B491B4803F049F90AE040F26F12CC
:1022F4001749184803F042F9ECE729463046FFF73E
:1023040053FE29463046FFF739FD04460028F4D031
:10231400FFF7D2FD2368AB4203D02046FFF7D6FD7A
:10232400EFE7237D13F0040F08D1D8F80030A1683B
:1023340028469847237D43F0040323751FB1237D6A
:1023440043F002032375204602B0BDE8F08100BFCC
:10235400B8770008A877000818B108B5FFF7B6FDEC
:1023640008BD704708B50369032B0AD803EB430380
:10237400064A02EB83035B680B61DB6923B1984770
:1023840008BD6FF01200FBE70020F9E7D809002030
:1023940008B50369032B0AD803EB8303064A02EB4F
:1023A400C3035B680B61DB6923B1984708BD6FF019
:1023B4001200FBE70020F9E73809002030B583B0AC
:1023C4000446164B1B6A00930023019300EB800321
:1023D400DB002033124D1D4404356946284603F0C2
:1023E40034FA01E003F018F90C4B1B6A022283F85B
:1023F400342004EB8403DB00203309481844FEF73F
:10240400ACFD0028EED16946284603F02CFA034BB4
:102414001B6A012283F8342003B030BD101400205D
:102424003809002003280BD800EB8000064B03EB8F
:10243400C00043690BB9002070474FF0FF3070476C
:102444004FF0FF30704700BF3809002000200328F8
:1024540008D800EB8003DA00044B13445B691BB11A
:102464000130F4E74FF0FF30704700BF3809002017
:1024740003280BD800EB4000064B03EB80004368B5
:102484000BB9002070474FF0FF3070474FF0FF301A
:10249400704700BFD809002003280CD8074B00EB75
:1024A400800203EBC20292690A6000EB800003EB36
:1024B400C000006970470020704700BF3809002041
:1024C400032806D800EB8000034B03EBC000C0696F
:1024D40070470020704700BF38090020032806D841
:1024E40000EB8000034B03EBC00040697047002001
:1024F400704700BF38090020032806D800EB80008D
:10250400034B03EBC000C06870474FF0FF307047C7
:1025140038090020032812D810B400EB40030B4CF8
:1025240004EB83035B686BB9234600EB400443F878
:10253400241003EB84004260002010BC70476FF04D
:10254400150070476FF00F00F7E700BFD8090020AF
:10255400032815D810B5044600EB40030B4A52F883
:10256400230004F0F7FB70B9084B04EB440292001B
:102574000021995004EB440403EB8404616010BD12
:102584006FF0150070476FF01500F8E7D8090020C8
:102594002DE9F041079F032824D804460E4615462A
:1025A400984600EB8003144A02EBC3035B69E3B96A
:1025B40000EB8000C00010303A4606990E4B1844D8
:1025C400FFF740FCA0B10C4B04EB840103EBC10208
:1025D400C2F80C80906143F831605561D7610020E6
:1025E400BDE8F0816FF01500FAE76FF00F00F7E730
:1025F4004FF0FF30F4E700BF38090020032815D856
:1026040010B5044600EB80030B4A52F8330004F083
:10261400A1FB70B9084B04EB8402D200002199504D
:1026240004EB840403EBC404616110BD6FF0150076
:1026340070476FF01500F8E73809002010B504461C
:1026440000EB8003DB00203304481844FEF785FCCC
:1026540000B910BD2046FFF7B1FEFAE738090020A3
:1026640010B50446FFF7EAFF04EB8404E4002034C9
:10267400012102482044FEF768FC10BD38090020FF
:1026840070B50446084D860000EB8000C000203081
:1026940000212844FEF759FC344405EBC405686A5C
:1026A40003F0BEF870BD00BF3809002038B5074DEF
:1026B400074BED1AED08002404E0054B53F83430C1
:1026C40098470134AC42F8D338BD00BF787700088E
:1026D40068770008072831D88C461E4B1A6A00EB2D
:1026E400400302EBC30393F8643253B307292BD896
:1026F400BCF1070F09D80CEB4C0302EBC30393F8AE
:10270400643213B90CF1010CF2E7BCF1070F1ED8C7
:1027140010B50CEB4C0402EBC40400EB400002EBDC
:10272400C00204F5147402F5147EBEE80F000FC451
:102734009EE8030084E80300604610BD6FF00800C3
:1027440070476FF0080070476FF0150070476FF026
:10275400170070471014002007281AD838B505460A
:102764000C46124B1B6A00EB400203EBC20393F8C6
:1027740064328BB188420AD0082910D812D0084696
:1027840000F012FE21462846FFF7A4FF38BD084694
:10279400FCE76FF0080070476FF00800F6E76FF091
:1027A4000800F3E76FF00800F0E700BF1014002002
:1027B40008B50021FFF78EFF08BD000007280BD8DD
:1027C400084B1B6A00EB400003EBC00090F8643236
:1027D4002BB16FF0250070476FF0080070476FF061
:1027E400080070471014002038B50546002400E0A6
:1027F40001340B4B1B68A3420FDD04EB8403294611
:10280400084A52F8230004F0A5FA0028F0D104EB9A
:102814008404044800EB840000E0002038BD00BFBD
:10282400000100200401002000B583B0104B1B6A96
:1028340000930023019369460E4803F006F801E073
:1028440002F0EAFE0A4B1B6A022283F834200A488B
:10285400FEF783FB0028F3D16946064803F003F82A
:10286400034B1B6A012283F8342003B05DF804FB98
:10287400101400200C0A0020100A002030B583B088
:102884000446124B1B6A00930023019300F11805C0
:102894006946284602F0D9FF01E002F0BDFE0B4B69
:1028A4001B6A022283F8342004F11C00FEF755FB56
:1028B4000028F2D16946284602F0D5FF034B1B6A73
:1028C400012283F8342003B030BD00BF101400206F
:1028D40008B5024802F0A4FF08BD00BF0C0A00209E
:1028E40010B51348FEF739FB68B100241F2C0DD82E
:1028F400C4EBC403DB0020330E481844FEF740FB4E
:1029040038B90134F2E7FFF78FFFEEE7FFF78CFFEA
:10291400EBE70748FEF709FBC4EBC404054B03EBE4
:10292400C40438220021204604F0C9F9204610BD11
:1029340018010020140A002070B50646002400E0A7
:1029440001341F2C1BD8C4EBC403DB0020330D4D12
:102954001D442846FEF701FB0028F1D0C4EBC40354
:10296400084A02EBC3039B68B342E9D12846FEF749
:10297400CBFAC4EBC404034800EBC40000E000201D
:1029840070BD00BF140A002010B500F120042046D9
:10299400FEF709FB2046FEF7E0FA00B110BDFFF791
:1029A40097FF0248FEF7B0FAF8E700BF18010020CD
:1029B40010B504461C30FEF7D0FA00B910BD20460D
:1029C400FFF75CFFFAE750B338B50446FFF7F0FFB2
:1029D40004F120052846FEF7C0FA18B32846FEF78E
:1029E400BCFA012816D8A36A3BB11B6A2BB15B69F8
:1029F4001BB1E2680AB920469847A36A2BB11B6A47
:102A04001BB11B690BB1204698472046FFF7BCFF5A
:102A1400002038BD2046FFF7B7FF0020F9E74FF04C
:102A2400FF3070474FF0FF30F3E7F8B507460C4628
:102A34000846FFF781FF064658B144693CB104F1EA
:102A44002000FEF761FA3046FFF7BDFF2646304608
:102A5400F8BDFFF745FF054601212030FEF775FA62
:102A6400002105F11C00FEF770FA00236B60AB61D6
:102A7400AF62AC60EB603B6A1B682846984704462B
:102A840038B13B6A9B6828469847002806DB2E46E7
:102A9400DDE72846FFF778FF2646D8E73B6A5B6800
:102AA400284698472846FFF76FFFD0E710B504463D
:102AB400FFF77EFF012104F11C00FEF746FA10BD6A
:102AC40010B5044600211C30FEF73FFAA06902F05D
:102AD400A7FE10BD072824DC10B584468E46134695
:102AE400174A146A00EB400204EBC20292F8642213
:102AF400D2B100EB4000C00000F5147021180CEBBB
:102B04004C0204EBC202D2F85C0280B1D2F860221B
:102B140082B154698CB17246A047002800DB0020C2
:102B240010BD6FF0080070476FF00800F8E76FF011
:102B34001500F5E76FF01500F2E76FF01500EFE709
:102B44001014002030B583B00C46844650B149B10E
:102B5400C96A99B1CD6A8DB1069900912146A847F9
:102B640003B030BD6046FFF72EFF2046FFF72BFF72
:102B74000023069A13606FF00100F1E76046FFF747
:102B840022FF069B1C600020EAE700002DE9F041CB
:102B94001D4600232B6000283ED00E4614460746EF
:102BA400022A0ED0FB6A73B3D3F80880B8F1000F81
:102BB40029D074B32B46224631463846C047BDE877
:102BC400F0810B782E2BEDD14B782E2BEAD1154BBF
:102BD4001B6AD3F81033834212D0D0F82880B8F19E
:102BE400000FDFD0D8F814308342DBD1FFF7EBFEBF
:102BF400D8F818709FB107F12000FEF785F9D1E7E6
:102C040028600020DBE73846FFF7DDFE6FF0130095
:102C1400D5E72F602046D2E76FF00100CFE76FF0D1
:102C24000100CCE7101400202DE9F04387B00646DC
:102C34000F4690460393DDF838900022C9F800202F
:102C44008BB133782F2B01D05C2B2DD10398FFF758
:102C5400BAFE274B1B6AD3F81003039001362030C9
:102C6400FEF752F920E0224B1B6AD3F814030390B9
:102C74002030FEF749F9E4E723B303982030FEF748
:102C840043F905AB2A4631460398FFF77FFF054613
:102C9400A0B903AB009300231A4605990398FFF7E4
:102CA40051FF0546D0B926463446002514F8013BA9
:102CB400002BE1D02F2BDFD00135F7E70398FFF786
:102CC40082FE0BE00398C36A63B19B6853B1C8F8F2
:102CD40000603D60039BC9F800300025284607B01A
:102CE400BDE8F083FFF76FFE6FF01305F6E700BF52
:102CF4001014002070B588B0039116461C460023BA
:102D040023600B4603A9009107AA06A9FFF78CFFCD
:102D1400054610B1284608B070BD03982030FEF770
:102D2400F3F805AB069A07990398FFF72FFF0546BA
:102D340058B976B105AB009300231A460599039858
:102D4400FFF700FF40B10546E4E70398FFF73BFEB9
:102D5400E0E70398FFF737FE059B2360DAE708B541
:102D64000B4601220021FFF7C5FF08BDF0B587B06F
:102D74000D4617461E4604A900910C9B02AA03A9FE
:102D8400FFF752FF041E06DB039B6BB915F0010429
:102D940004D1049B3360204607B0F0BD0498FFF7CC
:102DA40012FE6FF01404F6E704982030FEF7ACF836
:102DB40015F0400F2CD005AB039A02990498FFF745
:102DC400E5FE041E08DB15F0800F29D00598FFF7F7
:102DD400FAFD6FF0100423E00498C36A002B36D088
:102DE4005B6813B96FF00C041AE02030FEF78CF81E
:102DF4000498C36A5C6805AB009338233A46029989
:102E0400A0470446059B33600498FFF7DCFDC2E746
:102E140005AB039A02990498FFF7B8FE041E10DB71
:102E240015F4007F0AD00598C36A1BB15B6B0BB124
:102E340000219847059B012283F82420059B3360D9
:102E4400A9E70498FFF7BFFD6FF00104A3E76FF053
:102E54000C04E5E7F0B587B00E4605AA00920023FE
:102E640004AA03A9FFF7E0FE00281FDB0598C26A45
:102E7400BAB19369ABB12030FEF746F8059CE36A1A
:102E84009F69049D284603F07AFF0246334629468B
:102E94002046B84704460598FFF795FD204607B03D
:102EA400F0BDFFF790FD6FF02504F7E76FF0010424
:102EB400F4E770B586B005AB0093002304AA03A918
:102EC400FFF7B2FE002828DB05984388012B19D1AF
:102ED400C36AE3B1DB69D3B12030FEF715F8059C72
:102EE400E36ADE69049D284603F049FF0246294649
:102EF4002046B047041E0ADA0598FFF764FD204611
:102F040006B070BDFFF75FFD6FF00104F7E70598A9
:102F1400FFF759FD6FF02504F1E76FF00104EEE7C8
:102F2400F0B587B006460D4605AB0093002304AA0E
:102F340003A92846FFF778FE041E1BDB284603F08E
:102F44001EFFD8B1059CA36A9A68B36A9B689A422B
:102F54001DD1E36A23B3DD6815B3049F384603F03B
:102F64000EFF03463A4621463046A847044620460B
:102F740007B0F0BD3046FFF726FDF8E73046FFF70F
:102F840022FD0598FFF71FFD4FF0FF34EFE72046C1
:102F9400FFF719FD3046FFF716FD6FF01104E6E761
:102FA4002046FFF710FD3046FFF70DFD4FF0FF34CC
:102FB400DDE710B582B00C4601A9FFF7D0FE00286A
:102FC40003DB21460198FFF7ABFF02B010BD70B5DB
:102FD40086B005AB0093002303AA04A9FFF724FEDF
:102FE400002826DB05984388012B18D1C36ADBB17E
:102FF4001B69CBB12030FDF787FF059CE36A1E698E
:10300400039D284603F0BBFE024629462046B047EE
:1030140004460598FFF7D7FC204606B070BDFFF7BD
:10302400D2FC6FF00104F7E7FFF7CDFC6FF0250445
:10303400F2E76FF00104EFE76FF0250070472DE928
:10304400F04186B00C46174605AB0093002304AA52
:1030540003A9FFF7E9FD00281DDB0598C36AABB19E
:103064001B6A9BB12030FDF74FFF059DEB6AD3F837
:103074002080049E304603F082FE024600972346D9
:1030840031462846C04706B0BDE8F081FFF79BFCF7
:103094006FF02500F7E76FF00100F4E76FF025000B
:1030A400704710B582B00C4601A9FFF758FE0028FE
:1030B40012DB019A906A036A1B6A3BB12146984766
:1030C4000198FFF780FC002002B010BD1046FFF706
:1030D4007AFC6FF02500F7E74FF0FF30F4E70000CB
:1030E400072817D808B5114B1B6A00EB400203EB05
:1030F400C20292F8642282B100EB400003EBC000EC
:10310400D0F85C3263B1986A036A1B6A5BB1984772
:10311400002008BD6FF0080070476FF00800F8E762
:103124006FF00100F5E76FF02500F2E710140020BE
:103134006FF0250070476FF02500704710B586B01A
:1031440005AB0093002304AA03A9FFF76DFD002833
:1031540017DB05984388012B0ED10B4C236AD3F857
:103164001403FFF730FC236A0598C3F81403FFF730
:103174002AFC002006B010BDFFF725FC6FF001000B
:10318400F8E76FF00100F5E71014002007281DD8B8
:10319400144B1A6A00EB400302EBC30393F8643246
:1031A400BBB110B500EB400002EBC000D0F85C42AC
:1031B40094B16388012B12D1D2F81403FFF703FCF6
:1031C400084B1B6AC3F81443002010BD6FF00800BD
:1031D40070476FF0080070476FF00100F5E76FF07B
:1031E4000100F2E71014002010B586B005AB00937F
:1031F400002304AA03A9FFF717FD002817DB05988D
:103204004388012B0ED10B4C236AD3F81003FFF72C
:10321400DAFB236A0598C3F81003FFF7D4FB0020F8
:1032240006B010BDFFF7CFFB6FF00100F8E76FF0B9
:103234000100F5E710140020072819D8114B1A6A69
:1032440000EB400302EBC30393F864329BB100EB41
:10325400400002EBC000D0F85C0278B1428813044D
:1032640003600B430360012380F82430002070477F
:103274006FF0080070476FF0080070476FF00100AE
:10328400704700BF1014002010B582B00C4601A98D
:10329400FFF765FD002810DB019A53881B041360B7
:1032A400019B1968214319600198012380F8243097
:1032B400FFF789FB002002B010BD6FF00100FAE7B0
:1032C4006FF02500704700002DE9F04184B00646F8
:1032D400084617461A460024072C0BD804EB440C66
:1032E40006EBCC0C9CF814500DB10134F4E7012327
:1032F4008CF81430072C22D80023009303AB3946F2
:10330400FFF734FD002820DB04EB44054FEAC50831
:1033140006EBC5052F812B6903B32B6933B1DB6938
:1033240023B129460398984700281EDB039BEB60D2
:103334001B6806F80830204604B0BDE8F0810F4B46
:1033440018221A604FF0FF30F6E704EB440406EB52
:10335400C406002333754FF0FF30EDE7039BDB6AAF
:103364001B68002BD9D02B61D7E700232B7503985A
:10337400FFF729FB4FF0FF30DEE700BF0007002016
:1033840010B51346044A146A0A46014604F514703B
:10339400FFF79AFF10BD00BF1014002008B50A46BD
:1033A4004121FFF7EDFF08BD38B5164B1A6A00EB53
:1033B400400302EBC30393F864320BB3044600EBFF
:1033C400400302EBC303D3F85C52D3F860324BB131
:1033D4001B6A3BB100EB4001C90001F514711144B3
:1033E40028469847074B1B6A04EB440203EBC202CE
:1033F400002182F86412C2F85C122846FFF7E3FA4F
:1034040038BD00BF10140020072821D810B5844609
:103414008E461346164A146A00EB400204EBC202BD
:1034240092F86422BAB100EB4000C00000F51470B9
:1034340021180CEB4C0204EBC202D2F85C0268B116
:10344400D2F860226AB1D46874B17246A04710BD44
:103454006FF0080070474FF0FF30F8E76FF0080096
:10346400F5E76FF00100F2E76FF00100EFE700BF4E
:1034740010140020072849D870B504460D46164696
:103484002B4B1B6A00EB400203EBC20292F864224E
:10349400002A3ED000EB400203EBC202D2F85422D1
:1034A400002A39D000EB400203EBC202D2F85C02DE
:1034B400A8B304EB440203EBC202D2F8602242B187
:1034C400126A32B104EB4401C90001F514711944C4
:1034D4009047012E0CD9022E16D1154B1B6A04EB12
:1034E400440203EBC203D3F85C32DBB15B681D44D6
:1034F400002D1ADB0E4B186A04EB440400EBC404E1
:10350400C4F85452284670BD0025F3E76FF0080054
:1035140070474FF0FF30F6E74FF0FF30F3E74FF01E
:10352400FF30F0E74FF0FF30EDE74FF0FF30EAE710
:1035340010140020072821DC10B584468E4613465B
:10354400164A146A00EB400204EBC20292F86422A9
:10355400BAB100EB4000C00000F5147021180CEB68
:103564004C0204EBC202D2F85C0268B1D2F86022C9
:103574006AB1546874B17246A04710BD6FF0080078
:1035840070474FF0FF30F8E76FF00800F5E76FF091
:103594001500F2E76FF01500EFE700BF10140020EC
:1035A40007283CDC2DE9F84304460E461746234B16
:1035B4001D6A00EB400305EBC30393F864328BB33D
:1035C40000EB4000C00000F5147005EB000804EBAC
:1035D400440305EBC303D3F85C2232B304EB440386
:1035E40005EBC303D3F8603213B39B681BB3916834
:1035F400134801F09FFF04EB440305EBC303D3F826
:103604006032D3F8089004EB440405EBC4043B4651
:1036140032464146D4F85C02C847BDE8F8836FF0EF
:10362400080070474FF0FF30F7E76FF00800F4E749
:103634006FF01500F1E76FF01500EEE710140020AD
:10364400F07700082DE9F04385B004460D46904616
:10365400D0F824904368DE00B1FBF6F6D9F82010C8
:10366400EF08B7FBF3F20120009003FB12730DF196
:103674000F023144A068FEF7BFFD00282BDBB8F130
:10368400000F1ED105F007050121A9409DF80F5038
:1036940065EA01058DF80F50D9F820106368B7FB6F
:1036A400F3F20120009003FB12730DF10F02314479
:1036B400A068FEF737FD002810DB002005B0BDE848
:1036C400F08305F007050121A9409DF80F500D4036
:1036D4008DF80F50E0E74FF0FF30EFE74FF0FF3089
:1036E400ECE700002DE9F84306468946D0F824802B
:1036F40000273C46D8F82430BB424BD9D8F82010D8
:1037040001223944B068FEF7D9FD054683685A782A
:103714001978244801F00EFF00222BE0D8F800307D
:10372400A34214D904F007020123934021EA0301C0
:103734008CF80010D8F804307BBBC9F80040012392
:1037440033772846FEF708FE0020BDE8F8832846B4
:10375400FEF702FE4FF0FF30F7E70023072B08D8EF
:1037640041FA03F010F0010FD8D101340133DBB278
:10377400F4E701327368934207D9AB6803EB020C98
:10378400995C0029E9D10834F3E72846FEF7E4FD03
:103794000137AFE74FF0FF30D7E7013BC8F80430FB
:1037A400CBE700BF007800082DE9F04184B005465E
:1037B4000C46D0F824804368DE00B1FBF6F6D8F856
:1037C4002010E708B7FBF3F20120009003FB12730B
:1037D4000DF10F023144A868FEF70EFD002824DB2A
:1037E40004F00704012202FA04F49DF80F301C438C
:1037F4008DF80F40D8F820106B68B7FBF3F00092F7
:1038040003FB10730DF10F023144A868FEF78AFC24
:1038140000280DDBD8F804300133C8F80430012344
:103824002B77002004B0BDE8F0814FF0FF30F9E7BA
:103834004FF0FF30F6E700002DE9F04105460F4652
:10384400466A0024A046F369434542D9B16901227E
:103854004144A868FEF732FD00222AE01C44F368C4
:10386400A34215D904F007020123934021EA03017E
:103874008CF8001033697BBB3C6001232B77FEF787
:103884006BFD2146164801F055FE0020BDE8F0818D
:10389400FEF762FD4FF0FF30F8E70023072B07D84F
:1038A40041FA03FE1EF0010FD8D10133DBB2F5E774
:1038B40001326B68934207D9836803EB020C995C6D
:1038C4000029EAD10834F3E7FEF746FD08F10108C0
:1038D400B9E74FF0FF30D9E7013B3361CCE700BFD4
:1038E400107800082DE9F04184B005460C46D0F864
:1038F40024804368DE00B1FBF6F6D8F81810E70818
:10390400B7FBF3F20120009003FB12730DF10F02D9
:103914003144A868FEF770FC002824DB04F0070497
:10392400012202FA04F49DF80F301C438DF80F4075
:10393400D8F818106B68B7FBF3F0009203FB107310
:103944000DF10F023144A868FEF7ECFB00280DDBF3
:10395400D8F810300133C8F8103001232B77002039
:1039640004B0BDE8F0814FF0FF30F9E74FF0FF30CD
:10397400F6E730B585B0436A9D694468B1FBF4FC51
:1039840004FB1C1401230093E3080DF10F0205EB63
:103994000C018068FEF730FC00280ADB04F0070104
:1039A4009DF80F4044FA01F1012905D0012005B02A
:1039B40030BD4FF0FF30FAE70020F8E743688B4250
:1039C40033D370B584B01446856A466B01316A6896
:1039D400B1FBF2F002FB101303B1012303440C2BDF
:1039E40019D9920802EB420149000C3199421FD3C4
:1039F4000D3BB3FBF2F102FB11330C3156F82110ED
:103A0400A868042200929B0003AAFEF7F5FB48B9BC
:103A1400039B236004E0013B56F82330236000201D
:103A240004B070BD4FF0FF30FAE74FF0FF3070473D
:103A34004FF0FF30F4E76FF01400704770B5A0B09A
:103A440005460C46164680236A462146284600F061
:103A54008FFF002813DD1F9B002BF4D081226946C1
:103A640006F10A0003F0A8F9684603F088F93081EA
:103A74001E9B33606368803B7360606800E00020D5
:103A840020B070BD10B50446542003F04FFE6063AF
:103A940030B1044BE3625422002103F010F92046B4
:103AA40010BD00BF1C010020C36853B910B5044603
:103AB4002030FDF752FA38B9606B03F046FE00205F
:103AC40010BD4FF0FF3070474FF0FF30F8E70000B3
:103AD400F0B5A3B00446866A776A856829463046FD
:103AE400FFF747FF012841D1002102917C2203A85E
:103AF40003F0E5F8B38905FB03F17268B1FBF2F159
:103B0400BF6AB2FBF3F2B5FBF2F002FB1055B068EA
:103B1400009305FB03F302AA3944FEF76DFB00286A
:103B240000DAFEE7542202A9606B03F09DF8179BAC
:103B34002360189A6260199AA2601A9AE2601B0CB8
:103B4400032B05D8DFE803F002090C0F094BE362ED
:103B5400002084F8240023B0F0BD074BE362F7E7AC
:103B6400064BE362F4E7064BE362F1E74FF0FF3004
:103B7400F1E700BF800100201C0100207400002038
:103B840038000020F0B5A3B00446856A6F6A8668E1
:103B94006B68AA89B3FBF2F3B6FBF3F6002102913A
:103BA4007C2203A803F08BF85422616B02A803F073
:103BB4005BF82368179363681893A2681992E36803
:103BC4001A9323691B93B96AAB896868B0FBF3F055
:103BD400B2FBF0FC00FB1C22A868009302FB03F379
:103BE40002AA3144FEF79EFA002802DB002384F87F
:103BF400243023B0F0BD38B5044601221146806854
:103C0400FEF75CFB054628222146806803F02CF869
:103C1400A8683422616A283003F026F80023237749
:103C24002846FEF799FB38BD70B582B0054601A958
:103C3400806AFFF701FE002826DBFEF751FE0446EA
:103C4400019B83600121C16000264660AB6A8362E8
:103C540080F82460C6622030FDF777F9314604F11C
:103C64001C00FDF772F92046FFF70CFF064610B161
:103C7400204602B070BD0199A86AFFF733FE2046C2
:103C8400FEF7A1FE3446F3E70024F1E7F0B583B074
:103C940005465C2003F04AFD04460028F9D0282399
:103CA4000093002302460121A868FEF7A5FA002824
:103CB4002EDB22681E4B9A422FD104F128073423AD
:103CC400009328233A460121A868FEF795FA0028B4
:103CD40028DB23682B6063686B60A368AB60A389EF
:103CE400AB81144B2B6200262E612E773422394689
:103CF400686A02F0B9FF31462846FEF796FE68610D
:103D04000D4BC362204603F020FD284603B0F0BDEE
:103D1400204603F01AFD0020F8E7204603F015FDC5
:103D24000020F3E7204603F010FD0020EEE700BF7B
:103D340044332211E40100201C01002038B504465C
:103D4400FEF7B4FE2046FFF71DFF002584F824503B
:103D54002046FEF7B5FE284638BD00002DE9F043A5
:103D640083B00C4615469846DDF828900021C9F822
:103D740000100746E8B12CB36388042B28D1002334
:103D8400196861B31A46A06AFEF798FA06462046F7
:103D9400FEF719FEB06800974B4642462946FEF7E7
:103DA400E5FF04463046FEF7D7FA204603B0BDE8E7
:103DB400F0830C4B1B6AD3F8107307F12000FDF756
:103DC400A3F8D8E73846FEF7FEFD6FF00104ECE7F0
:103DD4003846FEF7F8FDC9F800400024E5E74FF047
:103DE400FF34E2E710140020F8B504464388042B9E
:103DF40012D10D461646836A5B68934200D21E4672
:103E0400636B002219682046FEF758FA07462046DD
:103E1400FEF7D9FD002409E0FEF7D5FD6FF0150487
:103E24000DE00134294601F8013B0D46A64203DDAD
:103E3400BB681B5D002BF4D13846FEF78DFA204693
:103E4400F8BD10B4002300E00133CC5C54B19A42B5
:103E540006D910F803C0A445F6D0ACEB040002E088
:103E6400002000E0002010BC70472DE9F04FABB0FB
:103E7400054605934088012840F0B3808B461746D9
:103E8400D5F828A06B6B04936B684FEAD318DAF863
:103E94000410B3FBF1F201FB123303B10346D31850
:103EA4000393002302931C46029B039A934280F0DF
:103EB4009580029B0B2B20D9AB6A5B689B0803EBB4
:103EC400430252000C3202998A4240F28D80A1F1E1
:103ED4000C02B2FBF3F103FB11230C31049A52F8E8
:103EE4002110DAF80800042200929B0009AAFEF7C8
:103EF40083F900286FDB002643E00022049B02992B
:103F040053F82110DAF80800FEF7D8F906900026D5
:103F1400CDF81CA0824608E00698FEF71DFA6FF063
:103F2400010052E001340136B6B2B146AB6A5B68B7
:103F3400B6EBD31F19D24445EED2DAF8083003EBBE
:103F4400C9193A4659464846FFF77BFF0028E9D18C
:103F5400D9F87C30012BE5D1D9F87830059A136073
:103F64000698FEF7F9F920462FE0DDF81CA0069824
:103F7400FEF7F2F9029B0133029395E7013401360F
:103F8400B6B23346AA6A5268B6EBD21FF2D244459F
:103F940019D2DAF8080080220092DB010AAA0999F2
:103FA400FEF72AF9002813DB3A4659460AA8FFF718
:103FB40048FF0028E2D1299B012BDFD1289B059AD9
:103FC4001360204601E06FF001002BB0BDE8F08FD4
:103FD4006FF00100F9E76FF00100F6E76FF0010000
:103FE400F3E76FF01300F0E76FF01A00EDE770B538
:103FF40082B005461E4601ABFFF737FF041E0EDBF9
:104004000199A86AFEF711FD044660B12846FEF73F
:10401400DAFC76B134600024204602B070BD284634
:10402400FEF7D1FCF8E72846FEF7CDFC6FF001045B
:10403400F2E70024F0E700004388012B40F0BE8043
:104044002DE9F04FA5B0044688469146876A01E001
:10405400FEF782F96568EE097B68DB09B6FBF3F2CB
:1040640003FB126353BB039303A9204600F076FDC0
:104074000028C0F29D80414604A802F076FED9F8DB
:1040840008302293012223920399B868FEF716F9A7
:1040940006466368AB42DBD1039BBB2249494A48CD
:1040A40001F04CFA802204A9B06802F0DDFD6368D7
:1040B400803363603046FEF74FF972E000230393C8
:1040C40003AA29462046FFF779FC002873DB012266
:1040D4000399B868FEF7F2F88246626829463B48BD
:1040E40001F028FA6168A94218D004AA2046FFF713
:1040F40065FC00280ADB039A049B9A420CD03448DE
:1041040001F018FA5046FEF727F9A3E75046FEF7E8
:1041140023F94FF0FF304BE06668F60941462D481D
:1041240001F008FA7B68DB09B6FBF3FB03FB1B6BAE
:10413400002600E001365E4513D2DAF8087007EB7A
:10414400C61780224146384602F025FE0028F1D1E8
:10415400FB6F012BEED15046FEF7FEF86FF0100016
:1041640026E0DAF808604FEACB1706EBCB16414697
:10417400304602F0FAFDD9F80830B3670123F3673B
:10418400154B1B6A196B6368019300953B46039AB0
:10419400124801F0CFF96368803363605046FEF73C
:1041A400DBF8012384F82430E3680133E360002062
:1041B40025B0BDE8F08F4FF0FF30F9E76FF0130042
:1041C400704700BF00790008247800083878000898
:1041D40054780008647800081014002074780008EB
:1041E400F8B506460F461D46FFF71EFDA8B1044666
:1041F400ADB20560012380F82430104BC36202463F
:1042040039463046FFF718FF051E0CDB3046FEF733
:10421400DAFB069B1C602846F8BD3046FEF7D3FB4C
:104224006FF00B05F7E7E368013BE3603046FEF708
:10423400CAFB2046FEF7C7FBEDE700BF8001002064
:10424400F0B583B0002853D00D461C46064601AB9A
:10425400FFF70BFE002820DA3046FFF7E5FC07469F
:1042640008B304600023C362240C22D1224BC3622E
:10427400022C2DD0012387F824303A4629463046B3
:10428400FFF7DAFE044630BB3046FEF79CFB3846A7
:10429400FEF799FB204603B0F0BD3046FEF793FBD2
:1042A4006FF01004F6E73046FEF78DFB6FF01B0449
:1042B400F0E7012C06D0022C07D0032CD8D10F4BE9
:1042C400C362D5E70E4BC362D2E70E4BC362CFE79E
:1042D400089B3B61CEE7FB68013BFB60012387F849
:1042E40024303846FEF76FFB3046FEF76CFBD1E70F
:1042F4006FF00104CEE700BF8001002038000020E9
:104304001C010020740000202DE9F043A5B00546EF
:1043140000286AD00E46876A002F66D022ABFFF7CA
:10432400A4FD002867DA2846FFF77EFC044600282F
:1043340067D03E4BC3624FF4807343604FF48033C5
:10434400036023A93846FFF7CDF900285FDB384B1B
:104354001B6A196B239B009340F26F13354A36484E
:1043640001F0E8F8354902A802F0FFFC4FF001081B
:10437400CDF88480A3682093B8684FF08009CDF805
:104384000090002302AA2399FDF7CCFE2C4902A831
:1043940002F0EBFCCDF88480AB682093B868CDF8CC
:1043A40000904B4602AA2399FDF7BCFE636B239A47
:1043B4001A6084F824800223E360224631462846AA
:1043C400FFF73AFE061E28DBEB680133EB6001239E
:1043D40085F824302846FEF7F6FA2046FEF7F3FA6D
:1043E4000026304625B0BDE8F0832846FEF7EBFAF8
:1043F4006FF01506F5E72846FEF7E5FA6FF01006AC
:10440400EFE72846FEF7DFFA6FF01B06E9E72846D8
:10441400FEF7D9FA6FF01B06E3E70023E3602846B2
:10442400FEF7D1FA2046FEF7CEFADAE71C010020A7
:1044340010140020F4780008A8780008C878000850
:10444400CC7800084288012A7FD14368002B7ED0B3
:104454002DE9F047A4B0866AD0F83490DF0971687A
:10446400B3FBF1F801FB183303B11346984400255C
:104474002C4651E0002024B0BDE8F0874FF0000A3C
:1044840053467268BAEBD21F45D2BC42F2D259F8F5
:104494002510B06880220092DB0104AAFDF7ACFE6F
:1044A4000028E7DB239B012BE4D001340AF1010A45
:1044B4001FFA8AFAE4E7A5F10C02B2FBF3F103FB5D
:1044C40011230C3159F82110B068042200929B008A
:1044D40003AAFDF791FE00281BDB4FF0000A5346A8
:1044E4007268BAEBD21F16D2BC4212D2B0688022D4
:1044F4000092DB0104AA0399FDF77EFE002808DB85
:10450400239B012B05D001340AF1010A1FFA8AFA10
:10451400E5E70020AFE70135454514D20B2DADD9B1
:1045240073689B0803EB4302520002F10C01A94299
:10453400C1D803FB03F303EB430313440C33AB4233
:10454400E9D8002097E7012095E700207047012073
:1045540070474388012B00F0BB802DE9F04FA7B0D2
:104564008846866AD0F834A043684FEAD319716844
:10457400B3FBF1F201FB123303B10123D31803930C
:1045840000273D4688E04FF0FF3030E0013501342C
:10459400A4B223467268B4EBD21F7CD24D4524D218
:1045A4005AF827104FEAC31BB068802300935B4678
:1045B40006AAFDF721FE00281CDBD8F80830249A4F
:1045C4009A42E3D1259B012BE0D1002325930C379C
:1045D4005AF82710B068802300935B4606AAFDF7BB
:1045E400A1FD0028CFDB002001E04FF0FF3027B011
:1045F400BDE8F08F4FF0FF30F9E70024C9E7A7F1D9
:104604000C02B2FBF3F103FB11230C315AF8211015
:10461400B068042200929B0005AAFDF7EDFD002876
:1046240036DB002405E04FF0FF30E0E701350134CC
:10463400A4B223467268B4EBD21F2CD24D4521D2CA
:104644004FEAC31BB068802300935B4606AA059912
:10465400FDF7D2FD002818DBD8F80830249A9A42D6
:10466400E4D1259B012BE1D100232593B06880235D
:1046740000935B4606AA0599FDF754FD0028D2DB9A
:104684000020B4E74FF0FF30B1E74FF0FF30AEE762
:104694004FF0FF30ABE70137039B9F4215D20B2F3E
:1046A400ABD973689B0803EB4302520002F10C017F
:1046B400B942A4D803FB03F303EB430313440C33C1
:1046C400BB42E8D84FF0FF3091E74FF0FF308EE760
:1046D4004FF0FF30704770B582B0044601ABFFF76E
:1046E400C4FB051E26DB0199A06AFEF79EF9064667
:1046F40048B3836A9A68A36A9B689A421AD143882A
:10470400012B23D12046FFF79DFE10B306F12000B4
:10471400FCF723FC01281FD80025F560012286F848
:104724002420E368013BE36084F8242031462046DA
:10473400FFF70FFF2046FEF746F93046FEF743F930
:10474400284602B070BD4FF0FF35F3E76FF0010566
:10475400F0E76FF02605EDE76FF00F05EAE70000DC
:104764002DE9F04182B006468846174601AB3A4629
:1047740041463046FFF779FB041E25DB0199B06AF8
:10478400FEF753F9054600B34388012B27D082680E
:10479400019B9A4204D0FEF716F900F03DFFE5E7CD
:1047A400C3684BB1012286F82420EB68013BEB601F
:1047B40085F82420002408E0816A8968094800F00B
:1047C400BDFE0123EB60EDE700252846FEF7FBF86C
:1047D4003046FEF7F8F8204602B0BDE8F0814FF00D
:1047E400FF34F2E7D07800082DE9F04383B00646A1
:1047F400884691461C46FFF717FAA8B10746394B7D
:104804000360394BC3626946B06AFEF76BFF002848
:1048140010DB7B6B00991960B36A01229868FDF77D
:104824004DFD4FF0000C14E03046FEF7CCF86FF06D
:104834001B0437E0B968B06AFFF754F83846FEF74E
:10484400C2F86FF01B042DE081680CF1010C4A558D
:104854001C46B36A5B686546634504D9234613F86E
:10486400012B002AF0D1836800225A55FDF774FD0C
:104874007D60012387F8243001AB4A464146304627
:10488400FFF7F3FA002811DA3A4641463046FFF7BB
:10489400D3FB041E19DB3046FEF795F83846FEF7C5
:1048A40092F80024204603B0BDE8F083FB68013B86
:1048B400FB60012387F824303846FEF784F830463D
:1048C400FEF781F86FF01004ECE7FB68013BFB6036
:1048D400012387F824303846FEF775F83046FEF792
:1048E40072F8DFE7FF0104000C02002070B582B00B
:1048F40004460D4616461A464388012B1DD001ABCB
:1049040031462846FFF7B1FA00281EDA224631461E
:104914002846FFF791FB061E20DB2846FEF753F8D6
:10492400E3680133E360012384F824302046FEF772
:104934004AF80026304602B070BDFEF744F8284617
:10494400FEF741F84FF0FF36F4E72846FEF73BF850
:104954002046FEF738F86FF01006EBE72846FEF71E
:1049640032F82046FEF72FF8E4E76FF02500704791
:104974002DE9F04F8BB0039004929B46002B00F07E
:104984009D808A464968059143688B4240F298802D
:10499400D0F82890426B0792D9F80420B1FBF2F0CA
:1049A400019002FB10110091511A0691B3FBF2F130
:1049B40002FB113303B10123CB180293019D00269E
:1049C4001FE0069A944228BF144636E00022079B53
:1049D40053F82510D9F80800FDF770FC07468168E4
:1049E4002246009B1944049B981902F03DF9264481
:1049F400DAF804302344CAF804303846FDF7ACFC36
:104A04000135029B9D4255D2B34553D9059B9A1952
:104A1400039B5B689A424DD2ABEB06049A1AD9F811
:104A240004309C4228BF1C46944228BF1446019A75
:104A34009542C6D00693002200920B2DC6D99B083E
:104A440003EB430252000C32AA423CD9A5F10C08F4
:104A5400B8FBF3F203FB128802F10C03002207995E
:104A640051F82310D9F80800FDF728FC074681689F
:104A7400042201EB880109A802F0F6F83846FDF794
:104A84006BFC00220999D9F80800FDF717FC0746CA
:104A940081682246009B1944049B981902F0E4F8AB
:104AA4002644DAF804302344CAF804303846FDF7C3
:104AB40053FCA5E730460BB0BDE8F08F1846FAE783
:104AC4004FF0FF30F7E74FF0FF30F4E700283FD016
:104AD400F0B583B01446866A476B43688B423AD379
:104AE4007368B1FBF3F003FB101101B10121014420
:104AF400481E0B280AD99B0803EB430252000C32D0
:104B0400824208D84FF0FF3003B0F0BD57F8203090
:104B140023600020F8E70D39B1FBF3F203FB121513
:104B240002F10C03002257F82310B068FDF7C6FB0E
:104B340006468168042201EB85010DEB020002F0B8
:104B440093F83046FDF708FC019B23600020DBE767
:104B54004FF0FF3070474FF0FF30D5E72DE9F047B5
:104B640082B005460E46876AD0F8348044684CB15A
:104B74007B68B4FBF3F203FB124404B10124144434
:104B84000B2C0FD831463846FEF7ACFD002869DB04
:104B9400336848F82430012385F82430002002B01B
:104BA400BDE8F0879B0803EB4302520002F10C01BD
:104BB400A14246D90C3CB4FBF3F903FB194409F1B7
:104BC4000C0358F82330DBB969463846FEF78AFDF2
:104BD400002833DB01220099B868FDF76FFB824699
:104BE4007A680021806802F06AF85046FDF7B4FB49
:104BF40009F10C03009A48F82320012385F8243096
:104C040001A93846FEF76EFD002817DB09F10C09EF
:104C1400012258F82910B868FDF750FB0546806852
:104C240004220DEB020100EB840002F01DF828467B
:104C3400FDF792FB019B33600020B0E74FF0FF309B
:104C4400ADE703FB03F303EB430313440C33A34229
:104C540002D24FF0FF30A2E7044800F06BFC4FF0A3
:104C6400FF309CE74FF0FF3099E700BF147900084C
:104C74002DE9F04F87B00391019299464388002BA8
:104C840040F0A78007461D04B9F1000F00F0A4808E
:104C94000B8913F4806F01D043684B60039B5C68FD
:104CA4007B68A342C0F09A80D7F828A0DAF80420E1
:104CB400B4FBF2F302FB134101B101210B4403FBEA
:104CC40002F302934FF0000B63E005AA2146384635
:104CD400FFF7FCFE00282EDBDAF80460B4FBF6F3E1
:104CE40006FB1343F61A4E4528BF4E46012205998A
:104CF400DAF80800FDF7E2FA80468068DAF8042062
:104D0400B4FBF2F302FB13433246019929441844DD
:104D140001F0AAFF354434447B68A34205D27C6089
:104D2400039B5C60012387F824304046FDF714FBA5
:104D34004FF0010B2DE04FF0FF3047E07B68A342BA
:104D440032D805A93846FFF709FF002836DB0122CF
:104D54000599DAF80800FDF7B1FA8046A9EB0503D6
:104D6400DAF804609E4228BF1E463246019B591958
:104D7400806801F079FF354434447B68A34205D24E
:104D84007C60039B5C60012387F824304046FDF778
:104D9400E3FAA94515D9BBF1000FCFD1029B9C4280
:104DA40093D34FF0010BF4E705AA21463846FFF7E9
:104DB4008DFE0028CBDA4FF0FF3007E06FF01B00C8
:104DC40004E07968074800F0B5FB284607B0BDE861
:104DD400F08F6FF01400F9E74846F7E74FF0FF3023
:104DE400F4E700BF2479000810B50446342002F02B
:104DF4009DFC606200B1204610BD00002DE9F04723
:104E0400A4B080460E46282002F090FC04463420CC
:104E140002F08CFC05466062824B2362C4F8088071
:104E24008023A381C3604046FDF74AFB606040468F
:104E3400FDF762FB286001236B61002E37DDEE6015
:104E4400EA68D308A968B3FBF1FA02F007029B18D9
:104E540000D00123B3FBF1F201FB1233D31800D0CD
:104E640001239A44C5F81CA06A690132AA61296821
:104E7400CB086068B3FBF0F901F007015B1800D0C0
:104E84000123B3FBF0F100FB1133CB1800D0012355
:104E94009944C5F8249052442A62606802F046FCA2
:104EA40007466268FF2101F00AFF002614E040462D
:104EB400FDF722FB00EB40005B4BA3FB0023DB0868
:104EC400EB60BDE7A969A0686368009300233A46D4
:104ED4003144FDF727F901365645F3D3002609E09E
:104EE400296AA0686368009300233A463144FDF7B9
:104EF40019F901364E45F3D3EB68A28902FB03F39B
:104F04006168B3FBF1F201FB123303B101231344D3
:104F14002A6A696A0A44AA62EB621A442A63434B06
:104F240023602046FEF767FE002605E00122314695
:104F34002046FEF787FB01362B6BB342F6D8C4F844
:104F4400088023A92046FEF7CDFB002853DB22A9C5
:104F54002046FEF771FC002857DB382002F0E6FB00
:104F6400054600283FD0002343634FF48073436019
:104F74004FF4803303608462229B83600223C36006
:104F840001212030FBF7E1FF2846FEF77BFD20B32B
:104F94006B6B239A1A60264902A801F0E6FE0123EE
:104FA400219300232093A0688022009202AA2399CF
:104FB400FDF7B8F8002810DB1E4902A801F0D5FE61
:104FC4000123219300232093A0688023009302AA45
:104FD4002399FDF7A7F800281CDA2846FEF764FD9C
:104FE400284602F0B2FB23992046FEF7DDFB229906
:104FF4002046FEF7D9FB606A02F0A7FB204602F0C8
:10500400A4FB002024B0BDE8F08723992046FEF7D6
:10501400CBFBF0E72846FEF7B5FD284602F095FBEA
:10502400E9E700BFE4010020CDCCCCCC443322110D
:10503400C8780008CC7800082DE9F041064643887A
:1050440033B11A04B2F5803F02D0B2F5802F3BD1C0
:10505400B76A756B002400E001340B2C08D855F8AE
:1050640024100029F8D0B36A9868FCF7FFFFF3E72F
:10507400002409E04046FDF76FF90020BDE8F08107
:105084004046FDF769F90134052C18D804F10C03E6
:1050940055F823100029F6D00022B868FDF70EF960
:1050A40080467B68002BEBD0D8F8083019590029CA
:1050B400E0D0B36A9868FCF7D9FF0434F1E73046CE
:1050C400FEF73CFE0020D9E76FF01500D6E74388D1
:1050D400002B5BD12DE9F04782B0856A476B6E687F
:1050E400B1FBF6F406FB141303B101231C4443681B
:1050F400B3FBF6F206FB123606B1012616444160F4
:10510400013431E06B689B0803EB43035B000C3311
:10511400A34238D9A4F10C094FEAD91309F07F0945
:105124000C33012257F82310A868FDF7C7F880460E
:1051340081684FEA890A042201EB89010DEB020020
:1051440001F092FD01992846FEF72EFB00230193FE
:10515400D8F8080004220DEB0201504401F084FD4C
:105164004046FDF7F9F80134B4420CD20B2CC9D8EF
:1051740057F824100029F6D02846FEF715FB002323
:1051840047F82430EFE702B0BDE8F08770474FF6E8
:10519400FF730B8082684A6002680A81C2684A8190
:1051A4008B81CB8103690B8243684B6100230B62C3
:1051B4008B620B63836A5B688B61704710B582B046
:1051C4000C4601A9FDF7CBFD002807DB2146019819
:1051D400FFF7DDFF0198FDF7F6FB002002B010BDDC
:1051E4000023052B0DDC084AD25C0AB10133F8E731
:1051F400054A0121D15403EB8303DA000348104428
:1052040070470020704700BF0412002014110020D2
:10521400002300E00133052B0EDC084AD25C012A8E
:10522400F8D103EB8302064901EBC2028242F1D1B9
:10523400024A0021D1547047704700BF0412002075
:1052440014110020002300E00133052B10DC094A6F
:10525400D25C012AF8D103EB8302074901EBC202B5
:1052640092688242F0D103EB830301EBC3007047E1
:10527400002070470412002014110020F8B50646DF
:105284000C46FFF7DFFF054608B12846F8BDFFF7D7
:10529400A7FF05460028F8D02046FDF7A5FA0446E6
:1052A40078B1AE60C36828469847074620B1A36822
:1052B40028469847AE60E8E72846FFF7A9FF3D4631
:1052C400E3E70546E1E770B582B0054608461446B3
:1052D40001A9FDF744FD064610B1304602B070BD89
:1052E40001982030FBF739FE012812D10198436957
:1052F4007BB94388012B12D1002221462846FFF7AF
:10530400BDFF88B182697AB9019A826143695361A8
:10531400E3E70198FDF757FB6FF00F06DDE7FDF7B4
:1053240052FB4FF0FF36D8E70198FDF74CFB6FF0C6
:105334000F06D2E7F0B585B00F4616461D4603A901
:10534400FDF70DFD041E10DB03984388032B0FD1DA
:10535400836A98680A9B00932B4632463946FFF7C6
:10536400B2FF04460398FDF72EFB204605B0F0BDBE
:10537400FDF729FB4FF0FF34F7E7000070B5064650
:105384000024134B1B68A3421ED9124B04EB840167
:1053940003EB8102127953F821100F4B1868FFF7C1
:1053A4006DFF054688B140692030FBF7ADFD6869A3
:1053B4002030FBF7A9FD68692030FBF7A5FD6B6978
:1053C400C6F81033C6F8143370BD0134D9E700BFF2
:1053D4000001002004010020080A002070B50446E2
:1053E4000E46FBF77FFD0546204600F005F904460E
:1053F400E0B1032384F834300F4A91690B89013BEF
:105404000B8193691B89A3B1C4F84C652846FBF74B
:1054140070FD206902F099F9FBF764FD042384F818
:105424003430FBF766FD00F0F7F870BD024B1C6AE0
:10543400DFE700F0FDF8E7E710140020FEE708B509
:1054440001464FF0FF30FFF7C9FF002008BD000000
:10545400F8B50646FBF746FD07464FF0FF3000F06F
:10546400CBF805464FF4467002F060F900283FD0AF
:1054740004464FF44672294601F0F6FB022384F8F1
:1054840034300023A360E3606069A369184480009A
:1054940002F04CF92061002830D02548FBF75DFD6F
:1054A40000B22063204600F0E1F880BB2048FBF7FF
:1054B4002BFD65606269A3691A4492002969206919
:1054C40001F0D2FB22692B6A29695B1A1344236217
:1054D400636943B32869361A3244E26100231362D4
:1054E400012384F834303846FBF703FD206BF8BD04
:1054F4003846FBF7FEFC4FF0FF30F8E7204602F099
:1055040024F93846FBF7F5FC4FF0FF30EFE720466F
:1055140002F01BF9206902F018F93846FBF7E9FCA0
:105524004FF0FF30E3E74FF0FF33E361D8E700BF0C
:10553400401400200FB404B0704700000FB430B51D
:1055440083B00C4B1B68002BFBD10A4C0123236056
:1055540007AA0192084D0699284601F045FD284600
:10556400FCF7E8FB0023236003B0BDE8304004B03F
:10557400704700BF0C120020101200200FB400B5B9
:1055840083B00A4B1B68002BFBD1084C012323601A
:1055940005AA0192064D0499284601F025FD2846E6
:1055A400FCF7C8FB00232360FEE700BF0C120020B9
:1055B400101200200246044BD86800E0C06810B105
:1055C40003799342FAD170471014002010B50446B1
:1055D400102002F0ABF8034648B10022C26002601A
:1055E400C28004710281034AD168C160D060184648
:1055F40010BD00BF10140020021E07DB054BD86A43
:1056040038B1036B934204D0C068F9E7014B186AC0
:10561400704770471014002008B501210348FBF7B8
:105624009EFC00B908BDFBF767FCFBE738140020BB
:1056340008B5FBF757FC0C4BDB68002101E0194669
:10564400DB685BB11A89002AFAD00029F7D093F8F5
:1056540004C00A799445F3D91946F1E7024B9961DC
:10566400FBF747FC08BD00BF10140020002843D0FE
:1056740070B50446FBF736FC054694F835603046B1
:10568400FFF798FF0346F0B1DA880132DA801A890D
:1056940001321A811A6812B3A2601C602360184B8D
:1056A400DB6AF3B1E360164BDC622846FBF721FCAE
:1056B400134B9B6923B194F835101A79914213D88E
:1056C400B3B1002070BD3046FFF780FF03460028C9
:1056D400DAD12846FBF70DFC6FF00B00F2E71C60F3
:1056E400DCE7074BDC62E0E7FFF7A2FF0020E9E715
:1056F400FFF79EFF0020E5E74FF0FF30704700BF43
:10570400101400200C4B596901315961DB6A03E024
:105714009A6A01329A62DB686BB1D3F84422002A98
:10572400F6D09142F4D9DA6B42F40052DA630022E3
:10573400C3F84422ECE770471014002000B54FF082
:10574400E023D3F8243D13F0800F19D04FF0E02C60
:10575400DCF8243D23F08003CCF8243D4FF0010C09
:10576400254B1B7F8BB9244B9B691B6853B393F860
:105774003420012A07D1204A13620123137721E040
:105784004FF0000CECE79B68F0E71B4BD3F820E0EC
:10579400CEF81C00186A01621B6A998C022900D099
:1057A4009A84A3F826C09B6804E093F83420012A65
:1057B40006D09B68002BF8D10F4B9B691B68F4E75C
:1057C4000D4A13620C4B1B6ADB8C012B04D00A4B71
:1057D400186A1C305DF804FB4FF0E023D3F8242D45
:1057E40042F08002C3F8242DD3F8242D22F48072D1
:1057F400C3F8242DEBE700BF1014002010B40749B0
:105804000A6AD2F844424B694FF47A7101FB0033BF
:10581400C2F84432204610BC704700BF1014002068
:1058240010B50446FBF75EFB00E0646854B12368DE
:10583400002BFAD093F83420022AF6D1012283F8FF
:105844003420F2E7FBF755FB10BD38B504460D468E
:10585400FBF748FB236823B16B602560FBF749FB2A
:1058640038BD2560FAE770B506460D460468FBF7B7
:1058740039FB002304E06368336008E0234664686E
:105884002CB1AC42FAD1002BF5D062685A60FBF718
:1058940030FB70BD014B1B6A186B7047101400205D
:1058A4006FF0250070476FF0250070476FF02500FA
:1058B40070476FF0250070476FF0250070470000B7
:1058C400054B1A6A92F83530191A002901DD82F85D
:1058D40035100020704700BF1014002010B501F0EF
:1058E40081FE084C012104F12800FBF72EFB012165
:1058F40004F13000FBF729FB0023A361636201F08C
:1059040045FE10BD1014002008B5FFF7E7FFFBF7B4
:105914008BFAFBF75BFB002008BD0000024B1B6AFF
:10592400D3F84002704700BF101400200346054A14
:10593400126AD2F8400223F4802323F48073C2F85D
:10594400403270471014002010B485B0431E1F2B42
:105954001AD809281BD013281CD0009100230193C6
:105964004FF04043029303920C4B1B6A0330020135
:1059740003EB001C9C5804AB13E90F008CE80F00E8
:10598400204605B010BC70476FF01504F8E76FF0BF
:105994001504F5E76FF01504F2E700BF10140020BA
:1059A400431E1F2B31D830B51446092830D0132894
:1059B40031D01A4B1D6A00F1FF3E033005EB001C89
:1059C4000FC98CE80F0034B10EF1040305EB031387
:1059D4000FCB84E80F00114B1B6A03EB0E12906C83
:1059E40010F0804006D00EF1040E03EB0E130020DD
:1059F400586030BD012202FA0EF10EF1040E03EBE1
:105A04000E135A680A435A60F3E76FF015007047A3
:105A14006FF01500EDE76FF01500EAE710140020B1
:105A2400F8B54C4B1C6ACB1C1B01E358012B00F04E
:105A34008B8006460D464F1E002B49D004EB0713FE
:105A44009B6C13F0804F6FD101233360414B1B6A71
:105A5400D3F8403246F8043CA6F108004FF08072B7
:105A640046F8082C3A1D1201A25840F8042C04EB05
:105A74000716F26C40F8082C4FF0123240F80C2C48
:105A84004FF0033240F8102C4FF0023240F8142C3F
:105A94004FF0013240F8182C40F81C5C1C38FBF71E
:105AA40025FAB36C002B4ADB2A4B1B6A3A1D04EB24
:105AB40002146168D3F840220A43C3F84022012249
:105AC40002FA07F7DA6B22EA0702DA630020F8BD6C
