:020000040800F2
:100000000000012025240008691E00086B1E00085E
:100010006D1E00086F1E0008711E00080000000021
:100020000000000000000000000000008D1000082B
:10003000731E0008000000001D11000809110008CF
:100040000911000809110008091100080911000828
:100050000911000809110008091100080911000818
:100060000911000809110008091100080911000808
:1000700009110008091100080911000809110008F8
:1000800009110008091100080911000809110008E8
:1000900009110008091100080911000809110008D8
:1000A00009110008091100080911000809110008C8
:1000B00009110008091100080911000809110008B8
:1000C00009110008091100080911000809110008A8
:1000D0000911000809110008091100080911000898
:1000E0000911000809110008091100080911000888
:1000F0000911000809110008091100080911000878
:100100000911000809110008091100080911000867
:100110000911000809110008091100080911000857
:100120000911000809110008091100080911000847
:1001300000000000000000000000000000000000BF
:1001400000000000000000000000000000000000AF
:10015000000000000000000000000000000000009F
:10016000000000000000000000000000000000008F
:10017000000000000000000000000000000000007F
:10018000000000000000000000000000000000006F
:10019000000000000000000000000000000000005F
:1001A000000000000000000000000000000000004F
:1001B000000000000000000000000000000000003F
:1001C000000000000000000000000000000000002F
:1001D000000000000000000000000000000000001F
:0401E0005FF8E0F1F3
:1001E40050E8002F4FF0010140E80013012B3FF4C9
:1001F400F7AF1046F746000070BC10F5805F38BFBB
:10020400F746C0F100012DE902400CF006FDBDE8FF
:10021400024001606FF00000F746EC462DE97000E3
:100224009CE8700080B44FF05A0780DF80BCE3E79D
:100234004FF0000300F06DBB80B44FF0B40780DFD3
:1002440080BCDAE780B44FF0B50780DF80BCD4E728
:1002540080B44FF0580780DF80BCCEE780B44FF005
:10026400210780DF80BCC8E780B44FF07C0780DFC3
:1002740080BCC2E780B44FF02D0780DF80BCBCE7B0
:1002840080B44FF00C0780DF80BCB6E780B44FF039
:100294000F0780DF80BCB0E780B44FF0B60780DF83
:1002A40080BCAAE780B44FF03D0780DF80BCA4E7A0
:1002B40080B44FF0060780DF80BC9EE780B44FF027
:1002C400290780DF80BC98E780B44FF03F0780DFC8
:1002D40080BC92E780B44FF00B0780DF80BC8CE7D2
:1002E40080B44FF0850780DF80BC86E780B44FF090
:1002F4005E0780DF80BC80E780B44FF05F0780DF5B
:1003040080BC7AE780B44FF0370780DF80BC74E7A5
:1003140080B44FF08F0780DF80BC6EE780B44FF06D
:10032400020780DF80BC68E780B44FF06C0780DF91
:1003340080BC62E780B44FF0C50780DF80BC5CE717
:1003440080B44FF0640780DF80BC56E780B44FF080
:10035400760780DF80BC50E780B44FF05D0780DF14
:1003640080BC4AE780B44FF0B70780DF80BC44E725
:1003740080B44FF08D0780DF80BC3EE780B44FF03F
:10038400D90780DF80BC38E780B44FF0320780DFC4
:1003940080BC32E780B44FF0310780DF80BC2CE7AB
:1003A40080B44FF02F0780DF80BC26E780B44FF085
:1003B400500780DF80BC20E780B44FF0690780DFFE
:1003C40080BC1AE780B44FF0840780DF80BC14E758
:1003D40080B44FF0140780DF80BC0EE780B44FF088
:1003E400400780DF80BC08E780B44FF0600780DFFF
:1003F40080BC02E780B44FF0AB0780DF80BCFCE632
:1004040080B44FF0A50780DF80BCF6E680B44FF0DF
:100414004C0780DF80BCF0E680B44FF04D0780DFEE
:1004240080BCEAE680B44FF0930780DF80BCE4E64A
:1004340080B44FF04E0780DF80BCDEE680B44FF01E
:100444004F0780DF80BCD8E680B44FF0180780DF08
:1004540080BCD2E680B44FF0360780DF80BCCCE6A7
:10046400EC462DE970009CE8700080B44FF07507ED
:1004740080DF80BCC0E680B44FF0250780DF80BCFD
:10048400BBE680B44FF0100780DF80BCB5E680B4D3
:100494004FF0090780DF80BCAFE6EC462DE9700021
:1004A4009CE8700080B44FF08C0780DF80BCA3E62A
:1004B40080B44FF0130780DF80BC9EE680B44FF019
:1004C4006B0780DF80BC98E680B44FF0C40780DF00
:1004D40080BC92E680B44FF0270780DF80BC8CE6B6
:1004E40080B44FF00E0780DF80BC86E680B44FF006
:1004F400960780DF80BC80E680B44FF0980780DFE9
:1005040080BC7AE6EC462DE970009CE8700080B46B
:100514004FF0C00780DF80BC6EE6EC462DE970002A
:100524009CE8700080B44FF0150780DF80BC63E660
:1005340080B44FF07D0780DF80BC5EE680B44FF06E
:10054400A30780DF80BC58E680B44FF0990780DFB2
:1005540080BC52E680B44FF05B0780DF80BC4CE681
:1005640080B44FF0430780DF80BC46E680B44FF090
:10057400490780DF80BC40E680B44FF07E0780DF0F
:1005840080BC3AE680B44FF0480780DF80BC34E694
:1005940080B44FF0A20780DF80BC2EE680B44FF019
:1005A400220780DF80BC28E680B44FF0050780DF97
:1005B40080BC22E680B44FF01D0780DF80BC1CE6BF
:1005C40080B44FF0880780DF80BC16E680B44FF01B
:1005D4002A0780DF80BC10E680B44FF0A80780DFD4
:1005E40080BC0AE6EC462DE970009CE8700080B4FB
:1005F4004FF0A70780DF80BCFEE580B44FF0800792
:1006040080DF80BCF9E580B44FF0810780DF80BCD7
:10061400F3E580B44FF07F0780DF80BCEDE580B464
:100624004FF0030780DF80BCE7E580B44FF0550747
:1006340080DF80BCE1E580B44FF0910780DF80BCAF
:10064400DBE580B44FF0260780DF80BCD5E580B4BD
:100654004FF0280780DF80BCCFE580B44FF0AE07B1
:1006640080DF80BCC9E580B44FF0B00780DF80BC78
:10067400C3E580B44FF0AF0780DF80BCBDE580B434
:100684004FF0B20780DF80BCB7E580B44FF0B3070A
:1006940080DF80BCB1E580B44FF0B10780DF80BC5F
:1006A400ABE580B44FF09F0780DF80BCA5E580B444
:1006B4004FF0A00780DF80BC9FE580B44FF09B071C
:1006C40080DF80BC99E580B44FF09D0780DF80BC5B
:1006D40093E580B44FF0A10780DF80BC8DE580B442
:1006E4004FF09A0780DF80BC87E580B44FF09C0709
:1006F40080DF80BC81E580B44FF09E0780DF80BC42
:100704007BE580B44FF0520780DF80BC75E580B490
:100714004FF0BB0780DF80BC6FE580B44FF0EF077C
:1007240080DF80BC69E580B44FF0790780DF80BC4E
:1007340063E580B44FF08B0780DF80BC5DE580B457
:100744004FF08A0780DF80BC57E580B44FF02E0756
:1007540080DF80BC51E580B44FF0510780DF80BC5E
:100764004BE580B44FF04A0780DF80BC45E580B498
:100774004FF0680780DF80BC3FE580B44FF0390755
:1007840080DF80BC39E580B44FF0610780DF80BC36
:1007940033E580B44FF0470780DF80BC2DE580B49B
:1007A4004FF0AA0780DF80BC27E580B44FF0A40790
:1007B40080DF80BC21E580B44FF0460780DF80BC39
:1007C4001BE580B44FF04B0780DF80BC15E580B497
:1007D4004FF0420780DF80BC0FE580B44FF017076D
:1007E40080DF80BC09E580B44FF0BA0780DF80BCAD
:1007F40003E580B44FF0000780DF80BCFDE480B4E3
:100804004FF0660780DF80BCF7E480B44FF06A07DE
:1008140080DF80BCF1E480B44FF0C30780DF80BC8C
:10082400EBE480B44FF0630780DF80BCE5E480B480
:100834004FF0190780DF80BCDFE480B44FF073070A
:1008440080DF80BCD9E480B44FF0570780DF80BCE0
:10085400D3E480B44FF0530780DF80BCCDE480B490
:100864004FF0240780DF80BCC7E480B44FF09507C5
:1008740080DF80BCC1E480B44FF0740780DF80BCAB
:10088400BBE480B44FF0670780DF80BCB5E480B47C
:100894004FF0870780DF80BCAFE480B44FF00D07D2
:1008A40080DF80BCA9E480B44FF02B0780DF80BCDC
:1008B400A3E480B44FF05C0780DF80BC9DE480B487
:1008C4004FF03C0780DF80BC97E480B44FF01607FC
:1008D40080DF80BC91E480B44FF0340780DF80BCBB
:1008E4008BE480B44FF07A0780DF80BC85E480B469
:1008F4004FF00A0780DF80BC7FE480B44FF01E070E
:1009040080DF80BC79E480B44FF06F0780DF80BC67
:1009140073E480B44FF0720780DF80BC6DE480B470
:100924004FF0040780DF80BC67E480B44FF0920787
:1009340080DF80BC61E480B44FF0900780DF80BC2E
:100944005BE480B44FF0B80780DF80BC55E480B42A
:100954004FF0B90780DF80BC4FE480B44FF0D40778
:1009640080DF80BC49E480B44FF0CF0780DF80BCD7
:1009740043E480B44FF0CA0780DF80BC3DE480B418
:100984004FF0C90780DF80BC37E480B44FF0C8075C
:1009940080DF80BC31E480B44FF0CD0780DF80BCC1
:1009A4002BE480B44FF0D30780DF80BC25E480B40F
:1009B4004FF0C70780DF80BC1FE480B44FF0C60748
:1009C40080DF80BC19E480B44FF0D80780DF80BC9E
:1009D40013E480B44FF0D70780DF80BC0DE480B40B
:1009E4004FF0D60780DF80BC07E480B44FF0CC071B
:1009F40080DF80BC01E480B44FF0D20780DF80BC8C
:100A0400FFF7FBBB80B44FF0CB0780DF80BCFFF760
:100A1400F4BB80B44FF0D50780DF80BCFFF7EDBB9B
:100A240080B44FF01B0780DF80BCFFF7E6BB80B4C7
:100A34004FF01A0780DF80BCFFF7DFBB80B44FF0B4
:100A4400C20780DF80BCFFF7D8BB80B44FF0C1077A
:100A540080DF80BCFFF7D1BB80B44FF03E0780DF5E
:100A640080BCFFF7CABB80B44FF0FA0780DF80BCBC
:100A7400FFF7C3BB80B44FF0FB0780DF80BCFFF7F8
:100A8400BCBB80B44FF0FC0780DF80BCFFF7B5BB74
:100A940080B44FF0DD0780DF80BCFFF7AEBB80B4CD
:100AA40040F2011780DF80BCFFF7A7BB80B44FF48E
:100AB400817780DF80BCFFF7A0BB80B440F20317CE
:100AC40080DF80BCFFF799BB80B44FF4827780DF6E
:100AD40080BCFFF792BB80B440F2051780DF80BC76
:100AE400FFF78BBB80B44FF4837780DF80BCFFF7C4
:100AF40084BB80B440F2071780DF80BCFFF77DBB66
:100B040080B440F2091780DF80BCFFF776BB80B465
:100B140040F2171780DF80BCFFF76FBB80B44FF43F
:100B24008B7780DF80BCFFF768BB80B44FF4897794
:100B340080DF80BCFFF761BBEC462DE970009CE8C8
:100B4400700080B440F2151780DF80BCFFF754BBFF
:100B540080B44FF48A7780DF80BCFFF74EBB80B44B
:100B640040F2131780DF80BCFFF747BB80B44FF41B
:100B7400857780DF80BCFFF740BB80B440F20B1761
:100B840080DF80BCFFF739BB80B44FF0EE0780DF15
:100B940080BCFFF732BB80B44FF4867780DF80BC23
:100BA400FFF72BBB80B44FF4807780DF80BCFFF766
:100BB40024BBEC462DE970009CE8700080B440F240
:100BC400411780DF80BCFFF717BB80B44FF0AD073F
:100BD40080DF80BCFFF711BB80B44FF0E00780DFFB
:100BE40080BCFFF70ABB80B44FF0FD0780DF80BCF8
:100BF400FFF703BB80B44FF0E10780DF80BCFFF751
:100C0400FCBA80B44FF0830780DF80BCFFF7F5BAED
:100C140080B44FF0DB0780DF80BCFFF7EEBAEC4610
:100C24002DE970009CE8700080B440F23F1780DF2B
:100C340080BCFFF7E1BAEC462DE970009CE8700037
:100C440080B44FF4A07780DF80BCFFF7D5BA80B4BE
:100C54004FF0F00780DF80BCFFF7CFBA80B440F2DA
:100C6400391780DF80BCFFF7C8BAEC462DE9700065
:100C74009CE8700080B44FF49B7780DF80BCFFF762
:100C8400BBBA80B440F2371780DF80BCFFF7B5BA37
:100C9400EC462DE970009CE8700080B440F23517F2
:100CA40080DF80BCFFF7A8BA80B44FF0F60780DF7E
:100CB40080BCFFF7A2BA80B44FF0F30780DF80BC9A
:100CC400FFF79BBA80B44FF0F50780DF80BCFFF7D5
:100CD40094BA80B44FF0F40780DF80BCFFF78DBA7C
:100CE40080B44FF0F70780DF80BCFFF786BA80B48A
:100CF4004FF49F7780DF80BCFFF77FBA80B44FF456
:100D04009E7780DF80BCFFF778BA80B440F23D174D
:100D140080DF80BCFFF771BAEC462DE970009CE8D7
:100D2400700080B44FF0E20780DF80BCFFF764BA44
:100D3400EC462DE970009CE8700080B44FF0E307A6
:100D440080DF80BCFFF758BAEC462DE970009CE8C0
:100D5400700080B44FF0E40780DF80BCFFF74CBA2A
:100D640080B44FF0EB0780DF80BCFFF746BA80B455
:100D74004FF0EC0780DF80BCFFF73FBA80B44FF040
:100D8400ED0780DF80BCFFF738BA80B44FF0E80786
:100D940080DF80BCFFF731BA80B44FF0E90780DF11
:100DA40080BCFFF72ABA80B44FF0EA0780DF80BC2A
:100DB400FFF723BA80B44FF0E50780DF80BCFFF76C
:100DC4001CBA80B44FF0E60780DF80BCFFF715BA89
:100DD40080B44FF0E70780DF80BCFFF70EBA01DF75
:100DE40078468EEA0E00874680B44FF0780780DF9D
:100DF40080BCFFF702BA8446080008BF0120BCE8A3
:100E0400F00F5CF8042B95465CF804FB4FF00001EE
:100E14006A46A0E8F00FA0E80440A0F128000BF017
:100E2400E2BA00BF4FF0000B5DF8040B6946DFF82F
:100E340020C001EB800202F10402CCF800200BF088
:100E4400FBFA0BF013F880B44FF0010780DF80BC8D
:100E54000407002008B509F023FB08F09FFF08F001
:100E6400DDFE08BD08B501F013FA01F071FA01F0D6
:100E740059F9632140F2CF2001F09AFA002008BD0D
:100E840010B5002211460A4800F028F94FF0E0237B
:100E9400084A5A61084AF02182F8231000249C6110
:100EA40007221A614FF4407000F054FC204610BD34
:100EB400590E00083F19010000ED00E010B44FF096
:100EC4008074046040F8041C1A4940F8081C4FF070
:100ED400123140F80C1C4FF0033140F8101C0199FA
:100EE40040F8141C40F8183C40F81C2C4FF0113307
:100EF40040F8203C4FF0103340F8243C0E4B1B6864
:100F040040F8283C4FF0083340F82C3C4FF00733AE
:100F140040F8303C4FF0063340F8343C4FF0053392
:100F240040F8383C4FF0043340F83C3C3C3810BCAB
:100F3400704700BF719400080C070020EFF3108085
:100F440072B6704780F30988704780F31088704741
:100F540008B5FFF7F3FF03484FF080510160FFF736
:100F6400F4FF08BD04ED00E04FF0000350E8002F4B
:100F740002F10102002A00D001E04FF0010340E831
:100F840000210129F2D0184670474FF0000350E8C1
:100F9400002F02F1FF32002A00D001E04FF00103DC
:100FA40040E800210129F2D0704750E8002F0A469A
:100FB40040E80023012BF8D070470068704710B454
:100FC40050E8002F8A4202D04FF0000401E04FF0B5
:100FD400010440E80023012BF2D0204610BC7047E6
:100FE40010B450E8002F002A02D04FF0000402E0B1
:100FF4004FF001040A4640E80023012BF1D02046BB
:1010040010BC704710B450E8002F002A02D04FF0F3
:10101400000403E04FF0010402F1010240E8002360
:10102400012BF0D0204610BC704710B450E8002FBC
:10103400002A04D04FF0000402F1FF3201E04FF027
:10104400010440E80023012BF0D0204610BC704777
:1010540072B60A484AF2A001018009484FF0F00133
:101064000170002080F3098806484FF08051016028
:101074004FF0010080F3148862B6704722ED00E05F
:101084001FED00E004ED00E01EF0040F0CBFEFF3D1
:101094000880EFF30980A0F1200080E8F00F3946C2
:1010A40009F042BCEFF305807047000010B5044618
:1010B400FFF7F8FFA0F10F02064B53F8323023B1CB
:1010C4009847204609F084F910BD0146024808F00B
:1010D40015FDF6E710070020C4E4000870B50646C5
:1010E4000D461446FFF72AFF054941F8356001EB28
:1010F400C5010A7914430C71FFF727FF70BD00BFC7
:10110400100700201EF0040F0CBFEFF30880EFF36C
:101114000980FFF7CBBF000072B6EFF30980EFF34D
:10112400088100281EF0040F0CBFEFF30883EFF3CF
:1011340009830CBF00220122002868B1A3F1200317
:1011440083E8F00F1EF0040F0CBF194618460CBFBD
:1011540083F3088883F30988DFF878309847D0E967
:101164000012836813F0010F0CBF1046084690E884
:10117400F00F203082F3088881F30988022B1FD0F6
:1011840013F4803F0BD1012B00D019E080F30988C0
:101194004FF0010181F314886FF0020E18E013F090
:1011A400020F04D14FF0030181F3148803E04FF0E0
:1011B400000181F3148880F308886FF00E0E07E0B5
:1011C40080F308886FF0060E4FF0000080F3148857
:1011D40062B670474D9E000808B500F093FA08BD4A
:1011E40038B50C46084D0023C5F8B031800040F0F6
:1011F400020000F0FE00FFF7EFFF2046FFF7ECFFD0
:101204000123C5F8B03138BD0080214210B5084C27
:101214000023C4F8B031800000F0FC00FFF7DCFFCD
:10122400FF20FFF7D9FF0123C4F8B03110BD00BF80
:101234000080214200B583B00121182000F0D4FCC5
:101244000121084600F0D0FC4FF48053ADF804307F
:1012540010238DF8073003238DF8063001A90648C2
:1012640000F01EFC054B0122C3F8B02100F004FA83
:1012740003B05DF804FB00BF000C01400080214274
:1012840008B510B101280BD008BD21B10B210420F1
:10129400FFF7A6FFF8E708210420FFF7A1FFF3E713
:1012A40021B10B210C20FFF79BFFEDE708210C2057
:1012B400FFF796FFE8E738B54FF4E13393FBF1F11C
:1012C400C1F30725CCB210B101280DD038BD80215F
:1012D4000320FFF785FF21460020FFF781FF294601
:1012E4000120FFF77DFFF1E780210B20FFF778FF56
:1012F40021460820FFF774FF29460920FFF770FFF5
:10130400E4E708B5202912D0302912D010290CD0D6
:10131400002182B1012A11D0012B15D0022B18D043
:101324007BB1D8B101281ED008BD0121F1E702210B
:10133400EFE70321EDE721F00401EDE741F00401BB
:10134400EAE721F00801ECE721F0300141F008015F
:10135400E7E721F0200141F01801E2E7C9B20320D8
:10136400FFF73EFFE0E7C9B20B20FFF739FFDBE7E9
:1013740030B585B0142000F0EBF9FFF75BFF802156
:101384000120FFF72DFF142000F0E2F98021032053
:10139400FFF726FF0C210020FFF722FF0021012088
:1013A400FFF71EFF01210220FFF71AFF0321084661
:1013B400FFF716FF01210846FFF712FF082104205A
:1013C400FFF70EFF80210920FFF70AFF142000F029
:1013D400BFF980210B20FFF703FF01210820FFF74D
:1013E400FFFE00210920FFF7FBFE01210A20FFF781
:1013F400F7FE03210B20FFF7F3FE01210920FFF77D
:10140400EFFE08210C20FFF7EBFE142000F0A0F9FA
:101414000220FFF7FBFE0A20FFF7F8FE4024ADF898
:10142400004048238DF80330144D6946284600F0E7
:1014340037FB2146284600F093FB0621022000F0EA
:1014440091FB019400258DF808500C238DF8093088
:1014540001248DF80A4001A800F0DEF917238DF865
:101464000C3002238DF80D308DF80E508DF80F409E
:1014740003A800F079F9204605B030BD0010014002
:1014840038B504460D4671B10520FFF7BFFE10F0D4
:10149400200FF9D014F8011B0020FFF7A1FE6B1EEA
:1014A40013F0FF05F0D138BD38B504460D4671B1CF
:1014B4000D20FFF7ABFE10F0200FF9D014F8011B3C
:1014C4000820FFF78DFE6B1E13F0FF05F0D138BD29
:1014D40070B506460520FFF799FE10F01E0414D1DE
:1014E4000520FFF793FE10F0010FF9D00020FFF75D
:1014F4008DFE307001360134E4B20520FFF786FE1C
:1015040010F0010FF2D1204670BD0020FFF77EFEDF
:101514000024F8E770B506460D20FFF777FE10F0BB
:101524001E0414D10D20FFF771FE10F0010FF9D045
:101534000820FFF76BFE307001360134E4B20D2051
:10154400FFF764FE10F0010FF2D1204670BD0820B1
:10155400FFF75CFE0024F8E710B50220FFF756FE03
:1015640010F0010F35D100F03F030C2B31D8DFE828
:1015740003F00730303022302D30303030303F002F
:101584000620FFF743FE044601460020FFF728FE2D
:10159400302C1ED0112C09D0222C1AD10020FFF798
:1015A40035FE01460020FFF71BFE12E0AA210020B1
:1015B400FFF716FE0DE02248FFF78AFF214B1B6858
:1015C4003BB182B21E490020984702E00520FFF794
:1015D4001DFE0A20FFF71AFE00F03F0310F0010F72
:1015E40005D1062B1CD00C2B1ED0042B0CD010BD07
:1015F4001348FFF76DFF134B1B68002BE9D082B231
:101604000F4900209847E4E70F48FFF783FF0F4B8B
:101614001B68002BEBD082B20B4901209847E6E708
:101624000D20FFF7F3FDE2E70748FFF773FF074BD1
:101634001B68002BDBD082B2034901209847D6E710
:10164400F0080020E808002010090020EC08002021
:1016540008B5402000F026F910B908BDFFF77CFF5B
:101664004021044800F075FA0028F7D0402000F02B
:1016740029F9F2E70010014030B587B001210920B3
:1016840000F0B2FA01214FF4804000F0BBFA4FF4AD
:101694006045ADF8145018238DF8173003238DF8E6
:1016A4001630174C05A9204600F0FAF929462046C1
:1016B40000F056FA0023ADF800304FF48272ADF812
:1016C4000220ADF80430ADF80630ADF808304FF420
:1016D4000072ADF80A201022ADF80C20ADF80E30DF
:1016E4000723ADF81030A4F554446946204600F0B1
:1016F40003FB0121204600F026FB07B030BD00BFEC
:10170400000C014038B50546002402210F4800F0C2
:101714002DFB034620B90134E4B2C82CF5D913E0FB
:1017240029460A4800F01DFB00240121074800F067
:101734001DFB034620B90134E4B2C82CF5D903E0FB
:10174400024800F010FBC3B2184638BD0038004010
:101754007047000040F0BF6040F40030014BD86097
:10176400704700BF00ED00E0C378FBB1154BDA68A9
:10177400D243C2F30222C2F1040C0F2323FA02F271
:10178400417801FA0CF1837813400B431B01027872
:10179400DBB20D490A4482F80033037803F01F00DA
:1017A4005B090122824041F823207047037803F04B
:1017B4001F015B0901228A402033034941F8232099
:1017C400704700BF00ED00E000E100E008B5012033
:1017D40000F026FA002000F023FA08BD82B00023AE
:1017E4000193044B0193019B18440190019B1960E0
:1017F40002B07047006C004082B000230193054B97
:101804000193019B18440190019B188880B202B097
:10181400704700BF006C00408379002B35D010B4B2
:101824001F4B1A68016822EA01021A605A680168AB
:1018340022EA01025A60027902F1804202F5823200
:1018440011680468214311609A68016822EA010260
:101854009A60DA68016822EA0102DA604379102B9F
:1018640009D003F1804303F582331A6801680A43FF
:101874001A6010BC70470A4B9A6801680A439A6060
:10188400DA6801680A43DA60F3E7037903F1804315
:1018940003F582331A68016822EA01021A6070476C
:1018A40000040140064A136803405269024202D010
:1018B4001BB900207047002070470120704700BF0B
:1018C40000040140014B5861704700BF000401400F
:1018D400014BD860704700BF002002400B4BDB680F
:1018E40013F0010F0BD1094BDB6813F0040F08D17F
:1018F400064BDB6813F0100F05D00320704701205E
:101904007047022070470420704700BF0020024047
:1019140010B50446FFF7E2FF02E0FFF7DFFF013CEA
:10192400012801D1002CF8D104B110BD0520FCE739
:1019340038B504464FF43020FFF7EAFF042800D0FE
:1019440038BD0A4D2B6943F002032B616C612B698E
:1019540043F040032B614FF43020FFF7D9FF2B698C
:1019640023F00203DB04DB0C2B61E9E700200240D7
:1019740070B504460D464FF40050FFF7C9FF042824
:1019840000D070BD084E336943F0010333612580F4
:101994004FF40050FFF7BCFF336923F00103DB046D
:1019A400DB0C3361EDE700BF00200240436882682E
:1019B4001343C268134302691343426913438269A0
:1019C4001343C2691343026A1343426A1343826A8C
:1019D4001343C26A1343026B016813434FF020425E
:1019E40042F821308368082B25D0426B1368516874
:1019F40043EA0113916843EA0123D16843EA0143AE
:101A0400116943EA0153516943EA01639169026828
:101A140001320B434FF0204141F82230C36AB3F541
:101A2400804F10D003689B0003F120436FF0704295
:101A3400C3F804217047016852F8213043F0400391
:101A440042F82130D1E7826B1368516843EA0113ED
:101A5400916843EA0123116943EA0153516943EA56
:101A64000163916902680B43920002F12042C2F8BB
:101A74000431704741B14FF0204252F8203043F016
:101A8400010342F8203070474FF0204252F82010F2
:101A9400024B0B4042F82030704700BFFEFF0F009E
:101AA40030B5CB7803F00F02964613F0100F03D035
:101AB40091F802E04EEA020E0B7803B304680023A7
:101AC40001E042610133072B18D801229A40B1F892
:101AD40000C032EA0C05F5D14FEA830C0F2505FA54
:101AE4000CF524EA05040EFA0CFC4CEA0404CD7847
:101AF400282DE6D0482DE5D10261E3E704600B8888
:101B0400FF2B25D94468002303E0CD78482D1CD051
:101B14000133072B1BD803F1080C012202FA0CF243
:101B2400B1F800C032EA0C05F2D14FEA830C0F255C
:101B340005FA0CF524EA05040EFA0CFC4CEA04043C
:101B4400CD78282DE1D14261DFE70261E0E744600E
:101B540030BD8368194201D00120704700207047CE
:101B64000161704710B401F0030292000F2404FADB
:101B740002FC8908074B023153F8214024EA0C0483
:101B840043F8214053F821409040044343F8214056
:101B940010BC704700000140014B1862704700BF41
:101BA40000000E42014BC3F880047047000042421B
:101BB400024A136A03431362704700BF00100240D5
:101BC400014BC3F83C0470470000424221B1054A6E
:101BD4005369184350617047024A536923EA00006D
:101BE400506170470010024021B1054A93691843BF
:101BF40090617047024A936923EA0000906170473C
:101C04000010024021B1054AD3691843D0617047DE
:101C1400024AD36923EA0000D061704700100240F1
:101C2400014BC3F840047047000042424309012BB2
:101C34000CD0022B0DD0094B5A6A00F01F0001236F
:101C440003FA00F0104207D018467047034B1A6895
:101C5400F3E7024B1A6AF0E70020704700100240D5
:101C640029B1064A13889BB2184310807047034B6E
:101C74001A88C04380B21040188070470028004082
:101C8400034A93889BB243F010039380704700BFCC
:101C940000280040034A93889BB223F010039BB2B0
:101CA400938070470028004010B50446FFF7E8FF12
:101CB400C4F30342034B1A81A4B29C81FFF7EAFFE9
:101CC40010BD00BF00280040024B9B8813F0200F7A
:101CD400FAD0704700280040064A93889BB223F04C
:101CE40008039BB29380034B9B8813F0080FFAD030
:101CF400704700BF002800402DE9F041038803F439
:101D040041520F88B1F802808E88CD880C89B1F8D1
:101D14000AE0B1F80CC0CB8947EA08073E433543D3
:101D24002C434EEA040E4CEA0E0C43EA0C03134314
:101D34000380838B9BB223F400639BB283830B8A5F
:101D44000382BDE8F08129B103889BB243F04003CC
:101D54000380704703889BB223F040039BB2038047
:101D6400704781817047808980B270470389194226
:101D740001D00120704700207047000003889BB207
:101D8400214A904212D002F5006290420ED0B0F186
:101D9400804F0BD0A2F59832904207D002F58062B2
:101DA400904203D002F58062904203D123F0700385
:101DB4004A881343154A904208D002F58062904243
:101DC40004D023F440739BB2CA88134303808B88E6
:101DD40083850B8803850C4B98420FD003F5006371
:101DE40098420BD003F54063984207D003F5806313
:101DF400984203D003F58063984201D10B7A03869D
:101E040001238382704700BF002C01400010004072
:101E140029B103889BB243F0010303807047038810
:101E24009BB223F001039BB20380704722B18389E4
:101E34009BB21943818170478389C94389B2194090
:101E440081817047028A83890B40114202D01BB9F9
:101E5400002070470020704701207047C94389B2B1
:101E6400018270477047FEE7FEE7FEE7FEE7704732
:101E740082B00023019300932C4A136843F4803307
:101E840013602A4B1B6803F400330093019B013356
:101E94000193009B1BB9019BB3F5A06FF1D1234BB8
:101EA4001B6813F4003F06D001230093009B012B11
:101EB40004D002B0704700230093F7E71C4B1A6864
:101EC40042F010021A601A6822F003021A601A68BB
:101ED40042F002021A60A3F580535A685A605A68A5
:101EE4005A605A6842F480625A605A6822F47C123A
:101EF4005A605A6842F4E8125A601A6842F08072D2
:101F04001A600A4B1B6813F0007FFAD0074B5A681B
:101F140022F003025A605A6842F002025A60034BEC
:101F24005B6803F00C03082BF9D1C2E700100240F0
:101F34000020024008B5FFF79BFF08BD08B5104B11
:101F44001A6842F001021A6059680E4A0A405A603F
:101F54001A6822F0847222F480321A601A6822F419
:101F640080221A605A6822F4FE025A604FF41F025B
:101F74009A60FFF7DFFF044B4FF000629A6008BDE0
:101F8400001002400000FFF800ED00E0104B9B88B9
:101F940013F0010F02D00F4B00221A600C4B9B88E8
:101FA40013F0020F06D00A4A93889BB223F002036F
:101FB4009BB29380064A938823F005031B051B0DEF
:101FC4009380034B9B8813F0200FFAD0704700BF17
:101FD400002800403009002010F0030F14D10D4BED
:101FE400A3FB00235B09642202FB13039BB26BB9BE
:101FF400084BA3FB0023DB094FF4C87202FB130058
:1020040080B228B901207047002070470120704732
:10201400002070471F85EB512DE9F04798469DF845
:102024002070A0F2B2739BB2812B6ED806468A460A
:102034009146002440F2B27507E004F1F07404F50F
:10204400993404F5C0740135ADB2B54209D22846BD
:10205400FFF7C2FF0028F0D004F1F17404F5054441
:10206400F1E70AF1FF3A5FFA8AFA002501E0013547
:10207400ADB21FFA8AF3AB4210D9254B5B5D254AFA
:1020840002FB03443046FFF7A7FF0028EFD0012DE1
:10209400EDD104F5A83404F5C074E8E709F1FF397B
:1020A4001C4B03FB09444FF4616303FB0844C7EB77
:1020B400071704EB87049DF824301C44164BDA6997
:1020C40042F08052DA61DA6942F00062DA61134A5E
:1020D400136843F480731360A2F5904293889BB213
:1020E40043F010039380A3B29383240C1483938846
:1020F4009BB223F010039BB29380094B9B8813F08F
:10210400200FFAD00020BDE8F0874FF0FF30FAE747
:10211400D4E4000880510100001002400070004027
:102124000028004010B584B001214FF0C050FFF7E3
:1021340069FD0120FFF730FD0120FFF733FD042086
:10214400FFF75AFB45F2500398423DD0FFF73EFBA0
:10215400002404E00134E4B20A20FFF7F9FA612014
:10216400FFF764FD0028F5D0F92C01D9012047E0E0
:102174004FF40070FFF71CFD0120FFF721FDFFF76E
:10218400A3FDFFF7A9FD01210846FFF769FDFFF74D
:102194009BFDFFF775FD49F64040FFF785FDFFF70E
:1021A40093FD00230193122300930D231B2202218C
:1021B40040F2E670FFF730FFFFF76CFD45F2500187
:1021C4000420FFF70BFB07E0FFF786FD012108461B
:1021D400FFF746FDFFF778FD002204210948FEF7CA
:1021E4007DFF03238DF80C3001238DF80D3000247E
:1021F4008DF80E408DF80F3003A8FFF7B5FA20468E
:1022040004B010BD911F0008124BDA6942F08052ED
:10221400DA61DA6942F00062DA610F4A136843F462
:1022240080731360A2F5904293889BB243F010032D
:10223400938083B29383000C108393889BB223F022
:1022440010039BB29380054B9B8813F0200FFAD0A8
:10225400704700BF0010024000700040002800409A
:10226400034B188B9B8B9BB203EB0040704700BF62
:1022740000280040054B1B68B3F57A7F02D8034B56
:10228400186870474FF47A70704700BF3009002017
:1022940010B598B001214FF4F070FFF7A5FC0121AF
:1022A4004FF48070FFF792FC4FF63373ADF80430AF
:1022B40018238DF8073003238DF8063001A9204830
:1022C400FFF7EEFB4FF68373ADF8043001A91D4808
:1022D400FFF7E6FB4FF23F03ADF8043001A91A48BB
:1022E400FFF7DEFB40F23F43ADF8043001A9174885
:1022F400FFF7D6FB0023029303930424049405936D
:1023040006930793089309940A930B9310220C9253
:102314000D930F930E93109311934FF480521292D6
:1023240013931493159302AB1693179309A8FFF70D
:102334003DFB01212046FFF79DFB18B010BD00BFF7
:102344000014014000180140001C0140002001401D
:10235400002304E09A0002F1D04213600133B3F584
:10236400802FF7DB0023B3F5802F07DA9A0002F100
:10237400D04212689A4203D10133F4E70020704737
:102384004FF0FF307047000008B501210648FFF701
:1023940059FD00B908BD054A1368013313600121D2
:1023A4000148FFF75BFDF5E7000400403009002019
:1023B40070B584B005460C4601210220FFF722FCCB
:1023C400ADF80850ADF804400024ADF80A40ADF86B
:1023D4000640114D01A92846FFF7D0FC0122114601
:1023E4002846FFF723FD1D238DF8003003238DF8C5
:1023F40001308DF8024001268DF803606846FFF72E
:10240400B3F931462846FFF703FD22461E2103484F
:10241400FEF764FE04B070BD000400408D23000884
:102424000B480C490C4A002302E0D458C45004332E
:10243400C4188C42F9D3094A094C002301E0136003
:102444000432A242FBD3FFF779FD0BF07DFC704709
:1024540000000020BC06002068ED000800070020F2
:1024640040F9002038B50446094D0A4B6B6003F16E
:1024740088336B603420FFF72BFA04F5803080300A
:10248400C002FFF755FA2B6943F080032B6138BD76
:10249400002002402301674500B583B0002002F00C
:1024A40035F9002811DB4FF40063019303230093F3
:1024B40080230B4A0B49002002F0B8F900280CDBFA
:1024C400094B186803B05DF804FB0022074908486B
:1024D40002F0E6FF4FF0FF30F4E74FF0FF30F1E792
:1024E40004000020ECE4000834090020FF0103008C
:1024F400E0E4000808B50349034B186802F0CCF97E
:1025040008BD00BFECE4000834090020F8B5054616
:102514000F461646002407E037F814102846FFF744
:1025240027FA02350134A4B2B442F5D3F8BD000051
:1025340010B5094C094B636003F18833636000F5FF
:10254400803080304FF48062C002FFF7DFFF2369E0
:1025540043F08003236110BD00200240230167453E
:10256400008880B27047F8B505460F461646002429
:1025740007E02846FFF7F4FF27F81400023501347A
:10258400A4B2B442F5D3F8BD08B500F5803080306C
:102594004FF48062C002FFF7E6FF002008BD184632
:1025A4007047000008B5064A0649062002F000F903
:1025B400002801DB002008BD4FF0FF30FBE700BF1F
:1025C40010000020F4E4000810B510461C461A461A
:1025D400002109F020FE204610BD000008B5034983
:1025E400062002F003F9002008BD00BFF4E400084F
:1025F40009890023024A42F82130024A13607047D5
:102604003C0900203809002030B583B00446002579
:1026140005E001210DF10700FEF732FF01350DF150
:10262400070104F5A67000F06DFD002808DBE36ADD
:10263400002BEED101210DF10700FEF735FFEDE788
:10264400284603B030BD00002DE9F0410E46154682
:10265400012806D050B90D4BD3F8008008F1440787
:1026640004E00A4BD3F8048008F14407002404E092
:10267400315D384600F0E8FC0134A542F8DCD8F8B6
:10268400400007F057FCBDE8F08100BF3C09002082
:1026940038B51C68C16A002B00F0B18041B901252E
:1026A400012A07D0022A00F0A3806FF02500A8E0D9
:1026B4000025F5E741F20F03234024D00F2B11D955
:1026C400B3F5805F1FD9A3F58053013B0E2B1AD8B5
:1026D400DFE803F044194A50565B60666B70757A04
:1026E4007F8489000F2B0ED8DFE803F08C8C8C8C50
:1026F4008C8C8C8C8C8C8C0820262C324FF416619C
:102704002846FEF7D8FDC4F30023C4F3801204F076
:1027140030012846FEF7F5FDE10F2846FEF7B0FD2F
:102724003A4B43F825406FF025006AE04FF4965188
:102734002846FEF7C0FDE6E74FF416512846FEF79B
:10274400BAFDE0E74FF496412846FEF7B4FDDAE718
:102754004FF416412846FEF7AEFDD4E74FF461412D
:102764002846FEF7A8FDCEE74FF461312846FEF770
:10277400A2FDC8E74FF4E1212846FEF79CFDC2E71D
:1027840023492846FEF797FDBDE722492846FEF770
:1027940092FDB8E74FF461212846FEF78CFDB2E7BD
:1027A4001D492846FEF787FDADE71C492846FEF77C
:1027B40082FDA8E71A492846FEF77DFDA3E71949DB
:1027C4002846FEF778FD9EE717492846FEF773FD75
:1027D40099E716492846FEF76EFD94E71449284602
:1027E400FEF769FD8FE713492846FEF764FD8AE783
:1027F400064A52F825201A606FF0250001E06FF0B8
:10280400150038BD6FF02500FBE700BF4409002028
:1028140020A1070000CA080040420F0000941100E4
:1028240060E3160080841E00A0252600C0C62D008B
:10283400E067350000093D00174B1B680BB1002011
:10284400704770B504460D460126134B1E60FEF713
:102854008FFD124B124A1A60002218211148FEF70C
:102864003DFCE36A9B1B18BF01230F4A42F8234037
:10287400A1680E4A42F823100D49A1630D49616312
:102884000D49E16302EB8303324629462046FFF7F4
:10289400FFFE002070BD00BF38090020EC080020B6
:1028A4004D260008551600083C0900204409002064
:1028B4000D260008F52500089526000880B2052895
:1028C40005DC4FF45A72034B02FB003070470020C2
:1028D400704700BF9409002010B58868040C042CCC
:1028E40014D11FFA80FCBCF1050F12DC4FF45A74AA
:1028F4000C4804FB0C0090F866436CB10CEB4C0CD8
:10290400094C54F82C4054B1A04710BD6FF012008C
:10291400FBE76FF01200F8E76FF01200F5E76FF0D5
:102924001200F2E7940900204C09002010B58868D1
:10293400040C042C16D11FFA80FCBCF1050F14DC26
:102944004FF45A740D4804FB0C0090F866437CB1B4
:102954000CEB4C0C0A4C04EB8C0CDCF8044054B12A
:10296400A04710BD6FF01200FBE76FF01200F8E70C
:102974006FF01200F5E76FF01200F2E794090020FF
:102984004C09002038B58C68220C042A16D1A4B254
:10299400052C13DC4FF45A730E4803FB040090F823
:1029A40066335BB1012B0AD00A4B4FF45A7202FB17
:1029B400043393F86623013A83F8662338BD054649
:1029C400436B9847002129632422284609F023FCFD
:1029D400EAE700BF94090020F0B585B00446174625
:1029E4001E4623E0294B5B6A01930023029304F102
:1029F400400501A9284607F0B3FA07F041F907F0AA
:102A04000DF901A9284607F0B9FA07F0E7F80DE037
:102A14002046984794F86533D3B9E26A1C4B4FF4C7
:102A24005A7101FB02339B6B20469847D4F844113A
:102A3400D4F84831C91A11F0FF0FD3D0E16A01EB81
:102A44004101144B03EB81018B68002BE0D1E1E7DA
:102A5400002584F8655303E09DF80F307B5501355C
:102A6400B54207DA0DF10F0104F5157000F04AFBC9
:102A74000028F1DAE26A064B4FF45A7101FB023383
:102A84009B6B20469847284605B0F0BDB42B002028
:102A9400940900204C09002070B505460C46466890
:102AA40016F0010F1AD016F0020F07D0084609F0ED
:102AB40091FE18B1204609F022FEC4B216F0040FAC
:102AC40001D00A2C10D06B6813F0080F01D00D2C24
:102AD40010D013F4C05F01D0092C15D0214605F5A0
:102AE400A67000F0B1FA70BD0D2105F5A67000F0D6
:102AF400ABFAE8E713F0200F04D00022C5F85C23FA
:102B04000A24E6E70A24E4E72024E7E7F8B50546C3
:102B140017461E46002404E0395D2846FFF7BCFF33
:102B24000134B442F8DBAB6B284698472046F8BD25
:102B340030B583B0044600F515750A21284600F027
:102B4400A0FA10B9002003B030BD0DF107012846EA
:102B540000F0B9FA0028F5DB08212046FFF79CFFB6
:102B640020212046FFF798FF08212046FFF794FF15
:102B7400D4F85C33002BE5DD013BC4F85C33E1E7BA
:102B8400F0B583B00446C36813F0020F40F0C78069
:102B940003B0F0BD002104F5157000F055FABEE055
:102BA400236813F0200F05D09DF8073003F07F034E
:102BB4008DF80730236813F0800F4ED09DF807304E
:102BC4000D2B00F0AC80236803F4C073B3F5807F51
:102BD4004ED0236813F4007F0AD09DF8075028468E
:102BE40009F00AFE20B1284609F083FD8DF807009C
:102BF400E56815F0080F00F0C58015F4007F11D0CA
:102C04009DF80770384609F0D8FD58B1637E9F429D
:102C140008D0A37E9F4205D0092F03D00A2F01D0EC
:102C2400252F2DD915F0020F3FD015F0100F04D029
:102C3400E27C9DF807309A422ED015F4006F2FD114
:102C440015F0200F31D0227D9DF807309A422CD107
:102C54000A212046FFF720FF61E013F0400FB2D0B5
:102C64009DF807300A2BAED10D238DF80730AAE763
:102C74009DF807300D2BACD10A238DF80730A8E757
:102C84005E212046FFF708FF9DF807104031C9B2C6
:102C94002046FFF701FF0DE02046FFF749FF3EE025
:102CA400227D9DF807309A426AD09DF8071020468D
:102CB400FFF7F2FEE76817F0010F0BD0627C9DF876
:102CC40007309A426AD0A27C934276D0E27E934245
:102CD40000F082809DF80750284609F06EFD002818
:102CE40040F08580D4F85C330133C4F85C3317F0CA
:102CF400020F0FD00A2D00F08180237F9D427DD0EA
:102D040094F821309D4279D0637D9D4276D0002392
:102D140084F86533294604F5157000F095F904F13B
:102D240044060DF10701304600F0ECF9B0F1FF3F25
:102D34003FF42EAF94F86433002B3FF431AF236893
:102D440013F0040FEBD113F0080F3FF423AF04F595
:102D54001575FF21284600F077F90021284600F078
:102D640073F99DF80710284600F06EF9D7E720465E
:102D7400FFF7DEFE0135D4F85C33AB42F7DCCEE777
:102D84000025F8E705F04205422D93D19DF8071080
:102D94000A298FD12046FFF77FFE8BE7022007F038
:102DA40035F9E36813F0800FB9D104F5A67000F08B
:102DB4003FF9304600F03CF9B1E7032007F026F96B
:102DC400E36813F0800FAAD104F5A67000F030F97F
:102DD400304600F02DF9A2E7142007F017F9E36854
:102DE40013F0800F9BD1304600F022F997E70A2DAB
:102DF4007FF47DAF0023C4F85C3378E7637D9D42A4
:102E040003D1012384F86533C2E6294604F515701D
:102E140000F01AF9F5E7000010B50C462422002151
:102E2400204609F0F8F91322084904F1110009F0C9
:102E3400C7F94FF48853236041F60503636041F6F4
:102E4400B243A36048F63B23E36010BD68E4000886
:102E5400F8B5438A1A1F012A2AD80E46052B1AD020
:102E6400048A052C27DC4FF45A73144D03FB0455D4
:102E7400134B2B6395F866338BB1104B4FF45A7296
:102E840002FB043393F86623013283F86623DC6281
:102E94001C740020F8BD4FF480238B60E0E72946C2
:102EA4000020FFF7B9FF2B6B314628469847E4E72B
:102EB4006FF01200EEE76FF01200EBE794090020C8
:102EC4003D2800088868002B54D0F0B583B00E4626
:102ED40014461F46FFF7F2FC054600284DD0A4F522
:102EE400A842013A132A4BD8DFE802F00A1B4A4AE7
:102EF4004A4A4A4A4A4A4A4A4A4A4A4A4A4A2A3365
:102F0400C46B3CB101AB02223146A047002801DB6F
:102F1400019BAB6012222946384609F051F9002082
:102F24002FE01222394609F04BF9AB680193EC6BA0
:102F34004CB301AB012231462846A047002020E0D3
:102F44005023C38425F8243F03CD386079600020E2
:102F540017E07A88C38C9A4203D13A88838C9A42C8
:102F640002D01C2007F052F824353868796803C56C
:102F7400002006E06FF0150070476FF0180000E0C5
:102F8400002003B0F0BD0020FBE70000052816D8A0
:102F940008B549B100EB40000A4B03EB800307C9B5
:102FA40083E80700002008BD00EB40000C2200214C
:102FB400044B03EB800009F02EF90020F3E76FF0D7
:102FC400150070474C09002008B50D490020FFF793
:102FD400DDFF0C4A0C49042001F0EAFB002808DB61
:102FE400084A0949052001F0E3FB002804DB00201E
:102FF40008BD4FF0FF30FBE74FF0FF30F8E700BFAC
:103004003C00002048000020FCE4000810B500212A
:103014000846FFF7BBFF054C2146042001F0E6FB00
:103024002146052001F0E2FB002010BDFCE400086D
:1030340010B50446FDF782FF0023C4F80031C4F83C
:103044000431FDF782FF10BD38B504460D46FDF787
:1030540075FFD4F800114B1C5A42DBB2D2B258BFF0
:103064005342D4F80421934206D06554C4F8003185
:10307400FDF76BFF002038BDFDF767FF4FF0FF3011
:10308400F9E738B504460D46FDF758FFD4F800318A
:10309400D4F8042193420CD0FF335A42DBB2D2B2AB
:1030A40058BF5342E35CAB4208D1FDF74EFF00200A
:1030B40038BDFDF74AFF4FF0FF30F9E7FDF745FF54
:1030C4004FF0FF30F4E738B504460D46FDF736FF00
:1030D400D4F80031D4F8042193420ED0FF335A427D
:1030E400DBB2D2B258BF5342C4F800310DB1E35C35
:1030F4002B70FDF72AFF002038BDFDF726FF4FF0A7
:10310400FF30F9E738B504460D46FDF717FFD4F84C
:103114000021D4F804319A4210D00DB1E35C2B7035
:10312400D4F8043101335A42DBB2D2B258BF53420D
:10313400C4F80431FDF709FF002038BDFDF705FF91
:103144004FF0FF30F9E7000010B50446084B1B7838
:103154003BB1204609F0ABF9C1B22046FEF7A4F911
:1031640010BDFEF705F9024B01221A70F1E700BF0A
:10317400041E00202DE9F04F87B00F469146714B95
:10318400049305AB03AA06CA00F0EFFD051EC0F2C6
:10319400D5800598036A33B1D0F8B83001221A609B
:1031A4004FB100260AE000F053FE674806F0A6FC83
:1031B4004FF0FF35BEE0002604E0013657F8263014
:1031C400002BFAD1059B5A6A1B6A02EB03080324FD
:1031D40000E00134072C0DDC5C4B5B6AC4EBC402D9
:1031E40003EB8203D3F8A035002BF2D0204602F083
:1031F4007FFBEEE70BF018F8DFF850A1DAF82400B3
:1032040007F032F9FDF79AFE0446DAF82430D3F8D1
:10321400F036C3B1D3F8B8201368013B1360DAF871
:103224002430D3F8F026D2F8B8100968002947D022
:10323400D3F87C3513F4807F46D1444B5B6AD3F8D2
:10324400F0060AF085FF414BD3F824A0059BCAF889
:10325400F036DAF82010002941D0DAF81820DAF82C
:1032640024300B4403F18043013B02EB8303CAF88F
:103274002830DAF81820DAF8243003F18043013BCF
:1032840002EB8303CAF82C3071BBDFF8C0A0DAF874
:1032940024B0DBF82C00CDF800903B463246414682
:1032A400FDF70CFECBF82C00DAF82400036A3BBBD4
:1032B400022303860023438680F83830036429E020
:1032C400059800F0C5FDBEE7506C0AF041FF1F4BA6
:1032D4005B6AD3F8F036586D0AF03AFFADE74FF069
:1032E400FF33CAF82830C4E7DAF82800CDF8009094
:1032F4003B4632464146FDF7E1FDCAF82800C4E7E3
:1033040001230386D6E703EB830200EB820200214C
:10331400516401333F2BF6DD0026C0F850650B4B9A
:1033240083F8206006F07AFC3046FDF70BFE204659
:10333400FDF70BFE284607B0BDE8F08F4FF0FF35D0
:10334400F8E700BF14E5000800E50008B42B0020EE
:1033540008B50AF0BBFE08BD08B50AF0B7FE08BD03
:1033640001E00130013103782BB10A781AB193429C
:10337400F7D0002070470878834214BF0020012052
:103384007047000030B5018843888C0AC1F3802C53
:103394004FEA533EDD0A4FEA0C6C8EEA912E1EF082
:1033A400010F44D14FF4000E4CEA0E0C6C4014F0A3
:1033B400010F3FD14FF480044CEA040C1E4C04EA84
:1033C40001344CEA040C40F6FE7E0EEA430E4CEA4D
:1033D4000E0E1CF0807F01D00EF17E4E121A724444
:1033E400C2F3006412F4000F0CBF4FF0010E4FF053
:1033F400000E8EEA040E12F4800F0CBF4FF0010C85
:103404004FF0000C8CEA040C01F4784141EA842169
:10341400C2F309342143018003F4504343EA4E3399
:1034240043EACC23C2F34A021A43428030BD4FF030
:10343400000EB9E70024BFE700F03F0008B52629D5
:1034440016D00DDC0A290FD01E290DD0022904D173
:1034540003681A440260002005E04FF0FF3002E0E8
:1034640066290AD1002008BDFFF78CFF0020FAE787
:1034740003681A4402600020F5E74FF0FF30F2E7DA
:10348400836A8B421CD0836B8B421BD0836C8B4230
:103494001AD0836D8B4219D0D0F888308B4217D064
:1034A400D0F898308B4215D0D0F8A8308B4213D086
:1034B400836E8B4212D0836F8B4211D000207047F1
:1034C400243070473430704744307047543070476C
:1034D4008430704794307047A4307047643070472C
:1034E4007430704770B5456F6DB1D0F8B460B608EC
:1034F400002406E055F8043B002211461046984784
:103504000134B442F6DB70BD002303E0002200F86E
:10351400012B0133BB2BF9D970472DE9F041044647
:1035240017469846C5690D4401220021006802F03F
:10353400A1FA064600222946206802F09BFA0546B5
:10354400B0F1FF3F06D042463946206802F0EEFA59
:10355400054638B900223146206802F08BFA284625
:10356400BDE8F0814FF0FF35F4E7000010B598B0E6
:1035740004460068B0F1FF3F49D034220BA902F0A1
:10358400D5FA342841D12B4B00939DF82C307F2B56
:103594003FD19DF82D30452B3DD19DF82E304C2B3D
:1035A4003BD19DF82F30462B39D19DF83030012B7B
:1035B40037D1BDF83C30012B35D1BDF83E30282B36
:1035C40033D1109B012B01D0012020E0BDF85E1007
:1035D4000022139B282000FB0131206802F04AFAE4
:1035E400B0F1FF3F13D0282201A9206802F09EFA0F
:1035F40028281CD1119B2362BDF85C30A360139B67
:10360400E360059B2361002001E04FF0FF3018B018
:1036140010BD0120FBE70120F9E70120F7E70120B5
:10362400F5E70120F3E70120F1E70120EFE74FF090
:10363400FF30ECE77F454C4638B504461546C36871
:1036440001EB8101002203EBC101006802F012FAD0
:10365400B0F1FF3F07D028222946206802F066FA1D
:10366400282801D1002038BD4FF0FF30FBE7436E1E
:10367400CBB170B58AB005466A46816EFFF7DCFFB0
:10368400044618B96D6E059EB60808E000BE08E051
:1036940055F8043B00221146104698470134B442C1
:1036A400F6DB0AB070BD70472DE9F04104461746B9
:1036B400984605690D4401220021006802F0DAF9F8
:1036C400064600222946206802F0D4F90546B0F1E6
:1036D400FF3F06D042463946206802F027FA0546E5
:1036E40038B900223146206802F0C4F92846BDE802
:1036F400F0814FF0FF35F4E770B5054614461E46D9
:10370400FFF79AFF40B9216801B970BD049B3246A6
:103714002846FFF7C9FFF8E74FF0FF30F5E72DE93A
:10372400F0418CB004460D4616469846012200210D
:10373400006802F09FF90746A169002201EB051118
:10374400206802F097F90546B0F1FF3F0ED0102231
:103754003146206802F0EAF910281AD1316871B1B3
:10376400129B42462046FFF7D8FE05460022394602
:10377400206802F07FF928460CB0BDE8F081129B66
:103784000093434602AAF1892046FFF7B5FF054698
:10379400ECE74FF0FF35E9E7F8B50E46456800243D
:1037A40000E001346B68A3420CD92B68E700314672
:1037B40053F83400FFF7D4FD0028F2D02B681F44DF
:1037C400786801E04FF0FF30F8BD10B50C46C989A8
:1037D40031B1FFF755FE38B100686368184410BD75
:1037E4001146FFF7D9FFFAE74FF0FF30F7E7000083
:1037F4001368002B50D02DE9F04393B005461746CB
:103804004E69F60800220969006802F033F90024C1
:1038140000E00134B4423BD2082203A9286802F034
:1038240085F90828F5D11E4A09AB07CA03C31A80D3
:103834000023CDF82E30CDF83230CDF83630CDF827
:103844003A30CDF83E30CDF8413004995FFA81F931
:103854003A68039B02EB03082123009309AB05AAF2
:10386400090A2846FFF75BFF09AA05A92846FFF7BE
:10387400ACFF0246B0F1FF3F07D049464046FFF790
:10388400DDFDB0F1FF3FC4D100BE4FF0FF3000E0DA
:10389400002013B0BDE8F0834FF0FF30704700BF45
:1038A4007CE4000870B58AB00546886808B90AB097
:1038B40070BD0C4616466A4601462846FFF7BCFE14
:1038C40018B100BE4FF0FF30F1E733462246694697
:1038D4002846FFF78DFFEAE738B50446184A00F199
:1038E4002401FFF7DFFF0546164A04F134012046A0
:1038F400FFF7D8FF0543144A04F144012046FFF7BB
:10390400D1FF0543114A04F184012046FFF7CAFFA1
:1039140005430F4A04F194012046FFF7C3FF054312
:103924000C4A04F164012046FFF7BCFF05430A4A30
:1039340004F174012046FFF7B5FF284338BD00BFEA
:1039440064E5000870E500087CE5000888E50008E7
:103954009CE50008ACE50008BCE50008006818B167
:1039640008B50AF0F5FB08BD7047F8B507460D46E3
:10397400506978B11446012B0FD0127A216AFFF7EF
:10398400E7FC28602B6873B16268082A1AD1616960
:10399400002010E00026CE6012E0127A216AFFF7C0
:1039A400DBFC2860EEE700BE4FF0FF3608E00022A3
:1039B40003F8012B01308842F9DB6369EB600026D0
:1039C4003046F8BD00222169386802F053F80646F3
:1039D400B0F1FF3F0BD062692968386802F0A6F89D
:1039E40063699842E9D000BE4FF0FF36E8E700BEB5
:1039F4002846FFF7B3FFE3E72DE9F8430546884679
:103A040014461F4690491046FFF7AAFC50B1D8F857
:103A14001030AB61D8F814301B096B6101263046B5
:103A2400BDE8F88389492046FFF79AFC064690B919
:103A340087492046FFF794FC814688B1002342461B
:103A440005F124012846FFF790FFB0F1FF3FE6D0CF
:103A5400AF620826E3E7D8F81030EB610426DEE70E
:103A64007C492046FFF77CFC064668B100234246A9
:103A740005F134012846FFF778FFB0F1FF3F00F06D
:103A8400DA80AF631026CAE773492046FFF768FC63
:103A9400814660B10023424605F144012846FFF700
:103AA40064FFB0F1FF3FBAD0AF642026B7E76B499B
:103AB4002046FFF755FC064668B10023424605F14F
:103AC40054012846FFF751FFB0F1FF3F00F0B580E5
:103AD400AF654026A3E762492046FFF741FC8146D3
:103AE40070B10123424605F184012846FFF73DFFEA
:103AF400B0F1FF3F93D0C5F888704FF400468EE7CD
:103B040058492046FFF72CFC064678B1012342466B
:103B140005F194012846FFF728FFB0F1FF3F00F0BC
:103B24008E80C5F898704FF4803678E74E49204669
:103B3400FFF716FC814678B10123424605F1A40142
:103B44002846FFF712FFB0F1FF3F3FF468AFC5F816
:103B5400A8704FF4003662E744492046FFF700FCA2
:103B6400064668B10023424605F164012846FFF782
:103B7400FCFEB0F1FF3F64D0AF664FF400664EE741
:103B84003B492046FFF7ECFB90B10023424605F188
:103B940074012846FFF7E9FEB0F1FF3F3FF43FAF61
:103BA400AF67D8F81430C5F8B4304FF4005636E790
:103BB40030492046FFF7D4FB20BB2F492046FFF7AE
:103BC400CFFB10BB2D492046FFF7CAFB08BB2C498D
:103BD4002046FFF7C5FB00BB2A492046FFF7C0FB80
:103BE40000BB29492046FFF7BBFB00BB2749204601
:103BF400FFF7B6FB064600283FF411AFEF674FF41A
:103C040080460CE7EF62802609E7EF634FF4807685
:103C140005E7EF644FF4007601E7C5F88C704FF4C4
:103C24008026FCE6C5F89C704FF40026F7E6EF66A4
:103C34004FF48056F3E64E46F1E64E46EFE64E4626
:103C4400EDE64E46EBE600BF3CE5000844E500081F
:103C540064E5000870E500087CE500084CE5000810
:103C640088E500089CE5000854E50008ACE5000878
:103C7400BCE5000860E500086CE5000878E500088C
:103C840084E5000898E50008A8E50008B8E5000800
:103C940070B594B006460025012413E000BE4FF031
:103CA400FF35284614B070BD234601AA0AA9304640
:103CB400FFF7A2FE054347F6FD7305EA0302AB4393
:103CC40025D00134B368A342EBD901AB114A07CA2A
:103CD40003C31A700023CDF80D30CDF81130CDF8A0
:103CE4001530CDF81930CDF81D30CDF821300AAAA1
:103CF40021463046FFF7A0FC0028CFD10A990029BD
:103D0400D2D0212301AA3046FFF7CEFCCCE71546DA
:103D1400C7E700BFA0E4000810B504462430FFF74D
:103D24001DFE04F13400FFF719FE04F14400FFF70F
:103D340015FE04F15400FFF711FE04F18400FFF7AF
:103D44000DFE04F19400FFF709FE04F1A400FFF74F
:103D540005FE04F16400FFF701FE04F17400FFF7AF
:103D6400FDFD206801F0C4FD10BD70B582B00546AC
:103D740002A800E906001E4603220421BC20FFF726
:103D8400E7FA002861D00446FFF7BEFB03220421B2
:103D94000846FFF7DDFAC4F8B80010B302AB13E924
:103DA400030084E803000021284601F08DFD206013
:103DB40000281CDB2046FFF7D9FB10BB2046FFF789
:103DC40067FF00F00500052825D12046FFF784FD94
:103DD400054668BB2046FFF74AFC3460284602B01B
:103DE40070BD20460AF0B4F94FF0FF35F6E7D4F879
:103DF400B8000AF0ADF920460AF0AAF94FF0FF35F1
:103E0400ECE7D4F8B8000AF0A3F920460AF0A0F9C8
:103E14004FF0FF35E2E72046FFF77EFFD4F8B80005
:103E24000AF096F920460AF093F96FF00105D5E7F8
:103E34002046FFF771FFD4F8B8000AF089F920464C
:103E44000AF086F96FF00205C8E74FF0FF35C5E7C1
:103E540078B110B50446FFF745FB2046FFF75CFF39
:103E6400D4F8B8000AF074F920460AF071F9002079
:103E740010BD4FF0FF307047F0B583B007460E46D3
:103E840001A900F057FC0546384600F037FD4FF015
:103E9400FF30002301E018460133019A9A4211D9F8
:103EA400C3EBC302910005EB820494F91820002AA5
:103EB400F1DA6A58B242EFD1384600F02FFD2046BD
:103EC40003B0F0BDB0F1FF3F0BD0C0EBC00005EB79
:103ED40080048023237645F82060384600F01EFDD8
:103EE400EDE7384600F01AFD0024E8E730B583B06A
:103EF40004460F4B5B6A00930023019300F1140501
:103F04006946284606F02CF801E005F087FE05F026
:103F1400B7FE04F11000FDF750F80028F5D169460A
:103F2400284606F02BF805F059FE03B030BD00BF5B
:103F3400B42B00202DE9F04180460F461646C1EB14
:103F4400C10080000AF0C2F8C8F80000F0B10025F2
:103F5400BD4212D2D8F80040C5EBC50304EB83047C
:103F64001C220021204608F056F930460AF0AEF82B
:103F7400A06010B166600135EAE715B12846BDE8D6
:103F8400F081D8F800000AF0E3F8F7E74FF0FF30CB
:103F9400F5E710B504461030FDF70FF800B910BD71
:103FA4002046FFF7A3FFFAE710B50446FFF7F1FF39
:103FB400012104F11000FCF7F8FF10BD10B5044610
:103FC40000211030FCF7F1FF606905F0B3FF10BD6C
:103FD4002DE9F04383B080460F4600F0CDFB8146C7
:103FE40048B101A9404600F0A5FB0646404600F052
:103FF40085FC002512E06A222649274805F09EFD2B
:10400400EFE778222349244805F098FD20E07B223D
:104014002049214805F092FD21E00135019BAB4286
:1040240030DDC5EBC50406EB84042046FFF7BCFF76
:10403400A368BB42F1D1237E13F0400FEDD013F0FF
:10404400020F13D0D9F80830206898470028D8DB2D
:10405400D9F80430A168206898470028D7DB237E6C
:1040640003F0FE03237623F0020323760023237652
:10407400E268A260E3602046FFF7A0FF404600F03C
:104084004DFC02E0404600F049FC002003B0BDE8CE
:10409400F08300BF0CE60008C8E500082DE9F043F2
:1040A40083B080460F4601A900F044FB0646404613
:1040B40000F024FC002503E02046FFF77FFF0135D4
:1040C400019BAB421CDDC5EBC5044FEA840906EB3A
:1040D40084042046FFF768FF56F80930BB42EBD151
:1040E400237E13F0400FE7D000232376E268A2601A
:1040F400E3602046FFF762FF404600F00FFC02E059
:10410400404600F00BFC002003B0BDE8F083000043
:10411400F0B583B0064600F02FFB074640B101A975
:10412400304600F007FB0546304600F0E7FB18E098
:10413400E4222949294805F001FDF0E708F0E8F8F0
:104144004042019BB0FBF3F203FB1203C3EBC30336
:1041540005EB830404F11000FCF72FFF40B105F0D8
:104164005DFD08F0D5F80028E8DB08F0D1F8E8E7B1
:104174002046FFF719FF237E13F0020F11D0BB680E
:104184002068984700281BDB7B68A1682068984753
:1041940000281BDB237E03F0FE03237623F00203B7
:1041A4002376237E13F0400F01D10023237620468B
:1041B400FFF704FF304600F0B1FB204603B0F0BD2A
:1041C400F5220549054805F0B9FCDDE7F822024966
:1041D400024805F0B3FCDDE7FCE50008C8E500088B
:1041E4002DE9F041174682B305460E4600F0C4FAA5
:1041F400804631462846FFF73FFE044630B928463C
:10420400FFF786FF04460028F3D11BE0FFF7CCFE3E
:10421400A368E360A760237E13F0040F08D1D8F8E5
:104224000030394630469847237E43F00403237612
:10423400237E43F00203237643F040032376204693
:10424400FFF7BCFE2046BDE8F0811446FAE7000003
:104254002DE9F04383B0074600F08EFA002855D0CC
:10426400804601A9384600F065FA0646002850D079
:10427400384600F043FB002517E04FF48E722649C0
:10428400264805F05BFC2BE0237E03F0FE03237637
:1042940023F002032376237E13F0400F01D1002381
:1042A40023762046FFF78AFE0135019BAB4226D9CF
:1042B400C5EBC5044FEA840906EB840494F918306D
:1042C400002BF1DA2046FFF76FFE237E13F0020F76
:1042D400E1D0D8F8083056F8090098470028CCDB1C
:1042E400D8F80430A16856F8090098470028CBDABA
:1042F4004FF490720849094805F020FCC4E7384699
:1043040000F00CFB002003B0BDE8F0834FF0FF3059
:10431400F9E74FF0FF30F6E7F0E50008C8E50008DC
:104324002DE9F04782B080460F4600F025FA0028B8
:1043340053D0814601A9404600F0FCF906464046A8
:1043440000F0DCFA002517E04FF4C872254926482E
:1043540005F0F4FB2FE0237E03F0FE03237623F025
:1043640002032376237E13F0400F01D1002323762A
:104374002046FFF723FE0135019BAB422AD9C5EB4A
:10438400C5044FEA840A06EB840494F91830002B20
:10439400F1DA56F80A30BB42EDD12046FFF704FEAD
:1043A400237E13F0020FDDD0D9F8083056F80A0046
:1043B40098470028C8DBD9F80430A16856F80A00E9
:1043C40098470028C7DA4FF4CA720649064805F030
:1043D400B5FBC0E7404600F0A1FA002002B0BDE8FA
:1043E400F08700BFE8E50008C8E500082DE9F047BC
:1043F40082B006460D4690461F46DDF8289000F030
:10440400BBF9824658B101A9304600F093F980B94E
:1044140040F2B7122849294805F090FB09E040F220
:10442400B3122549254805F089FBECE73046FFF730
:104434006FFE29463046FFF71FFD04460028F5D0DD
:10444400FFF7B2FD2368AB4203D02046FFF7B6FD69
:10445400EFE717B963684B4522D0237E13F0040FAE
:1044640008D1DAF80030A16828469847237E43F043
:104474000403237607EB090263689A4215D8A068FF
:104484004A464146384407F09BFE237E43F002032C
:1044940023762046FFF792FD002002B0BDE8F087A6
:1044A400237E43F004032376E4E740F2D512024965
:1044B400024805F043FBE2E7E4E50008C8E500082C
:1044C4002DE9F04782B006460D4690461F46DDF8BA
:1044D400289000F051F9A0B1824601A9304600F0BD
:1044E40029F9B8B129463046FFF7C6FC0446D0B1D5
:1044F400FFF75AFD2368AB4219D02046FFF75EFD53
:10450400F0E740F2EF121D491D4805F017FB4FF08C
:10451400FF3028E04FF4FA721849194805F00EFBF1
:104524004FF0FF301FE03046FFF7F2FDDAE7237E5D
:1045340013F0040F08D1DAF80030A1682846984730
:10454400237E43F00403237607EB090263689A424F
:104554000CD8A1684A463944404607F031FE20464B
:10456400FFF72CFD002002B0BDE8F08740F20E22D8
:104574000249034805F0E2FAEBE700BFE0E5000872
:10458400C8E500082DE9F04182B006460D461746FD
:104594000023019300F0F0F8804658B101A9304699
:1045A40000F0C8F880B940F227221A491A4805F0E9
:1045B400C5FA09E040F223221649174805F0BEFA6D
:1045C400ECE73046FFF7A4FD29463046FFF754FCDC
:1045D40004460028F5D0FFF7E7FC2368AB4203D07C
:1045E4002046FFF7EBFCEFE7237E13F0040F08D11E
:1045F400D8F80030A16828469847237E43F0040386
:1046040023761FB1237E43F002032376204602B0B3
:10461400BDE8F081D8E50008C8E5000818B108B580
:10462400FFF7CCFC08BD704708B5438A092B0AD8AC
:1046340003EB4303064A02EB83035B684B611B6A8B
:1046440023B1984708BD6FF01200FBE70020F9E79B
:10465400981F002008B5438A092B0AD803EB83036B
:10466400064A02EBC3035B684B611B6A23B198479C
:1046740008BD6FF01200FBE70020F9E7081E0020D8
:1046840030B583B00446144B5B6A00930023019356
:1046940000EB8005ED0005F12003104D1D440435A9
:1046A4006946284605F05CFC01E005F0B7FA05F020
:1046B400E7FA04EB8403DB00203308481844FCF7D2
:1046C4007CFC0028F1D16946284605F057FC05F02A
:1046D40085FA03B030BD00BFB42B0020081E0020B3
:1046E40010B5002400E00134092C0BDC04EB840336
:1046F400DA00054B13445B69002BF4D02046FFF726
:10470400A7FDF0E7002010BD081E002009280BD8E3
:1047140000EB8000064B03EBC00043690BB900209B
:1047240070474FF0FF3070474FF0FF30704700BFC5
:10473400081E002009280CD8074B00EB800203EB6D
:10474400C20292690A6000EB800003EBC0000069BA
:1047540070470020704700BF081E0020092806D8B3
:1047640000EB8000034B03EBC000C06970470020DE
:10477400704700BF081E0020092806D800EB8000FF
:10478400034B03EBC000406970470020704700BF33
:10479400081E0020092806D800EB8000034B03EB19
:1047A400C000C06870474FF0FF307047081E0020FB
:1047B400092812D810B400EB40030B4C04EB83031C
:1047C4005B686BB9234600EB400443F8241003EB09
:1047D40084004260002010BC70476FF015007047E1
:1047E4006FF00F00F7E700BF981F0020092815D8C5
:1047F40010B5044600EB40030B4A52F8230007F0BF
:1048040041FE70B9084B04EB440292000021995018
:1048140004EB440403EB8404616010BD6FF01500E5
:1048240070476FF01500F8E7981F00202DE9F0415C
:10483400079F092824D804460E461546984600EBDF
:104844008003144A02EBC3035B69E3B900EB800005
:10485400C00010303A4606990E4B1844FFF76AFB25
:10486400A0B10C4B04EB840103EBC102C2F80C8031
:10487400906143F831605561D7610020BDE8F08153
:104884006FF01500FAE76FF00F00F7E74FF0FF3015
:10489400F4E700BF081E0020092815D810B5044607
:1048A40000EB80030B4A52F8330007F0EBFD70B9BC
:1048B400084B04EB8402D2000021995004EB8404D9
:1048C40003EBC404616110BD6FF0150070476FF015
:1048D4001500F8E7081E002010B5044600EB80031D
:1048E400DB00203304481844FCF767FB00B910BD13
:1048F4002046FFF7C5FEFAE7081E002010B504465F
:10490400FFF7EAFF04EB8404E400203401210248A9
:104914002044FCF74AFB10BD081E002070B5044675
:10492400084D860000EB8000C000203000212844A0
:10493400FCF73BFB344405EBC405686A05F0FAFA5E
:1049440070BD00BF081E002038B5074D074BED1A97
:10495400ED08002404E0054B53F834309847013443
:10496400AC42F8D338BD00BF68E4000850E4000846
:10497400072831D88C461E4B5A6AC0EBC00302EBA1
:104984008303D3F8A03553B307292BD8BCF1070F01
:1049940009D8CCEBCC0302EB8303D3F8A03513B9CD
:1049A4000CF1010CF2E7BCF1070F1ED810B5CCEBEB
:1049B400CC0402EB8404C0EBC00002EB800204F5DB
:1049C400B16402F5B16EBEE80F000FC49EE80700A3
:1049D40084E80700604610BD6FF0080070476FF070
:1049E400080070476FF0150070476FF017007047AC
:1049F400B42B002007281AD838B505460C46124BAC
:104A04005B6AC0EBC00203EB8203D3F8A0358BB121
:104A140088420AD0082910D812D0084600F068FF4E
:104A240021462846FFF7A4FF38BD0846FCE76FF08F
:104A3400080070476FF00800F6E76FF00800F3E72E
:104A44006FF00800F0E700BFB42B002008B5002188
:104A5400FFF78EFF08BD0020704700000C4B1B6859
:104A6400012B11DC70B50E460133094D2B60094C46
:104A74008022014604EBC31007F036FD2B6804EBDB
:104A8400C3143460002070BD4FF0FF30704700BF86
:104A94004401002014200020034B1B68002B02DB80
:104AA400013B014A136070474401002038B50546B4
:104AB400002400E001340B4B1B68A3420FDD04EB20
:104AC40084032946084A52F8230007F0DBFC002837
:104AD400F0D104EB8404044800EB840000E00020DF
:104AE40038BD00BF480100204C01002000B583B050
:104AF4000D4B5B6A00930023019369460B4805F054
:104B04002FFA01E005F08AF805F0BAF80848FCF736
:104B140054FA0028F6D16946044805F02FFA05F046
:104B24005DF803B05DF804FBB42B00209421002051
:104B34009821002030B583B004460F4B5B6A009384
:104B44000023019300F118056946284605F008FA88
:104B540001E005F063F805F093F804F11C00FCF79C
:104B64002CFA0028F5D16946284605F007FA05F025
:104B740035F803B030BD00BFB42B002008B5024B9C
:104B8400186805F0D7F908BD9421002010B5134822
:104B9400FCF713FA00BBFFF7A9FF1DE00134152C45
:104BA40018D8C4EBC403DB0020330D481844FCF7C9
:104BB40029FA0028F2D00948FCF7E7F9C4EBC40449
:104BC400074B03EBC40438220649204607F0F8FAE1
:104BD400204610BDFFF78AFF0024E0E760010020B3
:104BE4009C2100206401002070B50646002400E0EA
:104BF4000134152C1BD8C4EBC403DB0020330D4D4A
:104C04001D442846FCF7D9F90028F1D0C4EBC403AD
:104C1400084A02EBC3039B68B342E9D12846FCF778
:104C2400A3F9C4EBC404034800EBC40000E0002073
:104C340070BD00BF9C21002038B5044600F120055A
:104C44002846FCF7F2F92846FCF7B7F958B9A36AE5
:104C54001B6A1BB15B680BB1204698470248FCF7FE
:104C640083F9FFF78BFF38BD6001002010B50446BF
:104C74001C30FCF7A2F900B910BD2046FFF75AFF1B
:104C8400FAE750B338B50446FFF7F0FF04F1200506
:104C94002846FCF792F918B32846FCF78EF9012848
:104CA40016D8A36A3BB11B6A2BB15B691BB1E268DE
:104CB4000AB920469847A36A2BB11B6A1BB11B692A
:104CC4000BB1204698472046FFF7B6FF002038BDB9
:104CD4002046FFF7B1FF0020F9E74FF0FF3070479F
:104CE4004FF0FF30F3E7F8B507460C460846FFF7E8
:104CF4007BFF064658B144693CB104F12000FCF73F
:104D040033F93046FFF7BDFF26463046F8BDFFF7BE
:104D14003DFF054601212030FCF747F9002105F14C
:104D24001C00FCF742F900236B60AB61AF62AC601E
:104D3400EB603B6A1B6828469847044638B13B6AD7
:104D44009B6828469847002806DB2E46DDE7284660
:104D5400FFF772FF2646D8E73B6A5B682846984708
:104D64002846FFF769FFD0E710B50446FFF77EFF3A
:104D7400012104F11C00FCF718F910BD10B504461C
:104D840000211C30FCF711F9A06905F0D3F810BD1F
:104D940038B5002405E0284698472846FFF7EEFF7B
:104DA4000134152C1CDCC4EBC403DB0020330021CC
:104DB4000C481844FCF703F90028F1D1C4EBC405EE
:104DC400084B03EBC5052846FFF7CEFFAB6A002B63
:104DD400E3D01B6A002BE0D01B69002BDBD1DCE79E
:104DE400002038BD9C210020072824DC10B584460F
:104DF4008E461346174A546AC0EBC00204EB820283
:104E0400D2F8A025D2B1C0EBC000800000F5B1609B
:104E14002118CCEBCC0204EB8202D2F8980580B1C5
:104E2400D2F89C2582B154698CB17246A0470028FF
:104E340000DB002010BD6FF0080070476FF0080021
:104E4400F8E76FF01500F5E76FF01500F2E76FF083
:104E54001500EFE7B42B0020F8B50F46856A6B68A0
:104E6400B2FBF3F603FB162202B10122164400241E
:104E740006E0696801FB0471A868FFF7A9F801342A
:104E8400B442F6DB0020F8BD2DE9F04F85B0804632
:104E940093469A46856A0F9B03F10109CDF8049065
:104EA4004C46002605E06FF00B002AE001366C68E2
:104EB4003C4409EB0A032746A34221D903AA21460D
:104EC400404602F00DF900281BDB6A6802FB06B2BB
:104ED4000399A868FFF784F90028E7D1019B9C4255
:104EE400E1DB03AA3946404602F0FAF8002808DB61
:104EF4000399A868FFF7D2F8019B01330193EDE70A
:104F0400002005B0BDE8F08F30B583B00C46844670
:104F140050B149B1C96A99B1CD6A8DB10699009170
:104F24002146A84703B030BD6046FFF7AAFE2046DD
:104F3400FFF7A7FE0023069A13606FF00100F1E764
:104F44006046FFF79EFE069B1C600020EAE7000017
:104F54002DE9F0411D4600232B6000283ED00E466B
:104F640014460746022A0ED0FB6A73B3D3F80880AE
:104F7400B8F1000F29D074B32B4622463146384687
:104F8400C047BDE8F0810B782E2BEDD14B782E2B4A
:104F9400EAD1154B5B6AD3F86836834212D0D0F855
:104FA4002880B8F1000FDFD0D8F814308342DBD169
:104FB400FFF767FED8F818709FB107F12000FBF7E0
:104FC400D3FFD1E728600020DBE73846FFF759FE1E
:104FD4006FF01300D5E72F602046D2E76FF0010091
:104FE400CFE76FF00100CCE7B42B00202DE9F043AC
:104FF40087B006460F4690460393DDF838900022AA
:10500400C9F8002093B133782F2B01D05C2B30D119
:105014000398FFF736FE284B5B6AD3F868060390C3
:10502400013630B32030FBF79FFF22E0224B5B6A4E
:10503400D3F86C0603900028E5D02030FBF794FFEA
:10504400E1E723B303982030FBF78EFF05AB2A4634
:1050540031460398FFF77CFF0546A0B903AB0093E4
:1050640000231A4605990398FFF74EFF0546D0B969
:1050740026463446002514F8013B002BE1D02F2BA3
:10508400DFD00135F7E70398FFF7FBFD0BE003984A
:10509400C36A63B19B6853B1C8F800603D60039B69
:1050A400C9F800300025284607B0BDE8F083FFF7B3
:1050B400E8FD6FF01305F6E7B42B002070B588B057
:1050C400039116461C46002323600B4603A9009156
:1050D40007AA06A9FFF78AFF054610B1284608B0BB
:1050E40070BD03982030FBF73FFF05AB069A079984
:1050F4000398FFF72DFF054658B976B105AB009329
:1051040000231A4605990398FFF7FEFE40B10546B1
:10511400E4E70398FFF7B5FDE0E70398FFF7B1FD77
:10512400059B2360DAE708B50B4600221146FFF71A
:10513400C5FF08BD08B50B4601220021FFF7BEFFDD
:1051440008BD70B586B00446084605AB009300233D
:1051540004AA03A9FFF74AFF00280DDB049D284693
:1051640007F0A5F9024648B10598C36A63B15E69C0
:1051740056B123462946B04706B070BD0598FFF7DF
:1051840080FD6FF00100F7E7FFF77BFD4FF0FF3084
:10519400F2E7F0B587B00D4617461E4604A9009104
:1051A4000C9B02AA03A9FFF721FF041E06DB039B45
:1051B4006BB915F0010404D1049B3360204607B099
:1051C400F0BD0498FFF75DFD6FF01404F6E7049852
:1051D4002030FBF7C9FE15F0400F2CD005AB039A25
:1051E40002990498FFF7B4FE041E08DB15F0800F43
:1051F40029D00598FFF745FD6FF0100423E00498CB
:10520400C36A002B36D05B6813B96FF00C041AE044
:105214002030FBF7A9FE0498C36A5C6805AB0093D1
:1052240038233A460299A0470446059B3360049804
:10523400FFF727FDC2E705AB039A02990498FFF72D
:1052440087FE041E10DB15F4007F0AD00598C36A9C
:105254001BB15B6B0BB100219847059B012283F8BE
:105264002420059B3360A9E70498FFF70AFD6FF03B
:105274000104A3E76FF00C04E5E7F0B587B00E4630
:1052840005AA0092002304AA03A9FFF7AFFE002891
:105294001FDB0598C26ABAB19369ABB12030FBF742
:1052A40063FE059CE36A9F69049D284607F0FFF8A6
:1052B4000246334629462046B84704460598FFF778
:1052C400E0FC204607B0F0BDFFF7DBFC6FF02504DF
:1052D400F7E76FF00104F4E770B586B005AB00930F
:1052E400002304AA03A9FFF781FE002828DB059800
:1052F4004388012B19D1C36AE3B1DB69D3B12030F0
:10530400FBF732FE059CE36ADE69049D284607F03C
:10531400CEF8024629462046B047041E0ADA05980C
:10532400FFF7AFFC204606B070BDFFF7AAFC6FF094
:105334000104F7E70598FFF7A4FC6FF02504F1E7F3
:105344006FF00104EEE7F0B587B006460D4605ABF5
:105354000093002304AA03A92846FFF747FE041E6E
:105364001BDB284607F0A3F8D8B1059CA36A9A680A
:10537400B36A9B689A421DD1E36A23B3DD6815B30F
:10538400049F384607F093F803463A4621463046D0
:10539400A8470446204607B0F0BD3046FFF771FC2D
:1053A400F8E73046FFF76DFC0598FFF76AFC4FF00D
:1053B400FF34EFE72046FFF764FC3046FFF761FC5B
:1053C4006FF01104E6E72046FFF75BFC3046FFF779
:1053D40058FC4FF0FF34DDE710B582B00C4601A94C
:1053E400FFF7A8FE002803DB21460198FFF7ABFF77
:1053F40002B010BD70B586B005AB0093002303AABC
:1054040004A9FFF7F3FD002826DB05984388012B48
:1054140018D1C36ADBB11B69CBB12030FBF7A4FD03
:10542400059CE36A1E69039D284607F040F802467E
:1054340029462046B04704460598FFF722FC20463B
:1054440006B070BDFFF71DFC6FF00104F7E7FFF72E
:1054540018FC6FF02504F2E76FF00104EFE730B5B4
:1054640083B00C4601A9FFF7F9FA054610B12846A6
:1054740003B030BD69462046FFF7F0FA054618B17F
:105484000198FFF709FBF2E700990198FFF759FE2D
:1054940005460098FFF700FBF2E76FF02500704720
:1054A4002DE9F04186B00C46174605AB0093002366
:1054B40004AA03A9FFF79AFD00281DDB0598C36A17
:1054C400ABB11B6A9BB12030FBF74EFD059DEB6A27
:1054D400D3F82080049E304606F0E9FF0246009788
:1054E400234631462846C04706B0BDE8F081FFF7A1
:1054F400C8FB6FF02500F7E76FF00100F4E76FF0E9
:105504002500704710B582B00C4601A9FFF712FEC2
:10551400002812DB019A906A036A1B6A3BB1214698
:1055240098470198FFF7ADFB002002B010BD10466C
:10553400FFF7A7FB6FF02500F7E74FF0FF30F4E724
:10554400072817D808B5114B5B6AC0EBC00203EB00
:105554008202D2F8A02582B1C0EBC00003EB800028
:10556400D0F8983563B1986A036A1B6A5BB19847AF
:10557400002008BD6FF0080070476FF00800F8E7DE
:105584006FF00100F5E76FF02500F2E7B42B00207F
:1055940030B583B00C4601A9FFF7CCFD054670B9C0
:1055A4000198438873B9C36A1BB15B6B0BB1214685
:1055B40098470198012380F82430FFF762FB2846BE
:1055C40003B030BDFFF75DFB6FF00C05F7E700009B
:1055D400072825D810B5174B5C6AC0EBC00204EB52
:1055E4008202D2F8A025F2B1C0EBC00204EB820221
:1055F400D2F89825D2B1C0EBC000800000F5B360AA
:105604000444E36A1BB15B6B0BB12046984701234A
:1056140084F824302046FFF734FB6FF0250010BDDA
:105624006FF0080070476FF00800F8E76FF00100B2
:10563400F5E700BFB42B00206FF0250070476FF032
:105644002500704730B587B0054605AB00930023AD
:1056540004AA03A9FFF7CAFC00281EDB05984288A8
:10566400012A15D10E4C636AD3F86C06FFF709FBC7
:10567400636A0598C3F86C06FFF703FB606A80222F
:10568400294600F5CE6006F02FFF002007B030BD9C
:10569400FFF7F7FA6FF00100F8E76FF00100F5E7A4
:1056A400B42B002010B50A46054C616A01F5CE61A1
:1056B40006F01AFF606A00F5CE6006F0F8FE10BD31
:1056C400B42B002007281DD8144B5A6AC0EBC00322
:1056D40002EB8303D3F8A035BBB110B5C0EBC00017
:1056E40002EB8000D0F8984594B16388012B12D165
:1056F400D2F86C06FFF7C5FA084B5B6AC3F86C4630
:10570400002010BD6FF0080070476FF0080070476C
:105714006FF00100F5E76FF00100F2E7B42B002011
:1057240010B586B005AB0093002304AA03A9FFF7C4
:105734005DFC002817DB05984388012B0ED10B4C28
:10574400636AD3F86806FFF79CFA636A0598C3F89E
:105754006806FFF796FA002006B010BDFFF791FA2D
:105764006FF00100F8E76FF00100F5E7B42B0020BB
:10577400072819D8114B5A6AC0EBC00302EB830304
:10578400D3F8A0359BB1C0EBC00002EB8000D0F889
:10579400980578B14288130403600B430360012326
:1057A40080F82430002070476FF0080070476FF0D5
:1057B400080070476FF00100704700BFB42B002051
:1057C40010B582B00C4601A9FFF7B4FC002810DB29
:1057D400019A53881B041360019B196821431960C3
:1057E4000198012380F82430FFF74BFA002002B01F
:1057F40010BD6FF00100FAE76FF0250070476FF0FD
:10580400250070472DE9F04385B005460846174644
:105814001A460024072C0BD8C4EBC40C05EB8C0CE3
:10582400DCF818300BB10134F4E70123CCF818305C
:10583400072C2AD80023009303AB3946FFF7A9FCB1
:10584400061E28DBC4EBC4084FEA880905EB880868
:10585400A8F80C70D8F8143023B3D8F8143033B146
:105864001B6A23B1414603989847061E22DB002396
:10587400C8F80430039BC8F810301B6845F8093099
:105884002646304605B0BDE8F0830E4B18221A6058
:105894004FF0FF36F5E7C4EBC40405EB84050023A1
:1058A400AB61EEE7039BDB6A1B68002BD5D0C8F81D
:1058B4001430D2E70023C8F818300398FFF7E1F951
:1058C400DFE700BF0007002010B51346044A546AFE
:1058D4000A46014604F5B160FFF794FF10BD00BF0E
:1058E400B42B002008B50A464121FFF7EDFF08BD9F
:1058F40038B5072842D80446234B5A6AC0EBC00384
:1059040002EB8303D3F8A035BBB3C0EBC00302EBB7
:105914008303D3F89855D3F89C354BB15B6A3BB1FC
:10592400C0EBC001890001F5B161114428469847D4
:10593400154B596AC4EBC40301EB8303D3F89C35BC
:105944004BB19A6A3AB1C4EBC4039B0003F5B1634B
:105954001944284690470C4B5A6AC4EBC40302EB23
:1059640083030021C3F89C15C3F8A015C3F88C1554
:10597400C3F898152846FFF784F938BD034904484D
:1059840004F0BCF8F9E700BFB42B00202CE60008B3
:1059940018E6000808B507281CD80346154A516ABA
:1059A400C0EBC00201EB8202D2F8A025CAB1C0EB61
:1059B400C00201EB8202D2F89805D2F89C259AB174
:1059C400926AA2B1C3EBC3039B0003F5B16319440C
:1059D400904708BD0849094804F090F86FF00800A2
:1059E400F7E76FF01500F4E76FF02500F1E76FF0CB
:1059F4002500EEE7B42B002020E6000818E6000896
:105A0400072821D810B584468E461346164A546A90
:105A1400C0EBC00204EB8202D2F8A025BAB1C0EBFD
:105A2400C000800000F5B1602118CCEBCC0204EB7F
:105A34008202D2F8980568B1D2F89C256AB1D4687C
:105A440074B17246A04710BD6FF0080070474FF064
:105A5400FF30F8E76FF00800F5E76FF00100F2E7B8
:105A64006FF00100EFE700BFB42B002008B5FFF78B
:105A7400C7FF08BD072848D870B504460E4615462A
:105A8400294B5B6AC0EBC00203EB8202D2F8A0256B
:105A9400002A3DD0C0EBC00203EB8202D2F8980585
:105AA400C8B3C4EBC40203EB8202D2F89C2542B112
:105AB400526A32B1C4EBC401890001F5B1611944E1
:105AC4009047194B5B6AC4EBC40203EB8202D2F821
