:020000040800F2
:1000000000000120B50E00088B0D00088D0D0008C2
:100010008F0D0008910D0008930D000800000000EE
:100020000000000000000000000000008D04000837
:10003000950D000800000000E50100080505000816
:100040000505000805050008050500080505000868
:100050000505000805050008050500080505000858
:100060000505000805050008050500080505000848
:100070000505000805050008050500080505000838
:100080000505000805050008050500080505000828
:100090000505000805050008050500080505000818
:1000A0000505000805050008050500080505000808
:1000B00005050008050500080505000805050008F8
:1000C00005050008050500080505000805050008E8
:1000D00005050008050500080505000805050008D8
:1000E00005050008050500080505000805050008C8
:1000F00005050008050500080505000805050008B8
:1001000005050008050500080505000805050008A7
:100110000505000805050008050500080505000897
:100120000505000805050008050500080505000887
:1001300000000000000000000000000000000000BF
:1001400000000000000000000000000000000000AF
:10015000000000000000000000000000000000009F
:10016000000000000000000000000000000000008F
:10017000000000000000000000000000000000007F
:10018000000000000000000000000000000000006F
:10019000000000000000000000000000000000005F
:1001A000000000000000000000000000000000004F
:1001B000000000000000000000000000000000003F
:1001C000000000000000000000000000000000002F
:1001D000000000000000000000000000000000001F
:0401E0005FF8E0F1F3
:1001E40072B6EFF30980EFF3088100281EF0040FC4
:1001F4000CBFEFF30883EFF309830CBF0022012245
:10020400002868B1A3F1200383E8F00F1EF0040F67
:100214000CBF194618460CBF83F3088883F309887A
:10022400DFF878309847D0E90012836813F0010FA3
:100234000CBF1046084690E8F00F203082F308887F
:1002440081F30988022B1FD013F4803F0BD1012BBB
:1002540000D019E080F309884FF0010181F314887C
:100264006FF0020E18E013F0020F04D14FF00301F7
:1002740081F3148803E04FF0000181F3148880F3C4
:1002840008886FF00E0E07E080F308886FF0060E02
:100294004FF0000080F3148862B67047154B0008D5
:1002A40008B504F019FC04F0A1FB08BD10B5002248
:1002B40011460A4800F010F94FF0E023084A5A6149
:1002C400084AF02182F8231000249C6107221A6155
:1002D4004FF4407000F078FB204610BDA5020008E2
:1002E4003F19010000ED00E0EFF3108072B6704793
:1002F40080F30988704780F31088704702484FF0F4
:10030400805101607047000004ED00E010B44FF02C
:100314008074046040F8041C1A4940F8081C4FF02B
:10032400123140F80C1C4FF0033140F8101C4FF010
:10033400023140F8141C40F8183C40F81C2C4FF0D3
:10034400113340F8203C4FF0103340F8243C0E4B5E
:100354001B6840F8283C4FF0083340F82C3C4FF021
:10036400073340F8303C4FF0063340F8343C4FF04C
:10037400053340F8383C4FF0043340F83C3C3C38FB
:1003840010BC7047FD470008C00400204FF0000374
:1003940050E8002F02F10102002A00D001E04FF0E2
:1003A400010340E800210129F2D0184670474FF0BC
:1003B400000350E8002F02F1FF32002A00D001E0D0
:1003C4004FF0010340E800210129F2D0704750E8C2
:1003D400002F0A4640E80023012BF8D0704700683C
:1003E400704710B450E8002F8A4202D04FF0000446
:1003F40001E04FF0010440E80023012BF2D0204635
:1004040010BC704710B450E8002F002A02D04FF0FF
:10041400000403E04FF0010402F1010240E800236C
:10042400012BF0D0204610BC704710B450E8002FC8
:10043400002A04D04FF0000402F1FF3201E04FF033
:10044400010440E80023012BF0D0204610BC704783
:1004540072B60A484AF2A001018009484FF0F0013F
:100464000170002080F3098806484FF08051016034
:100474004FF0010080F3148862B6704722ED00E06B
:100484001FED00E004ED00E01EF0040F0CBFEFF3DD
:100494000880EFF30980A0F1200080E8F00F04F059
:1004A400C4BDEFF30580704710B50446FFF7F9FFAC
:1004B400A0F10F03074A02EBC302127912F0010FF5
:1004C40004D1044A52F8333003B19847204604F06B
:1004D40041FD10BDC404002070B506460D46144607
:1004E400FFF702FF054941F8356001EBC5010A79C0
:1004F40014430C71FFF7FFFE70BD00BFC40400205D
:100504001EF0040F0CBFEFF30880EFF30980FFF730
:10051400CBBF000030B5044C04442568084611469E
:100524001A46A84730BD00004802002000B580DF0D
:1005340000BD38B50446FFF7D7FE0546204600F057
:1005440009FA04462846FFF7D6FE204638BD0000C7
:1005540038B50C46084D0023C5F8B031800040F092
:10056400020000F0FE00FFF7E4FF2046FFF7E1FF82
:100574000123C5F8B03138BD0080214210B5084CC4
:100584000023C4F8B031800000F0FC00FFF7D1FF75
:10059400FF20FFF7CEFF0123C4F8B03110BD00BF28
:1005A4000080214200B583B00121182000F08EFBA9
:1005B4000121084600F08AFB4FF48053ADF8043063
:1005C40010238DF8073003238DF8063001A906485F
:1005D40000F000FB054B0122C3F8B02100F076F9CE
:1005E40003B05DF804FB00BF000C01400080214211
:1005F40030B585B0142000F0DEF9FFF7D3FF802179
:100604000120FFF7A5FF80210920FFF7A1FF142097
:1006140000F0D1F980210320FFF79AFF0C2100207C
:10062400FFF796FF00210120FFF792FF012102202E
:10063400FFF78EFF03210846FFF78AFF01210846D2
:10064400FFF786FF08210420FFF782FF80210B209B
:10065400FFF77EFF01210820FFF77AFF0021092020
:10066400FFF776FF01210A20FFF772FF03210B2019
:10067400FFF76EFF01210920FFF76AFF08210C2014
:10068400FFF766FF142000F096F90220FFF776FFCB
:100694000A20FFF773FF4024ADF8004048238DF88B
:1006A4000330154D6946284600F094FA2146284641
:1006B40000F0F0FA0621022000F0EEFA0194002581
:1006C4008DF808500C238DF8093001248DF80A4068
:1006D40001A800F0B5F917238DF80C3002238DF82A
:1006E4000D308DF80E508DF80F4003A800F076F908
:1006F400204605B030BD00BF0010014038B50446A7
:100704000D4671B10D20FFF739FF10F0200FF9D01D
:1007140014F8011B0820FFF71BFF6B1E13F0FF05E5
:10072400F0D138BD70B506460520FFF727FF10F05D
:100734001E0414D10520FFF721FF10F0010FF9D09A
:100744000020FFF71BFF307001360134E4B20520AE
:10075400FFF714FF10F0010FF2D1204670BD002006
:10076400FFF70CFF0024F8E770B506460D20FFF7ED
:1007740005FF10F01E0414D10D20FFF7FFFE10F04A
:10078400010FF9D00820FFF7F9FE3070013601346B
:10079400E4B20D20FFF7F2FE10F0010FF2D1204673
:1007A40070BD0820FFF7EAFE0024F8E710B5022028
:1007B400FFF7E4FE10F0010F35D100F03F030C2BDE
:1007C40031D8DFE803F00730303022302D303030BC
:1007D40030303F000620FFF7D1FE044601460020DA
:1007E400FFF7B6FE302C1ED0112C09D0222C1AD1C2
:1007F4000020FFF7C3FE01460020FFF7A9FE12E028
:10080400AA210020FFF7A4FE0DE02248FFF78AFF8B
:10081400214B1B683BB182B21E490020984702E07D
:100824000520FFF7ABFE0A20FFF7A8FE00F03F0308
:1008340010F0010F05D1062B1CD00C2B1ED0042B5D
:100844000CD010BD1348FFF76DFF134B1B68002B32
:10085400E9D082B20F4900209847E4E70F48FFF738
:1008640083FF0F4B1B68002BEBD082B20B49012096
:100874009847E6E70D20FFF781FEE2E70748FFF718
:1008840073FF074B1B68002BDBD082B203490120A6
:100894009847D6E7A40600209C060020C406002042
:1008A400A006002008B5402000F010F910B908BDDA
:1008B400FFF77CFF4021044800F0E5F90028F7D059
:1008C400402000F013F9F2E70010014030B587B082
:1008D4000121092000F0FAF901214FF4804000F0D1
:1008E40003FA4FF46045ADF8145018238DF817300F
:1008F40003238DF81630164C05A9204600F06AF93A
:100904002946204600F0C6F90023ADF800304FF424
:100914008272ADF80220ADF80430ADF80630ADF8BF
:1009240008304FF40072ADF80A20ADF80C30ADF881
:100934000E300723ADF81030A4F554446946204620
:1009440000F0E0F90121204600F003FA07B030BDC1
:10095400000C014038B50546002402210F4800F080
:100964000BFA034620B90134E4B2C82CF5D913E0DC
:1009740029460A4800F0FBF900240121074800F049
:10098400FBF9034620B90134E4B2C82CF5D903E0DD
:10099400024800F0EEF9C3B2184638BD00380040F2
:1009A40001460139FDD1704708B500EB40008000D5
:1009B400FFF7F6FF08BD08B54FF47A7303FB00F0A8
:1009C400FFF7F2FF08BD000040F0BF6040F40030C4
:1009D400014BD860704700BF00ED00E0C378FBB165
:1009E400154BDA68D243C2F30222C2F1040C0F237E
:1009F40023FA02F2417801FA0CF1837813400B4395
:100A04001B010278DBB20D490A4482F800330378F3
:100A140003F01F005B090122824041F82320704744
:100A2400037803F01F015B0901228A402033034944
:100A340041F82320704700BF00ED00E000E100E032
:100A44008379002B35D010B41F4B1A68016822EA51
:100A540001021A605A68016822EA01025A600279A6
:100A640002F1804202F58232116804682143116068
:100A74009A68016822EA01029A60DA68016822EA47
:100A84000102DA604379102B09D003F1804303F5A6
:100A940082331A6801680A431A6010BC70470A4B13
:100AA4009A6801680A439A60DA6801680A43DA605E
:100AB400F3E7037903F1804303F582331A6801688D
:100AC40022EA01021A60704700040140064A1368D2
:100AD40003405269024202D01BB900207047002033
:100AE40070470120704700BF00040140014B58616A
:100AF400704700BF00040140014BD860704700BF3D
:100B0400002002400B4BDB6813F0010F0BD1094BA3
:100B1400DB6813F0040F08D1064BDB6813F0100FE9
:100B240005D003207047012070470220704704203D
:100B3400704700BF0020024010B50446FFF7E2FFF3
:100B440002E0FFF7DFFF013C012801D1002CF8D1BE
:100B540004B110BD0520FCE738B504464FF430203D
:100B6400FFF7EAFF042800D038BD0A4D2B6943F093
:100B740002032B616C612B6943F040032B614FF43A
:100B84003020FFF7D9FF2B6923F00203DB04DB0CD1
:100B94002B61E9E70020024070B504460D464FF48E
:100BA4000050FFF7C9FF042800D070BD084E336918
:100BB40043F00103336125804FF40050FFF7BCFF7D
:100BC400336923F00103DB04DB0C3361EDE700BF81
:100BD4000020024030B5CB7803F00F02964613F0A4
:100BE400100F03D091F802E04EEA020E0B7803B323
:100BF4000468002301E042610133072B18D8012265
:100C04009A40B1F800C032EA0C05F5D14FEA830CE2
:100C14000F2505FA0CF524EA05040EFA0CFC4CEA3F
:100C24000404CD78282DE6D0482DE5D10261E3E710
:100C340004600B88FF2B25D94468002303E0CD789A
:100C4400482D1CD00133072B1BD803F1080C0122BB
:100C540002FA0CF2B1F800C032EA0C05F2D14FEA04
:100C6400830C0F2505FA0CF524EA05040EFA0CFC96
:100C74004CEA0404CD78282DE1D14261DFE702611A
:100C8400E0E7446030BD8368194201D00120704719
:100C9400002070470161704710B401F00302920014
:100CA4000F2404FA02FC8908074B023153F821404F
:100CB40024EA0C0443F8214053F8214090400443B3
:100CC40043F8214010BC70470000014021B1054A9F
:100CD4009369184390617047024A936923EA0000BC
:100CE400906170470010024021B1054AD36918434E
:100CF400D0617047024AD36923EA0000D06170478B
:100D0400001002402DE9F041038803F441520F889A
:100D1400B1F802808E88CD880C89B1F80AE0B1F868
:100D24000CC0CB8947EA08073E4335432C434EEABF
:100D3400040E4CEA0E0C43EA0C0313430380838B2A
:100D44009BB223F400639BB283830B8A0382BDE8C6
:100D5400F08129B103889BB243F0400303807047BC
:100D640003889BB223F040039BB2038070478181C8
:100D74007047808980B270470389194201D00120ED
:100D84007047002070477047FEE7FEE7FEE7FEE786
:100D94007047000082B00023019300932C4A13682B
:100DA40043F4803313602A4B1B6803F4003300932D
:100DB400019B01330193009B1BB9019BB3F5A06F09
:100DC400F1D1234B1B6813F4003F06D00123009399
:100DD400009B012B04D002B0704700230093F7E777
:100DE4001C4B1A6842F010021A601A6822F00302BF
:100DF4001A601A6842F002021A60A3F580535A6816
:100E04005A605A685A605A6842F480625A605A6852
:100E140022F47C125A605A6842F4E8125A601A6842
:100E240042F080721A600A4B1B6813F0007FFAD0FC
:100E3400074B5A6822F003025A605A6842F00202D1
:100E44005A60034B5B6803F00C03082BF9D1C2E72B
:100E5400001002400020024008B5FFF79BFF08BDC8
:100E640008B5104B1A6842F001021A6059680E4A1C
:100E74000A405A601A6822F0847222F480321A609E
:100E84001A6822F480221A605A6822F4FE025A6018
:100E94004FF41F029A60FFF7DFFF044B4FF000622C
:100EA4009A6008BD001002400000FFF800ED00E069
:100EB4000B480C490C4A002302E0D458C4500433B4
:100EC400C4188C42F9D3094A094C002301E0136089
:100ED4000432A242FBD3FFF7C3FF04F063FB704765
:100EE4000000002098040020E45B0008C0040020F7
:100EF40040F3002038B50446094D0A4B6B6003F1FA
:100F040088336B603420FFF7F7FD04F58030403000
:100F1400C002FFF721FE2B6943F080032B6138BD2B
:100F2400002002402301674500B583B0002000F093
:100F340059FC002811DB4FF4006301930323009351
:100F4400C0230B4A0B49002000F002FD00280CDBF3
:100F5400094B186803B05DF804FB002207490848F0
:100F640001F04BFA4FF0FF30F4E74FF0FF30F1E7B8
:100F74000000002050590008E4060020FF0103008F
:100F84004459000808B50349034B186800F016FDDE
:100F940008BD00BF50590008E4060020F8B5054616
:100FA4000F461646002407E037F814102846FFF7CA
:100FB400F3FD02350134A4B2B442F5D3F8BD000008
:100FC40010B5094C094B636003F18833636000F585
:100FD400803040304FF48062C002FFF7DFFF2369A6
:100FE40043F08003236110BD0020024023016745C4
:100FF400008880B27047F8B505460F4616460024AF
:1010040007E02846FFF7F4FF27F8140002350134FF
:10101400A4B2B442F5D3F8BD08B500F58030403031
:101024004FF48062C002FFF7E6FF002008BD70475E
:101034007047000008B5074B1B780BB1002008BDB2
:10104400044B01221A70FFF7D3FA034B034A1A60C8
:10105400F4E700BFE8060020A006002033100008D3
:1010640010B51C46D9B21046FFF748FB204610BD08
:1010740008B50349034B186800F04AFC002008BD7A
:10108400585900083400002008B5002000F0D0FBB7
:10109400002816DB114B00221A6000221721104889
:1010A400FFF71AFA0F4A1049002000F013FC002839
:1010B40010DB0A4B1A680D490D4801F09EF9002017
:1010C40008BD00F0A3FB054B18600028E5DA4FF0DB
:1010D400FF30F5E74FF0FF30F2E700BF34000020A7
:1010E400A90800080C00002058590008FF0102005C
:1010F4006059000810B504460C4B1B783BB12046E0
:1011040004F0AAF8C1B22046FFF7F8FA10BD002295
:1011140017210748FFF7E0F9FFF76AFA054B064A7B
:101124001A60024B01221A70E9E700BFE8060020AA
:10113400A9080008A006002033100008F0B583B009
:1011440007460E4601A900F087FB0546384600F025
:1011540067FC4FF0FF30002301E018460133019A89
:101164009A4210D903EB4302D10005EBC204227D5D
:10117400D209F2D06A58B242F0D1384600F060FC8D
:10118400204603B0F0BDB0F1FF3F0BD000EB4000B0
:1011940005EBC0048023237545F83060384600F021
:1011A4004FFCEDE7384600F04BFC0024E8E7000074
:1011B40030B583B00446124B1B6A0093002301939D
:1011C40000F110056946284603F029FD01E003F00B
:1011D4000DFC0B4B1B6A022283F8342004F10C0033
:1011E400FFF7FDF80028F2D16946284603F025FDF3
:1011F400034B1B6A012283F8342003B030BD00BFC7
:10120400C41100202DE9F04180460F46164601EB3B
:101214004100C00004F070FBC8F80000F0B10025E4
:10122400BD4212D2D8F8004005EB450304EBC304D9
:1012340018220021204604F021F8304604F05CFB1B
:10124400A06010B166600135EAE715B12846BDE833
:10125400F081D8F8000004F05EFBF7E74FF0FF30B0
:10126400F5E710B504460C30FFF7B9F800B910BD26
:101274002046FFF79DFFFAE710B50446FFF7F1FF9C
:10128400012104F10C00FFF7A2F810BD10B50446CB
:1012940000210C30FFF79BF8206903F0ABFC10BD74
:1012A4002DE9F04383B0074600F0F8FA00284BD04C
:1012B400804601A9384600F0CFFA0646002846D0F9
:1012C400384600F0ADFB00250BE087222149224877
:1012D40003F03EFB1FE0002323752046FFF7D6FFF3
:1012E4000135019BAB4228D905EB45044FEAC409FB
:1012F40006EBC404237DDB09F2D12046FFF7BCFFD3
:10130400237D13F0010F06D0D8F8083056F80900F1
:1013140098470028D9DB237D13F0020FDBD0D8F8DF
:101324000030A16856F8090098470028D3DA8C22C7
:101334000849094803F00CFBCDE7384600F080FB70
:10134400002003B0BDE8F0834FF0FF30F9E74FF021
:10135400FF30F6E7A45900086C59000808B5836A01
:101364009868FFF79DFF08BDF0B583B0064600F00E
:1013740095FA074640B101A9304600F06DFA0546DA
:10138400304600F04DFB18E052222649264803F06F
:10139400DFFAF0E703F03AFF4042019BB0FBF3F2BF
:1013A40003FB120303EB430305EBC30404F10C003A
:1013B400FFF715F840B103F019FB03F027FF0028ED
:1013C400E8DB03F023FFE8E72046FFF755FF237D22
:1013D40013F0020F0AD0BB6820689847002810DB7E
:1013E4007B68A16820689847002812DB00232375D6
:1013F4002046FFF74BFF304600F022FB204603B0A7
:10140400F0BD0023237564220649074803F0A0FABF
:10141400E6E70023237568220249034803F098FA9B
:10142400E4E700BF945900086C5900082DE9F0471F
:1014340082B080460F4600F031FA002849D0814638
:1014440001A9404600F008FA0646404600F0E8FAD2
:1014540000250DE000232375E0222049204803F0F5
:1014640077FA23E0002323752046FFF70FFF0135A9
:10147400019BAB422AD905EB45044FEAC40A06EBAB
:10148400C404237DDB09F2D056F80A30BB42EED106
:101494002046FFF7F1FE237D13F0020FE2D0D9F8C6
:1014A400083056F80A0098470028D3DBD9F80430EE
:1014B400A16856F80A0098470028D3DA0023237558
:1014C400E4220649064803F043FACBE7404600F01D
:1014D400B7FA002002B0BDE8F08700BF8C590008BD
:1014E4006C5900082DE9F04782B006460D46904637
:1014F4001F46DDF8289000F0D1F9824658B101A9C1
:10150400304600F0A9F980B940F20312284929486D
:1015140003F01EFA09E0FF222549264803F018FAD1
:10152400EDE729463046FFF71FFF29463046FFF70F
:1015340005FE04460028F4D0FFF79EFE2368AB4264
:1015440003D02046FFF7A2FEEFE717B963684B45C7
:1015540022D0237D13F0040F08D1DAF80030A168FB
:1015640028469847237D43F00403237507EB0902BB
:1015740063689A4215D8A0684A464146384403F045
:1015840061FE237D43F0020323752046FFF77EFEB0
:10159400002002B0BDE8F087237D43F004032375E7
:1015A400E4E740F221120249024803F0D1F9E2E7EC
:1015B400885900086C5900082DE9F04782B00646A6
:1015C4000D4690461F46DDF8289000F067F9A0B15B
:1015D400824601A9304600F03FF9B8B129463046A9
:1015E400FFF7ACFD0446D0B1FFF746FE2368AB42DB
:1015F4001AD02046FFF74AFEF0E740F23B121D499D
:101604001D4803F0A5F94FF0FF3029E04FF4A07214
:101614001849194803F09CF94FF0FF3020E029469F
:101624003046FFF7A1FED9E7237D13F0040F08D15C
:10163400DAF80030A16828469847237D43F0040374
:10164400237507EB090263689A420CD8A1684A46DD
:101654003944404603F0F6FD2046FFF717FE00200C
:1016640002B0BDE8F0874FF4AD720249024803F0BE
:101674006FF9EBE7845900086C5900082DE9F04133
:1016840082B006460D4617460023019300F006F982
:10169400804658B101A9304600F0DEF888B940F21E
:1016A40073121B491B4803F053F90AE040F26F120E
:1016B4001749184803F04CF9ECE729463046FFF780
:1016C40053FE29463046FFF739FD04460028F4D07E
:1016D400FFF7D2FD2368AB4203D02046FFF7D6FDC7
:1016E400EFE7237D13F0040F08D1D8F80030A16888
:1016F40028469847237D43F0040323751FB1237DB7
:1017040043F002032375204602B0BDE8F08100BF18
:101714007C5900086C59000818B108B5FFF7B6FDEC
:1017240008BD704708B50369032B0AD803EB4303CC
:10173400064A02EB83035B680B61DB6923B19847BC
:1017440008BD6FF01200FBE70020F9E78C070020CA
:1017540008B50369032B0AD803EB8303064A02EB9B
:10176400C3035B680B61DB6923B1984708BD6FF065
:101774001200FBE70020F9E7EC06002030B583B047
:101784000446164B1B6A00930023019300EB80036D
:10179400DB002033124D1D4404356946284603F00E
:1017A4003EFA01E003F022F90C4B1B6A022283F893
:1017B400342004EB8403DB00203309481844FEF78B
:1017C4000EFE0028EED16946284603F036FA034B94
:1017D4001B6A012283F8342003B030BDC4110020F9
:1017E400EC06002003280BD800EB8000064B03EB2B
:1017F400C00043690BB9002070474FF0FF307047B9
:101804004FF0FF30704700BFEC0600200020032893
:1018140008D800EB8003DA00044B13445B691BB166
:101824000130F4E74FF0FF30704700BFEC060020B2
:1018340003280BD800EB4000064B03EB8000436801
:101844000BB9002070474FF0FF3070474FF0FF3066
:10185400704700BF8C07002003280CD8074B00EB0F
:10186400800203EBC20292690A6000EB800003EB82
:10187400C000006970470020704700BFEC060020DC
:10188400032806D800EB8000034B03EBC000C069BB
:1018940070470020704700BFEC060020032806D8DC
:1018A40000EB8000034B03EBC0004069704700204D
:1018B400704700BFEC060020032806D800EB800028
:1018C400034B03EBC000C06870474FF0FF30704714
:1018D400EC060020032812D810B400EB40030B4C94
:1018E40004EB83035B686BB9234600EB400443F8C5
:1018F400241003EB84004260002010BC70476FF09A
:10190400150070476FF00F00F7E700BF8C07002049
:10191400032815D810B5044600EB40030B4A52F8CF
:10192400230003F083FC70B9084B04EB44029200DB
:101934000021995004EB440403EB8404616010BD5E
:101944006FF0150070476FF01500F8E78C07002062
:101954002DE9F041079F032824D804460E46154676
:10196400984600EB8003144A02EBC3035B69E3B9B6
:1019740000EB8000C00010303A4606990E4B184424
:10198400FFF740FCA0B10C4B04EB840103EBC10254
:10199400C2F80C80906143F831605561D761002032
:1019A400BDE8F0816FF01500FAE76FF00F00F7E77C
:1019B4004FF0FF30F4E700BFEC060020032815D8F1
:1019C40010B5044600EB80030B4A52F8330003F0D1
:1019D4002DFC70B9084B04EB8402D200002199500D
:1019E40004EB840403EBC404616110BD6FF01500C3
:1019F40070476FF01500F8E7EC06002010B50446B8
:101A040000EB8003DB00203304481844FEF7E7FCB6
:101A140000B910BD2046FFF7B1FEFAE7EC0600203E
:101A240010B50446FFF7EAFF04EB8404E400203415
:101A3400012102482044FEF7CAFC10BDEC06002038
:101A440070B50446084D860000EB8000C0002030CD
:101A540000212844FEF7BBFC344405EBC405686A46
:101A640003F0C8F870BD00BFEC06002038B5074D80
:101A7400074BED1AED08002404E0054B53F834300D
:101A840098470134AC42F8D338BD00BF445900082C
:101A940034590008072831D88C461E4B1A6A00EBCB
:101AA400400302EBC30393F8643253B307292BD8E2
:101AB400BCF1070F09D80CEB4C0302EBC30393F8FA
:101AC400643213B90CF1010CF2E7BCF1070F1ED814
:101AD40010B50CEB4C0402EBC40400EB400002EB29
:101AE400C00204F5147402F5147EBEE80F000FC49E
:101AF4009EE8030084E80300604610BD6FF0080010
:101B040070476FF0080070476FF0150070476FF072
:101B140017007047C411002007281AD838B50546A5
:101B24000C46124B1B6A00EB400203EBC20393F812
:101B340064328BB188420AD0082910D812D00846E2
:101B440000F010FE21462846FFF7A4FF38BD0846E2
:101B5400FCE76FF0080070476FF00800F6E76FF0DD
:101B64000800F3E76FF00800F0E700BFC41100209D
:101B740008B50021FFF78EFF08BD000007280BD829
:101B8400084B1B6A00EB400003EBC00090F8643282
:101B94002BB16FF0250070476FF0080070476FF0AD
:101BA40008007047C411002038B50546002400E041
:101BB40001340B4B1B68A3420FDD04EB840329465D
:101BC400084A52F8230003F031FB0028F0D104EB5B
:101BD4008404044800EB840000E0002038BD00BF0A
:101BE400000100200401002000B583B0104B1B6AE3
:101BF40000930023019369460E4803F010F801E0B6
:101C040002F0F4FE0A4B1B6A022283F834200A48CD
:101C1400FEF7E5FB0028F3D16946064803F00DF80A
:101C2400034B1B6A012283F8342003B05DF804FBE4
:101C3400C4110020C0070020C407002030B583B0C1
:101C44000446124B1B6A00930023019300F118050C
:101C54006946284602F0E3FF01E002F0C7FE0B4BA1
:101C64001B6A022283F8342004F12000FEF7B7FB3C
:101C74000028F2D16946284602F0DFFF034B1B6AB5
:101C8400012283F8342003B030BD00BFC41100200A
:101C940008B5024802F0AEFF08BD00BFC00700202F
:101CA40010B51448FEF79BFB70B100241F2C0ED80E
:101CB400C4EBC400C00018300F4B18440430FEF7C6
:101CC400A1FB38B90134F1E7FFF78EFFEDE7FFF729
:101CD4008BFFEAE70748FEF76AFBC4EBC404064B34
:101CE40003EBC40438220021204603F0C7FA20463F
:101CF40010BD00BF18010020C807002070B50646BB
:101D0400002400E001341F2C1CD8C4EBC403DB0006
:101D140018330D4D1D4404352846FEF760FB00289A
:101D2400F0D0C4EBC403084A02EBC3039B68B3427C
:101D3400E8D12846FEF72AFBC4EBC404024800EBB2
:101D4400C40000E0002070BDC807002010B500F1F9
:101D54001C042046FEF769FB2046FEF740FB00B159
:101D640010BDFFF795FF0248FEF710FBF8E700BF30
:101D74001801002010B504462030FEF730FB00B9EE
:101D840010BD2046FFF75AFFFAE750B338B50446B2
:101D9400FFF7F0FF04F11C052846FEF720FB18B3FB
:101DA4002846FEF71CFB012816D8A36A3BB11B6A20
:101DB4002BB15B691BB1E2680AB920469847A36A54
:101DC4002BB11B6A1BB11B690BB1204698472046F7
:101DD400FFF7BCFF002038BD2046FFF7B7FF002007
:101DE400F9E74FF0FF3070474FF0FF30F3E7F8B5F5
:101DF40007460C460846FFF781FF064658B144697A
:101E04003CB104F11C00FEF7C1FA3046FFF7BDFFF8
:101E140026463046F8BDFFF743FF054601211C3036
:101E2400FEF7D5FA002105F12000FEF7D0FA0023D1
:101E34006B60AB61AF62AC60EB603B6A1B682846C9
:101E44009847044638B13B6A9B682846984700285F
:101E540006DB2E46DDE72846FFF778FF2646D8E75F
:101E64003B6A5B68284698472846FFF76FFFD0E730
:101E740010B50446FFF77EFF012104F12000FEF7B0
:101E8400A6FA10BD10B5044600212030FEF79FFAD3
:101E9400A06902F0AFFE10BD072824DC10B584460B
:101EA4008E461346174A146A00EB400204EBC20242
:101EB40092F86422D2B100EB4000C00000F5147027
:101EC40021180CEB4C0204EBC202D2F85C0280B184
:101ED400D2F8602282B154698CB17246A0470028BE
:101EE40000DB002010BD6FF0080070476FF00800A1
:101EF400F8E76FF01500F5E76FF01500F2E76FF003
:101F04001500EFE7C411002030B583B00C468446B9
:101F140050B149B1C96A99B1CD6A8DB106990091A0
:101F24002146A84703B030BD6046FFF72EFF204688
:101F3400FFF72BFF0023069A13606FF00100F1E70F
:101F44006046FFF722FF069B1C600020EAE70000C2
:101F54002DE9F0411D4600232B6000283ED00E469B
:101F640014460746022A0ED0FB6A73B3D3F80880DE
:101F7400B8F1000F29D074B32B46224631463846B7
:101F8400C047BDE8F0810B782E2BEDD14B782E2B7A
:101F9400EAD1154B1B6AD3F81033834212D0D0F820
:101FA4002880B8F1000FDFD0D8F814308342DBD199
:101FB400FFF7EBFED8F818709FB107F11C00FEF78D
:101FC400E5F9D1E728600020DBE73846FFF7DDFEBE
:101FD4006FF01300D5E72F602046D2E76FF00100C1
:101FE400CFE76FF00100CCE7C41100202DE9F043E6
:101FF40087B006460F4690460393DDF838900022DA
:10200400C9F800207BB133782F2B33D10398FFF725
:10201400BCFE264B1B6AD3F81003039001361C3018
:10202400FEF7B4F926E0214B1B6AD3F8140303909E
:102034001C30FEF7ABF9E6E7013514F8013B0BB1B0
:102044002F2BF9D1EBB103981C30FEF79FF905ABA8
:102054002A4631460398FFF77BFF054668B903AB70
:10206400009300231A4605990398FFF74DFF054690
:1020740098B9264634460025DFE70398FFF785FE26
:102084000BE00398C36A63B19B6853B1C8F800605E
:102094003D60039BC9F800300025284607B0BDE821
:1020A400F083FFF772FE6FF01305F6E7C41100200A
:1020B40070B588B0039116461C46002323600B4676
:1020C40003A9009107AA06A9FFF790FF054610B1DE
:1020D400284608B070BD03981C30FEF757F905ABCD
:1020E400069A07990398FFF733FF054658B976B166
:1020F40005AB009300231A4605990398FFF704FFE4
:1021040040B10546E4E70398FFF73FFEE0E7039894
:10211400FFF73BFE059B2360DAE708B50B46012277
:102124000021FFF7C5FF08BDF0B587B00D4617467F
:102134001E4604A900910C9B02AA03A9FFF756FFAF
:10214400041E06DB039B6BB915F0010404D1049B48
:102154003360204607B0F0BD0498FFF716FE6FF019
:102164001404F6E704981C30FEF710F915F0400F3C
:102174002CD005AB039A02990498FFF7E9FE041EDC
:1021840008DB15F0800F29D00598FFF7FEFD6FF0EE
:10219400100423E00498C36A002B36D05B6813B99B
:1021A4006FF00C041AE01C30FEF7F0F80498C36AD0
:1021B4005C6805AB009338233A460299A04704466D
:1021C400059B33600498FFF7E0FDC2E705AB039A73
:1021D40002990498FFF7BCFE041E10DB15F4007F7F
:1021E4000AD00598C36A1BB15B6B0BB100219847F9
:1021F400059B012283F82420059B3360A9E70498FA
:10220400FFF7C3FD6FF00104A3E76FF00C04E5E7EB
:10221400F0B587B00E4605AA0092002304AA03A9CC
:10222400FFF7E4FE00281FDB0598C26ABAB1936980
:10223400ABB11C30FEF7AAF8059CE36A9F69049DC4
:10224400284603F009F80246334629462046B84793
:1022540004460598FFF799FD204607B0F0BDFFF747
:1022640094FD6FF02504F7E76FF00104F4E770B50F
:1022740086B005AB0093002304AA03A9FFF7B6FEBA
:10228400002828DB05984388012B19D1C36AE3B1E0
:10229400DB69D3B11C30FEF779F8059CE36ADE698B
:1022A400049D284602F0D8FF024629462046B0473E
:1022B400041E0ADA0598FFF768FD204606B070BDD3
:1022C400FFF763FD6FF00104F7E70598FFF75DFD85
:1022D4006FF02504F1E76FF00104EEE7F0B587B085
:1022E40006460D4605AB0093002304AA03A928461D
:1022F400FFF77CFE041E1BDB284602F0ADFFD8B1BD
:10230400059CA36A9A68B36A9B689A421DD1E36AE2
:1023140023B3DD6815B3049F384602F09DFF0346DE
:102324003A4621463046A8470446204607B0F0BD49
:102334003046FFF72AFDF8E73046FFF726FD0598FB
:10234400FFF723FD4FF0FF34EFE72046FFF71DFDB5
:102354003046FFF71AFD6FF01104E6E72046FFF759
:1023640014FD3046FFF711FD4FF0FF34DDE710B5E3
:1023740082B00C4601A9FFF7D0FE002803DB2146FA
:102384000198FFF7ABFF02B010BD70B586B005AB86
:102394000093002303AA04A9FFF728FE002826DBE4
:1023A40005984388012B18D1C36ADBB11B69CBB1F3
:1023B4001C30FDF7EBFF059CE36A1E69039D28466C
:1023C40002F04AFF024629462046B04704460598D3
:1023D400FFF7DBFC204606B070BDFFF7D6FC6FF0BC
:1023E4000104F7E7FFF7D1FC6FF02504F2E76FF083
:1023F4000104EFE76FF0250070472DE9F04186B046
:102404000C46174605AB0093002304AA03A9FFF763
:10241400EDFD00281DDB0598C36AABB11B6A9BB1B7
:102424001C30FDF7B3FF059DEB6AD3F82080049EB2
:10243400304602F011FF02460097234631462846F3
:10244400C04706B0BDE8F081FFF79FFC6FF02500A0
:10245400F7E76FF00100F4E76FF02500704710B55F
:1024640082B00C4601A9FFF758FE002812DB019A3E
:10247400906A036A1B6A3BB1214698470198FFF7AB
:1024840084FC002002B010BD1046FFF77EFC6FF004
:102494002500F7E74FF0FF30F4E70000072817D8CE
:1024A40008B5114B1B6A00EB400203EBC20292F821
:1024B400642282B100EB400003EBC000D0F85C3230
:1024C40063B1986A036A1B6A5BB19847002008BD30
:1024D4006FF0080070476FF00800F8E76FF0010034
:1024E400F5E76FF02500F2E7C41100206FF0250036
:1024F40070476FF02500704710B586B005AB0093A8
:10250400002304AA03A9FFF771FD002817DB05982F
:102514004388012B0ED10B4C236AD3F81403FFF725
:1025240034FC236A0598C3F81403FFF72EFC00203B
:1025340006B010BDFFF729FC6FF00100F8E76FF05B
:102544000100F5E7C411002007281DD8144B1A6AAE
:1025540000EB400302EBC30393F86432BBB110B544
:1025640000EB400002EBC000D0F85C4294B16388F9
:10257400012B12D1D2F81403FFF707FC084B1B6A96
:10258400C3F81443002010BD6FF0080070476FF0CB
:10259400080070476FF00100F5E76FF00100F2E703
:1025A400C411002010B586B005AB0093002304AA23
:1025B40003A9FFF71BFD002817DB05984388012BAF
:1025C4000ED10B4C236AD3F81003FFF7DEFB236A0A
:1025D4000598C3F81003FFF7D8FB002006B010BD20
:1025E400FFF7D3FB6FF00100F8E76FF00100F5E7A8
:1025F400C4110020072819D8114B1B6A00EB4002B4
:1026040003EBC20292F864229AB100EB400003EBA0
:10261400C000D0F85C327BB15A8812041A601143AE
:102624001960012283F82420002070476FF008000D
:1026340070476FF0080070476FF00100704700BFEB
:10264400C411002010B582B00C4601A9FFF765FD46
:10265400002810DB019A53881B041360019B19683E
:10266400214319600198012380F82430FFF78DFB82
:10267400002002B010BD6FF00100FAE76FF02500F2
:10268400704700002DE9F04184B00646084617461D
:102694001A460024072C0BD804EB440C06EBCC0C94
:1026A4009CF814500DB10134F4E701238CF8143074
:1026B400072C22D80023009303AB3946FFF734FDDF
:1026C400002820DB04EB44054FEAC50806EBC505EA
:1026D4002F812B6903B32B6933B1DB6923B12946FD
:1026E4000398984700281EDB039BEB601B6806F8E1
:1026F4000830204604B0BDE8F0810F4B18221A6060
:102704004FF0FF30F6E704EB440406EBC406002365
:1027140033754FF0FF30EDE7039BDB6A1B68002B3A
:10272400D9D02B61D7E700232B750398FFF72DFB36
:102734004FF0FF30DEE700BFF811002010B513465C
:10274400044A146A0A46014604F51470FFF79AFF16
:1027540010BD00BFC411002008B50A464121FFF78F
:10276400EDFF08BD38B5164B1A6A00EB400302EBC7
:10277400C30393F864320BB3044600EB400302EB4B
:10278400C303D3F85C52D3F860324BB11B6A3BB13C
:1027940000EB4001C90001F5147111442846984723
:1027A400074B1B6A04EB440203EBC202002182F8CC
:1027B4006412C2F85C122846FFF7E7FA38BD00BF7E
:1027C400C4110020072821D810B584468E4613462C
:1027D400164A146A00EB400204EBC20292F8642227
:1027E400BAB100EB4000C00000F5147021180CEBE6
:1027F4004C0204EBC202D2F85C0268B1D2F8602247
:102804006AB1D46874B17246A04710BD6FF0080075
:1028140070474FF0FF30F8E76FF00800F5E76FF00E
:102824000100F2E76FF00100EFE700BFC4110020E0
:10283400072849D870B504460D4616462B4B1B6A2B
:1028440000EB400203EBC20292F86422002A3ED05D
:1028540000EB400203EBC202D2F85422002A39D022
:1028640000EB400203EBC202D2F85C02A8B304EB13
:10287400440203EBC202D2F8602242B1126A32B1BE
:1028840004EB4401C90001F5147119449047012E69
:102894000CD9022E16D1154B1B6A04EB440203EB30
:1028A400C203D3F85C32DBB15B681D44002D1ADB34
:1028B4000E4B186A04EB440400EBC404C4F85452ED
:1028C400284670BD0025F3E76FF0080070474FF00D
:1028D400FF30F6E74FF0FF30F3E74FF0FF30F0E75B
:1028E4004FF0FF30EDE74FF0FF30EAE7C41100206E
:1028F400072821DC10B584468E461346164A146A0E
:1029040000EB400204EBC20292F86422BAB100EB7D
:102914004000C00000F5147021180CEB4C0204EBCD
:10292400C202D2F85C0268B1D2F860226AB154687B
:1029340074B17246A04710BD6FF0080070474FF0A5
:10294400FF30F8E76FF00800F5E76FF01500F2E7E5
:102954006FF01500EFE700BFC411002007283CDC2E
:102964002DE9F84304460E461746234B1D6A00EB37
:10297400400305EBC30393F864328BB300EB4000D0
:10298400C00000F5147005EB000804EB440305EBEC
:10299400C303D3F85C2232B304EB440305EBC30353
:1029A400D3F8603213B39B681BB39168134801F0EA
:1029B400ABFF04EB440305EBC303D3F86032D3F855
:1029C400089004EB440405EBC4043B4632464146FC
:1029D400D4F85C02C847BDE8F8836FF0080070477C
:1029E4004FF0FF30F7E76FF00800F4E76FF01500E1
:1029F400F1E76FF01500EEE7C4110020B4590008A8
:102A04002DE9F04385B004460D469046D0F8249055
:102A14004368DE00B1FBF6F6D9F82010EF08B7FBE7
:102A2400F3F20120009003FB12730DF10F02314405
:102A3400A068FEF7C1FD00282BDBB8F1000F1ED102
:102A440005F007050121A9409DF80F5065EA01052D
:102A54008DF80F50D9F820106368B7FBF3F201200A
:102A6400009003FB12730DF10F023144A068FEF7CE
:102A740039FD002810DB002005B0BDE8F08305F027
:102A840007050121A9409DF80F500D408DF80F5006
:102A9400E0E74FF0FF30EFE74FF0FF30ECE70000E6
:102AA4002DE9F84306468946D0F8248000273C46A1
:102AB400D8F82430BB424BD9D8F82010012239442D
:102AC400B068FEF7DBFD054683685A781978244818
:102AD40001F01AFF00222BE0D8F80030A34214D9E9
:102AE40004F007020123934021EA03018CF800104B
:102AF400D8F804307BBBC9F800400123337728465B
:102B0400FEF70AFE0020BDE8F8832846FEF704FE1F
:102B14004FF0FF30F7E70023072B08D841FA03F002
:102B240010F0010FD8D101340133DBB2F4E70132E4
:102B34007368934207D9AB6803EB020C995C0029D4
:102B4400E9D10834F3E72846FEF7E6FD0137AFE79D
:102B54004FF0FF30D7E7013BC8F80430CBE700BFA4
:102B6400C45900082DE9F04184B005460C46D0F85C
:102B740024804368DE00B1FBF6F6D8F82010E7089D
:102B8400B7FBF3F20120009003FB12730DF10F0267
:102B94003144A868FEF710FD002824DB04F0070484
:102BA400012202FA04F49DF80F301C438DF80F4003
:102BB400D8F820106B68B7FBF3F0009203FB107396
:102BC4000DF10F023144A868FEF78CFC00280DDBE0
:102BD400D8F804300133C8F8043001232B770020DF
:102BE40004B0BDE8F0814FF0FF30F9E74FF0FF305B
:102BF400F6E700002DE9F04105460F46466A002439
:102C0400A046F369434542D9B16901224144A86809
:102C1400FEF734FD00222AE01C44F368A34215D9D0
:102C240004F007020123934021EA03018CF8001009
:102C340033697BBB3C6001232B77FEF76DFD214696
:102C4400164801F061FE0020BDE8F081FEF764FD46
:102C54004FF0FF30F8E70023072B07D841FA03FEB3
:102C64001EF0010FD8D10133DBB2F5E701326B68F6
:102C7400934207D9836803EB020C995C0029EAD1DB
:102C84000834F3E7FEF748FD08F10108B9E74FF00F
:102C9400FF30D9E7013B3361CCE700BFD4590008CA
:102CA4002DE9F04184B005460C46D0F824804368F1
:102CB400DE00B1FBF6F6D8F81810E708B7FBF3F21C
:102CC4000120009003FB12730DF10F023144A86838
:102CD400FEF772FC002824DB04F00704012202FA48
:102CE40004F49DF80F301C438DF80F40D8F81810E9
:102CF4006B68B7FBF3F0009203FB10730DF10F0246
:102D04003144A868FEF7EEFB00280DDBD8F810303C
:102D14000133C8F8103001232B77002004B0BDE83C
:102D2400F0814FF0FF30F9E74FF0FF30F6E730B5B0
:102D340085B0436A9D694468B1FBF4FC04FB1C1430
:102D440001230093E3080DF10F0205EB0C018068E9
:102D5400FEF732FC00280ADB04F007019DF80F405F
:102D640044FA01F1012905D0012005B030BD4FF02E
:102D7400FF30FAE70020F8E743688B4233D370B59D
:102D840084B01446856A466B01316A68B1FBF2F07F
:102D940002FB101303B1012303440C2B19D992082D
:102DA40002EB420149000C3199421FD30D3BB3FBA6
:102DB400F2F102FB11330C3156F82110A8680422F9
:102DC40000929B0003AAFEF7F7FB48B9039B23601C
:102DD40004E0013B56F823302360002004B070BDAA
:102DE4004FF0FF30FAE74FF0FF3070474FF0FF30FD
:102DF400F4E76FF01400704770B5A0B005460C46B8
:102E0400164680236A462146284600F08FFF002894
:102E140013DD1F9B002BF4D08122694606F10A00C2
:102E240002F044FA684602F017FA30811E9B3360C0
:102E34006368803B7360606800E0002020B070BD70
:102E440010B50446542002F057FD606330B1044BC2
:102E5400E3625422002102F011FA204610BD00BFA3
:102E64001C010020C36853B910B504461C30FDF79B
:102E7400B6FA38B9606B02F04EFD002010BD4FF079
:102E8400FF3070474FF0FF30F8E70000F0B5A3B013
:102E94000446866A776A856829463046FFF747FF05
:102EA400012841D1002102917C2203A802F0E6F915
:102EB400B38905FB03F17268B1FBF2F1BF6AB2FB9F
:102EC400F3F2B5FBF2F002FB1055B068009305FB7A
:102ED40003F302AA3944FEF76FFB002800DAFEE789
:102EE400542202A9606B02F0ADF9179B2360189A73
:102EF4006260199AA2601A9AE2601B0C032B05D82F
:102F0400DFE803F002090C0F094BE362002084F8A8
:102F1400240023B0F0BD074BE362F7E7064BE362FE
:102F2400F4E7064BE362F1E74FF0FF30F1E700BF4F
:102F3400800100201C0100207400002038000020C3
:102F4400F0B5A3B00446856A6F6A86686B68AA897F
:102F5400B3FBF2F3B6FBF3F6002102917C2203A843
:102F640002F08CF95422616B02A802F06BF9236819
:102F7400179363681893A2681992E3681A932369F4
:102F84001B93B96AAB896868B0FBF3F0B2FBF0FC41
:102F940000FB1C22A868009302FB03F302AA31443D
:102FA400FEF7A0FA002802DB002384F8243023B0C3
:102FB400F0BD38B50446012211468068FEF75EFB79
:102FC400054628222146806802F03CF9A86834228C
:102FD400616A283002F036F9002323772846FEF789
:102FE4009BFB38BD70B582B0054601A9806AFFF726
:102FF40001FE002826DBFEF753FE0446019B836096
:103004000121C16000264660AB6A836280F82460B7
:10301400C6621C30FDF7DBF9314604F12000FDF7F0
:10302400D6F92046FFF70CFF064610B1204602B041
:1030340070BD0199A86AFFF733FE2046FEF7A5FE8E
:103044003446F3E70024F1E7F0B583B005465C208D
:1030540002F052FC04460028F9D0282300930023F0
:1030640002460121A868FEF7A7FA00282EDB226891
:103074001E4B9A422FD104F12807342300932823AE
:103084003A460121A868FEF797FA002828DB23684E
:103094002B6063686B60A368AB60A389AB81144B3E
:1030A4002B6200262E612E7734223946686A02F09C
:1030B400C9F831462846FEF79AFE68610D4BC36293
:1030C400204602F028FC284603B0F0BD204602F05A
:1030D40022FC0020F8E7204602F01DFC0020F3E764
:1030E400204602F018FC0020EEE700BF4433221112
:1030F400E40100201C01002038B50446FEF7B8FEA8
:103104002046FFF71DFF002584F824502046FEF7D3
:10311400B9FE284638BD00002DE9F04383B00C46C3
:1031240015469846DDF828900021C9F80010074696
:10313400E8B12CB36388042B28D10023196861B348
:103144001A46A06AFEF79AFA06462046FEF71DFEC6
:10315400B06800974B4642462946FEF7E5FF044611
:103164003046FEF7D9FA204603B0BDE8F0830C4B95
:103174001B6AD3F8107307F11C00FDF707F9D8E7B1
:103184003846FEF702FE6FF00104ECE73846FEF71E
:10319400FCFDC9F800400024E5E74FF0FF34E2E706
:1031A400C4110020F8B504464388042B12D10D46FF
:1031B4001646836A5B68934200D21E46636B002204
:1031C40019682046FEF75AFA07462046FEF7DDFD49
:1031D400002409E0FEF7D9FD6FF015040DE0013479
:1031E400294601F8013B0D46A64203DDBB681B5D81
:1031F400002BF4D13846FEF78FFA2046F8BD10B400
:10320400002300E00133CC5C54B19A4206D910F893
:1032140003C0A445F6D0ACEB040002E0002000E0BB
:10322400002010BC70472DE9F04FABB00546059364
:103234004088012840F0B3808B461746D5F828A073
:103244006B6B04936B684FEAD318DAF80410B3FB82
:10325400F1F201FB123303B10346D31803930023A5
:1032640002931C46029B039A934280F09580029B32
:103274000B2B20D9AB6A5B689B0803EB430252001B
:103284000C3202998A4240F28D80A1F10C02B2FB09
:10329400F3F103FB11230C31049A52F82110DAF8EC
:1032A4000800042200929B0009AAFEF785F9002871
:1032B4006FDB002643E00022049B029953F821109F
:1032C400DAF80800FEF7DAF906900026CDF81CA01B
:1032D400824608E00698FEF71FFA6FF0010052E0FC
:1032E40001340136B6B2B146AB6A5B68B6EBD31FA4
:1032F40019D24445EED2DAF8083003EBC9193A463C
:1033040059464846FFF77BFF0028E9D1D9F87C30BD
:10331400012BE5D1D9F87830059A13600698FEF7A9
:10332400FBF920462FE0DDF81CA00698FEF7F4F91F
:10333400029B0133029395E701340136B6B233465A
:10334400AA6A5268B6EBD21FF2D2444519D2DAF80F
:10335400080080220092DB010AAA0999FEF72CF9E1
:10336400002813DB3A4659460AA8FFF748FF00280D
:10337400E2D1299B012BDFD1289B059A13602046BB
:1033840001E06FF001002BB0BDE8F08F6FF0010099
:10339400F9E76FF00100F6E76FF00100F3E76FF073
:1033A4001300F0E76FF01A00EDE770B582B0054640
:1033B4001E4601ABFFF737FF041E0EDB0199A86A16
:1033C400FEF715FD044660B12846FEF7DEFC76B133
:1033D40034600024204602B070BD2846FEF7D5FCB8
:1033E400F8E72846FEF7D1FC6FF00104F2E7002469
:1033F400F0E700004388012B40F0BE802DE9F04F38
:10340400A5B0044688469146876A01E0FEF784F930
:103414006568EE097B68DB09B6FBF3F203FB126314
:1034240053BB039303A9204600F076FD0028C0F2A5
:103434009D80414604A801F017FFD9F80830229373
:10344400012223920399B868FEF718F906466368C7
:10345400AB42DBD1039BBB2249494A4801F058FAED
:10346400802204A9B06801F0EDFE636880336360D4
:103474003046FEF751F972E00023039303AA29466C
:103484002046FFF779FC002873DB01220399B86812
:10349400FEF7F4F88246626829463B4801F034FAA4
:1034A4006168A94218D004AA2046FFF765FC0028E9
:1034B4000ADB039A049B9A420CD0344801F024FAA4
:1034C4005046FEF729F9A3E75046FEF725F94FF0D9
:1034D400FF304BE06668F60941462D4801F014FAC6
:1034E4007B68DB09B6FBF3FB03FB1B6B002600E0E8
:1034F40001365E4513D2DAF8087007EBC61780224E
:103504004146384601F0C2FE0028F1D1FB6F012B81
:10351400EED15046FEF700F96FF0100026E0DAF81D
:1035240008604FEACB1706EBCB164146304601F054
:103534009BFED9F80830B3670123F367154B1B6A68
:10354400196B6368019300953B46039A124801F096
:10355400DBF96368803363605046FEF7DDF80123CE
:1035640084F82430E3680133E360002025B0BDE82B
:10357400F08F4FF0FF30F9E76FF01300704700BF92
:10358400C45A0008E8590008FC590008185A0008F1
:10359400285A0008C4110020385A0008F8B5064615
:1035A4000F461D46FFF71EFDA8B10446ADB20560E7
:1035B400012380F82430104BC3620246394630465A
:1035C400FFF718FF051E0CDB3046FEF7DEFB069BFB
:1035D4001C602846F8BD3046FEF7D7FB6FF00B059C
:1035E400F7E7E368013BE3603046FEF7CEFB204695
:1035F400FEF7CBFBEDE700BF80010020F0B583B000
:10360400002853D00D461C46064601ABFFF70BFEBF
:10361400002820DA3046FFF7E5FC074608B30460CB
:103624000023C362240C22D1224BC362022C2DD06E
:10363400012387F824303A4629463046FFF7DAFE5C
:10364400044630BB3046FEF7A0FB3846FEF79DFB30
:10365400204603B0F0BD3046FEF797FB6FF0100430
:10366400F6E73046FEF791FB6FF01B04F0E7012C00
:1036740006D0022C07D0032CD8D10F4BC362D5E758
:103684000E4BC362D2E70E4BC362CFE7089B3B618C
:10369400CEE7FB68013BFB60012387F82430384602
:1036A400FEF773FB3046FEF770FBD1E76FF00104C1
:1036B400CEE700BF80010020380000201C0100205C
:1036C400740000202DE9F043A5B0054600286AD017
:1036D4000E46876A002F66D022ABFFF7A4FD0028B0
:1036E40067DA2846FFF77EFC0446002867D03E4B85
:1036F400C3624FF4807343604FF48033036023A9A3
:103704003846FFF7CDF900285FDB384B1B6A196B8D
:10371400239B009340F26F13354A364801F0F4F8C6
:10372400354902A801F0A0FD4FF00108CDF88480CE
:10373400A3682093B8684FF08009CDF80090002367
:1037440002AA2399FDF7CEFE2C4902A801F08CFDB4
:10375400CDF88480AB682093B868CDF800904B46D0
:1037640002AA2399FDF7BEFE636B239A1A6084F8BC
:1037740024800223E360224631462846FFF73AFEBE
:10378400061E28DBEB680133EB60012385F8243047
:103794002846FEF7FAFA2046FEF7F7FA00263046E6
:1037A40025B0BDE8F0832846FEF7EFFA6FF0150662
:1037B400F5E72846FEF7E9FA6FF01006EFE728462A
:1037C400FEF7E3FA6FF01B06E9E72846FEF7DDFA99
:1037D4006FF01B06E3E70023E3602846FEF7D5FA03
:1037E4002046FEF7D2FADAE71C010020C4110020BB
:1037F400B85A00086C5A00088C5A0008905A0008FD
:103804004288012A7FD14368002B7ED02DE9F047FE
:10381400A4B0866AD0F83490DF097168B3FBF1F87C
:1038240001FB183303B11346984400252C4651E09C
:10383400002024B0BDE8F0874FF0000A53467268B8
:10384400BAEBD21F45D2BC42F2D259F82510B06867
:1038540080220092DB0104AAFDF7AEFE0028E7DB1C
:10386400239B012BE4D001340AF1010A1FFA8AFADE
:10387400E4E7A5F10C02B2FBF3F103FB11230C31D5
:1038840059F82110B068042200929B0003AAFDF7A6
:1038940093FE00281BDB4FF0000A53467268BAEB14
:1038A400D21F16D2BC4212D2B06880220092DB0131
:1038B40004AA0399FDF780FE002808DB239B012B53
:1038C40005D001340AF1010A1FFA8AFAE5E700205B
:1038D400AFE70135454514D20B2DADD973689B086C
:1038E40003EB4302520002F10C01A942C1D803FBCD
:1038F40003F303EB430313440C33AB42E9D8002036
:1039040097E7012095E7002070470120704743881E
:10391400012B00F0BB802DE9F04FA7B08846866AE2
:10392400D0F834A043684FEAD3197168B3FBF1F2BD
:1039340001FB123303B10123D318039300273D463F
:1039440088E04FF0FF3030E001350134A4B2234663
:103954007268B4EBD21F7CD24D4524D24FEAC31B0C
:103964005AF82710B068802300935B4606AAFDF737
:1039740023FE00281CDBD8F80830249A9A42E3D1AD
:10398400259B012BE0D1002325930C375AF82710EF
:10399400B068802300935B4606AAFDF7A3FD0028C8
:1039A400CFDB002001E04FF0FF3027B0BDE8F08FFF
:1039B4004FF0FF30F9E70024C9E7A7F10C02B2FB8E
:1039C400F3F103FB11230C315AF82110B0680422DF
:1039D40000929B0005AAFDF7EFFD002836DB0024CA
:1039E40005E04FF0FF30E0E701350134A4B223468F
:1039F4007268B4EBD21F2CD24D4521D24FEAC31BBF
:103A0400B068802300935B4606AA0599FDF7D4FDB0
:103A1400002818DBD8F80830249A9A42E4D1259B70
:103A2400012BE1D100232593B068802300935B46EA
:103A340006AA0599FDF756FD0028D2DB0020B4E75D
:103A44004FF0FF30B1E74FF0FF30AEE74FF0FF30FB
:103A5400ABE70137039B9F4215D20B2FABD9736899
:103A64009B0803EB4302520002F10C01B942A4D8B3
:103A740003FB03F303EB430313440C33BB42E8D8C7
:103A84004FF0FF3091E74FF0FF308EE74FF0FF30FB
:103A9400704770B582B0044601ABFFF7C4FB051E46
:103AA40026DB0199A06AFEF7A2F9064648B3836AA9
:103AB4009A68A36A9B689A421AD14388012B23D13E
:103AC4002046FFF79DFE10B306F11C00FCF787FCAF
:103AD40001281FD80025F560012286F82420E36818
:103AE400013BE36084F8242031462046FFF70FFFB2
:103AF4002046FEF74AF93046FEF747F9284602B059
:103B040070BD4FF0FF35F3E76FF00105F0E76FF09C
:103B14002605EDE76FF00F05EAE700002DE9F04117
:103B240082B006468846174601AB3A4641463046BF
:103B3400FFF779FB041E25DB0199B06AFEF757F9FC
:103B4400054600B34388012B27D08268019B9A4223
:103B540004D0FEF71AF900F049FFE5E7C3684BB15A
:103B6400012286F82420EB68013BEB6085F82420D1
:103B7400002408E0816A8968094800F0C9FE01232D
:103B8400EB60EDE700252846FEF7FFF83046FEF728
:103B9400FCF8204602B0BDE8F0814FF0FF34F2E7B4
:103BA400945A00082DE9F04383B0064688469146AE
:103BB4001C46FFF717FAA8B10746394B0360394B87
:103BC400C3626946B06AFEF76BFF002810DB7B6BAB
:103BD40000991960B36A01229868FDF74FFD4FF010
:103BE400000C14E03046FEF7D0F86FF01B0437E009
:103BF400B968B06AFFF754F83846FEF7C6F86FF0B4
:103C04001B042DE081680CF1010C4A551C46B36A73
:103C14005B686546634504D9234613F8012B002AE3
:103C2400F0D1836800225A55FDF776FD7D600123AB
:103C340087F8243001AB4A4641463046FFF7F3FA91
:103C4400002811DA3A4641463046FFF7D3FB041EFA
:103C540019DB3046FEF799F83846FEF796F800244B
:103C6400204603B0BDE8F083FB68013BFB60012301
:103C740087F824303846FEF788F83046FEF785F892
:103C84006FF01004ECE7FB68013BFB60012387F84D
:103C940024303846FEF779F83046FEF776F8DFE749
:103CA400FF0104000C02002070B582B004460D46EA
:103CB40016461A464388012B1DD001AB31462846CF
:103CC400FFF7B1FA00281EDA224631462846FFF7EC
:103CD40091FB061E20DB2846FEF757F8E368013304
:103CE400E360012384F824302046FEF74EF80026D2
:103CF400304602B070BDFEF748F82846FEF745F896
:103D04004FF0FF36F4E72846FEF73FF82046FEF76B
:103D14003CF86FF01006EBE72846FEF736F820462D
:103D2400FEF733F8E4E76FF0250070472DE9F04F14
:103D34008BB0039004929B46002B00F09D808A4632
:103D44004968059143688B4240F29880D0F82890E6
:103D5400426B0792D9F80420B1FBF2F0019002FB08
:103D640010110091511A0691B3FBF2F102FB1133C9
:103D740003B10123CB180293019D00261FE0069A8C
:103D8400944228BF144636E00022079B53F82510BE
:103D9400D9F80800FDF772FC074681682246009BAB
:103DA4001944049B981901F04DFA2644DAF80430BA
:103DB4002344CAF804303846FDF7AEFC0135029BB3
:103DC4009D4255D2B34553D9059B9A19039B5B6811
:103DD4009A424DD2ABEB06049A1AD9F804309C42AD
:103DE40028BF1C46944228BF1446019A9542C6D067
:103DF4000693002200920B2DC6D99B0803EB4302C5
:103E040052000C32AA423CD9A5F10C08B8FBF3F2DB
:103E140003FB128802F10C030022079951F82310C6
:103E2400D9F80800FDF72AFC07468168042201EB53
:103E3400880109A801F006FA3846FDF76DFC002256
:103E44000999D9F80800FDF719FC0746816822464C
:103E5400009B1944049B981901F0F4F92644DAF8FC
:103E640004302344CAF804303846FDF755FCA5E76E
:103E740030460BB0BDE8F08F1846FAE74FF0FF303C
:103E8400F7E74FF0FF30F4E700283FD0F0B583B0F8
:103E94001446866A476B43688B423AD37368B1FB16
:103EA400F3F003FB101101B101210144481E0B285A
:103EB4000AD99B0803EB430252000C32824208D811
:103EC4004FF0FF3003B0F0BD57F8203023600020DE
:103ED400F8E70D39B1FBF3F203FB121502F10C0301
:103EE400002257F82310B068FDF7C8FB0646816826
:103EF400042201EB85010DEB020001F0A3F9304629
:103F0400FDF70AFC019B23600020DBE74FF0FF3044
:103F140070474FF0FF30D5E72DE9F04782B00546F2
:103F24000E46876AD0F8348044684CB17B68B4FB91
:103F3400F3F203FB124404B1012414440B2C0FD8F4
:103F440031463846FEF7ACFD002869DB336848F893
:103F54002430012385F82430002002B0BDE8F08726
:103F64009B0803EB4302520002F10C01A14246D923
:103F74000C3CB4FBF3F903FB194409F10C0358F8A6
:103F84002330DBB969463846FEF78AFD002833DB67
:103F940001220099B868FDF771FB82467A68002116
:103FA400806801F06BF95046FDF7B6FB09F10C038C
:103FB400009A48F82320012385F8243001A93846C3
:103FC400FEF76EFD002817DB09F10C09012258F8F1
:103FD4002910B868FDF752FB0546806804220DEBF2
:103FE400020100EB840001F02DF92846FDF794FB53
:103FF400019B33600020B0E74FF0FF30ADE703FBD7
:1040040003F303EB430313440C33A34202D24FF0F4
:10401400FF30A2E7044800F077FC4FF0FF309CE744
:104024004FF0FF3099E700BFD85A00082DE9F04F50
:1040340087B00391019299464388002B40F0A780F2
:1040440007461D04B9F1000F00F0A4800B8913F496
:10405400806F01D043684B60039B5C687B68A3421C
:10406400C0F09A80D7F828A0DAF80420B4FBF2F361
:1040740002FB134101B101210B4403FB02F3029340
:104084004FF0000B63E005AA21463846FFF7FCFE1B
:1040940000282EDBDAF80460B4FBF6F306FB1343C6
:1040A400F61A4E4528BF4E4601220599DAF8080053
:1040B400FDF7E4FA80468068DAF80420B4FBF2F3F2
:1040C40002FB1343324601992944184401F0BAF81B
:1040D400354434447B68A34205D27C60039B5C6016
:1040E400012387F824304046FDF716FB4FF0010BFF
:1040F4002DE04FF0FF3047E07B68A34232D805A99A
:104104003846FFF709FF002836DB01220599DAF863
:104114000800FDF7B3FA8046A9EB0503DAF804605A
:104124009E4228BF1E463246019B5919806801F001
:1041340089F8354434447B68A34205D27C60039BF0
:104144005C60012387F824304046FDF7E5FAA94571
:1041540015D9BBF1000FCFD1029B9C4293D34FF0F2
:10416400010BF4E705AA21463846FFF78DFE002827
:10417400CBDA4FF0FF3007E06FF01B0004E0796802
:10418400074800F0C1FB284607B0BDE8F08F6FF088
:104194001400F9E74846F7E74FF0FF30F4E700BFB3
:1041A400E85A000810B50446342001F0A5FB60620B
:1041B40000B1204610BD00002DE9F047A4B08046B0
:1041C4000E46282001F098FB0446342001F094FBAD
:1041D40005466062824B2362C4F808808023A38171
:1041E400C3604046FDF74CFB60604046FDF764FB4E
:1041F400286001236B61002E37DDEE60EA68D30886
:10420400A968B3FBF1FA02F007029B1800D001235E
:10421400B3FBF1F201FB1233D31800D001239A440B
:10422400C5F81CA06A690132AA612968CB086068D4
:10423400B3FBF0F901F007015B1800D00123B3FBD5
:10424400F0F100FB1133CB1800D001239944C5F8D9
:10425400249052442A62606801F04EFB074662686B
:10426400FF2101F00BF8002614E04046FDF724FB83
:1042740000EB40005B4BA3FB0023DB08EB60BDE7D6
:10428400A969A0686368009300233A463144FDF7A6
:1042940029F901365645F3D3002609E0296AA068B6
:1042A4006368009300233A463144FDF71BF9013655
:1042B4004E45F3D3EB68A28902FB03F36168B3FBB9
:1042C400F1F201FB123303B1012313442A6A696A30
:1042D4000A44AA62EB621A442A63434B23602046D1
:1042E400FEF767FE002605E0012231462046FEF770
:1042F40087FB01362B6BB342F6D8C4F8088023A998
:104304002046FEF7CDFB002853DB22A92046FEF70A
:1043140071FC002857DB382001F0EEFA054600282E
:104324003FD0002343634FF4807343604FF48033E2
:1043340003608462229B83600223C36001211C30DA
:10434400FCF745F82846FEF77BFD20B36B6B239AF8
:104354001A60264902A800F087FF01232193002355
:104364002093A0688022009202AA2399FDF7BAF84C
:10437400002810DB1E4902A800F076FF01232193D8
:1043840000232093A0688023009302AA2399FDF7B9
:10439400A9F800281CDA2846FEF764FD284601F037
:1043A400BAFA23992046FEF7DDFB22992046FEF750
:1043B400D9FB606A01F0AFFA204601F0ACFA0020A4
:1043C40024B0BDE8F08723992046FEF7CBFBF0E745
:1043D4002846FEF7B5FD284601F09DFAE9E700BF3F
:1043E400E4010020CDCCCCCC443322118C5A0008FB
:1043F400905A00082DE9F0410646438833B11A0467
:10440400B2F5803F02D0B2F5802F3BD1B76A756B0D
:10441400002400E001340B2C08D855F8241000299E
:10442400F8D0B36A9868FDF701F8F3E7002409E0CF
:104434004046FDF771F90020BDE8F0814046FDF7E4
:104444006BF90134052C18D804F10C0355F823102A
:104454000029F6D00022B868FDF710F980467B6881
:10446400002BEBD0D8F8083019590029E0D0B36AF2
:104474009868FCF7DBFF0434F1E73046FEF73CFEB6
:104484000020D9E76FF01500D6E74388002B5BD1F5
:104494002DE9F04782B0856A476B6E68B1FBF6F48C
:1044A40006FB141303B101231C444368B3FBF6F267
:1044B40006FB123606B1012616444160013431E090
:1044C4006B689B0803EB43035B000C33A34238D9AE
:1044D400A4F10C094FEAD91309F07F090C33012226
:1044E40057F82310A868FDF7C9F8804681684FEA99
:1044F400890A042201EB89010DEB020000F0A2FEFF
:1045040001992846FEF72EFB00230193D8F80800F2
:1045140004220DEB0201504400F094FE4046FDF7E6
:10452400FBF80134B4420CD20B2CC9D857F8241030
:104534000029F6D02846FEF715FB002347F824305F
:10454400EFE702B0BDE8F08770474FF6FF730B80CA
:1045540082684A6002680A81C2684A818B81CB8181
:1045640003690B8243684B6100230B628B620B630C
:10457400836A5B688B61704710B582B00C4601A9F1
:10458400FDF7CBFD002807DB21460198FFF7DDFF8F
:104594000198FDF7FAFB002002B010BD0023052BA3
:1045A4000DDC084AD25C0AB10133F8E7054A01215F
:1045B400D15403EB8303DA0003481044704700200E
:1045C400704700BFB80F0020C80E0020002300E091
:1045D4000133052B0EDC084AD25C012AF8D103EB27
:1045E4008302064901EBC2028242F1D1024A002150
:1045F400D1547047704700BFB80F0020C80E002088
:10460400002300E00133052B10DC094AD25C012AA7
:10461400F8D103EB8302074901EBC202926882429C
:10462400F0D103EB830301EBC30070470020704714
:10463400B80F0020C80E0020F8B506460C46FFF758
:10464400DFFF054608B12846F8BDFFF7A7FF05467A
:104654000028F8D02046FDF7A7FA044678B1AE60EA
:10466400C36828469847074620B1A3682846984758
:10467400AE60E8E72846FFF7A9FF3D46E3E70546B5
:10468400E1E770B582B005460846144601A9FDF776
:1046940044FD064610B1304602B070BD01981C308E
:1046A400FBF79DFE012812D1019843697BB9438829
:1046B400012B12D1002221462846FFF7BDFF88B105
:1046C40082697AB9019A826143695361E3E7019887
:1046D400FDF75BFB6FF00F06DDE7FDF756FB4FF0D0
:1046E400FF36D8E70198FDF750FB6FF00F06D2E7CD
:1046F400F0B585B00F4616461D4603A9FDF70DFD1E
:10470400041E10DB03984388032B0FD1836A986837
:104714000A9B00932B4632463946FFF7B2FF044604
:104724000398FDF732FB204605B0F0BDFDF72DFBE5
:104734004FF0FF34F7E7000070B506460024134B32
:104744001B68A3421ED9124B04EB840103EB8102C4
:10475400127953F821100F4B1868FFF76DFF0546C7
:1047640088B140691C30FBF711FE68691C30FBF707
:104774000DFE68691C30FBF709FE6B69C6F810333F
:10478400C6F8143370BD0134D9E700BF000100201E
:1047940004010020BC07002070B504460E46FBF758
:1047A400A3FD0546204600F011F90446E0B10323B9
:1047B40084F834300F4A91690B89013B0B8193696A
:1047C4001B89A3B1C4F84C622846FBF794FD206909
:1047D40001F0A1F8FBF788FD042384F83430FBF7DB
:1047E4008AFD00F003F970BD024B1C6ADFE700F09C
:1047F40009F9E7E7C411002008B501460120FBF7D9
:1048040095FE002800DB08BD4042014B1860FAE722
:10481400F811002008B501464FF0FF30FFF7BCFF48
:10482400002008BDF8B50646FBF75EFD07464FF0CD
:10483400FF3000F0CBF805464FF4467001F05CF809
:1048440000283FD004464FF44672294600F0FAFC93
:10485400022384F834300023A360E3606069A36911
:104864001844800001F048F82061002830D0254821
:10487400FBF7B5FD00B22063204600F0E1F880BBF1
:104884002048FBF783FD65606269A3691A449200BE
:104894002969206900F0D6FC22692B6A29695B1A10
:1048A40013442362636943B32869361A3244E261CC
:1048B40000231362012384F834303846FBF71BFDD0
:1048C400206BF8BD3846FBF716FD4FF0FF30F8E7D4
:1048D400204601F020F83846FBF70DFD4FF0FF307D
:1048E400EFE7204601F017F8206901F014F8384684
:1048F400FBF701FD4FF0FF30E3E74FF0FF33E361D7
:10490400D8E700BFF41100200FB404B070470000D2
:104914000FB430B583B00C4B1B68002BFBD10A4C91
:104924000123236007AA0192084D0699284600F046
:104934002BFE2846FCF7DEFB0023236003B0BDE812
:10494400304004B0704700BFC00F0020C40F0020E7
:104954000FB400B583B00A4B1B68002BFBD1084C85
:104964000123236005AA0192064D0499284600F00C
:104974000BFE2846FCF7BEFB00232360FEE700BFC6
:10498400C00F0020C40F00200246044BD86800E08A
:10499400C06810B103799342FAD17047C411002062
:1049A40010B50446102000F0A7FF034648B10022CA
:1049B400C2600260C28004710281034AD168C1608E
:1049C400D060184610BD00BFC4110020021E07DBD2
:1049D400054BD86A38B1036B934204D0C068F9E739
:1049E400014B186A70477047C411002008B50121B3
:1049F4000348FBF7F6FC00B908BDFBF77FFCFBE7B7
:104A0400EC11002008B5FBF76FFC0C4BDB680021B0
:104A140001E01946DB685BB11A89002AFAD0002943
:104A2400F7D093F804C00A799445F3D91946F1E70D
:104A3400024B9961FBF75FFC08BD00BFC411002065
:104A4400002843D070B50446FBF74EFC054694F8A5
:104A540035603046FFF798FF0346F0B1DA8801323B
:104A6400DA801A8901321A811A6812B3A2601C60B2
:104A74002360184BDB6AF3B1E360164BDC62284613
:104A8400FBF739FC134B9B6923B194F835101A7961
:104A9400914213D8B3B1002070BD3046FFF780FFB8
:104AA40003460028DAD12846FBF725FC6FF00B00FB
:104AB400F2E71C60DCE7074BDC62E0E7FFF7A2FFEC
:104AC4000020E9E7FFF79EFF0020E5E74FF0FF3005
:104AD400704700BFC41100200C4B59690131596162
:104AE400DB6A03E09A6A01329A62DB686BB1D3F83D
:104AF4004422002AF6D09142F4D9DA6B42F40052EF
:104B0400DA630022C3F84422ECE77047C4110020A2
:104B140000B54FF0E023D3F8243D13F0800F19D0F3
:104B24004FF0E02CDCF8243D23F08003CCF8243D46
:104B34004FF0010C254B1B7F8BB9244B9B691B68E1
:104B440053B393F83420012A07D1204A1362012376
:104B5400137721E04FF0000CECE79B68F0E71B4B68
:104B6400D3F820E0CEF81C00186A01621B6A998C05
:104B7400022900D09A84A3F826C09B6804E093F825
:104B84003420012A06D09B68002BF8D10F4B9B6977
:104B94001B68F4E70D4A13620C4B1B6ADB8C012B78
:104BA40004D00A4B186A1C305DF804FB4FF0E02374
:104BB400D3F8242D42F08002C3F8242DD3F8242DF9
:104BC40022F48072C3F8242DEBE700BFC411002047
:104BD40010B407490A6AD2F844424B694FF47A7117
:104BE40001FB0033C2F84432204610BC704700BFBA
:104BF400C411002010B50446FBF776FB00E064689E
:104C040054B12368002BFAD093F83420022AF6D149
:104C1400012283F83420F2E7FBF76DFB10BD38B5B1
:104C240004460D46FBF760FB236823B16B602560E7
:104C3400FBF761FB38BD2560FAE770B506460D4603
:104C44000468FBF751FB002304E06368336008E069
:104C5400234664682CB1AC42FAD1002BF5D06268CB
:104C64005A60FBF748FB70BD014B1B6A186B704719
:104C7400C41100206FF0250070476FF025007047C5
:104C84006FF0250070476FF0250070476FF0250026
:104C940070470000054B1A6A92F83530191A00293A
:104CA40001DD82F835100020704700BFC4110020D8
:104CB40010B500F07DFD084C012104F12800FBF73C
:104CC40086FB012104F13000FBF781FB0023A36183
:104CD400636200F041FD10BDC411002008B5FFF768
:104CE400E7FFFBF7E3FAFBF7B3FB002008BD000086
:104CF400024B1B6AD3F84002704700BFC411002066
:104D04000346054A126AD2F8400223F4802323F4AE
:104D14008073C2F840327047C411002010B485B0CB
:104D2400431E1F2B1AD809281BD013281CD000910E
:104D3400002301934FF04043029303920C4B1B6AF0
:104D44000330020103EB001C9C5804AB13E90F0071
:104D54008CE80F00204605B010BC70476FF01504B6
:104D6400F8E76FF01504F5E76FF01504F2E700BFFC
:104D7400C4110020431E1F2B31D830B51446092816
:104D840030D0132831D01A4B1D6A00F1FF3E033096
:104D940005EB001C0FC98CE80F0034B10EF10403BD
:104DA40005EB03130FCB84E80F00114B1B6A03EBD5
:104DB4000E12906C10F0804006D00EF1040E03EB3E
:104DC4000E130020586030BD012202FA0EF10EF1DC
:104DD400040E03EB0E135A680A435A60F3E76FF0AC
:104DE400150070476FF01500EDE76FF01500EAE766
:104DF400C4110020F8B54C4B1C6ACB1C1B01E358B2
:104E0400012B00F08B8006460D464F1E002B49D027
:104E140004EB07139B6C13F0804F6FD101233360B5
:104E2400414B1B6AD3F8403246F8043CA6F1080013
:104E34004FF0807246F8082C3A1D1201A25840F82F
:104E4400042C04EB0716F26C40F8082C4FF01232D5
:104E540040F80C2C4FF0033240F8102C4FF0023283
:104E640040F8142C4FF0013240F8182C40F81C5C28
:104E74001C38FBF73DFAB36C002B4ADB2A4B1B6A48
:104E84003A1D04EB02146168D3F840220A43C3F8C4
:104E94004022012202FA07F7DA6B22EA0702DA63F8
:104EA4000020F8BDCB1E132B22D8DFE803F01B1B18
:104EB4001B1B211B21211B21212121213A3A0A0AF2
:104EC4000A0A022384F83430C4F84C126368D3F815
:104ED400482112F0010F03D1DA6B42F48032DA6315
:104EE4000120DEE741F080014FF0FF30FFF754FC72
:104EF40029464FF0FF30FFF74FFC89E7002333606A
:104F040046F8043CA6F108004FF0807246F8082CDD
:104F140092E73B1D1B010022E250AFE74FF0FF3048
:104F2400BFE70120BDE700BFC411002008B550F859
:104F3400283C012B04D02430FBF7DAF9002008BD0B
:104F4400034B1B6A50F8242CC3F84022F3E700BF3C
:104F5400C411002008B50E4B1B6A9A8C012A00D09C
:104F640008BDD3F84012DA6B22EA0102002100E006
:104F740001311F29F4D801238B401342F8D00131A9
:104F8400FFF738FF0128EBD1FFF730FDE8E700BF5A
:104F9400C41100206FF0250070476FF025007047A2
:104FA4006FF0250070476FF0250070476FF0250003
:104FB40070476FF0250070476FF02500704708B503
:104FC4000146FFF7F9FF08BD6FF0250070476FF049
:104FD400250070476FF0250070476FF0250070477B
:104FE4006FF025007047002070476FF02500704770
:104FF40008B50146FFF7F9FF08BD6FF025007047BB
:105004006FF0250070476FF0250070476FF02500A2
:1050140070476FF0250070476FF0250070476FF000
:10502400250070476FF02500704738B5044600F13D
:105034002005836B13F802CC006A616AA26AE36AF2
:10504400BCF1800F03D04FF0FF3323620AE07728CE
:105054000AD002280ED08000FBF75CFA20622846B2
:10506400FFF778FF002038BD29468000FBF752FA8D
:105074002062F4E721468000FBF74CFA2062EEE759
:10508400002800F0BA802DE9F04F83B0D0F80090EA
:1050940042680192D0F808B090F80CA0C589078A3C
:1050A4004669B9F1000F51D04FF4467000F024FC6A
:1050B4000446002850D04FF44672002100F0DEF878
:1050C400C4F84862EE19B00000F016FC80460028CF
:1050D40048D00023A362E3624948FBF780F900B299
:1050E4002063C4F81080002D45D006F18046013EAF
:1050F40008EB8606E66107F18043013B08EB830376
:1051040023620123A38484F835A06561A761022387
:1051140084F834300023A360E36085BB5B46019AC6
:105124004946206AFBF7F2F8206285BB0223A38478
:105134002046FFF785FC0346A0B3204600F0EBFBB6
:10514400404600F0E8FB4FF0FF3053E02D4B632264
:105154001A604FF0FF304DE02A4B0C221A604FF0DA
:10516400FF3047E0204600F0D6FB264B0C221A60A5
:105174004FF0FF303EE04FF0FF33E361BBE75B46A7
:10518400019A4946E069FBF7C1F8E061C6E70123EB
:10519400A384CDE703EB430204EBC202002182F8AF
:1051A40064120133072BF5DD2046FFF7C5FA04F539
:1051B4001475154E40F2FF13022231462846FDF7BE
:1051C40061FA40F2FF13022231462846FDF75AFAEB
:1051D40040F2FF13022231462846FDF753FA0848ED
:1051E400FBF7D4F8FBF780F8012384F83430FBF79D
:1051F40082F8206B03B0BDE8F08F4FF0FF307047AA
:10520400F4110020F811002060590008054B1A68B9
:10521400054943F2390001FB02001860C0F30E4057
:10522400704700BF600400206D4EC64184469CF860
:10523400002008780131101A03D10CF1010C002A66
:10524400F5D17047034604E011F801CB03F801CB14
:10525400013A002AF8D17047034600E001331A7876
:10526400002AFBD1181A704784460A7801318CF859
:1052740000200CF1010C002AF7D17047034602E02C
:1052840003F8011B013A002AFAD170478446002032
:105294001346013A4BB19CF8003011F8010B181A6F
:1052A40003D10CF1010C002BF2D17047034662B11B
:1052B40010B402E00133013A2AB10C781C70002CBE
:1052C400F8D00131F6E710BC7047704708B518B143
:1052D40003460846984708BD044B1B68002BFAD0C8
:1052E400581C024A10601970F5E700BFFC11002039
:1052F4002DE9F04F8BB006460D46019203E030468F
:10530400FFF7E4FF25462C4614F8011B002900F0A2
:1053140035812529F3D102352278302A2FD02D2A40
:1053240032D04FF0200800272A2A43D1019B1A1DAE
:1053340001921C68002C2DDB15F8012B2E2A3BD082
:105344004FF0FF396C2A56D0002A00F01781A2F1E1
:105354005803202B00F2A680DFE803F05FA4A4A486
:10536400A4A4A4A4A4A4A96152A4A4A4A4A4A4A489
:10537400A4A4A4ABA4A4A469A452A4A45F00A51CDF
:10538400904662780027CFE7A51C62784FF020088A
:105394000227C9E764420227CEE704EB840402EB48
:1053A4004404303C15F8012BA2F13003DBB2092B85
:1053B400F3D9C3E70024F7E72B4613F8012B2A2A75
:1053C40007D1019B1A1D0192D3F800906A78023527
:1053D400B8E74FF00009A2F13001C9B2092908D891
:1053E40009EB890902EB4909A9F1300913F8012BEA
:1053F400F1E71D46A6E747F0040715F8012BA3E7DC
:105404000A2017F0040F56D0019B191D0191196849
:10541400642A5CD04FF0000C71E01020F1E7019B8E
:105424001A1D019219783046FFF750FF6BE7019B74
:105434001A1D0192D3F800B0BBF1000F0AD05846F0
:10544400FFF70AFF8246B9F1000F0CDB81450AD24F
:10545400CA4608E0DFF82CB1F1E741463046FFF7D1
:1054640035FF0AF1010A17F0020F08D1A245F4D35F
:1054740005E00BF1010B3046FFF728FFB9469BF816
:10548400001051B109F1FF37B9F1000FF1D104E077
:1054940020213046FFF71AFFBA460AF10107A24558
:1054A400F6D330E711463046FFF710FF2BE7022012
:1054B400A7E70820A5E7642A04D0019B191D0191E0
:1054C4001968A5E7019B191D01911968A0E7002936
:1054D400A0DA494247F001079CE74FF027094B4403
:1054E400DBB20CF1010930330CF1280AEA440AF862
:1054F400203C704511D8B9F11F0F0ED8CC46B1FB32
:10550400F0F900FB1913DBB28E464946092BE8D9A2
:10551400782AE2D04FF00709E1E717F0010F08D02D
:1055240009F128030DEB03092D2309F8203C0CF1A4
:105534000209CA4605E041463046FFF7C7FE0AF1B4
:10554400010A17F0020F01D1A245F4D309F1FF3982
:1055540009F128036B4413F8201C3046FFF7B6FE0C
:10556400B9F1000FF2D10AF10107A245BFF4CBAEA5
:1055740020213046FFF7AAFEBA46F4E70BB0BDE897
:10558400F08F00BF945B000810B5054C206000202C
:10559400FFF7AEFE226800231370236010BD00BF26
:1055A400FC11002008B50020FAF7C0FF002800DB3A
:1055B400FEE74042014B1860FAE700BFF8110020F3
:1055C40070B592B0404C2046FFF746FE0246214695
:1055D4000020FDF7C3F940F2FF113C48FCF718FE28
:1055E4003B4C40F2FF112046FCF712FE00230093CF
:1055F400384A21463848FFF77BF840F2FF1240F260
:1056040042413648FDF79AF8002800DAFEE7FDF734
:10561400A9F8334C21463148FCF7A9FE40F2FF12A9
:1056240040F242412046FDF789F8041E01DB0023C5
:1056340003E0FEE72B4AD3540133B3F5007FF9D3DB
:105644000025092D0DD84FF4007226492046FDF798
:1056540085F9061E01DB0135F3E731462248FFF7E1
:1056640057F902A91D48FEF787FF079A31461F48DC
:10567400FFF74EF9002211462046FDF7D9F8002520
:105684004FF400721A492046FDF732F900280EDD66
:105694000023B3F5007F15D2124AD15C144AD25CC0
:1056A400914201D10133F4E71248FFF731F9294659
:1056B4001148FFF72DF92046FDF754F80F48FFF77E
:1056C40027F9FEE70544DBE7F85A0008085B000801
:1056D400105B0008185B000844590008205B0008B0
:1056E4002C5B000838140020385B0008485B000875
:1056F40000120020645B0008745B0008845B0008EF
:1057040008B540F2FF110F48FCF782FD002814DBB6
:10571400FCF7ACF90C480D4B03600021416081603B
:1057240006230373C1814FF400730382084B436162
:10573400FFF7A6FC002804DBFEE70648FFF708F99C
:10574400E6E7FEE7985B00081C140020C555000836
:10575400B45B0008A05B000808B5FBF7E5FB1E215D
:105764000E4B1868FEF728FD002812DB0C480D4B81
:10577400036000214160816006230373C1814FF4FB
:1057840000730382084B4361FFF77AFC002804DBB3
:1057940008BD0648FFF7DCF8E8E7FEE7BC07002091
:1057A4000014002005570008D85B0008C05B0008FF
:1057B400002313E003EB4302D0000C4A0244526876
:1057C400002042F82100013103EB4302D000074AD4
:1057D4000244D2688A42EDD801339BB2034A128E46
:1057E4009A4201D90021EFE7704700BF640400200A
:1057F4002A4B1B8E83424BD970B5284A00EB4004D8
:1058040002EBC40352F834505E68B3F810C0B1FB25
:10581400FCF40CFB1411002918BF01344FF0000EE6
:10582400734602E013444FF0000E00EB40021B49A4
:1058340001EBC202D168994209D956F82320002A03
:10584400F0D10EF1010E744509D00133EDE70022C9
:1058540002B3994220D91B1B01331A4604E00122EA
:10586400F6E746F823400132E118914205D99A42FD
:10587400F7D0012146F82210F5E7084A00EB400171
:1058840002EBC1014A69141B4C6103FB0C5070BD4F
:10589400002070470020FAE70020F8E764040020A5
:1058A40039B330B40B46134A00EB400402EBC40195
:1058B40052F834504C680A8A5B1BB3FBF2F2CB6893
:1058C400934214D30B4B00EB400103EBC1014B6932
:1058D40054F8220003444B6154F82200134603E0B9
:1058E400002144F82310013311189942F8D830BC30
:1058F400704770476404002038B50446FAF7F4FC96
:10590400054621460020FFF773FF04462846FAF7B0
:10591400F2FC204638BD38B50546FAF7E5FC0446E6
:1059240029460020FFF7BCFF2046FAF7E4FC38BD07
:105934002D0F0008890F00088D100008751000084D
:105944002F6465762F666C6173680000666C617302
:105954006800000074747930000000002F646576DC
:105964002F74747930000000257320257320D6C26B
:10597400C3FCB4EDCEF30000626B5F72656164003A
:1059840072626B0077626B0073796E635F626B00A7
:1059940073796E635F72616E645F626B0000000016
:1059A40073796E635F616C6C5F626B00737000008F
:1059B40066696C6520696E6F64652025640D0A0054
:1059C400626B206D61702025782025780A00000024
:1059D400B7D6C5E4D0C2696E6F64652025640D0A2C
:1059E400000000002573202564206E657720626B1B
:1059F4002025640D0A000000BEC9CEC4BCFEB4F369
:105A0400D0A125642CD0C2CEC4BCFEB4F3D0A12551
:105A1400640D0A00BFE9D2D1BEADB1BBD0DEB8C4BB
:105A24000D0A0000B4B4BDA8CEC4BCFE25730D0A93
:105A340000000000BDF8B3CC25642CD0B4BFE92528
:105A4400642CC6ABD2C625642CBEC9CEC4BCFEB47D
:105A5400F3D0A125642CD0C2CEC4BCFEB4F3D0A133
:105A640025640D0A00000000BDF8B3CC25642CBAEF
:105A7400AFCAFD25732CD0D025642CD0C2BFE9BA9F
:105A8400C525640D0A0000002E0000002E2E000023
:105A9400C9BEB3FDB2BBB4E6D4DAB5C4CEC4BCFE51
:105AA4002028253034783A256C75292C2025640A61
:105AB4000000000073705F6D6B6469720000000089
:105AC4006164645F66696C655F746F5F656E747250
