:020000040800F2
:1000000000000120A1070008790600087B0600080F
:100010007D0600087F060008810600080000000039
:10002000000000000000000000000000DD040008E7
:100030008306000800000000E501000855050008DF
:100040005505000855050008550500085505000828
:100050005505000855050008550500085505000818
:100060005505000855050008550500085505000808
:1000700055050008550500085505000855050008F8
:1000800055050008550500085505000855050008E8
:1000900055050008550500085505000855050008D8
:1000A00055050008550500085505000855050008C8
:1000B00055050008550500085505000855050008B8
:1000C00055050008550500085505000855050008A8
:1000D0005505000855050008550500085505000898
:1000E0005505000855050008550500085505000888
:1000F0005505000855050008550500085505000878
:100100005505000855050008550500085505000867
:100110005505000855050008550500085505000857
:100120005505000855050008550500085505000847
:1001300000000000000000000000000000000000BF
:1001400000000000000000000000000000000000AF
:10015000000000000000000000000000000000009F
:10016000000000000000000000000000000000008F
:10017000000000000000000000000000000000007F
:10018000000000000000000000000000000000006F
:10019000000000000000000000000000000000005F
:1001A000000000000000000000000000000000004F
:1001B000000000000000000000000000000000003F
:1001C000000000000000000000000000000000002F
:1001D000000000000000000000000000000000001F
:0401E0005FF8E0F1F3
:1001E40072B6EFF30980EFF3088100281EF0040FC4
:1001F4000CBFEFF30883EFF309830CBF0022012245
:10020400002868B1A3F1200383E8F00F1EF0040F67
:100214000CBF194618460CBF83F3088883F309887A
:10022400DFF878309847D0E90012836813F0010FA3
:100234000CBF1046084690E8F00F203082F308887F
:1002440081F30988022B1FD013F4803F0BD1012BBB
:1002540000D019E080F309884FF0010181F314887C
:100264006FF0020E18E013F0020F04D14FF00301F7
:1002740081F3148803E04FF0000181F3148880F3C4
:1002840008886FF00E0E07E080F308886FF0060E02
:100294004FF0000080F3148862B67047C933000839
:1002A40008B503F013F802F07DFF08BD10B5002275
:1002B40011460A4800F038F94FF0E023084A5A6121
:1002C400084AF02182F8231000249C6107221A6155
:1002D4004FF4407000F056F9204610BDA502000806
:1002E4003F19010000ED00E0EFF3108072B6704793
:1002F40080F30988704780F31088704702484FF0F4
:10030400805101607047000004ED00E010B44FF02C
:100314008074046040F8041C1A4940F8081C4FF02B
:10032400123140F80C1C4FF0033140F8101C4FF010
:10033400023140F8141C40F8183C40F81C2C4FF0D3
:10034400113340F8203C4FF0103340F8243C0E4B5E
:100354001B6840F8283C4FF0083340F82C3C4FF021
:10036400073340F8303C4FF0063340F8343C4FF04C
:10037400053340F8383C4FF0043340F83C3C3C38FB
:1003840010BC704735300008400400204FF00003D3
:1003940050E8002F02F10102002A00D001E04FF0E2
:1003A400010340E800210129F2D0184670474FF0BC
:1003B400000350E8002F02F1FF32002A00D001E0D0
:1003C4004FF0010340E800210129F2D0704750E8C2
:1003D400002F0A4640E80023012BF8D0704700683C
:1003E400704710B450E8002F8A4202D04FF0000446
:1003F40001E04FF0010440E80023012BF2D0204635
:1004040010BC704710B450E8002F002A02D04FF0FF
:10041400000402E04FF001040A4640E80023012BE7
:10042400F1D0204610BC704710B450E8002F002AC9
:1004340002D04FF0000401E04FF001040A4640E806
:100444000023012BF1D0204610BC704710B450E8B3
:10045400002F002A02D04FF0000403E04FF0010403
:1004640002F1010240E80023012BF0D0204610BC29
:10047400704710B450E8002F002A04D04FF0000455
:1004840002F1FF3201E04FF0010440E80023012BA8
:10049400F0D0204610BC70474FF0570080DF0000BA
:1004A40072B60A484AF2A001018009484FF0F001EF
:1004B4000170002080F3098806484FF080510160E4
:1004C4004FF0010080F3148862B6704722ED00E01B
:1004D4001FED00E004ED00E01EF0040F0CBFEFF38D
:1004E4000880EFF30980A0F1200080E8F00F03F00A
:1004F400D8B9EFF30580704710B50446FFF7F9FF4C
:10050400A0F10F03074A02EBC302127912F0010FA4
:1005140004D1044A52F8333003B19847204603F01B
:100524003DF910BD4404002070B506460D4614463E
:10053400FFF7DAFE054941F8356001EBC5010A7998
:1005440014430C71FFF7D7FE70BD00BF44040020B4
:100554001EF0040F0CBFEFF30880EFF30980FFF7E0
:10056400CBBF000030B5044C04442568084611464E
:100574001A46A84730BD0000E401002000B580DF22
:1005840000BD000040F0BF6040F40030014BD86073
:10059400704700BF00ED00E0014BD860704700BF1A
:1005A400002002400B4BDB6813F0010F0BD1094B09
:1005B400DB6813F0040F08D1064BDB6813F0100F4F
:1005C40005D00320704701207047022070470420A3
:1005D400704700BF0020024010B50446FFF7E2FF59
:1005E40002E0FFF7DFFF013C012801D1002CF8D124
:1005F40004B110BD0520FCE738B504464FF43020A3
:10060400FFF7EAFF042800D038BD0A4D2B6943F0F8
:1006140002032B616C612B6943F040032B614FF49F
:100624003020FFF7D9FF2B6923F00203DB04DB0C36
:100634002B61E9E70020024070B504460D464FF4F3
:100644000050FFF7C9FF042800D070BD084E33697D
:1006540043F00103336125804FF40050FFF7BCFFE2
:10066400336923F00103DB04DB0C3361EDE700BFE6
:10067400002002407047FEE7FEE7FEE7FEE7704712
:1006840082B00023019300932C4A136843F480330F
:1006940013602A4B1B6803F400330093019B01335E
:1006A4000193009B1BB9019BB3F5A06FF1D1234BC0
:1006B4001B6813F4003F06D001230093009B012B19
:1006C40004D002B0704700230093F7E71C4B1A686C
:1006D40042F010021A601A6822F003021A601A68C3
:1006E40042F002021A60A3F580535A685A605A68AD
:1006F4005A605A6842F480625A605A6822F47C1242
:100704005A605A6842F4E8125A601A6842F08072D9
:100714001A600A4B1B6813F0007FFAD0074B5A6823
:1007240022F003025A605A6842F002025A60034BF4
:100734005B6803F00C03082BF9D1C2E700100240F8
:100744000020024008B5FFF79BFF08BD08B5104B19
:100754001A6842F001021A6059680E4A0A405A6047
:100764001A6822F0847222F480321A601A6822F421
:1007740080221A605A6822F4FE025A604FF41F0263
:100784009A60FFF7DFFF044B4FF000629A6008BDE8
:10079400001002400000FFF800ED00E00B480C4997
:1007A4000C4A002302E0D458C4500433C4188C42C9
:1007B400F9D3094A094C002301E013600432A24230
:1007C400FBD3FFF7C3FF03F095F970470000002047
:1007D40034040020143E00084004002080ED002072
:1007E40038B50446094D0A4B6B6003F188336B60DE
:1007F4003420FFF7D1FE04F580304030C002FFF70B
:10080400FBFE2B6943F080032B6138BD00200240BE
:100814002301674500B583B0002000F0F1F90028FA
:1008240011DB4FF40063019303230093C0230A4AAE
:100834000A49002000F038FA002809DB084B186840
:1008440003B05DF804FB00F0EDF9054B1860E8E730
:100854004FF0FF30F4E700BF00000020E83D00083F
:100864001C06002008B50349034B186800F04CFA35
:1008740008BD00BFE83D00081C060020F8B5054689
:100884000F461646002407E037F814102846FFF7F1
:10089400D3FE02350134A4B2B442F5D3F8BD00004E
:1008A40010B50A4C0A4B636003F18833636000F5AA
:1008B40080334033C202520802F47C42D802FFF76C
:1008C400DDFF236943F08003236110BD0020024053
:1008D40023016745008880B27047F8B505460F4686
:1008E4001646002407E02846FFF7F4FF27F8140013
:1008F40002350134A4B2B442F5D3F8BD08B500F50D
:10090400803040304FF48062C002FFF7E6FF0020E1
:1009140008BD30B586464FF0FF354FF0000C02E0BD
:1009240065460CF1010C94450CD20CEB8C039C0035
:100934000EEB8300037CDB09F2D05EF804308B42BB
:10094400EFD130BDB5F1FF3F08D005EB85050EEBC7
:100954008500802303744EF82510F2E70020F0E7A9
:10096400F8B50D46144600F087F9002836D006463F
:1009740003F070F8002827DB03F06CF8B0FBF4F305
:1009840004FB130404EB8404A70005EB8404E0686F
:1009940002F0C6FA0028FADB237C13F0020F0AD017
:1009A400B368E8599847002812DB7368A168E859CE
:1009B400984700280FDB00232374E06802F0D6FA7E
:1009C4000028FAD12046F8BD03F044F84042D5E7A8
:1009D40000232374FEE700232374FEE74FF0FF3463
:1009E400F0E72DE9F04180460F46164601EB810001
:1009F400800003F0D7F9C8F80000F0B10025BD422B
:100A040012D2D8F8004005EB850304EB83041422CA
:100A14000021204603F056F8304603F0C3F9A060E5
:100A240010B166600135EAE715B12846BDE8F081EA
:100A3400D8F8000003F0C5F9F7E74FF0FF30F5E709
:100A44002DE9F04F83B007460E4690461D46DDF86B
:100A5400309000F011F900284FD0824601A93846A1
:100A640000F0F0F8834600284AD0019A3146FFF797
:100A740050FF0446E8B1E06802F052FA0028FADBBD
:100A840015B963684B451ED0237C13F0040F0AD1BB
:100A9400DAF80030A16830469847002818DB237C38
:100AA40043F00403237405EB090263689A4210D9E6
:100AB400FEE7019A59463846FFF752FF044606609E
:100AC40080230374D7E7237C43F004032374EAE709
:100AD400FEE7A0684A464146284402F0D7FF237C3B
:100AE40043F002032374E06802F040FA034600284E
:100AF400F9D1184603B0BDE8F08F4FF0FF33F8E7A3
:100B04004FF0FF33F5E72DE9F04782B006460D4676
:100B140090461F4600F0B0F8002841D0814601A954
:100B2400304600F08FF8824600283CD0019A2946CE
:100B3400FFF7EFFE0446C8B1E06802F0F1F90028BF
:100B4400FADB237C13F0040F0AD1D9F80030A16832
:100B540028469847002812DB237C43F004032374BF
:100B64000A9BFA1863689A420AD3FEE7019A51462F
:100B74003046FFF7F5FE044680230374DCE7FEE706
:100B8400A1680A9A3944404602F080FFE06802F006
:100B9400EDF903460028F9D1184602B0BDE8F08704
:100BA4004FF0FF33F8E74FF0FF33F5E708B503697B
:100BB400032B0AD803EB4303064A02EB83035B6867
:100BC4000B61DB6923B1984708BD6FF01200FBE7A6
:100BD4000020F9E7A00600200269032A09D808B515
:100BE400064B03EB42135B680B61DB6923B1984747
:100BF40008BD6FF0120070470020F9E720060020BE
:100C0400032809D8064B03EB401043690BB90020B5
:100C140070474FF0FF3070474FF0FF30704700BF10
:100C2400200600200020032806D8054B03EB4013C0
:100C34005B691BB10130F6E74FF0FF30704700BF2E
:100C440020060020032806D8044B03EB40108369D8
:100C54000B60006970470020704700BF2006002029
:100C6400032804D8034B03EB4010C06970470020ED
:100C7400704700BF20060020032804D8034B03EB71
:100C84004010406970470020704700BF20060020D4
:100C9400032804D8034B03EB4010C06870474FF09F
:100CA400FF307047200600202DE9F041DDF81C805C
:100CB40003281ED804460E4615461F46114800EB6D
:100CC40044104369C3B963011033424606990D4881
:100CD4001844FFF786FE90B10A4B610103EB4414FC
:100CE400E760A0615E506561C4F81C800020BDE827
:100CF400F0816FF01500FAE76FF00F00F7E74FF09F
:100D0400FF30F4E72006002003280ED810B504466F
:100D14004301094AD05802F0ADFE48B9064A6101C0
:100D240002EB44145050606110BD6FF01500704721
:100D34006FF01500F8E700BF2006002038B5074D16
:100D4400074BED1AED08002404E0054B53F834304A
:100D540098470134AC42F8D338BD00BFE83D0008E1
:100D6400E03D0008072831D88C461E4B1A6A00EB78
:100D7400400302EBC30393F8683253B307292BD81B
:100D8400BCF1070F09D80CEB4C0302EBC30393F837
:100D9400683213B90CF1010CF2E7BCF1070F1ED84D
:100DA40010B50CEB4C0402EBC40400EB400002EB66
:100DB400C00204F5157402F5157EBEE80F000FC4D9
:100DC4009EE8030084E80300604610BD6FF008004D
:100DD40070476FF0080070476FF0150070476FF0B0
:100DE40017007047780F002007281AD838B5054631
:100DF4000C46124B1B6A00EB400203EBC20393F850
:100E040068328BB188420AD0082910D812D008461B
:100E140000F04EFC21462846FFF7A4FF38BD0846E3
:100E2400FCE76FF0080070476FF00800F6E76FF01A
:100E34000800F3E76FF00800F0E700BF780F002028
:100E440008B50021FFF78EFF08BD000007280BD866
:100E5400084B1B6A00EB400003EBC00090F86832BB
:100E64002BB16FF0250070476FF0080070476FF0EA
:100E740008007047780F002038B50546002400E0CC
:100E84000134094B1B68A3420BDD04EB84032946A0
:100E9400064A52F8230002F0EDFD0028F0D1034881
:100EA40000E0002038BD00BFD4000020D80000209E
:100EB40010B5184B1B68B3F1FF3F11D01648FFF76C
:100EC4008EFA98B100241F2C17D8342304FB03F3A3
:100ED400183312481844FFF7B9FAA8B90134F2E7F5
:100EE400012001F0FDFF0B4B1860E7E7094B186880
:100EF40002F016F80028E5DAFEE7064B186802F05F
:100F04000FF80028DEDAFEE70348FFF750FA03483B
:100F140010BD00BFF0000020EC000020D40600202B
:100F240010B500F118042046FFF7A3FA2046FFF796
:100F340056FA18B10448FFF729FA10BD034B186894
:100F440002F014F8F6E700BFEC000020F0000020E7
:100F540070B505460E46FFF7ABFF0446002114307A
:100F6400FFF735FA012104F11800FFF730FA0021E8
:100F740004F11C00FFF72BFA6562A6600023E3600E
:100F8400EB691B682046984738B1EB699B6820469B
:100F94009847002807DB204670BD06462046FFF729
:100FA400BFFF3446F7E7EB695B6820469847204665
:100FB400FFF7B6FFEFE738B5044600F118052846F9
:100FC400FFF70DFA10B32846FFF709FA012818D8DD
:100FD4004CB1636A3BB1DB692BB15B691BB1E2685D
:100FE4000AB9204698473CB1636A2BB1DB691BB14F
:100FF4001B690BB1204698472046FFF791FF00205C
:1010040038BD2046FFF78CFF0020F9E74FF0FF3092
:10101400F6E70000072825DC10B584468E46134603
:10102400184A146A00EB400204EBC20292F86822E8
:10103400DAB100EB4000C00000F514702044011D3B
:101044000CEB4C0204EBC202D2F8600280B1D2F87D
:10105400642282B154698CB17246A047002800DB37
:10106400002010BD6FF0080070476FF00800F8E72B
:101074006FF01500F5E76FF01500F2E76FF015005B
:10108400EFE700BF780F002020B370B50D46164679
:10109400044602F005FD0246431E002B0ADB1846F7
:1010A40014F803C0BCF15C0F05D0BCF12F0F02D0C3
:1010B400013BF2E7104665B1002302E0E25CEA542A
:1010C4000133984203D906F1FF3C9C45F6D800222F
:1010D400EA5470BD002070472DE9F04182B0054606
:1010E40038B10023019303783BB1002427462646F8
:1010F40039E02A4B16221A604CE0294B1B6AD3F8BC
:101104001803019046E0019B33B14FF4007002F0E4
:1011140065FB01463B460BE0214B1B6AD3F81833B1
:101124000193F2E7DA1B15F803C001F802C001339A
:101134009C42F7D298F800205C2A05D02F2A03D0CD
:10114400DB1B0022CA5403E0DB1B013B0022CA5410
:101154000198836A9F6801AB3422B84702F04EFBC2
:10116400671C0136013405EB04082B5D8BB15C2B45
:1011740005D02F2B03D02B195B78002BF2D1002E36
:10118400C1D1A742BFD1064B1B6AD3F814330193D4
:10119400E6E7019802B0BDE8F08100BFB40F00207B
:1011A400780F0020F0B5A5B006460C461546FFF7AB
:1011B40093FF239050B140F20123A34327D02398F7
:1011C4001430FFF7E3F8239825B0F0BD04F0410490
:1011D400412CF9D1802203A93046FFF755FF04467C
:1011E40003A8FFF779FF60B1239B9B6A5F68611CCA
:1011F40023AB009334232A463144B8470028DEDA6F
:10120400E2E7074B02221A604FF0FF30DCE7836A03
:101214005B6B0BB19847D2E76FF02500D4E700BFB2
:10122400B40F00202DE9F041A0B007468846802283
:101234006946FFF729FF06466846FFF74DFF28B3C6
:1012440005464388012B12D1846ACCB1A469BCB190
:10125400384602F025FC4346821B69462846A047CF
:10126400041E09DB0024204620B0BDE8F081FFF70E
:10127400A2FE6FF00104F6E72846FFF79CFEF2E7B2
:101284002846FFF798FE6FF02504ECE76FF00104A1
:10129400E9E7F0B5A1B0064680226946FFF7F4FEFF
:1012A40004466846FFF718FF18B305464388012B28
:1012B40010D1836ABBB1DF69AFB1304602F0F0FBF5
:1012C400021B69462846B847041E08DB0024204652
:1012D40021B0F0BDFFF76FFE6FF00104F7E7284679
:1012E400FFF769FEF3E72846FFF765FE6FF0250474
:1012F400EDE76FF00104EAE76FF025007047F0B501
:10130400A1B0064680226946FFF7BEFE0446684641
:10131400FFF7E2FE18B305464388012B10D1836A18
:10132400BBB11F69AFB1304602F0BAFB021B69467C
:101334002846B847041E08DB0024204621B0F0BD2F
:10134400FFF739FE6FF00104F7E72846FFF733FE95
:10135400F3E72846FFF72FFE6FF02504EDE76FF063
:101364000104EAE76FF0250070472DE9F047A2B0C9
:1013740007460D461646802202A9FFF785FE04465D
:1013840002A8FFF7A9FE08B380464388012B18D1B1
:10139400836AF3B1D3F82090B9F1000F1CD004F1A3
:1013A400010A384602F07CFB00962B46021B02A978
:1013B40051444046C847002800DB002022B0BDE865
:1013C400F087FFF7F8FD6FF00100F7E76FF0010019
:1013D400F4E76FF02500F1E76FF02500EEE76FF01A
:1013E4002500704738B50C46FFF776FE88B10546F0
:1013F400406AC3691B6A33B1214698472846FFF700
:10140400DAFD002038BD2846FFF7D5FD6FF0250032
:10141400F8E74FF0FF30F5E7072817D808B5114B68
:101424001B6A00EB400203EBC20292F8682282B10D
:1014340000EB400003EBC000D0F8600260B1436AE7
:10144400DB691B6A5BB19847002008BD6FF0080098
:1014540070476FF00800F8E76FF00100F5E76FF0F0
:101464002500F2E7780F00206FF0250070476FF039
:101474002500704738B5FFF72FFE98B1044643881E
:10148400012B0AD1094D2B6AD3F81803FFF793FDFA
:101494002B6AC3F81843002038BDFFF78CFD6FF0AA
:1014A4000100F9E76FF00100F6E700BF780F0020B4
:1014B40007281DD8144B1A6A00EB400302EBC30340
:1014C40093F86832BBB110B500EB400002EBC000EA
:1014D400D0F8604294B16388012B12D1D2F818037A
:1014E400FFF769FD084B1B6AC3F81843002010BDC1
:1014F4006FF0080070476FF0080070476FF001004C
:10150400F5E76FF00100F2E7780F002038B5FFF738
:10151400E3FD98B104464388012B0AD1094D2B6A97
:10152400D3F81403FFF747FD2B6AC3F814430020D4
:1015340038BDFFF740FD6FF00100F9E76FF00100DF
:10154400F6E700BF780F0020072819D8114B1B6A53
:1015540000EB400203EBC20292F868229AB100EB5E
:10156400400003EBC000D0F860327BB15A8812040B
:101574001A6011431960012283F82020002070476B
:101584006FF0080070476FF0080070476FF00100BB
:10159400704700BF780F002010B50C46FFF79CFD84
:1015A40048B141880904016021430160012280F8A7
:1015B4002020002010BD6FF00100FBE76FF0250034
:1015C4007047000070B50E460024072C11D8334B29
:1015D4001D6A04EB440305EBC30393F868320BB1B3
:1015E4000134F2E704EB440305EBC305012385F85A
:1015F4006832072C26D83146FFF7D4FD054638B3A8
:10160400264B1B6A04EB440203EBC202A2F85C62A1
:10161400D2F8642242B304EB440203EBC203D3F8CE
:10162400641229B1CB691BB128469847002826DBF0
:101634001A4B1B6A04EB440203EBC203C3F8605267
:10164400204670BD164B18221A604FF0FF30F8E7A1
:10165400124B1B6A04EB440403EBC403002283F81B
:1016640068224FF0FF30ECE7826A11680029D2D07B
:1016740004EB440203EBC202C2F86412CBE7074B4B
:101684001B6A04EB440403EBC403002283F86822BE
:101694002846FFF790FC4FF0FF30D2E7780F002088
:1016A400B40F002008B50A464121FFF78BFF08BD9F
:1016B400164B1A6A00EB400302EBC30393F868323B
:1016C40013B310B5044600EB400302EBC303D3F895
:1016D40064327BB11B6A6BB100EB4001C90001F5B8
:1016E4001471114400EB400002EBC0020431D2F843
:1016F40060029847054B186A04EB440400EBC404E9
:10170400002384F8683210BD704700BF780F0020B2
:10171400072825D810B584468E461346184A146AFD
:1017240000EB400204EBC20292F86822DAB100EB4B
:101734004000C00000F514702044011D0CEB4C0265
:1017440004EBC202D2F8600280B1D2F8642282B102
:10175400D4688CB17246A047002800DB002010BD7D
:101764006FF0080070474FF0FF30F8E76FF00800A3
:10177400F5E76FF00100F2E76FF00100EFE700BF5B
:10178400780F002007284AD870B504460D4616463F
:101794002C4B196A00EB400301EBC30393F8683246
:1017A400002B3FD000EB400301EBC303D3F85832C6
:1017B400002B3AD000EB400301EBC303D3F86002E3
:1017C400B0B304EB440301EBC303D3F864324BB16D
:1017D4001A6A3AB104EB4403DB0003F514731944A9
:1017E40004319047012E0CD9022E16D1154B1B6AD9
:1017F40004EB440203EBC203D3F86032DBB15B6851
:101804001D44002D1ADB0F4B186A04EB440400EB53
:10181400C404C4F85852284670BD0025F3E76FF09D
:10182400080070474FF0FF30F6E74FF0FF30F3E762
:101834004FF0FF30F0E74FF0FF30EDE74FF0FF30AF
:10184400EAE700BF780F0020072827DC10B584469C
:101854008E461346194A146A00EB400204EBC20296
:1018640092F86822EAB100EB4000C00000F5147061
:101874002044011D0CEB4C0204EBC202D2F86002BE
:1018840090B1D2F8642292B154689CB17246A047D8
:10189400002800DA10BD6FF02500FBE76FF00800A8
:1018A40070474FF0FF30F5E76FF00800F2E76FF094
:1018B4001500EFE76FF01500ECE700BF780F00208C
:1018C400072827DC10B584468E461346194A146A45
:1018D40000EB400204EBC20292F86822EAB100EB8A
:1018E4004000C00000F514702044011D0CEB4C02B4
:1018F40004EBC202D2F8600290B1D2F8642292B131
:1019040094689CB17246A047002800DA10BD6FF0BD
:101914002500FBE76FF0080070474FF0FF30F5E754
:101924006FF00800F2E76FF01500EFE76FF01500B5
:10193400ECE700BF780F00202DE9F04385B00446A2
:101944000D469046D0F820904368DE00B1FBF6F6D1
:10195400D9F82010EF08B7FBF3F20120009003FB45
:1019640012730DF10F023144A068FFF7CCF8002880
:101974002BDBB8F1000F1ED105F007050121A940AA
:101984009DF80F5065EA01058DF80F50D9F8201025
:101994006368B7FBF3F20120009003FB12730DF1AF
:1019A4000F023144A068FFF74BF8002810DB002039
:1019B40005B0BDE8F08305F007050121A9409DF8B5
:1019C4000F500D408DF80F50E0E74FF0FF30EFE778
:1019D4004FF0FF30ECE72DE9F04385B00646894629
:1019E400076A4FF0000844467B6A434564D90025E2
:1019F40049E03B68A34259D97368DD00B4FBF5F5AF
:101A0400396A4FEAD408B8FBF3F20120009003FBD3
:101A140012830DF10F022944B068FFF774F800280F
:101A24004CDB04F00703012000FA03F29DF80F30A9
:101A340023EA02038DF80F30396A7368B8FBF3F2B6
:101A4400009003FB12830DF10F022944B068FEF7E6
:101A5400F7FF002835DB7B680BB1013B7B60C9F8DD
:101A6400004001233376002005B0BDE8F083002355
:101A74001F2B07D801229A401142BAD101340133F5
:101A8400DBB2F5E701357368AB4212D9396A042336
:101A940000932B4602AA4144B068FFF734F80028AB
:101AA40004DB02990029E2D12034EBE74FF0FF3048
:101AB400DAE708F1010897E700249DE74FF0FF30CB
:101AC400D2E74FF0FF30CFE72DE9F04184B005466F
:101AD4000C46D0F820804368DE00B1FBF6F6D8F857
:101AE4002010E708B7FBF3F20120009003FB127308
:101AF4000DF10F023144A868FFF705F8002824DB34
:101B040004F00704012202FA04F49DF80F301C4388
:101B14008DF80F40D8F820106B68B7FBF3F00092F3
:101B240003FB10730DF10F023144A868FEF788FF20
:101B340000280DDBD8F804300133C8F80430012341
:101B44002B76002004B0BDE8F0814FF0FF30F9E7B8
:101B54004FF0FF30F6E72DE9F04385B0054688469F
:101B6400066A4FF00009F3694B4565D900242746FE
:101B740049E0DC19F368A34258D96B68DF00B4FB71
:101B8400F7F7B1694FEAD409B9FBF3F201200090E9
:101B940003FB12930DF10F023944A868FEF7B3FF5B
:101BA40000284BDB04F00703012000FA03F29DF840
:101BB4000F3023EA02038DF80F30B1696B68B9FB6B
:101BC400F3F2009003FB12930DF10F023944A8685D
:101BD400FEF736FF002834DB33690BB1013B336178
:101BE400C8F8004001232B76002005B0BDE8F0833F
:101BF40000231F2B06D801229A401142B9D1013388
:101C0400DBB2F6E704346B68A34212D9B16904234A
:101C14000093234602AA4944A868FEF774FF0028EB
:101C240004DB02990029E3D12037EBE74FF0FF30C2
:101C3400DBE709F1010996E700249EE74FF0FF3046
:101C4400D3E74FF0FF30D0E72DE9F04184B00546EB
:101C54000C46D0F820804368DE00B1FBF6F6D8F8D5
:101C64001810E708B7FBF3F20120009003FB12738E
:101C74000DF10F023144A868FEF745FF002824DB6C
:101C840004F00704012202FA04F49DF80F301C4307
:101C94008DF80F40D8F818106B68B7FBF3F000927A
:101CA40003FB10730DF10F023144A868FEF7C8FE60
:101CB40000280DDBD8F810300133C8F810300123A8
:101CC4002B76002004B0BDE8F0814FF0FF30F9E737
:101CD4004FF0FF30F6E730B585B0036A9D6944687C
:101CE400B1FBF4FC04FB1C1401230093E3080DF185
:101CF4000F0205EB0C018068FEF705FF00280ADBE4
:101D040004F007019DF80F4044FA01F1012905D0C0
:101D1400012005B030BD4FF0FF30FAE70020F8E7AE
:101D240043688B4233D370B584B01446456A066B5E
:101D340001316A68B1FBF2F002FB101303B1012315
:101D440003440C2B19D9920802EB420149000C31CF
:101D540099421FD30D3BB3FBF2F102FB11330C315B
:101D640056F82110A868042200929B0003AAFEF7EB
:101D7400CAFE48B9039B236004E0013B56F82330B4
:101D84002360002004B070BD4FF0FF30FAE74FF03D
:101D9400FF3070474FF0FF30F4E76FF014007047E6
:101DA40070B5A0B005460C46164680236A46214607
:101DB400284600F0C4FC002813DD1F9B002BF4D040
:101DC4008122694606F10A0001F084FE684601F0AA
:101DD40067FE30811E9B33606368803B736060687C
:101DE40000E0002020B070BD10B50446542001F07E
:101DF400D9FF206330B1044BA3625422002101F0C7
:101E040061FE204610BD00BFF4000020C36853B932
:101E140010B504461830FEF7E2FA38B9206B01F029
:101E2400D0FF002010BD4FF0FF3070474FF0FF305F
:101E3400F8E70000F0B5A3B00446466A376A85683F
:101E440029463046FFF747FF012841D1002102917E
:101E54007C2203A801F036FEB38905FB03F1726806
:101E6400B1FBF2F1BF69B2FBF3F2B5FBF2F002FB96
:101E74001055B068009305FB03F302AA3944FEF73A
:101E840042FE002800DAFEE7542202A9206B01F08A
:101E9400FDFD179B2360189A6260199AA2601A9A32
:101EA400E2601B0C032B05D8DFE803F002090C0FDA
:101EB400094BA362002084F8200023B0F0BD074B37
:101EC400A362F7E7064BA362F4E7064BA362F1E7CC
:101ED4004FF0FF30F1E700BF58010020F40000206C
:101EE400480000200C000020F0B5A3B00446456A69
:101EF4002F6A86686B68AA89B3FBF2F3B6FBF3F624
:101F0400002102917C2203A801F0DCFD5422216B04
:101F140002A801F0BBFD2368179363681893A268B5
:101F24001992B969AB896868B0FBF3F0B2FBF0FCB5
:101F340000FB1C22A868009302FB03F302AA3144AD
:101F4400FEF77EFD002802DB002384F8203023B056
:101F5400F0BD30B583B00446242500950023024625
:101F640001218068FEF76CFD342300932B46226A1E
:101F74000121A068FEF764FD0023237603B030BD81
:101F840030B583B0054601A9406AFFF7E4FD002897
:101F940022DBFEF78DFF0446019B83600023C360B0
:101FA40043606A6A426280F82030AB6A836201212E
:101FB4001830FEF70CFA012104F11C00FEF707FAB1
:101FC4002046FFF711FF10B1204603B030BD214673
:101FD400686AFFF739FEF7E74FF0FF30F5E70000D6
:101FE400F0B583B00546582001F0DCFE0446002815
:101FF400F9D024230093002302460121A868FEF7A8
:1020040082FD00282CDB22681D4B9A422DD104F15D
:1020140024073423009324233A460121A868FEF7B9
:1020240072FD002826DB23682B6063686B60A3685D
:10203400AB60A389AB81134BEB6100262E612E7636
:1020440034223946286A01F021FD31462846FEF73C
:102054007FFF6861204601F0B4FE284603B0F0BD5E
:10206400204601F0AEFE0020F8E7204601F0A9FE6C
:102074000020F3E7204601F0A4FE0020EEE700BFB5
:1020840044332211BC0100202DE9F04FA7B00646CD
:1020940003934088012840F096808846776AD6F8F2
:1020A40030B073684FEAD3197968B3FBF1F201FBDE
:1020B400123303B10346D31802934FF0000A554676
:1020C400029B9A457CD2BAF10B0F46D9736A5B68BE
:1020D4009B0803EB430252000C32524576D9AAF115
:1020E4000C02B2FBF3F103FB11230C315BF821105A
:1020F400B868042200929B0005AAFEF704FD00289C
:1021040058DB00242EE001350134A4B22346726A60
:102114005268B4EBD21F50D24D4518D25BF82A1046
:10212400B86880220092DB0106AAFEF7ECFC0028C6
:1021340010DB414606A801F09DFC0028E3D1259B55
:10214400012BE0D1249B039A136028462CE06FF006
:10215400010029E06FF0010026E00024D6E70135F4
:102164000134A4B22346726A5268B4EBD21F24D25B
:102174004D4517D2B86880220092DB0106AA059962
:10218400FEF7C1FC002812DB414606A801F072FCF0
:102194000028E4D1259B012BE1D1249B039A1360F1
:1021A400284601E06FF0010027B0BDE8F08F6FF022
:1021B4000100F9E76FF00100F6E70AF1010A7FE791
:1021C4006FF00100F0E76FF01300EDE76FF01A0015
:1021D400EAE730B583B004461D4601ABFFF754FF70
:1021E400002806DB0199606AFEF7B2FE18B1286088
:1021F400002003B030BD6FF00100FAE74388012BE3
:1022040066D12DE9F041A4B004460E461546476A4E
:102214004168CB097868C009B3FBF0F800FB1838B3
:10222400B8F1000F23D10023039303A93846FFF725
:10223400D2FB002846DB314604A801F039FCAB6828
:10224400229301232393636880336360B8688023F7
:10225400009304AB00220399FEF7F2FB00282DDA69
:1022640003993846FFF730FC4FF0FF302AE0002393
:10227400039303AA2046FFF753FD002825DBB86823
:102284000022009213460399FEF73DFC00281CDB54
:10229400314604A801F00CFCAB682293012323937C
:1022A400B868802300934FEAC81304AA0399FEF781
:1022B400C7FB002809DB636880336360012384F86B
:1022C4002030002024B0BDE8F0814FF0FF30F9E762
:1022D4006FF013007047F8B505460E461F46FEF72B
:1022E400E7FDA0B104460760012380F820300246D0
:1022F40031462846FFF782FF002803DB069B1C605B
:102304000020F8BD2046FEF756FE6320F9E70C20B6
:10231400F7E770472DE9F043A5B0044600285CD0E8
:102324000E46476A002F58D022ABFFF7ADFE0028B7
:1023340059DA2046FFF724FE0546002859D0002329
:1023440083624FF48073436023A93846FFF743FB4D
:10235400002854DB314902A801F0AAFB4FF0010820
:10236400CDF88480AB682093B8684FF08009CDF82D
:102374000090002302AA2399FEF762FB284902A8D1
:1023840001F096FBCDF88480A3682093B868CDF85B
:1023940000904B4602AA2399FEF752FB2B6B239A1B
:1023A4001A6085F820800223EB602A4631462046D5
:1023B400FFF724FF061E28DBE3680133E3600123F3
:1023C40084F820302046FEF7F6FD2846FEF7F3FD9C
:1023D4000026304625B0BDE8F0832046FEF7EBFD2D
:1023E4006FF01506F5E72046FEF7E5FD6FF01006E1
:1023F400EFE72046FEF7DFFD6FF01B06E9E7204616
:10240400FEF7D9FD6FF01B06E3E72046FEF7D3FD88
:102414000023EB602846FEF7CEFDDAE7F43D000822
:10242400F83D00084288012A7FD14368002B7ED002
:102434002DE9F047A4B0466AD0F83090DF097168FE
:10244400B3FBF1F801FB183303B11346984400259C
:102454002C4651E0002024B0BDE8F0874FF0000A7C
:1024640053467268BAEBD21F45D2BC42F2D259F835
:102474002510B06880220092DB0104AAFEF743FB1A
:102484000028E7DB239B012BE4D001340AF1010A85
:102494001FFA8AFAE4E7A5F10C02B2FBF3F103FB9D
:1024A40011230C3159F82110B068042200929B00CA
:1024B40003AAFEF728FB00281BDB4FF0000A534653
:1024C4007268BAEBD21F16D2BC4212D2B068802214
:1024D4000092DB0104AA0399FEF715FB002808DB30
:1024E400239B012B05D001340AF1010A1FFA8AFA51
:1024F400E5E70020AFE70135454514D20B2DADD9F2
:1025040073689B0803EB4302520002F10C01A942D9
:10251400C1D803FB03F303EB430313440C33AB4273
:10252400E9D8002097E7012095E7002070470120B3
:1025340070474388012B00F0BB802DE9F04FA7B012
:102544008846466AD0F830A043684FEAD3197168C8
:10255400B3FBF1F201FB123303B10123D31803934C
:1025640000273D4688E04FF0FF3030E0013501346C
:10257400A4B223467268B4EBD21F7CD24D4524D258
:102584004FEAC31B5AF82710B068802300935B46B8
:1025940006AAFEF7B8FA00281CDBD8F80830249AFB
:1025A4009A42E3D1259B012BE0D1002325930C37DC
:1025B4005AF82710B068802300935B4606AAFEF7FA
:1025C4003FFA0028CFDB002001E04FF0FF3027B0B6
:1025D400BDE8F08F4FF0FF30F9E70024C9E7A7F119
:1025E4000C02B2FBF3F103FB11230C315AF8211056
:1025F400B068042200929B0005AAFEF784FA002822
:1026040036DB002405E04FF0FF30E0E7013501340C
:10261400A4B223467268B4EBD21F2CD24D4521D20A
:102624004FEAC31BB068802300935B4606AA059952
:10263400FEF769FA002818DBD8F80830249A9A4281
:10264400E4D1259B012BE1D100232593B06880239D
:1026540000935B4606AA0599FEF7F2F90028D2DB3F
:102664000020B4E74FF0FF30B1E74FF0FF30AEE7A2
:102674004FF0FF30ABE70137039B9F4215D20B2F7E
:10268400ABD973689B0803EB4302520002F10C01BF
:10269400B942A4D803FB03F303EB430313440C3301
:1026A400BB42E8D84FF0FF3091E74FF0FF308EE7A0
:1026B4004FF0FF30704770B582B0044601ABFFF7AE
:1026C400E3FC051E26DB0199606AFEF741FC064621
:1026D40048B3436A9A68636A9B689A421AD14388EA
:1026E400012B23D12046FFF79DFE10B306F11800FD
:1026F400FDF775FE01281FD80025F560012286F834
:102704002020E368013BE36084F820203146204622
:10271400FFF70FFF2046FEF74EFC3046FEF74BFC5A
:10272400284602B070BD4FF0FF35F3E76FF00105A6
:10273400F0E76FF02605EDE76FF00F05EAE72DE906
:10274400F04F8BB0039005929946002B00F08480E3
:102754008846D1F804B043685B457FD9476A026B69
:1027640007927A68BBFBF2F1029102FB11BAA2EB69
:102774000A010691B3FBF2F102FB113303B1012309
:10278400CB180493029D002617E0069A944228BFB2
:1027940014462DE0079B53F82510B868009453465F
:1027A400059A3244FEF7AFF900285ADB2644D8F8DC
:1027B40004302344C8F804300135049B9D4247D2B9
:1027C400B14545D90BEB0602039B5B689A423FD2A5
:1027D400A9EB06049A1A7B689C4228BF1C469442C3
:1027E40028BF1446029A9542CFD006934FF0000AB0
:1027F4000B2DCFD99B0803EB430252000C32AA42A3
:1028040032D9A5F10C02B2FBF3F103FB11230C3115
:10281400079A52F82110B868042200929B0009AA72
:10282400FEF771F9002810DBB86800945346059A46
:1028340032440999FEF767F9002806DB2644D8F8E4
:1028440004302344C8F80430B6E74FF0FF3000E00A
:1028540030460BB0BDE8F08F1846FAE74FF0FF3072
:10286400F7E74FF0FF30F4E74FF0FF30F1E70028CF
:1028740038D070B584B01446466A056B43688B4201
:1028840033D301317268B1FBF2F002FB101303B1D0
:10289400012303440C2B0AD9920802EB420149009C
:1028A4000C31994209D24FF0FF3004B070BD013BA6
:1028B40055F8233023600020F7E70D3BB3FBF2F11A
:1028C40002FB113355F82110B068042200929B00DA
:1028D40003AAFEF718F910B9039B2360E5E74FF04C
:1028E400FF30E2E74FF0FF3070474FF0FF30DCE796
:1028F4002DE9F04385B004460D46466A076B4368EC
:102904007168B3FBF1F201FB123303B101231344E9
:10291400581C0C2844D9890801EB410252000C329E
:10292400824255D30C3BB3FBF1F901FB193809F191
:102934000C0357F823306BB902A93046FFF74BF864
:1029440000283FDB09F10C03029A47F823200123F6
:1029540084F8203003A93046FFF73DF8002831DB26
:1029640009F10C0957F82910B0680423009303AB4C
:102974004FEA8802FEF764F800BB039B2B600CE06F
:1029840029463046FFF727F800281EDB2B6847F856
:102994002830012384F82030002005B0BDE8F083FE
:1029A4004FF00008B8F10B0F06D857F82830002B69
:1029B400E6D008F10108F5E70020EEE70399304678
:1029C400FFF782F84FF0FF30E7E74FF0FF30E4E71E
:1029D4004FF0FF30E1E72DE9F04F87B09846002B28
:1029E40074D0064693464C684368A34272D3D0F829
:1029F40024A0DAF80420B4FBF2F302FB134101B182
:102A040001210B4403FB02F303930025A94646E08E
:102A140005AA21463046FFF72AFF002818DBDAF81A
:102A24000470B4FBF7F207FB1242BF1A474528BFF4
:102A34004746DAF8080000970BEB05030599FDF704
:102A4400FFFF002804DB3D443C444FF001091FE034
:102A54004FF0FF303BE0A8EB05077368A34229D889
:102A640005A93046FFF744FF00282ADBDAF80430D2
:102A74009F4228BF1F46DAF8080000970BEB0503B6
:102A840000220599FDF7DCFF00281ADB3D443C4495
:102A94007368A34203D27460012386F82030A845EA
:102AA40012D9B9F1000FD6D1039B9C42B0D34FF099
:102AB4000109EDE705AA21463046FFF7D8FE0028B4
:102AC400D4DA4FF0FF3002E0284600E0184607B0A1
:102AD400BDE8F08F4FF0FF30F9E710B5044634201D
:102AE40001F060F9206200B1204610BD2DE9F047E5
:102AF400A4B080460E46242001F054F90446342044
:102B040001F050F9054620627F4BE361C4F8088068
:102B14008023A381C3604046FEF7A2F8606040466C
:102B2400FEF7B6F8286001236B61002E37DDEE60F6
:102B3400EA68D308A968B3FBF1FA02F007029B180C
:102B440000D00123B3FBF1F201FB1233D31800D000
:102B540001239A44C5F81CA06A690132AA61296854
:102B6400CB086068B3FBF0F901F007015B1800D0F3
:102B74000123B3FBF0F100FB1133CB1800D0012388
:102B84009944C5F8249052442A62606801F00AF915
:102B940007466268FF2100F095FF002614E04046D6
:102BA400FEF776F800EB4000584BA3FB0023DB084C
:102BB400EB60BDE7A969A0686368009300233A4607
:102BC4003144FDF73DFF01365645F3D3002609E0B5
:102BD400296AA0686368009300233A463144FDF7EC
:102BE4002FFF01364E45F3D3EB68A28902FB03F3B2
:102BF4006168B3FBF1F201FB123303B10123134407
:102C04002A6A696A0A44AA62EB621A442A63404B3C
:102C140023602046FFF79DF9002605E00122314696
:102C24002046FEF789FE01362B6BB342F6D8C4F872
:102C3400088023A92046FEF7CEFE00284DDB22A9FA
:102C44002046FEF788FF002851DB342001F0AAF863
:102C54000546002839D04FF4807343604FF4803325
:102C64000360446200238360C36001211830FDF7D0
:102C7400AEFB2846FFF7B8F820B32B6B239A1A60F3
:102C8400244902A800F014FF012321930023209378
:102C9400A0688022009202AA2399FDF7D1FE0028A1
:102CA40010DB1D4902A800F003FF01232193002338
:102CB4002093A0688023009302AA2399FDF7C0FE05
:102CC400002819DA284601F07CF823992046FEF7FB
:102CD400FBFE22992046FEF7F7FE206A01F071F808
:102CE400204601F06EF8002024B0BDE8F087239957
:102CF4002046FEF7E9FEF0E72846FFF7F5F82846F8
:102D040001F05FF8E9E700BFBC010020CDCCCCCCDA
:102D140044332211F43D0008F83D000800207047B8
:102D24000023052B0DDC084AD25C0AB10133F8E715
:102D3400054A0121D15403EBC3039A00034810440C
:102D440070470020704700BF2C0E0020540D002057
:102D5400002300E00133052B0EDC084AD25C012A73
:102D6400F8D103EBC302064901EB82028242F1D19E
:102D7400024A0021D1547047704700BF2C0E002036
:102D8400540D0020002300E00133052B10DC094A18
:102D9400D25C012AF8D103EBC302074901EB82029A
:102DA40092688242F0D103EBC30301EB83007047C6
:102DB400002070472C0E0020540D0020F8B5064664
:102DC4000C46FFF7DFFF054608B12846F8BDFFF7BC
:102DD400A7FF05460028F8D02046FEF74DF8044624
:102DE40078B1AE60C36828469847074620B1A36807
:102DF40028469847AE60E8E72846FFF7A9FF3D4616
:102E0400E3E70546E1E700207047000038B50446D3
:102E140000250C4B1B68AB4211D90B4B05EB85010C
:102E240003EB8102127953F82110084B1868FFF75D
:102E3400C5FF28B14369C4F81433C4F8183338BD46
:102E44000135E6E7D4000020D8000020D006002099
:102E540070B506460469656801210D48FDF7D2FA8C
:102E64000028F9D002E06B682C461D4654B1236853
:102E7400012283F83820204600F0A3FF002DF2D170
:102E84002B46F1E70021B1600148FDF7A0FA70BDBF
:102E9400340E002070B504460D46082000F082FF71
:102EA400C0B10646056001210C48FDF7ABFA0028C5
:102EB400F9D023697360266100210848FDF787FA79
:102EC400A3680133A360202385F8383000F06AF941
:102ED400002070BD6FF00A00FBE700BF340E002035
:102EE4000F2816D838B504460B4B1B780BB1204677
:102EF40038BD00EB8005094B03EB8505012128460D
:102F0400FDF765FA0023EB602B61034B01221A7075
:102F1400EDE74FF0FF307047320E0020380E0020EE
:102F24000F2819DC10B5044600EB800301210D487D
:102F340000EB8300FDF766FA08B1002010BD04EB36
:102F44008404094B196A074800EB8400FFF7A2FFC9
:102F5400002804DB0020F1E74FF0FF3070476FF0EA
:102F64000A00EBE7380E0020780F00200F2811DC50
:102F740010B500EB8000094C04EB800400212046CE
:102F8400FDF752FA08B1002010BD2046FFF760FF9C
:102F94000020F9E74FF0FF30704700BF380E0020E3
:102FA40010B5044638B101212046FDF73DFA00284A
:102FB400F9D0002010BD4FF0FF30FBE728B108B571
:102FC4000021FDF704FA002008BD4FF0FF307047E0
:102FD40070B504460E46FDF787F90546204600F015
:102FE400D1F80446E0B1032384F838300F4A9169DC
:102FF4000B89013B0B8193691B89A3B1C4F850620F
:103004002846FDF778F9606900F0DBFEFDF76CF9FE
:10301400042384F83830FDF76EF900F0C3F870BD6E
:10302400024B1C6ADFE700F0C9F8E7E7780F0020DD
:1030340008B501460120FDF7A1FA002800DB08BD10
:103044004042014B1860FAE7B40F002008B501466E
:103054004FF0FF30FFF7BCFF002008BDF8B506466F
:103064004FF0FF3000F08EF80546FDF73DF90746B6
:103074004FF4477000F096FE002840D004464FF409
:103084004772294600F002FD022384F838300023F9
:10309400A360E3602361A069E3691844800000F041
:1030A40081FE6061002830D02448FDF798F900B211
:1030B4006063204600F0A0F880BB2048FDF766F965
:1030C4006560A269E3691A4492006969606900F065
:1030D400DDFC62696B6A69695B1A13446362A36904
:1030E40043B36869361A324422620023136201230F
:1030F40084F838303846FDF7FEF8606BF8BD384682
:10310400FDF7F9F84FF0FF30F8E7204600F059FEDC
:103114003846FDF7F0F84FF0FF30EFE7204600F0B7
:1031240050FE606900F04DFE3846FDF7E4F84FF0BC
:10313400FF30E3E74FF0FF332362D8E7A80F002006
:103144000246044BD86800E0C06810B1037993428A
:10315400FAD17047780F002010B50446102000F013
:1031640021FE034648B10022C2600260C28004719D
:103174000281034AD168C160D060184610BD00BF07
:10318400780F0020021E07DB054BD86A38B1436B69
:10319400934204D00069F9E7014B186A70477047FD
:1031A400780F002008B501210348FDF71AF900B98A
:1031B40008BDFDF7A3F8FBE7A00F002008B5FDF755
:1031C40093F80C4BDB68002101E01946DB685BB126
:1031D4001A89002AFAD00029F7D093F804C00A7992
:1031E4009445F3D91946F1E7024B9961FDF783F849
:1031F40008BD00BF780F0020002846D070B50446F3
:10320400FDF772F8054694F839603046FFF798FFE9
:103214000346F0B1DA880132DA801A8901321A8160
:103224001A682AB3A2601C602360194BDB6A0BB3D3
:103234002361174BDC622846FDF75DF8144B9B694C
:1032440023B194F839101A79914216D8CBB10020E1
:1032540070BD3046FFF780FF03460028DAD12846C8
:10326400FDF749F80B4B0C221A604FF0FF30EFE7E3
:103274001C60D9E7064BDC62DDE7FFF79FFF002007
:10328400E6E7FFF79BFF0020E2E74FF0FF307047CF
:10329400780F0020B40F0020014618B10A4B1B69B7
:1032A400002208E0084B196AF8E7DA68064B1A614D
:1032B40070471A46DB6833B19942FAD1002AF4D038
:1032C400DB68D36070477047780F002010B53C4B23
:1032D400596901315961DB6A03E0DA6A0132DA6261
:1032E4001B69002B54D0D3F84822002AF5D0914210
:1032F400F3D91A6C42F400521A640022C3F848222B
:10330400EBE7226B92B3013A22637AB30133DBB267
:103314001F2B49D80121994000EA0102013A0F2AE2
:10332400F4D80FF2080C5CF822F000BF0733000851
:10333400073300081133000807330008113300086D
:103344001133000811330008073300081133000853
:103354001133000811330008113300081133000839
:103364001133000811330008073300082268138959
:1033740001331381012384F83830E36B23EA01031A
:10338400E3632046FFF788FF23681A89012A02D0E5
:103394000B4B1C6909E01979094A92691279914227
:1033A400F6D9074A9361F3E7E46844B194F83830F6
:1033B400022BF9D1E06B0028F6D00023A8E710BD5A
:1033C400780F002000B54FF0E023D3F8243D13F02C
:1033D400800F19D04FF0E02CDCF8243D23F080035B
:1033E400CCF8243D4FF0010C244B1B7F8BB9234BAD
:1033F4009B691B684BB393F83820012A07D11F4AF5
:1034040013620123137720E04FF0000CECE79B6874
:10341400F0E71A4BD3F820E0CEF820001B6A59627B
:10342400198D022900D01A85A3F82AC09B6804E0EC
:1034340093F83820012A06D09B68002BF8D10F4B53
:103444009B691B68F4E70D4A13620C4B1B6A5B8D86
:10345400012B04D0094B186A20305DF804FB4FF0AF
:10346400E023D3F8242D42F08002C3F8242DD3F8AE
:10347400242D22F48072C3F8242DEBE7780F00206A
:1034840010B407490A6AD2F848424B694FF47A717A
:1034940001FB0033C2F84832204610BC704700BF1D
:1034A400780F0020014B1B6A586B7047780F00207F
:1034B4006FF0250070476FF0250070476FF025000E
:1034C40070476FF0250070476FF0250070470000CB
:1034D400054B1A6A92F83930191A002901DD82F86D
:1034E40039100020704700BF780F002010B500F09D
:1034F400B5FB084C012104F12800FCF768FF012109
:1035040004F13000FCF763FF0023A361636200F061
:1035140069FB10BD780F002008B5FFF7E7FFFCF743
:10352400C5FEFCF7BDFF002008BD0000024B1B6A6E
:10353400D3F84402704700BF780F00200346054AC1
:10354400126AD2F8440223F4802323F48073C2F86D
:1035540044327047780F002010B485B0431E1F2BEF
:103564001BD809281CD013281DD0009100230193D7
:103574004FF04043029303920C4B1B6A033003EB5E
:10358400001000F1040C446804AB13E90F008CE84C
:103594000F00204605B010BC70476FF01504F8E723
:1035A4006FF01504F5E76FF01504F2E7780F0020CB
:1035B400431E1F2B35D830B51546092834D013289F
:1035C40035D01C4B1C6A00F1FF3E00F1030C04EBE8
:1035D4000C1C0CF1040C0FC98CE80F003DB10EF16A
:1035E400040304EB031304330FCB85E80F00114BE2
:1035F4001B6A03EB0E12D06C10F0804006D00EF163
:10360400040E03EB0E130020986030BD012202FA71
:103614000EF10EF1040E03EB0E139A680A439A603E
:10362400F3E76FF0150070476FF01500EDE76FF0EA
:103634001500EAE7780F0020F8B54D4B1C6ACB1C47
:1036440004EB03135B68012B00F08D8006460D46E6
:103654004F1E002B4AD004EB0713DB6C13F0804F92
:1036640070D101233360424B1B6AD3F8443246F8CD
:10367400043CA6F108004FF0807246F8082C3A1D6D
:1036840004EB0212526840F8042C04EB0716326D66
:1036940040F8082C4FF0123240F80C2C4FF0033253
:1036A40040F8102C4FF0023240F8142C4FF0013245
:1036B40040F8182C40F81C5C1C38FCF719FEF36C1D
:1036C400002B4ADB2A4B1B6A3A1D04EB0214A16847
:1036D400D3F844220A43C3F84422012202FA07F72A
:1036E4001A6C22EA07021A640020F8BDCB1E132BC1
:1036F40022D8DFE803F01B1B1B1B211B21211B21EC
:10370400212121213B3B0A0A0A0A022384F838308A
:10371400C4F850126368D3F84C2112F0010F03D19E
:103724001A6C42F480321A640120DEE741F0800111
:103734004FF0FF30FFF74CFC29464FF0FF30FFF706
:1037440047FC88E70023336046F8043CA6F10800F0
:103754004FF0807246F8082C91E73B1D04EB0313ED
:1037640000225A60AEE74FF0FF30BEE70120BCE70D
:10377400780F002008B550F8283C012B04D02430E1
:10378400FCF7B6FD002008BD034B1B6A50F8242C3F
:10379400C3F84422F3E700BF780F002008B50E4BAE
:1037A4001B6A1A8D012A00D008BDD3F844121A6C82
:1037B40022EA0102002100E001311F29F4D801238B
:1037C4008B401342F8D00131FFF736FF0128EBD1CB
:1037D400FFF7E8FCE8E700BF780F0020B0F5006FC2
:1037E40006D808B50348FFF7DBFB034B186808BD90
:1037F40000207047B00F0020AC0F002008B502482D
:10380400FFF7DCFB08BD00BFB00F00206FF0250000
:1038140070476FF0250070476FF0250070476FF018
:10382400250070476FF0250070476FF02500704742
:103834006FF02500704708B50146FFF7F9FF08BD92
:103844006FF0250070476FF0250070476FF025007A
:1038540070476FF0250070476FF025007047002017
:1038640070476FF02500704708B50146FFF7F9FF70
:1038740008BD6FF0250070476FF0250070476FF0AA
:10388400250070476FF0250070476FF025007047E2
:103894006FF0250070476FF0250070476FF025002A
:1038A400704738B5044600F12005836B13F802CC49
:1038B400006A616AA26AE36ABCF1800F03D04FF028
:1038C400FF3323620AE077280AD002280ED0800052
:1038D400FCF748FE20622846FFF760FF002038BD51
:1038E40029468000FCF73EFE2062F4E72146800072
:1038F400FCF738FE2062EEE7002800F0A3802DE9F3
:10390400F04F83B0D0F8009042680192D0F808B02C
:1039140090F80CA0C589078A4669B9F1000F52D006
:103924004FF4477000F03EFA0446002851D04FF49B
:103934004772002100F0C6F8C4F84C62EE19B000DA
:1039440000F030FA8046002849D00023E362236364
:103954003E48FCF744FD00B26063C4F81480002DB7
:1039640046D006F18046013E08EB8606266207F142
:103974008043013B08EB830363620123238584F8BE
:1039840039A0A561E761022384F838300023A360DD
:10399400E360236185BB5B46019A4946606AFCF794
:1039A400B5FC606285BB022323852046FFF724FC17
:1039B4000346A0B3204600F004FA404600F001FAA2
:1039C4004FF0FF303BE0224B63221A604FF0FF3090
:1039D40035E01F4B0C221A604FF0FF302FE02046D9
:1039E40000F0EFF91A4B0C221A604FF0FF3026E07A
:1039F4004FF0FF332362BAE75B46019A4946206AD7
:103A0400FCF784FC2062C6E701232385CDE703EBA2
:103A1400430204EBC202002182F868120133072B2F
:103A2400F5DD2046FFF7F2F90848FCF7AFFCFCF798
:103A34005BFC012384F83830FCF75DFC606B03B059
:103A4400BDE8F08F4FF0FF30704700BFA80F002093
:103A5400B40F0020054B1A68054943F2390001FBF5
:103A640002001860C0F30E40704700BFFC03002042
:103A74006D4EC64184469CF8002008780131101A26
:103A840003D10CF1010C002AF5D17047034604E080
:103A940011F801CB03F801CB013A002AF8D17047A1
:103AA400034600E001331A78002AFBD1181A704744
:103AB40084460A7801318CF800200CF1010C002AAC
:103AC400F7D17047034602E003F8011B013A002ACC
:103AD400FAD17047034662B110B402E00133013AEF
:103AE4002AB10C781C70002CF8D00131F6E710BC18
:103AF4007047704708B50020FCF740FD002800DB44
:103B0400FEE74042014B1860FAE700BFB40F002003
:103B140010B540F2FF1200210F48FDF753FD041EBB
:103B240000DAFEE78C220D492046FDF7F1FD00285E
:103B340000DAFEE78C2209492046FDF7E9FD00285A
:103B440000DAFEE78C2205492046FDF7E1FD002856
:103B540000DBFEE7FEE700BFFC3D0008B80F0020D5
:103B640008B513460A4601463020FCF707FD002835
:103B740000DB08BD4042024B18604FF0FF30F8E70D
:103B8400B40F002008B501461B20FCF7F7FC002801
:103B940000DB08BD4042024B18604FF0FF30F8E7ED
:103BA400B40F00200E2800D0704708B50120FFF79D
:103BB400E9FF034A03490E20FFF7D2FF08BD00BF07
:103BC4009D040008A93B000808B5044A04490E20D6
:103BD400FFF7C6FF0520FFF7D5FFFEE79D040008A9
:103BE400A93B000808B5FDF7A9F81E21154B186874
:103BF400FEF77CFF1448154B03600021416081608F
:103C040006230373C1814FF400730382104B436195
:103C1400FFF772FE002800DAFEE70B480D4B036045
:103C2400002141608160062303734FF48073C381D4
:103C34000382094B4361FFF75FFE002800DB08BDE8
:103C4400FEE700BFD006002044100020153B00080A
:103C5400003E0008CD3B00080C3E0008002313E0A2
:103C640003EB4302D0000C4A02445268002042F89D
:103C74002100013103EB4302D000074A0244D26819
:103C84008A42EDD801339BB2034A128E9A4201D97B
:103C94000021EFE7704700BF000400202A4B1B8E71
:103CA40083424BD970B5284A00EB400402EBC403AD
:103CB40052F834505E68B3F810C0B1FBFCF40CFB4E
:103CC4001411002918BF01344FF0000E734602E0AE
:103CD40013444FF0000E00EB40021B4901EBC202FB
:103CE400D168994209D956F82320002AF0D10EF15F
:103CF400010E744509D00133EDE7002202B3994265
:103D040020D91B1B01331A4604E00122F6E746F8CA
:103D140023400132E118914205D99A42F7D001219A
:103D240046F82210F5E7084A00EB400102EBC10116
:103D34004A69141B4C6103FB0C5070BD0020704792
:103D44000020FAE70020F8E70004002039B330B47B
:103D54000B46134A00EB400402EBC40152F8345002
:103D64004C680A8A5B1BB3FBF2F2CB68934214D310
:103D74000B4B00EB400103EBC1014B6954F82200EB
:103D840003444B6154F82200134603E0002144F835
:103D94002310013311189942F8D830BC704770478A
:103DA4000004002038B50446FCF79EFA0546214677
:103DB4000020FFF773FF04462846FCF79CFA2046D0
:103DC40038BD38B50546FCF78FFA0446294600206D
:103DD400FFF7BCFF2046FCF78EFA38BD190800082F
:043DE4006908000862
:103DE800666C617368000000737000002E000000AC
:103DF8002E2E00002F0000004B65726E656C54611A
:0C3E0800736B0000746573740000000010
:103E140001090008A5080008E5070008840000203F
:103E2400000000000000000000000000000000008E
:103E3400000000000000000000000000000000007E
:103E4400000000000000000000000000000000006E
:103E54000000000000000000AC0000200000000092
:103E6400000000000000000000000000000000004E
:103E7400000000000000000000000000000000003E
:103E8400000000000000000000000000000000002E
:103E9400000000000000000000000000000000001E
:103EA400000000000000000000000000000000000E
:103EB400DD0B00080000000000000000000000000E
:103EC40000000000000000000000000000000000EE
:103ED4000000000000000000B10B0008000000001A
:103EE4000000000001000000F03D00080100000097
:103EF400E51F0008DF2A0008000000002000000081
:103F0400FFFFFFFF30010020DB220008D72100085B
:103F14000000000000000000000000001923000859
:103F2400BB26000817230008000000000000000062
:103F3400000000000000000000000000000000007D
:103F4400000000009F1D000800000000A51D0008DF
:103F5400000000000000000000000000000000005D
:103F64000000000000000000940100200000000098
:103F7400000000000000000000000000000000003D
:103F8400000000000000000000000000000000002D
:103F9400000000000000000000000000000000001D
:103FA400000000000000000043270008DB2900088F
:103FB40000000000000000000000000000000000FD
:103FC4000000000000000000212D0008ED1D000885
:103FD400111E0008391E000800000000ED1E000834
:103FE4000000000000000000571F0008000000004F
:103FF400000000001D350008513000086130000841
:104004004D180008C5180008C9150008B5160008A1
:1040140000000000A9160008FD12000803130008A0
:104024000000000079140008633800086F130008CA
:104034009D150008C115000817380008000000008D
:1040440089170008A93400080B2E0008000000009E
:104054006D380008BB340008773800081D380008A4
:104064008534000800000000000000006D14000802
:10407400233800082938000873140008D5340008D0
:104084001138000800000000691300082912000814
:1040940097120008450E00087D3800082F380008E4
:1040A400833800083B380008C73400085D35000831
:1040B400C1340008CD340008453800084B380008E6
:1040C4005138000819100008510E0008573800082C
:1040D400893800085D3800089B380008A1380008BA
:1040E40011150008E3130008ED0D0008B5340008AD
:1040F4008F38000895380008B535000831350008B8
:104104004135000867380008353800080000000011
:10411400000000000000000000000000000000009B
:10412400000000000000000000000000000000008B
:10413400000000000000000000000000000000007B
:10414400000000000000000000000000000000006B
:104154000000000000000000151700080000000027
:104164000000000000000000000000004D150008E1
:10417400000000000000000000000000000000003B
:10418400E91300081D1400080000000000000000EE
:10419400000000000000000000000000000000001B
:1041A400000000000000000000000000000000000B
:1041B40000000000000000000000000000000000FB
:1041C40000000000000000000000000000000000EB
:1041D4007937000800000000000000000000000023
:1041E40000000000000000000000000000000000CB
:1041F40000000000000000000000000000000000BB
:104204000000000000000000B514000801000000D8
:104214008010002080E0002000D000004003000057
:10422400400000004003000000F000680000006847
:1042340000000F00003C000040000000003C0000B3
:044244000200000074
:04000005080007A147
:00000001FF
